{
	"contracts/HotswapController_flattened.sol": {
		"HotswapController": {
			"abi": [
				{
					"anonymous": false,
					"inputs": [
						{
							"indexed": false,
							"internalType": "address",
							"name": "controllor",
							"type": "address"
						},
						{
							"indexed": false,
							"internalType": "address",
							"name": "liquidity",
							"type": "address"
						}
					],
					"name": "HotswapDeployed",
					"type": "event"
				},
				{
					"anonymous": false,
					"inputs": [
						{
							"indexed": false,
							"internalType": "uint256",
							"name": "amount",
							"type": "uint256"
						},
						{
							"indexed": false,
							"internalType": "address",
							"name": "targetAddr",
							"type": "address"
						}
					],
					"name": "NativeTransferred",
					"type": "event"
				},
				{
					"anonymous": false,
					"inputs": [
						{
							"indexed": true,
							"internalType": "address",
							"name": "previousOwner",
							"type": "address"
						}
					],
					"name": "OwnershipRenounced",
					"type": "event"
				},
				{
					"anonymous": false,
					"inputs": [
						{
							"indexed": true,
							"internalType": "address",
							"name": "previousOwner",
							"type": "address"
						},
						{
							"indexed": true,
							"internalType": "address",
							"name": "newOwner",
							"type": "address"
						}
					],
					"name": "OwnershipTransferred",
					"type": "event"
				},
				{
					"inputs": [],
					"name": "FFT",
					"outputs": [
						{
							"internalType": "address",
							"name": "",
							"type": "address"
						}
					],
					"stateMutability": "view",
					"type": "function"
				},
				{
					"inputs": [],
					"name": "NFT",
					"outputs": [
						{
							"internalType": "address",
							"name": "",
							"type": "address"
						}
					],
					"stateMutability": "view",
					"type": "function"
				},
				{
					"inputs": [],
					"name": "_collector",
					"outputs": [
						{
							"internalType": "address",
							"name": "",
							"type": "address"
						}
					],
					"stateMutability": "view",
					"type": "function"
				},
				{
					"inputs": [],
					"name": "_fees",
					"outputs": [
						{
							"internalType": "uint256",
							"name": "",
							"type": "uint256"
						}
					],
					"stateMutability": "view",
					"type": "function"
				},
				{
					"inputs": [
						{
							"internalType": "uint256",
							"name": "",
							"type": "uint256"
						}
					],
					"name": "_liquidities",
					"outputs": [
						{
							"internalType": "address",
							"name": "depositor",
							"type": "address"
						},
						{
							"internalType": "uint256",
							"name": "depositedAt",
							"type": "uint256"
						},
						{
							"internalType": "uint256",
							"name": "price",
							"type": "uint256"
						},
						{
							"internalType": "uint256",
							"name": "nftAlloc",
							"type": "uint256"
						},
						{
							"internalType": "uint256",
							"name": "fftAlloc",
							"type": "uint256"
						},
						{
							"internalType": "bool",
							"name": "claimed",
							"type": "bool"
						},
						{
							"internalType": "uint256",
							"name": "userIndex",
							"type": "uint256"
						}
					],
					"stateMutability": "view",
					"type": "function"
				},
				{
					"inputs": [],
					"name": "_liquidity",
					"outputs": [
						{
							"internalType": "address",
							"name": "",
							"type": "address"
						}
					],
					"stateMutability": "view",
					"type": "function"
				},
				{
					"inputs": [],
					"name": "_price",
					"outputs": [
						{
							"internalType": "uint256",
							"name": "",
							"type": "uint256"
						}
					],
					"stateMutability": "view",
					"type": "function"
				},
				{
					"inputs": [
						{
							"internalType": "uint256",
							"name": "amount",
							"type": "uint256"
						}
					],
					"name": "depositFFT",
					"outputs": [],
					"stateMutability": "nonpayable",
					"type": "function"
				},
				{
					"inputs": [
						{
							"internalType": "uint256",
							"name": "amount",
							"type": "uint256"
						}
					],
					"name": "depositNFT",
					"outputs": [],
					"stateMutability": "nonpayable",
					"type": "function"
				},
				{
					"inputs": [],
					"name": "fftLiquidity",
					"outputs": [
						{
							"internalType": "uint256",
							"name": "",
							"type": "uint256"
						}
					],
					"stateMutability": "view",
					"type": "function"
				},
				{
					"inputs": [
						{
							"internalType": "bool",
							"name": "isFFT",
							"type": "bool"
						}
					],
					"name": "getLiquidityCount",
					"outputs": [
						{
							"internalType": "uint256",
							"name": "",
							"type": "uint256"
						}
					],
					"stateMutability": "view",
					"type": "function"
				},
				{
					"inputs": [],
					"name": "getPrice",
					"outputs": [
						{
							"internalType": "uint256",
							"name": "",
							"type": "uint256"
						}
					],
					"stateMutability": "nonpayable",
					"type": "function"
				},
				{
					"inputs": [],
					"name": "isOwner",
					"outputs": [
						{
							"internalType": "bool",
							"name": "",
							"type": "bool"
						}
					],
					"stateMutability": "view",
					"type": "function"
				},
				{
					"inputs": [],
					"name": "nftLiquidity",
					"outputs": [
						{
							"internalType": "uint256",
							"name": "",
							"type": "uint256"
						}
					],
					"stateMutability": "view",
					"type": "function"
				},
				{
					"inputs": [],
					"name": "owner",
					"outputs": [
						{
							"internalType": "address",
							"name": "",
							"type": "address"
						}
					],
					"stateMutability": "view",
					"type": "function"
				},
				{
					"inputs": [
						{
							"internalType": "uint256",
							"name": "index",
							"type": "uint256"
						}
					],
					"name": "queryLiquid",
					"outputs": [
						{
							"components": [
								{
									"internalType": "address",
									"name": "depositor",
									"type": "address"
								},
								{
									"internalType": "uint256",
									"name": "depositedAt",
									"type": "uint256"
								},
								{
									"internalType": "uint256",
									"name": "price",
									"type": "uint256"
								},
								{
									"internalType": "uint256",
									"name": "nftAlloc",
									"type": "uint256"
								},
								{
									"internalType": "uint256",
									"name": "fftAlloc",
									"type": "uint256"
								},
								{
									"internalType": "bool",
									"name": "claimed",
									"type": "bool"
								}
							],
							"internalType": "struct HotswapControllerBase.LiquidData",
							"name": "",
							"type": "tuple"
						}
					],
					"stateMutability": "view",
					"type": "function"
				},
				{
					"inputs": [
						{
							"internalType": "address",
							"name": "depositor",
							"type": "address"
						},
						{
							"internalType": "uint256",
							"name": "index",
							"type": "uint256"
						}
					],
					"name": "queryLiquidbyDepositor",
					"outputs": [
						{
							"components": [
								{
									"internalType": "address",
									"name": "depositor",
									"type": "address"
								},
								{
									"internalType": "uint256",
									"name": "depositedAt",
									"type": "uint256"
								},
								{
									"internalType": "uint256",
									"name": "price",
									"type": "uint256"
								},
								{
									"internalType": "uint256",
									"name": "nftAlloc",
									"type": "uint256"
								},
								{
									"internalType": "uint256",
									"name": "fftAlloc",
									"type": "uint256"
								},
								{
									"internalType": "bool",
									"name": "claimed",
									"type": "bool"
								}
							],
							"internalType": "struct HotswapControllerBase.LiquidData",
							"name": "",
							"type": "tuple"
						}
					],
					"stateMutability": "view",
					"type": "function"
				},
				{
					"inputs": [],
					"name": "renounceOwnership",
					"outputs": [],
					"stateMutability": "nonpayable",
					"type": "function"
				},
				{
					"inputs": [
						{
							"internalType": "address",
							"name": "addr",
							"type": "address"
						}
					],
					"name": "setCollector",
					"outputs": [],
					"stateMutability": "nonpayable",
					"type": "function"
				},
				{
					"inputs": [
						{
							"internalType": "address",
							"name": "addr",
							"type": "address"
						}
					],
					"name": "setFFT",
					"outputs": [],
					"stateMutability": "nonpayable",
					"type": "function"
				},
				{
					"inputs": [
						{
							"internalType": "address",
							"name": "addr",
							"type": "address"
						}
					],
					"name": "setLiquidity",
					"outputs": [],
					"stateMutability": "nonpayable",
					"type": "function"
				},
				{
					"inputs": [
						{
							"internalType": "address",
							"name": "addr",
							"type": "address"
						}
					],
					"name": "setNFT",
					"outputs": [],
					"stateMutability": "nonpayable",
					"type": "function"
				},
				{
					"inputs": [
						{
							"internalType": "uint256",
							"name": "amount",
							"type": "uint256"
						}
					],
					"name": "swapFFT",
					"outputs": [],
					"stateMutability": "nonpayable",
					"type": "function"
				},
				{
					"inputs": [
						{
							"internalType": "uint256",
							"name": "amount",
							"type": "uint256"
						}
					],
					"name": "swapNFT",
					"outputs": [],
					"stateMutability": "nonpayable",
					"type": "function"
				},
				{
					"inputs": [
						{
							"internalType": "address",
							"name": "newOwner",
							"type": "address"
						}
					],
					"name": "transferOwnership",
					"outputs": [],
					"stateMutability": "nonpayable",
					"type": "function"
				},
				{
					"inputs": [
						{
							"internalType": "uint256",
							"name": "index",
							"type": "uint256"
						}
					],
					"name": "withdrawLiquidity",
					"outputs": [],
					"stateMutability": "nonpayable",
					"type": "function"
				}
			],
			"devdoc": {
				"kind": "dev",
				"methods": {},
				"version": 1
			},
			"evm": {
				"assembly": "    /* \"contracts/HotswapController_flattened.sol\":17516:26350  contract HotswapController is HotswapControllerBase {... */\n  mstore(0x40, 0x80)\n  callvalue\n  dup1\n  iszero\n  tag_1\n  jumpi\n  0x00\n  dup1\n  revert\ntag_1:\n  pop\n    /* \"contracts/HotswapController_flattened.sol\":7183:7193  msg.sender */\n  caller\n    /* \"contracts/HotswapController_flattened.sol\":7174:7180  _owner */\n  0x00\n  dup1\n    /* \"contracts/HotswapController_flattened.sol\":7174:7193  _owner = msg.sender */\n  0x0100\n  exp\n  dup2\n  sload\n  dup2\n  0xffffffffffffffffffffffffffffffffffffffff\n  mul\n  not\n  and\n  swap1\n  dup4\n  0xffffffffffffffffffffffffffffffffffffffff\n  and\n  mul\n  or\n  swap1\n  sstore\n  pop\n    /* \"contracts/HotswapController_flattened.sol\":16391:16401  msg.sender */\n  caller\n    /* \"contracts/HotswapController_flattened.sol\":16378:16388  _collector */\n  0x05\n  0x00\n    /* \"contracts/HotswapController_flattened.sol\":16378:16401  _collector = msg.sender */\n  0x0100\n  exp\n  dup2\n  sload\n  dup2\n  0xffffffffffffffffffffffffffffffffffffffff\n  mul\n  not\n  and\n  swap1\n  dup4\n  0xffffffffffffffffffffffffffffffffffffffff\n  and\n  mul\n  or\n  swap1\n  sstore\n  pop\n    /* \"contracts/HotswapController_flattened.sol\":17516:26350  contract HotswapController is HotswapControllerBase {... */\n  dataSize(sub_0)\n  dup1\n  dataOffset(sub_0)\n  0x00\n  codecopy\n  0x00\n  return\nstop\n\nsub_0: assembly {\n        /* \"contracts/HotswapController_flattened.sol\":17516:26350  contract HotswapController is HotswapControllerBase {... */\n      mstore(0x40, 0x80)\n      callvalue\n      dup1\n      iszero\n      tag_1\n      jumpi\n      0x00\n      dup1\n      revert\n    tag_1:\n      pop\n      jumpi(tag_2, lt(calldatasize, 0x04))\n      shr(0xe0, calldataload(0x00))\n      dup1\n      0x8e991592\n      gt\n      tag_29\n      jumpi\n      dup1\n      0xdcc9606f\n      gt\n      tag_30\n      jumpi\n      dup1\n      0xe91a7ca6\n      gt\n      tag_31\n      jumpi\n      dup1\n      0xe91a7ca6\n      eq\n      tag_25\n      jumpi\n      dup1\n      0xf2fde38b\n      eq\n      tag_26\n      jumpi\n      dup1\n      0xf56e9c66\n      eq\n      tag_27\n      jumpi\n      dup1\n      0xfb5b82d0\n      eq\n      tag_28\n      jumpi\n      jump(tag_2)\n    tag_31:\n      dup1\n      0xdcc9606f\n      eq\n      tag_22\n      jumpi\n      dup1\n      0xdd81b5ae\n      eq\n      tag_23\n      jumpi\n      dup1\n      0xe53442f0\n      eq\n      tag_24\n      jumpi\n      jump(tag_2)\n    tag_30:\n      dup1\n      0x8e991592\n      eq\n      tag_16\n      jumpi\n      dup1\n      0x8f32d59b\n      eq\n      tag_17\n      jumpi\n      dup1\n      0x98d5fdca\n      eq\n      tag_18\n      jumpi\n      dup1\n      0xc80f4e35\n      eq\n      tag_19\n      jumpi\n      dup1\n      0xd212a69a\n      eq\n      tag_20\n      jumpi\n      dup1\n      0xdb9fcd01\n      eq\n      tag_21\n      jumpi\n      jump(tag_2)\n    tag_29:\n      dup1\n      0x491d0a56\n      gt\n      tag_32\n      jumpi\n      dup1\n      0x6cc62992\n      gt\n      tag_33\n      jumpi\n      dup1\n      0x6cc62992\n      eq\n      tag_12\n      jumpi\n      dup1\n      0x715018a6\n      eq\n      tag_13\n      jumpi\n      dup1\n      0x7c0b8de2\n      eq\n      tag_14\n      jumpi\n      dup1\n      0x8da5cb5b\n      eq\n      tag_15\n      jumpi\n      jump(tag_2)\n    tag_33:\n      dup1\n      0x491d0a56\n      eq\n      tag_9\n      jumpi\n      dup1\n      0x4e36245d\n      eq\n      tag_10\n      jumpi\n      dup1\n      0x678660fb\n      eq\n      tag_11\n      jumpi\n      jump(tag_2)\n    tag_32:\n      dup1\n      0x04bb60ce\n      eq\n      tag_3\n      jumpi\n      dup1\n      0x0a861f2a\n      eq\n      tag_4\n      jumpi\n      dup1\n      0x235b6ea1\n      eq\n      tag_5\n      jumpi\n      dup1\n      0x36171e0e\n      eq\n      tag_6\n      jumpi\n      dup1\n      0x3bd11f57\n      eq\n      tag_7\n      jumpi\n      dup1\n      0x41796a17\n      eq\n      tag_8\n      jumpi\n    tag_2:\n      0x00\n      dup1\n      revert\n        /* \"contracts/HotswapController_flattened.sol\":14300:14318  address public FFT */\n    tag_3:\n      tag_34\n      tag_35\n      jump\t// in\n    tag_34:\n      mload(0x40)\n      tag_36\n      swap2\n      swap1\n      tag_37\n      jump\t// in\n    tag_36:\n      mload(0x40)\n      dup1\n      swap2\n      sub\n      swap1\n      return\n        /* \"contracts/HotswapController_flattened.sol\":20477:21359  function withdrawLiquidity(uint256 index) external {... */\n    tag_4:\n      tag_38\n      0x04\n      dup1\n      calldatasize\n      sub\n      dup2\n      add\n      swap1\n      tag_39\n      swap2\n      swap1\n      tag_40\n      jump\t// in\n    tag_39:\n      tag_41\n      jump\t// in\n    tag_38:\n      stop\n        /* \"contracts/HotswapController_flattened.sol\":16195:16216  uint256 public _price */\n    tag_5:\n      tag_42\n      tag_43\n      jump\t// in\n    tag_42:\n      mload(0x40)\n      tag_44\n      swap2\n      swap1\n      tag_45\n      jump\t// in\n    tag_44:\n      mload(0x40)\n      dup1\n      swap2\n      sub\n      swap1\n      return\n        /* \"contracts/HotswapController_flattened.sol\":16859:16976  function setLiquidity(address addr) external onlyOwner {... */\n    tag_6:\n      tag_46\n      0x04\n      dup1\n      calldatasize\n      sub\n      dup2\n      add\n      swap1\n      tag_47\n      swap2\n      swap1\n      tag_48\n      jump\t// in\n    tag_47:\n      tag_49\n      jump\t// in\n    tag_46:\n      stop\n        /* \"contracts/HotswapController_flattened.sol\":17620:17647  uint256 public fftLiquidity */\n    tag_7:\n      tag_50\n      tag_51\n      jump\t// in\n    tag_50:\n      mload(0x40)\n      tag_52\n      swap2\n      swap1\n      tag_45\n      jump\t// in\n    tag_52:\n      mload(0x40)\n      dup1\n      swap2\n      sub\n      swap1\n      return\n        /* \"contracts/HotswapController_flattened.sol\":19490:19651  function queryLiquid(... */\n    tag_8:\n      tag_53\n      0x04\n      dup1\n      calldatasize\n      sub\n      dup2\n      add\n      swap1\n      tag_54\n      swap2\n      swap1\n      tag_40\n      jump\t// in\n    tag_54:\n      tag_55\n      jump\t// in\n    tag_53:\n      mload(0x40)\n      tag_56\n      swap2\n      swap1\n      tag_57\n      jump\t// in\n    tag_56:\n      mload(0x40)\n      dup1\n      swap2\n      sub\n      swap1\n      return\n        /* \"contracts/HotswapController_flattened.sol\":16161:16186  address public _liquidity */\n    tag_9:\n      tag_58\n      tag_59\n      jump\t// in\n    tag_58:\n      mload(0x40)\n      tag_60\n      swap2\n      swap1\n      tag_37\n      jump\t// in\n    tag_60:\n      mload(0x40)\n      dup1\n      swap2\n      sub\n      swap1\n      return\n        /* \"contracts/HotswapController_flattened.sol\":23935:24733  function swapFFT(uint256 amount) external {... */\n    tag_10:\n      tag_61\n      0x04\n      dup1\n      calldatasize\n      sub\n      dup2\n      add\n      swap1\n      tag_62\n      swap2\n      swap1\n      tag_40\n      jump\t// in\n    tag_62:\n      tag_63\n      jump\t// in\n    tag_61:\n      stop\n        /* \"contracts/HotswapController_flattened.sol\":17575:17602  uint256 public nftLiquidity */\n    tag_11:\n      tag_64\n      tag_65\n      jump\t// in\n    tag_64:\n      mload(0x40)\n      tag_66\n      swap2\n      swap1\n      tag_45\n      jump\t// in\n    tag_66:\n      mload(0x40)\n      dup1\n      swap2\n      sub\n      swap1\n      return\n        /* \"contracts/HotswapController_flattened.sol\":20259:20469  function getLiquidityCount(bool isFFT) external view returns (uint256) {... */\n    tag_12:\n      tag_67\n      0x04\n      dup1\n      calldatasize\n      sub\n      dup2\n      add\n      swap1\n      tag_68\n      swap2\n      swap1\n      tag_69\n      jump\t// in\n    tag_68:\n      tag_70\n      jump\t// in\n    tag_67:\n      mload(0x40)\n      tag_71\n      swap2\n      swap1\n      tag_45\n      jump\t// in\n    tag_71:\n      mload(0x40)\n      dup1\n      swap2\n      sub\n      swap1\n      return\n        /* \"contracts/HotswapController_flattened.sol\":7474:7600  function renounceOwnership() public onlyOwner {... */\n    tag_13:\n      tag_72\n      tag_73\n      jump\t// in\n    tag_72:\n      stop\n        /* \"contracts/HotswapController_flattened.sol\":14275:14293  address public NFT */\n    tag_14:\n      tag_74\n      tag_75\n      jump\t// in\n    tag_74:\n      mload(0x40)\n      tag_76\n      swap2\n      swap1\n      tag_37\n      jump\t// in\n    tag_76:\n      mload(0x40)\n      dup1\n      swap2\n      sub\n      swap1\n      return\n        /* \"contracts/HotswapController_flattened.sol\":7209:7288  function owner() public view returns (address) {... */\n    tag_15:\n      tag_77\n      tag_78\n      jump\t// in\n    tag_77:\n      mload(0x40)\n      tag_79\n      swap2\n      swap1\n      tag_37\n      jump\t// in\n    tag_79:\n      mload(0x40)\n      dup1\n      swap2\n      sub\n      swap1\n      return\n        /* \"contracts/HotswapController_flattened.sol\":16129:16154  address public _collector */\n    tag_16:\n      tag_80\n      tag_81\n      jump\t// in\n    tag_80:\n      mload(0x40)\n      tag_82\n      swap2\n      swap1\n      tag_37\n      jump\t// in\n    tag_82:\n      mload(0x40)\n      dup1\n      swap2\n      sub\n      swap1\n      return\n        /* \"contracts/HotswapController_flattened.sol\":7374:7466  function isOwner() public view returns (bool) {... */\n    tag_17:\n      tag_83\n      tag_84\n      jump\t// in\n    tag_83:\n      mload(0x40)\n      tag_85\n      swap2\n      swap1\n      tag_86\n      jump\t// in\n    tag_85:\n      mload(0x40)\n      dup1\n      swap2\n      sub\n      swap1\n      return\n        /* \"contracts/HotswapController_flattened.sol\":17892:17978  function getPrice() public returns (uint256) {... */\n    tag_18:\n      tag_87\n      tag_88\n      jump\t// in\n    tag_87:\n      mload(0x40)\n      tag_89\n      swap2\n      swap1\n      tag_45\n      jump\t// in\n    tag_89:\n      mload(0x40)\n      dup1\n      swap2\n      sub\n      swap1\n      return\n        /* \"contracts/HotswapController_flattened.sol\":16289:16317  Liquid[] public _liquidities */\n    tag_19:\n      tag_90\n      0x04\n      dup1\n      calldatasize\n      sub\n      dup2\n      add\n      swap1\n      tag_91\n      swap2\n      swap1\n      tag_40\n      jump\t// in\n    tag_91:\n      tag_92\n      jump\t// in\n    tag_90:\n      mload(0x40)\n      tag_93\n      swap8\n      swap7\n      swap6\n      swap5\n      swap4\n      swap3\n      swap2\n      swap1\n      tag_94\n      jump\t// in\n    tag_93:\n      mload(0x40)\n      dup1\n      swap2\n      sub\n      swap1\n      return\n        /* \"contracts/HotswapController_flattened.sol\":16324:16344  uint256 public _fees */\n    tag_20:\n      tag_95\n      tag_96\n      jump\t// in\n    tag_95:\n      mload(0x40)\n      tag_97\n      swap2\n      swap1\n      tag_45\n      jump\t// in\n    tag_97:\n      mload(0x40)\n      dup1\n      swap2\n      sub\n      swap1\n      return\n        /* \"contracts/HotswapController_flattened.sol\":14516:14621  function setFFT(address addr) public onlyOwner {... */\n    tag_21:\n      tag_98\n      0x04\n      dup1\n      calldatasize\n      sub\n      dup2\n      add\n      swap1\n      tag_99\n      swap2\n      swap1\n      tag_48\n      jump\t// in\n    tag_99:\n      tag_100\n      jump\t// in\n    tag_98:\n      stop\n        /* \"contracts/HotswapController_flattened.sol\":23083:23927  function swapNFT(uint256 amount) external {... */\n    tag_22:\n      tag_101\n      0x04\n      dup1\n      calldatasize\n      sub\n      dup2\n      add\n      swap1\n      tag_102\n      swap2\n      swap1\n      tag_40\n      jump\t// in\n    tag_102:\n      tag_103\n      jump\t// in\n    tag_101:\n      stop\n        /* \"contracts/HotswapController_flattened.sol\":18482:18696  function depositFFT(uint256 amount) external {... */\n    tag_23:\n      tag_104\n      0x04\n      dup1\n      calldatasize\n      sub\n      dup2\n      add\n      swap1\n      tag_105\n      swap2\n      swap1\n      tag_40\n      jump\t// in\n    tag_105:\n      tag_106\n      jump\t// in\n    tag_104:\n      stop\n        /* \"contracts/HotswapController_flattened.sol\":19659:20251  function queryLiquidbyDepositor(... */\n    tag_24:\n      tag_107\n      0x04\n      dup1\n      calldatasize\n      sub\n      dup2\n      add\n      swap1\n      tag_108\n      swap2\n      swap1\n      tag_109\n      jump\t// in\n    tag_108:\n      tag_110\n      jump\t// in\n    tag_107:\n      mload(0x40)\n      tag_111\n      swap2\n      swap1\n      tag_57\n      jump\t// in\n    tag_111:\n      mload(0x40)\n      dup1\n      swap2\n      sub\n      swap1\n      return\n        /* \"contracts/HotswapController_flattened.sol\":17986:18474  function depositNFT(uint256 amount) external {... */\n    tag_25:\n      tag_112\n      0x04\n      dup1\n      calldatasize\n      sub\n      dup2\n      add\n      swap1\n      tag_113\n      swap2\n      swap1\n      tag_40\n      jump\t// in\n    tag_113:\n      tag_114\n      jump\t// in\n    tag_112:\n      stop\n        /* \"contracts/HotswapController_flattened.sol\":7608:7717  function transferOwnership(address newOwner) public onlyOwner {... */\n    tag_26:\n      tag_115\n      0x04\n      dup1\n      calldatasize\n      sub\n      dup2\n      add\n      swap1\n      tag_116\n      swap2\n      swap1\n      tag_48\n      jump\t// in\n    tag_116:\n      tag_117\n      jump\t// in\n    tag_115:\n      stop\n        /* \"contracts/HotswapController_flattened.sol\":14392:14508  function setNFT(address addr) public onlyOwner {... */\n    tag_27:\n      tag_118\n      0x04\n      dup1\n      calldatasize\n      sub\n      dup2\n      add\n      swap1\n      tag_119\n      swap2\n      swap1\n      tag_48\n      jump\t// in\n    tag_119:\n      tag_120\n      jump\t// in\n    tag_118:\n      stop\n        /* \"contracts/HotswapController_flattened.sol\":16760:16851  function setCollector(address addr) external onlyOwner {... */\n    tag_28:\n      tag_121\n      0x04\n      dup1\n      calldatasize\n      sub\n      dup2\n      add\n      swap1\n      tag_122\n      swap2\n      swap1\n      tag_48\n      jump\t// in\n    tag_122:\n      tag_123\n      jump\t// in\n    tag_121:\n      stop\n        /* \"contracts/HotswapController_flattened.sol\":14300:14318  address public FFT */\n    tag_35:\n      0x02\n      0x00\n      swap1\n      sload\n      swap1\n      0x0100\n      exp\n      swap1\n      div\n      0xffffffffffffffffffffffffffffffffffffffff\n      and\n      dup2\n      jump\t// out\n        /* \"contracts/HotswapController_flattened.sol\":20477:21359  function withdrawLiquidity(uint256 index) external {... */\n    tag_41:\n        /* \"contracts/HotswapController_flattened.sol\":20539:20551  address user */\n      0x00\n        /* \"contracts/HotswapController_flattened.sol\":20554:20564  msg.sender */\n      caller\n        /* \"contracts/HotswapController_flattened.sol\":20539:20564  address user = msg.sender */\n      swap1\n      pop\n        /* \"contracts/HotswapController_flattened.sol\":20575:20602  uint256[] memory userLiquid */\n      0x00\n        /* \"contracts/HotswapController_flattened.sol\":20605:20621  _liquidityByUser */\n      0x08\n        /* \"contracts/HotswapController_flattened.sol\":20605:20627  _liquidityByUser[user] */\n      0x00\n        /* \"contracts/HotswapController_flattened.sol\":20622:20626  user */\n      dup4\n        /* \"contracts/HotswapController_flattened.sol\":20605:20627  _liquidityByUser[user] */\n      0xffffffffffffffffffffffffffffffffffffffff\n      and\n      0xffffffffffffffffffffffffffffffffffffffff\n      and\n      dup2\n      mstore\n      0x20\n      add\n      swap1\n      dup2\n      mstore\n      0x20\n      add\n      0x00\n      keccak256\n        /* \"contracts/HotswapController_flattened.sol\":20575:20627  uint256[] memory userLiquid = _liquidityByUser[user] */\n      dup1\n      sload\n      dup1\n      0x20\n      mul\n      0x20\n      add\n      mload(0x40)\n      swap1\n      dup2\n      add\n      0x40\n      mstore\n      dup1\n      swap3\n      swap2\n      swap1\n      dup2\n      dup2\n      mstore\n      0x20\n      add\n      dup3\n      dup1\n      sload\n      dup1\n      iszero\n      tag_125\n      jumpi\n      0x20\n      mul\n      dup3\n      add\n      swap2\n      swap1\n      0x00\n      mstore\n      keccak256(0x00, 0x20)\n      swap1\n    tag_126:\n      dup2\n      sload\n      dup2\n      mstore\n      0x20\n      add\n      swap1\n      0x01\n      add\n      swap1\n      dup1\n      dup4\n      gt\n      tag_126\n      jumpi\n    tag_125:\n      pop\n      pop\n      pop\n      pop\n      pop\n      swap1\n      pop\n        /* \"contracts/HotswapController_flattened.sol\":20656:20666  userLiquid */\n      dup1\n        /* \"contracts/HotswapController_flattened.sol\":20656:20673  userLiquid.length */\n      mload\n        /* \"contracts/HotswapController_flattened.sol\":20648:20653  index */\n      dup4\n        /* \"contracts/HotswapController_flattened.sol\":20648:20673  index < userLiquid.length */\n      lt\n        /* \"contracts/HotswapController_flattened.sol\":20640:20696  require(index < userLiquid.length, \"Index out of range\") */\n      tag_127\n      jumpi\n      mload(0x40)\n      0x08c379a000000000000000000000000000000000000000000000000000000000\n      dup2\n      mstore\n      0x04\n      add\n      tag_128\n      swap1\n      tag_129\n      jump\t// in\n    tag_128:\n      mload(0x40)\n      dup1\n      swap2\n      sub\n      swap1\n      revert\n    tag_127:\n        /* \"contracts/HotswapController_flattened.sol\":20709:20718  uint256 n */\n      0x00\n        /* \"contracts/HotswapController_flattened.sol\":20721:20731  userLiquid */\n      dup2\n        /* \"contracts/HotswapController_flattened.sol\":20732:20737  index */\n      dup5\n        /* \"contracts/HotswapController_flattened.sol\":20721:20738  userLiquid[index] */\n      dup2\n      mload\n      dup2\n      lt\n      tag_130\n      jumpi\n      tag_131\n      tag_132\n      jump\t// in\n    tag_131:\n    tag_130:\n      0x20\n      mul\n      0x20\n      add\n      add\n      mload\n        /* \"contracts/HotswapController_flattened.sol\":20709:20738  uint256 n = userLiquid[index] */\n      swap1\n      pop\n        /* \"contracts/HotswapController_flattened.sol\":20749:20765  Liquid memory lq */\n      0x00\n        /* \"contracts/HotswapController_flattened.sol\":20768:20780  _liquidities */\n      0x09\n        /* \"contracts/HotswapController_flattened.sol\":20781:20782  n */\n      dup3\n        /* \"contracts/HotswapController_flattened.sol\":20768:20783  _liquidities[n] */\n      dup2\n      sload\n      dup2\n      lt\n      tag_133\n      jumpi\n      tag_134\n      tag_132\n      jump\t// in\n    tag_134:\n    tag_133:\n      swap1\n      0x00\n      mstore\n      keccak256(0x00, 0x20)\n      swap1\n      0x07\n      mul\n      add\n        /* \"contracts/HotswapController_flattened.sol\":20749:20783  Liquid memory lq = _liquidities[n] */\n      mload(0x40)\n      dup1\n      0xe0\n      add\n      0x40\n      mstore\n      swap1\n      dup2\n      0x00\n      dup3\n      add\n      0x00\n      swap1\n      sload\n      swap1\n      0x0100\n      exp\n      swap1\n      div\n      0xffffffffffffffffffffffffffffffffffffffff\n      and\n      0xffffffffffffffffffffffffffffffffffffffff\n      and\n      0xffffffffffffffffffffffffffffffffffffffff\n      and\n      dup2\n      mstore\n      0x20\n      add\n      0x01\n      dup3\n      add\n      sload\n      dup2\n      mstore\n      0x20\n      add\n      0x02\n      dup3\n      add\n      sload\n      dup2\n      mstore\n      0x20\n      add\n      0x03\n      dup3\n      add\n      sload\n      dup2\n      mstore\n      0x20\n      add\n      0x04\n      dup3\n      add\n      sload\n      dup2\n      mstore\n      0x20\n      add\n      0x05\n      dup3\n      add\n      0x00\n      swap1\n      sload\n      swap1\n      0x0100\n      exp\n      swap1\n      div\n      0xff\n      and\n      iszero\n      iszero\n      iszero\n      iszero\n      dup2\n      mstore\n      0x20\n      add\n      0x06\n      dup3\n      add\n      sload\n      dup2\n      mstore\n      pop\n      pop\n      swap1\n      pop\n        /* \"contracts/HotswapController_flattened.sol\":20796:20812  uint256 nftAlloc */\n      0x00\n        /* \"contracts/HotswapController_flattened.sol\":20815:20817  lq */\n      dup2\n        /* \"contracts/HotswapController_flattened.sol\":20815:20826  lq.nftAlloc */\n      0x60\n      add\n      mload\n        /* \"contracts/HotswapController_flattened.sol\":20796:20826  uint256 nftAlloc = lq.nftAlloc */\n      swap1\n      pop\n        /* \"contracts/HotswapController_flattened.sol\":20837:20853  uint256 fftAlloc */\n      0x00\n        /* \"contracts/HotswapController_flattened.sol\":20856:20858  lq */\n      dup3\n        /* \"contracts/HotswapController_flattened.sol\":20856:20867  lq.fftAlloc */\n      0x80\n      add\n      mload\n        /* \"contracts/HotswapController_flattened.sol\":20837:20867  uint256 fftAlloc = lq.fftAlloc */\n      swap1\n      pop\n        /* \"contracts/HotswapController_flattened.sol\":20880:20893  uint256 total */\n      0x00\n        /* \"contracts/HotswapController_flattened.sol\":20907:20915  fftAlloc */\n      dup2\n        /* \"contracts/HotswapController_flattened.sol\":20896:20904  nftAlloc */\n      dup4\n        /* \"contracts/HotswapController_flattened.sol\":20896:20915  nftAlloc + fftAlloc */\n      tag_136\n      swap2\n      swap1\n      tag_137\n      jump\t// in\n    tag_136:\n        /* \"contracts/HotswapController_flattened.sol\":20880:20915  uint256 total = nftAlloc + fftAlloc */\n      swap1\n      pop\n        /* \"contracts/HotswapController_flattened.sol\":20926:20942  uint256 nftRatio */\n      0x00\n        /* \"contracts/HotswapController_flattened.sol\":20953:20961  nftAlloc */\n      dup4\n        /* \"contracts/HotswapController_flattened.sol\":20945:20950  total */\n      dup3\n        /* \"contracts/HotswapController_flattened.sol\":20945:20961  total / nftAlloc */\n      tag_138\n      swap2\n      swap1\n      tag_139\n      jump\t// in\n    tag_138:\n        /* \"contracts/HotswapController_flattened.sol\":20926:20961  uint256 nftRatio = total / nftAlloc */\n      swap1\n      pop\n        /* \"contracts/HotswapController_flattened.sol\":20972:20988  uint256 fftRatio */\n      0x00\n        /* \"contracts/HotswapController_flattened.sol\":20999:21007  fftAlloc */\n      dup4\n        /* \"contracts/HotswapController_flattened.sol\":20991:20996  total */\n      dup4\n        /* \"contracts/HotswapController_flattened.sol\":20991:21007  total / fftAlloc */\n      tag_140\n      swap2\n      swap1\n      tag_139\n      jump\t// in\n    tag_140:\n        /* \"contracts/HotswapController_flattened.sol\":20972:21007  uint256 fftRatio = total / fftAlloc */\n      swap1\n      pop\n        /* \"contracts/HotswapController_flattened.sol\":21057:21078  IHotswapLiquidity liq */\n      0x00\n        /* \"contracts/HotswapController_flattened.sol\":21099:21109  _liquidity */\n      0x06\n      0x00\n      swap1\n      sload\n      swap1\n      0x0100\n      exp\n      swap1\n      div\n      0xffffffffffffffffffffffffffffffffffffffff\n      and\n        /* \"contracts/HotswapController_flattened.sol\":21057:21110  IHotswapLiquidity liq = IHotswapLiquidity(_liquidity) */\n      swap1\n      pop\n        /* \"contracts/HotswapController_flattened.sol\":21123:21141  uint256 nftBalance */\n      0x00\n        /* \"contracts/HotswapController_flattened.sol\":21168:21174  _price */\n      sload(0x07)\n        /* \"contracts/HotswapController_flattened.sol\":21156:21164  nftRatio */\n      dup5\n        /* \"contracts/HotswapController_flattened.sol\":21145:21153  nftAlloc */\n      dup9\n        /* \"contracts/HotswapController_flattened.sol\":21145:21164  nftAlloc / nftRatio */\n      tag_141\n      swap2\n      swap1\n      tag_139\n      jump\t// in\n    tag_141:\n        /* \"contracts/HotswapController_flattened.sol\":21144:21174  (nftAlloc / nftRatio) / _price */\n      tag_142\n      swap2\n      swap1\n      tag_139\n      jump\t// in\n    tag_142:\n        /* \"contracts/HotswapController_flattened.sol\":21123:21174  uint256 nftBalance = (nftAlloc / nftRatio) / _price */\n      swap1\n      pop\n        /* \"contracts/HotswapController_flattened.sol\":21185:21203  uint256 fftBalance */\n      0x00\n        /* \"contracts/HotswapController_flattened.sol\":21217:21225  fftRatio */\n      dup4\n        /* \"contracts/HotswapController_flattened.sol\":21206:21214  fftAlloc */\n      dup8\n        /* \"contracts/HotswapController_flattened.sol\":21206:21225  fftAlloc / fftRatio */\n      tag_143\n      swap2\n      swap1\n      tag_139\n      jump\t// in\n    tag_143:\n        /* \"contracts/HotswapController_flattened.sol\":21185:21225  uint256 fftBalance = fftAlloc / fftRatio */\n      swap1\n      pop\n        /* \"contracts/HotswapController_flattened.sol\":21238:21241  liq */\n      dup3\n        /* \"contracts/HotswapController_flattened.sol\":21238:21253  liq.withdrawNFT */\n      0xffffffffffffffffffffffffffffffffffffffff\n      and\n      0xc1d2d00d\n        /* \"contracts/HotswapController_flattened.sol\":21254:21264  nftBalance */\n      dup4\n        /* \"contracts/HotswapController_flattened.sol\":21266:21270  user */\n      dup15\n        /* \"contracts/HotswapController_flattened.sol\":21238:21271  liq.withdrawNFT(nftBalance, user) */\n      mload(0x40)\n      dup4\n      0xffffffff\n      and\n      0xe0\n      shl\n      dup2\n      mstore\n      0x04\n      add\n      tag_144\n      swap3\n      swap2\n      swap1\n      tag_145\n      jump\t// in\n    tag_144:\n      0x00\n      mload(0x40)\n      dup1\n      dup4\n      sub\n      dup2\n      0x00\n      dup8\n      dup1\n      extcodesize\n      iszero\n      dup1\n      iszero\n      tag_146\n      jumpi\n      0x00\n      dup1\n      revert\n    tag_146:\n      pop\n      gas\n      call\n      iszero\n      dup1\n      iszero\n      tag_148\n      jumpi\n      returndatasize\n      0x00\n      dup1\n      returndatacopy\n      revert(0x00, returndatasize)\n    tag_148:\n      pop\n      pop\n      pop\n      pop\n        /* \"contracts/HotswapController_flattened.sol\":21282:21285  liq */\n      dup3\n        /* \"contracts/HotswapController_flattened.sol\":21282:21297  liq.withdrawFFT */\n      0xffffffffffffffffffffffffffffffffffffffff\n      and\n      0x8cda7bb4\n        /* \"contracts/HotswapController_flattened.sol\":21298:21308  fftBalance */\n      dup3\n        /* \"contracts/HotswapController_flattened.sol\":21310:21314  user */\n      dup15\n        /* \"contracts/HotswapController_flattened.sol\":21282:21315  liq.withdrawFFT(fftBalance, user) */\n      mload(0x40)\n      dup4\n      0xffffffff\n      and\n      0xe0\n      shl\n      dup2\n      mstore\n      0x04\n      add\n      tag_149\n      swap3\n      swap2\n      swap1\n      tag_145\n      jump\t// in\n    tag_149:\n      0x00\n      mload(0x40)\n      dup1\n      dup4\n      sub\n      dup2\n      0x00\n      dup8\n      dup1\n      extcodesize\n      iszero\n      dup1\n      iszero\n      tag_150\n      jumpi\n      0x00\n      dup1\n      revert\n    tag_150:\n      pop\n      gas\n      call\n      iszero\n      dup1\n      iszero\n      tag_152\n      jumpi\n      returndatasize\n      0x00\n      dup1\n      returndatacopy\n      revert(0x00, returndatasize)\n    tag_152:\n      pop\n      pop\n      pop\n      pop\n        /* \"contracts/HotswapController_flattened.sol\":21328:21351  _removeLiquidity(lq, n) */\n      tag_153\n        /* \"contracts/HotswapController_flattened.sol\":21345:21347  lq */\n      dup10\n        /* \"contracts/HotswapController_flattened.sol\":21349:21350  n */\n      dup12\n        /* \"contracts/HotswapController_flattened.sol\":21328:21344  _removeLiquidity */\n      tag_154\n        /* \"contracts/HotswapController_flattened.sol\":21328:21351  _removeLiquidity(lq, n) */\n      jump\t// in\n    tag_153:\n        /* \"contracts/HotswapController_flattened.sol\":20528:21359  {... */\n      pop\n      pop\n      pop\n      pop\n      pop\n      pop\n      pop\n      pop\n      pop\n      pop\n      pop\n      pop\n        /* \"contracts/HotswapController_flattened.sol\":20477:21359  function withdrawLiquidity(uint256 index) external {... */\n      pop\n      jump\t// out\n        /* \"contracts/HotswapController_flattened.sol\":16195:16216  uint256 public _price */\n    tag_43:\n      sload(0x07)\n      dup2\n      jump\t// out\n        /* \"contracts/HotswapController_flattened.sol\":16859:16976  function setLiquidity(address addr) external onlyOwner {... */\n    tag_49:\n        /* \"contracts/HotswapController_flattened.sol\":7336:7345  isOwner() */\n      tag_156\n        /* \"contracts/HotswapController_flattened.sol\":7336:7343  isOwner */\n      tag_84\n        /* \"contracts/HotswapController_flattened.sol\":7336:7345  isOwner() */\n      jump\t// in\n    tag_156:\n        /* \"contracts/HotswapController_flattened.sol\":7328:7346  require(isOwner()) */\n      tag_157\n      jumpi\n      0x00\n      dup1\n      revert\n    tag_157:\n        /* \"contracts/HotswapController_flattened.sol\":16938:16942  addr */\n      dup1\n        /* \"contracts/HotswapController_flattened.sol\":16925:16935  _liquidity */\n      0x06\n      0x00\n        /* \"contracts/HotswapController_flattened.sol\":16925:16942  _liquidity = addr */\n      0x0100\n      exp\n      dup2\n      sload\n      dup2\n      0xffffffffffffffffffffffffffffffffffffffff\n      mul\n      not\n      and\n      swap1\n      dup4\n      0xffffffffffffffffffffffffffffffffffffffff\n      and\n      mul\n      or\n      swap1\n      sstore\n      pop\n        /* \"contracts/HotswapController_flattened.sol\":16953:16968  _computePrice() */\n      tag_159\n        /* \"contracts/HotswapController_flattened.sol\":16953:16966  _computePrice */\n      tag_160\n        /* \"contracts/HotswapController_flattened.sol\":16953:16968  _computePrice() */\n      jump\t// in\n    tag_159:\n      pop\n        /* \"contracts/HotswapController_flattened.sol\":16859:16976  function setLiquidity(address addr) external onlyOwner {... */\n      pop\n      jump\t// out\n        /* \"contracts/HotswapController_flattened.sol\":17620:17647  uint256 public fftLiquidity */\n    tag_51:\n      sload(0x0c)\n      dup2\n      jump\t// out\n        /* \"contracts/HotswapController_flattened.sol\":19490:19651  function queryLiquid(... */\n    tag_55:\n        /* \"contracts/HotswapController_flattened.sol\":19565:19582  LiquidData memory */\n      tag_161\n      tag_162\n      jump\t// in\n    tag_161:\n        /* \"contracts/HotswapController_flattened.sol\":19602:19643  queryLiquidbyDepositor(msg.sender, index) */\n      tag_164\n        /* \"contracts/HotswapController_flattened.sol\":19625:19635  msg.sender */\n      caller\n        /* \"contracts/HotswapController_flattened.sol\":19637:19642  index */\n      dup4\n        /* \"contracts/HotswapController_flattened.sol\":19602:19624  queryLiquidbyDepositor */\n      tag_110\n        /* \"contracts/HotswapController_flattened.sol\":19602:19643  queryLiquidbyDepositor(msg.sender, index) */\n      jump\t// in\n    tag_164:\n        /* \"contracts/HotswapController_flattened.sol\":19595:19643  return queryLiquidbyDepositor(msg.sender, index) */\n      swap1\n      pop\n        /* \"contracts/HotswapController_flattened.sol\":19490:19651  function queryLiquid(... */\n      swap2\n      swap1\n      pop\n      jump\t// out\n        /* \"contracts/HotswapController_flattened.sol\":16161:16186  address public _liquidity */\n    tag_59:\n      0x06\n      0x00\n      swap1\n      sload\n      swap1\n      0x0100\n      exp\n      swap1\n      div\n      0xffffffffffffffffffffffffffffffffffffffff\n      and\n      dup2\n      jump\t// out\n        /* \"contracts/HotswapController_flattened.sol\":23935:24733  function swapFFT(uint256 amount) external {... */\n    tag_63:\n        /* \"contracts/HotswapController_flattened.sol\":23988:24009  Liquid storage source */\n      0x00\n        /* \"contracts/HotswapController_flattened.sol\":24020:24041  Liquid storage target */\n      dup1\n        /* \"contracts/HotswapController_flattened.sol\":24054:24078  uint256[] memory indexes */\n      0x00\n        /* \"contracts/HotswapController_flattened.sol\":24081:24097  _liquidityByUser */\n      0x08\n        /* \"contracts/HotswapController_flattened.sol\":24081:24109  _liquidityByUser[msg.sender] */\n      0x00\n        /* \"contracts/HotswapController_flattened.sol\":24098:24108  msg.sender */\n      caller\n        /* \"contracts/HotswapController_flattened.sol\":24081:24109  _liquidityByUser[msg.sender] */\n      0xffffffffffffffffffffffffffffffffffffffff\n      and\n      0xffffffffffffffffffffffffffffffffffffffff\n      and\n      dup2\n      mstore\n      0x20\n      add\n      swap1\n      dup2\n      mstore\n      0x20\n      add\n      0x00\n      keccak256\n        /* \"contracts/HotswapController_flattened.sol\":24054:24109  uint256[] memory indexes = _liquidityByUser[msg.sender] */\n      dup1\n      sload\n      dup1\n      0x20\n      mul\n      0x20\n      add\n      mload(0x40)\n      swap1\n      dup2\n      add\n      0x40\n      mstore\n      dup1\n      swap3\n      swap2\n      swap1\n      dup2\n      dup2\n      mstore\n      0x20\n      add\n      dup3\n      dup1\n      sload\n      dup1\n      iszero\n      tag_166\n      jumpi\n      0x20\n      mul\n      dup3\n      add\n      swap2\n      swap1\n      0x00\n      mstore\n      keccak256(0x00, 0x20)\n      swap1\n    tag_167:\n      dup2\n      sload\n      dup2\n      mstore\n      0x20\n      add\n      swap1\n      0x01\n      add\n      swap1\n      dup1\n      dup4\n      gt\n      tag_167\n      jumpi\n    tag_166:\n      pop\n      pop\n      pop\n      pop\n      pop\n      swap1\n      pop\n        /* \"contracts/HotswapController_flattened.sol\":24120:24133  uint256 price */\n      0x00\n        /* \"contracts/HotswapController_flattened.sol\":24136:24142  _price */\n      sload(0x07)\n        /* \"contracts/HotswapController_flattened.sol\":24120:24142  uint256 price = _price */\n      swap1\n      pop\n        /* \"contracts/HotswapController_flattened.sol\":24155:24175  uint256 targetAmount */\n      0x00\n        /* \"contracts/HotswapController_flattened.sol\":24178:24196  _deductFee(amount) */\n      tag_168\n        /* \"contracts/HotswapController_flattened.sol\":24189:24195  amount */\n      dup7\n        /* \"contracts/HotswapController_flattened.sol\":24178:24188  _deductFee */\n      tag_169\n        /* \"contracts/HotswapController_flattened.sol\":24178:24196  _deductFee(amount) */\n      jump\t// in\n    tag_168:\n        /* \"contracts/HotswapController_flattened.sol\":24155:24196  uint256 targetAmount = _deductFee(amount) */\n      swap1\n      pop\n        /* \"contracts/HotswapController_flattened.sol\":24209:24226  uint256 fftAmount */\n      0x00\n        /* \"contracts/HotswapController_flattened.sol\":24229:24241  targetAmount */\n      dup2\n        /* \"contracts/HotswapController_flattened.sol\":24209:24241  uint256 fftAmount = targetAmount */\n      swap1\n      pop\n        /* \"contracts/HotswapController_flattened.sol\":24254:24266  bool success */\n      0x00\n        /* \"contracts/HotswapController_flattened.sol\":24277:24290  uint256 index */\n      dup1\n        /* \"contracts/HotswapController_flattened.sol\":24303:24312  uint256 i */\n      0x00\n        /* \"contracts/HotswapController_flattened.sol\":24323:24332  uint256 j */\n      dup1\n        /* \"contracts/HotswapController_flattened.sol\":24354:24361  indexes */\n      dup8\n        /* \"contracts/HotswapController_flattened.sol\":24354:24368  indexes.length */\n      mload\n        /* \"contracts/HotswapController_flattened.sol\":24350:24368  j = indexes.length */\n      swap1\n      pop\n        /* \"contracts/HotswapController_flattened.sol\":24345:24664  for (j = indexes.length; j > 0 && fftAmount > 0; j--) {... */\n    tag_170:\n        /* \"contracts/HotswapController_flattened.sol\":24374:24375  0 */\n      0x00\n        /* \"contracts/HotswapController_flattened.sol\":24370:24371  j */\n      dup2\n        /* \"contracts/HotswapController_flattened.sol\":24370:24375  j > 0 */\n      gt\n        /* \"contracts/HotswapController_flattened.sol\":24370:24392  j > 0 && fftAmount > 0 */\n      dup1\n      iszero\n      tag_173\n      jumpi\n      pop\n        /* \"contracts/HotswapController_flattened.sol\":24391:24392  0 */\n      0x00\n        /* \"contracts/HotswapController_flattened.sol\":24379:24388  fftAmount */\n      dup6\n        /* \"contracts/HotswapController_flattened.sol\":24379:24392  fftAmount > 0 */\n      gt\n        /* \"contracts/HotswapController_flattened.sol\":24370:24392  j > 0 && fftAmount > 0 */\n    tag_173:\n        /* \"contracts/HotswapController_flattened.sol\":24345:24664  for (j = indexes.length; j > 0 && fftAmount > 0; j--) {... */\n      iszero\n      tag_171\n      jumpi\n        /* \"contracts/HotswapController_flattened.sol\":24422:24423  1 */\n      0x01\n        /* \"contracts/HotswapController_flattened.sol\":24418:24419  j */\n      dup2\n        /* \"contracts/HotswapController_flattened.sol\":24418:24423  j - 1 */\n      tag_174\n      swap2\n      swap1\n      tag_175\n      jump\t// in\n    tag_174:\n        /* \"contracts/HotswapController_flattened.sol\":24414:24423  i = j - 1 */\n      swap2\n      pop\n        /* \"contracts/HotswapController_flattened.sol\":24447:24459  _liquidities */\n      0x09\n        /* \"contracts/HotswapController_flattened.sol\":24460:24467  indexes */\n      dup9\n        /* \"contracts/HotswapController_flattened.sol\":24468:24469  i */\n      dup4\n        /* \"contracts/HotswapController_flattened.sol\":24460:24470  indexes[i] */\n      dup2\n      mload\n      dup2\n      lt\n      tag_176\n      jumpi\n      tag_177\n      tag_132\n      jump\t// in\n    tag_177:\n    tag_176:\n      0x20\n      mul\n      0x20\n      add\n      add\n      mload\n        /* \"contracts/HotswapController_flattened.sol\":24447:24471  _liquidities[indexes[i]] */\n      dup2\n      sload\n      dup2\n      lt\n      tag_178\n      jumpi\n      tag_179\n      tag_132\n      jump\t// in\n    tag_179:\n    tag_178:\n      swap1\n      0x00\n      mstore\n      keccak256(0x00, 0x20)\n      swap1\n      0x07\n      mul\n      add\n        /* \"contracts/HotswapController_flattened.sol\":24438:24471  source = _liquidities[indexes[i]] */\n      swap10\n      pop\n        /* \"contracts/HotswapController_flattened.sol\":24507:24532  _findSuitableLiquid(true) */\n      tag_181\n        /* \"contracts/HotswapController_flattened.sol\":24527:24531  true */\n      0x01\n        /* \"contracts/HotswapController_flattened.sol\":24507:24526  _findSuitableLiquid */\n      tag_182\n        /* \"contracts/HotswapController_flattened.sol\":24507:24532  _findSuitableLiquid(true) */\n      jump\t// in\n    tag_181:\n        /* \"contracts/HotswapController_flattened.sol\":24488:24532  (success, index) = _findSuitableLiquid(true) */\n      dup1\n      swap5\n      pop\n      dup2\n      swap6\n      pop\n      pop\n      pop\n        /* \"contracts/HotswapController_flattened.sol\":24556:24568  _liquidities */\n      0x09\n        /* \"contracts/HotswapController_flattened.sol\":24569:24574  index */\n      dup4\n        /* \"contracts/HotswapController_flattened.sol\":24556:24575  _liquidities[index] */\n      dup2\n      sload\n      dup2\n      lt\n      tag_183\n      jumpi\n      tag_184\n      tag_132\n      jump\t// in\n    tag_184:\n    tag_183:\n      swap1\n      0x00\n      mstore\n      keccak256(0x00, 0x20)\n      swap1\n      0x07\n      mul\n      add\n        /* \"contracts/HotswapController_flattened.sol\":24547:24575  target = _liquidities[index] */\n      swap9\n      pop\n        /* \"contracts/HotswapController_flattened.sol\":24604:24652  _swapFFTLiquid(source, target, fftAmount, price) */\n      tag_186\n        /* \"contracts/HotswapController_flattened.sol\":24619:24625  source */\n      dup11\n        /* \"contracts/HotswapController_flattened.sol\":24627:24633  target */\n      dup11\n        /* \"contracts/HotswapController_flattened.sol\":24635:24644  fftAmount */\n      dup8\n        /* \"contracts/HotswapController_flattened.sol\":24646:24651  price */\n      dup11\n        /* \"contracts/HotswapController_flattened.sol\":24604:24618  _swapFFTLiquid */\n      tag_187\n        /* \"contracts/HotswapController_flattened.sol\":24604:24652  _swapFFTLiquid(source, target, fftAmount, price) */\n      jump\t// in\n    tag_186:\n        /* \"contracts/HotswapController_flattened.sol\":24592:24652  fftAmount = _swapFFTLiquid(source, target, fftAmount, price) */\n      swap5\n      pop\n        /* \"contracts/HotswapController_flattened.sol\":24394:24397  j-- */\n      dup1\n      dup1\n      tag_188\n      swap1\n      tag_189\n      jump\t// in\n    tag_188:\n      swap2\n      pop\n      pop\n        /* \"contracts/HotswapController_flattened.sol\":24345:24664  for (j = indexes.length; j > 0 && fftAmount > 0; j--) {... */\n      jump(tag_170)\n    tag_171:\n        /* \"contracts/HotswapController_flattened.sol\":24697:24698  0 */\n      0x00\n        /* \"contracts/HotswapController_flattened.sol\":24684:24693  fftAmount */\n      dup6\n        /* \"contracts/HotswapController_flattened.sol\":24684:24698  fftAmount == 0 */\n      eq\n        /* \"contracts/HotswapController_flattened.sol\":24676:24725  require(fftAmount == 0, \"Insufficient liquidity\") */\n      tag_190\n      jumpi\n      mload(0x40)\n      0x08c379a000000000000000000000000000000000000000000000000000000000\n      dup2\n      mstore\n      0x04\n      add\n      tag_191\n      swap1\n      tag_192\n      jump\t// in\n    tag_191:\n      mload(0x40)\n      dup1\n      swap2\n      sub\n      swap1\n      revert\n    tag_190:\n        /* \"contracts/HotswapController_flattened.sol\":23977:24733  {... */\n      pop\n      pop\n      pop\n      pop\n      pop\n      pop\n      pop\n      pop\n      pop\n      pop\n        /* \"contracts/HotswapController_flattened.sol\":23935:24733  function swapFFT(uint256 amount) external {... */\n      pop\n      jump\t// out\n        /* \"contracts/HotswapController_flattened.sol\":17575:17602  uint256 public nftLiquidity */\n    tag_65:\n      sload(0x0b)\n      dup2\n      jump\t// out\n        /* \"contracts/HotswapController_flattened.sol\":20259:20469  function getLiquidityCount(bool isFFT) external view returns (uint256) {... */\n    tag_70:\n        /* \"contracts/HotswapController_flattened.sol\":20321:20328  uint256 */\n      0x00\n        /* \"contracts/HotswapController_flattened.sol\":20345:20350  isFFT */\n      dup2\n        /* \"contracts/HotswapController_flattened.sol\":20341:20462  if (isFFT) {... */\n      iszero\n      tag_194\n      jumpi\n        /* \"contracts/HotswapController_flattened.sol\":20374:20392  _fftLiquidityCount */\n      sload(0x0e)\n        /* \"contracts/HotswapController_flattened.sol\":20367:20392  return _fftLiquidityCount */\n      swap1\n      pop\n      jump(tag_193)\n        /* \"contracts/HotswapController_flattened.sol\":20341:20462  if (isFFT) {... */\n    tag_194:\n        /* \"contracts/HotswapController_flattened.sol\":20432:20450  _nftLiquidityCount */\n      sload(0x0d)\n        /* \"contracts/HotswapController_flattened.sol\":20425:20450  return _nftLiquidityCount */\n      swap1\n      pop\n        /* \"contracts/HotswapController_flattened.sol\":20259:20469  function getLiquidityCount(bool isFFT) external view returns (uint256) {... */\n    tag_193:\n      swap2\n      swap1\n      pop\n      jump\t// out\n        /* \"contracts/HotswapController_flattened.sol\":7474:7600  function renounceOwnership() public onlyOwner {... */\n    tag_73:\n        /* \"contracts/HotswapController_flattened.sol\":7336:7345  isOwner() */\n      tag_197\n        /* \"contracts/HotswapController_flattened.sol\":7336:7343  isOwner */\n      tag_84\n        /* \"contracts/HotswapController_flattened.sol\":7336:7345  isOwner() */\n      jump\t// in\n    tag_197:\n        /* \"contracts/HotswapController_flattened.sol\":7328:7346  require(isOwner()) */\n      tag_198\n      jumpi\n      0x00\n      dup1\n      revert\n    tag_198:\n        /* \"contracts/HotswapController_flattened.sol\":7555:7561  _owner */\n      0x00\n      dup1\n      sload\n      swap1\n      0x0100\n      exp\n      swap1\n      div\n      0xffffffffffffffffffffffffffffffffffffffff\n      and\n        /* \"contracts/HotswapController_flattened.sol\":7536:7562  OwnershipRenounced(_owner) */\n      0xffffffffffffffffffffffffffffffffffffffff\n      and\n      0xf8df31144d9c2f0f6b59d69b8b98abd5459d07f2742c4df920b25aae33c64820\n      mload(0x40)\n      mload(0x40)\n      dup1\n      swap2\n      sub\n      swap1\n      log2\n        /* \"contracts/HotswapController_flattened.sol\":7590:7591  0 */\n      0x00\n        /* \"contracts/HotswapController_flattened.sol\":7573:7579  _owner */\n      dup1\n      0x00\n        /* \"contracts/HotswapController_flattened.sol\":7573:7592  _owner = address(0) */\n      0x0100\n      exp\n      dup2\n      sload\n      dup2\n      0xffffffffffffffffffffffffffffffffffffffff\n      mul\n      not\n      and\n      swap1\n      dup4\n      0xffffffffffffffffffffffffffffffffffffffff\n      and\n      mul\n      or\n      swap1\n      sstore\n      pop\n        /* \"contracts/HotswapController_flattened.sol\":7474:7600  function renounceOwnership() public onlyOwner {... */\n      jump\t// out\n        /* \"contracts/HotswapController_flattened.sol\":14275:14293  address public NFT */\n    tag_75:\n      0x01\n      0x00\n      swap1\n      sload\n      swap1\n      0x0100\n      exp\n      swap1\n      div\n      0xffffffffffffffffffffffffffffffffffffffff\n      and\n      dup2\n      jump\t// out\n        /* \"contracts/HotswapController_flattened.sol\":7209:7288  function owner() public view returns (address) {... */\n    tag_78:\n        /* \"contracts/HotswapController_flattened.sol\":7247:7254  address */\n      0x00\n        /* \"contracts/HotswapController_flattened.sol\":7274:7280  _owner */\n      dup1\n      0x00\n      swap1\n      sload\n      swap1\n      0x0100\n      exp\n      swap1\n      div\n      0xffffffffffffffffffffffffffffffffffffffff\n      and\n        /* \"contracts/HotswapController_flattened.sol\":7267:7280  return _owner */\n      swap1\n      pop\n        /* \"contracts/HotswapController_flattened.sol\":7209:7288  function owner() public view returns (address) {... */\n      swap1\n      jump\t// out\n        /* \"contracts/HotswapController_flattened.sol\":16129:16154  address public _collector */\n    tag_81:\n      0x05\n      0x00\n      swap1\n      sload\n      swap1\n      0x0100\n      exp\n      swap1\n      div\n      0xffffffffffffffffffffffffffffffffffffffff\n      and\n      dup2\n      jump\t// out\n        /* \"contracts/HotswapController_flattened.sol\":7374:7466  function isOwner() public view returns (bool) {... */\n    tag_84:\n        /* \"contracts/HotswapController_flattened.sol\":7414:7418  bool */\n      0x00\n        /* \"contracts/HotswapController_flattened.sol\":7452:7458  _owner */\n      dup1\n      0x00\n      swap1\n      sload\n      swap1\n      0x0100\n      exp\n      swap1\n      div\n      0xffffffffffffffffffffffffffffffffffffffff\n      and\n        /* \"contracts/HotswapController_flattened.sol\":7438:7458  msg.sender == _owner */\n      0xffffffffffffffffffffffffffffffffffffffff\n      and\n        /* \"contracts/HotswapController_flattened.sol\":7438:7448  msg.sender */\n      caller\n        /* \"contracts/HotswapController_flattened.sol\":7438:7458  msg.sender == _owner */\n      0xffffffffffffffffffffffffffffffffffffffff\n      and\n      eq\n        /* \"contracts/HotswapController_flattened.sol\":7431:7458  return msg.sender == _owner */\n      swap1\n      pop\n        /* \"contracts/HotswapController_flattened.sol\":7374:7466  function isOwner() public view returns (bool) {... */\n      swap1\n      jump\t// out\n        /* \"contracts/HotswapController_flattened.sol\":17892:17978  function getPrice() public returns (uint256) {... */\n    tag_88:\n        /* \"contracts/HotswapController_flattened.sol\":17928:17935  uint256 */\n      0x00\n        /* \"contracts/HotswapController_flattened.sol\":17955:17970  _computePrice() */\n      tag_203\n        /* \"contracts/HotswapController_flattened.sol\":17955:17968  _computePrice */\n      tag_160\n        /* \"contracts/HotswapController_flattened.sol\":17955:17970  _computePrice() */\n      jump\t// in\n    tag_203:\n        /* \"contracts/HotswapController_flattened.sol\":17948:17970  return _computePrice() */\n      swap1\n      pop\n        /* \"contracts/HotswapController_flattened.sol\":17892:17978  function getPrice() public returns (uint256) {... */\n      swap1\n      jump\t// out\n        /* \"contracts/HotswapController_flattened.sol\":16289:16317  Liquid[] public _liquidities */\n    tag_92:\n      0x09\n      dup2\n      dup2\n      sload\n      dup2\n      lt\n      tag_204\n      jumpi\n      0x00\n      dup1\n      revert\n    tag_204:\n      swap1\n      0x00\n      mstore\n      keccak256(0x00, 0x20)\n      swap1\n      0x07\n      mul\n      add\n      0x00\n      swap2\n      pop\n      swap1\n      pop\n      dup1\n      0x00\n      add\n      0x00\n      swap1\n      sload\n      swap1\n      0x0100\n      exp\n      swap1\n      div\n      0xffffffffffffffffffffffffffffffffffffffff\n      and\n      swap1\n      dup1\n      0x01\n      add\n      sload\n      swap1\n      dup1\n      0x02\n      add\n      sload\n      swap1\n      dup1\n      0x03\n      add\n      sload\n      swap1\n      dup1\n      0x04\n      add\n      sload\n      swap1\n      dup1\n      0x05\n      add\n      0x00\n      swap1\n      sload\n      swap1\n      0x0100\n      exp\n      swap1\n      div\n      0xff\n      and\n      swap1\n      dup1\n      0x06\n      add\n      sload\n      swap1\n      pop\n      dup8\n      jump\t// out\n        /* \"contracts/HotswapController_flattened.sol\":16324:16344  uint256 public _fees */\n    tag_96:\n      sload(0x0a)\n      dup2\n      jump\t// out\n        /* \"contracts/HotswapController_flattened.sol\":14516:14621  function setFFT(address addr) public onlyOwner {... */\n    tag_100:\n        /* \"contracts/HotswapController_flattened.sol\":7336:7345  isOwner() */\n      tag_207\n        /* \"contracts/HotswapController_flattened.sol\":7336:7343  isOwner */\n      tag_84\n        /* \"contracts/HotswapController_flattened.sol\":7336:7345  isOwner() */\n      jump\t// in\n    tag_207:\n        /* \"contracts/HotswapController_flattened.sol\":7328:7346  require(isOwner()) */\n      tag_208\n      jumpi\n      0x00\n      dup1\n      revert\n    tag_208:\n        /* \"contracts/HotswapController_flattened.sol\":14580:14584  addr */\n      dup1\n        /* \"contracts/HotswapController_flattened.sol\":14574:14577  FFT */\n      0x02\n      0x00\n        /* \"contracts/HotswapController_flattened.sol\":14574:14584  FFT = addr */\n      0x0100\n      exp\n      dup2\n      sload\n      dup2\n      0xffffffffffffffffffffffffffffffffffffffff\n      mul\n      not\n      and\n      swap1\n      dup4\n      0xffffffffffffffffffffffffffffffffffffffff\n      and\n      mul\n      or\n      swap1\n      sstore\n      pop\n        /* \"contracts/HotswapController_flattened.sol\":14608:14612  addr */\n      dup1\n        /* \"contracts/HotswapController_flattened.sol\":14595:14599  _fft */\n      0x03\n      0x00\n        /* \"contracts/HotswapController_flattened.sol\":14595:14613  _fft = ERC20(addr) */\n      0x0100\n      exp\n      dup2\n      sload\n      dup2\n      0xffffffffffffffffffffffffffffffffffffffff\n      mul\n      not\n      and\n      swap1\n      dup4\n      0xffffffffffffffffffffffffffffffffffffffff\n      and\n      mul\n      or\n      swap1\n      sstore\n      pop\n        /* \"contracts/HotswapController_flattened.sol\":14516:14621  function setFFT(address addr) public onlyOwner {... */\n      pop\n      jump\t// out\n        /* \"contracts/HotswapController_flattened.sol\":23083:23927  function swapNFT(uint256 amount) external {... */\n    tag_103:\n        /* \"contracts/HotswapController_flattened.sol\":23136:23157  Liquid storage source */\n      0x00\n        /* \"contracts/HotswapController_flattened.sol\":23168:23189  Liquid storage target */\n      dup1\n        /* \"contracts/HotswapController_flattened.sol\":23202:23226  uint256[] memory indexes */\n      0x00\n        /* \"contracts/HotswapController_flattened.sol\":23229:23245  _liquidityByUser */\n      0x08\n        /* \"contracts/HotswapController_flattened.sol\":23229:23257  _liquidityByUser[msg.sender] */\n      0x00\n        /* \"contracts/HotswapController_flattened.sol\":23246:23256  msg.sender */\n      caller\n        /* \"contracts/HotswapController_flattened.sol\":23229:23257  _liquidityByUser[msg.sender] */\n      0xffffffffffffffffffffffffffffffffffffffff\n      and\n      0xffffffffffffffffffffffffffffffffffffffff\n      and\n      dup2\n      mstore\n      0x20\n      add\n      swap1\n      dup2\n      mstore\n      0x20\n      add\n      0x00\n      keccak256\n        /* \"contracts/HotswapController_flattened.sol\":23202:23257  uint256[] memory indexes = _liquidityByUser[msg.sender] */\n      dup1\n      sload\n      dup1\n      0x20\n      mul\n      0x20\n      add\n      mload(0x40)\n      swap1\n      dup2\n      add\n      0x40\n      mstore\n      dup1\n      swap3\n      swap2\n      swap1\n      dup2\n      dup2\n      mstore\n      0x20\n      add\n      dup3\n      dup1\n      sload\n      dup1\n      iszero\n      tag_211\n      jumpi\n      0x20\n      mul\n      dup3\n      add\n      swap2\n      swap1\n      0x00\n      mstore\n      keccak256(0x00, 0x20)\n      swap1\n    tag_212:\n      dup2\n      sload\n      dup2\n      mstore\n      0x20\n      add\n      swap1\n      0x01\n      add\n      swap1\n      dup1\n      dup4\n      gt\n      tag_212\n      jumpi\n    tag_211:\n      pop\n      pop\n      pop\n      pop\n      pop\n      swap1\n      pop\n        /* \"contracts/HotswapController_flattened.sol\":23270:23283  uint256 price */\n      0x00\n        /* \"contracts/HotswapController_flattened.sol\":23286:23292  _price */\n      sload(0x07)\n        /* \"contracts/HotswapController_flattened.sol\":23270:23292  uint256 price = _price */\n      swap1\n      pop\n        /* \"contracts/HotswapController_flattened.sol\":23305:23322  uint256 fftAmount */\n      0x00\n        /* \"contracts/HotswapController_flattened.sol\":23334:23339  price */\n      dup2\n        /* \"contracts/HotswapController_flattened.sol\":23325:23331  amount */\n      dup7\n        /* \"contracts/HotswapController_flattened.sol\":23325:23339  amount * price */\n      tag_213\n      swap2\n      swap1\n      tag_214\n      jump\t// in\n    tag_213:\n        /* \"contracts/HotswapController_flattened.sol\":23305:23339  uint256 fftAmount = amount * price */\n      swap1\n      pop\n        /* \"contracts/HotswapController_flattened.sol\":23365:23386  _deductFee(fftAmount) */\n      tag_215\n        /* \"contracts/HotswapController_flattened.sol\":23376:23385  fftAmount */\n      dup2\n        /* \"contracts/HotswapController_flattened.sol\":23365:23375  _deductFee */\n      tag_169\n        /* \"contracts/HotswapController_flattened.sol\":23365:23386  _deductFee(fftAmount) */\n      jump\t// in\n    tag_215:\n        /* \"contracts/HotswapController_flattened.sol\":23352:23386  fftAmount -= _deductFee(fftAmount) */\n      dup2\n      tag_216\n      swap2\n      swap1\n      tag_175\n      jump\t// in\n    tag_216:\n      swap1\n      pop\n        /* \"contracts/HotswapController_flattened.sol\":23397:23414  uint256 nftAmount */\n      0x00\n        /* \"contracts/HotswapController_flattened.sol\":23429:23434  price */\n      dup3\n        /* \"contracts/HotswapController_flattened.sol\":23417:23426  fftAmount */\n      dup3\n        /* \"contracts/HotswapController_flattened.sol\":23417:23434  fftAmount / price */\n      tag_217\n      swap2\n      swap1\n      tag_139\n      jump\t// in\n    tag_217:\n        /* \"contracts/HotswapController_flattened.sol\":23397:23434  uint256 nftAmount = fftAmount / price */\n      swap1\n      pop\n        /* \"contracts/HotswapController_flattened.sol\":23447:23459  bool success */\n      0x00\n        /* \"contracts/HotswapController_flattened.sol\":23470:23483  uint256 index */\n      dup1\n        /* \"contracts/HotswapController_flattened.sol\":23496:23505  uint256 i */\n      0x00\n        /* \"contracts/HotswapController_flattened.sol\":23516:23525  uint256 j */\n      dup1\n        /* \"contracts/HotswapController_flattened.sol\":23547:23554  indexes */\n      dup8\n        /* \"contracts/HotswapController_flattened.sol\":23547:23561  indexes.length */\n      mload\n        /* \"contracts/HotswapController_flattened.sol\":23543:23561  j = indexes.length */\n      swap1\n      pop\n        /* \"contracts/HotswapController_flattened.sol\":23538:23858  for (j = indexes.length; j > 0 && nftAmount > 0; j--) {... */\n    tag_218:\n        /* \"contracts/HotswapController_flattened.sol\":23567:23568  0 */\n      0x00\n        /* \"contracts/HotswapController_flattened.sol\":23563:23564  j */\n      dup2\n        /* \"contracts/HotswapController_flattened.sol\":23563:23568  j > 0 */\n      gt\n        /* \"contracts/HotswapController_flattened.sol\":23563:23585  j > 0 && nftAmount > 0 */\n      dup1\n      iszero\n      tag_221\n      jumpi\n      pop\n        /* \"contracts/HotswapController_flattened.sol\":23584:23585  0 */\n      0x00\n        /* \"contracts/HotswapController_flattened.sol\":23572:23581  nftAmount */\n      dup6\n        /* \"contracts/HotswapController_flattened.sol\":23572:23585  nftAmount > 0 */\n      gt\n        /* \"contracts/HotswapController_flattened.sol\":23563:23585  j > 0 && nftAmount > 0 */\n    tag_221:\n        /* \"contracts/HotswapController_flattened.sol\":23538:23858  for (j = indexes.length; j > 0 && nftAmount > 0; j--) {... */\n      iszero\n      tag_219\n      jumpi\n        /* \"contracts/HotswapController_flattened.sol\":23615:23616  1 */\n      0x01\n        /* \"contracts/HotswapController_flattened.sol\":23611:23612  j */\n      dup2\n        /* \"contracts/HotswapController_flattened.sol\":23611:23616  j - 1 */\n      tag_222\n      swap2\n      swap1\n      tag_175\n      jump\t// in\n    tag_222:\n        /* \"contracts/HotswapController_flattened.sol\":23607:23616  i = j - 1 */\n      swap2\n      pop\n        /* \"contracts/HotswapController_flattened.sol\":23640:23652  _liquidities */\n      0x09\n        /* \"contracts/HotswapController_flattened.sol\":23653:23660  indexes */\n      dup9\n        /* \"contracts/HotswapController_flattened.sol\":23661:23662  i */\n      dup4\n        /* \"contracts/HotswapController_flattened.sol\":23653:23663  indexes[i] */\n      dup2\n      mload\n      dup2\n      lt\n      tag_223\n      jumpi\n      tag_224\n      tag_132\n      jump\t// in\n    tag_224:\n    tag_223:\n      0x20\n      mul\n      0x20\n      add\n      add\n      mload\n        /* \"contracts/HotswapController_flattened.sol\":23640:23664  _liquidities[indexes[i]] */\n      dup2\n      sload\n      dup2\n      lt\n      tag_225\n      jumpi\n      tag_226\n      tag_132\n      jump\t// in\n    tag_226:\n    tag_225:\n      swap1\n      0x00\n      mstore\n      keccak256(0x00, 0x20)\n      swap1\n      0x07\n      mul\n      add\n        /* \"contracts/HotswapController_flattened.sol\":23631:23664  source = _liquidities[indexes[i]] */\n      swap10\n      pop\n        /* \"contracts/HotswapController_flattened.sol\":23700:23726  _findSuitableLiquid(false) */\n      tag_228\n        /* \"contracts/HotswapController_flattened.sol\":23720:23725  false */\n      0x00\n        /* \"contracts/HotswapController_flattened.sol\":23700:23719  _findSuitableLiquid */\n      tag_182\n        /* \"contracts/HotswapController_flattened.sol\":23700:23726  _findSuitableLiquid(false) */\n      jump\t// in\n    tag_228:\n        /* \"contracts/HotswapController_flattened.sol\":23681:23726  (success, index) = _findSuitableLiquid(false) */\n      dup1\n      swap5\n      pop\n      dup2\n      swap6\n      pop\n      pop\n      pop\n        /* \"contracts/HotswapController_flattened.sol\":23750:23762  _liquidities */\n      0x09\n        /* \"contracts/HotswapController_flattened.sol\":23763:23768  index */\n      dup4\n        /* \"contracts/HotswapController_flattened.sol\":23750:23769  _liquidities[index] */\n      dup2\n      sload\n      dup2\n      lt\n      tag_229\n      jumpi\n      tag_230\n      tag_132\n      jump\t// in\n    tag_230:\n    tag_229:\n      swap1\n      0x00\n      mstore\n      keccak256(0x00, 0x20)\n      swap1\n      0x07\n      mul\n      add\n        /* \"contracts/HotswapController_flattened.sol\":23741:23769  target = _liquidities[index] */\n      swap9\n      pop\n        /* \"contracts/HotswapController_flattened.sol\":23798:23846  _swapNFTLiquid(source, target, nftAmount, price) */\n      tag_232\n        /* \"contracts/HotswapController_flattened.sol\":23813:23819  source */\n      dup11\n        /* \"contracts/HotswapController_flattened.sol\":23821:23827  target */\n      dup11\n        /* \"contracts/HotswapController_flattened.sol\":23829:23838  nftAmount */\n      dup8\n        /* \"contracts/HotswapController_flattened.sol\":23840:23845  price */\n      dup11\n        /* \"contracts/HotswapController_flattened.sol\":23798:23812  _swapNFTLiquid */\n      tag_233\n        /* \"contracts/HotswapController_flattened.sol\":23798:23846  _swapNFTLiquid(source, target, nftAmount, price) */\n      jump\t// in\n    tag_232:\n        /* \"contracts/HotswapController_flattened.sol\":23786:23846  nftAmount = _swapNFTLiquid(source, target, nftAmount, price) */\n      swap5\n      pop\n        /* \"contracts/HotswapController_flattened.sol\":23587:23590  j-- */\n      dup1\n      dup1\n      tag_234\n      swap1\n      tag_189\n      jump\t// in\n    tag_234:\n      swap2\n      pop\n      pop\n        /* \"contracts/HotswapController_flattened.sol\":23538:23858  for (j = indexes.length; j > 0 && nftAmount > 0; j--) {... */\n      jump(tag_218)\n    tag_219:\n        /* \"contracts/HotswapController_flattened.sol\":23891:23892  0 */\n      0x00\n        /* \"contracts/HotswapController_flattened.sol\":23878:23887  nftAmount */\n      dup6\n        /* \"contracts/HotswapController_flattened.sol\":23878:23892  nftAmount == 0 */\n      eq\n        /* \"contracts/HotswapController_flattened.sol\":23870:23919  require(nftAmount == 0, \"Insufficient liquidity\") */\n      tag_235\n      jumpi\n      mload(0x40)\n      0x08c379a000000000000000000000000000000000000000000000000000000000\n      dup2\n      mstore\n      0x04\n      add\n      tag_236\n      swap1\n      tag_192\n      jump\t// in\n    tag_236:\n      mload(0x40)\n      dup1\n      swap2\n      sub\n      swap1\n      revert\n    tag_235:\n        /* \"contracts/HotswapController_flattened.sol\":23125:23927  {... */\n      pop\n      pop\n      pop\n      pop\n      pop\n      pop\n      pop\n      pop\n      pop\n      pop\n        /* \"contracts/HotswapController_flattened.sol\":23083:23927  function swapNFT(uint256 amount) external {... */\n      pop\n      jump\t// out\n        /* \"contracts/HotswapController_flattened.sol\":18482:18696  function depositFFT(uint256 amount) external {... */\n    tag_106:\n        /* \"contracts/HotswapController_flattened.sol\":18538:18550  bool success */\n      0x00\n        /* \"contracts/HotswapController_flattened.sol\":18553:18557  _fft */\n      0x03\n      0x00\n      swap1\n      sload\n      swap1\n      0x0100\n      exp\n      swap1\n      div\n      0xffffffffffffffffffffffffffffffffffffffff\n      and\n        /* \"contracts/HotswapController_flattened.sol\":18553:18570  _fft.transferFrom */\n      0xffffffffffffffffffffffffffffffffffffffff\n      and\n      0x23b872dd\n        /* \"contracts/HotswapController_flattened.sol\":18571:18581  msg.sender */\n      caller\n        /* \"contracts/HotswapController_flattened.sol\":18583:18593  _liquidity */\n      0x06\n      0x00\n      swap1\n      sload\n      swap1\n      0x0100\n      exp\n      swap1\n      div\n      0xffffffffffffffffffffffffffffffffffffffff\n      and\n        /* \"contracts/HotswapController_flattened.sol\":18595:18601  amount */\n      dup6\n        /* \"contracts/HotswapController_flattened.sol\":18553:18602  _fft.transferFrom(msg.sender, _liquidity, amount) */\n      mload(0x40)\n      dup5\n      0xffffffff\n      and\n      0xe0\n      shl\n      dup2\n      mstore\n      0x04\n      add\n      tag_238\n      swap4\n      swap3\n      swap2\n      swap1\n      tag_239\n      jump\t// in\n    tag_238:\n      0x20\n      mload(0x40)\n      dup1\n      dup4\n      sub\n      dup2\n      0x00\n      dup8\n      gas\n      call\n      iszero\n      dup1\n      iszero\n      tag_241\n      jumpi\n      returndatasize\n      0x00\n      dup1\n      returndatacopy\n      revert(0x00, returndatasize)\n    tag_241:\n      pop\n      pop\n      pop\n      pop\n      mload(0x40)\n      returndatasize\n      not(0x1f)\n      0x1f\n      dup3\n      add\n      and\n      dup3\n      add\n      dup1\n      0x40\n      mstore\n      pop\n      dup2\n      add\n      swap1\n      tag_242\n      swap2\n      swap1\n      tag_243\n      jump\t// in\n    tag_242:\n        /* \"contracts/HotswapController_flattened.sol\":18538:18602  bool success = _fft.transferFrom(msg.sender, _liquidity, amount) */\n      swap1\n      pop\n        /* \"contracts/HotswapController_flattened.sol\":18623:18630  success */\n      dup1\n        /* \"contracts/HotswapController_flattened.sol\":18615:18650  require(success, \"Transfer failed\") */\n      tag_244\n      jumpi\n      mload(0x40)\n      0x08c379a000000000000000000000000000000000000000000000000000000000\n      dup2\n      mstore\n      0x04\n      add\n      tag_245\n      swap1\n      tag_246\n      jump\t// in\n    tag_245:\n      mload(0x40)\n      dup1\n      swap2\n      sub\n      swap1\n      revert\n    tag_244:\n        /* \"contracts/HotswapController_flattened.sol\":18661:18688  _createLiquid(amount, true) */\n      tag_247\n        /* \"contracts/HotswapController_flattened.sol\":18675:18681  amount */\n      dup3\n        /* \"contracts/HotswapController_flattened.sol\":18683:18687  true */\n      0x01\n        /* \"contracts/HotswapController_flattened.sol\":18661:18674  _createLiquid */\n      tag_248\n        /* \"contracts/HotswapController_flattened.sol\":18661:18688  _createLiquid(amount, true) */\n      jump\t// in\n    tag_247:\n        /* \"contracts/HotswapController_flattened.sol\":18527:18696  {... */\n      pop\n        /* \"contracts/HotswapController_flattened.sol\":18482:18696  function depositFFT(uint256 amount) external {... */\n      pop\n      jump\t// out\n        /* \"contracts/HotswapController_flattened.sol\":19659:20251  function queryLiquidbyDepositor(... */\n    tag_110:\n        /* \"contracts/HotswapController_flattened.sol\":19771:19788  LiquidData memory */\n      tag_249\n      tag_162\n      jump\t// in\n    tag_249:\n        /* \"contracts/HotswapController_flattened.sol\":19801:19825  uint256[] memory indexes */\n      0x00\n        /* \"contracts/HotswapController_flattened.sol\":19828:19844  _liquidityByUser */\n      0x08\n        /* \"contracts/HotswapController_flattened.sol\":19828:19855  _liquidityByUser[depositor] */\n      0x00\n        /* \"contracts/HotswapController_flattened.sol\":19845:19854  depositor */\n      dup6\n        /* \"contracts/HotswapController_flattened.sol\":19828:19855  _liquidityByUser[depositor] */\n      0xffffffffffffffffffffffffffffffffffffffff\n      and\n      0xffffffffffffffffffffffffffffffffffffffff\n      and\n      dup2\n      mstore\n      0x20\n      add\n      swap1\n      dup2\n      mstore\n      0x20\n      add\n      0x00\n      keccak256\n        /* \"contracts/HotswapController_flattened.sol\":19801:19855  uint256[] memory indexes = _liquidityByUser[depositor] */\n      dup1\n      sload\n      dup1\n      0x20\n      mul\n      0x20\n      add\n      mload(0x40)\n      swap1\n      dup2\n      add\n      0x40\n      mstore\n      dup1\n      swap3\n      swap2\n      swap1\n      dup2\n      dup2\n      mstore\n      0x20\n      add\n      dup3\n      dup1\n      sload\n      dup1\n      iszero\n      tag_251\n      jumpi\n      0x20\n      mul\n      dup3\n      add\n      swap2\n      swap1\n      0x00\n      mstore\n      keccak256(0x00, 0x20)\n      swap1\n    tag_252:\n      dup2\n      sload\n      dup2\n      mstore\n      0x20\n      add\n      swap1\n      0x01\n      add\n      swap1\n      dup1\n      dup4\n      gt\n      tag_252\n      jumpi\n    tag_251:\n      pop\n      pop\n      pop\n      pop\n      pop\n      swap1\n      pop\n        /* \"contracts/HotswapController_flattened.sol\":19882:19889  indexes */\n      dup1\n        /* \"contracts/HotswapController_flattened.sol\":19882:19896  indexes.length */\n      mload\n        /* \"contracts/HotswapController_flattened.sol\":19874:19879  index */\n      dup4\n        /* \"contracts/HotswapController_flattened.sol\":19874:19896  index < indexes.length */\n      lt\n        /* \"contracts/HotswapController_flattened.sol\":19866:19919  require(index < indexes.length, \"Index out of range\") */\n      tag_253\n      jumpi\n      mload(0x40)\n      0x08c379a000000000000000000000000000000000000000000000000000000000\n      dup2\n      mstore\n      0x04\n      add\n      tag_254\n      swap1\n      tag_129\n      jump\t// in\n    tag_254:\n      mload(0x40)\n      dup1\n      swap2\n      sub\n      swap1\n      revert\n    tag_253:\n        /* \"contracts/HotswapController_flattened.sol\":19932:19941  uint256 n */\n      0x00\n        /* \"contracts/HotswapController_flattened.sol\":19944:19951  indexes */\n      dup2\n        /* \"contracts/HotswapController_flattened.sol\":19952:19957  index */\n      dup5\n        /* \"contracts/HotswapController_flattened.sol\":19944:19958  indexes[index] */\n      dup2\n      mload\n      dup2\n      lt\n      tag_255\n      jumpi\n      tag_256\n      tag_132\n      jump\t// in\n    tag_256:\n    tag_255:\n      0x20\n      mul\n      0x20\n      add\n      add\n      mload\n        /* \"contracts/HotswapController_flattened.sol\":19932:19958  uint256 n = indexes[index] */\n      swap1\n      pop\n        /* \"contracts/HotswapController_flattened.sol\":19971:19987  Liquid memory lq */\n      0x00\n        /* \"contracts/HotswapController_flattened.sol\":19990:20002  _liquidities */\n      0x09\n        /* \"contracts/HotswapController_flattened.sol\":20003:20004  n */\n      dup3\n        /* \"contracts/HotswapController_flattened.sol\":19990:20005  _liquidities[n] */\n      dup2\n      sload\n      dup2\n      lt\n      tag_257\n      jumpi\n      tag_258\n      tag_132\n      jump\t// in\n    tag_258:\n    tag_257:\n      swap1\n      0x00\n      mstore\n      keccak256(0x00, 0x20)\n      swap1\n      0x07\n      mul\n      add\n        /* \"contracts/HotswapController_flattened.sol\":19971:20005  Liquid memory lq = _liquidities[n] */\n      mload(0x40)\n      dup1\n      0xe0\n      add\n      0x40\n      mstore\n      swap1\n      dup2\n      0x00\n      dup3\n      add\n      0x00\n      swap1\n      sload\n      swap1\n      0x0100\n      exp\n      swap1\n      div\n      0xffffffffffffffffffffffffffffffffffffffff\n      and\n      0xffffffffffffffffffffffffffffffffffffffff\n      and\n      0xffffffffffffffffffffffffffffffffffffffff\n      and\n      dup2\n      mstore\n      0x20\n      add\n      0x01\n      dup3\n      add\n      sload\n      dup2\n      mstore\n      0x20\n      add\n      0x02\n      dup3\n      add\n      sload\n      dup2\n      mstore\n      0x20\n      add\n      0x03\n      dup3\n      add\n      sload\n      dup2\n      mstore\n      0x20\n      add\n      0x04\n      dup3\n      add\n      sload\n      dup2\n      mstore\n      0x20\n      add\n      0x05\n      dup3\n      add\n      0x00\n      swap1\n      sload\n      swap1\n      0x0100\n      exp\n      swap1\n      div\n      0xff\n      and\n      iszero\n      iszero\n      iszero\n      iszero\n      dup2\n      mstore\n      0x20\n      add\n      0x06\n      dup3\n      add\n      sload\n      dup2\n      mstore\n      pop\n      pop\n      swap1\n      pop\n        /* \"contracts/HotswapController_flattened.sol\":20038:20243  LiquidData(... */\n      mload(0x40)\n      dup1\n      0xc0\n      add\n      0x40\n      mstore\n      dup1\n        /* \"contracts/HotswapController_flattened.sol\":20067:20069  lq */\n      dup3\n        /* \"contracts/HotswapController_flattened.sol\":20067:20079  lq.depositor */\n      0x00\n      add\n      mload\n        /* \"contracts/HotswapController_flattened.sol\":20038:20243  LiquidData(... */\n      0xffffffffffffffffffffffffffffffffffffffff\n      and\n      dup2\n      mstore\n      0x20\n      add\n        /* \"contracts/HotswapController_flattened.sol\":20098:20100  lq */\n      dup3\n        /* \"contracts/HotswapController_flattened.sol\":20098:20112  lq.depositedAt */\n      0x20\n      add\n      mload\n        /* \"contracts/HotswapController_flattened.sol\":20038:20243  LiquidData(... */\n      dup2\n      mstore\n      0x20\n      add\n        /* \"contracts/HotswapController_flattened.sol\":20131:20133  lq */\n      dup3\n        /* \"contracts/HotswapController_flattened.sol\":20131:20139  lq.price */\n      0x40\n      add\n      mload\n        /* \"contracts/HotswapController_flattened.sol\":20038:20243  LiquidData(... */\n      dup2\n      mstore\n      0x20\n      add\n        /* \"contracts/HotswapController_flattened.sol\":20158:20160  lq */\n      dup3\n        /* \"contracts/HotswapController_flattened.sol\":20158:20169  lq.nftAlloc */\n      0x60\n      add\n      mload\n        /* \"contracts/HotswapController_flattened.sol\":20038:20243  LiquidData(... */\n      dup2\n      mstore\n      0x20\n      add\n        /* \"contracts/HotswapController_flattened.sol\":20188:20190  lq */\n      dup3\n        /* \"contracts/HotswapController_flattened.sol\":20188:20199  lq.fftAlloc */\n      0x80\n      add\n      mload\n        /* \"contracts/HotswapController_flattened.sol\":20038:20243  LiquidData(... */\n      dup2\n      mstore\n      0x20\n      add\n        /* \"contracts/HotswapController_flattened.sol\":20218:20220  lq */\n      dup3\n        /* \"contracts/HotswapController_flattened.sol\":20218:20228  lq.claimed */\n      0xa0\n      add\n      mload\n        /* \"contracts/HotswapController_flattened.sol\":20038:20243  LiquidData(... */\n      iszero\n      iszero\n      dup2\n      mstore\n      pop\n        /* \"contracts/HotswapController_flattened.sol\":20018:20243  return... */\n      swap4\n      pop\n      pop\n      pop\n      pop\n        /* \"contracts/HotswapController_flattened.sol\":19659:20251  function queryLiquidbyDepositor(... */\n      swap3\n      swap2\n      pop\n      pop\n      jump\t// out\n        /* \"contracts/HotswapController_flattened.sol\":17986:18474  function depositNFT(uint256 amount) external {... */\n    tag_114:\n        /* \"contracts/HotswapController_flattened.sol\":18086:18087  0 */\n      0x00\n        /* \"contracts/HotswapController_flattened.sol\":18064:18088  _liquidity != address(0) */\n      0xffffffffffffffffffffffffffffffffffffffff\n      and\n        /* \"contracts/HotswapController_flattened.sol\":18064:18074  _liquidity */\n      0x06\n      0x00\n      swap1\n      sload\n      swap1\n      0x0100\n      exp\n      swap1\n      div\n      0xffffffffffffffffffffffffffffffffffffffff\n      and\n        /* \"contracts/HotswapController_flattened.sol\":18064:18088  _liquidity != address(0) */\n      0xffffffffffffffffffffffffffffffffffffffff\n      and\n      sub\n        /* \"contracts/HotswapController_flattened.sol\":18042:18155  require(... */\n      tag_261\n      jumpi\n      mload(0x40)\n      0x08c379a000000000000000000000000000000000000000000000000000000000\n      dup2\n      mstore\n      0x04\n      add\n      tag_262\n      swap1\n      tag_263\n      jump\t// in\n    tag_262:\n      mload(0x40)\n      dup1\n      swap2\n      sub\n      swap1\n      revert\n    tag_261:\n        /* \"contracts/HotswapController_flattened.sol\":18168:18183  uint256 tokenId */\n      0x00\n        /* \"contracts/HotswapController_flattened.sol\":18194:18211  bytes memory data */\n      dup1\n        /* \"contracts/HotswapController_flattened.sol\":18224:18225  0 */\n      0x00\n        /* \"contracts/HotswapController_flattened.sol\":18214:18226  new bytes(0) */\n      0xffffffffffffffff\n      dup2\n      gt\n      iszero\n      tag_264\n      jumpi\n      tag_265\n      tag_266\n      jump\t// in\n    tag_265:\n    tag_264:\n      mload(0x40)\n      swap1\n      dup1\n      dup3\n      mstore\n      dup1\n      0x1f\n      add\n      not(0x1f)\n      and\n      0x20\n      add\n      dup3\n      add\n      0x40\n      mstore\n      dup1\n      iszero\n      tag_267\n      jumpi\n      dup2\n      0x20\n      add\n      0x01\n      dup3\n      mul\n      dup1\n      calldatasize\n      dup4\n      calldatacopy\n      dup1\n      dup3\n      add\n      swap2\n      pop\n      pop\n      swap1\n      pop\n    tag_267:\n      pop\n        /* \"contracts/HotswapController_flattened.sol\":18194:18226  bytes memory data = new bytes(0) */\n      swap1\n      pop\n        /* \"contracts/HotswapController_flattened.sol\":18244:18253  uint256 i */\n      0x00\n        /* \"contracts/HotswapController_flattened.sol\":18239:18427  for (uint256 i = 0; i < amount; i++) {... */\n    tag_268:\n        /* \"contracts/HotswapController_flattened.sol\":18263:18269  amount */\n      dup4\n        /* \"contracts/HotswapController_flattened.sol\":18259:18260  i */\n      dup2\n        /* \"contracts/HotswapController_flattened.sol\":18259:18269  i < amount */\n      lt\n        /* \"contracts/HotswapController_flattened.sol\":18239:18427  for (uint256 i = 0; i < amount; i++) {... */\n      iszero\n      tag_269\n      jumpi\n        /* \"contracts/HotswapController_flattened.sol\":18301:18305  _nft */\n      0x04\n      0x00\n      swap1\n      sload\n      swap1\n      0x0100\n      exp\n      swap1\n      div\n      0xffffffffffffffffffffffffffffffffffffffff\n      and\n        /* \"contracts/HotswapController_flattened.sol\":18301:18325  _nft.tokenOfOwnerByIndex */\n      0xffffffffffffffffffffffffffffffffffffffff\n      and\n      0x2f745c59\n        /* \"contracts/HotswapController_flattened.sol\":18326:18336  msg.sender */\n      caller\n        /* \"contracts/HotswapController_flattened.sol\":18338:18339  i */\n      dup4\n        /* \"contracts/HotswapController_flattened.sol\":18301:18340  _nft.tokenOfOwnerByIndex(msg.sender, i) */\n      mload(0x40)\n      dup4\n      0xffffffff\n      and\n      0xe0\n      shl\n      dup2\n      mstore\n      0x04\n      add\n      tag_271\n      swap3\n      swap2\n      swap1\n      tag_272\n      jump\t// in\n    tag_271:\n      0x20\n      mload(0x40)\n      dup1\n      dup4\n      sub\n      dup2\n      dup7\n      gas\n      staticcall\n      iszero\n      dup1\n      iszero\n      tag_274\n      jumpi\n      returndatasize\n      0x00\n      dup1\n      returndatacopy\n      revert(0x00, returndatasize)\n    tag_274:\n      pop\n      pop\n      pop\n      pop\n      mload(0x40)\n      returndatasize\n      not(0x1f)\n      0x1f\n      dup3\n      add\n      and\n      dup3\n      add\n      dup1\n      0x40\n      mstore\n      pop\n      dup2\n      add\n      swap1\n      tag_275\n      swap2\n      swap1\n      tag_276\n      jump\t// in\n    tag_275:\n        /* \"contracts/HotswapController_flattened.sol\":18291:18340  tokenId = _nft.tokenOfOwnerByIndex(msg.sender, i) */\n      swap3\n      pop\n        /* \"contracts/HotswapController_flattened.sol\":18355:18359  _nft */\n      0x04\n      0x00\n      swap1\n      sload\n      swap1\n      0x0100\n      exp\n      swap1\n      div\n      0xffffffffffffffffffffffffffffffffffffffff\n      and\n        /* \"contracts/HotswapController_flattened.sol\":18355:18376  _nft.safeTransferFrom */\n      0xffffffffffffffffffffffffffffffffffffffff\n      and\n      0xb88d4fde\n        /* \"contracts/HotswapController_flattened.sol\":18377:18387  msg.sender */\n      caller\n        /* \"contracts/HotswapController_flattened.sol\":18389:18399  _liquidity */\n      0x06\n      0x00\n      swap1\n      sload\n      swap1\n      0x0100\n      exp\n      swap1\n      div\n      0xffffffffffffffffffffffffffffffffffffffff\n      and\n        /* \"contracts/HotswapController_flattened.sol\":18401:18408  tokenId */\n      dup7\n        /* \"contracts/HotswapController_flattened.sol\":18410:18414  data */\n      dup7\n        /* \"contracts/HotswapController_flattened.sol\":18355:18415  _nft.safeTransferFrom(msg.sender, _liquidity, tokenId, data) */\n      mload(0x40)\n      dup6\n      0xffffffff\n      and\n      0xe0\n      shl\n      dup2\n      mstore\n      0x04\n      add\n      tag_277\n      swap5\n      swap4\n      swap3\n      swap2\n      swap1\n      tag_278\n      jump\t// in\n    tag_277:\n      0x00\n      mload(0x40)\n      dup1\n      dup4\n      sub\n      dup2\n      0x00\n      dup8\n      dup1\n      extcodesize\n      iszero\n      dup1\n      iszero\n      tag_279\n      jumpi\n      0x00\n      dup1\n      revert\n    tag_279:\n      pop\n      gas\n      call\n      iszero\n      dup1\n      iszero\n      tag_281\n      jumpi\n      returndatasize\n      0x00\n      dup1\n      returndatacopy\n      revert(0x00, returndatasize)\n    tag_281:\n      pop\n      pop\n      pop\n      pop\n        /* \"contracts/HotswapController_flattened.sol\":18271:18274  i++ */\n      dup1\n      dup1\n      0x01\n      add\n      swap2\n      pop\n      pop\n        /* \"contracts/HotswapController_flattened.sol\":18239:18427  for (uint256 i = 0; i < amount; i++) {... */\n      jump(tag_268)\n    tag_269:\n      pop\n        /* \"contracts/HotswapController_flattened.sol\":18439:18466  _createLiquid(amount, true) */\n      tag_282\n        /* \"contracts/HotswapController_flattened.sol\":18453:18459  amount */\n      dup4\n        /* \"contracts/HotswapController_flattened.sol\":18461:18465  true */\n      0x01\n        /* \"contracts/HotswapController_flattened.sol\":18439:18452  _createLiquid */\n      tag_248\n        /* \"contracts/HotswapController_flattened.sol\":18439:18466  _createLiquid(amount, true) */\n      jump\t// in\n    tag_282:\n        /* \"contracts/HotswapController_flattened.sol\":18031:18474  {... */\n      pop\n      pop\n        /* \"contracts/HotswapController_flattened.sol\":17986:18474  function depositNFT(uint256 amount) external {... */\n      pop\n      jump\t// out\n        /* \"contracts/HotswapController_flattened.sol\":7608:7717  function transferOwnership(address newOwner) public onlyOwner {... */\n    tag_117:\n        /* \"contracts/HotswapController_flattened.sol\":7336:7345  isOwner() */\n      tag_284\n        /* \"contracts/HotswapController_flattened.sol\":7336:7343  isOwner */\n      tag_84\n        /* \"contracts/HotswapController_flattened.sol\":7336:7345  isOwner() */\n      jump\t// in\n    tag_284:\n        /* \"contracts/HotswapController_flattened.sol\":7328:7346  require(isOwner()) */\n      tag_285\n      jumpi\n      0x00\n      dup1\n      revert\n    tag_285:\n        /* \"contracts/HotswapController_flattened.sol\":7681:7709  _transferOwnership(newOwner) */\n      tag_287\n        /* \"contracts/HotswapController_flattened.sol\":7700:7708  newOwner */\n      dup2\n        /* \"contracts/HotswapController_flattened.sol\":7681:7699  _transferOwnership */\n      tag_288\n        /* \"contracts/HotswapController_flattened.sol\":7681:7709  _transferOwnership(newOwner) */\n      jump\t// in\n    tag_287:\n        /* \"contracts/HotswapController_flattened.sol\":7608:7717  function transferOwnership(address newOwner) public onlyOwner {... */\n      pop\n      jump\t// out\n        /* \"contracts/HotswapController_flattened.sol\":14392:14508  function setNFT(address addr) public onlyOwner {... */\n    tag_120:\n        /* \"contracts/HotswapController_flattened.sol\":7336:7345  isOwner() */\n      tag_290\n        /* \"contracts/HotswapController_flattened.sol\":7336:7343  isOwner */\n      tag_84\n        /* \"contracts/HotswapController_flattened.sol\":7336:7345  isOwner() */\n      jump\t// in\n    tag_290:\n        /* \"contracts/HotswapController_flattened.sol\":7328:7346  require(isOwner()) */\n      tag_291\n      jumpi\n      0x00\n      dup1\n      revert\n    tag_291:\n        /* \"contracts/HotswapController_flattened.sol\":14456:14460  addr */\n      dup1\n        /* \"contracts/HotswapController_flattened.sol\":14450:14453  NFT */\n      0x01\n      0x00\n        /* \"contracts/HotswapController_flattened.sol\":14450:14460  NFT = addr */\n      0x0100\n      exp\n      dup2\n      sload\n      dup2\n      0xffffffffffffffffffffffffffffffffffffffff\n      mul\n      not\n      and\n      swap1\n      dup4\n      0xffffffffffffffffffffffffffffffffffffffff\n      and\n      mul\n      or\n      swap1\n      sstore\n      pop\n        /* \"contracts/HotswapController_flattened.sol\":14495:14499  addr */\n      dup1\n        /* \"contracts/HotswapController_flattened.sol\":14471:14475  _nft */\n      0x04\n      0x00\n        /* \"contracts/HotswapController_flattened.sol\":14471:14500  _nft = ERC721Enumerable(addr) */\n      0x0100\n      exp\n      dup2\n      sload\n      dup2\n      0xffffffffffffffffffffffffffffffffffffffff\n      mul\n      not\n      and\n      swap1\n      dup4\n      0xffffffffffffffffffffffffffffffffffffffff\n      and\n      mul\n      or\n      swap1\n      sstore\n      pop\n        /* \"contracts/HotswapController_flattened.sol\":14392:14508  function setNFT(address addr) public onlyOwner {... */\n      pop\n      jump\t// out\n        /* \"contracts/HotswapController_flattened.sol\":16760:16851  function setCollector(address addr) external onlyOwner {... */\n    tag_123:\n        /* \"contracts/HotswapController_flattened.sol\":7336:7345  isOwner() */\n      tag_294\n        /* \"contracts/HotswapController_flattened.sol\":7336:7343  isOwner */\n      tag_84\n        /* \"contracts/HotswapController_flattened.sol\":7336:7345  isOwner() */\n      jump\t// in\n    tag_294:\n        /* \"contracts/HotswapController_flattened.sol\":7328:7346  require(isOwner()) */\n      tag_295\n      jumpi\n      0x00\n      dup1\n      revert\n    tag_295:\n        /* \"contracts/HotswapController_flattened.sol\":16839:16843  addr */\n      dup1\n        /* \"contracts/HotswapController_flattened.sol\":16826:16836  _collector */\n      0x05\n      0x00\n        /* \"contracts/HotswapController_flattened.sol\":16826:16843  _collector = addr */\n      0x0100\n      exp\n      dup2\n      sload\n      dup2\n      0xffffffffffffffffffffffffffffffffffffffff\n      mul\n      not\n      and\n      swap1\n      dup4\n      0xffffffffffffffffffffffffffffffffffffffff\n      and\n      mul\n      or\n      swap1\n      sstore\n      pop\n        /* \"contracts/HotswapController_flattened.sol\":16760:16851  function setCollector(address addr) external onlyOwner {... */\n      pop\n      jump\t// out\n        /* \"contracts/HotswapController_flattened.sol\":21367:21964  function _removeLiquidity(Liquid memory lq, uint256 index) private {... */\n    tag_154:\n        /* \"contracts/HotswapController_flattened.sol\":21445:21462  uint256 userIndex */\n      0x00\n        /* \"contracts/HotswapController_flattened.sol\":21465:21467  lq */\n      dup3\n        /* \"contracts/HotswapController_flattened.sol\":21465:21477  lq.userIndex */\n      0xc0\n      add\n      mload\n        /* \"contracts/HotswapController_flattened.sol\":21445:21477  uint256 userIndex = lq.userIndex */\n      swap1\n      pop\n        /* \"contracts/HotswapController_flattened.sol\":21490:21509  Liquid storage last */\n      0x00\n        /* \"contracts/HotswapController_flattened.sol\":21520:21549  uint256[] storage userLiquids */\n      dup1\n        /* \"contracts/HotswapController_flattened.sol\":21552:21568  _liquidityByUser */\n      0x08\n        /* \"contracts/HotswapController_flattened.sol\":21552:21580  _liquidityByUser[msg.sender] */\n      0x00\n        /* \"contracts/HotswapController_flattened.sol\":21569:21579  msg.sender */\n      caller\n        /* \"contracts/HotswapController_flattened.sol\":21552:21580  _liquidityByUser[msg.sender] */\n      0xffffffffffffffffffffffffffffffffffffffff\n      and\n      0xffffffffffffffffffffffffffffffffffffffff\n      and\n      dup2\n      mstore\n      0x20\n      add\n      swap1\n      dup2\n      mstore\n      0x20\n      add\n      0x00\n      keccak256\n        /* \"contracts/HotswapController_flattened.sol\":21520:21580  uint256[] storage userLiquids = _liquidityByUser[msg.sender] */\n      swap1\n      pop\n        /* \"contracts/HotswapController_flattened.sol\":21597:21632  _removeItem(userLiquids, userIndex) */\n      tag_298\n        /* \"contracts/HotswapController_flattened.sol\":21609:21620  userLiquids */\n      dup2\n        /* \"contracts/HotswapController_flattened.sol\":21622:21631  userIndex */\n      dup5\n        /* \"contracts/HotswapController_flattened.sol\":21597:21608  _removeItem */\n      tag_299\n        /* \"contracts/HotswapController_flattened.sol\":21597:21632  _removeItem(userLiquids, userIndex) */\n      jump\t// in\n    tag_298:\n        /* \"contracts/HotswapController_flattened.sol\":21593:21745  if (_removeItem(userLiquids, userIndex)) {... */\n      iszero\n      tag_300\n      jumpi\n        /* \"contracts/HotswapController_flattened.sol\":21656:21668  _liquidities */\n      0x09\n        /* \"contracts/HotswapController_flattened.sol\":21669:21680  userLiquids */\n      dup2\n        /* \"contracts/HotswapController_flattened.sol\":21681:21690  userIndex */\n      dup5\n        /* \"contracts/HotswapController_flattened.sol\":21669:21691  userLiquids[userIndex] */\n      dup2\n      sload\n      dup2\n      lt\n      tag_301\n      jumpi\n      tag_302\n      tag_132\n      jump\t// in\n    tag_302:\n    tag_301:\n      swap1\n      0x00\n      mstore\n      keccak256(0x00, 0x20)\n      add\n      sload\n        /* \"contracts/HotswapController_flattened.sol\":21656:21692  _liquidities[userLiquids[userIndex]] */\n      dup2\n      sload\n      dup2\n      lt\n      tag_304\n      jumpi\n      tag_305\n      tag_132\n      jump\t// in\n    tag_305:\n    tag_304:\n      swap1\n      0x00\n      mstore\n      keccak256(0x00, 0x20)\n      swap1\n      0x07\n      mul\n      add\n        /* \"contracts/HotswapController_flattened.sol\":21649:21692  last = _liquidities[userLiquids[userIndex]] */\n      swap2\n      pop\n        /* \"contracts/HotswapController_flattened.sol\":21724:21733  userIndex */\n      dup3\n        /* \"contracts/HotswapController_flattened.sol\":21707:21711  last */\n      dup3\n        /* \"contracts/HotswapController_flattened.sol\":21707:21721  last.userIndex */\n      0x06\n      add\n        /* \"contracts/HotswapController_flattened.sol\":21707:21733  last.userIndex = userIndex */\n      dup2\n      swap1\n      sstore\n      pop\n        /* \"contracts/HotswapController_flattened.sol\":21593:21745  if (_removeItem(userLiquids, userIndex)) {... */\n    tag_300:\n        /* \"contracts/HotswapController_flattened.sol\":21761:21793  _removeItem(_liquidities, index) */\n      tag_307\n        /* \"contracts/HotswapController_flattened.sol\":21773:21785  _liquidities */\n      0x09\n        /* \"contracts/HotswapController_flattened.sol\":21787:21792  index */\n      dup6\n        /* \"contracts/HotswapController_flattened.sol\":21761:21772  _removeItem */\n      tag_308\n        /* \"contracts/HotswapController_flattened.sol\":21761:21793  _removeItem(_liquidities, index) */\n      jump\t// in\n    tag_307:\n        /* \"contracts/HotswapController_flattened.sol\":21757:21957  if (_removeItem(_liquidities, index)) {... */\n      iszero\n      tag_309\n      jumpi\n        /* \"contracts/HotswapController_flattened.sol\":21817:21829  _liquidities */\n      0x09\n        /* \"contracts/HotswapController_flattened.sol\":21830:21835  index */\n      dup5\n        /* \"contracts/HotswapController_flattened.sol\":21817:21836  _liquidities[index] */\n      dup2\n      sload\n      dup2\n      lt\n      tag_310\n      jumpi\n      tag_311\n      tag_132\n      jump\t// in\n    tag_311:\n    tag_310:\n      swap1\n      0x00\n      mstore\n      keccak256(0x00, 0x20)\n      swap1\n      0x07\n      mul\n      add\n        /* \"contracts/HotswapController_flattened.sol\":21810:21836  last = _liquidities[index] */\n      swap2\n      pop\n        /* \"contracts/HotswapController_flattened.sol\":21865:21869  last */\n      dup2\n        /* \"contracts/HotswapController_flattened.sol\":21865:21879  last.userIndex */\n      0x06\n      add\n      sload\n        /* \"contracts/HotswapController_flattened.sol\":21853:21879  userIndex = last.userIndex */\n      swap3\n      pop\n        /* \"contracts/HotswapController_flattened.sol\":21940:21945  index */\n      dup4\n        /* \"contracts/HotswapController_flattened.sol\":21894:21910  _liquidityByUser */\n      0x08\n        /* \"contracts/HotswapController_flattened.sol\":21894:21926  _liquidityByUser[last.depositor] */\n      0x00\n        /* \"contracts/HotswapController_flattened.sol\":21911:21915  last */\n      dup5\n        /* \"contracts/HotswapController_flattened.sol\":21911:21925  last.depositor */\n      0x00\n      add\n      0x00\n      swap1\n      sload\n      swap1\n      0x0100\n      exp\n      swap1\n      div\n      0xffffffffffffffffffffffffffffffffffffffff\n      and\n        /* \"contracts/HotswapController_flattened.sol\":21894:21926  _liquidityByUser[last.depositor] */\n      0xffffffffffffffffffffffffffffffffffffffff\n      and\n      0xffffffffffffffffffffffffffffffffffffffff\n      and\n      dup2\n      mstore\n      0x20\n      add\n      swap1\n      dup2\n      mstore\n      0x20\n      add\n      0x00\n      keccak256\n        /* \"contracts/HotswapController_flattened.sol\":21927:21936  userIndex */\n      dup5\n        /* \"contracts/HotswapController_flattened.sol\":21894:21937  _liquidityByUser[last.depositor][userIndex] */\n      dup2\n      sload\n      dup2\n      lt\n      tag_313\n      jumpi\n      tag_314\n      tag_132\n      jump\t// in\n    tag_314:\n    tag_313:\n      swap1\n      0x00\n      mstore\n      keccak256(0x00, 0x20)\n      add\n        /* \"contracts/HotswapController_flattened.sol\":21894:21945  _liquidityByUser[last.depositor][userIndex] = index */\n      dup2\n      swap1\n      sstore\n      pop\n        /* \"contracts/HotswapController_flattened.sol\":21757:21957  if (_removeItem(_liquidities, index)) {... */\n    tag_309:\n        /* \"contracts/HotswapController_flattened.sol\":21434:21964  {... */\n      pop\n      pop\n      pop\n        /* \"contracts/HotswapController_flattened.sol\":21367:21964  function _removeLiquidity(Liquid memory lq, uint256 index) private {... */\n      pop\n      pop\n      jump\t// out\n        /* \"contracts/HotswapController_flattened.sol\":16417:16752  function _computePrice() internal returns (uint256) {... */\n    tag_160:\n        /* \"contracts/HotswapController_flattened.sol\":16460:16467  uint256 */\n      0x00\n        /* \"contracts/HotswapController_flattened.sol\":16480:16496  uint256 fBalance */\n      dup1\n        /* \"contracts/HotswapController_flattened.sol\":16499:16503  _fft */\n      0x03\n      0x00\n      swap1\n      sload\n      swap1\n      0x0100\n      exp\n      swap1\n      div\n      0xffffffffffffffffffffffffffffffffffffffff\n      and\n        /* \"contracts/HotswapController_flattened.sol\":16499:16513  _fft.balanceOf */\n      0xffffffffffffffffffffffffffffffffffffffff\n      and\n      0x70a08231\n        /* \"contracts/HotswapController_flattened.sol\":16514:16524  _liquidity */\n      0x06\n      0x00\n      swap1\n      sload\n      swap1\n      0x0100\n      exp\n      swap1\n      div\n      0xffffffffffffffffffffffffffffffffffffffff\n      and\n        /* \"contracts/HotswapController_flattened.sol\":16499:16525  _fft.balanceOf(_liquidity) */\n      mload(0x40)\n      dup3\n      0xffffffff\n      and\n      0xe0\n      shl\n      dup2\n      mstore\n      0x04\n      add\n      tag_317\n      swap2\n      swap1\n      tag_37\n      jump\t// in\n    tag_317:\n      0x20\n      mload(0x40)\n      dup1\n      dup4\n      sub\n      dup2\n      dup7\n      gas\n      staticcall\n      iszero\n      dup1\n      iszero\n      tag_319\n      jumpi\n      returndatasize\n      0x00\n      dup1\n      returndatacopy\n      revert(0x00, returndatasize)\n    tag_319:\n      pop\n      pop\n      pop\n      pop\n      mload(0x40)\n      returndatasize\n      not(0x1f)\n      0x1f\n      dup3\n      add\n      and\n      dup3\n      add\n      dup1\n      0x40\n      mstore\n      pop\n      dup2\n      add\n      swap1\n      tag_320\n      swap2\n      swap1\n      tag_276\n      jump\t// in\n    tag_320:\n        /* \"contracts/HotswapController_flattened.sol\":16480:16525  uint256 fBalance = _fft.balanceOf(_liquidity) */\n      swap1\n      pop\n        /* \"contracts/HotswapController_flattened.sol\":16536:16552  uint256 nBalance */\n      0x00\n        /* \"contracts/HotswapController_flattened.sol\":16555:16559  _nft */\n      0x04\n      0x00\n      swap1\n      sload\n      swap1\n      0x0100\n      exp\n      swap1\n      div\n      0xffffffffffffffffffffffffffffffffffffffff\n      and\n        /* \"contracts/HotswapController_flattened.sol\":16555:16569  _nft.balanceOf */\n      0xffffffffffffffffffffffffffffffffffffffff\n      and\n      0x70a08231\n        /* \"contracts/HotswapController_flattened.sol\":16570:16580  _liquidity */\n      0x06\n      0x00\n      swap1\n      sload\n      swap1\n      0x0100\n      exp\n      swap1\n      div\n      0xffffffffffffffffffffffffffffffffffffffff\n      and\n        /* \"contracts/HotswapController_flattened.sol\":16555:16581  _nft.balanceOf(_liquidity) */\n      mload(0x40)\n      dup3\n      0xffffffff\n      and\n      0xe0\n      shl\n      dup2\n      mstore\n      0x04\n      add\n      tag_321\n      swap2\n      swap1\n      tag_37\n      jump\t// in\n    tag_321:\n      0x20\n      mload(0x40)\n      dup1\n      dup4\n      sub\n      dup2\n      dup7\n      gas\n      staticcall\n      iszero\n      dup1\n      iszero\n      tag_323\n      jumpi\n      returndatasize\n      0x00\n      dup1\n      returndatacopy\n      revert(0x00, returndatasize)\n    tag_323:\n      pop\n      pop\n      pop\n      pop\n      mload(0x40)\n      returndatasize\n      not(0x1f)\n      0x1f\n      dup3\n      add\n      and\n      dup3\n      add\n      dup1\n      0x40\n      mstore\n      pop\n      dup2\n      add\n      swap1\n      tag_324\n      swap2\n      swap1\n      tag_276\n      jump\t// in\n    tag_324:\n        /* \"contracts/HotswapController_flattened.sol\":16536:16581  uint256 nBalance = _nft.balanceOf(_liquidity) */\n      swap1\n      pop\n        /* \"contracts/HotswapController_flattened.sol\":16661:16662  0 */\n      0x00\n        /* \"contracts/HotswapController_flattened.sol\":16649:16657  nBalance */\n      dup2\n        /* \"contracts/HotswapController_flattened.sol\":16649:16662  nBalance != 0 */\n      eq\n        /* \"contracts/HotswapController_flattened.sol\":16645:16719  if (nBalance != 0) {... */\n      tag_325\n      jumpi\n        /* \"contracts/HotswapController_flattened.sol\":16699:16707  nBalance */\n      dup1\n        /* \"contracts/HotswapController_flattened.sol\":16688:16696  fBalance */\n      dup3\n        /* \"contracts/HotswapController_flattened.sol\":16688:16707  fBalance / nBalance */\n      tag_326\n      swap2\n      swap1\n      tag_139\n      jump\t// in\n    tag_326:\n        /* \"contracts/HotswapController_flattened.sol\":16679:16685  _price */\n      0x07\n        /* \"contracts/HotswapController_flattened.sol\":16679:16707  _price = fBalance / nBalance */\n      dup2\n      swap1\n      sstore\n      pop\n        /* \"contracts/HotswapController_flattened.sol\":16645:16719  if (nBalance != 0) {... */\n    tag_325:\n        /* \"contracts/HotswapController_flattened.sol\":16738:16744  _price */\n      sload(0x07)\n        /* \"contracts/HotswapController_flattened.sol\":16731:16744  return _price */\n      swap3\n      pop\n      pop\n      pop\n        /* \"contracts/HotswapController_flattened.sol\":16417:16752  function _computePrice() internal returns (uint256) {... */\n      swap1\n      jump\t// out\n        /* \"contracts/HotswapController_flattened.sol\":22617:23075  function _deductFee(uint256 amount) private returns (uint256) {... */\n    tag_169:\n        /* \"contracts/HotswapController_flattened.sol\":22670:22677  uint256 */\n      0x00\n        /* \"contracts/HotswapController_flattened.sol\":22690:22701  uint256 fee */\n      dup1\n        /* \"contracts/HotswapController_flattened.sol\":22743:22749  10_000 */\n      0x2710\n        /* \"contracts/HotswapController_flattened.sol\":17804:17805  5 */\n      0x05\n        /* \"contracts/HotswapController_flattened.sol\":22705:22711  amount */\n      dup5\n        /* \"contracts/HotswapController_flattened.sol\":22705:22739  amount * FEE_RATIO_BY_TEN_THOUSAND */\n      tag_328\n      swap2\n      swap1\n      tag_214\n      jump\t// in\n    tag_328:\n        /* \"contracts/HotswapController_flattened.sol\":22704:22749  (amount * FEE_RATIO_BY_TEN_THOUSAND) / 10_000 */\n      tag_329\n      swap2\n      swap1\n      tag_139\n      jump\t// in\n    tag_329:\n        /* \"contracts/HotswapController_flattened.sol\":22690:22749  uint256 fee = (amount * FEE_RATIO_BY_TEN_THOUSAND) / 10_000 */\n      swap1\n      pop\n        /* \"contracts/HotswapController_flattened.sol\":22762:22782  uint256 collectorFee */\n      0x00\n        /* \"contracts/HotswapController_flattened.sol\":22791:22792  5 */\n      0x05\n        /* \"contracts/HotswapController_flattened.sol\":22785:22788  fee */\n      dup3\n        /* \"contracts/HotswapController_flattened.sol\":22785:22792  fee / 5 */\n      tag_330\n      swap2\n      swap1\n      tag_139\n      jump\t// in\n    tag_330:\n        /* \"contracts/HotswapController_flattened.sol\":22762:22792  uint256 collectorFee = fee / 5 */\n      swap1\n      pop\n        /* \"contracts/HotswapController_flattened.sol\":22803:22817  uint256 remFee */\n      0x00\n        /* \"contracts/HotswapController_flattened.sol\":22826:22838  collectorFee */\n      dup2\n        /* \"contracts/HotswapController_flattened.sol\":22820:22823  fee */\n      dup4\n        /* \"contracts/HotswapController_flattened.sol\":22820:22838  fee - collectorFee */\n      tag_331\n      swap2\n      swap1\n      tag_175\n      jump\t// in\n    tag_331:\n        /* \"contracts/HotswapController_flattened.sol\":22803:22838  uint256 remFee = fee - collectorFee */\n      swap1\n      pop\n        /* \"contracts/HotswapController_flattened.sol\":22851:22863  bool success */\n      0x00\n        /* \"contracts/HotswapController_flattened.sol\":22866:22870  _fft */\n      0x03\n      0x00\n      swap1\n      sload\n      swap1\n      0x0100\n      exp\n      swap1\n      div\n      0xffffffffffffffffffffffffffffffffffffffff\n      and\n        /* \"contracts/HotswapController_flattened.sol\":22866:22879  _fft.transfer */\n      0xffffffffffffffffffffffffffffffffffffffff\n      and\n      0xa9059cbb\n        /* \"contracts/HotswapController_flattened.sol\":22880:22890  _collector */\n      0x05\n      0x00\n      swap1\n      sload\n      swap1\n      0x0100\n      exp\n      swap1\n      div\n      0xffffffffffffffffffffffffffffffffffffffff\n      and\n        /* \"contracts/HotswapController_flattened.sol\":22892:22904  collectorFee */\n      dup6\n        /* \"contracts/HotswapController_flattened.sol\":22866:22905  _fft.transfer(_collector, collectorFee) */\n      mload(0x40)\n      dup4\n      0xffffffff\n      and\n      0xe0\n      shl\n      dup2\n      mstore\n      0x04\n      add\n      tag_332\n      swap3\n      swap2\n      swap1\n      tag_272\n      jump\t// in\n    tag_332:\n      0x20\n      mload(0x40)\n      dup1\n      dup4\n      sub\n      dup2\n      0x00\n      dup8\n      gas\n      call\n      iszero\n      dup1\n      iszero\n      tag_334\n      jumpi\n      returndatasize\n      0x00\n      dup1\n      returndatacopy\n      revert(0x00, returndatasize)\n    tag_334:\n      pop\n      pop\n      pop\n      pop\n      mload(0x40)\n      returndatasize\n      not(0x1f)\n      0x1f\n      dup3\n      add\n      and\n      dup3\n      add\n      dup1\n      0x40\n      mstore\n      pop\n      dup2\n      add\n      swap1\n      tag_335\n      swap2\n      swap1\n      tag_243\n      jump\t// in\n    tag_335:\n        /* \"contracts/HotswapController_flattened.sol\":22851:22905  bool success = _fft.transfer(_collector, collectorFee) */\n      swap1\n      pop\n        /* \"contracts/HotswapController_flattened.sol\":22924:22931  success */\n      dup1\n        /* \"contracts/HotswapController_flattened.sol\":22916:22932  require(success) */\n      tag_336\n      jumpi\n      0x00\n      dup1\n      revert\n    tag_336:\n        /* \"contracts/HotswapController_flattened.sol\":22953:22957  _fft */\n      0x03\n      0x00\n      swap1\n      sload\n      swap1\n      0x0100\n      exp\n      swap1\n      div\n      0xffffffffffffffffffffffffffffffffffffffff\n      and\n        /* \"contracts/HotswapController_flattened.sol\":22953:22966  _fft.transfer */\n      0xffffffffffffffffffffffffffffffffffffffff\n      and\n      0xa9059cbb\n        /* \"contracts/HotswapController_flattened.sol\":22975:22979  this */\n      address\n        /* \"contracts/HotswapController_flattened.sol\":22982:22988  remFee */\n      dup5\n        /* \"contracts/HotswapController_flattened.sol\":22953:22989  _fft.transfer(address(this), remFee) */\n      mload(0x40)\n      dup4\n      0xffffffff\n      and\n      0xe0\n      shl\n      dup2\n      mstore\n      0x04\n      add\n      tag_337\n      swap3\n      swap2\n      swap1\n      tag_272\n      jump\t// in\n    tag_337:\n      0x20\n      mload(0x40)\n      dup1\n      dup4\n      sub\n      dup2\n      0x00\n      dup8\n      gas\n      call\n      iszero\n      dup1\n      iszero\n      tag_339\n      jumpi\n      returndatasize\n      0x00\n      dup1\n      returndatacopy\n      revert(0x00, returndatasize)\n    tag_339:\n      pop\n      pop\n      pop\n      pop\n      mload(0x40)\n      returndatasize\n      not(0x1f)\n      0x1f\n      dup3\n      add\n      and\n      dup3\n      add\n      dup1\n      0x40\n      mstore\n      pop\n      dup2\n      add\n      swap1\n      tag_340\n      swap2\n      swap1\n      tag_243\n      jump\t// in\n    tag_340:\n        /* \"contracts/HotswapController_flattened.sol\":22943:22989  success = _fft.transfer(address(this), remFee) */\n      swap1\n      pop\n        /* \"contracts/HotswapController_flattened.sol\":23008:23015  success */\n      dup1\n        /* \"contracts/HotswapController_flattened.sol\":23000:23016  require(success) */\n      tag_341\n      jumpi\n      0x00\n      dup1\n      revert\n    tag_341:\n        /* \"contracts/HotswapController_flattened.sol\":23038:23044  remFee */\n      dup2\n        /* \"contracts/HotswapController_flattened.sol\":23029:23034  _fees */\n      0x0a\n      0x00\n        /* \"contracts/HotswapController_flattened.sol\":23029:23044  _fees += remFee */\n      dup3\n      dup3\n      sload\n      tag_342\n      swap2\n      swap1\n      tag_137\n      jump\t// in\n    tag_342:\n      swap3\n      pop\n      pop\n      dup2\n      swap1\n      sstore\n      pop\n        /* \"contracts/HotswapController_flattened.sol\":23064:23067  fee */\n      dup4\n        /* \"contracts/HotswapController_flattened.sol\":23057:23067  return fee */\n      swap5\n      pop\n      pop\n      pop\n      pop\n      pop\n        /* \"contracts/HotswapController_flattened.sol\":22617:23075  function _deductFee(uint256 amount) private returns (uint256) {... */\n      swap2\n      swap1\n      pop\n      jump\t// out\n        /* \"contracts/HotswapController_flattened.sol\":25838:26347  function _findSuitableLiquid(... */\n    tag_182:\n        /* \"contracts/HotswapController_flattened.sol\":25917:25929  bool success */\n      0x00\n        /* \"contracts/HotswapController_flattened.sol\":25931:25944  uint256 index */\n      dup1\n        /* \"contracts/HotswapController_flattened.sol\":25957:25977  Liquid memory liquid */\n      tag_344\n      tag_345\n      jump\t// in\n    tag_344:\n        /* \"contracts/HotswapController_flattened.sol\":25990:25999  uint256 j */\n      0x00\n        /* \"contracts/HotswapController_flattened.sol\":26021:26033  _liquidities */\n      0x09\n        /* \"contracts/HotswapController_flattened.sol\":26021:26040  _liquidities.length */\n      dup1\n      sload\n      swap1\n      pop\n        /* \"contracts/HotswapController_flattened.sol\":26017:26040  j = _liquidities.length */\n      swap1\n      pop\n        /* \"contracts/HotswapController_flattened.sol\":26012:26340  for (j = _liquidities.length; j > 0 && !success; j--) {... */\n    tag_346:\n        /* \"contracts/HotswapController_flattened.sol\":26046:26047  0 */\n      0x00\n        /* \"contracts/HotswapController_flattened.sol\":26042:26043  j */\n      dup2\n        /* \"contracts/HotswapController_flattened.sol\":26042:26047  j > 0 */\n      gt\n        /* \"contracts/HotswapController_flattened.sol\":26042:26059  j > 0 && !success */\n      dup1\n      iszero\n      tag_349\n      jumpi\n      pop\n        /* \"contracts/HotswapController_flattened.sol\":26052:26059  success */\n      dup4\n        /* \"contracts/HotswapController_flattened.sol\":26051:26059  !success */\n      iszero\n        /* \"contracts/HotswapController_flattened.sol\":26042:26059  j > 0 && !success */\n    tag_349:\n        /* \"contracts/HotswapController_flattened.sol\":26012:26340  for (j = _liquidities.length; j > 0 && !success; j--) {... */\n      iszero\n      tag_347\n      jumpi\n        /* \"contracts/HotswapController_flattened.sol\":26093:26094  1 */\n      0x01\n        /* \"contracts/HotswapController_flattened.sol\":26089:26090  j */\n      dup2\n        /* \"contracts/HotswapController_flattened.sol\":26089:26094  j - 1 */\n      tag_350\n      swap2\n      swap1\n      tag_175\n      jump\t// in\n    tag_350:\n        /* \"contracts/HotswapController_flattened.sol\":26081:26094  index = j - 1 */\n      swap3\n      pop\n        /* \"contracts/HotswapController_flattened.sol\":26120:26132  _liquidities */\n      0x09\n        /* \"contracts/HotswapController_flattened.sol\":26133:26138  index */\n      dup4\n        /* \"contracts/HotswapController_flattened.sol\":26120:26139  _liquidities[index] */\n      dup2\n      sload\n      dup2\n      lt\n      tag_351\n      jumpi\n      tag_352\n      tag_132\n      jump\t// in\n    tag_352:\n    tag_351:\n      swap1\n      0x00\n      mstore\n      keccak256(0x00, 0x20)\n      swap1\n      0x07\n      mul\n      add\n        /* \"contracts/HotswapController_flattened.sol\":26111:26139  liquid = _liquidities[index] */\n      mload(0x40)\n      dup1\n      0xe0\n      add\n      0x40\n      mstore\n      swap1\n      dup2\n      0x00\n      dup3\n      add\n      0x00\n      swap1\n      sload\n      swap1\n      0x0100\n      exp\n      swap1\n      div\n      0xffffffffffffffffffffffffffffffffffffffff\n      and\n      0xffffffffffffffffffffffffffffffffffffffff\n      and\n      0xffffffffffffffffffffffffffffffffffffffff\n      and\n      dup2\n      mstore\n      0x20\n      add\n      0x01\n      dup3\n      add\n      sload\n      dup2\n      mstore\n      0x20\n      add\n      0x02\n      dup3\n      add\n      sload\n      dup2\n      mstore\n      0x20\n      add\n      0x03\n      dup3\n      add\n      sload\n      dup2\n      mstore\n      0x20\n      add\n      0x04\n      dup3\n      add\n      sload\n      dup2\n      mstore\n      0x20\n      add\n      0x05\n      dup3\n      add\n      0x00\n      swap1\n      sload\n      swap1\n      0x0100\n      exp\n      swap1\n      div\n      0xff\n      and\n      iszero\n      iszero\n      iszero\n      iszero\n      dup2\n      mstore\n      0x20\n      add\n      0x06\n      dup3\n      add\n      sload\n      dup2\n      mstore\n      pop\n      pop\n      swap2\n      pop\n        /* \"contracts/HotswapController_flattened.sol\":26161:26166  isNFT */\n      dup5\n        /* \"contracts/HotswapController_flattened.sol\":26160:26166  !isNFT */\n      iszero\n        /* \"contracts/HotswapController_flattened.sol\":26160:26189  !isNFT && liquid.fftAlloc > 0 */\n      dup1\n      iszero\n      tag_354\n      jumpi\n      pop\n        /* \"contracts/HotswapController_flattened.sol\":26188:26189  0 */\n      0x00\n        /* \"contracts/HotswapController_flattened.sol\":26170:26176  liquid */\n      dup3\n        /* \"contracts/HotswapController_flattened.sol\":26170:26185  liquid.fftAlloc */\n      0x80\n      add\n      mload\n        /* \"contracts/HotswapController_flattened.sol\":26170:26189  liquid.fftAlloc > 0 */\n      gt\n        /* \"contracts/HotswapController_flattened.sol\":26160:26189  !isNFT && liquid.fftAlloc > 0 */\n    tag_354:\n        /* \"contracts/HotswapController_flattened.sol\":26156:26329  if (!isNFT && liquid.fftAlloc > 0) {... */\n      iszero\n      tag_355\n      jumpi\n        /* \"contracts/HotswapController_flattened.sol\":26220:26224  true */\n      0x01\n        /* \"contracts/HotswapController_flattened.sol\":26210:26224  success = true */\n      swap4\n      pop\n        /* \"contracts/HotswapController_flattened.sol\":26156:26329  if (!isNFT && liquid.fftAlloc > 0) {... */\n      jump(tag_356)\n    tag_355:\n        /* \"contracts/HotswapController_flattened.sol\":26250:26255  isNFT */\n      dup5\n        /* \"contracts/HotswapController_flattened.sol\":26250:26278  isNFT && liquid.nftAlloc > 0 */\n      dup1\n      iszero\n      tag_357\n      jumpi\n      pop\n        /* \"contracts/HotswapController_flattened.sol\":26277:26278  0 */\n      0x00\n        /* \"contracts/HotswapController_flattened.sol\":26259:26265  liquid */\n      dup3\n        /* \"contracts/HotswapController_flattened.sol\":26259:26274  liquid.nftAlloc */\n      0x60\n      add\n      mload\n        /* \"contracts/HotswapController_flattened.sol\":26259:26278  liquid.nftAlloc > 0 */\n      gt\n        /* \"contracts/HotswapController_flattened.sol\":26250:26278  isNFT && liquid.nftAlloc > 0 */\n    tag_357:\n        /* \"contracts/HotswapController_flattened.sol\":26246:26329  if (isNFT && liquid.nftAlloc > 0) {... */\n      iszero\n      tag_358\n      jumpi\n        /* \"contracts/HotswapController_flattened.sol\":26309:26313  true */\n      0x01\n        /* \"contracts/HotswapController_flattened.sol\":26299:26313  success = true */\n      swap4\n      pop\n        /* \"contracts/HotswapController_flattened.sol\":26246:26329  if (isNFT && liquid.nftAlloc > 0) {... */\n    tag_358:\n        /* \"contracts/HotswapController_flattened.sol\":26156:26329  if (!isNFT && liquid.fftAlloc > 0) {... */\n    tag_356:\n        /* \"contracts/HotswapController_flattened.sol\":26061:26064  j-- */\n      dup1\n      dup1\n      tag_359\n      swap1\n      tag_189\n      jump\t// in\n    tag_359:\n      swap2\n      pop\n      pop\n        /* \"contracts/HotswapController_flattened.sol\":26012:26340  for (j = _liquidities.length; j > 0 && !success; j--) {... */\n      jump(tag_346)\n    tag_347:\n        /* \"contracts/HotswapController_flattened.sol\":25946:26347  {... */\n      pop\n      pop\n        /* \"contracts/HotswapController_flattened.sol\":25838:26347  function _findSuitableLiquid(... */\n      swap2\n      pop\n      swap2\n      jump\t// out\n        /* \"contracts/HotswapController_flattened.sol\":25325:25830  function _swapFFTLiquid(... */\n    tag_187:\n        /* \"contracts/HotswapController_flattened.sol\":25492:25499  uint256 */\n      0x00\n        /* \"contracts/HotswapController_flattened.sol\":25512:25525  uint256 alloc */\n      dup1\n        /* \"contracts/HotswapController_flattened.sol\":25528:25534  source */\n      dup6\n        /* \"contracts/HotswapController_flattened.sol\":25528:25543  source.fftAlloc */\n      0x04\n      add\n      sload\n        /* \"contracts/HotswapController_flattened.sol\":25512:25543  uint256 alloc = source.fftAlloc */\n      swap1\n      pop\n        /* \"contracts/HotswapController_flattened.sol\":25556:25574  uint256 swapAmount */\n      0x00\n        /* \"contracts/HotswapController_flattened.sol\":25586:25598  targetAmount */\n      dup5\n        /* \"contracts/HotswapController_flattened.sol\":25577:25582  alloc */\n      dup3\n        /* \"contracts/HotswapController_flattened.sol\":25577:25598  alloc <= targetAmount */\n      gt\n      iszero\n        /* \"contracts/HotswapController_flattened.sol\":25577:25621  alloc <= targetAmount ? alloc : targetAmount */\n      tag_361\n      jumpi\n        /* \"contracts/HotswapController_flattened.sol\":25609:25621  targetAmount */\n      dup5\n        /* \"contracts/HotswapController_flattened.sol\":25577:25621  alloc <= targetAmount ? alloc : targetAmount */\n      jump(tag_362)\n    tag_361:\n        /* \"contracts/HotswapController_flattened.sol\":25601:25606  alloc */\n      dup2\n        /* \"contracts/HotswapController_flattened.sol\":25577:25621  alloc <= targetAmount ? alloc : targetAmount */\n    tag_362:\n        /* \"contracts/HotswapController_flattened.sol\":25556:25621  uint256 swapAmount = alloc <= targetAmount ? alloc : targetAmount */\n      swap1\n      pop\n        /* \"contracts/HotswapController_flattened.sol\":25653:25663  swapAmount */\n      dup1\n        /* \"contracts/HotswapController_flattened.sol\":25634:25640  source */\n      dup8\n        /* \"contracts/HotswapController_flattened.sol\":25634:25649  source.fftAlloc */\n      0x04\n      add\n      0x00\n        /* \"contracts/HotswapController_flattened.sol\":25634:25663  source.fftAlloc -= swapAmount */\n      dup3\n      dup3\n      sload\n      tag_363\n      swap2\n      swap1\n      tag_175\n      jump\t// in\n    tag_363:\n      swap3\n      pop\n      pop\n      dup2\n      swap1\n      sstore\n      pop\n        /* \"contracts/HotswapController_flattened.sol\":25690:25700  swapAmount */\n      dup1\n        /* \"contracts/HotswapController_flattened.sol\":25674:25700  targetAmount -= swapAmount */\n      dup6\n      tag_364\n      swap2\n      swap1\n      tag_175\n      jump\t// in\n    tag_364:\n      swap5\n      pop\n        /* \"contracts/HotswapController_flattened.sol\":25745:25750  price */\n      dup4\n        /* \"contracts/HotswapController_flattened.sol\":25732:25742  swapAmount */\n      dup2\n        /* \"contracts/HotswapController_flattened.sol\":25732:25750  swapAmount / price */\n      tag_365\n      swap2\n      swap1\n      tag_139\n      jump\t// in\n    tag_365:\n        /* \"contracts/HotswapController_flattened.sol\":25713:25719  source */\n      dup8\n        /* \"contracts/HotswapController_flattened.sol\":25713:25728  source.nftAlloc */\n      0x03\n      add\n      0x00\n        /* \"contracts/HotswapController_flattened.sol\":25713:25750  source.nftAlloc += swapAmount / price */\n      dup3\n      dup3\n      sload\n      tag_366\n      swap2\n      swap1\n      tag_137\n      jump\t// in\n    tag_366:\n      swap3\n      pop\n      pop\n      dup2\n      swap1\n      sstore\n      pop\n        /* \"contracts/HotswapController_flattened.sol\":25780:25790  swapAmount */\n      dup1\n        /* \"contracts/HotswapController_flattened.sol\":25761:25767  target */\n      dup7\n        /* \"contracts/HotswapController_flattened.sol\":25761:25776  target.fftAlloc */\n      0x04\n      add\n      0x00\n        /* \"contracts/HotswapController_flattened.sol\":25761:25790  target.fftAlloc += swapAmount */\n      dup3\n      dup3\n      sload\n      tag_367\n      swap2\n      swap1\n      tag_137\n      jump\t// in\n    tag_367:\n      swap3\n      pop\n      pop\n      dup2\n      swap1\n      sstore\n      pop\n        /* \"contracts/HotswapController_flattened.sol\":25810:25822  targetAmount */\n      dup5\n        /* \"contracts/HotswapController_flattened.sol\":25803:25822  return targetAmount */\n      swap3\n      pop\n      pop\n      pop\n        /* \"contracts/HotswapController_flattened.sol\":25325:25830  function _swapFFTLiquid(... */\n      swap5\n      swap4\n      pop\n      pop\n      pop\n      pop\n      jump\t// out\n        /* \"contracts/HotswapController_flattened.sol\":24741:25317  function _swapNFTLiquid(... */\n    tag_233:\n        /* \"contracts/HotswapController_flattened.sol\":24908:24915  uint256 */\n      0x00\n        /* \"contracts/HotswapController_flattened.sol\":24928:24946  uint256 swapAmount */\n      dup1\n        /* \"contracts/HotswapController_flattened.sol\":24982:24994  targetAmount */\n      dup4\n        /* \"contracts/HotswapController_flattened.sol\":24963:24969  source */\n      dup7\n        /* \"contracts/HotswapController_flattened.sol\":24963:24978  source.nftAlloc */\n      0x03\n      add\n      sload\n        /* \"contracts/HotswapController_flattened.sol\":24963:24994  source.nftAlloc <= targetAmount */\n      gt\n        /* \"contracts/HotswapController_flattened.sol\":24959:25109  if (source.nftAlloc <= targetAmount) {... */\n      tag_369\n      jumpi\n        /* \"contracts/HotswapController_flattened.sol\":25024:25030  source */\n      dup6\n        /* \"contracts/HotswapController_flattened.sol\":25024:25039  source.nftAlloc */\n      0x03\n      add\n      sload\n        /* \"contracts/HotswapController_flattened.sol\":25011:25039  swapAmount = source.nftAlloc */\n      swap1\n      pop\n        /* \"contracts/HotswapController_flattened.sol\":24959:25109  if (source.nftAlloc <= targetAmount) {... */\n      jump(tag_370)\n    tag_369:\n        /* \"contracts/HotswapController_flattened.sol\":25085:25097  targetAmount */\n      dup4\n        /* \"contracts/HotswapController_flattened.sol\":25072:25097  swapAmount = targetAmount */\n      swap1\n      pop\n        /* \"contracts/HotswapController_flattened.sol\":24959:25109  if (source.nftAlloc <= targetAmount) {... */\n    tag_370:\n        /* \"contracts/HotswapController_flattened.sol\":25140:25150  swapAmount */\n      dup1\n        /* \"contracts/HotswapController_flattened.sol\":25121:25127  source */\n      dup7\n        /* \"contracts/HotswapController_flattened.sol\":25121:25136  source.nftAlloc */\n      0x03\n      add\n      0x00\n        /* \"contracts/HotswapController_flattened.sol\":25121:25150  source.nftAlloc -= swapAmount */\n      dup3\n      dup3\n      sload\n      tag_371\n      swap2\n      swap1\n      tag_175\n      jump\t// in\n    tag_371:\n      swap3\n      pop\n      pop\n      dup2\n      swap1\n      sstore\n      pop\n        /* \"contracts/HotswapController_flattened.sol\":25177:25187  swapAmount */\n      dup1\n        /* \"contracts/HotswapController_flattened.sol\":25161:25187  targetAmount -= swapAmount */\n      dup5\n      tag_372\n      swap2\n      swap1\n      tag_175\n      jump\t// in\n    tag_372:\n      swap4\n      pop\n        /* \"contracts/HotswapController_flattened.sol\":25232:25237  price */\n      dup3\n        /* \"contracts/HotswapController_flattened.sol\":25219:25229  swapAmount */\n      dup2\n        /* \"contracts/HotswapController_flattened.sol\":25219:25237  swapAmount * price */\n      tag_373\n      swap2\n      swap1\n      tag_214\n      jump\t// in\n    tag_373:\n        /* \"contracts/HotswapController_flattened.sol\":25200:25206  source */\n      dup7\n        /* \"contracts/HotswapController_flattened.sol\":25200:25215  source.fftAlloc */\n      0x04\n      add\n      0x00\n        /* \"contracts/HotswapController_flattened.sol\":25200:25237  source.fftAlloc += swapAmount * price */\n      dup3\n      dup3\n      sload\n      tag_374\n      swap2\n      swap1\n      tag_137\n      jump\t// in\n    tag_374:\n      swap3\n      pop\n      pop\n      dup2\n      swap1\n      sstore\n      pop\n        /* \"contracts/HotswapController_flattened.sol\":25267:25277  swapAmount */\n      dup1\n        /* \"contracts/HotswapController_flattened.sol\":25248:25254  target */\n      dup6\n        /* \"contracts/HotswapController_flattened.sol\":25248:25263  target.nftAlloc */\n      0x03\n      add\n      0x00\n        /* \"contracts/HotswapController_flattened.sol\":25248:25277  target.nftAlloc += swapAmount */\n      dup3\n      dup3\n      sload\n      tag_375\n      swap2\n      swap1\n      tag_137\n      jump\t// in\n    tag_375:\n      swap3\n      pop\n      pop\n      dup2\n      swap1\n      sstore\n      pop\n        /* \"contracts/HotswapController_flattened.sol\":25297:25309  targetAmount */\n      dup4\n        /* \"contracts/HotswapController_flattened.sol\":25290:25309  return targetAmount */\n      swap2\n      pop\n      pop\n        /* \"contracts/HotswapController_flattened.sol\":24741:25317  function _swapNFTLiquid(... */\n      swap5\n      swap4\n      pop\n      pop\n      pop\n      pop\n      jump\t// out\n        /* \"contracts/HotswapController_flattened.sol\":18704:19482  function _createLiquid(uint256 amount, bool kind) private {... */\n    tag_248:\n        /* \"contracts/HotswapController_flattened.sol\":18773:18801  uint256[] storage userLiquid */\n      0x00\n        /* \"contracts/HotswapController_flattened.sol\":18804:18820  _liquidityByUser */\n      0x08\n        /* \"contracts/HotswapController_flattened.sol\":18804:18832  _liquidityByUser[msg.sender] */\n      0x00\n        /* \"contracts/HotswapController_flattened.sol\":18821:18831  msg.sender */\n      caller\n        /* \"contracts/HotswapController_flattened.sol\":18804:18832  _liquidityByUser[msg.sender] */\n      0xffffffffffffffffffffffffffffffffffffffff\n      and\n      0xffffffffffffffffffffffffffffffffffffffff\n      and\n      dup2\n      mstore\n      0x20\n      add\n      swap1\n      dup2\n      mstore\n      0x20\n      add\n      0x00\n      keccak256\n        /* \"contracts/HotswapController_flattened.sol\":18773:18832  uint256[] storage userLiquid = _liquidityByUser[msg.sender] */\n      swap1\n      pop\n        /* \"contracts/HotswapController_flattened.sol\":18843:18856  uint256 index */\n      0x00\n        /* \"contracts/HotswapController_flattened.sol\":18859:18869  userLiquid */\n      dup2\n        /* \"contracts/HotswapController_flattened.sol\":18859:18876  userLiquid.length */\n      dup1\n      sload\n      swap1\n      pop\n        /* \"contracts/HotswapController_flattened.sol\":18843:18876  uint256 index = userLiquid.length */\n      swap1\n      pop\n        /* \"contracts/HotswapController_flattened.sol\":18889:18906  uint256 nftAmount */\n      0x00\n        /* \"contracts/HotswapController_flattened.sol\":18921:18938  uint256 fftAmount */\n      dup1\n        /* \"contracts/HotswapController_flattened.sol\":18959:18963  kind */\n      dup5\n        /* \"contracts/HotswapController_flattened.sol\":18955:19061  if (kind) {... */\n      iszero\n      tag_377\n      jumpi\n        /* \"contracts/HotswapController_flattened.sol\":18992:18998  amount */\n      dup6\n        /* \"contracts/HotswapController_flattened.sol\":18980:18998  nftAmount = amount */\n      swap2\n      pop\n        /* \"contracts/HotswapController_flattened.sol\":18955:19061  if (kind) {... */\n      jump(tag_378)\n    tag_377:\n        /* \"contracts/HotswapController_flattened.sol\":19043:19049  amount */\n      dup6\n        /* \"contracts/HotswapController_flattened.sol\":19031:19049  fftAmount = amount */\n      swap1\n      pop\n        /* \"contracts/HotswapController_flattened.sol\":18955:19061  if (kind) {... */\n    tag_378:\n        /* \"contracts/HotswapController_flattened.sol\":19073:19089  Liquid memory lq */\n      0x00\n        /* \"contracts/HotswapController_flattened.sol\":19092:19285  Liquid(... */\n      mload(0x40)\n      dup1\n      0xe0\n      add\n      0x40\n      mstore\n      dup1\n        /* \"contracts/HotswapController_flattened.sol\":19113:19123  msg.sender */\n      caller\n        /* \"contracts/HotswapController_flattened.sol\":19092:19285  Liquid(... */\n      0xffffffffffffffffffffffffffffffffffffffff\n      and\n      dup2\n      mstore\n      0x20\n      add\n        /* \"contracts/HotswapController_flattened.sol\":19138:19153  block.timestamp */\n      timestamp\n        /* \"contracts/HotswapController_flattened.sol\":19092:19285  Liquid(... */\n      dup2\n      mstore\n      0x20\n      add\n        /* \"contracts/HotswapController_flattened.sol\":19168:19174  _price */\n      sload(0x07)\n        /* \"contracts/HotswapController_flattened.sol\":19092:19285  Liquid(... */\n      dup2\n      mstore\n      0x20\n      add\n        /* \"contracts/HotswapController_flattened.sol\":19189:19198  nftAmount */\n      dup5\n        /* \"contracts/HotswapController_flattened.sol\":19092:19285  Liquid(... */\n      dup2\n      mstore\n      0x20\n      add\n        /* \"contracts/HotswapController_flattened.sol\":19213:19222  fftAmount */\n      dup4\n        /* \"contracts/HotswapController_flattened.sol\":19092:19285  Liquid(... */\n      dup2\n      mstore\n      0x20\n      add\n        /* \"contracts/HotswapController_flattened.sol\":19237:19242  false */\n      0x00\n        /* \"contracts/HotswapController_flattened.sol\":19092:19285  Liquid(... */\n      iszero\n      iszero\n      dup2\n      mstore\n      0x20\n      add\n        /* \"contracts/HotswapController_flattened.sol\":19257:19267  userLiquid */\n      dup7\n        /* \"contracts/HotswapController_flattened.sol\":19257:19274  userLiquid.length */\n      dup1\n      sload\n      swap1\n      pop\n        /* \"contracts/HotswapController_flattened.sol\":19092:19285  Liquid(... */\n      dup2\n      mstore\n      pop\n        /* \"contracts/HotswapController_flattened.sol\":19073:19285  Liquid memory lq = Liquid(... */\n      swap1\n      pop\n        /* \"contracts/HotswapController_flattened.sol\":19302:19306  kind */\n      dup6\n        /* \"contracts/HotswapController_flattened.sol\":19298:19408  if (kind) {... */\n      iszero\n      tag_379\n      jumpi\n        /* \"contracts/HotswapController_flattened.sol\":19323:19341  _nftLiquidityCount */\n      0x0d\n      0x00\n        /* \"contracts/HotswapController_flattened.sol\":19323:19343  _nftLiquidityCount++ */\n      dup2\n      sload\n      dup1\n      swap3\n      swap2\n      swap1\n      tag_380\n      swap1\n      tag_381\n      jump\t// in\n    tag_380:\n      swap2\n      swap1\n      pop\n      sstore\n      pop\n        /* \"contracts/HotswapController_flattened.sol\":19298:19408  if (kind) {... */\n      jump(tag_382)\n    tag_379:\n        /* \"contracts/HotswapController_flattened.sol\":19376:19394  _fftLiquidityCount */\n      0x0e\n      0x00\n        /* \"contracts/HotswapController_flattened.sol\":19376:19396  _fftLiquidityCount++ */\n      dup2\n      sload\n      dup1\n      swap3\n      swap2\n      swap1\n      tag_383\n      swap1\n      tag_381\n      jump\t// in\n    tag_383:\n      swap2\n      swap1\n      pop\n      sstore\n      pop\n        /* \"contracts/HotswapController_flattened.sol\":19298:19408  if (kind) {... */\n    tag_382:\n        /* \"contracts/HotswapController_flattened.sol\":19420:19432  _liquidities */\n      0x09\n        /* \"contracts/HotswapController_flattened.sol\":19438:19440  lq */\n      dup2\n        /* \"contracts/HotswapController_flattened.sol\":19420:19441  _liquidities.push(lq) */\n      swap1\n      dup1\n      0x01\n      dup2\n      sload\n      add\n      dup1\n      dup3\n      sstore\n      dup1\n      swap2\n      pop\n      pop\n      0x01\n      swap1\n      sub\n      swap1\n      0x00\n      mstore\n      keccak256(0x00, 0x20)\n      swap1\n      0x07\n      mul\n      add\n      0x00\n      swap1\n      swap2\n      swap1\n      swap2\n      swap1\n      swap2\n      pop\n      0x00\n      dup3\n      add\n      mload\n      dup2\n      0x00\n      add\n      exp(0x0100, 0x00)\n      dup2\n      sload\n      dup2\n      0xffffffffffffffffffffffffffffffffffffffff\n      mul\n      not\n      and\n      swap1\n      dup4\n      0xffffffffffffffffffffffffffffffffffffffff\n      and\n      mul\n      or\n      swap1\n      sstore\n      pop\n      0x20\n      dup3\n      add\n      mload\n      dup2\n      0x01\n      add\n      sstore\n      0x40\n      dup3\n      add\n      mload\n      dup2\n      0x02\n      add\n      sstore\n      0x60\n      dup3\n      add\n      mload\n      dup2\n      0x03\n      add\n      sstore\n      0x80\n      dup3\n      add\n      mload\n      dup2\n      0x04\n      add\n      sstore\n      0xa0\n      dup3\n      add\n      mload\n      dup2\n      0x05\n      add\n      exp(0x0100, 0x00)\n      dup2\n      sload\n      dup2\n      0xff\n      mul\n      not\n      and\n      swap1\n      dup4\n      iszero\n      iszero\n      mul\n      or\n      swap1\n      sstore\n      pop\n      0xc0\n      dup3\n      add\n      mload\n      dup2\n      0x06\n      add\n      sstore\n      pop\n      pop\n        /* \"contracts/HotswapController_flattened.sol\":19452:19462  userLiquid */\n      dup5\n        /* \"contracts/HotswapController_flattened.sol\":19468:19473  index */\n      dup5\n        /* \"contracts/HotswapController_flattened.sol\":19452:19474  userLiquid.push(index) */\n      swap1\n      dup1\n      0x01\n      dup2\n      sload\n      add\n      dup1\n      dup3\n      sstore\n      dup1\n      swap2\n      pop\n      pop\n      0x01\n      swap1\n      sub\n      swap1\n      0x00\n      mstore\n      keccak256(0x00, 0x20)\n      add\n      0x00\n      swap1\n      swap2\n      swap1\n      swap2\n      swap1\n      swap2\n      pop\n      sstore\n        /* \"contracts/HotswapController_flattened.sol\":18762:19482  {... */\n      pop\n      pop\n      pop\n      pop\n      pop\n        /* \"contracts/HotswapController_flattened.sol\":18704:19482  function _createLiquid(uint256 amount, bool kind) private {... */\n      pop\n      pop\n      jump\t// out\n        /* \"contracts/HotswapController_flattened.sol\":7725:7912  function _transferOwnership(address newOwner) internal {... */\n    tag_288:\n        /* \"contracts/HotswapController_flattened.sol\":7819:7820  0 */\n      0x00\n        /* \"contracts/HotswapController_flattened.sol\":7799:7821  newOwner != address(0) */\n      0xffffffffffffffffffffffffffffffffffffffff\n      and\n        /* \"contracts/HotswapController_flattened.sol\":7799:7807  newOwner */\n      dup2\n        /* \"contracts/HotswapController_flattened.sol\":7799:7821  newOwner != address(0) */\n      0xffffffffffffffffffffffffffffffffffffffff\n      and\n      sub\n        /* \"contracts/HotswapController_flattened.sol\":7791:7822  require(newOwner != address(0)) */\n      tag_387\n      jumpi\n      0x00\n      dup1\n      revert\n    tag_387:\n        /* \"contracts/HotswapController_flattened.sol\":7867:7875  newOwner */\n      dup1\n        /* \"contracts/HotswapController_flattened.sol\":7838:7876  OwnershipTransferred(_owner, newOwner) */\n      0xffffffffffffffffffffffffffffffffffffffff\n      and\n        /* \"contracts/HotswapController_flattened.sol\":7859:7865  _owner */\n      0x00\n      dup1\n      sload\n      swap1\n      0x0100\n      exp\n      swap1\n      div\n      0xffffffffffffffffffffffffffffffffffffffff\n      and\n        /* \"contracts/HotswapController_flattened.sol\":7838:7876  OwnershipTransferred(_owner, newOwner) */\n      0xffffffffffffffffffffffffffffffffffffffff\n      and\n      0x8be0079c531659141344cd1fd0a4f28419497f9722a3daafe3b4186f6b6457e0\n      mload(0x40)\n      mload(0x40)\n      dup1\n      swap2\n      sub\n      swap1\n      log3\n        /* \"contracts/HotswapController_flattened.sol\":7896:7904  newOwner */\n      dup1\n        /* \"contracts/HotswapController_flattened.sol\":7887:7893  _owner */\n      0x00\n      dup1\n        /* \"contracts/HotswapController_flattened.sol\":7887:7904  _owner = newOwner */\n      0x0100\n      exp\n      dup2\n      sload\n      dup2\n      0xffffffffffffffffffffffffffffffffffffffff\n      mul\n      not\n      and\n      swap1\n      dup4\n      0xffffffffffffffffffffffffffffffffffffffff\n      and\n      mul\n      or\n      swap1\n      sstore\n      pop\n        /* \"contracts/HotswapController_flattened.sol\":7725:7912  function _transferOwnership(address newOwner) internal {... */\n      pop\n      jump\t// out\n        /* \"contracts/HotswapController_flattened.sol\":22294:22609  function _removeItem(... */\n    tag_299:\n        /* \"contracts/HotswapController_flattened.sol\":22396:22400  bool */\n      0x00\n        /* \"contracts/HotswapController_flattened.sol\":22413:22425  uint256 last */\n      dup1\n        /* \"contracts/HotswapController_flattened.sol\":22441:22442  1 */\n      0x01\n        /* \"contracts/HotswapController_flattened.sol\":22428:22431  arr */\n      dup5\n        /* \"contracts/HotswapController_flattened.sol\":22428:22438  arr.length */\n      dup1\n      sload\n      swap1\n      pop\n        /* \"contracts/HotswapController_flattened.sol\":22428:22442  arr.length - 1 */\n      tag_389\n      swap2\n      swap1\n      tag_175\n      jump\t// in\n    tag_389:\n        /* \"contracts/HotswapController_flattened.sol\":22413:22442  uint256 last = arr.length - 1 */\n      swap1\n      pop\n        /* \"contracts/HotswapController_flattened.sol\":22453:22464  bool isLast */\n      0x00\n        /* \"contracts/HotswapController_flattened.sol\":22476:22480  last */\n      dup2\n        /* \"contracts/HotswapController_flattened.sol\":22467:22472  index */\n      dup5\n        /* \"contracts/HotswapController_flattened.sol\":22467:22480  index == last */\n      eq\n        /* \"contracts/HotswapController_flattened.sol\":22453:22480  bool isLast = index == last */\n      swap1\n      pop\n        /* \"contracts/HotswapController_flattened.sol\":22498:22504  isLast */\n      dup1\n        /* \"contracts/HotswapController_flattened.sol\":22493:22555  if (!isLast) {... */\n      tag_390\n      jumpi\n        /* \"contracts/HotswapController_flattened.sol\":22534:22537  arr */\n      dup5\n        /* \"contracts/HotswapController_flattened.sol\":22538:22542  last */\n      dup3\n        /* \"contracts/HotswapController_flattened.sol\":22534:22543  arr[last] */\n      dup2\n      sload\n      dup2\n      lt\n      tag_391\n      jumpi\n      tag_392\n      tag_132\n      jump\t// in\n    tag_392:\n    tag_391:\n      swap1\n      0x00\n      mstore\n      keccak256(0x00, 0x20)\n      add\n      sload\n        /* \"contracts/HotswapController_flattened.sol\":22521:22524  arr */\n      dup6\n        /* \"contracts/HotswapController_flattened.sol\":22525:22530  index */\n      dup6\n        /* \"contracts/HotswapController_flattened.sol\":22521:22531  arr[index] */\n      dup2\n      sload\n      dup2\n      lt\n      tag_394\n      jumpi\n      tag_395\n      tag_132\n      jump\t// in\n    tag_395:\n    tag_394:\n      swap1\n      0x00\n      mstore\n      keccak256(0x00, 0x20)\n      add\n        /* \"contracts/HotswapController_flattened.sol\":22521:22543  arr[index] = arr[last] */\n      dup2\n      swap1\n      sstore\n      pop\n        /* \"contracts/HotswapController_flattened.sol\":22493:22555  if (!isLast) {... */\n    tag_390:\n        /* \"contracts/HotswapController_flattened.sol\":22567:22570  arr */\n      dup5\n        /* \"contracts/HotswapController_flattened.sol\":22567:22576  arr.pop() */\n      dup1\n      sload\n      dup1\n      tag_397\n      jumpi\n      tag_398\n      tag_399\n      jump\t// in\n    tag_398:\n    tag_397:\n      0x01\n      swap1\n      sub\n      dup2\n      dup2\n      swap1\n      0x00\n      mstore\n      keccak256(0x00, 0x20)\n      add\n      0x00\n      swap1\n      sstore\n      swap1\n      sstore\n        /* \"contracts/HotswapController_flattened.sol\":22595:22601  isLast */\n      dup1\n        /* \"contracts/HotswapController_flattened.sol\":22594:22601  !isLast */\n      iszero\n        /* \"contracts/HotswapController_flattened.sol\":22587:22601  return !isLast */\n      swap3\n      pop\n      pop\n      pop\n        /* \"contracts/HotswapController_flattened.sol\":22294:22609  function _removeItem(... */\n      swap3\n      swap2\n      pop\n      pop\n      jump\t// out\n        /* \"contracts/HotswapController_flattened.sol\":21972:22286  function _removeItem(... */\n    tag_308:\n        /* \"contracts/HotswapController_flattened.sol\":22073:22077  bool */\n      0x00\n        /* \"contracts/HotswapController_flattened.sol\":22090:22102  uint256 last */\n      dup1\n        /* \"contracts/HotswapController_flattened.sol\":22118:22119  1 */\n      0x01\n        /* \"contracts/HotswapController_flattened.sol\":22105:22108  arr */\n      dup5\n        /* \"contracts/HotswapController_flattened.sol\":22105:22115  arr.length */\n      dup1\n      sload\n      swap1\n      pop\n        /* \"contracts/HotswapController_flattened.sol\":22105:22119  arr.length - 1 */\n      tag_402\n      swap2\n      swap1\n      tag_175\n      jump\t// in\n    tag_402:\n        /* \"contracts/HotswapController_flattened.sol\":22090:22119  uint256 last = arr.length - 1 */\n      swap1\n      pop\n        /* \"contracts/HotswapController_flattened.sol\":22130:22141  bool isLast */\n      0x00\n        /* \"contracts/HotswapController_flattened.sol\":22153:22157  last */\n      dup2\n        /* \"contracts/HotswapController_flattened.sol\":22144:22149  index */\n      dup5\n        /* \"contracts/HotswapController_flattened.sol\":22144:22157  index == last */\n      eq\n        /* \"contracts/HotswapController_flattened.sol\":22130:22157  bool isLast = index == last */\n      swap1\n      pop\n        /* \"contracts/HotswapController_flattened.sol\":22175:22181  isLast */\n      dup1\n        /* \"contracts/HotswapController_flattened.sol\":22170:22232  if (!isLast) {... */\n      tag_403\n      jumpi\n        /* \"contracts/HotswapController_flattened.sol\":22211:22214  arr */\n      dup5\n        /* \"contracts/HotswapController_flattened.sol\":22215:22219  last */\n      dup3\n        /* \"contracts/HotswapController_flattened.sol\":22211:22220  arr[last] */\n      dup2\n      sload\n      dup2\n      lt\n      tag_404\n      jumpi\n      tag_405\n      tag_132\n      jump\t// in\n    tag_405:\n    tag_404:\n      swap1\n      0x00\n      mstore\n      keccak256(0x00, 0x20)\n      swap1\n      0x07\n      mul\n      add\n        /* \"contracts/HotswapController_flattened.sol\":22198:22201  arr */\n      dup6\n        /* \"contracts/HotswapController_flattened.sol\":22202:22207  index */\n      dup6\n        /* \"contracts/HotswapController_flattened.sol\":22198:22208  arr[index] */\n      dup2\n      sload\n      dup2\n      lt\n      tag_407\n      jumpi\n      tag_408\n      tag_132\n      jump\t// in\n    tag_408:\n    tag_407:\n      swap1\n      0x00\n      mstore\n      keccak256(0x00, 0x20)\n      swap1\n      0x07\n      mul\n      add\n        /* \"contracts/HotswapController_flattened.sol\":22198:22220  arr[index] = arr[last] */\n      0x00\n      dup3\n      add\n      0x00\n      swap1\n      sload\n      swap1\n      0x0100\n      exp\n      swap1\n      div\n      0xffffffffffffffffffffffffffffffffffffffff\n      and\n      dup2\n      0x00\n      add\n      exp(0x0100, 0x00)\n      dup2\n      sload\n      dup2\n      0xffffffffffffffffffffffffffffffffffffffff\n      mul\n      not\n      and\n      swap1\n      dup4\n      0xffffffffffffffffffffffffffffffffffffffff\n      and\n      mul\n      or\n      swap1\n      sstore\n      pop\n      0x01\n      dup3\n      add\n      sload\n      dup2\n      0x01\n      add\n      sstore\n      0x02\n      dup3\n      add\n      sload\n      dup2\n      0x02\n      add\n      sstore\n      0x03\n      dup3\n      add\n      sload\n      dup2\n      0x03\n      add\n      sstore\n      0x04\n      dup3\n      add\n      sload\n      dup2\n      0x04\n      add\n      sstore\n      0x05\n      dup3\n      add\n      0x00\n      swap1\n      sload\n      swap1\n      0x0100\n      exp\n      swap1\n      div\n      0xff\n      and\n      dup2\n      0x05\n      add\n      exp(0x0100, 0x00)\n      dup2\n      sload\n      dup2\n      0xff\n      mul\n      not\n      and\n      swap1\n      dup4\n      iszero\n      iszero\n      mul\n      or\n      swap1\n      sstore\n      pop\n      0x06\n      dup3\n      add\n      sload\n      dup2\n      0x06\n      add\n      sstore\n      swap1\n      pop\n      pop\n        /* \"contracts/HotswapController_flattened.sol\":22170:22232  if (!isLast) {... */\n    tag_403:\n        /* \"contracts/HotswapController_flattened.sol\":22244:22247  arr */\n      dup5\n        /* \"contracts/HotswapController_flattened.sol\":22244:22253  arr.pop() */\n      dup1\n      sload\n      dup1\n      tag_410\n      jumpi\n      tag_411\n      tag_399\n      jump\t// in\n    tag_411:\n    tag_410:\n      0x01\n      swap1\n      sub\n      dup2\n      dup2\n      swap1\n      0x00\n      mstore\n      keccak256(0x00, 0x20)\n      swap1\n      0x07\n      mul\n      add\n      0x00\n      dup1\n      dup3\n      add\n      exp(0x0100, 0x00)\n      dup2\n      sload\n      swap1\n      0xffffffffffffffffffffffffffffffffffffffff\n      mul\n      not\n      and\n      swap1\n      sstore\n      0x01\n      dup3\n      add\n      0x00\n      swap1\n      sstore\n      0x02\n      dup3\n      add\n      0x00\n      swap1\n      sstore\n      0x03\n      dup3\n      add\n      0x00\n      swap1\n      sstore\n      0x04\n      dup3\n      add\n      0x00\n      swap1\n      sstore\n      0x05\n      dup3\n      add\n      exp(0x0100, 0x00)\n      dup2\n      sload\n      swap1\n      0xff\n      mul\n      not\n      and\n      swap1\n      sstore\n      0x06\n      dup3\n      add\n      0x00\n      swap1\n      sstore\n      pop\n      pop\n      swap1\n      sstore\n        /* \"contracts/HotswapController_flattened.sol\":22272:22278  isLast */\n      dup1\n        /* \"contracts/HotswapController_flattened.sol\":22271:22278  !isLast */\n      iszero\n        /* \"contracts/HotswapController_flattened.sol\":22264:22278  return !isLast */\n      swap3\n      pop\n      pop\n      pop\n        /* \"contracts/HotswapController_flattened.sol\":21972:22286  function _removeItem(... */\n      swap3\n      swap2\n      pop\n      pop\n      jump\t// out\n    tag_162:\n      mload(0x40)\n      dup1\n      0xc0\n      add\n      0x40\n      mstore\n      dup1\n      and(0xffffffffffffffffffffffffffffffffffffffff, 0x00)\n      dup2\n      mstore\n      0x20\n      add\n      0x00\n      dup2\n      mstore\n      0x20\n      add\n      0x00\n      dup2\n      mstore\n      0x20\n      add\n      0x00\n      dup2\n      mstore\n      0x20\n      add\n      0x00\n      dup2\n      mstore\n      0x20\n      add\n      iszero(iszero(0x00))\n      dup2\n      mstore\n      pop\n      swap1\n      jump\t// out\n    tag_345:\n      mload(0x40)\n      dup1\n      0xe0\n      add\n      0x40\n      mstore\n      dup1\n      and(0xffffffffffffffffffffffffffffffffffffffff, 0x00)\n      dup2\n      mstore\n      0x20\n      add\n      0x00\n      dup2\n      mstore\n      0x20\n      add\n      0x00\n      dup2\n      mstore\n      0x20\n      add\n      0x00\n      dup2\n      mstore\n      0x20\n      add\n      0x00\n      dup2\n      mstore\n      0x20\n      add\n      iszero(iszero(0x00))\n      dup2\n      mstore\n      0x20\n      add\n      0x00\n      dup2\n      mstore\n      pop\n      swap1\n      jump\t// out\n        /* \"#utility.yul\":7:133   */\n    tag_413:\n        /* \"#utility.yul\":44:51   */\n      0x00\n        /* \"#utility.yul\":84:126   */\n      0xffffffffffffffffffffffffffffffffffffffff\n        /* \"#utility.yul\":77:82   */\n      dup3\n        /* \"#utility.yul\":73:127   */\n      and\n        /* \"#utility.yul\":62:127   */\n      swap1\n      pop\n        /* \"#utility.yul\":7:133   */\n      swap2\n      swap1\n      pop\n      jump\t// out\n        /* \"#utility.yul\":139:235   */\n    tag_414:\n        /* \"#utility.yul\":176:183   */\n      0x00\n        /* \"#utility.yul\":205:229   */\n      tag_454\n        /* \"#utility.yul\":223:228   */\n      dup3\n        /* \"#utility.yul\":205:229   */\n      tag_413\n      jump\t// in\n    tag_454:\n        /* \"#utility.yul\":194:229   */\n      swap1\n      pop\n        /* \"#utility.yul\":139:235   */\n      swap2\n      swap1\n      pop\n      jump\t// out\n        /* \"#utility.yul\":241:359   */\n    tag_415:\n        /* \"#utility.yul\":328:352   */\n      tag_456\n        /* \"#utility.yul\":346:351   */\n      dup2\n        /* \"#utility.yul\":328:352   */\n      tag_414\n      jump\t// in\n    tag_456:\n        /* \"#utility.yul\":323:326   */\n      dup3\n        /* \"#utility.yul\":316:353   */\n      mstore\n        /* \"#utility.yul\":241:359   */\n      pop\n      pop\n      jump\t// out\n        /* \"#utility.yul\":365:587   */\n    tag_37:\n        /* \"#utility.yul\":458:462   */\n      0x00\n        /* \"#utility.yul\":496:498   */\n      0x20\n        /* \"#utility.yul\":485:494   */\n      dup3\n        /* \"#utility.yul\":481:499   */\n      add\n        /* \"#utility.yul\":473:499   */\n      swap1\n      pop\n        /* \"#utility.yul\":509:580   */\n      tag_458\n        /* \"#utility.yul\":577:578   */\n      0x00\n        /* \"#utility.yul\":566:575   */\n      dup4\n        /* \"#utility.yul\":562:579   */\n      add\n        /* \"#utility.yul\":553:559   */\n      dup5\n        /* \"#utility.yul\":509:580   */\n      tag_415\n      jump\t// in\n    tag_458:\n        /* \"#utility.yul\":365:587   */\n      swap3\n      swap2\n      pop\n      pop\n      jump\t// out\n        /* \"#utility.yul\":674:791   */\n    tag_417:\n        /* \"#utility.yul\":783:784   */\n      0x00\n        /* \"#utility.yul\":780:781   */\n      dup1\n        /* \"#utility.yul\":773:785   */\n      revert\n        /* \"#utility.yul\":920:997   */\n    tag_419:\n        /* \"#utility.yul\":957:964   */\n      0x00\n        /* \"#utility.yul\":986:991   */\n      dup2\n        /* \"#utility.yul\":975:991   */\n      swap1\n      pop\n        /* \"#utility.yul\":920:997   */\n      swap2\n      swap1\n      pop\n      jump\t// out\n        /* \"#utility.yul\":1003:1125   */\n    tag_420:\n        /* \"#utility.yul\":1076:1100   */\n      tag_464\n        /* \"#utility.yul\":1094:1099   */\n      dup2\n        /* \"#utility.yul\":1076:1100   */\n      tag_419\n      jump\t// in\n    tag_464:\n        /* \"#utility.yul\":1069:1074   */\n      dup2\n        /* \"#utility.yul\":1066:1101   */\n      eq\n        /* \"#utility.yul\":1056:1119   */\n      tag_465\n      jumpi\n        /* \"#utility.yul\":1115:1116   */\n      0x00\n        /* \"#utility.yul\":1112:1113   */\n      dup1\n        /* \"#utility.yul\":1105:1117   */\n      revert\n        /* \"#utility.yul\":1056:1119   */\n    tag_465:\n        /* \"#utility.yul\":1003:1125   */\n      pop\n      jump\t// out\n        /* \"#utility.yul\":1131:1270   */\n    tag_421:\n        /* \"#utility.yul\":1177:1182   */\n      0x00\n        /* \"#utility.yul\":1215:1221   */\n      dup2\n        /* \"#utility.yul\":1202:1222   */\n      calldataload\n        /* \"#utility.yul\":1193:1222   */\n      swap1\n      pop\n        /* \"#utility.yul\":1231:1264   */\n      tag_467\n        /* \"#utility.yul\":1258:1263   */\n      dup2\n        /* \"#utility.yul\":1231:1264   */\n      tag_420\n      jump\t// in\n    tag_467:\n        /* \"#utility.yul\":1131:1270   */\n      swap3\n      swap2\n      pop\n      pop\n      jump\t// out\n        /* \"#utility.yul\":1276:1605   */\n    tag_40:\n        /* \"#utility.yul\":1335:1341   */\n      0x00\n        /* \"#utility.yul\":1384:1386   */\n      0x20\n        /* \"#utility.yul\":1372:1381   */\n      dup3\n        /* \"#utility.yul\":1363:1370   */\n      dup5\n        /* \"#utility.yul\":1359:1382   */\n      sub\n        /* \"#utility.yul\":1355:1387   */\n      slt\n        /* \"#utility.yul\":1352:1471   */\n      iszero\n      tag_469\n      jumpi\n        /* \"#utility.yul\":1390:1469   */\n      tag_470\n      tag_417\n      jump\t// in\n    tag_470:\n        /* \"#utility.yul\":1352:1471   */\n    tag_469:\n        /* \"#utility.yul\":1510:1511   */\n      0x00\n        /* \"#utility.yul\":1535:1588   */\n      tag_471\n        /* \"#utility.yul\":1580:1587   */\n      dup5\n        /* \"#utility.yul\":1571:1577   */\n      dup3\n        /* \"#utility.yul\":1560:1569   */\n      dup6\n        /* \"#utility.yul\":1556:1578   */\n      add\n        /* \"#utility.yul\":1535:1588   */\n      tag_421\n      jump\t// in\n    tag_471:\n        /* \"#utility.yul\":1525:1588   */\n      swap2\n      pop\n        /* \"#utility.yul\":1481:1598   */\n      pop\n        /* \"#utility.yul\":1276:1605   */\n      swap3\n      swap2\n      pop\n      pop\n      jump\t// out\n        /* \"#utility.yul\":1611:1729   */\n    tag_422:\n        /* \"#utility.yul\":1698:1722   */\n      tag_473\n        /* \"#utility.yul\":1716:1721   */\n      dup2\n        /* \"#utility.yul\":1698:1722   */\n      tag_419\n      jump\t// in\n    tag_473:\n        /* \"#utility.yul\":1693:1696   */\n      dup3\n        /* \"#utility.yul\":1686:1723   */\n      mstore\n        /* \"#utility.yul\":1611:1729   */\n      pop\n      pop\n      jump\t// out\n        /* \"#utility.yul\":1735:1957   */\n    tag_45:\n        /* \"#utility.yul\":1828:1832   */\n      0x00\n        /* \"#utility.yul\":1866:1868   */\n      0x20\n        /* \"#utility.yul\":1855:1864   */\n      dup3\n        /* \"#utility.yul\":1851:1869   */\n      add\n        /* \"#utility.yul\":1843:1869   */\n      swap1\n      pop\n        /* \"#utility.yul\":1879:1950   */\n      tag_475\n        /* \"#utility.yul\":1947:1948   */\n      0x00\n        /* \"#utility.yul\":1936:1945   */\n      dup4\n        /* \"#utility.yul\":1932:1949   */\n      add\n        /* \"#utility.yul\":1923:1929   */\n      dup5\n        /* \"#utility.yul\":1879:1950   */\n      tag_422\n      jump\t// in\n    tag_475:\n        /* \"#utility.yul\":1735:1957   */\n      swap3\n      swap2\n      pop\n      pop\n      jump\t// out\n        /* \"#utility.yul\":1963:2085   */\n    tag_423:\n        /* \"#utility.yul\":2036:2060   */\n      tag_477\n        /* \"#utility.yul\":2054:2059   */\n      dup2\n        /* \"#utility.yul\":2036:2060   */\n      tag_414\n      jump\t// in\n    tag_477:\n        /* \"#utility.yul\":2029:2034   */\n      dup2\n        /* \"#utility.yul\":2026:2061   */\n      eq\n        /* \"#utility.yul\":2016:2079   */\n      tag_478\n      jumpi\n        /* \"#utility.yul\":2075:2076   */\n      0x00\n        /* \"#utility.yul\":2072:2073   */\n      dup1\n        /* \"#utility.yul\":2065:2077   */\n      revert\n        /* \"#utility.yul\":2016:2079   */\n    tag_478:\n        /* \"#utility.yul\":1963:2085   */\n      pop\n      jump\t// out\n        /* \"#utility.yul\":2091:2230   */\n    tag_424:\n        /* \"#utility.yul\":2137:2142   */\n      0x00\n        /* \"#utility.yul\":2175:2181   */\n      dup2\n        /* \"#utility.yul\":2162:2182   */\n      calldataload\n        /* \"#utility.yul\":2153:2182   */\n      swap1\n      pop\n        /* \"#utility.yul\":2191:2224   */\n      tag_480\n        /* \"#utility.yul\":2218:2223   */\n      dup2\n        /* \"#utility.yul\":2191:2224   */\n      tag_423\n      jump\t// in\n    tag_480:\n        /* \"#utility.yul\":2091:2230   */\n      swap3\n      swap2\n      pop\n      pop\n      jump\t// out\n        /* \"#utility.yul\":2236:2565   */\n    tag_48:\n        /* \"#utility.yul\":2295:2301   */\n      0x00\n        /* \"#utility.yul\":2344:2346   */\n      0x20\n        /* \"#utility.yul\":2332:2341   */\n      dup3\n        /* \"#utility.yul\":2323:2330   */\n      dup5\n        /* \"#utility.yul\":2319:2342   */\n      sub\n        /* \"#utility.yul\":2315:2347   */\n      slt\n        /* \"#utility.yul\":2312:2431   */\n      iszero\n      tag_482\n      jumpi\n        /* \"#utility.yul\":2350:2429   */\n      tag_483\n      tag_417\n      jump\t// in\n    tag_483:\n        /* \"#utility.yul\":2312:2431   */\n    tag_482:\n        /* \"#utility.yul\":2470:2471   */\n      0x00\n        /* \"#utility.yul\":2495:2548   */\n      tag_484\n        /* \"#utility.yul\":2540:2547   */\n      dup5\n        /* \"#utility.yul\":2531:2537   */\n      dup3\n        /* \"#utility.yul\":2520:2529   */\n      dup6\n        /* \"#utility.yul\":2516:2538   */\n      add\n        /* \"#utility.yul\":2495:2548   */\n      tag_424\n      jump\t// in\n    tag_484:\n        /* \"#utility.yul\":2485:2548   */\n      swap2\n      pop\n        /* \"#utility.yul\":2441:2558   */\n      pop\n        /* \"#utility.yul\":2236:2565   */\n      swap3\n      swap2\n      pop\n      pop\n      jump\t// out\n        /* \"#utility.yul\":2571:2679   */\n    tag_425:\n        /* \"#utility.yul\":2648:2672   */\n      tag_486\n        /* \"#utility.yul\":2666:2671   */\n      dup2\n        /* \"#utility.yul\":2648:2672   */\n      tag_414\n      jump\t// in\n    tag_486:\n        /* \"#utility.yul\":2643:2646   */\n      dup3\n        /* \"#utility.yul\":2636:2673   */\n      mstore\n        /* \"#utility.yul\":2571:2679   */\n      pop\n      pop\n      jump\t// out\n        /* \"#utility.yul\":2685:2793   */\n    tag_426:\n        /* \"#utility.yul\":2762:2786   */\n      tag_488\n        /* \"#utility.yul\":2780:2785   */\n      dup2\n        /* \"#utility.yul\":2762:2786   */\n      tag_419\n      jump\t// in\n    tag_488:\n        /* \"#utility.yul\":2757:2760   */\n      dup3\n        /* \"#utility.yul\":2750:2787   */\n      mstore\n        /* \"#utility.yul\":2685:2793   */\n      pop\n      pop\n      jump\t// out\n        /* \"#utility.yul\":2799:2889   */\n    tag_427:\n        /* \"#utility.yul\":2833:2840   */\n      0x00\n        /* \"#utility.yul\":2876:2881   */\n      dup2\n        /* \"#utility.yul\":2869:2882   */\n      iszero\n        /* \"#utility.yul\":2862:2883   */\n      iszero\n        /* \"#utility.yul\":2851:2883   */\n      swap1\n      pop\n        /* \"#utility.yul\":2799:2889   */\n      swap2\n      swap1\n      pop\n      jump\t// out\n        /* \"#utility.yul\":2895:2994   */\n    tag_428:\n        /* \"#utility.yul\":2966:2987   */\n      tag_491\n        /* \"#utility.yul\":2981:2986   */\n      dup2\n        /* \"#utility.yul\":2966:2987   */\n      tag_427\n      jump\t// in\n    tag_491:\n        /* \"#utility.yul\":2961:2964   */\n      dup3\n        /* \"#utility.yul\":2954:2988   */\n      mstore\n        /* \"#utility.yul\":2895:2994   */\n      pop\n      pop\n      jump\t// out\n        /* \"#utility.yul\":3090:4315   */\n    tag_429:\n        /* \"#utility.yul\":3241:3245   */\n      0xc0\n        /* \"#utility.yul\":3236:3239   */\n      dup3\n        /* \"#utility.yul\":3232:3246   */\n      add\n        /* \"#utility.yul\":3333:3337   */\n      0x00\n        /* \"#utility.yul\":3326:3331   */\n      dup3\n        /* \"#utility.yul\":3322:3338   */\n      add\n        /* \"#utility.yul\":3316:3339   */\n      mload\n        /* \"#utility.yul\":3352:3415   */\n      tag_493\n        /* \"#utility.yul\":3409:3413   */\n      0x00\n        /* \"#utility.yul\":3404:3407   */\n      dup6\n        /* \"#utility.yul\":3400:3414   */\n      add\n        /* \"#utility.yul\":3386:3398   */\n      dup3\n        /* \"#utility.yul\":3352:3415   */\n      tag_425\n      jump\t// in\n    tag_493:\n        /* \"#utility.yul\":3256:3425   */\n      pop\n        /* \"#utility.yul\":3514:3518   */\n      0x20\n        /* \"#utility.yul\":3507:3512   */\n      dup3\n        /* \"#utility.yul\":3503:3519   */\n      add\n        /* \"#utility.yul\":3497:3520   */\n      mload\n        /* \"#utility.yul\":3533:3596   */\n      tag_494\n        /* \"#utility.yul\":3590:3594   */\n      0x20\n        /* \"#utility.yul\":3585:3588   */\n      dup6\n        /* \"#utility.yul\":3581:3595   */\n      add\n        /* \"#utility.yul\":3567:3579   */\n      dup3\n        /* \"#utility.yul\":3533:3596   */\n      tag_426\n      jump\t// in\n    tag_494:\n        /* \"#utility.yul\":3435:3606   */\n      pop\n        /* \"#utility.yul\":3689:3693   */\n      0x40\n        /* \"#utility.yul\":3682:3687   */\n      dup3\n        /* \"#utility.yul\":3678:3694   */\n      add\n        /* \"#utility.yul\":3672:3695   */\n      mload\n        /* \"#utility.yul\":3708:3771   */\n      tag_495\n        /* \"#utility.yul\":3765:3769   */\n      0x40\n        /* \"#utility.yul\":3760:3763   */\n      dup6\n        /* \"#utility.yul\":3756:3770   */\n      add\n        /* \"#utility.yul\":3742:3754   */\n      dup3\n        /* \"#utility.yul\":3708:3771   */\n      tag_426\n      jump\t// in\n    tag_495:\n        /* \"#utility.yul\":3616:3781   */\n      pop\n        /* \"#utility.yul\":3867:3871   */\n      0x60\n        /* \"#utility.yul\":3860:3865   */\n      dup3\n        /* \"#utility.yul\":3856:3872   */\n      add\n        /* \"#utility.yul\":3850:3873   */\n      mload\n        /* \"#utility.yul\":3886:3949   */\n      tag_496\n        /* \"#utility.yul\":3943:3947   */\n      0x60\n        /* \"#utility.yul\":3938:3941   */\n      dup6\n        /* \"#utility.yul\":3934:3948   */\n      add\n        /* \"#utility.yul\":3920:3932   */\n      dup3\n        /* \"#utility.yul\":3886:3949   */\n      tag_426\n      jump\t// in\n    tag_496:\n        /* \"#utility.yul\":3791:3959   */\n      pop\n        /* \"#utility.yul\":4045:4049   */\n      0x80\n        /* \"#utility.yul\":4038:4043   */\n      dup3\n        /* \"#utility.yul\":4034:4050   */\n      add\n        /* \"#utility.yul\":4028:4051   */\n      mload\n        /* \"#utility.yul\":4064:4127   */\n      tag_497\n        /* \"#utility.yul\":4121:4125   */\n      0x80\n        /* \"#utility.yul\":4116:4119   */\n      dup6\n        /* \"#utility.yul\":4112:4126   */\n      add\n        /* \"#utility.yul\":4098:4110   */\n      dup3\n        /* \"#utility.yul\":4064:4127   */\n      tag_426\n      jump\t// in\n    tag_497:\n        /* \"#utility.yul\":3969:4137   */\n      pop\n        /* \"#utility.yul\":4222:4226   */\n      0xa0\n        /* \"#utility.yul\":4215:4220   */\n      dup3\n        /* \"#utility.yul\":4211:4227   */\n      add\n        /* \"#utility.yul\":4205:4228   */\n      mload\n        /* \"#utility.yul\":4241:4298   */\n      tag_498\n        /* \"#utility.yul\":4292:4296   */\n      0xa0\n        /* \"#utility.yul\":4287:4290   */\n      dup6\n        /* \"#utility.yul\":4283:4297   */\n      add\n        /* \"#utility.yul\":4269:4281   */\n      dup3\n        /* \"#utility.yul\":4241:4298   */\n      tag_428\n      jump\t// in\n    tag_498:\n        /* \"#utility.yul\":4147:4308   */\n      pop\n        /* \"#utility.yul\":3210:4315   */\n      pop\n        /* \"#utility.yul\":3090:4315   */\n      pop\n      pop\n      jump\t// out\n        /* \"#utility.yul\":4321:4652   */\n    tag_57:\n        /* \"#utility.yul\":4468:4472   */\n      0x00\n        /* \"#utility.yul\":4506:4509   */\n      0xc0\n        /* \"#utility.yul\":4495:4504   */\n      dup3\n        /* \"#utility.yul\":4491:4510   */\n      add\n        /* \"#utility.yul\":4483:4510   */\n      swap1\n      pop\n        /* \"#utility.yul\":4520:4645   */\n      tag_500\n        /* \"#utility.yul\":4642:4643   */\n      0x00\n        /* \"#utility.yul\":4631:4640   */\n      dup4\n        /* \"#utility.yul\":4627:4644   */\n      add\n        /* \"#utility.yul\":4618:4624   */\n      dup5\n        /* \"#utility.yul\":4520:4645   */\n      tag_429\n      jump\t// in\n    tag_500:\n        /* \"#utility.yul\":4321:4652   */\n      swap3\n      swap2\n      pop\n      pop\n      jump\t// out\n        /* \"#utility.yul\":4658:4774   */\n    tag_430:\n        /* \"#utility.yul\":4728:4749   */\n      tag_502\n        /* \"#utility.yul\":4743:4748   */\n      dup2\n        /* \"#utility.yul\":4728:4749   */\n      tag_427\n      jump\t// in\n    tag_502:\n        /* \"#utility.yul\":4721:4726   */\n      dup2\n        /* \"#utility.yul\":4718:4750   */\n      eq\n        /* \"#utility.yul\":4708:4768   */\n      tag_503\n      jumpi\n        /* \"#utility.yul\":4764:4765   */\n      0x00\n        /* \"#utility.yul\":4761:4762   */\n      dup1\n        /* \"#utility.yul\":4754:4766   */\n      revert\n        /* \"#utility.yul\":4708:4768   */\n    tag_503:\n        /* \"#utility.yul\":4658:4774   */\n      pop\n      jump\t// out\n        /* \"#utility.yul\":4780:4913   */\n    tag_431:\n        /* \"#utility.yul\":4823:4828   */\n      0x00\n        /* \"#utility.yul\":4861:4867   */\n      dup2\n        /* \"#utility.yul\":4848:4868   */\n      calldataload\n        /* \"#utility.yul\":4839:4868   */\n      swap1\n      pop\n        /* \"#utility.yul\":4877:4907   */\n      tag_505\n        /* \"#utility.yul\":4901:4906   */\n      dup2\n        /* \"#utility.yul\":4877:4907   */\n      tag_430\n      jump\t// in\n    tag_505:\n        /* \"#utility.yul\":4780:4913   */\n      swap3\n      swap2\n      pop\n      pop\n      jump\t// out\n        /* \"#utility.yul\":4919:5242   */\n    tag_69:\n        /* \"#utility.yul\":4975:4981   */\n      0x00\n        /* \"#utility.yul\":5024:5026   */\n      0x20\n        /* \"#utility.yul\":5012:5021   */\n      dup3\n        /* \"#utility.yul\":5003:5010   */\n      dup5\n        /* \"#utility.yul\":4999:5022   */\n      sub\n        /* \"#utility.yul\":4995:5027   */\n      slt\n        /* \"#utility.yul\":4992:5111   */\n      iszero\n      tag_507\n      jumpi\n        /* \"#utility.yul\":5030:5109   */\n      tag_508\n      tag_417\n      jump\t// in\n    tag_508:\n        /* \"#utility.yul\":4992:5111   */\n    tag_507:\n        /* \"#utility.yul\":5150:5151   */\n      0x00\n        /* \"#utility.yul\":5175:5225   */\n      tag_509\n        /* \"#utility.yul\":5217:5224   */\n      dup5\n        /* \"#utility.yul\":5208:5214   */\n      dup3\n        /* \"#utility.yul\":5197:5206   */\n      dup6\n        /* \"#utility.yul\":5193:5215   */\n      add\n        /* \"#utility.yul\":5175:5225   */\n      tag_431\n      jump\t// in\n    tag_509:\n        /* \"#utility.yul\":5165:5225   */\n      swap2\n      pop\n        /* \"#utility.yul\":5121:5235   */\n      pop\n        /* \"#utility.yul\":4919:5242   */\n      swap3\n      swap2\n      pop\n      pop\n      jump\t// out\n        /* \"#utility.yul\":5248:5357   */\n    tag_432:\n        /* \"#utility.yul\":5329:5350   */\n      tag_511\n        /* \"#utility.yul\":5344:5349   */\n      dup2\n        /* \"#utility.yul\":5329:5350   */\n      tag_427\n      jump\t// in\n    tag_511:\n        /* \"#utility.yul\":5324:5327   */\n      dup3\n        /* \"#utility.yul\":5317:5351   */\n      mstore\n        /* \"#utility.yul\":5248:5357   */\n      pop\n      pop\n      jump\t// out\n        /* \"#utility.yul\":5363:5573   */\n    tag_86:\n        /* \"#utility.yul\":5450:5454   */\n      0x00\n        /* \"#utility.yul\":5488:5490   */\n      0x20\n        /* \"#utility.yul\":5477:5486   */\n      dup3\n        /* \"#utility.yul\":5473:5491   */\n      add\n        /* \"#utility.yul\":5465:5491   */\n      swap1\n      pop\n        /* \"#utility.yul\":5501:5566   */\n      tag_513\n        /* \"#utility.yul\":5563:5564   */\n      0x00\n        /* \"#utility.yul\":5552:5561   */\n      dup4\n        /* \"#utility.yul\":5548:5565   */\n      add\n        /* \"#utility.yul\":5539:5545   */\n      dup5\n        /* \"#utility.yul\":5501:5566   */\n      tag_432\n      jump\t// in\n    tag_513:\n        /* \"#utility.yul\":5363:5573   */\n      swap3\n      swap2\n      pop\n      pop\n      jump\t// out\n        /* \"#utility.yul\":5579:6453   */\n    tag_94:\n        /* \"#utility.yul\":5834:5838   */\n      0x00\n        /* \"#utility.yul\":5872:5875   */\n      0xe0\n        /* \"#utility.yul\":5861:5870   */\n      dup3\n        /* \"#utility.yul\":5857:5876   */\n      add\n        /* \"#utility.yul\":5849:5876   */\n      swap1\n      pop\n        /* \"#utility.yul\":5886:5957   */\n      tag_515\n        /* \"#utility.yul\":5954:5955   */\n      0x00\n        /* \"#utility.yul\":5943:5952   */\n      dup4\n        /* \"#utility.yul\":5939:5956   */\n      add\n        /* \"#utility.yul\":5930:5936   */\n      dup11\n        /* \"#utility.yul\":5886:5957   */\n      tag_415\n      jump\t// in\n    tag_515:\n        /* \"#utility.yul\":5967:6039   */\n      tag_516\n        /* \"#utility.yul\":6035:6037   */\n      0x20\n        /* \"#utility.yul\":6024:6033   */\n      dup4\n        /* \"#utility.yul\":6020:6038   */\n      add\n        /* \"#utility.yul\":6011:6017   */\n      dup10\n        /* \"#utility.yul\":5967:6039   */\n      tag_422\n      jump\t// in\n    tag_516:\n        /* \"#utility.yul\":6049:6121   */\n      tag_517\n        /* \"#utility.yul\":6117:6119   */\n      0x40\n        /* \"#utility.yul\":6106:6115   */\n      dup4\n        /* \"#utility.yul\":6102:6120   */\n      add\n        /* \"#utility.yul\":6093:6099   */\n      dup9\n        /* \"#utility.yul\":6049:6121   */\n      tag_422\n      jump\t// in\n    tag_517:\n        /* \"#utility.yul\":6131:6203   */\n      tag_518\n        /* \"#utility.yul\":6199:6201   */\n      0x60\n        /* \"#utility.yul\":6188:6197   */\n      dup4\n        /* \"#utility.yul\":6184:6202   */\n      add\n        /* \"#utility.yul\":6175:6181   */\n      dup8\n        /* \"#utility.yul\":6131:6203   */\n      tag_422\n      jump\t// in\n    tag_518:\n        /* \"#utility.yul\":6213:6286   */\n      tag_519\n        /* \"#utility.yul\":6281:6284   */\n      0x80\n        /* \"#utility.yul\":6270:6279   */\n      dup4\n        /* \"#utility.yul\":6266:6285   */\n      add\n        /* \"#utility.yul\":6257:6263   */\n      dup7\n        /* \"#utility.yul\":6213:6286   */\n      tag_422\n      jump\t// in\n    tag_519:\n        /* \"#utility.yul\":6296:6363   */\n      tag_520\n        /* \"#utility.yul\":6358:6361   */\n      0xa0\n        /* \"#utility.yul\":6347:6356   */\n      dup4\n        /* \"#utility.yul\":6343:6362   */\n      add\n        /* \"#utility.yul\":6334:6340   */\n      dup6\n        /* \"#utility.yul\":6296:6363   */\n      tag_432\n      jump\t// in\n    tag_520:\n        /* \"#utility.yul\":6373:6446   */\n      tag_521\n        /* \"#utility.yul\":6441:6444   */\n      0xc0\n        /* \"#utility.yul\":6430:6439   */\n      dup4\n        /* \"#utility.yul\":6426:6445   */\n      add\n        /* \"#utility.yul\":6417:6423   */\n      dup5\n        /* \"#utility.yul\":6373:6446   */\n      tag_422\n      jump\t// in\n    tag_521:\n        /* \"#utility.yul\":5579:6453   */\n      swap9\n      swap8\n      pop\n      pop\n      pop\n      pop\n      pop\n      pop\n      pop\n      pop\n      jump\t// out\n        /* \"#utility.yul\":6459:6933   */\n    tag_109:\n        /* \"#utility.yul\":6527:6533   */\n      0x00\n        /* \"#utility.yul\":6535:6541   */\n      dup1\n        /* \"#utility.yul\":6584:6586   */\n      0x40\n        /* \"#utility.yul\":6572:6581   */\n      dup4\n        /* \"#utility.yul\":6563:6570   */\n      dup6\n        /* \"#utility.yul\":6559:6582   */\n      sub\n        /* \"#utility.yul\":6555:6587   */\n      slt\n        /* \"#utility.yul\":6552:6671   */\n      iszero\n      tag_523\n      jumpi\n        /* \"#utility.yul\":6590:6669   */\n      tag_524\n      tag_417\n      jump\t// in\n    tag_524:\n        /* \"#utility.yul\":6552:6671   */\n    tag_523:\n        /* \"#utility.yul\":6710:6711   */\n      0x00\n        /* \"#utility.yul\":6735:6788   */\n      tag_525\n        /* \"#utility.yul\":6780:6787   */\n      dup6\n        /* \"#utility.yul\":6771:6777   */\n      dup3\n        /* \"#utility.yul\":6760:6769   */\n      dup7\n        /* \"#utility.yul\":6756:6778   */\n      add\n        /* \"#utility.yul\":6735:6788   */\n      tag_424\n      jump\t// in\n    tag_525:\n        /* \"#utility.yul\":6725:6788   */\n      swap3\n      pop\n        /* \"#utility.yul\":6681:6798   */\n      pop\n        /* \"#utility.yul\":6837:6839   */\n      0x20\n        /* \"#utility.yul\":6863:6916   */\n      tag_526\n        /* \"#utility.yul\":6908:6915   */\n      dup6\n        /* \"#utility.yul\":6899:6905   */\n      dup3\n        /* \"#utility.yul\":6888:6897   */\n      dup7\n        /* \"#utility.yul\":6884:6906   */\n      add\n        /* \"#utility.yul\":6863:6916   */\n      tag_421\n      jump\t// in\n    tag_526:\n        /* \"#utility.yul\":6853:6916   */\n      swap2\n      pop\n        /* \"#utility.yul\":6808:6926   */\n      pop\n        /* \"#utility.yul\":6459:6933   */\n      swap3\n      pop\n      swap3\n      swap1\n      pop\n      jump\t// out\n        /* \"#utility.yul\":6939:7108   */\n    tag_433:\n        /* \"#utility.yul\":7023:7034   */\n      0x00\n        /* \"#utility.yul\":7057:7063   */\n      dup3\n        /* \"#utility.yul\":7052:7055   */\n      dup3\n        /* \"#utility.yul\":7045:7064   */\n      mstore\n        /* \"#utility.yul\":7097:7101   */\n      0x20\n        /* \"#utility.yul\":7092:7095   */\n      dup3\n        /* \"#utility.yul\":7088:7102   */\n      add\n        /* \"#utility.yul\":7073:7102   */\n      swap1\n      pop\n        /* \"#utility.yul\":6939:7108   */\n      swap3\n      swap2\n      pop\n      pop\n      jump\t// out\n        /* \"#utility.yul\":7114:7282   */\n    tag_434:\n        /* \"#utility.yul\":7254:7274   */\n      0x496e646578206f7574206f662072616e67650000000000000000000000000000\n        /* \"#utility.yul\":7250:7251   */\n      0x00\n        /* \"#utility.yul\":7242:7248   */\n      dup3\n        /* \"#utility.yul\":7238:7252   */\n      add\n        /* \"#utility.yul\":7231:7275   */\n      mstore\n        /* \"#utility.yul\":7114:7282   */\n      pop\n      jump\t// out\n        /* \"#utility.yul\":7288:7654   */\n    tag_435:\n        /* \"#utility.yul\":7430:7433   */\n      0x00\n        /* \"#utility.yul\":7451:7518   */\n      tag_530\n        /* \"#utility.yul\":7515:7517   */\n      0x12\n        /* \"#utility.yul\":7510:7513   */\n      dup4\n        /* \"#utility.yul\":7451:7518   */\n      tag_433\n      jump\t// in\n    tag_530:\n        /* \"#utility.yul\":7444:7518   */\n      swap2\n      pop\n        /* \"#utility.yul\":7527:7620   */\n      tag_531\n        /* \"#utility.yul\":7616:7619   */\n      dup3\n        /* \"#utility.yul\":7527:7620   */\n      tag_434\n      jump\t// in\n    tag_531:\n        /* \"#utility.yul\":7645:7647   */\n      0x20\n        /* \"#utility.yul\":7640:7643   */\n      dup3\n        /* \"#utility.yul\":7636:7648   */\n      add\n        /* \"#utility.yul\":7629:7648   */\n      swap1\n      pop\n        /* \"#utility.yul\":7288:7654   */\n      swap2\n      swap1\n      pop\n      jump\t// out\n        /* \"#utility.yul\":7660:8079   */\n    tag_129:\n        /* \"#utility.yul\":7826:7830   */\n      0x00\n        /* \"#utility.yul\":7864:7866   */\n      0x20\n        /* \"#utility.yul\":7853:7862   */\n      dup3\n        /* \"#utility.yul\":7849:7867   */\n      add\n        /* \"#utility.yul\":7841:7867   */\n      swap1\n      pop\n        /* \"#utility.yul\":7913:7922   */\n      dup2\n        /* \"#utility.yul\":7907:7911   */\n      dup2\n        /* \"#utility.yul\":7903:7923   */\n      sub\n        /* \"#utility.yul\":7899:7900   */\n      0x00\n        /* \"#utility.yul\":7888:7897   */\n      dup4\n        /* \"#utility.yul\":7884:7901   */\n      add\n        /* \"#utility.yul\":7877:7924   */\n      mstore\n        /* \"#utility.yul\":7941:8072   */\n      tag_533\n        /* \"#utility.yul\":8067:8071   */\n      dup2\n        /* \"#utility.yul\":7941:8072   */\n      tag_435\n      jump\t// in\n    tag_533:\n        /* \"#utility.yul\":7933:8072   */\n      swap1\n      pop\n        /* \"#utility.yul\":7660:8079   */\n      swap2\n      swap1\n      pop\n      jump\t// out\n        /* \"#utility.yul\":8085:8265   */\n    tag_132:\n        /* \"#utility.yul\":8133:8210   */\n      0x4e487b7100000000000000000000000000000000000000000000000000000000\n        /* \"#utility.yul\":8130:8131   */\n      0x00\n        /* \"#utility.yul\":8123:8211   */\n      mstore\n        /* \"#utility.yul\":8230:8234   */\n      0x32\n        /* \"#utility.yul\":8227:8228   */\n      0x04\n        /* \"#utility.yul\":8220:8235   */\n      mstore\n        /* \"#utility.yul\":8254:8258   */\n      0x24\n        /* \"#utility.yul\":8251:8252   */\n      0x00\n        /* \"#utility.yul\":8244:8259   */\n      revert\n        /* \"#utility.yul\":8271:8451   */\n    tag_436:\n        /* \"#utility.yul\":8319:8396   */\n      0x4e487b7100000000000000000000000000000000000000000000000000000000\n        /* \"#utility.yul\":8316:8317   */\n      0x00\n        /* \"#utility.yul\":8309:8397   */\n      mstore\n        /* \"#utility.yul\":8416:8420   */\n      0x11\n        /* \"#utility.yul\":8413:8414   */\n      0x04\n        /* \"#utility.yul\":8406:8421   */\n      mstore\n        /* \"#utility.yul\":8440:8444   */\n      0x24\n        /* \"#utility.yul\":8437:8438   */\n      0x00\n        /* \"#utility.yul\":8430:8445   */\n      revert\n        /* \"#utility.yul\":8457:8648   */\n    tag_137:\n        /* \"#utility.yul\":8497:8500   */\n      0x00\n        /* \"#utility.yul\":8516:8536   */\n      tag_537\n        /* \"#utility.yul\":8534:8535   */\n      dup3\n        /* \"#utility.yul\":8516:8536   */\n      tag_419\n      jump\t// in\n    tag_537:\n        /* \"#utility.yul\":8511:8536   */\n      swap2\n      pop\n        /* \"#utility.yul\":8550:8570   */\n      tag_538\n        /* \"#utility.yul\":8568:8569   */\n      dup4\n        /* \"#utility.yul\":8550:8570   */\n      tag_419\n      jump\t// in\n    tag_538:\n        /* \"#utility.yul\":8545:8570   */\n      swap3\n      pop\n        /* \"#utility.yul\":8593:8594   */\n      dup3\n        /* \"#utility.yul\":8590:8591   */\n      dup3\n        /* \"#utility.yul\":8586:8595   */\n      add\n        /* \"#utility.yul\":8579:8595   */\n      swap1\n      pop\n        /* \"#utility.yul\":8614:8617   */\n      dup1\n        /* \"#utility.yul\":8611:8612   */\n      dup3\n        /* \"#utility.yul\":8608:8618   */\n      gt\n        /* \"#utility.yul\":8605:8641   */\n      iszero\n      tag_539\n      jumpi\n        /* \"#utility.yul\":8621:8639   */\n      tag_540\n      tag_436\n      jump\t// in\n    tag_540:\n        /* \"#utility.yul\":8605:8641   */\n    tag_539:\n        /* \"#utility.yul\":8457:8648   */\n      swap3\n      swap2\n      pop\n      pop\n      jump\t// out\n        /* \"#utility.yul\":8654:8834   */\n    tag_437:\n        /* \"#utility.yul\":8702:8779   */\n      0x4e487b7100000000000000000000000000000000000000000000000000000000\n        /* \"#utility.yul\":8699:8700   */\n      0x00\n        /* \"#utility.yul\":8692:8780   */\n      mstore\n        /* \"#utility.yul\":8799:8803   */\n      0x12\n        /* \"#utility.yul\":8796:8797   */\n      0x04\n        /* \"#utility.yul\":8789:8804   */\n      mstore\n        /* \"#utility.yul\":8823:8827   */\n      0x24\n        /* \"#utility.yul\":8820:8821   */\n      0x00\n        /* \"#utility.yul\":8813:8828   */\n      revert\n        /* \"#utility.yul\":8840:9025   */\n    tag_139:\n        /* \"#utility.yul\":8880:8881   */\n      0x00\n        /* \"#utility.yul\":8897:8917   */\n      tag_543\n        /* \"#utility.yul\":8915:8916   */\n      dup3\n        /* \"#utility.yul\":8897:8917   */\n      tag_419\n      jump\t// in\n    tag_543:\n        /* \"#utility.yul\":8892:8917   */\n      swap2\n      pop\n        /* \"#utility.yul\":8931:8951   */\n      tag_544\n        /* \"#utility.yul\":8949:8950   */\n      dup4\n        /* \"#utility.yul\":8931:8951   */\n      tag_419\n      jump\t// in\n    tag_544:\n        /* \"#utility.yul\":8926:8951   */\n      swap3\n      pop\n        /* \"#utility.yul\":8970:8971   */\n      dup3\n        /* \"#utility.yul\":8960:8995   */\n      tag_545\n      jumpi\n        /* \"#utility.yul\":8975:8993   */\n      tag_546\n      tag_437\n      jump\t// in\n    tag_546:\n        /* \"#utility.yul\":8960:8995   */\n    tag_545:\n        /* \"#utility.yul\":9017:9018   */\n      dup3\n        /* \"#utility.yul\":9014:9015   */\n      dup3\n        /* \"#utility.yul\":9010:9019   */\n      div\n        /* \"#utility.yul\":9005:9019   */\n      swap1\n      pop\n        /* \"#utility.yul\":8840:9025   */\n      swap3\n      swap2\n      pop\n      pop\n      jump\t// out\n        /* \"#utility.yul\":9031:9363   */\n    tag_145:\n        /* \"#utility.yul\":9152:9156   */\n      0x00\n        /* \"#utility.yul\":9190:9192   */\n      0x40\n        /* \"#utility.yul\":9179:9188   */\n      dup3\n        /* \"#utility.yul\":9175:9193   */\n      add\n        /* \"#utility.yul\":9167:9193   */\n      swap1\n      pop\n        /* \"#utility.yul\":9203:9274   */\n      tag_548\n        /* \"#utility.yul\":9271:9272   */\n      0x00\n        /* \"#utility.yul\":9260:9269   */\n      dup4\n        /* \"#utility.yul\":9256:9273   */\n      add\n        /* \"#utility.yul\":9247:9253   */\n      dup6\n        /* \"#utility.yul\":9203:9274   */\n      tag_422\n      jump\t// in\n    tag_548:\n        /* \"#utility.yul\":9284:9356   */\n      tag_549\n        /* \"#utility.yul\":9352:9354   */\n      0x20\n        /* \"#utility.yul\":9341:9350   */\n      dup4\n        /* \"#utility.yul\":9337:9355   */\n      add\n        /* \"#utility.yul\":9328:9334   */\n      dup5\n        /* \"#utility.yul\":9284:9356   */\n      tag_415\n      jump\t// in\n    tag_549:\n        /* \"#utility.yul\":9031:9363   */\n      swap4\n      swap3\n      pop\n      pop\n      pop\n      jump\t// out\n        /* \"#utility.yul\":9369:9563   */\n    tag_175:\n        /* \"#utility.yul\":9409:9413   */\n      0x00\n        /* \"#utility.yul\":9429:9449   */\n      tag_551\n        /* \"#utility.yul\":9447:9448   */\n      dup3\n        /* \"#utility.yul\":9429:9449   */\n      tag_419\n      jump\t// in\n    tag_551:\n        /* \"#utility.yul\":9424:9449   */\n      swap2\n      pop\n        /* \"#utility.yul\":9463:9483   */\n      tag_552\n        /* \"#utility.yul\":9481:9482   */\n      dup4\n        /* \"#utility.yul\":9463:9483   */\n      tag_419\n      jump\t// in\n    tag_552:\n        /* \"#utility.yul\":9458:9483   */\n      swap3\n      pop\n        /* \"#utility.yul\":9507:9508   */\n      dup3\n        /* \"#utility.yul\":9504:9505   */\n      dup3\n        /* \"#utility.yul\":9500:9509   */\n      sub\n        /* \"#utility.yul\":9492:9509   */\n      swap1\n      pop\n        /* \"#utility.yul\":9531:9532   */\n      dup2\n        /* \"#utility.yul\":9525:9529   */\n      dup2\n        /* \"#utility.yul\":9522:9533   */\n      gt\n        /* \"#utility.yul\":9519:9556   */\n      iszero\n      tag_553\n      jumpi\n        /* \"#utility.yul\":9536:9554   */\n      tag_554\n      tag_436\n      jump\t// in\n    tag_554:\n        /* \"#utility.yul\":9519:9556   */\n    tag_553:\n        /* \"#utility.yul\":9369:9563   */\n      swap3\n      swap2\n      pop\n      pop\n      jump\t// out\n        /* \"#utility.yul\":9569:9740   */\n    tag_189:\n        /* \"#utility.yul\":9608:9611   */\n      0x00\n        /* \"#utility.yul\":9631:9655   */\n      tag_556\n        /* \"#utility.yul\":9649:9654   */\n      dup3\n        /* \"#utility.yul\":9631:9655   */\n      tag_419\n      jump\t// in\n    tag_556:\n        /* \"#utility.yul\":9622:9655   */\n      swap2\n      pop\n        /* \"#utility.yul\":9677:9681   */\n      0x00\n        /* \"#utility.yul\":9670:9675   */\n      dup3\n        /* \"#utility.yul\":9667:9682   */\n      sub\n        /* \"#utility.yul\":9664:9705   */\n      tag_557\n      jumpi\n        /* \"#utility.yul\":9685:9703   */\n      tag_558\n      tag_436\n      jump\t// in\n    tag_558:\n        /* \"#utility.yul\":9664:9705   */\n    tag_557:\n        /* \"#utility.yul\":9732:9733   */\n      0x01\n        /* \"#utility.yul\":9725:9730   */\n      dup3\n        /* \"#utility.yul\":9721:9734   */\n      sub\n        /* \"#utility.yul\":9714:9734   */\n      swap1\n      pop\n        /* \"#utility.yul\":9569:9740   */\n      swap2\n      swap1\n      pop\n      jump\t// out\n        /* \"#utility.yul\":9746:9918   */\n    tag_438:\n        /* \"#utility.yul\":9886:9910   */\n      0x496e73756666696369656e74206c697175696469747900000000000000000000\n        /* \"#utility.yul\":9882:9883   */\n      0x00\n        /* \"#utility.yul\":9874:9880   */\n      dup3\n        /* \"#utility.yul\":9870:9884   */\n      add\n        /* \"#utility.yul\":9863:9911   */\n      mstore\n        /* \"#utility.yul\":9746:9918   */\n      pop\n      jump\t// out\n        /* \"#utility.yul\":9924:10290   */\n    tag_439:\n        /* \"#utility.yul\":10066:10069   */\n      0x00\n        /* \"#utility.yul\":10087:10154   */\n      tag_561\n        /* \"#utility.yul\":10151:10153   */\n      0x16\n        /* \"#utility.yul\":10146:10149   */\n      dup4\n        /* \"#utility.yul\":10087:10154   */\n      tag_433\n      jump\t// in\n    tag_561:\n        /* \"#utility.yul\":10080:10154   */\n      swap2\n      pop\n        /* \"#utility.yul\":10163:10256   */\n      tag_562\n        /* \"#utility.yul\":10252:10255   */\n      dup3\n        /* \"#utility.yul\":10163:10256   */\n      tag_438\n      jump\t// in\n    tag_562:\n        /* \"#utility.yul\":10281:10283   */\n      0x20\n        /* \"#utility.yul\":10276:10279   */\n      dup3\n        /* \"#utility.yul\":10272:10284   */\n      add\n        /* \"#utility.yul\":10265:10284   */\n      swap1\n      pop\n        /* \"#utility.yul\":9924:10290   */\n      swap2\n      swap1\n      pop\n      jump\t// out\n        /* \"#utility.yul\":10296:10715   */\n    tag_192:\n        /* \"#utility.yul\":10462:10466   */\n      0x00\n        /* \"#utility.yul\":10500:10502   */\n      0x20\n        /* \"#utility.yul\":10489:10498   */\n      dup3\n        /* \"#utility.yul\":10485:10503   */\n      add\n        /* \"#utility.yul\":10477:10503   */\n      swap1\n      pop\n        /* \"#utility.yul\":10549:10558   */\n      dup2\n        /* \"#utility.yul\":10543:10547   */\n      dup2\n        /* \"#utility.yul\":10539:10559   */\n      sub\n        /* \"#utility.yul\":10535:10536   */\n      0x00\n        /* \"#utility.yul\":10524:10533   */\n      dup4\n        /* \"#utility.yul\":10520:10537   */\n      add\n        /* \"#utility.yul\":10513:10560   */\n      mstore\n        /* \"#utility.yul\":10577:10708   */\n      tag_564\n        /* \"#utility.yul\":10703:10707   */\n      dup2\n        /* \"#utility.yul\":10577:10708   */\n      tag_439\n      jump\t// in\n    tag_564:\n        /* \"#utility.yul\":10569:10708   */\n      swap1\n      pop\n        /* \"#utility.yul\":10296:10715   */\n      swap2\n      swap1\n      pop\n      jump\t// out\n        /* \"#utility.yul\":10721:11131   */\n    tag_214:\n        /* \"#utility.yul\":10761:10768   */\n      0x00\n        /* \"#utility.yul\":10784:10804   */\n      tag_566\n        /* \"#utility.yul\":10802:10803   */\n      dup3\n        /* \"#utility.yul\":10784:10804   */\n      tag_419\n      jump\t// in\n    tag_566:\n        /* \"#utility.yul\":10779:10804   */\n      swap2\n      pop\n        /* \"#utility.yul\":10818:10838   */\n      tag_567\n        /* \"#utility.yul\":10836:10837   */\n      dup4\n        /* \"#utility.yul\":10818:10838   */\n      tag_419\n      jump\t// in\n    tag_567:\n        /* \"#utility.yul\":10813:10838   */\n      swap3\n      pop\n        /* \"#utility.yul\":10873:10874   */\n      dup3\n        /* \"#utility.yul\":10870:10871   */\n      dup3\n        /* \"#utility.yul\":10866:10875   */\n      mul\n        /* \"#utility.yul\":10895:10925   */\n      tag_568\n        /* \"#utility.yul\":10913:10924   */\n      dup2\n        /* \"#utility.yul\":10895:10925   */\n      tag_419\n      jump\t// in\n    tag_568:\n        /* \"#utility.yul\":10884:10925   */\n      swap2\n      pop\n        /* \"#utility.yul\":11074:11075   */\n      dup3\n        /* \"#utility.yul\":11065:11072   */\n      dup3\n        /* \"#utility.yul\":11061:11076   */\n      div\n        /* \"#utility.yul\":11058:11059   */\n      dup5\n        /* \"#utility.yul\":11055:11077   */\n      eq\n        /* \"#utility.yul\":11035:11036   */\n      dup4\n        /* \"#utility.yul\":11028:11037   */\n      iszero\n        /* \"#utility.yul\":11008:11091   */\n      or\n        /* \"#utility.yul\":10985:11124   */\n      tag_569\n      jumpi\n        /* \"#utility.yul\":11104:11122   */\n      tag_570\n      tag_436\n      jump\t// in\n    tag_570:\n        /* \"#utility.yul\":10985:11124   */\n    tag_569:\n        /* \"#utility.yul\":10769:11131   */\n      pop\n        /* \"#utility.yul\":10721:11131   */\n      swap3\n      swap2\n      pop\n      pop\n      jump\t// out\n        /* \"#utility.yul\":11137:11579   */\n    tag_239:\n        /* \"#utility.yul\":11286:11290   */\n      0x00\n        /* \"#utility.yul\":11324:11326   */\n      0x60\n        /* \"#utility.yul\":11313:11322   */\n      dup3\n        /* \"#utility.yul\":11309:11327   */\n      add\n        /* \"#utility.yul\":11301:11327   */\n      swap1\n      pop\n        /* \"#utility.yul\":11337:11408   */\n      tag_572\n        /* \"#utility.yul\":11405:11406   */\n      0x00\n        /* \"#utility.yul\":11394:11403   */\n      dup4\n        /* \"#utility.yul\":11390:11407   */\n      add\n        /* \"#utility.yul\":11381:11387   */\n      dup7\n        /* \"#utility.yul\":11337:11408   */\n      tag_415\n      jump\t// in\n    tag_572:\n        /* \"#utility.yul\":11418:11490   */\n      tag_573\n        /* \"#utility.yul\":11486:11488   */\n      0x20\n        /* \"#utility.yul\":11475:11484   */\n      dup4\n        /* \"#utility.yul\":11471:11489   */\n      add\n        /* \"#utility.yul\":11462:11468   */\n      dup6\n        /* \"#utility.yul\":11418:11490   */\n      tag_415\n      jump\t// in\n    tag_573:\n        /* \"#utility.yul\":11500:11572   */\n      tag_574\n        /* \"#utility.yul\":11568:11570   */\n      0x40\n        /* \"#utility.yul\":11557:11566   */\n      dup4\n        /* \"#utility.yul\":11553:11571   */\n      add\n        /* \"#utility.yul\":11544:11550   */\n      dup5\n        /* \"#utility.yul\":11500:11572   */\n      tag_422\n      jump\t// in\n    tag_574:\n        /* \"#utility.yul\":11137:11579   */\n      swap5\n      swap4\n      pop\n      pop\n      pop\n      pop\n      jump\t// out\n        /* \"#utility.yul\":11585:11722   */\n    tag_440:\n        /* \"#utility.yul\":11639:11644   */\n      0x00\n        /* \"#utility.yul\":11670:11676   */\n      dup2\n        /* \"#utility.yul\":11664:11677   */\n      mload\n        /* \"#utility.yul\":11655:11677   */\n      swap1\n      pop\n        /* \"#utility.yul\":11686:11716   */\n      tag_576\n        /* \"#utility.yul\":11710:11715   */\n      dup2\n        /* \"#utility.yul\":11686:11716   */\n      tag_430\n      jump\t// in\n    tag_576:\n        /* \"#utility.yul\":11585:11722   */\n      swap3\n      swap2\n      pop\n      pop\n      jump\t// out\n        /* \"#utility.yul\":11728:12073   */\n    tag_243:\n        /* \"#utility.yul\":11795:11801   */\n      0x00\n        /* \"#utility.yul\":11844:11846   */\n      0x20\n        /* \"#utility.yul\":11832:11841   */\n      dup3\n        /* \"#utility.yul\":11823:11830   */\n      dup5\n        /* \"#utility.yul\":11819:11842   */\n      sub\n        /* \"#utility.yul\":11815:11847   */\n      slt\n        /* \"#utility.yul\":11812:11931   */\n      iszero\n      tag_578\n      jumpi\n        /* \"#utility.yul\":11850:11929   */\n      tag_579\n      tag_417\n      jump\t// in\n    tag_579:\n        /* \"#utility.yul\":11812:11931   */\n    tag_578:\n        /* \"#utility.yul\":11970:11971   */\n      0x00\n        /* \"#utility.yul\":11995:12056   */\n      tag_580\n        /* \"#utility.yul\":12048:12055   */\n      dup5\n        /* \"#utility.yul\":12039:12045   */\n      dup3\n        /* \"#utility.yul\":12028:12037   */\n      dup6\n        /* \"#utility.yul\":12024:12046   */\n      add\n        /* \"#utility.yul\":11995:12056   */\n      tag_440\n      jump\t// in\n    tag_580:\n        /* \"#utility.yul\":11985:12056   */\n      swap2\n      pop\n        /* \"#utility.yul\":11941:12066   */\n      pop\n        /* \"#utility.yul\":11728:12073   */\n      swap3\n      swap2\n      pop\n      pop\n      jump\t// out\n        /* \"#utility.yul\":12079:12244   */\n    tag_441:\n        /* \"#utility.yul\":12219:12236   */\n      0x5472616e73666572206661696c65640000000000000000000000000000000000\n        /* \"#utility.yul\":12215:12216   */\n      0x00\n        /* \"#utility.yul\":12207:12213   */\n      dup3\n        /* \"#utility.yul\":12203:12217   */\n      add\n        /* \"#utility.yul\":12196:12237   */\n      mstore\n        /* \"#utility.yul\":12079:12244   */\n      pop\n      jump\t// out\n        /* \"#utility.yul\":12250:12616   */\n    tag_442:\n        /* \"#utility.yul\":12392:12395   */\n      0x00\n        /* \"#utility.yul\":12413:12480   */\n      tag_583\n        /* \"#utility.yul\":12477:12479   */\n      0x0f\n        /* \"#utility.yul\":12472:12475   */\n      dup4\n        /* \"#utility.yul\":12413:12480   */\n      tag_433\n      jump\t// in\n    tag_583:\n        /* \"#utility.yul\":12406:12480   */\n      swap2\n      pop\n        /* \"#utility.yul\":12489:12582   */\n      tag_584\n        /* \"#utility.yul\":12578:12581   */\n      dup3\n        /* \"#utility.yul\":12489:12582   */\n      tag_441\n      jump\t// in\n    tag_584:\n        /* \"#utility.yul\":12607:12609   */\n      0x20\n        /* \"#utility.yul\":12602:12605   */\n      dup3\n        /* \"#utility.yul\":12598:12610   */\n      add\n        /* \"#utility.yul\":12591:12610   */\n      swap1\n      pop\n        /* \"#utility.yul\":12250:12616   */\n      swap2\n      swap1\n      pop\n      jump\t// out\n        /* \"#utility.yul\":12622:13041   */\n    tag_246:\n        /* \"#utility.yul\":12788:12792   */\n      0x00\n        /* \"#utility.yul\":12826:12828   */\n      0x20\n        /* \"#utility.yul\":12815:12824   */\n      dup3\n        /* \"#utility.yul\":12811:12829   */\n      add\n        /* \"#utility.yul\":12803:12829   */\n      swap1\n      pop\n        /* \"#utility.yul\":12875:12884   */\n      dup2\n        /* \"#utility.yul\":12869:12873   */\n      dup2\n        /* \"#utility.yul\":12865:12885   */\n      sub\n        /* \"#utility.yul\":12861:12862   */\n      0x00\n        /* \"#utility.yul\":12850:12859   */\n      dup4\n        /* \"#utility.yul\":12846:12863   */\n      add\n        /* \"#utility.yul\":12839:12886   */\n      mstore\n        /* \"#utility.yul\":12903:13034   */\n      tag_586\n        /* \"#utility.yul\":13029:13033   */\n      dup2\n        /* \"#utility.yul\":12903:13034   */\n      tag_442\n      jump\t// in\n    tag_586:\n        /* \"#utility.yul\":12895:13034   */\n      swap1\n      pop\n        /* \"#utility.yul\":12622:13041   */\n      swap2\n      swap1\n      pop\n      jump\t// out\n        /* \"#utility.yul\":13047:13273   */\n    tag_443:\n        /* \"#utility.yul\":13187:13221   */\n      0x4c697175696469747920616464726573732069732079657420746f2062652061\n        /* \"#utility.yul\":13183:13184   */\n      0x00\n        /* \"#utility.yul\":13175:13181   */\n      dup3\n        /* \"#utility.yul\":13171:13185   */\n      add\n        /* \"#utility.yul\":13164:13222   */\n      mstore\n        /* \"#utility.yul\":13256:13265   */\n      0x737369676e656400000000000000000000000000000000000000000000000000\n        /* \"#utility.yul\":13251:13253   */\n      0x20\n        /* \"#utility.yul\":13243:13249   */\n      dup3\n        /* \"#utility.yul\":13239:13254   */\n      add\n        /* \"#utility.yul\":13232:13266   */\n      mstore\n        /* \"#utility.yul\":13047:13273   */\n      pop\n      jump\t// out\n        /* \"#utility.yul\":13279:13645   */\n    tag_444:\n        /* \"#utility.yul\":13421:13424   */\n      0x00\n        /* \"#utility.yul\":13442:13509   */\n      tag_589\n        /* \"#utility.yul\":13506:13508   */\n      0x27\n        /* \"#utility.yul\":13501:13504   */\n      dup4\n        /* \"#utility.yul\":13442:13509   */\n      tag_433\n      jump\t// in\n    tag_589:\n        /* \"#utility.yul\":13435:13509   */\n      swap2\n      pop\n        /* \"#utility.yul\":13518:13611   */\n      tag_590\n        /* \"#utility.yul\":13607:13610   */\n      dup3\n        /* \"#utility.yul\":13518:13611   */\n      tag_443\n      jump\t// in\n    tag_590:\n        /* \"#utility.yul\":13636:13638   */\n      0x40\n        /* \"#utility.yul\":13631:13634   */\n      dup3\n        /* \"#utility.yul\":13627:13639   */\n      add\n        /* \"#utility.yul\":13620:13639   */\n      swap1\n      pop\n        /* \"#utility.yul\":13279:13645   */\n      swap2\n      swap1\n      pop\n      jump\t// out\n        /* \"#utility.yul\":13651:14070   */\n    tag_263:\n        /* \"#utility.yul\":13817:13821   */\n      0x00\n        /* \"#utility.yul\":13855:13857   */\n      0x20\n        /* \"#utility.yul\":13844:13853   */\n      dup3\n        /* \"#utility.yul\":13840:13858   */\n      add\n        /* \"#utility.yul\":13832:13858   */\n      swap1\n      pop\n        /* \"#utility.yul\":13904:13913   */\n      dup2\n        /* \"#utility.yul\":13898:13902   */\n      dup2\n        /* \"#utility.yul\":13894:13914   */\n      sub\n        /* \"#utility.yul\":13890:13891   */\n      0x00\n        /* \"#utility.yul\":13879:13888   */\n      dup4\n        /* \"#utility.yul\":13875:13892   */\n      add\n        /* \"#utility.yul\":13868:13915   */\n      mstore\n        /* \"#utility.yul\":13932:14063   */\n      tag_592\n        /* \"#utility.yul\":14058:14062   */\n      dup2\n        /* \"#utility.yul\":13932:14063   */\n      tag_444\n      jump\t// in\n    tag_592:\n        /* \"#utility.yul\":13924:14063   */\n      swap1\n      pop\n        /* \"#utility.yul\":13651:14070   */\n      swap2\n      swap1\n      pop\n      jump\t// out\n        /* \"#utility.yul\":14076:14256   */\n    tag_266:\n        /* \"#utility.yul\":14124:14201   */\n      0x4e487b7100000000000000000000000000000000000000000000000000000000\n        /* \"#utility.yul\":14121:14122   */\n      0x00\n        /* \"#utility.yul\":14114:14202   */\n      mstore\n        /* \"#utility.yul\":14221:14225   */\n      0x41\n        /* \"#utility.yul\":14218:14219   */\n      0x04\n        /* \"#utility.yul\":14211:14226   */\n      mstore\n        /* \"#utility.yul\":14245:14249   */\n      0x24\n        /* \"#utility.yul\":14242:14243   */\n      0x00\n        /* \"#utility.yul\":14235:14250   */\n      revert\n        /* \"#utility.yul\":14262:14594   */\n    tag_272:\n        /* \"#utility.yul\":14383:14387   */\n      0x00\n        /* \"#utility.yul\":14421:14423   */\n      0x40\n        /* \"#utility.yul\":14410:14419   */\n      dup3\n        /* \"#utility.yul\":14406:14424   */\n      add\n        /* \"#utility.yul\":14398:14424   */\n      swap1\n      pop\n        /* \"#utility.yul\":14434:14505   */\n      tag_595\n        /* \"#utility.yul\":14502:14503   */\n      0x00\n        /* \"#utility.yul\":14491:14500   */\n      dup4\n        /* \"#utility.yul\":14487:14504   */\n      add\n        /* \"#utility.yul\":14478:14484   */\n      dup6\n        /* \"#utility.yul\":14434:14505   */\n      tag_415\n      jump\t// in\n    tag_595:\n        /* \"#utility.yul\":14515:14587   */\n      tag_596\n        /* \"#utility.yul\":14583:14585   */\n      0x20\n        /* \"#utility.yul\":14572:14581   */\n      dup4\n        /* \"#utility.yul\":14568:14586   */\n      add\n        /* \"#utility.yul\":14559:14565   */\n      dup5\n        /* \"#utility.yul\":14515:14587   */\n      tag_422\n      jump\t// in\n    tag_596:\n        /* \"#utility.yul\":14262:14594   */\n      swap4\n      swap3\n      pop\n      pop\n      pop\n      jump\t// out\n        /* \"#utility.yul\":14600:14743   */\n    tag_445:\n        /* \"#utility.yul\":14657:14662   */\n      0x00\n        /* \"#utility.yul\":14688:14694   */\n      dup2\n        /* \"#utility.yul\":14682:14695   */\n      mload\n        /* \"#utility.yul\":14673:14695   */\n      swap1\n      pop\n        /* \"#utility.yul\":14704:14737   */\n      tag_598\n        /* \"#utility.yul\":14731:14736   */\n      dup2\n        /* \"#utility.yul\":14704:14737   */\n      tag_420\n      jump\t// in\n    tag_598:\n        /* \"#utility.yul\":14600:14743   */\n      swap3\n      swap2\n      pop\n      pop\n      jump\t// out\n        /* \"#utility.yul\":14749:15100   */\n    tag_276:\n        /* \"#utility.yul\":14819:14825   */\n      0x00\n        /* \"#utility.yul\":14868:14870   */\n      0x20\n        /* \"#utility.yul\":14856:14865   */\n      dup3\n        /* \"#utility.yul\":14847:14854   */\n      dup5\n        /* \"#utility.yul\":14843:14866   */\n      sub\n        /* \"#utility.yul\":14839:14871   */\n      slt\n        /* \"#utility.yul\":14836:14955   */\n      iszero\n      tag_600\n      jumpi\n        /* \"#utility.yul\":14874:14953   */\n      tag_601\n      tag_417\n      jump\t// in\n    tag_601:\n        /* \"#utility.yul\":14836:14955   */\n    tag_600:\n        /* \"#utility.yul\":14994:14995   */\n      0x00\n        /* \"#utility.yul\":15019:15083   */\n      tag_602\n        /* \"#utility.yul\":15075:15082   */\n      dup5\n        /* \"#utility.yul\":15066:15072   */\n      dup3\n        /* \"#utility.yul\":15055:15064   */\n      dup6\n        /* \"#utility.yul\":15051:15073   */\n      add\n        /* \"#utility.yul\":15019:15083   */\n      tag_445\n      jump\t// in\n    tag_602:\n        /* \"#utility.yul\":15009:15083   */\n      swap2\n      pop\n        /* \"#utility.yul\":14965:15093   */\n      pop\n        /* \"#utility.yul\":14749:15100   */\n      swap3\n      swap2\n      pop\n      pop\n      jump\t// out\n        /* \"#utility.yul\":15106:15204   */\n    tag_446:\n        /* \"#utility.yul\":15157:15163   */\n      0x00\n        /* \"#utility.yul\":15191:15196   */\n      dup2\n        /* \"#utility.yul\":15185:15197   */\n      mload\n        /* \"#utility.yul\":15175:15197   */\n      swap1\n      pop\n        /* \"#utility.yul\":15106:15204   */\n      swap2\n      swap1\n      pop\n      jump\t// out\n        /* \"#utility.yul\":15210:15378   */\n    tag_447:\n        /* \"#utility.yul\":15293:15304   */\n      0x00\n        /* \"#utility.yul\":15327:15333   */\n      dup3\n        /* \"#utility.yul\":15322:15325   */\n      dup3\n        /* \"#utility.yul\":15315:15334   */\n      mstore\n        /* \"#utility.yul\":15367:15371   */\n      0x20\n        /* \"#utility.yul\":15362:15365   */\n      dup3\n        /* \"#utility.yul\":15358:15372   */\n      add\n        /* \"#utility.yul\":15343:15372   */\n      swap1\n      pop\n        /* \"#utility.yul\":15210:15378   */\n      swap3\n      swap2\n      pop\n      pop\n      jump\t// out\n        /* \"#utility.yul\":15384:15523   */\n    tag_448:\n        /* \"#utility.yul\":15473:15479   */\n      dup3\n        /* \"#utility.yul\":15468:15471   */\n      dup2\n        /* \"#utility.yul\":15463:15466   */\n      dup4\n        /* \"#utility.yul\":15457:15480   */\n      mcopy\n        /* \"#utility.yul\":15514:15515   */\n      0x00\n        /* \"#utility.yul\":15505:15511   */\n      dup4\n        /* \"#utility.yul\":15500:15503   */\n      dup4\n        /* \"#utility.yul\":15496:15512   */\n      add\n        /* \"#utility.yul\":15489:15516   */\n      mstore\n        /* \"#utility.yul\":15384:15523   */\n      pop\n      pop\n      pop\n      jump\t// out\n        /* \"#utility.yul\":15529:15631   */\n    tag_449:\n        /* \"#utility.yul\":15570:15576   */\n      0x00\n        /* \"#utility.yul\":15621:15623   */\n      0x1f\n        /* \"#utility.yul\":15617:15624   */\n      not\n        /* \"#utility.yul\":15612:15614   */\n      0x1f\n        /* \"#utility.yul\":15605:15610   */\n      dup4\n        /* \"#utility.yul\":15601:15615   */\n      add\n        /* \"#utility.yul\":15597:15625   */\n      and\n        /* \"#utility.yul\":15587:15625   */\n      swap1\n      pop\n        /* \"#utility.yul\":15529:15631   */\n      swap2\n      swap1\n      pop\n      jump\t// out\n        /* \"#utility.yul\":15637:16010   */\n    tag_450:\n        /* \"#utility.yul\":15723:15726   */\n      0x00\n        /* \"#utility.yul\":15751:15789   */\n      tag_608\n        /* \"#utility.yul\":15783:15788   */\n      dup3\n        /* \"#utility.yul\":15751:15789   */\n      tag_446\n      jump\t// in\n    tag_608:\n        /* \"#utility.yul\":15805:15875   */\n      tag_609\n        /* \"#utility.yul\":15868:15874   */\n      dup2\n        /* \"#utility.yul\":15863:15866   */\n      dup6\n        /* \"#utility.yul\":15805:15875   */\n      tag_447\n      jump\t// in\n    tag_609:\n        /* \"#utility.yul\":15798:15875   */\n      swap4\n      pop\n        /* \"#utility.yul\":15884:15949   */\n      tag_610\n        /* \"#utility.yul\":15942:15948   */\n      dup2\n        /* \"#utility.yul\":15937:15940   */\n      dup6\n        /* \"#utility.yul\":15930:15934   */\n      0x20\n        /* \"#utility.yul\":15923:15928   */\n      dup7\n        /* \"#utility.yul\":15919:15935   */\n      add\n        /* \"#utility.yul\":15884:15949   */\n      tag_448\n      jump\t// in\n    tag_610:\n        /* \"#utility.yul\":15974:16003   */\n      tag_611\n        /* \"#utility.yul\":15996:16002   */\n      dup2\n        /* \"#utility.yul\":15974:16003   */\n      tag_449\n      jump\t// in\n    tag_611:\n        /* \"#utility.yul\":15969:15972   */\n      dup5\n        /* \"#utility.yul\":15965:16004   */\n      add\n        /* \"#utility.yul\":15958:16004   */\n      swap2\n      pop\n        /* \"#utility.yul\":15727:16010   */\n      pop\n        /* \"#utility.yul\":15637:16010   */\n      swap3\n      swap2\n      pop\n      pop\n      jump\t// out\n        /* \"#utility.yul\":16016:16656   */\n    tag_278:\n        /* \"#utility.yul\":16211:16215   */\n      0x00\n        /* \"#utility.yul\":16249:16252   */\n      0x80\n        /* \"#utility.yul\":16238:16247   */\n      dup3\n        /* \"#utility.yul\":16234:16253   */\n      add\n        /* \"#utility.yul\":16226:16253   */\n      swap1\n      pop\n        /* \"#utility.yul\":16263:16334   */\n      tag_613\n        /* \"#utility.yul\":16331:16332   */\n      0x00\n        /* \"#utility.yul\":16320:16329   */\n      dup4\n        /* \"#utility.yul\":16316:16333   */\n      add\n        /* \"#utility.yul\":16307:16313   */\n      dup8\n        /* \"#utility.yul\":16263:16334   */\n      tag_415\n      jump\t// in\n    tag_613:\n        /* \"#utility.yul\":16344:16416   */\n      tag_614\n        /* \"#utility.yul\":16412:16414   */\n      0x20\n        /* \"#utility.yul\":16401:16410   */\n      dup4\n        /* \"#utility.yul\":16397:16415   */\n      add\n        /* \"#utility.yul\":16388:16394   */\n      dup7\n        /* \"#utility.yul\":16344:16416   */\n      tag_415\n      jump\t// in\n    tag_614:\n        /* \"#utility.yul\":16426:16498   */\n      tag_615\n        /* \"#utility.yul\":16494:16496   */\n      0x40\n        /* \"#utility.yul\":16483:16492   */\n      dup4\n        /* \"#utility.yul\":16479:16497   */\n      add\n        /* \"#utility.yul\":16470:16476   */\n      dup6\n        /* \"#utility.yul\":16426:16498   */\n      tag_422\n      jump\t// in\n    tag_615:\n        /* \"#utility.yul\":16545:16554   */\n      dup2\n        /* \"#utility.yul\":16539:16543   */\n      dup2\n        /* \"#utility.yul\":16535:16555   */\n      sub\n        /* \"#utility.yul\":16530:16532   */\n      0x60\n        /* \"#utility.yul\":16519:16528   */\n      dup4\n        /* \"#utility.yul\":16515:16533   */\n      add\n        /* \"#utility.yul\":16508:16556   */\n      mstore\n        /* \"#utility.yul\":16573:16649   */\n      tag_616\n        /* \"#utility.yul\":16644:16648   */\n      dup2\n        /* \"#utility.yul\":16635:16641   */\n      dup5\n        /* \"#utility.yul\":16573:16649   */\n      tag_450\n      jump\t// in\n    tag_616:\n        /* \"#utility.yul\":16565:16649   */\n      swap1\n      pop\n        /* \"#utility.yul\":16016:16656   */\n      swap6\n      swap5\n      pop\n      pop\n      pop\n      pop\n      pop\n      jump\t// out\n        /* \"#utility.yul\":16662:16895   */\n    tag_381:\n        /* \"#utility.yul\":16701:16704   */\n      0x00\n        /* \"#utility.yul\":16724:16748   */\n      tag_618\n        /* \"#utility.yul\":16742:16747   */\n      dup3\n        /* \"#utility.yul\":16724:16748   */\n      tag_419\n      jump\t// in\n    tag_618:\n        /* \"#utility.yul\":16715:16748   */\n      swap2\n      pop\n        /* \"#utility.yul\":16770:16836   */\n      0xffffffffffffffffffffffffffffffffffffffffffffffffffffffffffffffff\n        /* \"#utility.yul\":16763:16768   */\n      dup3\n        /* \"#utility.yul\":16760:16837   */\n      sub\n        /* \"#utility.yul\":16757:16860   */\n      tag_619\n      jumpi\n        /* \"#utility.yul\":16840:16858   */\n      tag_620\n      tag_436\n      jump\t// in\n    tag_620:\n        /* \"#utility.yul\":16757:16860   */\n    tag_619:\n        /* \"#utility.yul\":16887:16888   */\n      0x01\n        /* \"#utility.yul\":16880:16885   */\n      dup3\n        /* \"#utility.yul\":16876:16889   */\n      add\n        /* \"#utility.yul\":16869:16889   */\n      swap1\n      pop\n        /* \"#utility.yul\":16662:16895   */\n      swap2\n      swap1\n      pop\n      jump\t// out\n        /* \"#utility.yul\":16901:17081   */\n    tag_399:\n        /* \"#utility.yul\":16949:17026   */\n      0x4e487b7100000000000000000000000000000000000000000000000000000000\n        /* \"#utility.yul\":16946:16947   */\n      0x00\n        /* \"#utility.yul\":16939:17027   */\n      mstore\n        /* \"#utility.yul\":17046:17050   */\n      0x31\n        /* \"#utility.yul\":17043:17044   */\n      0x04\n        /* \"#utility.yul\":17036:17051   */\n      mstore\n        /* \"#utility.yul\":17070:17074   */\n      0x24\n        /* \"#utility.yul\":17067:17068   */\n      0x00\n        /* \"#utility.yul\":17060:17075   */\n      revert\n\n    auxdata: 0xa264697066735822122084d3a494e1e2fd3a08bf98d643900d921d904f5752c5d03996a34b524031db3764736f6c63430008190033\n}\n",
				"bytecode": {
					"linkReferences": {},
					"object": "6080604052348015600e575f80fd5b50335f806101000a81548173ffffffffffffffffffffffffffffffffffffffff021916908373ffffffffffffffffffffffffffffffffffffffff1602179055503360055f6101000a81548173ffffffffffffffffffffffffffffffffffffffff021916908373ffffffffffffffffffffffffffffffffffffffff160217905550612b888061009b5f395ff3fe608060405234801561000f575f80fd5b506004361061018c575f3560e01c80638e991592116100dc578063dcc9606f11610095578063e91a7ca61161006f578063e91a7ca614610452578063f2fde38b1461046e578063f56e9c661461048a578063fb5b82d0146104a65761018c565b8063dcc9606f146103ea578063dd81b5ae14610406578063e53442f0146104225761018c565b80638e991592146103205780638f32d59b1461033e57806398d5fdca1461035c578063c80f4e351461037a578063d212a69a146103b0578063db9fcd01146103ce5761018c565b8063491d0a56116101495780636cc62992116101235780636cc62992146102aa578063715018a6146102da5780637c0b8de2146102e45780638da5cb5b146103025761018c565b8063491d0a56146102525780634e36245d14610270578063678660fb1461028c5761018c565b806304bb60ce146101905780630a861f2a146101ae578063235b6ea1146101ca57806336171e0e146101e85780633bd11f571461020457806341796a1714610222575b5f80fd5b6101986104c2565b6040516101a591906122b1565b60405180910390f35b6101c860048036038101906101c39190612301565b6104e7565b005b6101d261081d565b6040516101df919061233b565b60405180910390f35b61020260048036038101906101fd919061237e565b610823565b005b61020c61087f565b604051610219919061233b565b60405180910390f35b61023c60048036038101906102379190612301565b610885565b604051610249919061245a565b60405180910390f35b61025a61089e565b60405161026791906122b1565b60405180910390f35b61028a60048036038101906102859190612301565b6108c3565b005b610294610a73565b6040516102a1919061233b565b60405180910390f35b6102c460048036038101906102bf919061249d565b610a79565b6040516102d1919061233b565b60405180910390f35b6102e2610a95565b005b6102ec610b48565b6040516102f991906122b1565b60405180910390f35b61030a610b6d565b60405161031791906122b1565b60405180910390f35b610328610b94565b60405161033591906122b1565b60405180910390f35b610346610bb9565b60405161035391906124d7565b60405180910390f35b610364610c0e565b604051610371919061233b565b60405180910390f35b610394600480360381019061038f9190612301565b610c1c565b6040516103a797969594939291906124f0565b60405180910390f35b6103b8610c94565b6040516103c5919061233b565b60405180910390f35b6103e860048036038101906103e3919061237e565b610c9a565b005b61040460048036038101906103ff9190612301565b610d2d565b005b610420600480360381019061041b9190612301565b610f00565b005b61043c6004803603810190610437919061255d565b611011565b604051610449919061245a565b60405180910390f35b61046c60048036038101906104679190612301565b61123c565b005b6104886004803603810190610483919061237e565b61148f565b005b6104a4600480360381019061049f919061237e565b6114ab565b005b6104c060048036038101906104bb919061237e565b61153e565b005b60025f9054906101000a900473ffffffffffffffffffffffffffffffffffffffff1681565b5f3390505f60085f8373ffffffffffffffffffffffffffffffffffffffff1673ffffffffffffffffffffffffffffffffffffffff1681526020019081526020015f2080548060200260200160405190810160405280929190818152602001828054801561057157602002820191905f5260205f20905b81548152602001906001019080831161055d575b50505050509050805183106105bb576040517f08c379a00000000000000000000000000000000000000000000000000000000081526004016105b2906125f5565b60405180910390fd5b5f8184815181106105cf576105ce612613565b5b602002602001015190505f600982815481106105ee576105ed612613565b5b905f5260205f2090600702016040518060e00160405290815f82015f9054906101000a900473ffffffffffffffffffffffffffffffffffffffff1673ffffffffffffffffffffffffffffffffffffffff1673ffffffffffffffffffffffffffffffffffffffff16815260200160018201548152602001600282015481526020016003820154815260200160048201548152602001600582015f9054906101000a900460ff1615151515815260200160068201548152505090505f816060015190505f826080015190505f81836106c4919061266d565b90505f83826106d391906126cd565b90505f83836106e291906126cd565b90505f60065f9054906101000a900473ffffffffffffffffffffffffffffffffffffffff1690505f600754848861071991906126cd565b61072391906126cd565b90505f838761073291906126cd565b90508273ffffffffffffffffffffffffffffffffffffffff1663c1d2d00d838e6040518363ffffffff1660e01b815260040161076f9291906126fd565b5f604051808303815f87803b158015610786575f80fd5b505af1158015610798573d5f803e3d5ffd5b505050508273ffffffffffffffffffffffffffffffffffffffff16638cda7bb4828e6040518363ffffffff1660e01b81526004016107d79291906126fd565b5f604051808303815f87803b1580156107ee575f80fd5b505af1158015610800573d5f803e3d5ffd5b5050505061080e898b611591565b50505050505050505050505050565b60075481565b61082b610bb9565b610833575f80fd5b8060065f6101000a81548173ffffffffffffffffffffffffffffffffffffffff021916908373ffffffffffffffffffffffffffffffffffffffff16021790555061087b6116ef565b5050565b600c5481565b61088d6121dc565b6108973383611011565b9050919050565b60065f9054906101000a900473ffffffffffffffffffffffffffffffffffffffff1681565b5f805f60085f3373ffffffffffffffffffffffffffffffffffffffff1673ffffffffffffffffffffffffffffffffffffffff1681526020019081526020015f2080548060200260200160405190810160405280929190818152602001828054801561094b57602002820191905f5260205f20905b815481526020019060010190808311610937575b505050505090505f60075490505f6109628661188e565b90505f8190505f805f80875190505b5f8111801561097f57505f85115b15610a24576001816109919190612724565b915060098883815181106109a8576109a7612613565b5b6020026020010151815481106109c1576109c0612613565b5b905f5260205f20906007020199506109d96001611a5f565b8094508195505050600983815481106109f5576109f4612613565b5b905f5260205f2090600702019850610a0f8a8a878a611bb5565b94508080610a1c90612757565b915050610971565b5f8514610a66576040517f08c379a0000000000000000000000000000000000000000000000000000000008152600401610a5d906127c8565b60405180910390fd5b5050505050505050505050565b600b5481565b5f8115610a8a57600e549050610a90565b600d5490505b919050565b610a9d610bb9565b610aa5575f80fd5b5f8054906101000a900473ffffffffffffffffffffffffffffffffffffffff1673ffffffffffffffffffffffffffffffffffffffff167ff8df31144d9c2f0f6b59d69b8b98abd5459d07f2742c4df920b25aae33c6482060405160405180910390a25f805f6101000a81548173ffffffffffffffffffffffffffffffffffffffff021916908373ffffffffffffffffffffffffffffffffffffffff160217905550565b60015f9054906101000a900473ffffffffffffffffffffffffffffffffffffffff1681565b5f805f9054906101000a900473ffffffffffffffffffffffffffffffffffffffff16905090565b60055f9054906101000a900473ffffffffffffffffffffffffffffffffffffffff1681565b5f805f9054906101000a900473ffffffffffffffffffffffffffffffffffffffff1673ffffffffffffffffffffffffffffffffffffffff163373ffffffffffffffffffffffffffffffffffffffff1614905090565b5f610c176116ef565b905090565b60098181548110610c2b575f80fd5b905f5260205f2090600702015f91509050805f015f9054906101000a900473ffffffffffffffffffffffffffffffffffffffff1690806001015490806002015490806003015490806004015490806005015f9054906101000a900460ff16908060060154905087565b600a5481565b610ca2610bb9565b610caa575f80fd5b8060025f6101000a81548173ffffffffffffffffffffffffffffffffffffffff021916908373ffffffffffffffffffffffffffffffffffffffff1602179055508060035f6101000a81548173ffffffffffffffffffffffffffffffffffffffff021916908373ffffffffffffffffffffffffffffffffffffffff16021790555050565b5f805f60085f3373ffffffffffffffffffffffffffffffffffffffff1673ffffffffffffffffffffffffffffffffffffffff1681526020019081526020015f20805480602002602001604051908101604052809291908181526020018280548015610db557602002820191905f5260205f20905b815481526020019060010190808311610da1575b505050505090505f60075490505f8186610dcf91906127e6565b9050610dda8161188e565b81610de59190612724565b90505f8282610df491906126cd565b90505f805f80875190505b5f81118015610e0d57505f85115b15610eb157600181610e1f9190612724565b91506009888381518110610e3657610e35612613565b5b602002602001015181548110610e4f57610e4e612613565b5b905f5260205f2090600702019950610e665f611a5f565b809450819550505060098381548110610e8257610e81612613565b5b905f5260205f2090600702019850610e9c8a8a878a611c45565b94508080610ea990612757565b915050610dff565b5f8514610ef3576040517f08c379a0000000000000000000000000000000000000000000000000000000008152600401610eea906127c8565b60405180910390fd5b5050505050505050505050565b5f60035f9054906101000a900473ffffffffffffffffffffffffffffffffffffffff1673ffffffffffffffffffffffffffffffffffffffff166323b872dd3360065f9054906101000a900473ffffffffffffffffffffffffffffffffffffffff16856040518463ffffffff1660e01b8152600401610f8093929190612827565b6020604051808303815f875af1158015610f9c573d5f803e3d5ffd5b505050506040513d601f19601f82011682018060405250810190610fc09190612870565b905080611002576040517f08c379a0000000000000000000000000000000000000000000000000000000008152600401610ff9906128e5565b60405180910390fd5b61100d826001611cd5565b5050565b6110196121dc565b5f60085f8573ffffffffffffffffffffffffffffffffffffffff1673ffffffffffffffffffffffffffffffffffffffff1681526020019081526020015f2080548060200260200160405190810160405280929190818152602001828054801561109f57602002820191905f5260205f20905b81548152602001906001019080831161108b575b50505050509050805183106110e9576040517f08c379a00000000000000000000000000000000000000000000000000000000081526004016110e0906125f5565b60405180910390fd5b5f8184815181106110fd576110fc612613565b5b602002602001015190505f6009828154811061111c5761111b612613565b5b905f5260205f2090600702016040518060e00160405290815f82015f9054906101000a900473ffffffffffffffffffffffffffffffffffffffff1673ffffffffffffffffffffffffffffffffffffffff1673ffffffffffffffffffffffffffffffffffffffff16815260200160018201548152602001600282015481526020016003820154815260200160048201548152602001600582015f9054906101000a900460ff1615151515815260200160068201548152505090506040518060c00160405280825f015173ffffffffffffffffffffffffffffffffffffffff168152602001826020015181526020018260400151815260200182606001518152602001826080015181526020018260a001511515815250935050505092915050565b5f73ffffffffffffffffffffffffffffffffffffffff1660065f9054906101000a900473ffffffffffffffffffffffffffffffffffffffff1673ffffffffffffffffffffffffffffffffffffffff16036112cb576040517f08c379a00000000000000000000000000000000000000000000000000000000081526004016112c290612973565b60405180910390fd5b5f805f67ffffffffffffffff8111156112e7576112e6612991565b5b6040519080825280601f01601f1916602001820160405280156113195781602001600182028036833780820191505090505b5090505f5b8381101561147e5760045f9054906101000a900473ffffffffffffffffffffffffffffffffffffffff1673ffffffffffffffffffffffffffffffffffffffff16632f745c5933836040518363ffffffff1660e01b81526004016113829291906129be565b602060405180830381865afa15801561139d573d5f803e3d5ffd5b505050506040513d601f19601f820116820180604052508101906113c191906129f9565b925060045f9054906101000a900473ffffffffffffffffffffffffffffffffffffffff1673ffffffffffffffffffffffffffffffffffffffff1663b88d4fde3360065f9054906101000a900473ffffffffffffffffffffffffffffffffffffffff1686866040518563ffffffff1660e01b81526004016114449493929190612a94565b5f604051808303815f87803b15801561145b575f80fd5b505af115801561146d573d5f803e3d5ffd5b50505050808060010191505061131e565b5061148a836001611cd5565b505050565b611497610bb9565b61149f575f80fd5b6114a881611ead565b50565b6114b3610bb9565b6114bb575f80fd5b8060015f6101000a81548173ffffffffffffffffffffffffffffffffffffffff021916908373ffffffffffffffffffffffffffffffffffffffff1602179055508060045f6101000a81548173ffffffffffffffffffffffffffffffffffffffff021916908373ffffffffffffffffffffffffffffffffffffffff16021790555050565b611546610bb9565b61154e575f80fd5b8060055f6101000a81548173ffffffffffffffffffffffffffffffffffffffff021916908373ffffffffffffffffffffffffffffffffffffffff16021790555050565b5f8260c0015190505f8060085f3373ffffffffffffffffffffffffffffffffffffffff1673ffffffffffffffffffffffffffffffffffffffff1681526020019081526020015f2090506115e48184611f9f565b156116305760098184815481106115fe576115fd612613565b5b905f5260205f2001548154811061161857611617612613565b5b905f5260205f20906007020191508282600601819055505b61163b60098561202b565b156116e8576009848154811061165457611653612613565b5b905f5260205f2090600702019150816006015492508360085f845f015f9054906101000a900473ffffffffffffffffffffffffffffffffffffffff1673ffffffffffffffffffffffffffffffffffffffff1673ffffffffffffffffffffffffffffffffffffffff1681526020019081526020015f2084815481106116db576116da612613565b5b905f5260205f2001819055505b5050505050565b5f8060035f9054906101000a900473ffffffffffffffffffffffffffffffffffffffff1673ffffffffffffffffffffffffffffffffffffffff166370a0823160065f9054906101000a900473ffffffffffffffffffffffffffffffffffffffff166040518263ffffffff1660e01b815260040161176c91906122b1565b602060405180830381865afa158015611787573d5f803e3d5ffd5b505050506040513d601f19601f820116820180604052508101906117ab91906129f9565b90505f60045f9054906101000a900473ffffffffffffffffffffffffffffffffffffffff1673ffffffffffffffffffffffffffffffffffffffff166370a0823160065f9054906101000a900473ffffffffffffffffffffffffffffffffffffffff166040518263ffffffff1660e01b815260040161182991906122b1565b602060405180830381865afa158015611844573d5f803e3d5ffd5b505050506040513d601f19601f8201168201806040525081019061186891906129f9565b90505f811461188457808261187d91906126cd565b6007819055505b6007549250505090565b5f806127106005846118a091906127e6565b6118aa91906126cd565b90505f6005826118ba91906126cd565b90505f81836118c99190612724565b90505f60035f9054906101000a900473ffffffffffffffffffffffffffffffffffffffff1673ffffffffffffffffffffffffffffffffffffffff1663a9059cbb60055f9054906101000a900473ffffffffffffffffffffffffffffffffffffffff16856040518363ffffffff1660e01b81526004016119499291906129be565b6020604051808303815f875af1158015611965573d5f803e3d5ffd5b505050506040513d601f19601f820116820180604052508101906119899190612870565b905080611994575f80fd5b60035f9054906101000a900473ffffffffffffffffffffffffffffffffffffffff1673ffffffffffffffffffffffffffffffffffffffff1663a9059cbb30846040518363ffffffff1660e01b81526004016119f09291906129be565b6020604051808303815f875af1158015611a0c573d5f803e3d5ffd5b505050506040513d601f19601f82011682018060405250810190611a309190612870565b905080611a3b575f80fd5b81600a5f828254611a4c919061266d565b9250508190555083945050505050919050565b5f80611a69612224565b5f60098054905090505b5f81118015611a80575083155b15611bae57600181611a929190612724565b925060098381548110611aa857611aa7612613565b5b905f5260205f2090600702016040518060e00160405290815f82015f9054906101000a900473ffffffffffffffffffffffffffffffffffffffff1673ffffffffffffffffffffffffffffffffffffffff1673ffffffffffffffffffffffffffffffffffffffff16815260200160018201548152602001600282015481526020016003820154815260200160048201548152602001600582015f9054906101000a900460ff16151515158152602001600682015481525050915084158015611b7257505f8260800151115b15611b805760019350611b9b565b848015611b9057505f8260600151115b15611b9a57600193505b5b8080611ba690612757565b915050611a73565b5050915091565b5f80856004015490505f84821115611bcd5784611bcf565b815b905080876004015f828254611be49190612724565b925050819055508085611bf79190612724565b94508381611c0591906126cd565b876003015f828254611c17919061266d565b9250508190555080866004015f828254611c31919061266d565b925050819055508492505050949350505050565b5f8083866003015411611c5e5785600301549050611c62565b8390505b80866003015f828254611c759190612724565b925050819055508084611c889190612724565b93508281611c9691906127e6565b866004015f828254611ca8919061266d565b9250508190555080856003015f828254611cc2919061266d565b9250508190555083915050949350505050565b5f60085f3373ffffffffffffffffffffffffffffffffffffffff1673ffffffffffffffffffffffffffffffffffffffff1681526020019081526020015f2090505f818054905090505f808415611d2d57859150611d31565b8590505b5f6040518060e001604052803373ffffffffffffffffffffffffffffffffffffffff16815260200142815260200160075481526020018481526020018381526020015f15158152602001868054905081525090508515611da757600d5f815480929190611d9d90612ade565b9190505550611dbf565b600e5f815480929190611db990612ade565b91905055505b600981908060018154018082558091505060019003905f5260205f2090600702015f909190919091505f820151815f015f6101000a81548173ffffffffffffffffffffffffffffffffffffffff021916908373ffffffffffffffffffffffffffffffffffffffff1602179055506020820151816001015560408201518160020155606082015181600301556080820151816004015560a0820151816005015f6101000a81548160ff02191690831515021790555060c0820151816006015550508484908060018154018082558091505060019003905f5260205f20015f909190919091505550505050505050565b5f73ffffffffffffffffffffffffffffffffffffffff168173ffffffffffffffffffffffffffffffffffffffff1603611ee4575f80fd5b8073ffffffffffffffffffffffffffffffffffffffff165f8054906101000a900473ffffffffffffffffffffffffffffffffffffffff1673ffffffffffffffffffffffffffffffffffffffff167f8be0079c531659141344cd1fd0a4f28419497f9722a3daafe3b4186f6b6457e060405160405180910390a3805f806101000a81548173ffffffffffffffffffffffffffffffffffffffff021916908373ffffffffffffffffffffffffffffffffffffffff16021790555050565b5f8060018480549050611fb29190612724565b90505f818414905080611ffb57848281548110611fd257611fd1612613565b5b905f5260205f200154858581548110611fee57611fed612613565b5b905f5260205f2001819055505b8480548061200c5761200b612b25565b5b600190038181905f5260205f20015f9055905580159250505092915050565b5f806001848054905061203e9190612724565b90505f81841490508061214d5784828154811061205e5761205d612613565b5b905f5260205f20906007020185858154811061207d5761207c612613565b5b905f5260205f2090600702015f82015f9054906101000a900473ffffffffffffffffffffffffffffffffffffffff16815f015f6101000a81548173ffffffffffffffffffffffffffffffffffffffff021916908373ffffffffffffffffffffffffffffffffffffffff16021790555060018201548160010155600282015481600201556003820154816003015560048201548160040155600582015f9054906101000a900460ff16816005015f6101000a81548160ff021916908315150217905550600682015481600601559050505b8480548061215e5761215d612b25565b5b600190038181905f5260205f2090600702015f8082015f6101000a81549073ffffffffffffffffffffffffffffffffffffffff0219169055600182015f9055600282015f9055600382015f9055600482015f9055600582015f6101000a81549060ff0219169055600682015f90555050905580159250505092915050565b6040518060c001604052805f73ffffffffffffffffffffffffffffffffffffffff1681526020015f81526020015f81526020015f81526020015f81526020015f151581525090565b6040518060e001604052805f73ffffffffffffffffffffffffffffffffffffffff1681526020015f81526020015f81526020015f81526020015f81526020015f151581526020015f81525090565b5f73ffffffffffffffffffffffffffffffffffffffff82169050919050565b5f61229b82612272565b9050919050565b6122ab81612291565b82525050565b5f6020820190506122c45f8301846122a2565b92915050565b5f80fd5b5f819050919050565b6122e0816122ce565b81146122ea575f80fd5b50565b5f813590506122fb816122d7565b92915050565b5f60208284031215612316576123156122ca565b5b5f612323848285016122ed565b91505092915050565b612335816122ce565b82525050565b5f60208201905061234e5f83018461232c565b92915050565b61235d81612291565b8114612367575f80fd5b50565b5f8135905061237881612354565b92915050565b5f60208284031215612393576123926122ca565b5b5f6123a08482850161236a565b91505092915050565b6123b281612291565b82525050565b6123c1816122ce565b82525050565b5f8115159050919050565b6123db816123c7565b82525050565b60c082015f8201516123f55f8501826123a9565b50602082015161240860208501826123b8565b50604082015161241b60408501826123b8565b50606082015161242e60608501826123b8565b50608082015161244160808501826123b8565b5060a082015161245460a08501826123d2565b50505050565b5f60c08201905061246d5f8301846123e1565b92915050565b61247c816123c7565b8114612486575f80fd5b50565b5f8135905061249781612473565b92915050565b5f602082840312156124b2576124b16122ca565b5b5f6124bf84828501612489565b91505092915050565b6124d1816123c7565b82525050565b5f6020820190506124ea5f8301846124c8565b92915050565b5f60e0820190506125035f83018a6122a2565b612510602083018961232c565b61251d604083018861232c565b61252a606083018761232c565b612537608083018661232c565b61254460a08301856124c8565b61255160c083018461232c565b98975050505050505050565b5f8060408385031215612573576125726122ca565b5b5f6125808582860161236a565b9250506020612591858286016122ed565b9150509250929050565b5f82825260208201905092915050565b7f496e646578206f7574206f662072616e676500000000000000000000000000005f82015250565b5f6125df60128361259b565b91506125ea826125ab565b602082019050919050565b5f6020820190508181035f83015261260c816125d3565b9050919050565b7f4e487b71000000000000000000000000000000000000000000000000000000005f52603260045260245ffd5b7f4e487b71000000000000000000000000000000000000000000000000000000005f52601160045260245ffd5b5f612677826122ce565b9150612682836122ce565b925082820190508082111561269a57612699612640565b5b92915050565b7f4e487b71000000000000000000000000000000000000000000000000000000005f52601260045260245ffd5b5f6126d7826122ce565b91506126e2836122ce565b9250826126f2576126f16126a0565b5b828204905092915050565b5f6040820190506127105f83018561232c565b61271d60208301846122a2565b9392505050565b5f61272e826122ce565b9150612739836122ce565b925082820390508181111561275157612750612640565b5b92915050565b5f612761826122ce565b91505f820361277357612772612640565b5b600182039050919050565b7f496e73756666696369656e74206c6971756964697479000000000000000000005f82015250565b5f6127b260168361259b565b91506127bd8261277e565b602082019050919050565b5f6020820190508181035f8301526127df816127a6565b9050919050565b5f6127f0826122ce565b91506127fb836122ce565b9250828202612809816122ce565b915082820484148315176128205761281f612640565b5b5092915050565b5f60608201905061283a5f8301866122a2565b61284760208301856122a2565b612854604083018461232c565b949350505050565b5f8151905061286a81612473565b92915050565b5f60208284031215612885576128846122ca565b5b5f6128928482850161285c565b91505092915050565b7f5472616e73666572206661696c656400000000000000000000000000000000005f82015250565b5f6128cf600f8361259b565b91506128da8261289b565b602082019050919050565b5f6020820190508181035f8301526128fc816128c3565b9050919050565b7f4c697175696469747920616464726573732069732079657420746f20626520615f8201527f737369676e656400000000000000000000000000000000000000000000000000602082015250565b5f61295d60278361259b565b915061296882612903565b604082019050919050565b5f6020820190508181035f83015261298a81612951565b9050919050565b7f4e487b71000000000000000000000000000000000000000000000000000000005f52604160045260245ffd5b5f6040820190506129d15f8301856122a2565b6129de602083018461232c565b9392505050565b5f815190506129f3816122d7565b92915050565b5f60208284031215612a0e57612a0d6122ca565b5b5f612a1b848285016129e5565b91505092915050565b5f81519050919050565b5f82825260208201905092915050565b8281835e5f83830152505050565b5f601f19601f8301169050919050565b5f612a6682612a24565b612a708185612a2e565b9350612a80818560208601612a3e565b612a8981612a4c565b840191505092915050565b5f608082019050612aa75f8301876122a2565b612ab460208301866122a2565b612ac1604083018561232c565b8181036060830152612ad38184612a5c565b905095945050505050565b5f612ae8826122ce565b91507fffffffffffffffffffffffffffffffffffffffffffffffffffffffffffffffff8203612b1a57612b19612640565b5b600182019050919050565b7f4e487b71000000000000000000000000000000000000000000000000000000005f52603160045260245ffdfea264697066735822122084d3a494e1e2fd3a08bf98d643900d921d904f5752c5d03996a34b524031db3764736f6c63430008190033",
					"opcodes": "PUSH1 0x80 PUSH1 0x40 MSTORE CALLVALUE DUP1 ISZERO PUSH1 0xE JUMPI PUSH0 DUP1 REVERT JUMPDEST POP CALLER PUSH0 DUP1 PUSH2 0x100 EXP DUP2 SLOAD DUP2 PUSH20 0xFFFFFFFFFFFFFFFFFFFFFFFFFFFFFFFFFFFFFFFF MUL NOT AND SWAP1 DUP4 PUSH20 0xFFFFFFFFFFFFFFFFFFFFFFFFFFFFFFFFFFFFFFFF AND MUL OR SWAP1 SSTORE POP CALLER PUSH1 0x5 PUSH0 PUSH2 0x100 EXP DUP2 SLOAD DUP2 PUSH20 0xFFFFFFFFFFFFFFFFFFFFFFFFFFFFFFFFFFFFFFFF MUL NOT AND SWAP1 DUP4 PUSH20 0xFFFFFFFFFFFFFFFFFFFFFFFFFFFFFFFFFFFFFFFF AND MUL OR SWAP1 SSTORE POP PUSH2 0x2B88 DUP1 PUSH2 0x9B PUSH0 CODECOPY PUSH0 RETURN INVALID PUSH1 0x80 PUSH1 0x40 MSTORE CALLVALUE DUP1 ISZERO PUSH2 0xF JUMPI PUSH0 DUP1 REVERT JUMPDEST POP PUSH1 0x4 CALLDATASIZE LT PUSH2 0x18C JUMPI PUSH0 CALLDATALOAD PUSH1 0xE0 SHR DUP1 PUSH4 0x8E991592 GT PUSH2 0xDC JUMPI DUP1 PUSH4 0xDCC9606F GT PUSH2 0x95 JUMPI DUP1 PUSH4 0xE91A7CA6 GT PUSH2 0x6F JUMPI DUP1 PUSH4 0xE91A7CA6 EQ PUSH2 0x452 JUMPI DUP1 PUSH4 0xF2FDE38B EQ PUSH2 0x46E JUMPI DUP1 PUSH4 0xF56E9C66 EQ PUSH2 0x48A JUMPI DUP1 PUSH4 0xFB5B82D0 EQ PUSH2 0x4A6 JUMPI PUSH2 0x18C JUMP JUMPDEST DUP1 PUSH4 0xDCC9606F EQ PUSH2 0x3EA JUMPI DUP1 PUSH4 0xDD81B5AE EQ PUSH2 0x406 JUMPI DUP1 PUSH4 0xE53442F0 EQ PUSH2 0x422 JUMPI PUSH2 0x18C JUMP JUMPDEST DUP1 PUSH4 0x8E991592 EQ PUSH2 0x320 JUMPI DUP1 PUSH4 0x8F32D59B EQ PUSH2 0x33E JUMPI DUP1 PUSH4 0x98D5FDCA EQ PUSH2 0x35C JUMPI DUP1 PUSH4 0xC80F4E35 EQ PUSH2 0x37A JUMPI DUP1 PUSH4 0xD212A69A EQ PUSH2 0x3B0 JUMPI DUP1 PUSH4 0xDB9FCD01 EQ PUSH2 0x3CE JUMPI PUSH2 0x18C JUMP JUMPDEST DUP1 PUSH4 0x491D0A56 GT PUSH2 0x149 JUMPI DUP1 PUSH4 0x6CC62992 GT PUSH2 0x123 JUMPI DUP1 PUSH4 0x6CC62992 EQ PUSH2 0x2AA JUMPI DUP1 PUSH4 0x715018A6 EQ PUSH2 0x2DA JUMPI DUP1 PUSH4 0x7C0B8DE2 EQ PUSH2 0x2E4 JUMPI DUP1 PUSH4 0x8DA5CB5B EQ PUSH2 0x302 JUMPI PUSH2 0x18C JUMP JUMPDEST DUP1 PUSH4 0x491D0A56 EQ PUSH2 0x252 JUMPI DUP1 PUSH4 0x4E36245D EQ PUSH2 0x270 JUMPI DUP1 PUSH4 0x678660FB EQ PUSH2 0x28C JUMPI PUSH2 0x18C JUMP JUMPDEST DUP1 PUSH4 0x4BB60CE EQ PUSH2 0x190 JUMPI DUP1 PUSH4 0xA861F2A EQ PUSH2 0x1AE JUMPI DUP1 PUSH4 0x235B6EA1 EQ PUSH2 0x1CA JUMPI DUP1 PUSH4 0x36171E0E EQ PUSH2 0x1E8 JUMPI DUP1 PUSH4 0x3BD11F57 EQ PUSH2 0x204 JUMPI DUP1 PUSH4 0x41796A17 EQ PUSH2 0x222 JUMPI JUMPDEST PUSH0 DUP1 REVERT JUMPDEST PUSH2 0x198 PUSH2 0x4C2 JUMP JUMPDEST PUSH1 0x40 MLOAD PUSH2 0x1A5 SWAP2 SWAP1 PUSH2 0x22B1 JUMP JUMPDEST PUSH1 0x40 MLOAD DUP1 SWAP2 SUB SWAP1 RETURN JUMPDEST PUSH2 0x1C8 PUSH1 0x4 DUP1 CALLDATASIZE SUB DUP2 ADD SWAP1 PUSH2 0x1C3 SWAP2 SWAP1 PUSH2 0x2301 JUMP JUMPDEST PUSH2 0x4E7 JUMP JUMPDEST STOP JUMPDEST PUSH2 0x1D2 PUSH2 0x81D JUMP JUMPDEST PUSH1 0x40 MLOAD PUSH2 0x1DF SWAP2 SWAP1 PUSH2 0x233B JUMP JUMPDEST PUSH1 0x40 MLOAD DUP1 SWAP2 SUB SWAP1 RETURN JUMPDEST PUSH2 0x202 PUSH1 0x4 DUP1 CALLDATASIZE SUB DUP2 ADD SWAP1 PUSH2 0x1FD SWAP2 SWAP1 PUSH2 0x237E JUMP JUMPDEST PUSH2 0x823 JUMP JUMPDEST STOP JUMPDEST PUSH2 0x20C PUSH2 0x87F JUMP JUMPDEST PUSH1 0x40 MLOAD PUSH2 0x219 SWAP2 SWAP1 PUSH2 0x233B JUMP JUMPDEST PUSH1 0x40 MLOAD DUP1 SWAP2 SUB SWAP1 RETURN JUMPDEST PUSH2 0x23C PUSH1 0x4 DUP1 CALLDATASIZE SUB DUP2 ADD SWAP1 PUSH2 0x237 SWAP2 SWAP1 PUSH2 0x2301 JUMP JUMPDEST PUSH2 0x885 JUMP JUMPDEST PUSH1 0x40 MLOAD PUSH2 0x249 SWAP2 SWAP1 PUSH2 0x245A JUMP JUMPDEST PUSH1 0x40 MLOAD DUP1 SWAP2 SUB SWAP1 RETURN JUMPDEST PUSH2 0x25A PUSH2 0x89E JUMP JUMPDEST PUSH1 0x40 MLOAD PUSH2 0x267 SWAP2 SWAP1 PUSH2 0x22B1 JUMP JUMPDEST PUSH1 0x40 MLOAD DUP1 SWAP2 SUB SWAP1 RETURN JUMPDEST PUSH2 0x28A PUSH1 0x4 DUP1 CALLDATASIZE SUB DUP2 ADD SWAP1 PUSH2 0x285 SWAP2 SWAP1 PUSH2 0x2301 JUMP JUMPDEST PUSH2 0x8C3 JUMP JUMPDEST STOP JUMPDEST PUSH2 0x294 PUSH2 0xA73 JUMP JUMPDEST PUSH1 0x40 MLOAD PUSH2 0x2A1 SWAP2 SWAP1 PUSH2 0x233B JUMP JUMPDEST PUSH1 0x40 MLOAD DUP1 SWAP2 SUB SWAP1 RETURN JUMPDEST PUSH2 0x2C4 PUSH1 0x4 DUP1 CALLDATASIZE SUB DUP2 ADD SWAP1 PUSH2 0x2BF SWAP2 SWAP1 PUSH2 0x249D JUMP JUMPDEST PUSH2 0xA79 JUMP JUMPDEST PUSH1 0x40 MLOAD PUSH2 0x2D1 SWAP2 SWAP1 PUSH2 0x233B JUMP JUMPDEST PUSH1 0x40 MLOAD DUP1 SWAP2 SUB SWAP1 RETURN JUMPDEST PUSH2 0x2E2 PUSH2 0xA95 JUMP JUMPDEST STOP JUMPDEST PUSH2 0x2EC PUSH2 0xB48 JUMP JUMPDEST PUSH1 0x40 MLOAD PUSH2 0x2F9 SWAP2 SWAP1 PUSH2 0x22B1 JUMP JUMPDEST PUSH1 0x40 MLOAD DUP1 SWAP2 SUB SWAP1 RETURN JUMPDEST PUSH2 0x30A PUSH2 0xB6D JUMP JUMPDEST PUSH1 0x40 MLOAD PUSH2 0x317 SWAP2 SWAP1 PUSH2 0x22B1 JUMP JUMPDEST PUSH1 0x40 MLOAD DUP1 SWAP2 SUB SWAP1 RETURN JUMPDEST PUSH2 0x328 PUSH2 0xB94 JUMP JUMPDEST PUSH1 0x40 MLOAD PUSH2 0x335 SWAP2 SWAP1 PUSH2 0x22B1 JUMP JUMPDEST PUSH1 0x40 MLOAD DUP1 SWAP2 SUB SWAP1 RETURN JUMPDEST PUSH2 0x346 PUSH2 0xBB9 JUMP JUMPDEST PUSH1 0x40 MLOAD PUSH2 0x353 SWAP2 SWAP1 PUSH2 0x24D7 JUMP JUMPDEST PUSH1 0x40 MLOAD DUP1 SWAP2 SUB SWAP1 RETURN JUMPDEST PUSH2 0x364 PUSH2 0xC0E JUMP JUMPDEST PUSH1 0x40 MLOAD PUSH2 0x371 SWAP2 SWAP1 PUSH2 0x233B JUMP JUMPDEST PUSH1 0x40 MLOAD DUP1 SWAP2 SUB SWAP1 RETURN JUMPDEST PUSH2 0x394 PUSH1 0x4 DUP1 CALLDATASIZE SUB DUP2 ADD SWAP1 PUSH2 0x38F SWAP2 SWAP1 PUSH2 0x2301 JUMP JUMPDEST PUSH2 0xC1C JUMP JUMPDEST PUSH1 0x40 MLOAD PUSH2 0x3A7 SWAP8 SWAP7 SWAP6 SWAP5 SWAP4 SWAP3 SWAP2 SWAP1 PUSH2 0x24F0 JUMP JUMPDEST PUSH1 0x40 MLOAD DUP1 SWAP2 SUB SWAP1 RETURN JUMPDEST PUSH2 0x3B8 PUSH2 0xC94 JUMP JUMPDEST PUSH1 0x40 MLOAD PUSH2 0x3C5 SWAP2 SWAP1 PUSH2 0x233B JUMP JUMPDEST PUSH1 0x40 MLOAD DUP1 SWAP2 SUB SWAP1 RETURN JUMPDEST PUSH2 0x3E8 PUSH1 0x4 DUP1 CALLDATASIZE SUB DUP2 ADD SWAP1 PUSH2 0x3E3 SWAP2 SWAP1 PUSH2 0x237E JUMP JUMPDEST PUSH2 0xC9A JUMP JUMPDEST STOP JUMPDEST PUSH2 0x404 PUSH1 0x4 DUP1 CALLDATASIZE SUB DUP2 ADD SWAP1 PUSH2 0x3FF SWAP2 SWAP1 PUSH2 0x2301 JUMP JUMPDEST PUSH2 0xD2D JUMP JUMPDEST STOP JUMPDEST PUSH2 0x420 PUSH1 0x4 DUP1 CALLDATASIZE SUB DUP2 ADD SWAP1 PUSH2 0x41B SWAP2 SWAP1 PUSH2 0x2301 JUMP JUMPDEST PUSH2 0xF00 JUMP JUMPDEST STOP JUMPDEST PUSH2 0x43C PUSH1 0x4 DUP1 CALLDATASIZE SUB DUP2 ADD SWAP1 PUSH2 0x437 SWAP2 SWAP1 PUSH2 0x255D JUMP JUMPDEST PUSH2 0x1011 JUMP JUMPDEST PUSH1 0x40 MLOAD PUSH2 0x449 SWAP2 SWAP1 PUSH2 0x245A JUMP JUMPDEST PUSH1 0x40 MLOAD DUP1 SWAP2 SUB SWAP1 RETURN JUMPDEST PUSH2 0x46C PUSH1 0x4 DUP1 CALLDATASIZE SUB DUP2 ADD SWAP1 PUSH2 0x467 SWAP2 SWAP1 PUSH2 0x2301 JUMP JUMPDEST PUSH2 0x123C JUMP JUMPDEST STOP JUMPDEST PUSH2 0x488 PUSH1 0x4 DUP1 CALLDATASIZE SUB DUP2 ADD SWAP1 PUSH2 0x483 SWAP2 SWAP1 PUSH2 0x237E JUMP JUMPDEST PUSH2 0x148F JUMP JUMPDEST STOP JUMPDEST PUSH2 0x4A4 PUSH1 0x4 DUP1 CALLDATASIZE SUB DUP2 ADD SWAP1 PUSH2 0x49F SWAP2 SWAP1 PUSH2 0x237E JUMP JUMPDEST PUSH2 0x14AB JUMP JUMPDEST STOP JUMPDEST PUSH2 0x4C0 PUSH1 0x4 DUP1 CALLDATASIZE SUB DUP2 ADD SWAP1 PUSH2 0x4BB SWAP2 SWAP1 PUSH2 0x237E JUMP JUMPDEST PUSH2 0x153E JUMP JUMPDEST STOP JUMPDEST PUSH1 0x2 PUSH0 SWAP1 SLOAD SWAP1 PUSH2 0x100 EXP SWAP1 DIV PUSH20 0xFFFFFFFFFFFFFFFFFFFFFFFFFFFFFFFFFFFFFFFF AND DUP2 JUMP JUMPDEST PUSH0 CALLER SWAP1 POP PUSH0 PUSH1 0x8 PUSH0 DUP4 PUSH20 0xFFFFFFFFFFFFFFFFFFFFFFFFFFFFFFFFFFFFFFFF AND PUSH20 0xFFFFFFFFFFFFFFFFFFFFFFFFFFFFFFFFFFFFFFFF AND DUP2 MSTORE PUSH1 0x20 ADD SWAP1 DUP2 MSTORE PUSH1 0x20 ADD PUSH0 KECCAK256 DUP1 SLOAD DUP1 PUSH1 0x20 MUL PUSH1 0x20 ADD PUSH1 0x40 MLOAD SWAP1 DUP2 ADD PUSH1 0x40 MSTORE DUP1 SWAP3 SWAP2 SWAP1 DUP2 DUP2 MSTORE PUSH1 0x20 ADD DUP3 DUP1 SLOAD DUP1 ISZERO PUSH2 0x571 JUMPI PUSH1 0x20 MUL DUP3 ADD SWAP2 SWAP1 PUSH0 MSTORE PUSH1 0x20 PUSH0 KECCAK256 SWAP1 JUMPDEST DUP2 SLOAD DUP2 MSTORE PUSH1 0x20 ADD SWAP1 PUSH1 0x1 ADD SWAP1 DUP1 DUP4 GT PUSH2 0x55D JUMPI JUMPDEST POP POP POP POP POP SWAP1 POP DUP1 MLOAD DUP4 LT PUSH2 0x5BB JUMPI PUSH1 0x40 MLOAD PUSH32 0x8C379A000000000000000000000000000000000000000000000000000000000 DUP2 MSTORE PUSH1 0x4 ADD PUSH2 0x5B2 SWAP1 PUSH2 0x25F5 JUMP JUMPDEST PUSH1 0x40 MLOAD DUP1 SWAP2 SUB SWAP1 REVERT JUMPDEST PUSH0 DUP2 DUP5 DUP2 MLOAD DUP2 LT PUSH2 0x5CF JUMPI PUSH2 0x5CE PUSH2 0x2613 JUMP JUMPDEST JUMPDEST PUSH1 0x20 MUL PUSH1 0x20 ADD ADD MLOAD SWAP1 POP PUSH0 PUSH1 0x9 DUP3 DUP2 SLOAD DUP2 LT PUSH2 0x5EE JUMPI PUSH2 0x5ED PUSH2 0x2613 JUMP JUMPDEST JUMPDEST SWAP1 PUSH0 MSTORE PUSH1 0x20 PUSH0 KECCAK256 SWAP1 PUSH1 0x7 MUL ADD PUSH1 0x40 MLOAD DUP1 PUSH1 0xE0 ADD PUSH1 0x40 MSTORE SWAP1 DUP2 PUSH0 DUP3 ADD PUSH0 SWAP1 SLOAD SWAP1 PUSH2 0x100 EXP SWAP1 DIV PUSH20 0xFFFFFFFFFFFFFFFFFFFFFFFFFFFFFFFFFFFFFFFF AND PUSH20 0xFFFFFFFFFFFFFFFFFFFFFFFFFFFFFFFFFFFFFFFF AND PUSH20 0xFFFFFFFFFFFFFFFFFFFFFFFFFFFFFFFFFFFFFFFF AND DUP2 MSTORE PUSH1 0x20 ADD PUSH1 0x1 DUP3 ADD SLOAD DUP2 MSTORE PUSH1 0x20 ADD PUSH1 0x2 DUP3 ADD SLOAD DUP2 MSTORE PUSH1 0x20 ADD PUSH1 0x3 DUP3 ADD SLOAD DUP2 MSTORE PUSH1 0x20 ADD PUSH1 0x4 DUP3 ADD SLOAD DUP2 MSTORE PUSH1 0x20 ADD PUSH1 0x5 DUP3 ADD PUSH0 SWAP1 SLOAD SWAP1 PUSH2 0x100 EXP SWAP1 DIV PUSH1 0xFF AND ISZERO ISZERO ISZERO ISZERO DUP2 MSTORE PUSH1 0x20 ADD PUSH1 0x6 DUP3 ADD SLOAD DUP2 MSTORE POP POP SWAP1 POP PUSH0 DUP2 PUSH1 0x60 ADD MLOAD SWAP1 POP PUSH0 DUP3 PUSH1 0x80 ADD MLOAD SWAP1 POP PUSH0 DUP2 DUP4 PUSH2 0x6C4 SWAP2 SWAP1 PUSH2 0x266D JUMP JUMPDEST SWAP1 POP PUSH0 DUP4 DUP3 PUSH2 0x6D3 SWAP2 SWAP1 PUSH2 0x26CD JUMP JUMPDEST SWAP1 POP PUSH0 DUP4 DUP4 PUSH2 0x6E2 SWAP2 SWAP1 PUSH2 0x26CD JUMP JUMPDEST SWAP1 POP PUSH0 PUSH1 0x6 PUSH0 SWAP1 SLOAD SWAP1 PUSH2 0x100 EXP SWAP1 DIV PUSH20 0xFFFFFFFFFFFFFFFFFFFFFFFFFFFFFFFFFFFFFFFF AND SWAP1 POP PUSH0 PUSH1 0x7 SLOAD DUP5 DUP9 PUSH2 0x719 SWAP2 SWAP1 PUSH2 0x26CD JUMP JUMPDEST PUSH2 0x723 SWAP2 SWAP1 PUSH2 0x26CD JUMP JUMPDEST SWAP1 POP PUSH0 DUP4 DUP8 PUSH2 0x732 SWAP2 SWAP1 PUSH2 0x26CD JUMP JUMPDEST SWAP1 POP DUP3 PUSH20 0xFFFFFFFFFFFFFFFFFFFFFFFFFFFFFFFFFFFFFFFF AND PUSH4 0xC1D2D00D DUP4 DUP15 PUSH1 0x40 MLOAD DUP4 PUSH4 0xFFFFFFFF AND PUSH1 0xE0 SHL DUP2 MSTORE PUSH1 0x4 ADD PUSH2 0x76F SWAP3 SWAP2 SWAP1 PUSH2 0x26FD JUMP JUMPDEST PUSH0 PUSH1 0x40 MLOAD DUP1 DUP4 SUB DUP2 PUSH0 DUP8 DUP1 EXTCODESIZE ISZERO DUP1 ISZERO PUSH2 0x786 JUMPI PUSH0 DUP1 REVERT JUMPDEST POP GAS CALL ISZERO DUP1 ISZERO PUSH2 0x798 JUMPI RETURNDATASIZE PUSH0 DUP1 RETURNDATACOPY RETURNDATASIZE PUSH0 REVERT JUMPDEST POP POP POP POP DUP3 PUSH20 0xFFFFFFFFFFFFFFFFFFFFFFFFFFFFFFFFFFFFFFFF AND PUSH4 0x8CDA7BB4 DUP3 DUP15 PUSH1 0x40 MLOAD DUP4 PUSH4 0xFFFFFFFF AND PUSH1 0xE0 SHL DUP2 MSTORE PUSH1 0x4 ADD PUSH2 0x7D7 SWAP3 SWAP2 SWAP1 PUSH2 0x26FD JUMP JUMPDEST PUSH0 PUSH1 0x40 MLOAD DUP1 DUP4 SUB DUP2 PUSH0 DUP8 DUP1 EXTCODESIZE ISZERO DUP1 ISZERO PUSH2 0x7EE JUMPI PUSH0 DUP1 REVERT JUMPDEST POP GAS CALL ISZERO DUP1 ISZERO PUSH2 0x800 JUMPI RETURNDATASIZE PUSH0 DUP1 RETURNDATACOPY RETURNDATASIZE PUSH0 REVERT JUMPDEST POP POP POP POP PUSH2 0x80E DUP10 DUP12 PUSH2 0x1591 JUMP JUMPDEST POP POP POP POP POP POP POP POP POP POP POP POP POP JUMP JUMPDEST PUSH1 0x7 SLOAD DUP2 JUMP JUMPDEST PUSH2 0x82B PUSH2 0xBB9 JUMP JUMPDEST PUSH2 0x833 JUMPI PUSH0 DUP1 REVERT JUMPDEST DUP1 PUSH1 0x6 PUSH0 PUSH2 0x100 EXP DUP2 SLOAD DUP2 PUSH20 0xFFFFFFFFFFFFFFFFFFFFFFFFFFFFFFFFFFFFFFFF MUL NOT AND SWAP1 DUP4 PUSH20 0xFFFFFFFFFFFFFFFFFFFFFFFFFFFFFFFFFFFFFFFF AND MUL OR SWAP1 SSTORE POP PUSH2 0x87B PUSH2 0x16EF JUMP JUMPDEST POP POP JUMP JUMPDEST PUSH1 0xC SLOAD DUP2 JUMP JUMPDEST PUSH2 0x88D PUSH2 0x21DC JUMP JUMPDEST PUSH2 0x897 CALLER DUP4 PUSH2 0x1011 JUMP JUMPDEST SWAP1 POP SWAP2 SWAP1 POP JUMP JUMPDEST PUSH1 0x6 PUSH0 SWAP1 SLOAD SWAP1 PUSH2 0x100 EXP SWAP1 DIV PUSH20 0xFFFFFFFFFFFFFFFFFFFFFFFFFFFFFFFFFFFFFFFF AND DUP2 JUMP JUMPDEST PUSH0 DUP1 PUSH0 PUSH1 0x8 PUSH0 CALLER PUSH20 0xFFFFFFFFFFFFFFFFFFFFFFFFFFFFFFFFFFFFFFFF AND PUSH20 0xFFFFFFFFFFFFFFFFFFFFFFFFFFFFFFFFFFFFFFFF AND DUP2 MSTORE PUSH1 0x20 ADD SWAP1 DUP2 MSTORE PUSH1 0x20 ADD PUSH0 KECCAK256 DUP1 SLOAD DUP1 PUSH1 0x20 MUL PUSH1 0x20 ADD PUSH1 0x40 MLOAD SWAP1 DUP2 ADD PUSH1 0x40 MSTORE DUP1 SWAP3 SWAP2 SWAP1 DUP2 DUP2 MSTORE PUSH1 0x20 ADD DUP3 DUP1 SLOAD DUP1 ISZERO PUSH2 0x94B JUMPI PUSH1 0x20 MUL DUP3 ADD SWAP2 SWAP1 PUSH0 MSTORE PUSH1 0x20 PUSH0 KECCAK256 SWAP1 JUMPDEST DUP2 SLOAD DUP2 MSTORE PUSH1 0x20 ADD SWAP1 PUSH1 0x1 ADD SWAP1 DUP1 DUP4 GT PUSH2 0x937 JUMPI JUMPDEST POP POP POP POP POP SWAP1 POP PUSH0 PUSH1 0x7 SLOAD SWAP1 POP PUSH0 PUSH2 0x962 DUP7 PUSH2 0x188E JUMP JUMPDEST SWAP1 POP PUSH0 DUP2 SWAP1 POP PUSH0 DUP1 PUSH0 DUP1 DUP8 MLOAD SWAP1 POP JUMPDEST PUSH0 DUP2 GT DUP1 ISZERO PUSH2 0x97F JUMPI POP PUSH0 DUP6 GT JUMPDEST ISZERO PUSH2 0xA24 JUMPI PUSH1 0x1 DUP2 PUSH2 0x991 SWAP2 SWAP1 PUSH2 0x2724 JUMP JUMPDEST SWAP2 POP PUSH1 0x9 DUP9 DUP4 DUP2 MLOAD DUP2 LT PUSH2 0x9A8 JUMPI PUSH2 0x9A7 PUSH2 0x2613 JUMP JUMPDEST JUMPDEST PUSH1 0x20 MUL PUSH1 0x20 ADD ADD MLOAD DUP2 SLOAD DUP2 LT PUSH2 0x9C1 JUMPI PUSH2 0x9C0 PUSH2 0x2613 JUMP JUMPDEST JUMPDEST SWAP1 PUSH0 MSTORE PUSH1 0x20 PUSH0 KECCAK256 SWAP1 PUSH1 0x7 MUL ADD SWAP10 POP PUSH2 0x9D9 PUSH1 0x1 PUSH2 0x1A5F JUMP JUMPDEST DUP1 SWAP5 POP DUP2 SWAP6 POP POP POP PUSH1 0x9 DUP4 DUP2 SLOAD DUP2 LT PUSH2 0x9F5 JUMPI PUSH2 0x9F4 PUSH2 0x2613 JUMP JUMPDEST JUMPDEST SWAP1 PUSH0 MSTORE PUSH1 0x20 PUSH0 KECCAK256 SWAP1 PUSH1 0x7 MUL ADD SWAP9 POP PUSH2 0xA0F DUP11 DUP11 DUP8 DUP11 PUSH2 0x1BB5 JUMP JUMPDEST SWAP5 POP DUP1 DUP1 PUSH2 0xA1C SWAP1 PUSH2 0x2757 JUMP JUMPDEST SWAP2 POP POP PUSH2 0x971 JUMP JUMPDEST PUSH0 DUP6 EQ PUSH2 0xA66 JUMPI PUSH1 0x40 MLOAD PUSH32 0x8C379A000000000000000000000000000000000000000000000000000000000 DUP2 MSTORE PUSH1 0x4 ADD PUSH2 0xA5D SWAP1 PUSH2 0x27C8 JUMP JUMPDEST PUSH1 0x40 MLOAD DUP1 SWAP2 SUB SWAP1 REVERT JUMPDEST POP POP POP POP POP POP POP POP POP POP POP JUMP JUMPDEST PUSH1 0xB SLOAD DUP2 JUMP JUMPDEST PUSH0 DUP2 ISZERO PUSH2 0xA8A JUMPI PUSH1 0xE SLOAD SWAP1 POP PUSH2 0xA90 JUMP JUMPDEST PUSH1 0xD SLOAD SWAP1 POP JUMPDEST SWAP2 SWAP1 POP JUMP JUMPDEST PUSH2 0xA9D PUSH2 0xBB9 JUMP JUMPDEST PUSH2 0xAA5 JUMPI PUSH0 DUP1 REVERT JUMPDEST PUSH0 DUP1 SLOAD SWAP1 PUSH2 0x100 EXP SWAP1 DIV PUSH20 0xFFFFFFFFFFFFFFFFFFFFFFFFFFFFFFFFFFFFFFFF AND PUSH20 0xFFFFFFFFFFFFFFFFFFFFFFFFFFFFFFFFFFFFFFFF AND PUSH32 0xF8DF31144D9C2F0F6B59D69B8B98ABD5459D07F2742C4DF920B25AAE33C64820 PUSH1 0x40 MLOAD PUSH1 0x40 MLOAD DUP1 SWAP2 SUB SWAP1 LOG2 PUSH0 DUP1 PUSH0 PUSH2 0x100 EXP DUP2 SLOAD DUP2 PUSH20 0xFFFFFFFFFFFFFFFFFFFFFFFFFFFFFFFFFFFFFFFF MUL NOT AND SWAP1 DUP4 PUSH20 0xFFFFFFFFFFFFFFFFFFFFFFFFFFFFFFFFFFFFFFFF AND MUL OR SWAP1 SSTORE POP JUMP JUMPDEST PUSH1 0x1 PUSH0 SWAP1 SLOAD SWAP1 PUSH2 0x100 EXP SWAP1 DIV PUSH20 0xFFFFFFFFFFFFFFFFFFFFFFFFFFFFFFFFFFFFFFFF AND DUP2 JUMP JUMPDEST PUSH0 DUP1 PUSH0 SWAP1 SLOAD SWAP1 PUSH2 0x100 EXP SWAP1 DIV PUSH20 0xFFFFFFFFFFFFFFFFFFFFFFFFFFFFFFFFFFFFFFFF AND SWAP1 POP SWAP1 JUMP JUMPDEST PUSH1 0x5 PUSH0 SWAP1 SLOAD SWAP1 PUSH2 0x100 EXP SWAP1 DIV PUSH20 0xFFFFFFFFFFFFFFFFFFFFFFFFFFFFFFFFFFFFFFFF AND DUP2 JUMP JUMPDEST PUSH0 DUP1 PUSH0 SWAP1 SLOAD SWAP1 PUSH2 0x100 EXP SWAP1 DIV PUSH20 0xFFFFFFFFFFFFFFFFFFFFFFFFFFFFFFFFFFFFFFFF AND PUSH20 0xFFFFFFFFFFFFFFFFFFFFFFFFFFFFFFFFFFFFFFFF AND CALLER PUSH20 0xFFFFFFFFFFFFFFFFFFFFFFFFFFFFFFFFFFFFFFFF AND EQ SWAP1 POP SWAP1 JUMP JUMPDEST PUSH0 PUSH2 0xC17 PUSH2 0x16EF JUMP JUMPDEST SWAP1 POP SWAP1 JUMP JUMPDEST PUSH1 0x9 DUP2 DUP2 SLOAD DUP2 LT PUSH2 0xC2B JUMPI PUSH0 DUP1 REVERT JUMPDEST SWAP1 PUSH0 MSTORE PUSH1 0x20 PUSH0 KECCAK256 SWAP1 PUSH1 0x7 MUL ADD PUSH0 SWAP2 POP SWAP1 POP DUP1 PUSH0 ADD PUSH0 SWAP1 SLOAD SWAP1 PUSH2 0x100 EXP SWAP1 DIV PUSH20 0xFFFFFFFFFFFFFFFFFFFFFFFFFFFFFFFFFFFFFFFF AND SWAP1 DUP1 PUSH1 0x1 ADD SLOAD SWAP1 DUP1 PUSH1 0x2 ADD SLOAD SWAP1 DUP1 PUSH1 0x3 ADD SLOAD SWAP1 DUP1 PUSH1 0x4 ADD SLOAD SWAP1 DUP1 PUSH1 0x5 ADD PUSH0 SWAP1 SLOAD SWAP1 PUSH2 0x100 EXP SWAP1 DIV PUSH1 0xFF AND SWAP1 DUP1 PUSH1 0x6 ADD SLOAD SWAP1 POP DUP8 JUMP JUMPDEST PUSH1 0xA SLOAD DUP2 JUMP JUMPDEST PUSH2 0xCA2 PUSH2 0xBB9 JUMP JUMPDEST PUSH2 0xCAA JUMPI PUSH0 DUP1 REVERT JUMPDEST DUP1 PUSH1 0x2 PUSH0 PUSH2 0x100 EXP DUP2 SLOAD DUP2 PUSH20 0xFFFFFFFFFFFFFFFFFFFFFFFFFFFFFFFFFFFFFFFF MUL NOT AND SWAP1 DUP4 PUSH20 0xFFFFFFFFFFFFFFFFFFFFFFFFFFFFFFFFFFFFFFFF AND MUL OR SWAP1 SSTORE POP DUP1 PUSH1 0x3 PUSH0 PUSH2 0x100 EXP DUP2 SLOAD DUP2 PUSH20 0xFFFFFFFFFFFFFFFFFFFFFFFFFFFFFFFFFFFFFFFF MUL NOT AND SWAP1 DUP4 PUSH20 0xFFFFFFFFFFFFFFFFFFFFFFFFFFFFFFFFFFFFFFFF AND MUL OR SWAP1 SSTORE POP POP JUMP JUMPDEST PUSH0 DUP1 PUSH0 PUSH1 0x8 PUSH0 CALLER PUSH20 0xFFFFFFFFFFFFFFFFFFFFFFFFFFFFFFFFFFFFFFFF AND PUSH20 0xFFFFFFFFFFFFFFFFFFFFFFFFFFFFFFFFFFFFFFFF AND DUP2 MSTORE PUSH1 0x20 ADD SWAP1 DUP2 MSTORE PUSH1 0x20 ADD PUSH0 KECCAK256 DUP1 SLOAD DUP1 PUSH1 0x20 MUL PUSH1 0x20 ADD PUSH1 0x40 MLOAD SWAP1 DUP2 ADD PUSH1 0x40 MSTORE DUP1 SWAP3 SWAP2 SWAP1 DUP2 DUP2 MSTORE PUSH1 0x20 ADD DUP3 DUP1 SLOAD DUP1 ISZERO PUSH2 0xDB5 JUMPI PUSH1 0x20 MUL DUP3 ADD SWAP2 SWAP1 PUSH0 MSTORE PUSH1 0x20 PUSH0 KECCAK256 SWAP1 JUMPDEST DUP2 SLOAD DUP2 MSTORE PUSH1 0x20 ADD SWAP1 PUSH1 0x1 ADD SWAP1 DUP1 DUP4 GT PUSH2 0xDA1 JUMPI JUMPDEST POP POP POP POP POP SWAP1 POP PUSH0 PUSH1 0x7 SLOAD SWAP1 POP PUSH0 DUP2 DUP7 PUSH2 0xDCF SWAP2 SWAP1 PUSH2 0x27E6 JUMP JUMPDEST SWAP1 POP PUSH2 0xDDA DUP2 PUSH2 0x188E JUMP JUMPDEST DUP2 PUSH2 0xDE5 SWAP2 SWAP1 PUSH2 0x2724 JUMP JUMPDEST SWAP1 POP PUSH0 DUP3 DUP3 PUSH2 0xDF4 SWAP2 SWAP1 PUSH2 0x26CD JUMP JUMPDEST SWAP1 POP PUSH0 DUP1 PUSH0 DUP1 DUP8 MLOAD SWAP1 POP JUMPDEST PUSH0 DUP2 GT DUP1 ISZERO PUSH2 0xE0D JUMPI POP PUSH0 DUP6 GT JUMPDEST ISZERO PUSH2 0xEB1 JUMPI PUSH1 0x1 DUP2 PUSH2 0xE1F SWAP2 SWAP1 PUSH2 0x2724 JUMP JUMPDEST SWAP2 POP PUSH1 0x9 DUP9 DUP4 DUP2 MLOAD DUP2 LT PUSH2 0xE36 JUMPI PUSH2 0xE35 PUSH2 0x2613 JUMP JUMPDEST JUMPDEST PUSH1 0x20 MUL PUSH1 0x20 ADD ADD MLOAD DUP2 SLOAD DUP2 LT PUSH2 0xE4F JUMPI PUSH2 0xE4E PUSH2 0x2613 JUMP JUMPDEST JUMPDEST SWAP1 PUSH0 MSTORE PUSH1 0x20 PUSH0 KECCAK256 SWAP1 PUSH1 0x7 MUL ADD SWAP10 POP PUSH2 0xE66 PUSH0 PUSH2 0x1A5F JUMP JUMPDEST DUP1 SWAP5 POP DUP2 SWAP6 POP POP POP PUSH1 0x9 DUP4 DUP2 SLOAD DUP2 LT PUSH2 0xE82 JUMPI PUSH2 0xE81 PUSH2 0x2613 JUMP JUMPDEST JUMPDEST SWAP1 PUSH0 MSTORE PUSH1 0x20 PUSH0 KECCAK256 SWAP1 PUSH1 0x7 MUL ADD SWAP9 POP PUSH2 0xE9C DUP11 DUP11 DUP8 DUP11 PUSH2 0x1C45 JUMP JUMPDEST SWAP5 POP DUP1 DUP1 PUSH2 0xEA9 SWAP1 PUSH2 0x2757 JUMP JUMPDEST SWAP2 POP POP PUSH2 0xDFF JUMP JUMPDEST PUSH0 DUP6 EQ PUSH2 0xEF3 JUMPI PUSH1 0x40 MLOAD PUSH32 0x8C379A000000000000000000000000000000000000000000000000000000000 DUP2 MSTORE PUSH1 0x4 ADD PUSH2 0xEEA SWAP1 PUSH2 0x27C8 JUMP JUMPDEST PUSH1 0x40 MLOAD DUP1 SWAP2 SUB SWAP1 REVERT JUMPDEST POP POP POP POP POP POP POP POP POP POP POP JUMP JUMPDEST PUSH0 PUSH1 0x3 PUSH0 SWAP1 SLOAD SWAP1 PUSH2 0x100 EXP SWAP1 DIV PUSH20 0xFFFFFFFFFFFFFFFFFFFFFFFFFFFFFFFFFFFFFFFF AND PUSH20 0xFFFFFFFFFFFFFFFFFFFFFFFFFFFFFFFFFFFFFFFF AND PUSH4 0x23B872DD CALLER PUSH1 0x6 PUSH0 SWAP1 SLOAD SWAP1 PUSH2 0x100 EXP SWAP1 DIV PUSH20 0xFFFFFFFFFFFFFFFFFFFFFFFFFFFFFFFFFFFFFFFF AND DUP6 PUSH1 0x40 MLOAD DUP5 PUSH4 0xFFFFFFFF AND PUSH1 0xE0 SHL DUP2 MSTORE PUSH1 0x4 ADD PUSH2 0xF80 SWAP4 SWAP3 SWAP2 SWAP1 PUSH2 0x2827 JUMP JUMPDEST PUSH1 0x20 PUSH1 0x40 MLOAD DUP1 DUP4 SUB DUP2 PUSH0 DUP8 GAS CALL ISZERO DUP1 ISZERO PUSH2 0xF9C JUMPI RETURNDATASIZE PUSH0 DUP1 RETURNDATACOPY RETURNDATASIZE PUSH0 REVERT JUMPDEST POP POP POP POP PUSH1 0x40 MLOAD RETURNDATASIZE PUSH1 0x1F NOT PUSH1 0x1F DUP3 ADD AND DUP3 ADD DUP1 PUSH1 0x40 MSTORE POP DUP2 ADD SWAP1 PUSH2 0xFC0 SWAP2 SWAP1 PUSH2 0x2870 JUMP JUMPDEST SWAP1 POP DUP1 PUSH2 0x1002 JUMPI PUSH1 0x40 MLOAD PUSH32 0x8C379A000000000000000000000000000000000000000000000000000000000 DUP2 MSTORE PUSH1 0x4 ADD PUSH2 0xFF9 SWAP1 PUSH2 0x28E5 JUMP JUMPDEST PUSH1 0x40 MLOAD DUP1 SWAP2 SUB SWAP1 REVERT JUMPDEST PUSH2 0x100D DUP3 PUSH1 0x1 PUSH2 0x1CD5 JUMP JUMPDEST POP POP JUMP JUMPDEST PUSH2 0x1019 PUSH2 0x21DC JUMP JUMPDEST PUSH0 PUSH1 0x8 PUSH0 DUP6 PUSH20 0xFFFFFFFFFFFFFFFFFFFFFFFFFFFFFFFFFFFFFFFF AND PUSH20 0xFFFFFFFFFFFFFFFFFFFFFFFFFFFFFFFFFFFFFFFF AND DUP2 MSTORE PUSH1 0x20 ADD SWAP1 DUP2 MSTORE PUSH1 0x20 ADD PUSH0 KECCAK256 DUP1 SLOAD DUP1 PUSH1 0x20 MUL PUSH1 0x20 ADD PUSH1 0x40 MLOAD SWAP1 DUP2 ADD PUSH1 0x40 MSTORE DUP1 SWAP3 SWAP2 SWAP1 DUP2 DUP2 MSTORE PUSH1 0x20 ADD DUP3 DUP1 SLOAD DUP1 ISZERO PUSH2 0x109F JUMPI PUSH1 0x20 MUL DUP3 ADD SWAP2 SWAP1 PUSH0 MSTORE PUSH1 0x20 PUSH0 KECCAK256 SWAP1 JUMPDEST DUP2 SLOAD DUP2 MSTORE PUSH1 0x20 ADD SWAP1 PUSH1 0x1 ADD SWAP1 DUP1 DUP4 GT PUSH2 0x108B JUMPI JUMPDEST POP POP POP POP POP SWAP1 POP DUP1 MLOAD DUP4 LT PUSH2 0x10E9 JUMPI PUSH1 0x40 MLOAD PUSH32 0x8C379A000000000000000000000000000000000000000000000000000000000 DUP2 MSTORE PUSH1 0x4 ADD PUSH2 0x10E0 SWAP1 PUSH2 0x25F5 JUMP JUMPDEST PUSH1 0x40 MLOAD DUP1 SWAP2 SUB SWAP1 REVERT JUMPDEST PUSH0 DUP2 DUP5 DUP2 MLOAD DUP2 LT PUSH2 0x10FD JUMPI PUSH2 0x10FC PUSH2 0x2613 JUMP JUMPDEST JUMPDEST PUSH1 0x20 MUL PUSH1 0x20 ADD ADD MLOAD SWAP1 POP PUSH0 PUSH1 0x9 DUP3 DUP2 SLOAD DUP2 LT PUSH2 0x111C JUMPI PUSH2 0x111B PUSH2 0x2613 JUMP JUMPDEST JUMPDEST SWAP1 PUSH0 MSTORE PUSH1 0x20 PUSH0 KECCAK256 SWAP1 PUSH1 0x7 MUL ADD PUSH1 0x40 MLOAD DUP1 PUSH1 0xE0 ADD PUSH1 0x40 MSTORE SWAP1 DUP2 PUSH0 DUP3 ADD PUSH0 SWAP1 SLOAD SWAP1 PUSH2 0x100 EXP SWAP1 DIV PUSH20 0xFFFFFFFFFFFFFFFFFFFFFFFFFFFFFFFFFFFFFFFF AND PUSH20 0xFFFFFFFFFFFFFFFFFFFFFFFFFFFFFFFFFFFFFFFF AND PUSH20 0xFFFFFFFFFFFFFFFFFFFFFFFFFFFFFFFFFFFFFFFF AND DUP2 MSTORE PUSH1 0x20 ADD PUSH1 0x1 DUP3 ADD SLOAD DUP2 MSTORE PUSH1 0x20 ADD PUSH1 0x2 DUP3 ADD SLOAD DUP2 MSTORE PUSH1 0x20 ADD PUSH1 0x3 DUP3 ADD SLOAD DUP2 MSTORE PUSH1 0x20 ADD PUSH1 0x4 DUP3 ADD SLOAD DUP2 MSTORE PUSH1 0x20 ADD PUSH1 0x5 DUP3 ADD PUSH0 SWAP1 SLOAD SWAP1 PUSH2 0x100 EXP SWAP1 DIV PUSH1 0xFF AND ISZERO ISZERO ISZERO ISZERO DUP2 MSTORE PUSH1 0x20 ADD PUSH1 0x6 DUP3 ADD SLOAD DUP2 MSTORE POP POP SWAP1 POP PUSH1 0x40 MLOAD DUP1 PUSH1 0xC0 ADD PUSH1 0x40 MSTORE DUP1 DUP3 PUSH0 ADD MLOAD PUSH20 0xFFFFFFFFFFFFFFFFFFFFFFFFFFFFFFFFFFFFFFFF AND DUP2 MSTORE PUSH1 0x20 ADD DUP3 PUSH1 0x20 ADD MLOAD DUP2 MSTORE PUSH1 0x20 ADD DUP3 PUSH1 0x40 ADD MLOAD DUP2 MSTORE PUSH1 0x20 ADD DUP3 PUSH1 0x60 ADD MLOAD DUP2 MSTORE PUSH1 0x20 ADD DUP3 PUSH1 0x80 ADD MLOAD DUP2 MSTORE PUSH1 0x20 ADD DUP3 PUSH1 0xA0 ADD MLOAD ISZERO ISZERO DUP2 MSTORE POP SWAP4 POP POP POP POP SWAP3 SWAP2 POP POP JUMP JUMPDEST PUSH0 PUSH20 0xFFFFFFFFFFFFFFFFFFFFFFFFFFFFFFFFFFFFFFFF AND PUSH1 0x6 PUSH0 SWAP1 SLOAD SWAP1 PUSH2 0x100 EXP SWAP1 DIV PUSH20 0xFFFFFFFFFFFFFFFFFFFFFFFFFFFFFFFFFFFFFFFF AND PUSH20 0xFFFFFFFFFFFFFFFFFFFFFFFFFFFFFFFFFFFFFFFF AND SUB PUSH2 0x12CB JUMPI PUSH1 0x40 MLOAD PUSH32 0x8C379A000000000000000000000000000000000000000000000000000000000 DUP2 MSTORE PUSH1 0x4 ADD PUSH2 0x12C2 SWAP1 PUSH2 0x2973 JUMP JUMPDEST PUSH1 0x40 MLOAD DUP1 SWAP2 SUB SWAP1 REVERT JUMPDEST PUSH0 DUP1 PUSH0 PUSH8 0xFFFFFFFFFFFFFFFF DUP2 GT ISZERO PUSH2 0x12E7 JUMPI PUSH2 0x12E6 PUSH2 0x2991 JUMP JUMPDEST JUMPDEST PUSH1 0x40 MLOAD SWAP1 DUP1 DUP3 MSTORE DUP1 PUSH1 0x1F ADD PUSH1 0x1F NOT AND PUSH1 0x20 ADD DUP3 ADD PUSH1 0x40 MSTORE DUP1 ISZERO PUSH2 0x1319 JUMPI DUP2 PUSH1 0x20 ADD PUSH1 0x1 DUP3 MUL DUP1 CALLDATASIZE DUP4 CALLDATACOPY DUP1 DUP3 ADD SWAP2 POP POP SWAP1 POP JUMPDEST POP SWAP1 POP PUSH0 JUMPDEST DUP4 DUP2 LT ISZERO PUSH2 0x147E JUMPI PUSH1 0x4 PUSH0 SWAP1 SLOAD SWAP1 PUSH2 0x100 EXP SWAP1 DIV PUSH20 0xFFFFFFFFFFFFFFFFFFFFFFFFFFFFFFFFFFFFFFFF AND PUSH20 0xFFFFFFFFFFFFFFFFFFFFFFFFFFFFFFFFFFFFFFFF AND PUSH4 0x2F745C59 CALLER DUP4 PUSH1 0x40 MLOAD DUP4 PUSH4 0xFFFFFFFF AND PUSH1 0xE0 SHL DUP2 MSTORE PUSH1 0x4 ADD PUSH2 0x1382 SWAP3 SWAP2 SWAP1 PUSH2 0x29BE JUMP JUMPDEST PUSH1 0x20 PUSH1 0x40 MLOAD DUP1 DUP4 SUB DUP2 DUP7 GAS STATICCALL ISZERO DUP1 ISZERO PUSH2 0x139D JUMPI RETURNDATASIZE PUSH0 DUP1 RETURNDATACOPY RETURNDATASIZE PUSH0 REVERT JUMPDEST POP POP POP POP PUSH1 0x40 MLOAD RETURNDATASIZE PUSH1 0x1F NOT PUSH1 0x1F DUP3 ADD AND DUP3 ADD DUP1 PUSH1 0x40 MSTORE POP DUP2 ADD SWAP1 PUSH2 0x13C1 SWAP2 SWAP1 PUSH2 0x29F9 JUMP JUMPDEST SWAP3 POP PUSH1 0x4 PUSH0 SWAP1 SLOAD SWAP1 PUSH2 0x100 EXP SWAP1 DIV PUSH20 0xFFFFFFFFFFFFFFFFFFFFFFFFFFFFFFFFFFFFFFFF AND PUSH20 0xFFFFFFFFFFFFFFFFFFFFFFFFFFFFFFFFFFFFFFFF AND PUSH4 0xB88D4FDE CALLER PUSH1 0x6 PUSH0 SWAP1 SLOAD SWAP1 PUSH2 0x100 EXP SWAP1 DIV PUSH20 0xFFFFFFFFFFFFFFFFFFFFFFFFFFFFFFFFFFFFFFFF AND DUP7 DUP7 PUSH1 0x40 MLOAD DUP6 PUSH4 0xFFFFFFFF AND PUSH1 0xE0 SHL DUP2 MSTORE PUSH1 0x4 ADD PUSH2 0x1444 SWAP5 SWAP4 SWAP3 SWAP2 SWAP1 PUSH2 0x2A94 JUMP JUMPDEST PUSH0 PUSH1 0x40 MLOAD DUP1 DUP4 SUB DUP2 PUSH0 DUP8 DUP1 EXTCODESIZE ISZERO DUP1 ISZERO PUSH2 0x145B JUMPI PUSH0 DUP1 REVERT JUMPDEST POP GAS CALL ISZERO DUP1 ISZERO PUSH2 0x146D JUMPI RETURNDATASIZE PUSH0 DUP1 RETURNDATACOPY RETURNDATASIZE PUSH0 REVERT JUMPDEST POP POP POP POP DUP1 DUP1 PUSH1 0x1 ADD SWAP2 POP POP PUSH2 0x131E JUMP JUMPDEST POP PUSH2 0x148A DUP4 PUSH1 0x1 PUSH2 0x1CD5 JUMP JUMPDEST POP POP POP JUMP JUMPDEST PUSH2 0x1497 PUSH2 0xBB9 JUMP JUMPDEST PUSH2 0x149F JUMPI PUSH0 DUP1 REVERT JUMPDEST PUSH2 0x14A8 DUP2 PUSH2 0x1EAD JUMP JUMPDEST POP JUMP JUMPDEST PUSH2 0x14B3 PUSH2 0xBB9 JUMP JUMPDEST PUSH2 0x14BB JUMPI PUSH0 DUP1 REVERT JUMPDEST DUP1 PUSH1 0x1 PUSH0 PUSH2 0x100 EXP DUP2 SLOAD DUP2 PUSH20 0xFFFFFFFFFFFFFFFFFFFFFFFFFFFFFFFFFFFFFFFF MUL NOT AND SWAP1 DUP4 PUSH20 0xFFFFFFFFFFFFFFFFFFFFFFFFFFFFFFFFFFFFFFFF AND MUL OR SWAP1 SSTORE POP DUP1 PUSH1 0x4 PUSH0 PUSH2 0x100 EXP DUP2 SLOAD DUP2 PUSH20 0xFFFFFFFFFFFFFFFFFFFFFFFFFFFFFFFFFFFFFFFF MUL NOT AND SWAP1 DUP4 PUSH20 0xFFFFFFFFFFFFFFFFFFFFFFFFFFFFFFFFFFFFFFFF AND MUL OR SWAP1 SSTORE POP POP JUMP JUMPDEST PUSH2 0x1546 PUSH2 0xBB9 JUMP JUMPDEST PUSH2 0x154E JUMPI PUSH0 DUP1 REVERT JUMPDEST DUP1 PUSH1 0x5 PUSH0 PUSH2 0x100 EXP DUP2 SLOAD DUP2 PUSH20 0xFFFFFFFFFFFFFFFFFFFFFFFFFFFFFFFFFFFFFFFF MUL NOT AND SWAP1 DUP4 PUSH20 0xFFFFFFFFFFFFFFFFFFFFFFFFFFFFFFFFFFFFFFFF AND MUL OR SWAP1 SSTORE POP POP JUMP JUMPDEST PUSH0 DUP3 PUSH1 0xC0 ADD MLOAD SWAP1 POP PUSH0 DUP1 PUSH1 0x8 PUSH0 CALLER PUSH20 0xFFFFFFFFFFFFFFFFFFFFFFFFFFFFFFFFFFFFFFFF AND PUSH20 0xFFFFFFFFFFFFFFFFFFFFFFFFFFFFFFFFFFFFFFFF AND DUP2 MSTORE PUSH1 0x20 ADD SWAP1 DUP2 MSTORE PUSH1 0x20 ADD PUSH0 KECCAK256 SWAP1 POP PUSH2 0x15E4 DUP2 DUP5 PUSH2 0x1F9F JUMP JUMPDEST ISZERO PUSH2 0x1630 JUMPI PUSH1 0x9 DUP2 DUP5 DUP2 SLOAD DUP2 LT PUSH2 0x15FE JUMPI PUSH2 0x15FD PUSH2 0x2613 JUMP JUMPDEST JUMPDEST SWAP1 PUSH0 MSTORE PUSH1 0x20 PUSH0 KECCAK256 ADD SLOAD DUP2 SLOAD DUP2 LT PUSH2 0x1618 JUMPI PUSH2 0x1617 PUSH2 0x2613 JUMP JUMPDEST JUMPDEST SWAP1 PUSH0 MSTORE PUSH1 0x20 PUSH0 KECCAK256 SWAP1 PUSH1 0x7 MUL ADD SWAP2 POP DUP3 DUP3 PUSH1 0x6 ADD DUP2 SWAP1 SSTORE POP JUMPDEST PUSH2 0x163B PUSH1 0x9 DUP6 PUSH2 0x202B JUMP JUMPDEST ISZERO PUSH2 0x16E8 JUMPI PUSH1 0x9 DUP5 DUP2 SLOAD DUP2 LT PUSH2 0x1654 JUMPI PUSH2 0x1653 PUSH2 0x2613 JUMP JUMPDEST JUMPDEST SWAP1 PUSH0 MSTORE PUSH1 0x20 PUSH0 KECCAK256 SWAP1 PUSH1 0x7 MUL ADD SWAP2 POP DUP2 PUSH1 0x6 ADD SLOAD SWAP3 POP DUP4 PUSH1 0x8 PUSH0 DUP5 PUSH0 ADD PUSH0 SWAP1 SLOAD SWAP1 PUSH2 0x100 EXP SWAP1 DIV PUSH20 0xFFFFFFFFFFFFFFFFFFFFFFFFFFFFFFFFFFFFFFFF AND PUSH20 0xFFFFFFFFFFFFFFFFFFFFFFFFFFFFFFFFFFFFFFFF AND PUSH20 0xFFFFFFFFFFFFFFFFFFFFFFFFFFFFFFFFFFFFFFFF AND DUP2 MSTORE PUSH1 0x20 ADD SWAP1 DUP2 MSTORE PUSH1 0x20 ADD PUSH0 KECCAK256 DUP5 DUP2 SLOAD DUP2 LT PUSH2 0x16DB JUMPI PUSH2 0x16DA PUSH2 0x2613 JUMP JUMPDEST JUMPDEST SWAP1 PUSH0 MSTORE PUSH1 0x20 PUSH0 KECCAK256 ADD DUP2 SWAP1 SSTORE POP JUMPDEST POP POP POP POP POP JUMP JUMPDEST PUSH0 DUP1 PUSH1 0x3 PUSH0 SWAP1 SLOAD SWAP1 PUSH2 0x100 EXP SWAP1 DIV PUSH20 0xFFFFFFFFFFFFFFFFFFFFFFFFFFFFFFFFFFFFFFFF AND PUSH20 0xFFFFFFFFFFFFFFFFFFFFFFFFFFFFFFFFFFFFFFFF AND PUSH4 0x70A08231 PUSH1 0x6 PUSH0 SWAP1 SLOAD SWAP1 PUSH2 0x100 EXP SWAP1 DIV PUSH20 0xFFFFFFFFFFFFFFFFFFFFFFFFFFFFFFFFFFFFFFFF AND PUSH1 0x40 MLOAD DUP3 PUSH4 0xFFFFFFFF AND PUSH1 0xE0 SHL DUP2 MSTORE PUSH1 0x4 ADD PUSH2 0x176C SWAP2 SWAP1 PUSH2 0x22B1 JUMP JUMPDEST PUSH1 0x20 PUSH1 0x40 MLOAD DUP1 DUP4 SUB DUP2 DUP7 GAS STATICCALL ISZERO DUP1 ISZERO PUSH2 0x1787 JUMPI RETURNDATASIZE PUSH0 DUP1 RETURNDATACOPY RETURNDATASIZE PUSH0 REVERT JUMPDEST POP POP POP POP PUSH1 0x40 MLOAD RETURNDATASIZE PUSH1 0x1F NOT PUSH1 0x1F DUP3 ADD AND DUP3 ADD DUP1 PUSH1 0x40 MSTORE POP DUP2 ADD SWAP1 PUSH2 0x17AB SWAP2 SWAP1 PUSH2 0x29F9 JUMP JUMPDEST SWAP1 POP PUSH0 PUSH1 0x4 PUSH0 SWAP1 SLOAD SWAP1 PUSH2 0x100 EXP SWAP1 DIV PUSH20 0xFFFFFFFFFFFFFFFFFFFFFFFFFFFFFFFFFFFFFFFF AND PUSH20 0xFFFFFFFFFFFFFFFFFFFFFFFFFFFFFFFFFFFFFFFF AND PUSH4 0x70A08231 PUSH1 0x6 PUSH0 SWAP1 SLOAD SWAP1 PUSH2 0x100 EXP SWAP1 DIV PUSH20 0xFFFFFFFFFFFFFFFFFFFFFFFFFFFFFFFFFFFFFFFF AND PUSH1 0x40 MLOAD DUP3 PUSH4 0xFFFFFFFF AND PUSH1 0xE0 SHL DUP2 MSTORE PUSH1 0x4 ADD PUSH2 0x1829 SWAP2 SWAP1 PUSH2 0x22B1 JUMP JUMPDEST PUSH1 0x20 PUSH1 0x40 MLOAD DUP1 DUP4 SUB DUP2 DUP7 GAS STATICCALL ISZERO DUP1 ISZERO PUSH2 0x1844 JUMPI RETURNDATASIZE PUSH0 DUP1 RETURNDATACOPY RETURNDATASIZE PUSH0 REVERT JUMPDEST POP POP POP POP PUSH1 0x40 MLOAD RETURNDATASIZE PUSH1 0x1F NOT PUSH1 0x1F DUP3 ADD AND DUP3 ADD DUP1 PUSH1 0x40 MSTORE POP DUP2 ADD SWAP1 PUSH2 0x1868 SWAP2 SWAP1 PUSH2 0x29F9 JUMP JUMPDEST SWAP1 POP PUSH0 DUP2 EQ PUSH2 0x1884 JUMPI DUP1 DUP3 PUSH2 0x187D SWAP2 SWAP1 PUSH2 0x26CD JUMP JUMPDEST PUSH1 0x7 DUP2 SWAP1 SSTORE POP JUMPDEST PUSH1 0x7 SLOAD SWAP3 POP POP POP SWAP1 JUMP JUMPDEST PUSH0 DUP1 PUSH2 0x2710 PUSH1 0x5 DUP5 PUSH2 0x18A0 SWAP2 SWAP1 PUSH2 0x27E6 JUMP JUMPDEST PUSH2 0x18AA SWAP2 SWAP1 PUSH2 0x26CD JUMP JUMPDEST SWAP1 POP PUSH0 PUSH1 0x5 DUP3 PUSH2 0x18BA SWAP2 SWAP1 PUSH2 0x26CD JUMP JUMPDEST SWAP1 POP PUSH0 DUP2 DUP4 PUSH2 0x18C9 SWAP2 SWAP1 PUSH2 0x2724 JUMP JUMPDEST SWAP1 POP PUSH0 PUSH1 0x3 PUSH0 SWAP1 SLOAD SWAP1 PUSH2 0x100 EXP SWAP1 DIV PUSH20 0xFFFFFFFFFFFFFFFFFFFFFFFFFFFFFFFFFFFFFFFF AND PUSH20 0xFFFFFFFFFFFFFFFFFFFFFFFFFFFFFFFFFFFFFFFF AND PUSH4 0xA9059CBB PUSH1 0x5 PUSH0 SWAP1 SLOAD SWAP1 PUSH2 0x100 EXP SWAP1 DIV PUSH20 0xFFFFFFFFFFFFFFFFFFFFFFFFFFFFFFFFFFFFFFFF AND DUP6 PUSH1 0x40 MLOAD DUP4 PUSH4 0xFFFFFFFF AND PUSH1 0xE0 SHL DUP2 MSTORE PUSH1 0x4 ADD PUSH2 0x1949 SWAP3 SWAP2 SWAP1 PUSH2 0x29BE JUMP JUMPDEST PUSH1 0x20 PUSH1 0x40 MLOAD DUP1 DUP4 SUB DUP2 PUSH0 DUP8 GAS CALL ISZERO DUP1 ISZERO PUSH2 0x1965 JUMPI RETURNDATASIZE PUSH0 DUP1 RETURNDATACOPY RETURNDATASIZE PUSH0 REVERT JUMPDEST POP POP POP POP PUSH1 0x40 MLOAD RETURNDATASIZE PUSH1 0x1F NOT PUSH1 0x1F DUP3 ADD AND DUP3 ADD DUP1 PUSH1 0x40 MSTORE POP DUP2 ADD SWAP1 PUSH2 0x1989 SWAP2 SWAP1 PUSH2 0x2870 JUMP JUMPDEST SWAP1 POP DUP1 PUSH2 0x1994 JUMPI PUSH0 DUP1 REVERT JUMPDEST PUSH1 0x3 PUSH0 SWAP1 SLOAD SWAP1 PUSH2 0x100 EXP SWAP1 DIV PUSH20 0xFFFFFFFFFFFFFFFFFFFFFFFFFFFFFFFFFFFFFFFF AND PUSH20 0xFFFFFFFFFFFFFFFFFFFFFFFFFFFFFFFFFFFFFFFF AND PUSH4 0xA9059CBB ADDRESS DUP5 PUSH1 0x40 MLOAD DUP4 PUSH4 0xFFFFFFFF AND PUSH1 0xE0 SHL DUP2 MSTORE PUSH1 0x4 ADD PUSH2 0x19F0 SWAP3 SWAP2 SWAP1 PUSH2 0x29BE JUMP JUMPDEST PUSH1 0x20 PUSH1 0x40 MLOAD DUP1 DUP4 SUB DUP2 PUSH0 DUP8 GAS CALL ISZERO DUP1 ISZERO PUSH2 0x1A0C JUMPI RETURNDATASIZE PUSH0 DUP1 RETURNDATACOPY RETURNDATASIZE PUSH0 REVERT JUMPDEST POP POP POP POP PUSH1 0x40 MLOAD RETURNDATASIZE PUSH1 0x1F NOT PUSH1 0x1F DUP3 ADD AND DUP3 ADD DUP1 PUSH1 0x40 MSTORE POP DUP2 ADD SWAP1 PUSH2 0x1A30 SWAP2 SWAP1 PUSH2 0x2870 JUMP JUMPDEST SWAP1 POP DUP1 PUSH2 0x1A3B JUMPI PUSH0 DUP1 REVERT JUMPDEST DUP2 PUSH1 0xA PUSH0 DUP3 DUP3 SLOAD PUSH2 0x1A4C SWAP2 SWAP1 PUSH2 0x266D JUMP JUMPDEST SWAP3 POP POP DUP2 SWAP1 SSTORE POP DUP4 SWAP5 POP POP POP POP POP SWAP2 SWAP1 POP JUMP JUMPDEST PUSH0 DUP1 PUSH2 0x1A69 PUSH2 0x2224 JUMP JUMPDEST PUSH0 PUSH1 0x9 DUP1 SLOAD SWAP1 POP SWAP1 POP JUMPDEST PUSH0 DUP2 GT DUP1 ISZERO PUSH2 0x1A80 JUMPI POP DUP4 ISZERO JUMPDEST ISZERO PUSH2 0x1BAE JUMPI PUSH1 0x1 DUP2 PUSH2 0x1A92 SWAP2 SWAP1 PUSH2 0x2724 JUMP JUMPDEST SWAP3 POP PUSH1 0x9 DUP4 DUP2 SLOAD DUP2 LT PUSH2 0x1AA8 JUMPI PUSH2 0x1AA7 PUSH2 0x2613 JUMP JUMPDEST JUMPDEST SWAP1 PUSH0 MSTORE PUSH1 0x20 PUSH0 KECCAK256 SWAP1 PUSH1 0x7 MUL ADD PUSH1 0x40 MLOAD DUP1 PUSH1 0xE0 ADD PUSH1 0x40 MSTORE SWAP1 DUP2 PUSH0 DUP3 ADD PUSH0 SWAP1 SLOAD SWAP1 PUSH2 0x100 EXP SWAP1 DIV PUSH20 0xFFFFFFFFFFFFFFFFFFFFFFFFFFFFFFFFFFFFFFFF AND PUSH20 0xFFFFFFFFFFFFFFFFFFFFFFFFFFFFFFFFFFFFFFFF AND PUSH20 0xFFFFFFFFFFFFFFFFFFFFFFFFFFFFFFFFFFFFFFFF AND DUP2 MSTORE PUSH1 0x20 ADD PUSH1 0x1 DUP3 ADD SLOAD DUP2 MSTORE PUSH1 0x20 ADD PUSH1 0x2 DUP3 ADD SLOAD DUP2 MSTORE PUSH1 0x20 ADD PUSH1 0x3 DUP3 ADD SLOAD DUP2 MSTORE PUSH1 0x20 ADD PUSH1 0x4 DUP3 ADD SLOAD DUP2 MSTORE PUSH1 0x20 ADD PUSH1 0x5 DUP3 ADD PUSH0 SWAP1 SLOAD SWAP1 PUSH2 0x100 EXP SWAP1 DIV PUSH1 0xFF AND ISZERO ISZERO ISZERO ISZERO DUP2 MSTORE PUSH1 0x20 ADD PUSH1 0x6 DUP3 ADD SLOAD DUP2 MSTORE POP POP SWAP2 POP DUP5 ISZERO DUP1 ISZERO PUSH2 0x1B72 JUMPI POP PUSH0 DUP3 PUSH1 0x80 ADD MLOAD GT JUMPDEST ISZERO PUSH2 0x1B80 JUMPI PUSH1 0x1 SWAP4 POP PUSH2 0x1B9B JUMP JUMPDEST DUP5 DUP1 ISZERO PUSH2 0x1B90 JUMPI POP PUSH0 DUP3 PUSH1 0x60 ADD MLOAD GT JUMPDEST ISZERO PUSH2 0x1B9A JUMPI PUSH1 0x1 SWAP4 POP JUMPDEST JUMPDEST DUP1 DUP1 PUSH2 0x1BA6 SWAP1 PUSH2 0x2757 JUMP JUMPDEST SWAP2 POP POP PUSH2 0x1A73 JUMP JUMPDEST POP POP SWAP2 POP SWAP2 JUMP JUMPDEST PUSH0 DUP1 DUP6 PUSH1 0x4 ADD SLOAD SWAP1 POP PUSH0 DUP5 DUP3 GT ISZERO PUSH2 0x1BCD JUMPI DUP5 PUSH2 0x1BCF JUMP JUMPDEST DUP2 JUMPDEST SWAP1 POP DUP1 DUP8 PUSH1 0x4 ADD PUSH0 DUP3 DUP3 SLOAD PUSH2 0x1BE4 SWAP2 SWAP1 PUSH2 0x2724 JUMP JUMPDEST SWAP3 POP POP DUP2 SWAP1 SSTORE POP DUP1 DUP6 PUSH2 0x1BF7 SWAP2 SWAP1 PUSH2 0x2724 JUMP JUMPDEST SWAP5 POP DUP4 DUP2 PUSH2 0x1C05 SWAP2 SWAP1 PUSH2 0x26CD JUMP JUMPDEST DUP8 PUSH1 0x3 ADD PUSH0 DUP3 DUP3 SLOAD PUSH2 0x1C17 SWAP2 SWAP1 PUSH2 0x266D JUMP JUMPDEST SWAP3 POP POP DUP2 SWAP1 SSTORE POP DUP1 DUP7 PUSH1 0x4 ADD PUSH0 DUP3 DUP3 SLOAD PUSH2 0x1C31 SWAP2 SWAP1 PUSH2 0x266D JUMP JUMPDEST SWAP3 POP POP DUP2 SWAP1 SSTORE POP DUP5 SWAP3 POP POP POP SWAP5 SWAP4 POP POP POP POP JUMP JUMPDEST PUSH0 DUP1 DUP4 DUP7 PUSH1 0x3 ADD SLOAD GT PUSH2 0x1C5E JUMPI DUP6 PUSH1 0x3 ADD SLOAD SWAP1 POP PUSH2 0x1C62 JUMP JUMPDEST DUP4 SWAP1 POP JUMPDEST DUP1 DUP7 PUSH1 0x3 ADD PUSH0 DUP3 DUP3 SLOAD PUSH2 0x1C75 SWAP2 SWAP1 PUSH2 0x2724 JUMP JUMPDEST SWAP3 POP POP DUP2 SWAP1 SSTORE POP DUP1 DUP5 PUSH2 0x1C88 SWAP2 SWAP1 PUSH2 0x2724 JUMP JUMPDEST SWAP4 POP DUP3 DUP2 PUSH2 0x1C96 SWAP2 SWAP1 PUSH2 0x27E6 JUMP JUMPDEST DUP7 PUSH1 0x4 ADD PUSH0 DUP3 DUP3 SLOAD PUSH2 0x1CA8 SWAP2 SWAP1 PUSH2 0x266D JUMP JUMPDEST SWAP3 POP POP DUP2 SWAP1 SSTORE POP DUP1 DUP6 PUSH1 0x3 ADD PUSH0 DUP3 DUP3 SLOAD PUSH2 0x1CC2 SWAP2 SWAP1 PUSH2 0x266D JUMP JUMPDEST SWAP3 POP POP DUP2 SWAP1 SSTORE POP DUP4 SWAP2 POP POP SWAP5 SWAP4 POP POP POP POP JUMP JUMPDEST PUSH0 PUSH1 0x8 PUSH0 CALLER PUSH20 0xFFFFFFFFFFFFFFFFFFFFFFFFFFFFFFFFFFFFFFFF AND PUSH20 0xFFFFFFFFFFFFFFFFFFFFFFFFFFFFFFFFFFFFFFFF AND DUP2 MSTORE PUSH1 0x20 ADD SWAP1 DUP2 MSTORE PUSH1 0x20 ADD PUSH0 KECCAK256 SWAP1 POP PUSH0 DUP2 DUP1 SLOAD SWAP1 POP SWAP1 POP PUSH0 DUP1 DUP5 ISZERO PUSH2 0x1D2D JUMPI DUP6 SWAP2 POP PUSH2 0x1D31 JUMP JUMPDEST DUP6 SWAP1 POP JUMPDEST PUSH0 PUSH1 0x40 MLOAD DUP1 PUSH1 0xE0 ADD PUSH1 0x40 MSTORE DUP1 CALLER PUSH20 0xFFFFFFFFFFFFFFFFFFFFFFFFFFFFFFFFFFFFFFFF AND DUP2 MSTORE PUSH1 0x20 ADD TIMESTAMP DUP2 MSTORE PUSH1 0x20 ADD PUSH1 0x7 SLOAD DUP2 MSTORE PUSH1 0x20 ADD DUP5 DUP2 MSTORE PUSH1 0x20 ADD DUP4 DUP2 MSTORE PUSH1 0x20 ADD PUSH0 ISZERO ISZERO DUP2 MSTORE PUSH1 0x20 ADD DUP7 DUP1 SLOAD SWAP1 POP DUP2 MSTORE POP SWAP1 POP DUP6 ISZERO PUSH2 0x1DA7 JUMPI PUSH1 0xD PUSH0 DUP2 SLOAD DUP1 SWAP3 SWAP2 SWAP1 PUSH2 0x1D9D SWAP1 PUSH2 0x2ADE JUMP JUMPDEST SWAP2 SWAP1 POP SSTORE POP PUSH2 0x1DBF JUMP JUMPDEST PUSH1 0xE PUSH0 DUP2 SLOAD DUP1 SWAP3 SWAP2 SWAP1 PUSH2 0x1DB9 SWAP1 PUSH2 0x2ADE JUMP JUMPDEST SWAP2 SWAP1 POP SSTORE POP JUMPDEST PUSH1 0x9 DUP2 SWAP1 DUP1 PUSH1 0x1 DUP2 SLOAD ADD DUP1 DUP3 SSTORE DUP1 SWAP2 POP POP PUSH1 0x1 SWAP1 SUB SWAP1 PUSH0 MSTORE PUSH1 0x20 PUSH0 KECCAK256 SWAP1 PUSH1 0x7 MUL ADD PUSH0 SWAP1 SWAP2 SWAP1 SWAP2 SWAP1 SWAP2 POP PUSH0 DUP3 ADD MLOAD DUP2 PUSH0 ADD PUSH0 PUSH2 0x100 EXP DUP2 SLOAD DUP2 PUSH20 0xFFFFFFFFFFFFFFFFFFFFFFFFFFFFFFFFFFFFFFFF MUL NOT AND SWAP1 DUP4 PUSH20 0xFFFFFFFFFFFFFFFFFFFFFFFFFFFFFFFFFFFFFFFF AND MUL OR SWAP1 SSTORE POP PUSH1 0x20 DUP3 ADD MLOAD DUP2 PUSH1 0x1 ADD SSTORE PUSH1 0x40 DUP3 ADD MLOAD DUP2 PUSH1 0x2 ADD SSTORE PUSH1 0x60 DUP3 ADD MLOAD DUP2 PUSH1 0x3 ADD SSTORE PUSH1 0x80 DUP3 ADD MLOAD DUP2 PUSH1 0x4 ADD SSTORE PUSH1 0xA0 DUP3 ADD MLOAD DUP2 PUSH1 0x5 ADD PUSH0 PUSH2 0x100 EXP DUP2 SLOAD DUP2 PUSH1 0xFF MUL NOT AND SWAP1 DUP4 ISZERO ISZERO MUL OR SWAP1 SSTORE POP PUSH1 0xC0 DUP3 ADD MLOAD DUP2 PUSH1 0x6 ADD SSTORE POP POP DUP5 DUP5 SWAP1 DUP1 PUSH1 0x1 DUP2 SLOAD ADD DUP1 DUP3 SSTORE DUP1 SWAP2 POP POP PUSH1 0x1 SWAP1 SUB SWAP1 PUSH0 MSTORE PUSH1 0x20 PUSH0 KECCAK256 ADD PUSH0 SWAP1 SWAP2 SWAP1 SWAP2 SWAP1 SWAP2 POP SSTORE POP POP POP POP POP POP POP JUMP JUMPDEST PUSH0 PUSH20 0xFFFFFFFFFFFFFFFFFFFFFFFFFFFFFFFFFFFFFFFF AND DUP2 PUSH20 0xFFFFFFFFFFFFFFFFFFFFFFFFFFFFFFFFFFFFFFFF AND SUB PUSH2 0x1EE4 JUMPI PUSH0 DUP1 REVERT JUMPDEST DUP1 PUSH20 0xFFFFFFFFFFFFFFFFFFFFFFFFFFFFFFFFFFFFFFFF AND PUSH0 DUP1 SLOAD SWAP1 PUSH2 0x100 EXP SWAP1 DIV PUSH20 0xFFFFFFFFFFFFFFFFFFFFFFFFFFFFFFFFFFFFFFFF AND PUSH20 0xFFFFFFFFFFFFFFFFFFFFFFFFFFFFFFFFFFFFFFFF AND PUSH32 0x8BE0079C531659141344CD1FD0A4F28419497F9722A3DAAFE3B4186F6B6457E0 PUSH1 0x40 MLOAD PUSH1 0x40 MLOAD DUP1 SWAP2 SUB SWAP1 LOG3 DUP1 PUSH0 DUP1 PUSH2 0x100 EXP DUP2 SLOAD DUP2 PUSH20 0xFFFFFFFFFFFFFFFFFFFFFFFFFFFFFFFFFFFFFFFF MUL NOT AND SWAP1 DUP4 PUSH20 0xFFFFFFFFFFFFFFFFFFFFFFFFFFFFFFFFFFFFFFFF AND MUL OR SWAP1 SSTORE POP POP JUMP JUMPDEST PUSH0 DUP1 PUSH1 0x1 DUP5 DUP1 SLOAD SWAP1 POP PUSH2 0x1FB2 SWAP2 SWAP1 PUSH2 0x2724 JUMP JUMPDEST SWAP1 POP PUSH0 DUP2 DUP5 EQ SWAP1 POP DUP1 PUSH2 0x1FFB JUMPI DUP5 DUP3 DUP2 SLOAD DUP2 LT PUSH2 0x1FD2 JUMPI PUSH2 0x1FD1 PUSH2 0x2613 JUMP JUMPDEST JUMPDEST SWAP1 PUSH0 MSTORE PUSH1 0x20 PUSH0 KECCAK256 ADD SLOAD DUP6 DUP6 DUP2 SLOAD DUP2 LT PUSH2 0x1FEE JUMPI PUSH2 0x1FED PUSH2 0x2613 JUMP JUMPDEST JUMPDEST SWAP1 PUSH0 MSTORE PUSH1 0x20 PUSH0 KECCAK256 ADD DUP2 SWAP1 SSTORE POP JUMPDEST DUP5 DUP1 SLOAD DUP1 PUSH2 0x200C JUMPI PUSH2 0x200B PUSH2 0x2B25 JUMP JUMPDEST JUMPDEST PUSH1 0x1 SWAP1 SUB DUP2 DUP2 SWAP1 PUSH0 MSTORE PUSH1 0x20 PUSH0 KECCAK256 ADD PUSH0 SWAP1 SSTORE SWAP1 SSTORE DUP1 ISZERO SWAP3 POP POP POP SWAP3 SWAP2 POP POP JUMP JUMPDEST PUSH0 DUP1 PUSH1 0x1 DUP5 DUP1 SLOAD SWAP1 POP PUSH2 0x203E SWAP2 SWAP1 PUSH2 0x2724 JUMP JUMPDEST SWAP1 POP PUSH0 DUP2 DUP5 EQ SWAP1 POP DUP1 PUSH2 0x214D JUMPI DUP5 DUP3 DUP2 SLOAD DUP2 LT PUSH2 0x205E JUMPI PUSH2 0x205D PUSH2 0x2613 JUMP JUMPDEST JUMPDEST SWAP1 PUSH0 MSTORE PUSH1 0x20 PUSH0 KECCAK256 SWAP1 PUSH1 0x7 MUL ADD DUP6 DUP6 DUP2 SLOAD DUP2 LT PUSH2 0x207D JUMPI PUSH2 0x207C PUSH2 0x2613 JUMP JUMPDEST JUMPDEST SWAP1 PUSH0 MSTORE PUSH1 0x20 PUSH0 KECCAK256 SWAP1 PUSH1 0x7 MUL ADD PUSH0 DUP3 ADD PUSH0 SWAP1 SLOAD SWAP1 PUSH2 0x100 EXP SWAP1 DIV PUSH20 0xFFFFFFFFFFFFFFFFFFFFFFFFFFFFFFFFFFFFFFFF AND DUP2 PUSH0 ADD PUSH0 PUSH2 0x100 EXP DUP2 SLOAD DUP2 PUSH20 0xFFFFFFFFFFFFFFFFFFFFFFFFFFFFFFFFFFFFFFFF MUL NOT AND SWAP1 DUP4 PUSH20 0xFFFFFFFFFFFFFFFFFFFFFFFFFFFFFFFFFFFFFFFF AND MUL OR SWAP1 SSTORE POP PUSH1 0x1 DUP3 ADD SLOAD DUP2 PUSH1 0x1 ADD SSTORE PUSH1 0x2 DUP3 ADD SLOAD DUP2 PUSH1 0x2 ADD SSTORE PUSH1 0x3 DUP3 ADD SLOAD DUP2 PUSH1 0x3 ADD SSTORE PUSH1 0x4 DUP3 ADD SLOAD DUP2 PUSH1 0x4 ADD SSTORE PUSH1 0x5 DUP3 ADD PUSH0 SWAP1 SLOAD SWAP1 PUSH2 0x100 EXP SWAP1 DIV PUSH1 0xFF AND DUP2 PUSH1 0x5 ADD PUSH0 PUSH2 0x100 EXP DUP2 SLOAD DUP2 PUSH1 0xFF MUL NOT AND SWAP1 DUP4 ISZERO ISZERO MUL OR SWAP1 SSTORE POP PUSH1 0x6 DUP3 ADD SLOAD DUP2 PUSH1 0x6 ADD SSTORE SWAP1 POP POP JUMPDEST DUP5 DUP1 SLOAD DUP1 PUSH2 0x215E JUMPI PUSH2 0x215D PUSH2 0x2B25 JUMP JUMPDEST JUMPDEST PUSH1 0x1 SWAP1 SUB DUP2 DUP2 SWAP1 PUSH0 MSTORE PUSH1 0x20 PUSH0 KECCAK256 SWAP1 PUSH1 0x7 MUL ADD PUSH0 DUP1 DUP3 ADD PUSH0 PUSH2 0x100 EXP DUP2 SLOAD SWAP1 PUSH20 0xFFFFFFFFFFFFFFFFFFFFFFFFFFFFFFFFFFFFFFFF MUL NOT AND SWAP1 SSTORE PUSH1 0x1 DUP3 ADD PUSH0 SWAP1 SSTORE PUSH1 0x2 DUP3 ADD PUSH0 SWAP1 SSTORE PUSH1 0x3 DUP3 ADD PUSH0 SWAP1 SSTORE PUSH1 0x4 DUP3 ADD PUSH0 SWAP1 SSTORE PUSH1 0x5 DUP3 ADD PUSH0 PUSH2 0x100 EXP DUP2 SLOAD SWAP1 PUSH1 0xFF MUL NOT AND SWAP1 SSTORE PUSH1 0x6 DUP3 ADD PUSH0 SWAP1 SSTORE POP POP SWAP1 SSTORE DUP1 ISZERO SWAP3 POP POP POP SWAP3 SWAP2 POP POP JUMP JUMPDEST PUSH1 0x40 MLOAD DUP1 PUSH1 0xC0 ADD PUSH1 0x40 MSTORE DUP1 PUSH0 PUSH20 0xFFFFFFFFFFFFFFFFFFFFFFFFFFFFFFFFFFFFFFFF AND DUP2 MSTORE PUSH1 0x20 ADD PUSH0 DUP2 MSTORE PUSH1 0x20 ADD PUSH0 DUP2 MSTORE PUSH1 0x20 ADD PUSH0 DUP2 MSTORE PUSH1 0x20 ADD PUSH0 DUP2 MSTORE PUSH1 0x20 ADD PUSH0 ISZERO ISZERO DUP2 MSTORE POP SWAP1 JUMP JUMPDEST PUSH1 0x40 MLOAD DUP1 PUSH1 0xE0 ADD PUSH1 0x40 MSTORE DUP1 PUSH0 PUSH20 0xFFFFFFFFFFFFFFFFFFFFFFFFFFFFFFFFFFFFFFFF AND DUP2 MSTORE PUSH1 0x20 ADD PUSH0 DUP2 MSTORE PUSH1 0x20 ADD PUSH0 DUP2 MSTORE PUSH1 0x20 ADD PUSH0 DUP2 MSTORE PUSH1 0x20 ADD PUSH0 DUP2 MSTORE PUSH1 0x20 ADD PUSH0 ISZERO ISZERO DUP2 MSTORE PUSH1 0x20 ADD PUSH0 DUP2 MSTORE POP SWAP1 JUMP JUMPDEST PUSH0 PUSH20 0xFFFFFFFFFFFFFFFFFFFFFFFFFFFFFFFFFFFFFFFF DUP3 AND SWAP1 POP SWAP2 SWAP1 POP JUMP JUMPDEST PUSH0 PUSH2 0x229B DUP3 PUSH2 0x2272 JUMP JUMPDEST SWAP1 POP SWAP2 SWAP1 POP JUMP JUMPDEST PUSH2 0x22AB DUP2 PUSH2 0x2291 JUMP JUMPDEST DUP3 MSTORE POP POP JUMP JUMPDEST PUSH0 PUSH1 0x20 DUP3 ADD SWAP1 POP PUSH2 0x22C4 PUSH0 DUP4 ADD DUP5 PUSH2 0x22A2 JUMP JUMPDEST SWAP3 SWAP2 POP POP JUMP JUMPDEST PUSH0 DUP1 REVERT JUMPDEST PUSH0 DUP2 SWAP1 POP SWAP2 SWAP1 POP JUMP JUMPDEST PUSH2 0x22E0 DUP2 PUSH2 0x22CE JUMP JUMPDEST DUP2 EQ PUSH2 0x22EA JUMPI PUSH0 DUP1 REVERT JUMPDEST POP JUMP JUMPDEST PUSH0 DUP2 CALLDATALOAD SWAP1 POP PUSH2 0x22FB DUP2 PUSH2 0x22D7 JUMP JUMPDEST SWAP3 SWAP2 POP POP JUMP JUMPDEST PUSH0 PUSH1 0x20 DUP3 DUP5 SUB SLT ISZERO PUSH2 0x2316 JUMPI PUSH2 0x2315 PUSH2 0x22CA JUMP JUMPDEST JUMPDEST PUSH0 PUSH2 0x2323 DUP5 DUP3 DUP6 ADD PUSH2 0x22ED JUMP JUMPDEST SWAP2 POP POP SWAP3 SWAP2 POP POP JUMP JUMPDEST PUSH2 0x2335 DUP2 PUSH2 0x22CE JUMP JUMPDEST DUP3 MSTORE POP POP JUMP JUMPDEST PUSH0 PUSH1 0x20 DUP3 ADD SWAP1 POP PUSH2 0x234E PUSH0 DUP4 ADD DUP5 PUSH2 0x232C JUMP JUMPDEST SWAP3 SWAP2 POP POP JUMP JUMPDEST PUSH2 0x235D DUP2 PUSH2 0x2291 JUMP JUMPDEST DUP2 EQ PUSH2 0x2367 JUMPI PUSH0 DUP1 REVERT JUMPDEST POP JUMP JUMPDEST PUSH0 DUP2 CALLDATALOAD SWAP1 POP PUSH2 0x2378 DUP2 PUSH2 0x2354 JUMP JUMPDEST SWAP3 SWAP2 POP POP JUMP JUMPDEST PUSH0 PUSH1 0x20 DUP3 DUP5 SUB SLT ISZERO PUSH2 0x2393 JUMPI PUSH2 0x2392 PUSH2 0x22CA JUMP JUMPDEST JUMPDEST PUSH0 PUSH2 0x23A0 DUP5 DUP3 DUP6 ADD PUSH2 0x236A JUMP JUMPDEST SWAP2 POP POP SWAP3 SWAP2 POP POP JUMP JUMPDEST PUSH2 0x23B2 DUP2 PUSH2 0x2291 JUMP JUMPDEST DUP3 MSTORE POP POP JUMP JUMPDEST PUSH2 0x23C1 DUP2 PUSH2 0x22CE JUMP JUMPDEST DUP3 MSTORE POP POP JUMP JUMPDEST PUSH0 DUP2 ISZERO ISZERO SWAP1 POP SWAP2 SWAP1 POP JUMP JUMPDEST PUSH2 0x23DB DUP2 PUSH2 0x23C7 JUMP JUMPDEST DUP3 MSTORE POP POP JUMP JUMPDEST PUSH1 0xC0 DUP3 ADD PUSH0 DUP3 ADD MLOAD PUSH2 0x23F5 PUSH0 DUP6 ADD DUP3 PUSH2 0x23A9 JUMP JUMPDEST POP PUSH1 0x20 DUP3 ADD MLOAD PUSH2 0x2408 PUSH1 0x20 DUP6 ADD DUP3 PUSH2 0x23B8 JUMP JUMPDEST POP PUSH1 0x40 DUP3 ADD MLOAD PUSH2 0x241B PUSH1 0x40 DUP6 ADD DUP3 PUSH2 0x23B8 JUMP JUMPDEST POP PUSH1 0x60 DUP3 ADD MLOAD PUSH2 0x242E PUSH1 0x60 DUP6 ADD DUP3 PUSH2 0x23B8 JUMP JUMPDEST POP PUSH1 0x80 DUP3 ADD MLOAD PUSH2 0x2441 PUSH1 0x80 DUP6 ADD DUP3 PUSH2 0x23B8 JUMP JUMPDEST POP PUSH1 0xA0 DUP3 ADD MLOAD PUSH2 0x2454 PUSH1 0xA0 DUP6 ADD DUP3 PUSH2 0x23D2 JUMP JUMPDEST POP POP POP POP JUMP JUMPDEST PUSH0 PUSH1 0xC0 DUP3 ADD SWAP1 POP PUSH2 0x246D PUSH0 DUP4 ADD DUP5 PUSH2 0x23E1 JUMP JUMPDEST SWAP3 SWAP2 POP POP JUMP JUMPDEST PUSH2 0x247C DUP2 PUSH2 0x23C7 JUMP JUMPDEST DUP2 EQ PUSH2 0x2486 JUMPI PUSH0 DUP1 REVERT JUMPDEST POP JUMP JUMPDEST PUSH0 DUP2 CALLDATALOAD SWAP1 POP PUSH2 0x2497 DUP2 PUSH2 0x2473 JUMP JUMPDEST SWAP3 SWAP2 POP POP JUMP JUMPDEST PUSH0 PUSH1 0x20 DUP3 DUP5 SUB SLT ISZERO PUSH2 0x24B2 JUMPI PUSH2 0x24B1 PUSH2 0x22CA JUMP JUMPDEST JUMPDEST PUSH0 PUSH2 0x24BF DUP5 DUP3 DUP6 ADD PUSH2 0x2489 JUMP JUMPDEST SWAP2 POP POP SWAP3 SWAP2 POP POP JUMP JUMPDEST PUSH2 0x24D1 DUP2 PUSH2 0x23C7 JUMP JUMPDEST DUP3 MSTORE POP POP JUMP JUMPDEST PUSH0 PUSH1 0x20 DUP3 ADD SWAP1 POP PUSH2 0x24EA PUSH0 DUP4 ADD DUP5 PUSH2 0x24C8 JUMP JUMPDEST SWAP3 SWAP2 POP POP JUMP JUMPDEST PUSH0 PUSH1 0xE0 DUP3 ADD SWAP1 POP PUSH2 0x2503 PUSH0 DUP4 ADD DUP11 PUSH2 0x22A2 JUMP JUMPDEST PUSH2 0x2510 PUSH1 0x20 DUP4 ADD DUP10 PUSH2 0x232C JUMP JUMPDEST PUSH2 0x251D PUSH1 0x40 DUP4 ADD DUP9 PUSH2 0x232C JUMP JUMPDEST PUSH2 0x252A PUSH1 0x60 DUP4 ADD DUP8 PUSH2 0x232C JUMP JUMPDEST PUSH2 0x2537 PUSH1 0x80 DUP4 ADD DUP7 PUSH2 0x232C JUMP JUMPDEST PUSH2 0x2544 PUSH1 0xA0 DUP4 ADD DUP6 PUSH2 0x24C8 JUMP JUMPDEST PUSH2 0x2551 PUSH1 0xC0 DUP4 ADD DUP5 PUSH2 0x232C JUMP JUMPDEST SWAP9 SWAP8 POP POP POP POP POP POP POP POP JUMP JUMPDEST PUSH0 DUP1 PUSH1 0x40 DUP4 DUP6 SUB SLT ISZERO PUSH2 0x2573 JUMPI PUSH2 0x2572 PUSH2 0x22CA JUMP JUMPDEST JUMPDEST PUSH0 PUSH2 0x2580 DUP6 DUP3 DUP7 ADD PUSH2 0x236A JUMP JUMPDEST SWAP3 POP POP PUSH1 0x20 PUSH2 0x2591 DUP6 DUP3 DUP7 ADD PUSH2 0x22ED JUMP JUMPDEST SWAP2 POP POP SWAP3 POP SWAP3 SWAP1 POP JUMP JUMPDEST PUSH0 DUP3 DUP3 MSTORE PUSH1 0x20 DUP3 ADD SWAP1 POP SWAP3 SWAP2 POP POP JUMP JUMPDEST PUSH32 0x496E646578206F7574206F662072616E67650000000000000000000000000000 PUSH0 DUP3 ADD MSTORE POP JUMP JUMPDEST PUSH0 PUSH2 0x25DF PUSH1 0x12 DUP4 PUSH2 0x259B JUMP JUMPDEST SWAP2 POP PUSH2 0x25EA DUP3 PUSH2 0x25AB JUMP JUMPDEST PUSH1 0x20 DUP3 ADD SWAP1 POP SWAP2 SWAP1 POP JUMP JUMPDEST PUSH0 PUSH1 0x20 DUP3 ADD SWAP1 POP DUP2 DUP2 SUB PUSH0 DUP4 ADD MSTORE PUSH2 0x260C DUP2 PUSH2 0x25D3 JUMP JUMPDEST SWAP1 POP SWAP2 SWAP1 POP JUMP JUMPDEST PUSH32 0x4E487B7100000000000000000000000000000000000000000000000000000000 PUSH0 MSTORE PUSH1 0x32 PUSH1 0x4 MSTORE PUSH1 0x24 PUSH0 REVERT JUMPDEST PUSH32 0x4E487B7100000000000000000000000000000000000000000000000000000000 PUSH0 MSTORE PUSH1 0x11 PUSH1 0x4 MSTORE PUSH1 0x24 PUSH0 REVERT JUMPDEST PUSH0 PUSH2 0x2677 DUP3 PUSH2 0x22CE JUMP JUMPDEST SWAP2 POP PUSH2 0x2682 DUP4 PUSH2 0x22CE JUMP JUMPDEST SWAP3 POP DUP3 DUP3 ADD SWAP1 POP DUP1 DUP3 GT ISZERO PUSH2 0x269A JUMPI PUSH2 0x2699 PUSH2 0x2640 JUMP JUMPDEST JUMPDEST SWAP3 SWAP2 POP POP JUMP JUMPDEST PUSH32 0x4E487B7100000000000000000000000000000000000000000000000000000000 PUSH0 MSTORE PUSH1 0x12 PUSH1 0x4 MSTORE PUSH1 0x24 PUSH0 REVERT JUMPDEST PUSH0 PUSH2 0x26D7 DUP3 PUSH2 0x22CE JUMP JUMPDEST SWAP2 POP PUSH2 0x26E2 DUP4 PUSH2 0x22CE JUMP JUMPDEST SWAP3 POP DUP3 PUSH2 0x26F2 JUMPI PUSH2 0x26F1 PUSH2 0x26A0 JUMP JUMPDEST JUMPDEST DUP3 DUP3 DIV SWAP1 POP SWAP3 SWAP2 POP POP JUMP JUMPDEST PUSH0 PUSH1 0x40 DUP3 ADD SWAP1 POP PUSH2 0x2710 PUSH0 DUP4 ADD DUP6 PUSH2 0x232C JUMP JUMPDEST PUSH2 0x271D PUSH1 0x20 DUP4 ADD DUP5 PUSH2 0x22A2 JUMP JUMPDEST SWAP4 SWAP3 POP POP POP JUMP JUMPDEST PUSH0 PUSH2 0x272E DUP3 PUSH2 0x22CE JUMP JUMPDEST SWAP2 POP PUSH2 0x2739 DUP4 PUSH2 0x22CE JUMP JUMPDEST SWAP3 POP DUP3 DUP3 SUB SWAP1 POP DUP2 DUP2 GT ISZERO PUSH2 0x2751 JUMPI PUSH2 0x2750 PUSH2 0x2640 JUMP JUMPDEST JUMPDEST SWAP3 SWAP2 POP POP JUMP JUMPDEST PUSH0 PUSH2 0x2761 DUP3 PUSH2 0x22CE JUMP JUMPDEST SWAP2 POP PUSH0 DUP3 SUB PUSH2 0x2773 JUMPI PUSH2 0x2772 PUSH2 0x2640 JUMP JUMPDEST JUMPDEST PUSH1 0x1 DUP3 SUB SWAP1 POP SWAP2 SWAP1 POP JUMP JUMPDEST PUSH32 0x496E73756666696369656E74206C697175696469747900000000000000000000 PUSH0 DUP3 ADD MSTORE POP JUMP JUMPDEST PUSH0 PUSH2 0x27B2 PUSH1 0x16 DUP4 PUSH2 0x259B JUMP JUMPDEST SWAP2 POP PUSH2 0x27BD DUP3 PUSH2 0x277E JUMP JUMPDEST PUSH1 0x20 DUP3 ADD SWAP1 POP SWAP2 SWAP1 POP JUMP JUMPDEST PUSH0 PUSH1 0x20 DUP3 ADD SWAP1 POP DUP2 DUP2 SUB PUSH0 DUP4 ADD MSTORE PUSH2 0x27DF DUP2 PUSH2 0x27A6 JUMP JUMPDEST SWAP1 POP SWAP2 SWAP1 POP JUMP JUMPDEST PUSH0 PUSH2 0x27F0 DUP3 PUSH2 0x22CE JUMP JUMPDEST SWAP2 POP PUSH2 0x27FB DUP4 PUSH2 0x22CE JUMP JUMPDEST SWAP3 POP DUP3 DUP3 MUL PUSH2 0x2809 DUP2 PUSH2 0x22CE JUMP JUMPDEST SWAP2 POP DUP3 DUP3 DIV DUP5 EQ DUP4 ISZERO OR PUSH2 0x2820 JUMPI PUSH2 0x281F PUSH2 0x2640 JUMP JUMPDEST JUMPDEST POP SWAP3 SWAP2 POP POP JUMP JUMPDEST PUSH0 PUSH1 0x60 DUP3 ADD SWAP1 POP PUSH2 0x283A PUSH0 DUP4 ADD DUP7 PUSH2 0x22A2 JUMP JUMPDEST PUSH2 0x2847 PUSH1 0x20 DUP4 ADD DUP6 PUSH2 0x22A2 JUMP JUMPDEST PUSH2 0x2854 PUSH1 0x40 DUP4 ADD DUP5 PUSH2 0x232C JUMP JUMPDEST SWAP5 SWAP4 POP POP POP POP JUMP JUMPDEST PUSH0 DUP2 MLOAD SWAP1 POP PUSH2 0x286A DUP2 PUSH2 0x2473 JUMP JUMPDEST SWAP3 SWAP2 POP POP JUMP JUMPDEST PUSH0 PUSH1 0x20 DUP3 DUP5 SUB SLT ISZERO PUSH2 0x2885 JUMPI PUSH2 0x2884 PUSH2 0x22CA JUMP JUMPDEST JUMPDEST PUSH0 PUSH2 0x2892 DUP5 DUP3 DUP6 ADD PUSH2 0x285C JUMP JUMPDEST SWAP2 POP POP SWAP3 SWAP2 POP POP JUMP JUMPDEST PUSH32 0x5472616E73666572206661696C65640000000000000000000000000000000000 PUSH0 DUP3 ADD MSTORE POP JUMP JUMPDEST PUSH0 PUSH2 0x28CF PUSH1 0xF DUP4 PUSH2 0x259B JUMP JUMPDEST SWAP2 POP PUSH2 0x28DA DUP3 PUSH2 0x289B JUMP JUMPDEST PUSH1 0x20 DUP3 ADD SWAP1 POP SWAP2 SWAP1 POP JUMP JUMPDEST PUSH0 PUSH1 0x20 DUP3 ADD SWAP1 POP DUP2 DUP2 SUB PUSH0 DUP4 ADD MSTORE PUSH2 0x28FC DUP2 PUSH2 0x28C3 JUMP JUMPDEST SWAP1 POP SWAP2 SWAP1 POP JUMP JUMPDEST PUSH32 0x4C697175696469747920616464726573732069732079657420746F2062652061 PUSH0 DUP3 ADD MSTORE PUSH32 0x737369676E656400000000000000000000000000000000000000000000000000 PUSH1 0x20 DUP3 ADD MSTORE POP JUMP JUMPDEST PUSH0 PUSH2 0x295D PUSH1 0x27 DUP4 PUSH2 0x259B JUMP JUMPDEST SWAP2 POP PUSH2 0x2968 DUP3 PUSH2 0x2903 JUMP JUMPDEST PUSH1 0x40 DUP3 ADD SWAP1 POP SWAP2 SWAP1 POP JUMP JUMPDEST PUSH0 PUSH1 0x20 DUP3 ADD SWAP1 POP DUP2 DUP2 SUB PUSH0 DUP4 ADD MSTORE PUSH2 0x298A DUP2 PUSH2 0x2951 JUMP JUMPDEST SWAP1 POP SWAP2 SWAP1 POP JUMP JUMPDEST PUSH32 0x4E487B7100000000000000000000000000000000000000000000000000000000 PUSH0 MSTORE PUSH1 0x41 PUSH1 0x4 MSTORE PUSH1 0x24 PUSH0 REVERT JUMPDEST PUSH0 PUSH1 0x40 DUP3 ADD SWAP1 POP PUSH2 0x29D1 PUSH0 DUP4 ADD DUP6 PUSH2 0x22A2 JUMP JUMPDEST PUSH2 0x29DE PUSH1 0x20 DUP4 ADD DUP5 PUSH2 0x232C JUMP JUMPDEST SWAP4 SWAP3 POP POP POP JUMP JUMPDEST PUSH0 DUP2 MLOAD SWAP1 POP PUSH2 0x29F3 DUP2 PUSH2 0x22D7 JUMP JUMPDEST SWAP3 SWAP2 POP POP JUMP JUMPDEST PUSH0 PUSH1 0x20 DUP3 DUP5 SUB SLT ISZERO PUSH2 0x2A0E JUMPI PUSH2 0x2A0D PUSH2 0x22CA JUMP JUMPDEST JUMPDEST PUSH0 PUSH2 0x2A1B DUP5 DUP3 DUP6 ADD PUSH2 0x29E5 JUMP JUMPDEST SWAP2 POP POP SWAP3 SWAP2 POP POP JUMP JUMPDEST PUSH0 DUP2 MLOAD SWAP1 POP SWAP2 SWAP1 POP JUMP JUMPDEST PUSH0 DUP3 DUP3 MSTORE PUSH1 0x20 DUP3 ADD SWAP1 POP SWAP3 SWAP2 POP POP JUMP JUMPDEST DUP3 DUP2 DUP4 MCOPY PUSH0 DUP4 DUP4 ADD MSTORE POP POP POP JUMP JUMPDEST PUSH0 PUSH1 0x1F NOT PUSH1 0x1F DUP4 ADD AND SWAP1 POP SWAP2 SWAP1 POP JUMP JUMPDEST PUSH0 PUSH2 0x2A66 DUP3 PUSH2 0x2A24 JUMP JUMPDEST PUSH2 0x2A70 DUP2 DUP6 PUSH2 0x2A2E JUMP JUMPDEST SWAP4 POP PUSH2 0x2A80 DUP2 DUP6 PUSH1 0x20 DUP7 ADD PUSH2 0x2A3E JUMP JUMPDEST PUSH2 0x2A89 DUP2 PUSH2 0x2A4C JUMP JUMPDEST DUP5 ADD SWAP2 POP POP SWAP3 SWAP2 POP POP JUMP JUMPDEST PUSH0 PUSH1 0x80 DUP3 ADD SWAP1 POP PUSH2 0x2AA7 PUSH0 DUP4 ADD DUP8 PUSH2 0x22A2 JUMP JUMPDEST PUSH2 0x2AB4 PUSH1 0x20 DUP4 ADD DUP7 PUSH2 0x22A2 JUMP JUMPDEST PUSH2 0x2AC1 PUSH1 0x40 DUP4 ADD DUP6 PUSH2 0x232C JUMP JUMPDEST DUP2 DUP2 SUB PUSH1 0x60 DUP4 ADD MSTORE PUSH2 0x2AD3 DUP2 DUP5 PUSH2 0x2A5C JUMP JUMPDEST SWAP1 POP SWAP6 SWAP5 POP POP POP POP POP JUMP JUMPDEST PUSH0 PUSH2 0x2AE8 DUP3 PUSH2 0x22CE JUMP JUMPDEST SWAP2 POP PUSH32 0xFFFFFFFFFFFFFFFFFFFFFFFFFFFFFFFFFFFFFFFFFFFFFFFFFFFFFFFFFFFFFFFF DUP3 SUB PUSH2 0x2B1A JUMPI PUSH2 0x2B19 PUSH2 0x2640 JUMP JUMPDEST JUMPDEST PUSH1 0x1 DUP3 ADD SWAP1 POP SWAP2 SWAP1 POP JUMP JUMPDEST PUSH32 0x4E487B7100000000000000000000000000000000000000000000000000000000 PUSH0 MSTORE PUSH1 0x31 PUSH1 0x4 MSTORE PUSH1 0x24 PUSH0 REVERT INVALID LOG2 PUSH5 0x6970667358 0x22 SLT KECCAK256 DUP5 0xD3 LOG4 SWAP5 0xE1 0xE2 REVERT GASPRICE ADDMOD 0xBF SWAP9 0xD6 NUMBER SWAP1 0xD SWAP3 SAR SWAP1 0x4F JUMPI MSTORE 0xC5 0xD0 CODECOPY SWAP7 LOG3 0x4B MSTORE BLOCKHASH BALANCE 0xDB CALLDATACOPY PUSH5 0x736F6C6343 STOP ADDMOD NOT STOP CALLER "
				},
				"gasEstimates": {
					"creation": {
						"codeDepositCost": "2228800",
						"executionCost": "50910",
						"totalCost": "2279710"
					},
					"external": {
						"FFT()": "2532",
						"NFT()": "2597",
						"_collector()": "2531",
						"_fees()": "2536",
						"_liquidities(uint256)": "infinite",
						"_liquidity()": "2554",
						"_price()": "2493",
						"depositFFT(uint256)": "infinite",
						"depositNFT(uint256)": "infinite",
						"fftLiquidity()": "2537",
						"getLiquidityCount(bool)": "2775",
						"getPrice()": "infinite",
						"isOwner()": "2535",
						"nftLiquidity()": "2515",
						"owner()": "2626",
						"queryLiquid(uint256)": "infinite",
						"queryLiquidbyDepositor(address,uint256)": "infinite",
						"renounceOwnership()": "29971",
						"setCollector(address)": "27028",
						"setFFT(address)": "51317",
						"setLiquidity(address)": "infinite",
						"setNFT(address)": "51272",
						"swapFFT(uint256)": "infinite",
						"swapNFT(uint256)": "infinite",
						"transferOwnership(address)": "30724",
						"withdrawLiquidity(uint256)": "infinite"
					},
					"internal": {
						"_createLiquid(uint256,bool)": "infinite",
						"_deductFee(uint256)": "infinite",
						"_findSuitableLiquid(bool)": "infinite",
						"_removeItem(struct HotswapControllerBase.Liquid storage ref[] storage pointer,uint256)": "infinite",
						"_removeItem(uint256[] storage pointer,uint256)": "infinite",
						"_removeLiquidity(struct HotswapControllerBase.Liquid memory,uint256)": "infinite",
						"_swapFFTLiquid(struct HotswapControllerBase.Liquid storage pointer,struct HotswapControllerBase.Liquid storage pointer,uint256,uint256)": "infinite",
						"_swapNFTLiquid(struct HotswapControllerBase.Liquid storage pointer,struct HotswapControllerBase.Liquid storage pointer,uint256,uint256)": "infinite"
					}
				},
				"methodIdentifiers": {
					"FFT()": "04bb60ce",
					"NFT()": "7c0b8de2",
					"_collector()": "8e991592",
					"_fees()": "d212a69a",
					"_liquidities(uint256)": "c80f4e35",
					"_liquidity()": "491d0a56",
					"_price()": "235b6ea1",
					"depositFFT(uint256)": "dd81b5ae",
					"depositNFT(uint256)": "e91a7ca6",
					"fftLiquidity()": "3bd11f57",
					"getLiquidityCount(bool)": "6cc62992",
					"getPrice()": "98d5fdca",
					"isOwner()": "8f32d59b",
					"nftLiquidity()": "678660fb",
					"owner()": "8da5cb5b",
					"queryLiquid(uint256)": "41796a17",
					"queryLiquidbyDepositor(address,uint256)": "e53442f0",
					"renounceOwnership()": "715018a6",
					"setCollector(address)": "fb5b82d0",
					"setFFT(address)": "db9fcd01",
					"setLiquidity(address)": "36171e0e",
					"setNFT(address)": "f56e9c66",
					"swapFFT(uint256)": "4e36245d",
					"swapNFT(uint256)": "dcc9606f",
					"transferOwnership(address)": "f2fde38b",
					"withdrawLiquidity(uint256)": "0a861f2a"
				}
			},
			"storageLayout": {
				"storage": [
					{
						"astId": 321,
						"contract": "contracts/HotswapController_flattened.sol:HotswapController",
						"label": "_owner",
						"offset": 0,
						"slot": "0",
						"type": "t_address"
					},
					{
						"astId": 608,
						"contract": "contracts/HotswapController_flattened.sol:HotswapController",
						"label": "NFT",
						"offset": 0,
						"slot": "1",
						"type": "t_address"
					},
					{
						"astId": 610,
						"contract": "contracts/HotswapController_flattened.sol:HotswapController",
						"label": "FFT",
						"offset": 0,
						"slot": "2",
						"type": "t_address"
					},
					{
						"astId": 613,
						"contract": "contracts/HotswapController_flattened.sol:HotswapController",
						"label": "_fft",
						"offset": 0,
						"slot": "3",
						"type": "t_contract(ERC20)603"
					},
					{
						"astId": 616,
						"contract": "contracts/HotswapController_flattened.sol:HotswapController",
						"label": "_nft",
						"offset": 0,
						"slot": "4",
						"type": "t_contract(ERC721Enumerable)536"
					},
					{
						"astId": 805,
						"contract": "contracts/HotswapController_flattened.sol:HotswapController",
						"label": "_collector",
						"offset": 0,
						"slot": "5",
						"type": "t_address"
					},
					{
						"astId": 807,
						"contract": "contracts/HotswapController_flattened.sol:HotswapController",
						"label": "_liquidity",
						"offset": 0,
						"slot": "6",
						"type": "t_address"
					},
					{
						"astId": 809,
						"contract": "contracts/HotswapController_flattened.sol:HotswapController",
						"label": "_price",
						"offset": 0,
						"slot": "7",
						"type": "t_uint256"
					},
					{
						"astId": 814,
						"contract": "contracts/HotswapController_flattened.sol:HotswapController",
						"label": "_liquidityByUser",
						"offset": 0,
						"slot": "8",
						"type": "t_mapping(t_address,t_array(t_uint256)dyn_storage)"
					},
					{
						"astId": 818,
						"contract": "contracts/HotswapController_flattened.sol:HotswapController",
						"label": "_liquidities",
						"offset": 0,
						"slot": "9",
						"type": "t_array(t_struct(Liquid)904_storage)dyn_storage"
					},
					{
						"astId": 820,
						"contract": "contracts/HotswapController_flattened.sol:HotswapController",
						"label": "_fees",
						"offset": 0,
						"slot": "10",
						"type": "t_uint256"
					},
					{
						"astId": 923,
						"contract": "contracts/HotswapController_flattened.sol:HotswapController",
						"label": "nftLiquidity",
						"offset": 0,
						"slot": "11",
						"type": "t_uint256"
					},
					{
						"astId": 925,
						"contract": "contracts/HotswapController_flattened.sol:HotswapController",
						"label": "fftLiquidity",
						"offset": 0,
						"slot": "12",
						"type": "t_uint256"
					},
					{
						"astId": 927,
						"contract": "contracts/HotswapController_flattened.sol:HotswapController",
						"label": "_nftLiquidityCount",
						"offset": 0,
						"slot": "13",
						"type": "t_uint256"
					},
					{
						"astId": 929,
						"contract": "contracts/HotswapController_flattened.sol:HotswapController",
						"label": "_fftLiquidityCount",
						"offset": 0,
						"slot": "14",
						"type": "t_uint256"
					}
				],
				"types": {
					"t_address": {
						"encoding": "inplace",
						"label": "address",
						"numberOfBytes": "20"
					},
					"t_array(t_struct(Liquid)904_storage)dyn_storage": {
						"base": "t_struct(Liquid)904_storage",
						"encoding": "dynamic_array",
						"label": "struct HotswapControllerBase.Liquid[]",
						"numberOfBytes": "32"
					},
					"t_array(t_uint256)dyn_storage": {
						"base": "t_uint256",
						"encoding": "dynamic_array",
						"label": "uint256[]",
						"numberOfBytes": "32"
					},
					"t_bool": {
						"encoding": "inplace",
						"label": "bool",
						"numberOfBytes": "1"
					},
					"t_contract(ERC20)603": {
						"encoding": "inplace",
						"label": "contract ERC20",
						"numberOfBytes": "20"
					},
					"t_contract(ERC721Enumerable)536": {
						"encoding": "inplace",
						"label": "contract ERC721Enumerable",
						"numberOfBytes": "20"
					},
					"t_mapping(t_address,t_array(t_uint256)dyn_storage)": {
						"encoding": "mapping",
						"key": "t_address",
						"label": "mapping(address => uint256[])",
						"numberOfBytes": "32",
						"value": "t_array(t_uint256)dyn_storage"
					},
					"t_struct(Liquid)904_storage": {
						"encoding": "inplace",
						"label": "struct HotswapControllerBase.Liquid",
						"members": [
							{
								"astId": 891,
								"contract": "contracts/HotswapController_flattened.sol:HotswapController",
								"label": "depositor",
								"offset": 0,
								"slot": "0",
								"type": "t_address"
							},
							{
								"astId": 893,
								"contract": "contracts/HotswapController_flattened.sol:HotswapController",
								"label": "depositedAt",
								"offset": 0,
								"slot": "1",
								"type": "t_uint256"
							},
							{
								"astId": 895,
								"contract": "contracts/HotswapController_flattened.sol:HotswapController",
								"label": "price",
								"offset": 0,
								"slot": "2",
								"type": "t_uint256"
							},
							{
								"astId": 897,
								"contract": "contracts/HotswapController_flattened.sol:HotswapController",
								"label": "nftAlloc",
								"offset": 0,
								"slot": "3",
								"type": "t_uint256"
							},
							{
								"astId": 899,
								"contract": "contracts/HotswapController_flattened.sol:HotswapController",
								"label": "fftAlloc",
								"offset": 0,
								"slot": "4",
								"type": "t_uint256"
							},
							{
								"astId": 901,
								"contract": "contracts/HotswapController_flattened.sol:HotswapController",
								"label": "claimed",
								"offset": 0,
								"slot": "5",
								"type": "t_bool"
							},
							{
								"astId": 903,
								"contract": "contracts/HotswapController_flattened.sol:HotswapController",
								"label": "userIndex",
								"offset": 0,
								"slot": "6",
								"type": "t_uint256"
							}
						],
						"numberOfBytes": "224"
					},
					"t_uint256": {
						"encoding": "inplace",
						"label": "uint256",
						"numberOfBytes": "32"
					}
				}
			},
			"userdoc": {
				"kind": "user",
				"methods": {},
				"version": 1
			}
		}
	}
}