{
	"contracts/HotswapLiquidity.sol": {
		"HotswapLiquidity": {
			"abi": [
				{
					"inputs": [
						{
							"internalType": "address",
							"name": "nft",
							"type": "address"
						},
						{
							"internalType": "address",
							"name": "fft",
							"type": "address"
						}
					],
					"stateMutability": "nonpayable",
					"type": "constructor"
				},
				{
					"anonymous": false,
					"inputs": [
						{
							"indexed": false,
							"internalType": "uint256",
							"name": "amount",
							"type": "uint256"
						},
						{
							"indexed": false,
							"internalType": "address",
							"name": "targetAddr",
							"type": "address"
						}
					],
					"name": "NativeTransferred",
					"type": "event"
				},
				{
					"anonymous": false,
					"inputs": [
						{
							"indexed": true,
							"internalType": "address",
							"name": "previousOwner",
							"type": "address"
						}
					],
					"name": "OwnershipRenounced",
					"type": "event"
				},
				{
					"anonymous": false,
					"inputs": [
						{
							"indexed": true,
							"internalType": "address",
							"name": "previousOwner",
							"type": "address"
						},
						{
							"indexed": true,
							"internalType": "address",
							"name": "newOwner",
							"type": "address"
						}
					],
					"name": "OwnershipTransferred",
					"type": "event"
				},
				{
					"inputs": [],
					"name": "Controller",
					"outputs": [
						{
							"internalType": "address",
							"name": "",
							"type": "address"
						}
					],
					"stateMutability": "view",
					"type": "function"
				},
				{
					"inputs": [],
					"name": "FFT",
					"outputs": [
						{
							"internalType": "address",
							"name": "",
							"type": "address"
						}
					],
					"stateMutability": "view",
					"type": "function"
				},
				{
					"inputs": [],
					"name": "NFT",
					"outputs": [
						{
							"internalType": "address",
							"name": "",
							"type": "address"
						}
					],
					"stateMutability": "view",
					"type": "function"
				},
				{
					"inputs": [],
					"name": "isOwner",
					"outputs": [
						{
							"internalType": "bool",
							"name": "",
							"type": "bool"
						}
					],
					"stateMutability": "view",
					"type": "function"
				},
				{
					"inputs": [],
					"name": "owner",
					"outputs": [
						{
							"internalType": "address",
							"name": "",
							"type": "address"
						}
					],
					"stateMutability": "view",
					"type": "function"
				},
				{
					"inputs": [],
					"name": "renounceOwnership",
					"outputs": [],
					"stateMutability": "nonpayable",
					"type": "function"
				},
				{
					"inputs": [
						{
							"internalType": "address",
							"name": "addr",
							"type": "address"
						}
					],
					"name": "setController",
					"outputs": [],
					"stateMutability": "nonpayable",
					"type": "function"
				},
				{
					"inputs": [
						{
							"internalType": "address",
							"name": "newOwner",
							"type": "address"
						}
					],
					"name": "transferOwnership",
					"outputs": [],
					"stateMutability": "nonpayable",
					"type": "function"
				},
				{
					"inputs": [
						{
							"internalType": "uint256",
							"name": "amount",
							"type": "uint256"
						},
						{
							"internalType": "address",
							"name": "dest",
							"type": "address"
						}
					],
					"name": "withdrawFFT",
					"outputs": [],
					"stateMutability": "nonpayable",
					"type": "function"
				},
				{
					"inputs": [
						{
							"internalType": "uint256",
							"name": "amount",
							"type": "uint256"
						},
						{
							"internalType": "address",
							"name": "dest",
							"type": "address"
						}
					],
					"name": "withdrawNFT",
					"outputs": [],
					"stateMutability": "nonpayable",
					"type": "function"
				}
			],
			"devdoc": {
				"kind": "dev",
				"methods": {},
				"version": 1
			},
			"evm": {
				"assembly": "    /* \"contracts/HotswapLiquidity.sol\":222:1335  contract HotswapLiquidity is HotswapBase {... */\n  mstore(0x40, 0x80)\n    /* \"contracts/HotswapLiquidity.sol\":305:460  constructor(address nft, address fft) {... */\n  callvalue\n  dup1\n  iszero\n  tag_1\n  jumpi\n  0x00\n  dup1\n  revert\ntag_1:\n  pop\n  mload(0x40)\n  sub(codesize, bytecodeSize)\n  dup1\n  bytecodeSize\n  dup4\n  codecopy\n  dup2\n  dup2\n  add\n  0x40\n  mstore\n  dup2\n  add\n  swap1\n  tag_2\n  swap2\n  swap1\n  tag_3\n  jump\t// in\ntag_2:\n    /* \"contracts/Ownable.sol\":431:441  msg.sender */\n  caller\n    /* \"contracts/Ownable.sol\":422:428  _owner */\n  0x00\n  dup1\n    /* \"contracts/Ownable.sol\":422:441  _owner = msg.sender */\n  0x0100\n  exp\n  dup2\n  sload\n  dup2\n  0xffffffffffffffffffffffffffffffffffffffff\n  mul\n  not\n  and\n  swap1\n  dup4\n  0xffffffffffffffffffffffffffffffffffffffff\n  and\n  mul\n  or\n  swap1\n  sstore\n  pop\n    /* \"contracts/HotswapLiquidity.sol\":360:363  nft */\n  dup2\n    /* \"contracts/HotswapLiquidity.sol\":354:357  NFT */\n  0x01\n  0x00\n    /* \"contracts/HotswapLiquidity.sol\":354:363  NFT = nft */\n  0x0100\n  exp\n  dup2\n  sload\n  dup2\n  0xffffffffffffffffffffffffffffffffffffffff\n  mul\n  not\n  and\n  swap1\n  dup4\n  0xffffffffffffffffffffffffffffffffffffffff\n  and\n  mul\n  or\n  swap1\n  sstore\n  pop\n    /* \"contracts/HotswapLiquidity.sol\":380:383  fft */\n  dup1\n    /* \"contracts/HotswapLiquidity.sol\":374:377  FFT */\n  0x02\n  0x00\n    /* \"contracts/HotswapLiquidity.sol\":374:383  FFT = fft */\n  0x0100\n  exp\n  dup2\n  sload\n  dup2\n  0xffffffffffffffffffffffffffffffffffffffff\n  mul\n  not\n  and\n  swap1\n  dup4\n  0xffffffffffffffffffffffffffffffffffffffff\n  and\n  mul\n  or\n  swap1\n  sstore\n  pop\n    /* \"contracts/HotswapLiquidity.sol\":409:412  fft */\n  dup1\n    /* \"contracts/HotswapLiquidity.sol\":396:400  _fft */\n  0x04\n  0x00\n    /* \"contracts/HotswapLiquidity.sol\":396:413  _fft = ERC20(fft) */\n  0x0100\n  exp\n  dup2\n  sload\n  dup2\n  0xffffffffffffffffffffffffffffffffffffffff\n  mul\n  not\n  and\n  swap1\n  dup4\n  0xffffffffffffffffffffffffffffffffffffffff\n  and\n  mul\n  or\n  swap1\n  sstore\n  pop\n    /* \"contracts/HotswapLiquidity.sol\":448:451  nft */\n  dup2\n    /* \"contracts/HotswapLiquidity.sol\":424:428  _nft */\n  0x05\n  0x00\n    /* \"contracts/HotswapLiquidity.sol\":424:452  _nft = ERC721Enumerable(nft) */\n  0x0100\n  exp\n  dup2\n  sload\n  dup2\n  0xffffffffffffffffffffffffffffffffffffffff\n  mul\n  not\n  and\n  swap1\n  dup4\n  0xffffffffffffffffffffffffffffffffffffffff\n  and\n  mul\n  or\n  swap1\n  sstore\n  pop\n    /* \"contracts/HotswapLiquidity.sol\":305:460  constructor(address nft, address fft) {... */\n  pop\n  pop\n    /* \"contracts/HotswapLiquidity.sol\":222:1335  contract HotswapLiquidity is HotswapBase {... */\n  jump(tag_8)\n    /* \"#utility.yul\":88:205   */\ntag_10:\n    /* \"#utility.yul\":197:198   */\n  0x00\n    /* \"#utility.yul\":194:195   */\n  dup1\n    /* \"#utility.yul\":187:199   */\n  revert\n    /* \"#utility.yul\":334:460   */\ntag_12:\n    /* \"#utility.yul\":371:378   */\n  0x00\n    /* \"#utility.yul\":411:453   */\n  0xffffffffffffffffffffffffffffffffffffffff\n    /* \"#utility.yul\":404:409   */\n  dup3\n    /* \"#utility.yul\":400:454   */\n  and\n    /* \"#utility.yul\":389:454   */\n  swap1\n  pop\n    /* \"#utility.yul\":334:460   */\n  swap2\n  swap1\n  pop\n  jump\t// out\n    /* \"#utility.yul\":466:562   */\ntag_13:\n    /* \"#utility.yul\":503:510   */\n  0x00\n    /* \"#utility.yul\":532:556   */\n  tag_22\n    /* \"#utility.yul\":550:555   */\n  dup3\n    /* \"#utility.yul\":532:556   */\n  tag_12\n  jump\t// in\ntag_22:\n    /* \"#utility.yul\":521:556   */\n  swap1\n  pop\n    /* \"#utility.yul\":466:562   */\n  swap2\n  swap1\n  pop\n  jump\t// out\n    /* \"#utility.yul\":568:690   */\ntag_14:\n    /* \"#utility.yul\":641:665   */\n  tag_24\n    /* \"#utility.yul\":659:664   */\n  dup2\n    /* \"#utility.yul\":641:665   */\n  tag_13\n  jump\t// in\ntag_24:\n    /* \"#utility.yul\":634:639   */\n  dup2\n    /* \"#utility.yul\":631:666   */\n  eq\n    /* \"#utility.yul\":621:684   */\n  tag_25\n  jumpi\n    /* \"#utility.yul\":680:681   */\n  0x00\n    /* \"#utility.yul\":677:678   */\n  dup1\n    /* \"#utility.yul\":670:682   */\n  revert\n    /* \"#utility.yul\":621:684   */\ntag_25:\n    /* \"#utility.yul\":568:690   */\n  pop\n  jump\t// out\n    /* \"#utility.yul\":696:839   */\ntag_15:\n    /* \"#utility.yul\":753:758   */\n  0x00\n    /* \"#utility.yul\":784:790   */\n  dup2\n    /* \"#utility.yul\":778:791   */\n  mload\n    /* \"#utility.yul\":769:791   */\n  swap1\n  pop\n    /* \"#utility.yul\":800:833   */\n  tag_27\n    /* \"#utility.yul\":827:832   */\n  dup2\n    /* \"#utility.yul\":800:833   */\n  tag_14\n  jump\t// in\ntag_27:\n    /* \"#utility.yul\":696:839   */\n  swap3\n  swap2\n  pop\n  pop\n  jump\t// out\n    /* \"#utility.yul\":845:1352   */\ntag_3:\n    /* \"#utility.yul\":924:930   */\n  0x00\n    /* \"#utility.yul\":932:938   */\n  dup1\n    /* \"#utility.yul\":981:983   */\n  0x40\n    /* \"#utility.yul\":969:978   */\n  dup4\n    /* \"#utility.yul\":960:967   */\n  dup6\n    /* \"#utility.yul\":956:979   */\n  sub\n    /* \"#utility.yul\":952:984   */\n  slt\n    /* \"#utility.yul\":949:1068   */\n  iszero\n  tag_29\n  jumpi\n    /* \"#utility.yul\":987:1066   */\n  tag_30\n  tag_10\n  jump\t// in\ntag_30:\n    /* \"#utility.yul\":949:1068   */\ntag_29:\n    /* \"#utility.yul\":1107:1108   */\n  0x00\n    /* \"#utility.yul\":1132:1196   */\n  tag_31\n    /* \"#utility.yul\":1188:1195   */\n  dup6\n    /* \"#utility.yul\":1179:1185   */\n  dup3\n    /* \"#utility.yul\":1168:1177   */\n  dup7\n    /* \"#utility.yul\":1164:1186   */\n  add\n    /* \"#utility.yul\":1132:1196   */\n  tag_15\n  jump\t// in\ntag_31:\n    /* \"#utility.yul\":1122:1196   */\n  swap3\n  pop\n    /* \"#utility.yul\":1078:1206   */\n  pop\n    /* \"#utility.yul\":1245:1247   */\n  0x20\n    /* \"#utility.yul\":1271:1335   */\n  tag_32\n    /* \"#utility.yul\":1327:1334   */\n  dup6\n    /* \"#utility.yul\":1318:1324   */\n  dup3\n    /* \"#utility.yul\":1307:1316   */\n  dup7\n    /* \"#utility.yul\":1303:1325   */\n  add\n    /* \"#utility.yul\":1271:1335   */\n  tag_15\n  jump\t// in\ntag_32:\n    /* \"#utility.yul\":1261:1335   */\n  swap2\n  pop\n    /* \"#utility.yul\":1216:1345   */\n  pop\n    /* \"#utility.yul\":845:1352   */\n  swap3\n  pop\n  swap3\n  swap1\n  pop\n  jump\t// out\n    /* \"contracts/HotswapLiquidity.sol\":222:1335  contract HotswapLiquidity is HotswapBase {... */\ntag_8:\n  dataSize(sub_0)\n  dup1\n  dataOffset(sub_0)\n  0x00\n  codecopy\n  0x00\n  return\nstop\n\nsub_0: assembly {\n        /* \"contracts/HotswapLiquidity.sol\":222:1335  contract HotswapLiquidity is HotswapBase {... */\n      mstore(0x40, 0x80)\n      callvalue\n      dup1\n      iszero\n      tag_1\n      jumpi\n      0x00\n      dup1\n      revert\n    tag_1:\n      pop\n      jumpi(tag_2, lt(calldatasize, 0x04))\n      shr(0xe0, calldataload(0x00))\n      dup1\n      0x8da5cb5b\n      gt\n      tag_13\n      jumpi\n      dup1\n      0x8da5cb5b\n      eq\n      tag_8\n      jumpi\n      dup1\n      0x8f32d59b\n      eq\n      tag_9\n      jumpi\n      dup1\n      0x92eefe9b\n      eq\n      tag_10\n      jumpi\n      dup1\n      0xc1d2d00d\n      eq\n      tag_11\n      jumpi\n      dup1\n      0xf2fde38b\n      eq\n      tag_12\n      jumpi\n      jump(tag_2)\n    tag_13:\n      dup1\n      0x04bb60ce\n      eq\n      tag_3\n      jumpi\n      dup1\n      0x64679356\n      eq\n      tag_4\n      jumpi\n      dup1\n      0x715018a6\n      eq\n      tag_5\n      jumpi\n      dup1\n      0x7c0b8de2\n      eq\n      tag_6\n      jumpi\n      dup1\n      0x8cda7bb4\n      eq\n      tag_7\n      jumpi\n    tag_2:\n      0x00\n      dup1\n      revert\n        /* \"contracts/HotswapLiquidity.sol\":493:511  address public FFT */\n    tag_3:\n      tag_14\n      tag_15\n      jump\t// in\n    tag_14:\n      mload(0x40)\n      tag_16\n      swap2\n      swap1\n      tag_17\n      jump\t// in\n    tag_16:\n      mload(0x40)\n      dup1\n      swap2\n      sub\n      swap1\n      return\n        /* \"contracts/HotswapLiquidity.sol\":518:543  address public Controller */\n    tag_4:\n      tag_18\n      tag_19\n      jump\t// in\n    tag_18:\n      mload(0x40)\n      tag_20\n      swap2\n      swap1\n      tag_17\n      jump\t// in\n    tag_20:\n      mload(0x40)\n      dup1\n      swap2\n      sub\n      swap1\n      return\n        /* \"contracts/Ownable.sol\":722:848  function renounceOwnership() public onlyOwner {... */\n    tag_5:\n      tag_21\n      tag_22\n      jump\t// in\n    tag_21:\n      stop\n        /* \"contracts/HotswapLiquidity.sol\":468:486  address public NFT */\n    tag_6:\n      tag_23\n      tag_24\n      jump\t// in\n    tag_23:\n      mload(0x40)\n      tag_25\n      swap2\n      swap1\n      tag_17\n      jump\t// in\n    tag_25:\n      mload(0x40)\n      dup1\n      swap2\n      sub\n      swap1\n      return\n        /* \"contracts/HotswapLiquidity.sol\":721:872  function withdrawFFT(uint256 amount, address dest) external onlyAuthorized {... */\n    tag_7:\n      tag_26\n      0x04\n      dup1\n      calldatasize\n      sub\n      dup2\n      add\n      swap1\n      tag_27\n      swap2\n      swap1\n      tag_28\n      jump\t// in\n    tag_27:\n      tag_29\n      jump\t// in\n    tag_26:\n      stop\n        /* \"contracts/Ownable.sol\":457:536  function owner() public view returns (address) {... */\n    tag_8:\n      tag_30\n      tag_31\n      jump\t// in\n    tag_30:\n      mload(0x40)\n      tag_32\n      swap2\n      swap1\n      tag_17\n      jump\t// in\n    tag_32:\n      mload(0x40)\n      dup1\n      swap2\n      sub\n      swap1\n      return\n        /* \"contracts/Ownable.sol\":622:714  function isOwner() public view returns (bool) {... */\n    tag_9:\n      tag_33\n      tag_34\n      jump\t// in\n    tag_33:\n      mload(0x40)\n      tag_35\n      swap2\n      swap1\n      tag_36\n      jump\t// in\n    tag_35:\n      mload(0x40)\n      dup1\n      swap2\n      sub\n      swap1\n      return\n        /* \"contracts/HotswapLiquidity.sol\":1240:1332  function setController(address addr) external onlyOwner {... */\n    tag_10:\n      tag_37\n      0x04\n      dup1\n      calldatasize\n      sub\n      dup2\n      add\n      swap1\n      tag_38\n      swap2\n      swap1\n      tag_39\n      jump\t// in\n    tag_38:\n      tag_40\n      jump\t// in\n    tag_37:\n      stop\n        /* \"contracts/HotswapLiquidity.sol\":880:1232  function withdrawNFT(uint256 amount, address dest) external onlyAuthorized {... */\n    tag_11:\n      tag_41\n      0x04\n      dup1\n      calldatasize\n      sub\n      dup2\n      add\n      swap1\n      tag_42\n      swap2\n      swap1\n      tag_28\n      jump\t// in\n    tag_42:\n      tag_43\n      jump\t// in\n    tag_41:\n      stop\n        /* \"contracts/Ownable.sol\":856:965  function transferOwnership(address newOwner) public onlyOwner {... */\n    tag_12:\n      tag_44\n      0x04\n      dup1\n      calldatasize\n      sub\n      dup2\n      add\n      swap1\n      tag_45\n      swap2\n      swap1\n      tag_39\n      jump\t// in\n    tag_45:\n      tag_46\n      jump\t// in\n    tag_44:\n      stop\n        /* \"contracts/HotswapLiquidity.sol\":493:511  address public FFT */\n    tag_15:\n      0x02\n      0x00\n      swap1\n      sload\n      swap1\n      0x0100\n      exp\n      swap1\n      div\n      0xffffffffffffffffffffffffffffffffffffffff\n      and\n      dup2\n      jump\t// out\n        /* \"contracts/HotswapLiquidity.sol\":518:543  address public Controller */\n    tag_19:\n      0x03\n      0x00\n      swap1\n      sload\n      swap1\n      0x0100\n      exp\n      swap1\n      div\n      0xffffffffffffffffffffffffffffffffffffffff\n      and\n      dup2\n      jump\t// out\n        /* \"contracts/Ownable.sol\":722:848  function renounceOwnership() public onlyOwner {... */\n    tag_22:\n        /* \"contracts/Ownable.sol\":584:593  isOwner() */\n      tag_48\n        /* \"contracts/Ownable.sol\":584:591  isOwner */\n      tag_34\n        /* \"contracts/Ownable.sol\":584:593  isOwner() */\n      jump\t// in\n    tag_48:\n        /* \"contracts/Ownable.sol\":576:594  require(isOwner()) */\n      tag_49\n      jumpi\n      0x00\n      dup1\n      revert\n    tag_49:\n        /* \"contracts/Ownable.sol\":803:809  _owner */\n      0x00\n      dup1\n      sload\n      swap1\n      0x0100\n      exp\n      swap1\n      div\n      0xffffffffffffffffffffffffffffffffffffffff\n      and\n        /* \"contracts/Ownable.sol\":784:810  OwnershipRenounced(_owner) */\n      0xffffffffffffffffffffffffffffffffffffffff\n      and\n      0xf8df31144d9c2f0f6b59d69b8b98abd5459d07f2742c4df920b25aae33c64820\n      mload(0x40)\n      mload(0x40)\n      dup1\n      swap2\n      sub\n      swap1\n      log2\n        /* \"contracts/Ownable.sol\":838:839  0 */\n      0x00\n        /* \"contracts/Ownable.sol\":821:827  _owner */\n      dup1\n      0x00\n        /* \"contracts/Ownable.sol\":821:840  _owner = address(0) */\n      0x0100\n      exp\n      dup2\n      sload\n      dup2\n      0xffffffffffffffffffffffffffffffffffffffff\n      mul\n      not\n      and\n      swap1\n      dup4\n      0xffffffffffffffffffffffffffffffffffffffff\n      and\n      mul\n      or\n      swap1\n      sstore\n      pop\n        /* \"contracts/Ownable.sol\":722:848  function renounceOwnership() public onlyOwner {... */\n      jump\t// out\n        /* \"contracts/HotswapLiquidity.sol\":468:486  address public NFT */\n    tag_24:\n      0x01\n      0x00\n      swap1\n      sload\n      swap1\n      0x0100\n      exp\n      swap1\n      div\n      0xffffffffffffffffffffffffffffffffffffffff\n      and\n      dup2\n      jump\t// out\n        /* \"contracts/HotswapLiquidity.sol\":721:872  function withdrawFFT(uint256 amount, address dest) external onlyAuthorized {... */\n    tag_29:\n        /* \"contracts/HotswapLiquidity.sol\":658:664  _owner */\n      0x00\n      dup1\n      sload\n      swap1\n      0x0100\n      exp\n      swap1\n      div\n      0xffffffffffffffffffffffffffffffffffffffff\n      and\n        /* \"contracts/HotswapLiquidity.sol\":644:664  msg.sender == _owner */\n      0xffffffffffffffffffffffffffffffffffffffff\n      and\n        /* \"contracts/HotswapLiquidity.sol\":644:654  msg.sender */\n      caller\n        /* \"contracts/HotswapLiquidity.sol\":644:664  msg.sender == _owner */\n      0xffffffffffffffffffffffffffffffffffffffff\n      and\n      eq\n        /* \"contracts/HotswapLiquidity.sol\":644:692  msg.sender == _owner || msg.sender == Controller */\n      dup1\n      tag_52\n      jumpi\n      pop\n        /* \"contracts/HotswapLiquidity.sol\":682:692  Controller */\n      0x03\n      0x00\n      swap1\n      sload\n      swap1\n      0x0100\n      exp\n      swap1\n      div\n      0xffffffffffffffffffffffffffffffffffffffff\n      and\n        /* \"contracts/HotswapLiquidity.sol\":668:692  msg.sender == Controller */\n      0xffffffffffffffffffffffffffffffffffffffff\n      and\n        /* \"contracts/HotswapLiquidity.sol\":668:678  msg.sender */\n      caller\n        /* \"contracts/HotswapLiquidity.sol\":668:692  msg.sender == Controller */\n      0xffffffffffffffffffffffffffffffffffffffff\n      and\n      eq\n        /* \"contracts/HotswapLiquidity.sol\":644:692  msg.sender == _owner || msg.sender == Controller */\n    tag_52:\n        /* \"contracts/HotswapLiquidity.sol\":636:693  require(msg.sender == _owner || msg.sender == Controller) */\n      tag_53\n      jumpi\n      0x00\n      dup1\n      revert\n    tag_53:\n        /* \"contracts/HotswapLiquidity.sol\":815:819  _fft */\n      0x04\n      0x00\n      swap1\n      sload\n      swap1\n      0x0100\n      exp\n      swap1\n      div\n      0xffffffffffffffffffffffffffffffffffffffff\n      and\n        /* \"contracts/HotswapLiquidity.sol\":815:828  _fft.transfer */\n      0xffffffffffffffffffffffffffffffffffffffff\n      and\n      0xa9059cbb\n        /* \"contracts/HotswapLiquidity.sol\":829:833  dest */\n      dup3\n        /* \"contracts/HotswapLiquidity.sol\":835:841  amount */\n      dup5\n        /* \"contracts/HotswapLiquidity.sol\":815:842  _fft.transfer(dest, amount) */\n      mload(0x40)\n      dup4\n      0xffffffff\n      and\n      0xe0\n      shl\n      dup2\n      mstore\n      0x04\n      add\n      tag_55\n      swap3\n      swap2\n      swap1\n      tag_56\n      jump\t// in\n    tag_55:\n      0x20\n      mload(0x40)\n      dup1\n      dup4\n      sub\n      dup2\n      0x00\n      dup8\n      gas\n      call\n      iszero\n      dup1\n      iszero\n      tag_58\n      jumpi\n      returndatasize\n      0x00\n      dup1\n      returndatacopy\n      revert(0x00, returndatasize)\n    tag_58:\n      pop\n      pop\n      pop\n      pop\n      mload(0x40)\n      returndatasize\n      not(0x1f)\n      0x1f\n      dup3\n      add\n      and\n      dup3\n      add\n      dup1\n      0x40\n      mstore\n      pop\n      dup2\n      add\n      swap1\n      tag_59\n      swap2\n      swap1\n      tag_60\n      jump\t// in\n    tag_59:\n        /* \"contracts/HotswapLiquidity.sol\":807:864  require(_fft.transfer(dest, amount), \"Withdrawal failed\") */\n      tag_61\n      jumpi\n      mload(0x40)\n      0x08c379a000000000000000000000000000000000000000000000000000000000\n      dup2\n      mstore\n      0x04\n      add\n      tag_62\n      swap1\n      tag_63\n      jump\t// in\n    tag_62:\n      mload(0x40)\n      dup1\n      swap2\n      sub\n      swap1\n      revert\n    tag_61:\n        /* \"contracts/HotswapLiquidity.sol\":721:872  function withdrawFFT(uint256 amount, address dest) external onlyAuthorized {... */\n      pop\n      pop\n      jump\t// out\n        /* \"contracts/Ownable.sol\":457:536  function owner() public view returns (address) {... */\n    tag_31:\n        /* \"contracts/Ownable.sol\":495:502  address */\n      0x00\n        /* \"contracts/Ownable.sol\":522:528  _owner */\n      dup1\n      0x00\n      swap1\n      sload\n      swap1\n      0x0100\n      exp\n      swap1\n      div\n      0xffffffffffffffffffffffffffffffffffffffff\n      and\n        /* \"contracts/Ownable.sol\":515:528  return _owner */\n      swap1\n      pop\n        /* \"contracts/Ownable.sol\":457:536  function owner() public view returns (address) {... */\n      swap1\n      jump\t// out\n        /* \"contracts/Ownable.sol\":622:714  function isOwner() public view returns (bool) {... */\n    tag_34:\n        /* \"contracts/Ownable.sol\":662:666  bool */\n      0x00\n        /* \"contracts/Ownable.sol\":700:706  _owner */\n      dup1\n      0x00\n      swap1\n      sload\n      swap1\n      0x0100\n      exp\n      swap1\n      div\n      0xffffffffffffffffffffffffffffffffffffffff\n      and\n        /* \"contracts/Ownable.sol\":686:706  msg.sender == _owner */\n      0xffffffffffffffffffffffffffffffffffffffff\n      and\n        /* \"contracts/Ownable.sol\":686:696  msg.sender */\n      caller\n        /* \"contracts/Ownable.sol\":686:706  msg.sender == _owner */\n      0xffffffffffffffffffffffffffffffffffffffff\n      and\n      eq\n        /* \"contracts/Ownable.sol\":679:706  return msg.sender == _owner */\n      swap1\n      pop\n        /* \"contracts/Ownable.sol\":622:714  function isOwner() public view returns (bool) {... */\n      swap1\n      jump\t// out\n        /* \"contracts/HotswapLiquidity.sol\":1240:1332  function setController(address addr) external onlyOwner {... */\n    tag_40:\n        /* \"contracts/Ownable.sol\":584:593  isOwner() */\n      tag_67\n        /* \"contracts/Ownable.sol\":584:591  isOwner */\n      tag_34\n        /* \"contracts/Ownable.sol\":584:593  isOwner() */\n      jump\t// in\n    tag_67:\n        /* \"contracts/Ownable.sol\":576:594  require(isOwner()) */\n      tag_68\n      jumpi\n      0x00\n      dup1\n      revert\n    tag_68:\n        /* \"contracts/HotswapLiquidity.sol\":1320:1324  addr */\n      dup1\n        /* \"contracts/HotswapLiquidity.sol\":1307:1317  Controller */\n      0x03\n      0x00\n        /* \"contracts/HotswapLiquidity.sol\":1307:1324  Controller = addr */\n      0x0100\n      exp\n      dup2\n      sload\n      dup2\n      0xffffffffffffffffffffffffffffffffffffffff\n      mul\n      not\n      and\n      swap1\n      dup4\n      0xffffffffffffffffffffffffffffffffffffffff\n      and\n      mul\n      or\n      swap1\n      sstore\n      pop\n        /* \"contracts/HotswapLiquidity.sol\":1240:1332  function setController(address addr) external onlyOwner {... */\n      pop\n      jump\t// out\n        /* \"contracts/HotswapLiquidity.sol\":880:1232  function withdrawNFT(uint256 amount, address dest) external onlyAuthorized {... */\n    tag_43:\n        /* \"contracts/HotswapLiquidity.sol\":658:664  _owner */\n      0x00\n      dup1\n      sload\n      swap1\n      0x0100\n      exp\n      swap1\n      div\n      0xffffffffffffffffffffffffffffffffffffffff\n      and\n        /* \"contracts/HotswapLiquidity.sol\":644:664  msg.sender == _owner */\n      0xffffffffffffffffffffffffffffffffffffffff\n      and\n        /* \"contracts/HotswapLiquidity.sol\":644:654  msg.sender */\n      caller\n        /* \"contracts/HotswapLiquidity.sol\":644:664  msg.sender == _owner */\n      0xffffffffffffffffffffffffffffffffffffffff\n      and\n      eq\n        /* \"contracts/HotswapLiquidity.sol\":644:692  msg.sender == _owner || msg.sender == Controller */\n      dup1\n      tag_71\n      jumpi\n      pop\n        /* \"contracts/HotswapLiquidity.sol\":682:692  Controller */\n      0x03\n      0x00\n      swap1\n      sload\n      swap1\n      0x0100\n      exp\n      swap1\n      div\n      0xffffffffffffffffffffffffffffffffffffffff\n      and\n        /* \"contracts/HotswapLiquidity.sol\":668:692  msg.sender == Controller */\n      0xffffffffffffffffffffffffffffffffffffffff\n      and\n        /* \"contracts/HotswapLiquidity.sol\":668:678  msg.sender */\n      caller\n        /* \"contracts/HotswapLiquidity.sol\":668:692  msg.sender == Controller */\n      0xffffffffffffffffffffffffffffffffffffffff\n      and\n      eq\n        /* \"contracts/HotswapLiquidity.sol\":644:692  msg.sender == _owner || msg.sender == Controller */\n    tag_71:\n        /* \"contracts/HotswapLiquidity.sol\":636:693  require(msg.sender == _owner || msg.sender == Controller) */\n      tag_72\n      jumpi\n      0x00\n      dup1\n      revert\n    tag_72:\n        /* \"contracts/HotswapLiquidity.sol\":966:981  uint256 tokenId */\n      0x00\n        /* \"contracts/HotswapLiquidity.sol\":992:1009  bytes memory data */\n      dup1\n        /* \"contracts/HotswapLiquidity.sol\":1022:1023  0 */\n      0x00\n        /* \"contracts/HotswapLiquidity.sol\":1012:1024  new bytes(0) */\n      0xffffffffffffffff\n      dup2\n      gt\n      iszero\n      tag_74\n      jumpi\n      tag_75\n      tag_76\n      jump\t// in\n    tag_75:\n    tag_74:\n      mload(0x40)\n      swap1\n      dup1\n      dup3\n      mstore\n      dup1\n      0x1f\n      add\n      not(0x1f)\n      and\n      0x20\n      add\n      dup3\n      add\n      0x40\n      mstore\n      dup1\n      iszero\n      tag_77\n      jumpi\n      dup2\n      0x20\n      add\n      0x01\n      dup3\n      mul\n      dup1\n      calldatasize\n      dup4\n      calldatacopy\n      dup1\n      dup3\n      add\n      swap2\n      pop\n      pop\n      swap1\n      pop\n    tag_77:\n      pop\n        /* \"contracts/HotswapLiquidity.sol\":992:1024  bytes memory data = new bytes(0) */\n      swap1\n      pop\n        /* \"contracts/HotswapLiquidity.sol\":1042:1051  uint256 i */\n      0x00\n        /* \"contracts/HotswapLiquidity.sol\":1037:1225  for (uint256 i = 0; i < amount; i++) {... */\n    tag_78:\n        /* \"contracts/HotswapLiquidity.sol\":1061:1067  amount */\n      dup5\n        /* \"contracts/HotswapLiquidity.sol\":1057:1058  i */\n      dup2\n        /* \"contracts/HotswapLiquidity.sol\":1057:1067  i < amount */\n      lt\n        /* \"contracts/HotswapLiquidity.sol\":1037:1225  for (uint256 i = 0; i < amount; i++) {... */\n      iszero\n      tag_79\n      jumpi\n        /* \"contracts/HotswapLiquidity.sol\":1099:1103  _nft */\n      0x05\n      0x00\n      swap1\n      sload\n      swap1\n      0x0100\n      exp\n      swap1\n      div\n      0xffffffffffffffffffffffffffffffffffffffff\n      and\n        /* \"contracts/HotswapLiquidity.sol\":1099:1123  _nft.tokenOfOwnerByIndex */\n      0xffffffffffffffffffffffffffffffffffffffff\n      and\n      0x2f745c59\n        /* \"contracts/HotswapLiquidity.sol\":1132:1136  this */\n      address\n        /* \"contracts/HotswapLiquidity.sol\":1139:1140  i */\n      dup4\n        /* \"contracts/HotswapLiquidity.sol\":1099:1141  _nft.tokenOfOwnerByIndex(address(this), i) */\n      mload(0x40)\n      dup4\n      0xffffffff\n      and\n      0xe0\n      shl\n      dup2\n      mstore\n      0x04\n      add\n      tag_81\n      swap3\n      swap2\n      swap1\n      tag_56\n      jump\t// in\n    tag_81:\n      0x20\n      mload(0x40)\n      dup1\n      dup4\n      sub\n      dup2\n      dup7\n      gas\n      staticcall\n      iszero\n      dup1\n      iszero\n      tag_83\n      jumpi\n      returndatasize\n      0x00\n      dup1\n      returndatacopy\n      revert(0x00, returndatasize)\n    tag_83:\n      pop\n      pop\n      pop\n      pop\n      mload(0x40)\n      returndatasize\n      not(0x1f)\n      0x1f\n      dup3\n      add\n      and\n      dup3\n      add\n      dup1\n      0x40\n      mstore\n      pop\n      dup2\n      add\n      swap1\n      tag_84\n      swap2\n      swap1\n      tag_85\n      jump\t// in\n    tag_84:\n        /* \"contracts/HotswapLiquidity.sol\":1089:1141  tokenId = _nft.tokenOfOwnerByIndex(address(this), i) */\n      swap3\n      pop\n        /* \"contracts/HotswapLiquidity.sol\":1156:1160  _nft */\n      0x05\n      0x00\n      swap1\n      sload\n      swap1\n      0x0100\n      exp\n      swap1\n      div\n      0xffffffffffffffffffffffffffffffffffffffff\n      and\n        /* \"contracts/HotswapLiquidity.sol\":1156:1177  _nft.safeTransferFrom */\n      0xffffffffffffffffffffffffffffffffffffffff\n      and\n      0xb88d4fde\n        /* \"contracts/HotswapLiquidity.sol\":1186:1190  this */\n      address\n        /* \"contracts/HotswapLiquidity.sol\":1193:1197  dest */\n      dup7\n        /* \"contracts/HotswapLiquidity.sol\":1199:1206  tokenId */\n      dup7\n        /* \"contracts/HotswapLiquidity.sol\":1208:1212  data */\n      dup7\n        /* \"contracts/HotswapLiquidity.sol\":1156:1213  _nft.safeTransferFrom(address(this), dest, tokenId, data) */\n      mload(0x40)\n      dup6\n      0xffffffff\n      and\n      0xe0\n      shl\n      dup2\n      mstore\n      0x04\n      add\n      tag_86\n      swap5\n      swap4\n      swap3\n      swap2\n      swap1\n      tag_87\n      jump\t// in\n    tag_86:\n      0x00\n      mload(0x40)\n      dup1\n      dup4\n      sub\n      dup2\n      0x00\n      dup8\n      dup1\n      extcodesize\n      iszero\n      dup1\n      iszero\n      tag_88\n      jumpi\n      0x00\n      dup1\n      revert\n    tag_88:\n      pop\n      gas\n      call\n      iszero\n      dup1\n      iszero\n      tag_90\n      jumpi\n      returndatasize\n      0x00\n      dup1\n      returndatacopy\n      revert(0x00, returndatasize)\n    tag_90:\n      pop\n      pop\n      pop\n      pop\n        /* \"contracts/HotswapLiquidity.sol\":1069:1072  i++ */\n      dup1\n      dup1\n      0x01\n      add\n      swap2\n      pop\n      pop\n        /* \"contracts/HotswapLiquidity.sol\":1037:1225  for (uint256 i = 0; i < amount; i++) {... */\n      jump(tag_78)\n    tag_79:\n      pop\n        /* \"contracts/HotswapLiquidity.sol\":955:1232  {... */\n      pop\n      pop\n        /* \"contracts/HotswapLiquidity.sol\":880:1232  function withdrawNFT(uint256 amount, address dest) external onlyAuthorized {... */\n      pop\n      pop\n      jump\t// out\n        /* \"contracts/Ownable.sol\":856:965  function transferOwnership(address newOwner) public onlyOwner {... */\n    tag_46:\n        /* \"contracts/Ownable.sol\":584:593  isOwner() */\n      tag_92\n        /* \"contracts/Ownable.sol\":584:591  isOwner */\n      tag_34\n        /* \"contracts/Ownable.sol\":584:593  isOwner() */\n      jump\t// in\n    tag_92:\n        /* \"contracts/Ownable.sol\":576:594  require(isOwner()) */\n      tag_93\n      jumpi\n      0x00\n      dup1\n      revert\n    tag_93:\n        /* \"contracts/Ownable.sol\":929:957  _transferOwnership(newOwner) */\n      tag_95\n        /* \"contracts/Ownable.sol\":948:956  newOwner */\n      dup2\n        /* \"contracts/Ownable.sol\":929:947  _transferOwnership */\n      tag_96\n        /* \"contracts/Ownable.sol\":929:957  _transferOwnership(newOwner) */\n      jump\t// in\n    tag_95:\n        /* \"contracts/Ownable.sol\":856:965  function transferOwnership(address newOwner) public onlyOwner {... */\n      pop\n      jump\t// out\n        /* \"contracts/Ownable.sol\":973:1160  function _transferOwnership(address newOwner) internal {... */\n    tag_96:\n        /* \"contracts/Ownable.sol\":1067:1068  0 */\n      0x00\n        /* \"contracts/Ownable.sol\":1047:1069  newOwner != address(0) */\n      0xffffffffffffffffffffffffffffffffffffffff\n      and\n        /* \"contracts/Ownable.sol\":1047:1055  newOwner */\n      dup2\n        /* \"contracts/Ownable.sol\":1047:1069  newOwner != address(0) */\n      0xffffffffffffffffffffffffffffffffffffffff\n      and\n      sub\n        /* \"contracts/Ownable.sol\":1039:1070  require(newOwner != address(0)) */\n      tag_98\n      jumpi\n      0x00\n      dup1\n      revert\n    tag_98:\n        /* \"contracts/Ownable.sol\":1115:1123  newOwner */\n      dup1\n        /* \"contracts/Ownable.sol\":1086:1124  OwnershipTransferred(_owner, newOwner) */\n      0xffffffffffffffffffffffffffffffffffffffff\n      and\n        /* \"contracts/Ownable.sol\":1107:1113  _owner */\n      0x00\n      dup1\n      sload\n      swap1\n      0x0100\n      exp\n      swap1\n      div\n      0xffffffffffffffffffffffffffffffffffffffff\n      and\n        /* \"contracts/Ownable.sol\":1086:1124  OwnershipTransferred(_owner, newOwner) */\n      0xffffffffffffffffffffffffffffffffffffffff\n      and\n      0x8be0079c531659141344cd1fd0a4f28419497f9722a3daafe3b4186f6b6457e0\n      mload(0x40)\n      mload(0x40)\n      dup1\n      swap2\n      sub\n      swap1\n      log3\n        /* \"contracts/Ownable.sol\":1144:1152  newOwner */\n      dup1\n        /* \"contracts/Ownable.sol\":1135:1141  _owner */\n      0x00\n      dup1\n        /* \"contracts/Ownable.sol\":1135:1152  _owner = newOwner */\n      0x0100\n      exp\n      dup2\n      sload\n      dup2\n      0xffffffffffffffffffffffffffffffffffffffff\n      mul\n      not\n      and\n      swap1\n      dup4\n      0xffffffffffffffffffffffffffffffffffffffff\n      and\n      mul\n      or\n      swap1\n      sstore\n      pop\n        /* \"contracts/Ownable.sol\":973:1160  function _transferOwnership(address newOwner) internal {... */\n      pop\n      jump\t// out\n        /* \"#utility.yul\":7:133   */\n    tag_99:\n        /* \"#utility.yul\":44:51   */\n      0x00\n        /* \"#utility.yul\":84:126   */\n      0xffffffffffffffffffffffffffffffffffffffff\n        /* \"#utility.yul\":77:82   */\n      dup3\n        /* \"#utility.yul\":73:127   */\n      and\n        /* \"#utility.yul\":62:127   */\n      swap1\n      pop\n        /* \"#utility.yul\":7:133   */\n      swap2\n      swap1\n      pop\n      jump\t// out\n        /* \"#utility.yul\":139:235   */\n    tag_100:\n        /* \"#utility.yul\":176:183   */\n      0x00\n        /* \"#utility.yul\":205:229   */\n      tag_127\n        /* \"#utility.yul\":223:228   */\n      dup3\n        /* \"#utility.yul\":205:229   */\n      tag_99\n      jump\t// in\n    tag_127:\n        /* \"#utility.yul\":194:229   */\n      swap1\n      pop\n        /* \"#utility.yul\":139:235   */\n      swap2\n      swap1\n      pop\n      jump\t// out\n        /* \"#utility.yul\":241:359   */\n    tag_101:\n        /* \"#utility.yul\":328:352   */\n      tag_129\n        /* \"#utility.yul\":346:351   */\n      dup2\n        /* \"#utility.yul\":328:352   */\n      tag_100\n      jump\t// in\n    tag_129:\n        /* \"#utility.yul\":323:326   */\n      dup3\n        /* \"#utility.yul\":316:353   */\n      mstore\n        /* \"#utility.yul\":241:359   */\n      pop\n      pop\n      jump\t// out\n        /* \"#utility.yul\":365:587   */\n    tag_17:\n        /* \"#utility.yul\":458:462   */\n      0x00\n        /* \"#utility.yul\":496:498   */\n      0x20\n        /* \"#utility.yul\":485:494   */\n      dup3\n        /* \"#utility.yul\":481:499   */\n      add\n        /* \"#utility.yul\":473:499   */\n      swap1\n      pop\n        /* \"#utility.yul\":509:580   */\n      tag_131\n        /* \"#utility.yul\":577:578   */\n      0x00\n        /* \"#utility.yul\":566:575   */\n      dup4\n        /* \"#utility.yul\":562:579   */\n      add\n        /* \"#utility.yul\":553:559   */\n      dup5\n        /* \"#utility.yul\":509:580   */\n      tag_101\n      jump\t// in\n    tag_131:\n        /* \"#utility.yul\":365:587   */\n      swap3\n      swap2\n      pop\n      pop\n      jump\t// out\n        /* \"#utility.yul\":674:791   */\n    tag_103:\n        /* \"#utility.yul\":783:784   */\n      0x00\n        /* \"#utility.yul\":780:781   */\n      dup1\n        /* \"#utility.yul\":773:785   */\n      revert\n        /* \"#utility.yul\":920:997   */\n    tag_105:\n        /* \"#utility.yul\":957:964   */\n      0x00\n        /* \"#utility.yul\":986:991   */\n      dup2\n        /* \"#utility.yul\":975:991   */\n      swap1\n      pop\n        /* \"#utility.yul\":920:997   */\n      swap2\n      swap1\n      pop\n      jump\t// out\n        /* \"#utility.yul\":1003:1125   */\n    tag_106:\n        /* \"#utility.yul\":1076:1100   */\n      tag_137\n        /* \"#utility.yul\":1094:1099   */\n      dup2\n        /* \"#utility.yul\":1076:1100   */\n      tag_105\n      jump\t// in\n    tag_137:\n        /* \"#utility.yul\":1069:1074   */\n      dup2\n        /* \"#utility.yul\":1066:1101   */\n      eq\n        /* \"#utility.yul\":1056:1119   */\n      tag_138\n      jumpi\n        /* \"#utility.yul\":1115:1116   */\n      0x00\n        /* \"#utility.yul\":1112:1113   */\n      dup1\n        /* \"#utility.yul\":1105:1117   */\n      revert\n        /* \"#utility.yul\":1056:1119   */\n    tag_138:\n        /* \"#utility.yul\":1003:1125   */\n      pop\n      jump\t// out\n        /* \"#utility.yul\":1131:1270   */\n    tag_107:\n        /* \"#utility.yul\":1177:1182   */\n      0x00\n        /* \"#utility.yul\":1215:1221   */\n      dup2\n        /* \"#utility.yul\":1202:1222   */\n      calldataload\n        /* \"#utility.yul\":1193:1222   */\n      swap1\n      pop\n        /* \"#utility.yul\":1231:1264   */\n      tag_140\n        /* \"#utility.yul\":1258:1263   */\n      dup2\n        /* \"#utility.yul\":1231:1264   */\n      tag_106\n      jump\t// in\n    tag_140:\n        /* \"#utility.yul\":1131:1270   */\n      swap3\n      swap2\n      pop\n      pop\n      jump\t// out\n        /* \"#utility.yul\":1276:1398   */\n    tag_108:\n        /* \"#utility.yul\":1349:1373   */\n      tag_142\n        /* \"#utility.yul\":1367:1372   */\n      dup2\n        /* \"#utility.yul\":1349:1373   */\n      tag_100\n      jump\t// in\n    tag_142:\n        /* \"#utility.yul\":1342:1347   */\n      dup2\n        /* \"#utility.yul\":1339:1374   */\n      eq\n        /* \"#utility.yul\":1329:1392   */\n      tag_143\n      jumpi\n        /* \"#utility.yul\":1388:1389   */\n      0x00\n        /* \"#utility.yul\":1385:1386   */\n      dup1\n        /* \"#utility.yul\":1378:1390   */\n      revert\n        /* \"#utility.yul\":1329:1392   */\n    tag_143:\n        /* \"#utility.yul\":1276:1398   */\n      pop\n      jump\t// out\n        /* \"#utility.yul\":1404:1543   */\n    tag_109:\n        /* \"#utility.yul\":1450:1455   */\n      0x00\n        /* \"#utility.yul\":1488:1494   */\n      dup2\n        /* \"#utility.yul\":1475:1495   */\n      calldataload\n        /* \"#utility.yul\":1466:1495   */\n      swap1\n      pop\n        /* \"#utility.yul\":1504:1537   */\n      tag_145\n        /* \"#utility.yul\":1531:1536   */\n      dup2\n        /* \"#utility.yul\":1504:1537   */\n      tag_108\n      jump\t// in\n    tag_145:\n        /* \"#utility.yul\":1404:1543   */\n      swap3\n      swap2\n      pop\n      pop\n      jump\t// out\n        /* \"#utility.yul\":1549:2023   */\n    tag_28:\n        /* \"#utility.yul\":1617:1623   */\n      0x00\n        /* \"#utility.yul\":1625:1631   */\n      dup1\n        /* \"#utility.yul\":1674:1676   */\n      0x40\n        /* \"#utility.yul\":1662:1671   */\n      dup4\n        /* \"#utility.yul\":1653:1660   */\n      dup6\n        /* \"#utility.yul\":1649:1672   */\n      sub\n        /* \"#utility.yul\":1645:1677   */\n      slt\n        /* \"#utility.yul\":1642:1761   */\n      iszero\n      tag_147\n      jumpi\n        /* \"#utility.yul\":1680:1759   */\n      tag_148\n      tag_103\n      jump\t// in\n    tag_148:\n        /* \"#utility.yul\":1642:1761   */\n    tag_147:\n        /* \"#utility.yul\":1800:1801   */\n      0x00\n        /* \"#utility.yul\":1825:1878   */\n      tag_149\n        /* \"#utility.yul\":1870:1877   */\n      dup6\n        /* \"#utility.yul\":1861:1867   */\n      dup3\n        /* \"#utility.yul\":1850:1859   */\n      dup7\n        /* \"#utility.yul\":1846:1868   */\n      add\n        /* \"#utility.yul\":1825:1878   */\n      tag_107\n      jump\t// in\n    tag_149:\n        /* \"#utility.yul\":1815:1878   */\n      swap3\n      pop\n        /* \"#utility.yul\":1771:1888   */\n      pop\n        /* \"#utility.yul\":1927:1929   */\n      0x20\n        /* \"#utility.yul\":1953:2006   */\n      tag_150\n        /* \"#utility.yul\":1998:2005   */\n      dup6\n        /* \"#utility.yul\":1989:1995   */\n      dup3\n        /* \"#utility.yul\":1978:1987   */\n      dup7\n        /* \"#utility.yul\":1974:1996   */\n      add\n        /* \"#utility.yul\":1953:2006   */\n      tag_109\n      jump\t// in\n    tag_150:\n        /* \"#utility.yul\":1943:2006   */\n      swap2\n      pop\n        /* \"#utility.yul\":1898:2016   */\n      pop\n        /* \"#utility.yul\":1549:2023   */\n      swap3\n      pop\n      swap3\n      swap1\n      pop\n      jump\t// out\n        /* \"#utility.yul\":2029:2119   */\n    tag_110:\n        /* \"#utility.yul\":2063:2070   */\n      0x00\n        /* \"#utility.yul\":2106:2111   */\n      dup2\n        /* \"#utility.yul\":2099:2112   */\n      iszero\n        /* \"#utility.yul\":2092:2113   */\n      iszero\n        /* \"#utility.yul\":2081:2113   */\n      swap1\n      pop\n        /* \"#utility.yul\":2029:2119   */\n      swap2\n      swap1\n      pop\n      jump\t// out\n        /* \"#utility.yul\":2125:2234   */\n    tag_111:\n        /* \"#utility.yul\":2206:2227   */\n      tag_153\n        /* \"#utility.yul\":2221:2226   */\n      dup2\n        /* \"#utility.yul\":2206:2227   */\n      tag_110\n      jump\t// in\n    tag_153:\n        /* \"#utility.yul\":2201:2204   */\n      dup3\n        /* \"#utility.yul\":2194:2228   */\n      mstore\n        /* \"#utility.yul\":2125:2234   */\n      pop\n      pop\n      jump\t// out\n        /* \"#utility.yul\":2240:2450   */\n    tag_36:\n        /* \"#utility.yul\":2327:2331   */\n      0x00\n        /* \"#utility.yul\":2365:2367   */\n      0x20\n        /* \"#utility.yul\":2354:2363   */\n      dup3\n        /* \"#utility.yul\":2350:2368   */\n      add\n        /* \"#utility.yul\":2342:2368   */\n      swap1\n      pop\n        /* \"#utility.yul\":2378:2443   */\n      tag_155\n        /* \"#utility.yul\":2440:2441   */\n      0x00\n        /* \"#utility.yul\":2429:2438   */\n      dup4\n        /* \"#utility.yul\":2425:2442   */\n      add\n        /* \"#utility.yul\":2416:2422   */\n      dup5\n        /* \"#utility.yul\":2378:2443   */\n      tag_111\n      jump\t// in\n    tag_155:\n        /* \"#utility.yul\":2240:2450   */\n      swap3\n      swap2\n      pop\n      pop\n      jump\t// out\n        /* \"#utility.yul\":2456:2785   */\n    tag_39:\n        /* \"#utility.yul\":2515:2521   */\n      0x00\n        /* \"#utility.yul\":2564:2566   */\n      0x20\n        /* \"#utility.yul\":2552:2561   */\n      dup3\n        /* \"#utility.yul\":2543:2550   */\n      dup5\n        /* \"#utility.yul\":2539:2562   */\n      sub\n        /* \"#utility.yul\":2535:2567   */\n      slt\n        /* \"#utility.yul\":2532:2651   */\n      iszero\n      tag_157\n      jumpi\n        /* \"#utility.yul\":2570:2649   */\n      tag_158\n      tag_103\n      jump\t// in\n    tag_158:\n        /* \"#utility.yul\":2532:2651   */\n    tag_157:\n        /* \"#utility.yul\":2690:2691   */\n      0x00\n        /* \"#utility.yul\":2715:2768   */\n      tag_159\n        /* \"#utility.yul\":2760:2767   */\n      dup5\n        /* \"#utility.yul\":2751:2757   */\n      dup3\n        /* \"#utility.yul\":2740:2749   */\n      dup6\n        /* \"#utility.yul\":2736:2758   */\n      add\n        /* \"#utility.yul\":2715:2768   */\n      tag_109\n      jump\t// in\n    tag_159:\n        /* \"#utility.yul\":2705:2768   */\n      swap2\n      pop\n        /* \"#utility.yul\":2661:2778   */\n      pop\n        /* \"#utility.yul\":2456:2785   */\n      swap3\n      swap2\n      pop\n      pop\n      jump\t// out\n        /* \"#utility.yul\":2791:2909   */\n    tag_112:\n        /* \"#utility.yul\":2878:2902   */\n      tag_161\n        /* \"#utility.yul\":2896:2901   */\n      dup2\n        /* \"#utility.yul\":2878:2902   */\n      tag_105\n      jump\t// in\n    tag_161:\n        /* \"#utility.yul\":2873:2876   */\n      dup3\n        /* \"#utility.yul\":2866:2903   */\n      mstore\n        /* \"#utility.yul\":2791:2909   */\n      pop\n      pop\n      jump\t// out\n        /* \"#utility.yul\":2915:3247   */\n    tag_56:\n        /* \"#utility.yul\":3036:3040   */\n      0x00\n        /* \"#utility.yul\":3074:3076   */\n      0x40\n        /* \"#utility.yul\":3063:3072   */\n      dup3\n        /* \"#utility.yul\":3059:3077   */\n      add\n        /* \"#utility.yul\":3051:3077   */\n      swap1\n      pop\n        /* \"#utility.yul\":3087:3158   */\n      tag_163\n        /* \"#utility.yul\":3155:3156   */\n      0x00\n        /* \"#utility.yul\":3144:3153   */\n      dup4\n        /* \"#utility.yul\":3140:3157   */\n      add\n        /* \"#utility.yul\":3131:3137   */\n      dup6\n        /* \"#utility.yul\":3087:3158   */\n      tag_101\n      jump\t// in\n    tag_163:\n        /* \"#utility.yul\":3168:3240   */\n      tag_164\n        /* \"#utility.yul\":3236:3238   */\n      0x20\n        /* \"#utility.yul\":3225:3234   */\n      dup4\n        /* \"#utility.yul\":3221:3239   */\n      add\n        /* \"#utility.yul\":3212:3218   */\n      dup5\n        /* \"#utility.yul\":3168:3240   */\n      tag_112\n      jump\t// in\n    tag_164:\n        /* \"#utility.yul\":2915:3247   */\n      swap4\n      swap3\n      pop\n      pop\n      pop\n      jump\t// out\n        /* \"#utility.yul\":3253:3369   */\n    tag_113:\n        /* \"#utility.yul\":3323:3344   */\n      tag_166\n        /* \"#utility.yul\":3338:3343   */\n      dup2\n        /* \"#utility.yul\":3323:3344   */\n      tag_110\n      jump\t// in\n    tag_166:\n        /* \"#utility.yul\":3316:3321   */\n      dup2\n        /* \"#utility.yul\":3313:3345   */\n      eq\n        /* \"#utility.yul\":3303:3363   */\n      tag_167\n      jumpi\n        /* \"#utility.yul\":3359:3360   */\n      0x00\n        /* \"#utility.yul\":3356:3357   */\n      dup1\n        /* \"#utility.yul\":3349:3361   */\n      revert\n        /* \"#utility.yul\":3303:3363   */\n    tag_167:\n        /* \"#utility.yul\":3253:3369   */\n      pop\n      jump\t// out\n        /* \"#utility.yul\":3375:3512   */\n    tag_114:\n        /* \"#utility.yul\":3429:3434   */\n      0x00\n        /* \"#utility.yul\":3460:3466   */\n      dup2\n        /* \"#utility.yul\":3454:3467   */\n      mload\n        /* \"#utility.yul\":3445:3467   */\n      swap1\n      pop\n        /* \"#utility.yul\":3476:3506   */\n      tag_169\n        /* \"#utility.yul\":3500:3505   */\n      dup2\n        /* \"#utility.yul\":3476:3506   */\n      tag_113\n      jump\t// in\n    tag_169:\n        /* \"#utility.yul\":3375:3512   */\n      swap3\n      swap2\n      pop\n      pop\n      jump\t// out\n        /* \"#utility.yul\":3518:3863   */\n    tag_60:\n        /* \"#utility.yul\":3585:3591   */\n      0x00\n        /* \"#utility.yul\":3634:3636   */\n      0x20\n        /* \"#utility.yul\":3622:3631   */\n      dup3\n        /* \"#utility.yul\":3613:3620   */\n      dup5\n        /* \"#utility.yul\":3609:3632   */\n      sub\n        /* \"#utility.yul\":3605:3637   */\n      slt\n        /* \"#utility.yul\":3602:3721   */\n      iszero\n      tag_171\n      jumpi\n        /* \"#utility.yul\":3640:3719   */\n      tag_172\n      tag_103\n      jump\t// in\n    tag_172:\n        /* \"#utility.yul\":3602:3721   */\n    tag_171:\n        /* \"#utility.yul\":3760:3761   */\n      0x00\n        /* \"#utility.yul\":3785:3846   */\n      tag_173\n        /* \"#utility.yul\":3838:3845   */\n      dup5\n        /* \"#utility.yul\":3829:3835   */\n      dup3\n        /* \"#utility.yul\":3818:3827   */\n      dup6\n        /* \"#utility.yul\":3814:3836   */\n      add\n        /* \"#utility.yul\":3785:3846   */\n      tag_114\n      jump\t// in\n    tag_173:\n        /* \"#utility.yul\":3775:3846   */\n      swap2\n      pop\n        /* \"#utility.yul\":3731:3856   */\n      pop\n        /* \"#utility.yul\":3518:3863   */\n      swap3\n      swap2\n      pop\n      pop\n      jump\t// out\n        /* \"#utility.yul\":3869:4038   */\n    tag_115:\n        /* \"#utility.yul\":3953:3964   */\n      0x00\n        /* \"#utility.yul\":3987:3993   */\n      dup3\n        /* \"#utility.yul\":3982:3985   */\n      dup3\n        /* \"#utility.yul\":3975:3994   */\n      mstore\n        /* \"#utility.yul\":4027:4031   */\n      0x20\n        /* \"#utility.yul\":4022:4025   */\n      dup3\n        /* \"#utility.yul\":4018:4032   */\n      add\n        /* \"#utility.yul\":4003:4032   */\n      swap1\n      pop\n        /* \"#utility.yul\":3869:4038   */\n      swap3\n      swap2\n      pop\n      pop\n      jump\t// out\n        /* \"#utility.yul\":4044:4211   */\n    tag_116:\n        /* \"#utility.yul\":4184:4203   */\n      0x5769746864726177616c206661696c6564000000000000000000000000000000\n        /* \"#utility.yul\":4180:4181   */\n      0x00\n        /* \"#utility.yul\":4172:4178   */\n      dup3\n        /* \"#utility.yul\":4168:4182   */\n      add\n        /* \"#utility.yul\":4161:4204   */\n      mstore\n        /* \"#utility.yul\":4044:4211   */\n      pop\n      jump\t// out\n        /* \"#utility.yul\":4217:4583   */\n    tag_117:\n        /* \"#utility.yul\":4359:4362   */\n      0x00\n        /* \"#utility.yul\":4380:4447   */\n      tag_177\n        /* \"#utility.yul\":4444:4446   */\n      0x11\n        /* \"#utility.yul\":4439:4442   */\n      dup4\n        /* \"#utility.yul\":4380:4447   */\n      tag_115\n      jump\t// in\n    tag_177:\n        /* \"#utility.yul\":4373:4447   */\n      swap2\n      pop\n        /* \"#utility.yul\":4456:4549   */\n      tag_178\n        /* \"#utility.yul\":4545:4548   */\n      dup3\n        /* \"#utility.yul\":4456:4549   */\n      tag_116\n      jump\t// in\n    tag_178:\n        /* \"#utility.yul\":4574:4576   */\n      0x20\n        /* \"#utility.yul\":4569:4572   */\n      dup3\n        /* \"#utility.yul\":4565:4577   */\n      add\n        /* \"#utility.yul\":4558:4577   */\n      swap1\n      pop\n        /* \"#utility.yul\":4217:4583   */\n      swap2\n      swap1\n      pop\n      jump\t// out\n        /* \"#utility.yul\":4589:5008   */\n    tag_63:\n        /* \"#utility.yul\":4755:4759   */\n      0x00\n        /* \"#utility.yul\":4793:4795   */\n      0x20\n        /* \"#utility.yul\":4782:4791   */\n      dup3\n        /* \"#utility.yul\":4778:4796   */\n      add\n        /* \"#utility.yul\":4770:4796   */\n      swap1\n      pop\n        /* \"#utility.yul\":4842:4851   */\n      dup2\n        /* \"#utility.yul\":4836:4840   */\n      dup2\n        /* \"#utility.yul\":4832:4852   */\n      sub\n        /* \"#utility.yul\":4828:4829   */\n      0x00\n        /* \"#utility.yul\":4817:4826   */\n      dup4\n        /* \"#utility.yul\":4813:4830   */\n      add\n        /* \"#utility.yul\":4806:4853   */\n      mstore\n        /* \"#utility.yul\":4870:5001   */\n      tag_180\n        /* \"#utility.yul\":4996:5000   */\n      dup2\n        /* \"#utility.yul\":4870:5001   */\n      tag_117\n      jump\t// in\n    tag_180:\n        /* \"#utility.yul\":4862:5001   */\n      swap1\n      pop\n        /* \"#utility.yul\":4589:5008   */\n      swap2\n      swap1\n      pop\n      jump\t// out\n        /* \"#utility.yul\":5014:5194   */\n    tag_76:\n        /* \"#utility.yul\":5062:5139   */\n      0x4e487b7100000000000000000000000000000000000000000000000000000000\n        /* \"#utility.yul\":5059:5060   */\n      0x00\n        /* \"#utility.yul\":5052:5140   */\n      mstore\n        /* \"#utility.yul\":5159:5163   */\n      0x41\n        /* \"#utility.yul\":5156:5157   */\n      0x04\n        /* \"#utility.yul\":5149:5164   */\n      mstore\n        /* \"#utility.yul\":5183:5187   */\n      0x24\n        /* \"#utility.yul\":5180:5181   */\n      0x00\n        /* \"#utility.yul\":5173:5188   */\n      revert\n        /* \"#utility.yul\":5200:5343   */\n    tag_118:\n        /* \"#utility.yul\":5257:5262   */\n      0x00\n        /* \"#utility.yul\":5288:5294   */\n      dup2\n        /* \"#utility.yul\":5282:5295   */\n      mload\n        /* \"#utility.yul\":5273:5295   */\n      swap1\n      pop\n        /* \"#utility.yul\":5304:5337   */\n      tag_183\n        /* \"#utility.yul\":5331:5336   */\n      dup2\n        /* \"#utility.yul\":5304:5337   */\n      tag_106\n      jump\t// in\n    tag_183:\n        /* \"#utility.yul\":5200:5343   */\n      swap3\n      swap2\n      pop\n      pop\n      jump\t// out\n        /* \"#utility.yul\":5349:5700   */\n    tag_85:\n        /* \"#utility.yul\":5419:5425   */\n      0x00\n        /* \"#utility.yul\":5468:5470   */\n      0x20\n        /* \"#utility.yul\":5456:5465   */\n      dup3\n        /* \"#utility.yul\":5447:5454   */\n      dup5\n        /* \"#utility.yul\":5443:5466   */\n      sub\n        /* \"#utility.yul\":5439:5471   */\n      slt\n        /* \"#utility.yul\":5436:5555   */\n      iszero\n      tag_185\n      jumpi\n        /* \"#utility.yul\":5474:5553   */\n      tag_186\n      tag_103\n      jump\t// in\n    tag_186:\n        /* \"#utility.yul\":5436:5555   */\n    tag_185:\n        /* \"#utility.yul\":5594:5595   */\n      0x00\n        /* \"#utility.yul\":5619:5683   */\n      tag_187\n        /* \"#utility.yul\":5675:5682   */\n      dup5\n        /* \"#utility.yul\":5666:5672   */\n      dup3\n        /* \"#utility.yul\":5655:5664   */\n      dup6\n        /* \"#utility.yul\":5651:5673   */\n      add\n        /* \"#utility.yul\":5619:5683   */\n      tag_118\n      jump\t// in\n    tag_187:\n        /* \"#utility.yul\":5609:5683   */\n      swap2\n      pop\n        /* \"#utility.yul\":5565:5693   */\n      pop\n        /* \"#utility.yul\":5349:5700   */\n      swap3\n      swap2\n      pop\n      pop\n      jump\t// out\n        /* \"#utility.yul\":5706:5804   */\n    tag_119:\n        /* \"#utility.yul\":5757:5763   */\n      0x00\n        /* \"#utility.yul\":5791:5796   */\n      dup2\n        /* \"#utility.yul\":5785:5797   */\n      mload\n        /* \"#utility.yul\":5775:5797   */\n      swap1\n      pop\n        /* \"#utility.yul\":5706:5804   */\n      swap2\n      swap1\n      pop\n      jump\t// out\n        /* \"#utility.yul\":5810:5978   */\n    tag_120:\n        /* \"#utility.yul\":5893:5904   */\n      0x00\n        /* \"#utility.yul\":5927:5933   */\n      dup3\n        /* \"#utility.yul\":5922:5925   */\n      dup3\n        /* \"#utility.yul\":5915:5934   */\n      mstore\n        /* \"#utility.yul\":5967:5971   */\n      0x20\n        /* \"#utility.yul\":5962:5965   */\n      dup3\n        /* \"#utility.yul\":5958:5972   */\n      add\n        /* \"#utility.yul\":5943:5972   */\n      swap1\n      pop\n        /* \"#utility.yul\":5810:5978   */\n      swap3\n      swap2\n      pop\n      pop\n      jump\t// out\n        /* \"#utility.yul\":5984:6123   */\n    tag_121:\n        /* \"#utility.yul\":6073:6079   */\n      dup3\n        /* \"#utility.yul\":6068:6071   */\n      dup2\n        /* \"#utility.yul\":6063:6066   */\n      dup4\n        /* \"#utility.yul\":6057:6080   */\n      mcopy\n        /* \"#utility.yul\":6114:6115   */\n      0x00\n        /* \"#utility.yul\":6105:6111   */\n      dup4\n        /* \"#utility.yul\":6100:6103   */\n      dup4\n        /* \"#utility.yul\":6096:6112   */\n      add\n        /* \"#utility.yul\":6089:6116   */\n      mstore\n        /* \"#utility.yul\":5984:6123   */\n      pop\n      pop\n      pop\n      jump\t// out\n        /* \"#utility.yul\":6129:6231   */\n    tag_122:\n        /* \"#utility.yul\":6170:6176   */\n      0x00\n        /* \"#utility.yul\":6221:6223   */\n      0x1f\n        /* \"#utility.yul\":6217:6224   */\n      not\n        /* \"#utility.yul\":6212:6214   */\n      0x1f\n        /* \"#utility.yul\":6205:6210   */\n      dup4\n        /* \"#utility.yul\":6201:6215   */\n      add\n        /* \"#utility.yul\":6197:6225   */\n      and\n        /* \"#utility.yul\":6187:6225   */\n      swap1\n      pop\n        /* \"#utility.yul\":6129:6231   */\n      swap2\n      swap1\n      pop\n      jump\t// out\n        /* \"#utility.yul\":6237:6610   */\n    tag_123:\n        /* \"#utility.yul\":6323:6326   */\n      0x00\n        /* \"#utility.yul\":6351:6389   */\n      tag_193\n        /* \"#utility.yul\":6383:6388   */\n      dup3\n        /* \"#utility.yul\":6351:6389   */\n      tag_119\n      jump\t// in\n    tag_193:\n        /* \"#utility.yul\":6405:6475   */\n      tag_194\n        /* \"#utility.yul\":6468:6474   */\n      dup2\n        /* \"#utility.yul\":6463:6466   */\n      dup6\n        /* \"#utility.yul\":6405:6475   */\n      tag_120\n      jump\t// in\n    tag_194:\n        /* \"#utility.yul\":6398:6475   */\n      swap4\n      pop\n        /* \"#utility.yul\":6484:6549   */\n      tag_195\n        /* \"#utility.yul\":6542:6548   */\n      dup2\n        /* \"#utility.yul\":6537:6540   */\n      dup6\n        /* \"#utility.yul\":6530:6534   */\n      0x20\n        /* \"#utility.yul\":6523:6528   */\n      dup7\n        /* \"#utility.yul\":6519:6535   */\n      add\n        /* \"#utility.yul\":6484:6549   */\n      tag_121\n      jump\t// in\n    tag_195:\n        /* \"#utility.yul\":6574:6603   */\n      tag_196\n        /* \"#utility.yul\":6596:6602   */\n      dup2\n        /* \"#utility.yul\":6574:6603   */\n      tag_122\n      jump\t// in\n    tag_196:\n        /* \"#utility.yul\":6569:6572   */\n      dup5\n        /* \"#utility.yul\":6565:6604   */\n      add\n        /* \"#utility.yul\":6558:6604   */\n      swap2\n      pop\n        /* \"#utility.yul\":6327:6610   */\n      pop\n        /* \"#utility.yul\":6237:6610   */\n      swap3\n      swap2\n      pop\n      pop\n      jump\t// out\n        /* \"#utility.yul\":6616:7256   */\n    tag_87:\n        /* \"#utility.yul\":6811:6815   */\n      0x00\n        /* \"#utility.yul\":6849:6852   */\n      0x80\n        /* \"#utility.yul\":6838:6847   */\n      dup3\n        /* \"#utility.yul\":6834:6853   */\n      add\n        /* \"#utility.yul\":6826:6853   */\n      swap1\n      pop\n        /* \"#utility.yul\":6863:6934   */\n      tag_198\n        /* \"#utility.yul\":6931:6932   */\n      0x00\n        /* \"#utility.yul\":6920:6929   */\n      dup4\n        /* \"#utility.yul\":6916:6933   */\n      add\n        /* \"#utility.yul\":6907:6913   */\n      dup8\n        /* \"#utility.yul\":6863:6934   */\n      tag_101\n      jump\t// in\n    tag_198:\n        /* \"#utility.yul\":6944:7016   */\n      tag_199\n        /* \"#utility.yul\":7012:7014   */\n      0x20\n        /* \"#utility.yul\":7001:7010   */\n      dup4\n        /* \"#utility.yul\":6997:7015   */\n      add\n        /* \"#utility.yul\":6988:6994   */\n      dup7\n        /* \"#utility.yul\":6944:7016   */\n      tag_101\n      jump\t// in\n    tag_199:\n        /* \"#utility.yul\":7026:7098   */\n      tag_200\n        /* \"#utility.yul\":7094:7096   */\n      0x40\n        /* \"#utility.yul\":7083:7092   */\n      dup4\n        /* \"#utility.yul\":7079:7097   */\n      add\n        /* \"#utility.yul\":7070:7076   */\n      dup6\n        /* \"#utility.yul\":7026:7098   */\n      tag_112\n      jump\t// in\n    tag_200:\n        /* \"#utility.yul\":7145:7154   */\n      dup2\n        /* \"#utility.yul\":7139:7143   */\n      dup2\n        /* \"#utility.yul\":7135:7155   */\n      sub\n        /* \"#utility.yul\":7130:7132   */\n      0x60\n        /* \"#utility.yul\":7119:7128   */\n      dup4\n        /* \"#utility.yul\":7115:7133   */\n      add\n        /* \"#utility.yul\":7108:7156   */\n      mstore\n        /* \"#utility.yul\":7173:7249   */\n      tag_201\n        /* \"#utility.yul\":7244:7248   */\n      dup2\n        /* \"#utility.yul\":7235:7241   */\n      dup5\n        /* \"#utility.yul\":7173:7249   */\n      tag_123\n      jump\t// in\n    tag_201:\n        /* \"#utility.yul\":7165:7249   */\n      swap1\n      pop\n        /* \"#utility.yul\":6616:7256   */\n      swap6\n      swap5\n      pop\n      pop\n      pop\n      pop\n      pop\n      jump\t// out\n\n    auxdata: 0xa264697066735822122031faec28b6ab4a5c0d65ce70c6515be6018c3dff5a7c2ba11a5805d347e3758664736f6c63430008190033\n}\n",
				"bytecode": {
					"linkReferences": {},
					"object": "608060405234801561000f575f80fd5b50604051610e55380380610e55833981810160405281019061003191906101d5565b335f806101000a81548173ffffffffffffffffffffffffffffffffffffffff021916908373ffffffffffffffffffffffffffffffffffffffff1602179055508160015f6101000a81548173ffffffffffffffffffffffffffffffffffffffff021916908373ffffffffffffffffffffffffffffffffffffffff1602179055508060025f6101000a81548173ffffffffffffffffffffffffffffffffffffffff021916908373ffffffffffffffffffffffffffffffffffffffff1602179055508060045f6101000a81548173ffffffffffffffffffffffffffffffffffffffff021916908373ffffffffffffffffffffffffffffffffffffffff1602179055508160055f6101000a81548173ffffffffffffffffffffffffffffffffffffffff021916908373ffffffffffffffffffffffffffffffffffffffff1602179055505050610213565b5f80fd5b5f73ffffffffffffffffffffffffffffffffffffffff82169050919050565b5f6101a48261017b565b9050919050565b6101b48161019a565b81146101be575f80fd5b50565b5f815190506101cf816101ab565b92915050565b5f80604083850312156101eb576101ea610177565b5b5f6101f8858286016101c1565b9250506020610209858286016101c1565b9150509250929050565b610c35806102205f395ff3fe608060405234801561000f575f80fd5b506004361061009c575f3560e01c80638da5cb5b116100645780638da5cb5b146101205780638f32d59b1461013e57806392eefe9b1461015c578063c1d2d00d14610178578063f2fde38b146101945761009c565b806304bb60ce146100a057806364679356146100be578063715018a6146100dc5780637c0b8de2146100e65780638cda7bb414610104575b5f80fd5b6100a86101b0565b6040516100b591906108c0565b60405180910390f35b6100c66101d5565b6040516100d391906108c0565b60405180910390f35b6100e46101fa565b005b6100ee6102ad565b6040516100fb91906108c0565b60405180910390f35b61011e6004803603810190610119919061093a565b6102d2565b005b61012861045e565b60405161013591906108c0565b60405180910390f35b610146610485565b6040516101539190610992565b60405180910390f35b610176600480360381019061017191906109ab565b6104da565b005b610192600480360381019061018d919061093a565b61052d565b005b6101ae60048036038101906101a991906109ab565b610773565b005b60025f9054906101000a900473ffffffffffffffffffffffffffffffffffffffff1681565b60035f9054906101000a900473ffffffffffffffffffffffffffffffffffffffff1681565b610202610485565b61020a575f80fd5b5f8054906101000a900473ffffffffffffffffffffffffffffffffffffffff1673ffffffffffffffffffffffffffffffffffffffff167ff8df31144d9c2f0f6b59d69b8b98abd5459d07f2742c4df920b25aae33c6482060405160405180910390a25f805f6101000a81548173ffffffffffffffffffffffffffffffffffffffff021916908373ffffffffffffffffffffffffffffffffffffffff160217905550565b60015f9054906101000a900473ffffffffffffffffffffffffffffffffffffffff1681565b5f8054906101000a900473ffffffffffffffffffffffffffffffffffffffff1673ffffffffffffffffffffffffffffffffffffffff163373ffffffffffffffffffffffffffffffffffffffff161480610377575060035f9054906101000a900473ffffffffffffffffffffffffffffffffffffffff1673ffffffffffffffffffffffffffffffffffffffff163373ffffffffffffffffffffffffffffffffffffffff16145b61037f575f80fd5b60045f9054906101000a900473ffffffffffffffffffffffffffffffffffffffff1673ffffffffffffffffffffffffffffffffffffffff1663a9059cbb82846040518363ffffffff1660e01b81526004016103db9291906109e5565b6020604051808303815f875af11580156103f7573d5f803e3d5ffd5b505050506040513d601f19601f8201168201806040525081019061041b9190610a36565b61045a576040517f08c379a000000000000000000000000000000000000000000000000000000000815260040161045190610abb565b60405180910390fd5b5050565b5f805f9054906101000a900473ffffffffffffffffffffffffffffffffffffffff16905090565b5f805f9054906101000a900473ffffffffffffffffffffffffffffffffffffffff1673ffffffffffffffffffffffffffffffffffffffff163373ffffffffffffffffffffffffffffffffffffffff1614905090565b6104e2610485565b6104ea575f80fd5b8060035f6101000a81548173ffffffffffffffffffffffffffffffffffffffff021916908373ffffffffffffffffffffffffffffffffffffffff16021790555050565b5f8054906101000a900473ffffffffffffffffffffffffffffffffffffffff1673ffffffffffffffffffffffffffffffffffffffff163373ffffffffffffffffffffffffffffffffffffffff1614806105d2575060035f9054906101000a900473ffffffffffffffffffffffffffffffffffffffff1673ffffffffffffffffffffffffffffffffffffffff163373ffffffffffffffffffffffffffffffffffffffff16145b6105da575f80fd5b5f805f67ffffffffffffffff8111156105f6576105f5610ad9565b5b6040519080825280601f01601f1916602001820160405280156106285781602001600182028036833780820191505090505b5090505f5b8481101561076c5760055f9054906101000a900473ffffffffffffffffffffffffffffffffffffffff1673ffffffffffffffffffffffffffffffffffffffff16632f745c5930836040518363ffffffff1660e01b81526004016106919291906109e5565b602060405180830381865afa1580156106ac573d5f803e3d5ffd5b505050506040513d601f19601f820116820180604052508101906106d09190610b1a565b925060055f9054906101000a900473ffffffffffffffffffffffffffffffffffffffff1673ffffffffffffffffffffffffffffffffffffffff1663b88d4fde308686866040518563ffffffff1660e01b81526004016107329493929190610bb5565b5f604051808303815f87803b158015610749575f80fd5b505af115801561075b573d5f803e3d5ffd5b50505050808060010191505061062d565b5050505050565b61077b610485565b610783575f80fd5b61078c8161078f565b50565b5f73ffffffffffffffffffffffffffffffffffffffff168173ffffffffffffffffffffffffffffffffffffffff16036107c6575f80fd5b8073ffffffffffffffffffffffffffffffffffffffff165f8054906101000a900473ffffffffffffffffffffffffffffffffffffffff1673ffffffffffffffffffffffffffffffffffffffff167f8be0079c531659141344cd1fd0a4f28419497f9722a3daafe3b4186f6b6457e060405160405180910390a3805f806101000a81548173ffffffffffffffffffffffffffffffffffffffff021916908373ffffffffffffffffffffffffffffffffffffffff16021790555050565b5f73ffffffffffffffffffffffffffffffffffffffff82169050919050565b5f6108aa82610881565b9050919050565b6108ba816108a0565b82525050565b5f6020820190506108d35f8301846108b1565b92915050565b5f80fd5b5f819050919050565b6108ef816108dd565b81146108f9575f80fd5b50565b5f8135905061090a816108e6565b92915050565b610919816108a0565b8114610923575f80fd5b50565b5f8135905061093481610910565b92915050565b5f80604083850312156109505761094f6108d9565b5b5f61095d858286016108fc565b925050602061096e85828601610926565b9150509250929050565b5f8115159050919050565b61098c81610978565b82525050565b5f6020820190506109a55f830184610983565b92915050565b5f602082840312156109c0576109bf6108d9565b5b5f6109cd84828501610926565b91505092915050565b6109df816108dd565b82525050565b5f6040820190506109f85f8301856108b1565b610a0560208301846109d6565b9392505050565b610a1581610978565b8114610a1f575f80fd5b50565b5f81519050610a3081610a0c565b92915050565b5f60208284031215610a4b57610a4a6108d9565b5b5f610a5884828501610a22565b91505092915050565b5f82825260208201905092915050565b7f5769746864726177616c206661696c65640000000000000000000000000000005f82015250565b5f610aa5601183610a61565b9150610ab082610a71565b602082019050919050565b5f6020820190508181035f830152610ad281610a99565b9050919050565b7f4e487b71000000000000000000000000000000000000000000000000000000005f52604160045260245ffd5b5f81519050610b14816108e6565b92915050565b5f60208284031215610b2f57610b2e6108d9565b5b5f610b3c84828501610b06565b91505092915050565b5f81519050919050565b5f82825260208201905092915050565b8281835e5f83830152505050565b5f601f19601f8301169050919050565b5f610b8782610b45565b610b918185610b4f565b9350610ba1818560208601610b5f565b610baa81610b6d565b840191505092915050565b5f608082019050610bc85f8301876108b1565b610bd560208301866108b1565b610be260408301856109d6565b8181036060830152610bf48184610b7d565b90509594505050505056fea264697066735822122031faec28b6ab4a5c0d65ce70c6515be6018c3dff5a7c2ba11a5805d347e3758664736f6c63430008190033",
					"opcodes": "PUSH1 0x80 PUSH1 0x40 MSTORE CALLVALUE DUP1 ISZERO PUSH2 0xF JUMPI PUSH0 DUP1 REVERT JUMPDEST POP PUSH1 0x40 MLOAD PUSH2 0xE55 CODESIZE SUB DUP1 PUSH2 0xE55 DUP4 CODECOPY DUP2 DUP2 ADD PUSH1 0x40 MSTORE DUP2 ADD SWAP1 PUSH2 0x31 SWAP2 SWAP1 PUSH2 0x1D5 JUMP JUMPDEST CALLER PUSH0 DUP1 PUSH2 0x100 EXP DUP2 SLOAD DUP2 PUSH20 0xFFFFFFFFFFFFFFFFFFFFFFFFFFFFFFFFFFFFFFFF MUL NOT AND SWAP1 DUP4 PUSH20 0xFFFFFFFFFFFFFFFFFFFFFFFFFFFFFFFFFFFFFFFF AND MUL OR SWAP1 SSTORE POP DUP2 PUSH1 0x1 PUSH0 PUSH2 0x100 EXP DUP2 SLOAD DUP2 PUSH20 0xFFFFFFFFFFFFFFFFFFFFFFFFFFFFFFFFFFFFFFFF MUL NOT AND SWAP1 DUP4 PUSH20 0xFFFFFFFFFFFFFFFFFFFFFFFFFFFFFFFFFFFFFFFF AND MUL OR SWAP1 SSTORE POP DUP1 PUSH1 0x2 PUSH0 PUSH2 0x100 EXP DUP2 SLOAD DUP2 PUSH20 0xFFFFFFFFFFFFFFFFFFFFFFFFFFFFFFFFFFFFFFFF MUL NOT AND SWAP1 DUP4 PUSH20 0xFFFFFFFFFFFFFFFFFFFFFFFFFFFFFFFFFFFFFFFF AND MUL OR SWAP1 SSTORE POP DUP1 PUSH1 0x4 PUSH0 PUSH2 0x100 EXP DUP2 SLOAD DUP2 PUSH20 0xFFFFFFFFFFFFFFFFFFFFFFFFFFFFFFFFFFFFFFFF MUL NOT AND SWAP1 DUP4 PUSH20 0xFFFFFFFFFFFFFFFFFFFFFFFFFFFFFFFFFFFFFFFF AND MUL OR SWAP1 SSTORE POP DUP2 PUSH1 0x5 PUSH0 PUSH2 0x100 EXP DUP2 SLOAD DUP2 PUSH20 0xFFFFFFFFFFFFFFFFFFFFFFFFFFFFFFFFFFFFFFFF MUL NOT AND SWAP1 DUP4 PUSH20 0xFFFFFFFFFFFFFFFFFFFFFFFFFFFFFFFFFFFFFFFF AND MUL OR SWAP1 SSTORE POP POP POP PUSH2 0x213 JUMP JUMPDEST PUSH0 DUP1 REVERT JUMPDEST PUSH0 PUSH20 0xFFFFFFFFFFFFFFFFFFFFFFFFFFFFFFFFFFFFFFFF DUP3 AND SWAP1 POP SWAP2 SWAP1 POP JUMP JUMPDEST PUSH0 PUSH2 0x1A4 DUP3 PUSH2 0x17B JUMP JUMPDEST SWAP1 POP SWAP2 SWAP1 POP JUMP JUMPDEST PUSH2 0x1B4 DUP2 PUSH2 0x19A JUMP JUMPDEST DUP2 EQ PUSH2 0x1BE JUMPI PUSH0 DUP1 REVERT JUMPDEST POP JUMP JUMPDEST PUSH0 DUP2 MLOAD SWAP1 POP PUSH2 0x1CF DUP2 PUSH2 0x1AB JUMP JUMPDEST SWAP3 SWAP2 POP POP JUMP JUMPDEST PUSH0 DUP1 PUSH1 0x40 DUP4 DUP6 SUB SLT ISZERO PUSH2 0x1EB JUMPI PUSH2 0x1EA PUSH2 0x177 JUMP JUMPDEST JUMPDEST PUSH0 PUSH2 0x1F8 DUP6 DUP3 DUP7 ADD PUSH2 0x1C1 JUMP JUMPDEST SWAP3 POP POP PUSH1 0x20 PUSH2 0x209 DUP6 DUP3 DUP7 ADD PUSH2 0x1C1 JUMP JUMPDEST SWAP2 POP POP SWAP3 POP SWAP3 SWAP1 POP JUMP JUMPDEST PUSH2 0xC35 DUP1 PUSH2 0x220 PUSH0 CODECOPY PUSH0 RETURN INVALID PUSH1 0x80 PUSH1 0x40 MSTORE CALLVALUE DUP1 ISZERO PUSH2 0xF JUMPI PUSH0 DUP1 REVERT JUMPDEST POP PUSH1 0x4 CALLDATASIZE LT PUSH2 0x9C JUMPI PUSH0 CALLDATALOAD PUSH1 0xE0 SHR DUP1 PUSH4 0x8DA5CB5B GT PUSH2 0x64 JUMPI DUP1 PUSH4 0x8DA5CB5B EQ PUSH2 0x120 JUMPI DUP1 PUSH4 0x8F32D59B EQ PUSH2 0x13E JUMPI DUP1 PUSH4 0x92EEFE9B EQ PUSH2 0x15C JUMPI DUP1 PUSH4 0xC1D2D00D EQ PUSH2 0x178 JUMPI DUP1 PUSH4 0xF2FDE38B EQ PUSH2 0x194 JUMPI PUSH2 0x9C JUMP JUMPDEST DUP1 PUSH4 0x4BB60CE EQ PUSH2 0xA0 JUMPI DUP1 PUSH4 0x64679356 EQ PUSH2 0xBE JUMPI DUP1 PUSH4 0x715018A6 EQ PUSH2 0xDC JUMPI DUP1 PUSH4 0x7C0B8DE2 EQ PUSH2 0xE6 JUMPI DUP1 PUSH4 0x8CDA7BB4 EQ PUSH2 0x104 JUMPI JUMPDEST PUSH0 DUP1 REVERT JUMPDEST PUSH2 0xA8 PUSH2 0x1B0 JUMP JUMPDEST PUSH1 0x40 MLOAD PUSH2 0xB5 SWAP2 SWAP1 PUSH2 0x8C0 JUMP JUMPDEST PUSH1 0x40 MLOAD DUP1 SWAP2 SUB SWAP1 RETURN JUMPDEST PUSH2 0xC6 PUSH2 0x1D5 JUMP JUMPDEST PUSH1 0x40 MLOAD PUSH2 0xD3 SWAP2 SWAP1 PUSH2 0x8C0 JUMP JUMPDEST PUSH1 0x40 MLOAD DUP1 SWAP2 SUB SWAP1 RETURN JUMPDEST PUSH2 0xE4 PUSH2 0x1FA JUMP JUMPDEST STOP JUMPDEST PUSH2 0xEE PUSH2 0x2AD JUMP JUMPDEST PUSH1 0x40 MLOAD PUSH2 0xFB SWAP2 SWAP1 PUSH2 0x8C0 JUMP JUMPDEST PUSH1 0x40 MLOAD DUP1 SWAP2 SUB SWAP1 RETURN JUMPDEST PUSH2 0x11E PUSH1 0x4 DUP1 CALLDATASIZE SUB DUP2 ADD SWAP1 PUSH2 0x119 SWAP2 SWAP1 PUSH2 0x93A JUMP JUMPDEST PUSH2 0x2D2 JUMP JUMPDEST STOP JUMPDEST PUSH2 0x128 PUSH2 0x45E JUMP JUMPDEST PUSH1 0x40 MLOAD PUSH2 0x135 SWAP2 SWAP1 PUSH2 0x8C0 JUMP JUMPDEST PUSH1 0x40 MLOAD DUP1 SWAP2 SUB SWAP1 RETURN JUMPDEST PUSH2 0x146 PUSH2 0x485 JUMP JUMPDEST PUSH1 0x40 MLOAD PUSH2 0x153 SWAP2 SWAP1 PUSH2 0x992 JUMP JUMPDEST PUSH1 0x40 MLOAD DUP1 SWAP2 SUB SWAP1 RETURN JUMPDEST PUSH2 0x176 PUSH1 0x4 DUP1 CALLDATASIZE SUB DUP2 ADD SWAP1 PUSH2 0x171 SWAP2 SWAP1 PUSH2 0x9AB JUMP JUMPDEST PUSH2 0x4DA JUMP JUMPDEST STOP JUMPDEST PUSH2 0x192 PUSH1 0x4 DUP1 CALLDATASIZE SUB DUP2 ADD SWAP1 PUSH2 0x18D SWAP2 SWAP1 PUSH2 0x93A JUMP JUMPDEST PUSH2 0x52D JUMP JUMPDEST STOP JUMPDEST PUSH2 0x1AE PUSH1 0x4 DUP1 CALLDATASIZE SUB DUP2 ADD SWAP1 PUSH2 0x1A9 SWAP2 SWAP1 PUSH2 0x9AB JUMP JUMPDEST PUSH2 0x773 JUMP JUMPDEST STOP JUMPDEST PUSH1 0x2 PUSH0 SWAP1 SLOAD SWAP1 PUSH2 0x100 EXP SWAP1 DIV PUSH20 0xFFFFFFFFFFFFFFFFFFFFFFFFFFFFFFFFFFFFFFFF AND DUP2 JUMP JUMPDEST PUSH1 0x3 PUSH0 SWAP1 SLOAD SWAP1 PUSH2 0x100 EXP SWAP1 DIV PUSH20 0xFFFFFFFFFFFFFFFFFFFFFFFFFFFFFFFFFFFFFFFF AND DUP2 JUMP JUMPDEST PUSH2 0x202 PUSH2 0x485 JUMP JUMPDEST PUSH2 0x20A JUMPI PUSH0 DUP1 REVERT JUMPDEST PUSH0 DUP1 SLOAD SWAP1 PUSH2 0x100 EXP SWAP1 DIV PUSH20 0xFFFFFFFFFFFFFFFFFFFFFFFFFFFFFFFFFFFFFFFF AND PUSH20 0xFFFFFFFFFFFFFFFFFFFFFFFFFFFFFFFFFFFFFFFF AND PUSH32 0xF8DF31144D9C2F0F6B59D69B8B98ABD5459D07F2742C4DF920B25AAE33C64820 PUSH1 0x40 MLOAD PUSH1 0x40 MLOAD DUP1 SWAP2 SUB SWAP1 LOG2 PUSH0 DUP1 PUSH0 PUSH2 0x100 EXP DUP2 SLOAD DUP2 PUSH20 0xFFFFFFFFFFFFFFFFFFFFFFFFFFFFFFFFFFFFFFFF MUL NOT AND SWAP1 DUP4 PUSH20 0xFFFFFFFFFFFFFFFFFFFFFFFFFFFFFFFFFFFFFFFF AND MUL OR SWAP1 SSTORE POP JUMP JUMPDEST PUSH1 0x1 PUSH0 SWAP1 SLOAD SWAP1 PUSH2 0x100 EXP SWAP1 DIV PUSH20 0xFFFFFFFFFFFFFFFFFFFFFFFFFFFFFFFFFFFFFFFF AND DUP2 JUMP JUMPDEST PUSH0 DUP1 SLOAD SWAP1 PUSH2 0x100 EXP SWAP1 DIV PUSH20 0xFFFFFFFFFFFFFFFFFFFFFFFFFFFFFFFFFFFFFFFF AND PUSH20 0xFFFFFFFFFFFFFFFFFFFFFFFFFFFFFFFFFFFFFFFF AND CALLER PUSH20 0xFFFFFFFFFFFFFFFFFFFFFFFFFFFFFFFFFFFFFFFF AND EQ DUP1 PUSH2 0x377 JUMPI POP PUSH1 0x3 PUSH0 SWAP1 SLOAD SWAP1 PUSH2 0x100 EXP SWAP1 DIV PUSH20 0xFFFFFFFFFFFFFFFFFFFFFFFFFFFFFFFFFFFFFFFF AND PUSH20 0xFFFFFFFFFFFFFFFFFFFFFFFFFFFFFFFFFFFFFFFF AND CALLER PUSH20 0xFFFFFFFFFFFFFFFFFFFFFFFFFFFFFFFFFFFFFFFF AND EQ JUMPDEST PUSH2 0x37F JUMPI PUSH0 DUP1 REVERT JUMPDEST PUSH1 0x4 PUSH0 SWAP1 SLOAD SWAP1 PUSH2 0x100 EXP SWAP1 DIV PUSH20 0xFFFFFFFFFFFFFFFFFFFFFFFFFFFFFFFFFFFFFFFF AND PUSH20 0xFFFFFFFFFFFFFFFFFFFFFFFFFFFFFFFFFFFFFFFF AND PUSH4 0xA9059CBB DUP3 DUP5 PUSH1 0x40 MLOAD DUP4 PUSH4 0xFFFFFFFF AND PUSH1 0xE0 SHL DUP2 MSTORE PUSH1 0x4 ADD PUSH2 0x3DB SWAP3 SWAP2 SWAP1 PUSH2 0x9E5 JUMP JUMPDEST PUSH1 0x20 PUSH1 0x40 MLOAD DUP1 DUP4 SUB DUP2 PUSH0 DUP8 GAS CALL ISZERO DUP1 ISZERO PUSH2 0x3F7 JUMPI RETURNDATASIZE PUSH0 DUP1 RETURNDATACOPY RETURNDATASIZE PUSH0 REVERT JUMPDEST POP POP POP POP PUSH1 0x40 MLOAD RETURNDATASIZE PUSH1 0x1F NOT PUSH1 0x1F DUP3 ADD AND DUP3 ADD DUP1 PUSH1 0x40 MSTORE POP DUP2 ADD SWAP1 PUSH2 0x41B SWAP2 SWAP1 PUSH2 0xA36 JUMP JUMPDEST PUSH2 0x45A JUMPI PUSH1 0x40 MLOAD PUSH32 0x8C379A000000000000000000000000000000000000000000000000000000000 DUP2 MSTORE PUSH1 0x4 ADD PUSH2 0x451 SWAP1 PUSH2 0xABB JUMP JUMPDEST PUSH1 0x40 MLOAD DUP1 SWAP2 SUB SWAP1 REVERT JUMPDEST POP POP JUMP JUMPDEST PUSH0 DUP1 PUSH0 SWAP1 SLOAD SWAP1 PUSH2 0x100 EXP SWAP1 DIV PUSH20 0xFFFFFFFFFFFFFFFFFFFFFFFFFFFFFFFFFFFFFFFF AND SWAP1 POP SWAP1 JUMP JUMPDEST PUSH0 DUP1 PUSH0 SWAP1 SLOAD SWAP1 PUSH2 0x100 EXP SWAP1 DIV PUSH20 0xFFFFFFFFFFFFFFFFFFFFFFFFFFFFFFFFFFFFFFFF AND PUSH20 0xFFFFFFFFFFFFFFFFFFFFFFFFFFFFFFFFFFFFFFFF AND CALLER PUSH20 0xFFFFFFFFFFFFFFFFFFFFFFFFFFFFFFFFFFFFFFFF AND EQ SWAP1 POP SWAP1 JUMP JUMPDEST PUSH2 0x4E2 PUSH2 0x485 JUMP JUMPDEST PUSH2 0x4EA JUMPI PUSH0 DUP1 REVERT JUMPDEST DUP1 PUSH1 0x3 PUSH0 PUSH2 0x100 EXP DUP2 SLOAD DUP2 PUSH20 0xFFFFFFFFFFFFFFFFFFFFFFFFFFFFFFFFFFFFFFFF MUL NOT AND SWAP1 DUP4 PUSH20 0xFFFFFFFFFFFFFFFFFFFFFFFFFFFFFFFFFFFFFFFF AND MUL OR SWAP1 SSTORE POP POP JUMP JUMPDEST PUSH0 DUP1 SLOAD SWAP1 PUSH2 0x100 EXP SWAP1 DIV PUSH20 0xFFFFFFFFFFFFFFFFFFFFFFFFFFFFFFFFFFFFFFFF AND PUSH20 0xFFFFFFFFFFFFFFFFFFFFFFFFFFFFFFFFFFFFFFFF AND CALLER PUSH20 0xFFFFFFFFFFFFFFFFFFFFFFFFFFFFFFFFFFFFFFFF AND EQ DUP1 PUSH2 0x5D2 JUMPI POP PUSH1 0x3 PUSH0 SWAP1 SLOAD SWAP1 PUSH2 0x100 EXP SWAP1 DIV PUSH20 0xFFFFFFFFFFFFFFFFFFFFFFFFFFFFFFFFFFFFFFFF AND PUSH20 0xFFFFFFFFFFFFFFFFFFFFFFFFFFFFFFFFFFFFFFFF AND CALLER PUSH20 0xFFFFFFFFFFFFFFFFFFFFFFFFFFFFFFFFFFFFFFFF AND EQ JUMPDEST PUSH2 0x5DA JUMPI PUSH0 DUP1 REVERT JUMPDEST PUSH0 DUP1 PUSH0 PUSH8 0xFFFFFFFFFFFFFFFF DUP2 GT ISZERO PUSH2 0x5F6 JUMPI PUSH2 0x5F5 PUSH2 0xAD9 JUMP JUMPDEST JUMPDEST PUSH1 0x40 MLOAD SWAP1 DUP1 DUP3 MSTORE DUP1 PUSH1 0x1F ADD PUSH1 0x1F NOT AND PUSH1 0x20 ADD DUP3 ADD PUSH1 0x40 MSTORE DUP1 ISZERO PUSH2 0x628 JUMPI DUP2 PUSH1 0x20 ADD PUSH1 0x1 DUP3 MUL DUP1 CALLDATASIZE DUP4 CALLDATACOPY DUP1 DUP3 ADD SWAP2 POP POP SWAP1 POP JUMPDEST POP SWAP1 POP PUSH0 JUMPDEST DUP5 DUP2 LT ISZERO PUSH2 0x76C JUMPI PUSH1 0x5 PUSH0 SWAP1 SLOAD SWAP1 PUSH2 0x100 EXP SWAP1 DIV PUSH20 0xFFFFFFFFFFFFFFFFFFFFFFFFFFFFFFFFFFFFFFFF AND PUSH20 0xFFFFFFFFFFFFFFFFFFFFFFFFFFFFFFFFFFFFFFFF AND PUSH4 0x2F745C59 ADDRESS DUP4 PUSH1 0x40 MLOAD DUP4 PUSH4 0xFFFFFFFF AND PUSH1 0xE0 SHL DUP2 MSTORE PUSH1 0x4 ADD PUSH2 0x691 SWAP3 SWAP2 SWAP1 PUSH2 0x9E5 JUMP JUMPDEST PUSH1 0x20 PUSH1 0x40 MLOAD DUP1 DUP4 SUB DUP2 DUP7 GAS STATICCALL ISZERO DUP1 ISZERO PUSH2 0x6AC JUMPI RETURNDATASIZE PUSH0 DUP1 RETURNDATACOPY RETURNDATASIZE PUSH0 REVERT JUMPDEST POP POP POP POP PUSH1 0x40 MLOAD RETURNDATASIZE PUSH1 0x1F NOT PUSH1 0x1F DUP3 ADD AND DUP3 ADD DUP1 PUSH1 0x40 MSTORE POP DUP2 ADD SWAP1 PUSH2 0x6D0 SWAP2 SWAP1 PUSH2 0xB1A JUMP JUMPDEST SWAP3 POP PUSH1 0x5 PUSH0 SWAP1 SLOAD SWAP1 PUSH2 0x100 EXP SWAP1 DIV PUSH20 0xFFFFFFFFFFFFFFFFFFFFFFFFFFFFFFFFFFFFFFFF AND PUSH20 0xFFFFFFFFFFFFFFFFFFFFFFFFFFFFFFFFFFFFFFFF AND PUSH4 0xB88D4FDE ADDRESS DUP7 DUP7 DUP7 PUSH1 0x40 MLOAD DUP6 PUSH4 0xFFFFFFFF AND PUSH1 0xE0 SHL DUP2 MSTORE PUSH1 0x4 ADD PUSH2 0x732 SWAP5 SWAP4 SWAP3 SWAP2 SWAP1 PUSH2 0xBB5 JUMP JUMPDEST PUSH0 PUSH1 0x40 MLOAD DUP1 DUP4 SUB DUP2 PUSH0 DUP8 DUP1 EXTCODESIZE ISZERO DUP1 ISZERO PUSH2 0x749 JUMPI PUSH0 DUP1 REVERT JUMPDEST POP GAS CALL ISZERO DUP1 ISZERO PUSH2 0x75B JUMPI RETURNDATASIZE PUSH0 DUP1 RETURNDATACOPY RETURNDATASIZE PUSH0 REVERT JUMPDEST POP POP POP POP DUP1 DUP1 PUSH1 0x1 ADD SWAP2 POP POP PUSH2 0x62D JUMP JUMPDEST POP POP POP POP POP JUMP JUMPDEST PUSH2 0x77B PUSH2 0x485 JUMP JUMPDEST PUSH2 0x783 JUMPI PUSH0 DUP1 REVERT JUMPDEST PUSH2 0x78C DUP2 PUSH2 0x78F JUMP JUMPDEST POP JUMP JUMPDEST PUSH0 PUSH20 0xFFFFFFFFFFFFFFFFFFFFFFFFFFFFFFFFFFFFFFFF AND DUP2 PUSH20 0xFFFFFFFFFFFFFFFFFFFFFFFFFFFFFFFFFFFFFFFF AND SUB PUSH2 0x7C6 JUMPI PUSH0 DUP1 REVERT JUMPDEST DUP1 PUSH20 0xFFFFFFFFFFFFFFFFFFFFFFFFFFFFFFFFFFFFFFFF AND PUSH0 DUP1 SLOAD SWAP1 PUSH2 0x100 EXP SWAP1 DIV PUSH20 0xFFFFFFFFFFFFFFFFFFFFFFFFFFFFFFFFFFFFFFFF AND PUSH20 0xFFFFFFFFFFFFFFFFFFFFFFFFFFFFFFFFFFFFFFFF AND PUSH32 0x8BE0079C531659141344CD1FD0A4F28419497F9722A3DAAFE3B4186F6B6457E0 PUSH1 0x40 MLOAD PUSH1 0x40 MLOAD DUP1 SWAP2 SUB SWAP1 LOG3 DUP1 PUSH0 DUP1 PUSH2 0x100 EXP DUP2 SLOAD DUP2 PUSH20 0xFFFFFFFFFFFFFFFFFFFFFFFFFFFFFFFFFFFFFFFF MUL NOT AND SWAP1 DUP4 PUSH20 0xFFFFFFFFFFFFFFFFFFFFFFFFFFFFFFFFFFFFFFFF AND MUL OR SWAP1 SSTORE POP POP JUMP JUMPDEST PUSH0 PUSH20 0xFFFFFFFFFFFFFFFFFFFFFFFFFFFFFFFFFFFFFFFF DUP3 AND SWAP1 POP SWAP2 SWAP1 POP JUMP JUMPDEST PUSH0 PUSH2 0x8AA DUP3 PUSH2 0x881 JUMP JUMPDEST SWAP1 POP SWAP2 SWAP1 POP JUMP JUMPDEST PUSH2 0x8BA DUP2 PUSH2 0x8A0 JUMP JUMPDEST DUP3 MSTORE POP POP JUMP JUMPDEST PUSH0 PUSH1 0x20 DUP3 ADD SWAP1 POP PUSH2 0x8D3 PUSH0 DUP4 ADD DUP5 PUSH2 0x8B1 JUMP JUMPDEST SWAP3 SWAP2 POP POP JUMP JUMPDEST PUSH0 DUP1 REVERT JUMPDEST PUSH0 DUP2 SWAP1 POP SWAP2 SWAP1 POP JUMP JUMPDEST PUSH2 0x8EF DUP2 PUSH2 0x8DD JUMP JUMPDEST DUP2 EQ PUSH2 0x8F9 JUMPI PUSH0 DUP1 REVERT JUMPDEST POP JUMP JUMPDEST PUSH0 DUP2 CALLDATALOAD SWAP1 POP PUSH2 0x90A DUP2 PUSH2 0x8E6 JUMP JUMPDEST SWAP3 SWAP2 POP POP JUMP JUMPDEST PUSH2 0x919 DUP2 PUSH2 0x8A0 JUMP JUMPDEST DUP2 EQ PUSH2 0x923 JUMPI PUSH0 DUP1 REVERT JUMPDEST POP JUMP JUMPDEST PUSH0 DUP2 CALLDATALOAD SWAP1 POP PUSH2 0x934 DUP2 PUSH2 0x910 JUMP JUMPDEST SWAP3 SWAP2 POP POP JUMP JUMPDEST PUSH0 DUP1 PUSH1 0x40 DUP4 DUP6 SUB SLT ISZERO PUSH2 0x950 JUMPI PUSH2 0x94F PUSH2 0x8D9 JUMP JUMPDEST JUMPDEST PUSH0 PUSH2 0x95D DUP6 DUP3 DUP7 ADD PUSH2 0x8FC JUMP JUMPDEST SWAP3 POP POP PUSH1 0x20 PUSH2 0x96E DUP6 DUP3 DUP7 ADD PUSH2 0x926 JUMP JUMPDEST SWAP2 POP POP SWAP3 POP SWAP3 SWAP1 POP JUMP JUMPDEST PUSH0 DUP2 ISZERO ISZERO SWAP1 POP SWAP2 SWAP1 POP JUMP JUMPDEST PUSH2 0x98C DUP2 PUSH2 0x978 JUMP JUMPDEST DUP3 MSTORE POP POP JUMP JUMPDEST PUSH0 PUSH1 0x20 DUP3 ADD SWAP1 POP PUSH2 0x9A5 PUSH0 DUP4 ADD DUP5 PUSH2 0x983 JUMP JUMPDEST SWAP3 SWAP2 POP POP JUMP JUMPDEST PUSH0 PUSH1 0x20 DUP3 DUP5 SUB SLT ISZERO PUSH2 0x9C0 JUMPI PUSH2 0x9BF PUSH2 0x8D9 JUMP JUMPDEST JUMPDEST PUSH0 PUSH2 0x9CD DUP5 DUP3 DUP6 ADD PUSH2 0x926 JUMP JUMPDEST SWAP2 POP POP SWAP3 SWAP2 POP POP JUMP JUMPDEST PUSH2 0x9DF DUP2 PUSH2 0x8DD JUMP JUMPDEST DUP3 MSTORE POP POP JUMP JUMPDEST PUSH0 PUSH1 0x40 DUP3 ADD SWAP1 POP PUSH2 0x9F8 PUSH0 DUP4 ADD DUP6 PUSH2 0x8B1 JUMP JUMPDEST PUSH2 0xA05 PUSH1 0x20 DUP4 ADD DUP5 PUSH2 0x9D6 JUMP JUMPDEST SWAP4 SWAP3 POP POP POP JUMP JUMPDEST PUSH2 0xA15 DUP2 PUSH2 0x978 JUMP JUMPDEST DUP2 EQ PUSH2 0xA1F JUMPI PUSH0 DUP1 REVERT JUMPDEST POP JUMP JUMPDEST PUSH0 DUP2 MLOAD SWAP1 POP PUSH2 0xA30 DUP2 PUSH2 0xA0C JUMP JUMPDEST SWAP3 SWAP2 POP POP JUMP JUMPDEST PUSH0 PUSH1 0x20 DUP3 DUP5 SUB SLT ISZERO PUSH2 0xA4B JUMPI PUSH2 0xA4A PUSH2 0x8D9 JUMP JUMPDEST JUMPDEST PUSH0 PUSH2 0xA58 DUP5 DUP3 DUP6 ADD PUSH2 0xA22 JUMP JUMPDEST SWAP2 POP POP SWAP3 SWAP2 POP POP JUMP JUMPDEST PUSH0 DUP3 DUP3 MSTORE PUSH1 0x20 DUP3 ADD SWAP1 POP SWAP3 SWAP2 POP POP JUMP JUMPDEST PUSH32 0x5769746864726177616C206661696C6564000000000000000000000000000000 PUSH0 DUP3 ADD MSTORE POP JUMP JUMPDEST PUSH0 PUSH2 0xAA5 PUSH1 0x11 DUP4 PUSH2 0xA61 JUMP JUMPDEST SWAP2 POP PUSH2 0xAB0 DUP3 PUSH2 0xA71 JUMP JUMPDEST PUSH1 0x20 DUP3 ADD SWAP1 POP SWAP2 SWAP1 POP JUMP JUMPDEST PUSH0 PUSH1 0x20 DUP3 ADD SWAP1 POP DUP2 DUP2 SUB PUSH0 DUP4 ADD MSTORE PUSH2 0xAD2 DUP2 PUSH2 0xA99 JUMP JUMPDEST SWAP1 POP SWAP2 SWAP1 POP JUMP JUMPDEST PUSH32 0x4E487B7100000000000000000000000000000000000000000000000000000000 PUSH0 MSTORE PUSH1 0x41 PUSH1 0x4 MSTORE PUSH1 0x24 PUSH0 REVERT JUMPDEST PUSH0 DUP2 MLOAD SWAP1 POP PUSH2 0xB14 DUP2 PUSH2 0x8E6 JUMP JUMPDEST SWAP3 SWAP2 POP POP JUMP JUMPDEST PUSH0 PUSH1 0x20 DUP3 DUP5 SUB SLT ISZERO PUSH2 0xB2F JUMPI PUSH2 0xB2E PUSH2 0x8D9 JUMP JUMPDEST JUMPDEST PUSH0 PUSH2 0xB3C DUP5 DUP3 DUP6 ADD PUSH2 0xB06 JUMP JUMPDEST SWAP2 POP POP SWAP3 SWAP2 POP POP JUMP JUMPDEST PUSH0 DUP2 MLOAD SWAP1 POP SWAP2 SWAP1 POP JUMP JUMPDEST PUSH0 DUP3 DUP3 MSTORE PUSH1 0x20 DUP3 ADD SWAP1 POP SWAP3 SWAP2 POP POP JUMP JUMPDEST DUP3 DUP2 DUP4 MCOPY PUSH0 DUP4 DUP4 ADD MSTORE POP POP POP JUMP JUMPDEST PUSH0 PUSH1 0x1F NOT PUSH1 0x1F DUP4 ADD AND SWAP1 POP SWAP2 SWAP1 POP JUMP JUMPDEST PUSH0 PUSH2 0xB87 DUP3 PUSH2 0xB45 JUMP JUMPDEST PUSH2 0xB91 DUP2 DUP6 PUSH2 0xB4F JUMP JUMPDEST SWAP4 POP PUSH2 0xBA1 DUP2 DUP6 PUSH1 0x20 DUP7 ADD PUSH2 0xB5F JUMP JUMPDEST PUSH2 0xBAA DUP2 PUSH2 0xB6D JUMP JUMPDEST DUP5 ADD SWAP2 POP POP SWAP3 SWAP2 POP POP JUMP JUMPDEST PUSH0 PUSH1 0x80 DUP3 ADD SWAP1 POP PUSH2 0xBC8 PUSH0 DUP4 ADD DUP8 PUSH2 0x8B1 JUMP JUMPDEST PUSH2 0xBD5 PUSH1 0x20 DUP4 ADD DUP7 PUSH2 0x8B1 JUMP JUMPDEST PUSH2 0xBE2 PUSH1 0x40 DUP4 ADD DUP6 PUSH2 0x9D6 JUMP JUMPDEST DUP2 DUP2 SUB PUSH1 0x60 DUP4 ADD MSTORE PUSH2 0xBF4 DUP2 DUP5 PUSH2 0xB7D JUMP JUMPDEST SWAP1 POP SWAP6 SWAP5 POP POP POP POP POP JUMP INVALID LOG2 PUSH5 0x6970667358 0x22 SLT KECCAK256 BALANCE STATICCALL 0xEC 0x28 0xB6 0xAB BLOBBASEFEE TLOAD 0xD PUSH6 0xCE70C6515BE6 ADD DUP13 RETURNDATASIZE SELFDESTRUCT GAS PUSH29 0x2BA11A5805D347E3758664736F6C634300081900330000000000000000 "
				},
				"gasEstimates": {
					"creation": {
						"codeDepositCost": "625000",
						"executionCost": "infinite",
						"totalCost": "infinite"
					},
					"external": {
						"Controller()": "2531",
						"FFT()": "2509",
						"NFT()": "2575",
						"isOwner()": "2512",
						"owner()": "2515",
						"renounceOwnership()": "29949",
						"setController(address)": "26962",
						"transferOwnership(address)": "30746",
						"withdrawFFT(uint256,address)": "infinite",
						"withdrawNFT(uint256,address)": "infinite"
					}
				},
				"methodIdentifiers": {
					"Controller()": "64679356",
					"FFT()": "04bb60ce",
					"NFT()": "7c0b8de2",
					"isOwner()": "8f32d59b",
					"owner()": "8da5cb5b",
					"renounceOwnership()": "715018a6",
					"setController(address)": "92eefe9b",
					"transferOwnership(address)": "f2fde38b",
					"withdrawFFT(uint256,address)": "8cda7bb4",
					"withdrawNFT(uint256,address)": "c1d2d00d"
				}
			},
			"storageLayout": {
				"storage": [
					{
						"astId": 203,
						"contract": "contracts/HotswapLiquidity.sol:HotswapLiquidity",
						"label": "_owner",
						"offset": 0,
						"slot": "0",
						"type": "t_address"
					},
					{
						"astId": 78,
						"contract": "contracts/HotswapLiquidity.sol:HotswapLiquidity",
						"label": "NFT",
						"offset": 0,
						"slot": "1",
						"type": "t_address"
					},
					{
						"astId": 80,
						"contract": "contracts/HotswapLiquidity.sol:HotswapLiquidity",
						"label": "FFT",
						"offset": 0,
						"slot": "2",
						"type": "t_address"
					},
					{
						"astId": 82,
						"contract": "contracts/HotswapLiquidity.sol:HotswapLiquidity",
						"label": "Controller",
						"offset": 0,
						"slot": "3",
						"type": "t_address"
					},
					{
						"astId": 85,
						"contract": "contracts/HotswapLiquidity.sol:HotswapLiquidity",
						"label": "_fft",
						"offset": 0,
						"slot": "4",
						"type": "t_contract(ERC20)372"
					},
					{
						"astId": 88,
						"contract": "contracts/HotswapLiquidity.sol:HotswapLiquidity",
						"label": "_nft",
						"offset": 0,
						"slot": "5",
						"type": "t_contract(ERC721Enumerable)452"
					}
				],
				"types": {
					"t_address": {
						"encoding": "inplace",
						"label": "address",
						"numberOfBytes": "20"
					},
					"t_contract(ERC20)372": {
						"encoding": "inplace",
						"label": "contract ERC20",
						"numberOfBytes": "20"
					},
					"t_contract(ERC721Enumerable)452": {
						"encoding": "inplace",
						"label": "contract ERC721Enumerable",
						"numberOfBytes": "20"
					}
				}
			},
			"userdoc": {
				"kind": "user",
				"methods": {},
				"version": 1
			}
		}
	}
}