{
	"contracts/HotswapControllerBase.sol": {
		"HotswapControllerBase": {
			"abi": [
				{
					"inputs": [
						{
							"internalType": "address",
							"name": "nft",
							"type": "address"
						},
						{
							"internalType": "address",
							"name": "fft",
							"type": "address"
						}
					],
					"stateMutability": "nonpayable",
					"type": "constructor"
				},
				{
					"anonymous": false,
					"inputs": [
						{
							"indexed": true,
							"internalType": "address",
							"name": "previousOwner",
							"type": "address"
						}
					],
					"name": "OwnershipRenounced",
					"type": "event"
				},
				{
					"anonymous": false,
					"inputs": [
						{
							"indexed": true,
							"internalType": "address",
							"name": "previousOwner",
							"type": "address"
						},
						{
							"indexed": true,
							"internalType": "address",
							"name": "newOwner",
							"type": "address"
						}
					],
					"name": "OwnershipTransferred",
					"type": "event"
				},
				{
					"inputs": [],
					"name": "FFT",
					"outputs": [
						{
							"internalType": "address",
							"name": "",
							"type": "address"
						}
					],
					"stateMutability": "view",
					"type": "function"
				},
				{
					"inputs": [],
					"name": "NFT",
					"outputs": [
						{
							"internalType": "address",
							"name": "",
							"type": "address"
						}
					],
					"stateMutability": "view",
					"type": "function"
				},
				{
					"inputs": [],
					"name": "_collector",
					"outputs": [
						{
							"internalType": "address",
							"name": "",
							"type": "address"
						}
					],
					"stateMutability": "view",
					"type": "function"
				},
				{
					"inputs": [],
					"name": "_fees",
					"outputs": [
						{
							"internalType": "uint256",
							"name": "",
							"type": "uint256"
						}
					],
					"stateMutability": "view",
					"type": "function"
				},
				{
					"inputs": [
						{
							"internalType": "uint256",
							"name": "",
							"type": "uint256"
						}
					],
					"name": "_liquidities",
					"outputs": [
						{
							"internalType": "address",
							"name": "depositor",
							"type": "address"
						},
						{
							"internalType": "uint256",
							"name": "depositedAt",
							"type": "uint256"
						},
						{
							"internalType": "uint256",
							"name": "price",
							"type": "uint256"
						},
						{
							"internalType": "uint256",
							"name": "nftAlloc",
							"type": "uint256"
						},
						{
							"internalType": "uint256",
							"name": "fftAlloc",
							"type": "uint256"
						},
						{
							"internalType": "bool",
							"name": "claimed",
							"type": "bool"
						},
						{
							"internalType": "uint256",
							"name": "userIndex",
							"type": "uint256"
						}
					],
					"stateMutability": "view",
					"type": "function"
				},
				{
					"inputs": [],
					"name": "_liquidity",
					"outputs": [
						{
							"internalType": "address",
							"name": "",
							"type": "address"
						}
					],
					"stateMutability": "view",
					"type": "function"
				},
				{
					"inputs": [],
					"name": "_price",
					"outputs": [
						{
							"internalType": "uint256",
							"name": "",
							"type": "uint256"
						}
					],
					"stateMutability": "view",
					"type": "function"
				},
				{
					"inputs": [],
					"name": "isOwner",
					"outputs": [
						{
							"internalType": "bool",
							"name": "",
							"type": "bool"
						}
					],
					"stateMutability": "view",
					"type": "function"
				},
				{
					"inputs": [],
					"name": "owner",
					"outputs": [
						{
							"internalType": "address",
							"name": "",
							"type": "address"
						}
					],
					"stateMutability": "view",
					"type": "function"
				},
				{
					"inputs": [],
					"name": "renounceOwnership",
					"outputs": [],
					"stateMutability": "nonpayable",
					"type": "function"
				},
				{
					"inputs": [
						{
							"internalType": "address",
							"name": "addr",
							"type": "address"
						}
					],
					"name": "setCollector",
					"outputs": [],
					"stateMutability": "nonpayable",
					"type": "function"
				},
				{
					"inputs": [
						{
							"internalType": "address",
							"name": "addr",
							"type": "address"
						}
					],
					"name": "setLiquidity",
					"outputs": [],
					"stateMutability": "nonpayable",
					"type": "function"
				},
				{
					"inputs": [
						{
							"internalType": "address",
							"name": "newOwner",
							"type": "address"
						}
					],
					"name": "transferOwnership",
					"outputs": [],
					"stateMutability": "nonpayable",
					"type": "function"
				}
			],
			"devdoc": {
				"kind": "dev",
				"methods": {},
				"version": 1
			},
			"evm": {
				"assembly": "    /* \"contracts/HotswapControllerBase.sol\":558:2123  contract HotswapControllerBase is Ownable, IHotswapController {... */\n  mstore(0x40, 0x80)\n    /* \"contracts/HotswapControllerBase.sol\":1001:1190  constructor(address nft, address fft) {... */\n  callvalue\n  dup1\n  iszero\n  tag_1\n  jumpi\n  0x00\n  dup1\n  revert\ntag_1:\n  pop\n  mload(0x40)\n  sub(codesize, bytecodeSize)\n  dup1\n  bytecodeSize\n  dup4\n  codecopy\n  dup2\n  dup2\n  add\n  0x40\n  mstore\n  dup2\n  add\n  swap1\n  tag_2\n  swap2\n  swap1\n  tag_3\n  jump\t// in\ntag_2:\n    /* \"contracts/Ownable.sol\":431:441  msg.sender */\n  caller\n    /* \"contracts/Ownable.sol\":422:428  _owner */\n  0x00\n  dup1\n    /* \"contracts/Ownable.sol\":422:441  _owner = msg.sender */\n  0x0100\n  exp\n  dup2\n  sload\n  dup2\n  0xffffffffffffffffffffffffffffffffffffffff\n  mul\n  not\n  and\n  swap1\n  dup4\n  0xffffffffffffffffffffffffffffffffffffffff\n  and\n  mul\n  or\n  swap1\n  sstore\n  pop\n    /* \"contracts/HotswapControllerBase.sol\":1063:1073  msg.sender */\n  caller\n    /* \"contracts/HotswapControllerBase.sol\":1050:1060  _collector */\n  0x03\n  0x00\n    /* \"contracts/HotswapControllerBase.sol\":1050:1073  _collector = msg.sender */\n  0x0100\n  exp\n  dup2\n  sload\n  dup2\n  0xffffffffffffffffffffffffffffffffffffffff\n  mul\n  not\n  and\n  swap1\n  dup4\n  0xffffffffffffffffffffffffffffffffffffffff\n  and\n  mul\n  or\n  swap1\n  sstore\n  pop\n    /* \"contracts/HotswapControllerBase.sol\":1090:1093  nft */\n  dup2\n    /* \"contracts/HotswapControllerBase.sol\":1084:1087  NFT */\n  0x01\n  0x00\n    /* \"contracts/HotswapControllerBase.sol\":1084:1093  NFT = nft */\n  0x0100\n  exp\n  dup2\n  sload\n  dup2\n  0xffffffffffffffffffffffffffffffffffffffff\n  mul\n  not\n  and\n  swap1\n  dup4\n  0xffffffffffffffffffffffffffffffffffffffff\n  and\n  mul\n  or\n  swap1\n  sstore\n  pop\n    /* \"contracts/HotswapControllerBase.sol\":1110:1113  fft */\n  dup1\n    /* \"contracts/HotswapControllerBase.sol\":1104:1107  FFT */\n  0x02\n  0x00\n    /* \"contracts/HotswapControllerBase.sol\":1104:1113  FFT = fft */\n  0x0100\n  exp\n  dup2\n  sload\n  dup2\n  0xffffffffffffffffffffffffffffffffffffffff\n  mul\n  not\n  and\n  swap1\n  dup4\n  0xffffffffffffffffffffffffffffffffffffffff\n  and\n  mul\n  or\n  swap1\n  sstore\n  pop\n    /* \"contracts/HotswapControllerBase.sol\":1139:1142  fft */\n  dup1\n    /* \"contracts/HotswapControllerBase.sol\":1126:1130  _fft */\n  0x06\n  0x00\n    /* \"contracts/HotswapControllerBase.sol\":1126:1143  _fft = ERC20(fft) */\n  0x0100\n  exp\n  dup2\n  sload\n  dup2\n  0xffffffffffffffffffffffffffffffffffffffff\n  mul\n  not\n  and\n  swap1\n  dup4\n  0xffffffffffffffffffffffffffffffffffffffff\n  and\n  mul\n  or\n  swap1\n  sstore\n  pop\n    /* \"contracts/HotswapControllerBase.sol\":1178:1181  nft */\n  dup2\n    /* \"contracts/HotswapControllerBase.sol\":1154:1158  _nft */\n  0x07\n  0x00\n    /* \"contracts/HotswapControllerBase.sol\":1154:1182  _nft = ERC721Enumerable(nft) */\n  0x0100\n  exp\n  dup2\n  sload\n  dup2\n  0xffffffffffffffffffffffffffffffffffffffff\n  mul\n  not\n  and\n  swap1\n  dup4\n  0xffffffffffffffffffffffffffffffffffffffff\n  and\n  mul\n  or\n  swap1\n  sstore\n  pop\n    /* \"contracts/HotswapControllerBase.sol\":1001:1190  constructor(address nft, address fft) {... */\n  pop\n  pop\n    /* \"contracts/HotswapControllerBase.sol\":558:2123  contract HotswapControllerBase is Ownable, IHotswapController {... */\n  jump(tag_8)\n    /* \"#utility.yul\":88:205   */\ntag_10:\n    /* \"#utility.yul\":197:198   */\n  0x00\n    /* \"#utility.yul\":194:195   */\n  dup1\n    /* \"#utility.yul\":187:199   */\n  revert\n    /* \"#utility.yul\":334:460   */\ntag_12:\n    /* \"#utility.yul\":371:378   */\n  0x00\n    /* \"#utility.yul\":411:453   */\n  0xffffffffffffffffffffffffffffffffffffffff\n    /* \"#utility.yul\":404:409   */\n  dup3\n    /* \"#utility.yul\":400:454   */\n  and\n    /* \"#utility.yul\":389:454   */\n  swap1\n  pop\n    /* \"#utility.yul\":334:460   */\n  swap2\n  swap1\n  pop\n  jump\t// out\n    /* \"#utility.yul\":466:562   */\ntag_13:\n    /* \"#utility.yul\":503:510   */\n  0x00\n    /* \"#utility.yul\":532:556   */\n  tag_22\n    /* \"#utility.yul\":550:555   */\n  dup3\n    /* \"#utility.yul\":532:556   */\n  tag_12\n  jump\t// in\ntag_22:\n    /* \"#utility.yul\":521:556   */\n  swap1\n  pop\n    /* \"#utility.yul\":466:562   */\n  swap2\n  swap1\n  pop\n  jump\t// out\n    /* \"#utility.yul\":568:690   */\ntag_14:\n    /* \"#utility.yul\":641:665   */\n  tag_24\n    /* \"#utility.yul\":659:664   */\n  dup2\n    /* \"#utility.yul\":641:665   */\n  tag_13\n  jump\t// in\ntag_24:\n    /* \"#utility.yul\":634:639   */\n  dup2\n    /* \"#utility.yul\":631:666   */\n  eq\n    /* \"#utility.yul\":621:684   */\n  tag_25\n  jumpi\n    /* \"#utility.yul\":680:681   */\n  0x00\n    /* \"#utility.yul\":677:678   */\n  dup1\n    /* \"#utility.yul\":670:682   */\n  revert\n    /* \"#utility.yul\":621:684   */\ntag_25:\n    /* \"#utility.yul\":568:690   */\n  pop\n  jump\t// out\n    /* \"#utility.yul\":696:839   */\ntag_15:\n    /* \"#utility.yul\":753:758   */\n  0x00\n    /* \"#utility.yul\":784:790   */\n  dup2\n    /* \"#utility.yul\":778:791   */\n  mload\n    /* \"#utility.yul\":769:791   */\n  swap1\n  pop\n    /* \"#utility.yul\":800:833   */\n  tag_27\n    /* \"#utility.yul\":827:832   */\n  dup2\n    /* \"#utility.yul\":800:833   */\n  tag_14\n  jump\t// in\ntag_27:\n    /* \"#utility.yul\":696:839   */\n  swap3\n  swap2\n  pop\n  pop\n  jump\t// out\n    /* \"#utility.yul\":845:1352   */\ntag_3:\n    /* \"#utility.yul\":924:930   */\n  0x00\n    /* \"#utility.yul\":932:938   */\n  dup1\n    /* \"#utility.yul\":981:983   */\n  0x40\n    /* \"#utility.yul\":969:978   */\n  dup4\n    /* \"#utility.yul\":960:967   */\n  dup6\n    /* \"#utility.yul\":956:979   */\n  sub\n    /* \"#utility.yul\":952:984   */\n  slt\n    /* \"#utility.yul\":949:1068   */\n  iszero\n  tag_29\n  jumpi\n    /* \"#utility.yul\":987:1066   */\n  tag_30\n  tag_10\n  jump\t// in\ntag_30:\n    /* \"#utility.yul\":949:1068   */\ntag_29:\n    /* \"#utility.yul\":1107:1108   */\n  0x00\n    /* \"#utility.yul\":1132:1196   */\n  tag_31\n    /* \"#utility.yul\":1188:1195   */\n  dup6\n    /* \"#utility.yul\":1179:1185   */\n  dup3\n    /* \"#utility.yul\":1168:1177   */\n  dup7\n    /* \"#utility.yul\":1164:1186   */\n  add\n    /* \"#utility.yul\":1132:1196   */\n  tag_15\n  jump\t// in\ntag_31:\n    /* \"#utility.yul\":1122:1196   */\n  swap3\n  pop\n    /* \"#utility.yul\":1078:1206   */\n  pop\n    /* \"#utility.yul\":1245:1247   */\n  0x20\n    /* \"#utility.yul\":1271:1335   */\n  tag_32\n    /* \"#utility.yul\":1327:1334   */\n  dup6\n    /* \"#utility.yul\":1318:1324   */\n  dup3\n    /* \"#utility.yul\":1307:1316   */\n  dup7\n    /* \"#utility.yul\":1303:1325   */\n  add\n    /* \"#utility.yul\":1271:1335   */\n  tag_15\n  jump\t// in\ntag_32:\n    /* \"#utility.yul\":1261:1335   */\n  swap2\n  pop\n    /* \"#utility.yul\":1216:1345   */\n  pop\n    /* \"#utility.yul\":845:1352   */\n  swap3\n  pop\n  swap3\n  swap1\n  pop\n  jump\t// out\n    /* \"contracts/HotswapControllerBase.sol\":558:2123  contract HotswapControllerBase is Ownable, IHotswapController {... */\ntag_8:\n  dataSize(sub_0)\n  dup1\n  dataOffset(sub_0)\n  0x00\n  codecopy\n  0x00\n  return\nstop\n\nsub_0: assembly {\n        /* \"contracts/HotswapControllerBase.sol\":558:2123  contract HotswapControllerBase is Ownable, IHotswapController {... */\n      mstore(0x40, 0x80)\n      callvalue\n      dup1\n      iszero\n      tag_1\n      jumpi\n      0x00\n      dup1\n      revert\n    tag_1:\n      pop\n      jumpi(tag_2, lt(calldatasize, 0x04))\n      shr(0xe0, calldataload(0x00))\n      dup1\n      0x8da5cb5b\n      gt\n      tag_16\n      jumpi\n      dup1\n      0xc80f4e35\n      gt\n      tag_17\n      jumpi\n      dup1\n      0xc80f4e35\n      eq\n      tag_12\n      jumpi\n      dup1\n      0xd212a69a\n      eq\n      tag_13\n      jumpi\n      dup1\n      0xf2fde38b\n      eq\n      tag_14\n      jumpi\n      dup1\n      0xfb5b82d0\n      eq\n      tag_15\n      jumpi\n      jump(tag_2)\n    tag_17:\n      dup1\n      0x8da5cb5b\n      eq\n      tag_9\n      jumpi\n      dup1\n      0x8e991592\n      eq\n      tag_10\n      jumpi\n      dup1\n      0x8f32d59b\n      eq\n      tag_11\n      jumpi\n      jump(tag_2)\n    tag_16:\n      dup1\n      0x04bb60ce\n      eq\n      tag_3\n      jumpi\n      dup1\n      0x235b6ea1\n      eq\n      tag_4\n      jumpi\n      dup1\n      0x36171e0e\n      eq\n      tag_5\n      jumpi\n      dup1\n      0x491d0a56\n      eq\n      tag_6\n      jumpi\n      dup1\n      0x715018a6\n      eq\n      tag_7\n      jumpi\n      dup1\n      0x7c0b8de2\n      eq\n      tag_8\n      jumpi\n    tag_2:\n      0x00\n      dup1\n      revert\n        /* \"contracts/HotswapControllerBase.sol\":687:705  address public FFT */\n    tag_3:\n      tag_18\n      tag_19\n      jump\t// in\n    tag_18:\n      mload(0x40)\n      tag_20\n      swap2\n      swap1\n      tag_21\n      jump\t// in\n    tag_20:\n      mload(0x40)\n      dup1\n      swap2\n      sub\n      swap1\n      return\n        /* \"contracts/HotswapControllerBase.sol\":778:799  uint256 public _price */\n    tag_4:\n      tag_22\n      tag_23\n      jump\t// in\n    tag_22:\n      mload(0x40)\n      tag_24\n      swap2\n      swap1\n      tag_25\n      jump\t// in\n    tag_24:\n      mload(0x40)\n      dup1\n      swap2\n      sub\n      swap1\n      return\n        /* \"contracts/HotswapControllerBase.sol\":1593:1710  function setLiquidity(address addr) external onlyOwner {... */\n    tag_5:\n      tag_26\n      0x04\n      dup1\n      calldatasize\n      sub\n      dup2\n      add\n      swap1\n      tag_27\n      swap2\n      swap1\n      tag_28\n      jump\t// in\n    tag_27:\n      tag_29\n      jump\t// in\n    tag_26:\n      stop\n        /* \"contracts/HotswapControllerBase.sol\":744:769  address public _liquidity */\n    tag_6:\n      tag_30\n      tag_31\n      jump\t// in\n    tag_30:\n      mload(0x40)\n      tag_32\n      swap2\n      swap1\n      tag_21\n      jump\t// in\n    tag_32:\n      mload(0x40)\n      dup1\n      swap2\n      sub\n      swap1\n      return\n        /* \"contracts/Ownable.sol\":722:848  function renounceOwnership() public onlyOwner {... */\n    tag_7:\n      tag_33\n      tag_34\n      jump\t// in\n    tag_33:\n      stop\n        /* \"contracts/HotswapControllerBase.sol\":662:680  address public NFT */\n    tag_8:\n      tag_35\n      tag_36\n      jump\t// in\n    tag_35:\n      mload(0x40)\n      tag_37\n      swap2\n      swap1\n      tag_21\n      jump\t// in\n    tag_37:\n      mload(0x40)\n      dup1\n      swap2\n      sub\n      swap1\n      return\n        /* \"contracts/Ownable.sol\":457:536  function owner() public view returns (address) {... */\n    tag_9:\n      tag_38\n      tag_39\n      jump\t// in\n    tag_38:\n      mload(0x40)\n      tag_40\n      swap2\n      swap1\n      tag_21\n      jump\t// in\n    tag_40:\n      mload(0x40)\n      dup1\n      swap2\n      sub\n      swap1\n      return\n        /* \"contracts/HotswapControllerBase.sol\":712:737  address public _collector */\n    tag_10:\n      tag_41\n      tag_42\n      jump\t// in\n    tag_41:\n      mload(0x40)\n      tag_43\n      swap2\n      swap1\n      tag_21\n      jump\t// in\n    tag_43:\n      mload(0x40)\n      dup1\n      swap2\n      sub\n      swap1\n      return\n        /* \"contracts/Ownable.sol\":622:714  function isOwner() public view returns (bool) {... */\n    tag_11:\n      tag_44\n      tag_45\n      jump\t// in\n    tag_44:\n      mload(0x40)\n      tag_46\n      swap2\n      swap1\n      tag_47\n      jump\t// in\n    tag_46:\n      mload(0x40)\n      dup1\n      swap2\n      sub\n      swap1\n      return\n        /* \"contracts/HotswapControllerBase.sol\":937:965  Liquid[] public _liquidities */\n    tag_12:\n      tag_48\n      0x04\n      dup1\n      calldatasize\n      sub\n      dup2\n      add\n      swap1\n      tag_49\n      swap2\n      swap1\n      tag_50\n      jump\t// in\n    tag_49:\n      tag_51\n      jump\t// in\n    tag_48:\n      mload(0x40)\n      tag_52\n      swap8\n      swap7\n      swap6\n      swap5\n      swap4\n      swap3\n      swap2\n      swap1\n      tag_53\n      jump\t// in\n    tag_52:\n      mload(0x40)\n      dup1\n      swap2\n      sub\n      swap1\n      return\n        /* \"contracts/HotswapControllerBase.sol\":972:992  uint256 public _fees */\n    tag_13:\n      tag_54\n      tag_55\n      jump\t// in\n    tag_54:\n      mload(0x40)\n      tag_56\n      swap2\n      swap1\n      tag_25\n      jump\t// in\n    tag_56:\n      mload(0x40)\n      dup1\n      swap2\n      sub\n      swap1\n      return\n        /* \"contracts/Ownable.sol\":856:965  function transferOwnership(address newOwner) public onlyOwner {... */\n    tag_14:\n      tag_57\n      0x04\n      dup1\n      calldatasize\n      sub\n      dup2\n      add\n      swap1\n      tag_58\n      swap2\n      swap1\n      tag_28\n      jump\t// in\n    tag_58:\n      tag_59\n      jump\t// in\n    tag_57:\n      stop\n        /* \"contracts/HotswapControllerBase.sol\":1494:1585  function setCollector(address addr) external onlyOwner {... */\n    tag_15:\n      tag_60\n      0x04\n      dup1\n      calldatasize\n      sub\n      dup2\n      add\n      swap1\n      tag_61\n      swap2\n      swap1\n      tag_28\n      jump\t// in\n    tag_61:\n      tag_62\n      jump\t// in\n    tag_60:\n      stop\n        /* \"contracts/HotswapControllerBase.sol\":687:705  address public FFT */\n    tag_19:\n      0x02\n      0x00\n      swap1\n      sload\n      swap1\n      0x0100\n      exp\n      swap1\n      div\n      0xffffffffffffffffffffffffffffffffffffffff\n      and\n      dup2\n      jump\t// out\n        /* \"contracts/HotswapControllerBase.sol\":778:799  uint256 public _price */\n    tag_23:\n      sload(0x05)\n      dup2\n      jump\t// out\n        /* \"contracts/HotswapControllerBase.sol\":1593:1710  function setLiquidity(address addr) external onlyOwner {... */\n    tag_29:\n        /* \"contracts/Ownable.sol\":584:593  isOwner() */\n      tag_64\n        /* \"contracts/Ownable.sol\":584:591  isOwner */\n      tag_45\n        /* \"contracts/Ownable.sol\":584:593  isOwner() */\n      jump\t// in\n    tag_64:\n        /* \"contracts/Ownable.sol\":576:594  require(isOwner()) */\n      tag_65\n      jumpi\n      0x00\n      dup1\n      revert\n    tag_65:\n        /* \"contracts/HotswapControllerBase.sol\":1672:1676  addr */\n      dup1\n        /* \"contracts/HotswapControllerBase.sol\":1659:1669  _liquidity */\n      0x04\n      0x00\n        /* \"contracts/HotswapControllerBase.sol\":1659:1676  _liquidity = addr */\n      0x0100\n      exp\n      dup2\n      sload\n      dup2\n      0xffffffffffffffffffffffffffffffffffffffff\n      mul\n      not\n      and\n      swap1\n      dup4\n      0xffffffffffffffffffffffffffffffffffffffff\n      and\n      mul\n      or\n      swap1\n      sstore\n      pop\n        /* \"contracts/HotswapControllerBase.sol\":1687:1702  _computePrice() */\n      tag_67\n        /* \"contracts/HotswapControllerBase.sol\":1687:1700  _computePrice */\n      tag_68\n        /* \"contracts/HotswapControllerBase.sol\":1687:1702  _computePrice() */\n      jump\t// in\n    tag_67:\n      pop\n        /* \"contracts/HotswapControllerBase.sol\":1593:1710  function setLiquidity(address addr) external onlyOwner {... */\n      pop\n      jump\t// out\n        /* \"contracts/HotswapControllerBase.sol\":744:769  address public _liquidity */\n    tag_31:\n      0x04\n      0x00\n      swap1\n      sload\n      swap1\n      0x0100\n      exp\n      swap1\n      div\n      0xffffffffffffffffffffffffffffffffffffffff\n      and\n      dup2\n      jump\t// out\n        /* \"contracts/Ownable.sol\":722:848  function renounceOwnership() public onlyOwner {... */\n    tag_34:\n        /* \"contracts/Ownable.sol\":584:593  isOwner() */\n      tag_70\n        /* \"contracts/Ownable.sol\":584:591  isOwner */\n      tag_45\n        /* \"contracts/Ownable.sol\":584:593  isOwner() */\n      jump\t// in\n    tag_70:\n        /* \"contracts/Ownable.sol\":576:594  require(isOwner()) */\n      tag_71\n      jumpi\n      0x00\n      dup1\n      revert\n    tag_71:\n        /* \"contracts/Ownable.sol\":803:809  _owner */\n      0x00\n      dup1\n      sload\n      swap1\n      0x0100\n      exp\n      swap1\n      div\n      0xffffffffffffffffffffffffffffffffffffffff\n      and\n        /* \"contracts/Ownable.sol\":784:810  OwnershipRenounced(_owner) */\n      0xffffffffffffffffffffffffffffffffffffffff\n      and\n      0xf8df31144d9c2f0f6b59d69b8b98abd5459d07f2742c4df920b25aae33c64820\n      mload(0x40)\n      mload(0x40)\n      dup1\n      swap2\n      sub\n      swap1\n      log2\n        /* \"contracts/Ownable.sol\":838:839  0 */\n      0x00\n        /* \"contracts/Ownable.sol\":821:827  _owner */\n      dup1\n      0x00\n        /* \"contracts/Ownable.sol\":821:840  _owner = address(0) */\n      0x0100\n      exp\n      dup2\n      sload\n      dup2\n      0xffffffffffffffffffffffffffffffffffffffff\n      mul\n      not\n      and\n      swap1\n      dup4\n      0xffffffffffffffffffffffffffffffffffffffff\n      and\n      mul\n      or\n      swap1\n      sstore\n      pop\n        /* \"contracts/Ownable.sol\":722:848  function renounceOwnership() public onlyOwner {... */\n      jump\t// out\n        /* \"contracts/HotswapControllerBase.sol\":662:680  address public NFT */\n    tag_36:\n      0x01\n      0x00\n      swap1\n      sload\n      swap1\n      0x0100\n      exp\n      swap1\n      div\n      0xffffffffffffffffffffffffffffffffffffffff\n      and\n      dup2\n      jump\t// out\n        /* \"contracts/Ownable.sol\":457:536  function owner() public view returns (address) {... */\n    tag_39:\n        /* \"contracts/Ownable.sol\":495:502  address */\n      0x00\n        /* \"contracts/Ownable.sol\":522:528  _owner */\n      dup1\n      0x00\n      swap1\n      sload\n      swap1\n      0x0100\n      exp\n      swap1\n      div\n      0xffffffffffffffffffffffffffffffffffffffff\n      and\n        /* \"contracts/Ownable.sol\":515:528  return _owner */\n      swap1\n      pop\n        /* \"contracts/Ownable.sol\":457:536  function owner() public view returns (address) {... */\n      swap1\n      jump\t// out\n        /* \"contracts/HotswapControllerBase.sol\":712:737  address public _collector */\n    tag_42:\n      0x03\n      0x00\n      swap1\n      sload\n      swap1\n      0x0100\n      exp\n      swap1\n      div\n      0xffffffffffffffffffffffffffffffffffffffff\n      and\n      dup2\n      jump\t// out\n        /* \"contracts/Ownable.sol\":622:714  function isOwner() public view returns (bool) {... */\n    tag_45:\n        /* \"contracts/Ownable.sol\":662:666  bool */\n      0x00\n        /* \"contracts/Ownable.sol\":700:706  _owner */\n      dup1\n      0x00\n      swap1\n      sload\n      swap1\n      0x0100\n      exp\n      swap1\n      div\n      0xffffffffffffffffffffffffffffffffffffffff\n      and\n        /* \"contracts/Ownable.sol\":686:706  msg.sender == _owner */\n      0xffffffffffffffffffffffffffffffffffffffff\n      and\n        /* \"contracts/Ownable.sol\":686:696  msg.sender */\n      caller\n        /* \"contracts/Ownable.sol\":686:706  msg.sender == _owner */\n      0xffffffffffffffffffffffffffffffffffffffff\n      and\n      eq\n        /* \"contracts/Ownable.sol\":679:706  return msg.sender == _owner */\n      swap1\n      pop\n        /* \"contracts/Ownable.sol\":622:714  function isOwner() public view returns (bool) {... */\n      swap1\n      jump\t// out\n        /* \"contracts/HotswapControllerBase.sol\":937:965  Liquid[] public _liquidities */\n    tag_51:\n      0x09\n      dup2\n      dup2\n      sload\n      dup2\n      lt\n      tag_75\n      jumpi\n      0x00\n      dup1\n      revert\n    tag_75:\n      swap1\n      0x00\n      mstore\n      keccak256(0x00, 0x20)\n      swap1\n      0x07\n      mul\n      add\n      0x00\n      swap2\n      pop\n      swap1\n      pop\n      dup1\n      0x00\n      add\n      0x00\n      swap1\n      sload\n      swap1\n      0x0100\n      exp\n      swap1\n      div\n      0xffffffffffffffffffffffffffffffffffffffff\n      and\n      swap1\n      dup1\n      0x01\n      add\n      sload\n      swap1\n      dup1\n      0x02\n      add\n      sload\n      swap1\n      dup1\n      0x03\n      add\n      sload\n      swap1\n      dup1\n      0x04\n      add\n      sload\n      swap1\n      dup1\n      0x05\n      add\n      0x00\n      swap1\n      sload\n      swap1\n      0x0100\n      exp\n      swap1\n      div\n      0xff\n      and\n      swap1\n      dup1\n      0x06\n      add\n      sload\n      swap1\n      pop\n      dup8\n      jump\t// out\n        /* \"contracts/HotswapControllerBase.sol\":972:992  uint256 public _fees */\n    tag_55:\n      sload(0x0a)\n      dup2\n      jump\t// out\n        /* \"contracts/Ownable.sol\":856:965  function transferOwnership(address newOwner) public onlyOwner {... */\n    tag_59:\n        /* \"contracts/Ownable.sol\":584:593  isOwner() */\n      tag_78\n        /* \"contracts/Ownable.sol\":584:591  isOwner */\n      tag_45\n        /* \"contracts/Ownable.sol\":584:593  isOwner() */\n      jump\t// in\n    tag_78:\n        /* \"contracts/Ownable.sol\":576:594  require(isOwner()) */\n      tag_79\n      jumpi\n      0x00\n      dup1\n      revert\n    tag_79:\n        /* \"contracts/Ownable.sol\":929:957  _transferOwnership(newOwner) */\n      tag_81\n        /* \"contracts/Ownable.sol\":948:956  newOwner */\n      dup2\n        /* \"contracts/Ownable.sol\":929:947  _transferOwnership */\n      tag_82\n        /* \"contracts/Ownable.sol\":929:957  _transferOwnership(newOwner) */\n      jump\t// in\n    tag_81:\n        /* \"contracts/Ownable.sol\":856:965  function transferOwnership(address newOwner) public onlyOwner {... */\n      pop\n      jump\t// out\n        /* \"contracts/HotswapControllerBase.sol\":1494:1585  function setCollector(address addr) external onlyOwner {... */\n    tag_62:\n        /* \"contracts/Ownable.sol\":584:593  isOwner() */\n      tag_84\n        /* \"contracts/Ownable.sol\":584:591  isOwner */\n      tag_45\n        /* \"contracts/Ownable.sol\":584:593  isOwner() */\n      jump\t// in\n    tag_84:\n        /* \"contracts/Ownable.sol\":576:594  require(isOwner()) */\n      tag_85\n      jumpi\n      0x00\n      dup1\n      revert\n    tag_85:\n        /* \"contracts/HotswapControllerBase.sol\":1573:1577  addr */\n      dup1\n        /* \"contracts/HotswapControllerBase.sol\":1560:1570  _collector */\n      0x03\n      0x00\n        /* \"contracts/HotswapControllerBase.sol\":1560:1577  _collector = addr */\n      0x0100\n      exp\n      dup2\n      sload\n      dup2\n      0xffffffffffffffffffffffffffffffffffffffff\n      mul\n      not\n      and\n      swap1\n      dup4\n      0xffffffffffffffffffffffffffffffffffffffff\n      and\n      mul\n      or\n      swap1\n      sstore\n      pop\n        /* \"contracts/HotswapControllerBase.sol\":1494:1585  function setCollector(address addr) external onlyOwner {... */\n      pop\n      jump\t// out\n        /* \"contracts/HotswapControllerBase.sol\":1198:1486  function _computePrice() internal returns (uint256) {... */\n    tag_68:\n        /* \"contracts/HotswapControllerBase.sol\":1241:1248  uint256 */\n      0x00\n        /* \"contracts/HotswapControllerBase.sol\":1261:1277  uint256 fBalance */\n      dup1\n        /* \"contracts/HotswapControllerBase.sol\":1280:1284  _fft */\n      0x06\n      0x00\n      swap1\n      sload\n      swap1\n      0x0100\n      exp\n      swap1\n      div\n      0xffffffffffffffffffffffffffffffffffffffff\n      and\n        /* \"contracts/HotswapControllerBase.sol\":1280:1294  _fft.balanceOf */\n      0xffffffffffffffffffffffffffffffffffffffff\n      and\n      0x70a08231\n        /* \"contracts/HotswapControllerBase.sol\":1295:1305  _liquidity */\n      0x04\n      0x00\n      swap1\n      sload\n      swap1\n      0x0100\n      exp\n      swap1\n      div\n      0xffffffffffffffffffffffffffffffffffffffff\n      and\n        /* \"contracts/HotswapControllerBase.sol\":1280:1306  _fft.balanceOf(_liquidity) */\n      mload(0x40)\n      dup3\n      0xffffffff\n      and\n      0xe0\n      shl\n      dup2\n      mstore\n      0x04\n      add\n      tag_88\n      swap2\n      swap1\n      tag_21\n      jump\t// in\n    tag_88:\n      0x20\n      mload(0x40)\n      dup1\n      dup4\n      sub\n      dup2\n      dup7\n      gas\n      staticcall\n      iszero\n      dup1\n      iszero\n      tag_90\n      jumpi\n      returndatasize\n      0x00\n      dup1\n      returndatacopy\n      revert(0x00, returndatasize)\n    tag_90:\n      pop\n      pop\n      pop\n      pop\n      mload(0x40)\n      returndatasize\n      not(0x1f)\n      0x1f\n      dup3\n      add\n      and\n      dup3\n      add\n      dup1\n      0x40\n      mstore\n      pop\n      dup2\n      add\n      swap1\n      tag_91\n      swap2\n      swap1\n      tag_92\n      jump\t// in\n    tag_91:\n        /* \"contracts/HotswapControllerBase.sol\":1261:1306  uint256 fBalance = _fft.balanceOf(_liquidity) */\n      swap1\n      pop\n        /* \"contracts/HotswapControllerBase.sol\":1317:1333  uint256 nBalance */\n      0x00\n        /* \"contracts/HotswapControllerBase.sol\":1336:1340  _nft */\n      0x07\n      0x00\n      swap1\n      sload\n      swap1\n      0x0100\n      exp\n      swap1\n      div\n      0xffffffffffffffffffffffffffffffffffffffff\n      and\n        /* \"contracts/HotswapControllerBase.sol\":1336:1350  _nft.balanceOf */\n      0xffffffffffffffffffffffffffffffffffffffff\n      and\n      0x70a08231\n        /* \"contracts/HotswapControllerBase.sol\":1351:1361  _liquidity */\n      0x04\n      0x00\n      swap1\n      sload\n      swap1\n      0x0100\n      exp\n      swap1\n      div\n      0xffffffffffffffffffffffffffffffffffffffff\n      and\n        /* \"contracts/HotswapControllerBase.sol\":1336:1362  _nft.balanceOf(_liquidity) */\n      mload(0x40)\n      dup3\n      0xffffffff\n      and\n      0xe0\n      shl\n      dup2\n      mstore\n      0x04\n      add\n      tag_93\n      swap2\n      swap1\n      tag_21\n      jump\t// in\n    tag_93:\n      0x20\n      mload(0x40)\n      dup1\n      dup4\n      sub\n      dup2\n      dup7\n      gas\n      staticcall\n      iszero\n      dup1\n      iszero\n      tag_95\n      jumpi\n      returndatasize\n      0x00\n      dup1\n      returndatacopy\n      revert(0x00, returndatasize)\n    tag_95:\n      pop\n      pop\n      pop\n      pop\n      mload(0x40)\n      returndatasize\n      not(0x1f)\n      0x1f\n      dup3\n      add\n      and\n      dup3\n      add\n      dup1\n      0x40\n      mstore\n      pop\n      dup2\n      add\n      swap1\n      tag_96\n      swap2\n      swap1\n      tag_92\n      jump\t// in\n    tag_96:\n        /* \"contracts/HotswapControllerBase.sol\":1317:1362  uint256 nBalance = _nft.balanceOf(_liquidity) */\n      swap1\n      pop\n        /* \"contracts/HotswapControllerBase.sol\":1446:1454  nBalance */\n      dup1\n        /* \"contracts/HotswapControllerBase.sol\":1435:1443  fBalance */\n      dup3\n        /* \"contracts/HotswapControllerBase.sol\":1435:1454  fBalance / nBalance */\n      tag_97\n      swap2\n      swap1\n      tag_98\n      jump\t// in\n    tag_97:\n        /* \"contracts/HotswapControllerBase.sol\":1426:1432  _price */\n      0x05\n        /* \"contracts/HotswapControllerBase.sol\":1426:1454  _price = fBalance / nBalance */\n      dup2\n      swap1\n      sstore\n      pop\n        /* \"contracts/HotswapControllerBase.sol\":1472:1478  _price */\n      sload(0x05)\n        /* \"contracts/HotswapControllerBase.sol\":1465:1478  return _price */\n      swap3\n      pop\n      pop\n      pop\n        /* \"contracts/HotswapControllerBase.sol\":1198:1486  function _computePrice() internal returns (uint256) {... */\n      swap1\n      jump\t// out\n        /* \"contracts/Ownable.sol\":973:1160  function _transferOwnership(address newOwner) internal {... */\n    tag_82:\n        /* \"contracts/Ownable.sol\":1067:1068  0 */\n      0x00\n        /* \"contracts/Ownable.sol\":1047:1069  newOwner != address(0) */\n      0xffffffffffffffffffffffffffffffffffffffff\n      and\n        /* \"contracts/Ownable.sol\":1047:1055  newOwner */\n      dup2\n        /* \"contracts/Ownable.sol\":1047:1069  newOwner != address(0) */\n      0xffffffffffffffffffffffffffffffffffffffff\n      and\n      sub\n        /* \"contracts/Ownable.sol\":1039:1070  require(newOwner != address(0)) */\n      tag_100\n      jumpi\n      0x00\n      dup1\n      revert\n    tag_100:\n        /* \"contracts/Ownable.sol\":1115:1123  newOwner */\n      dup1\n        /* \"contracts/Ownable.sol\":1086:1124  OwnershipTransferred(_owner, newOwner) */\n      0xffffffffffffffffffffffffffffffffffffffff\n      and\n        /* \"contracts/Ownable.sol\":1107:1113  _owner */\n      0x00\n      dup1\n      sload\n      swap1\n      0x0100\n      exp\n      swap1\n      div\n      0xffffffffffffffffffffffffffffffffffffffff\n      and\n        /* \"contracts/Ownable.sol\":1086:1124  OwnershipTransferred(_owner, newOwner) */\n      0xffffffffffffffffffffffffffffffffffffffff\n      and\n      0x8be0079c531659141344cd1fd0a4f28419497f9722a3daafe3b4186f6b6457e0\n      mload(0x40)\n      mload(0x40)\n      dup1\n      swap2\n      sub\n      swap1\n      log3\n        /* \"contracts/Ownable.sol\":1144:1152  newOwner */\n      dup1\n        /* \"contracts/Ownable.sol\":1135:1141  _owner */\n      0x00\n      dup1\n        /* \"contracts/Ownable.sol\":1135:1152  _owner = newOwner */\n      0x0100\n      exp\n      dup2\n      sload\n      dup2\n      0xffffffffffffffffffffffffffffffffffffffff\n      mul\n      not\n      and\n      swap1\n      dup4\n      0xffffffffffffffffffffffffffffffffffffffff\n      and\n      mul\n      or\n      swap1\n      sstore\n      pop\n        /* \"contracts/Ownable.sol\":973:1160  function _transferOwnership(address newOwner) internal {... */\n      pop\n      jump\t// out\n        /* \"#utility.yul\":7:133   */\n    tag_101:\n        /* \"#utility.yul\":44:51   */\n      0x00\n        /* \"#utility.yul\":84:126   */\n      0xffffffffffffffffffffffffffffffffffffffff\n        /* \"#utility.yul\":77:82   */\n      dup3\n        /* \"#utility.yul\":73:127   */\n      and\n        /* \"#utility.yul\":62:127   */\n      swap1\n      pop\n        /* \"#utility.yul\":7:133   */\n      swap2\n      swap1\n      pop\n      jump\t// out\n        /* \"#utility.yul\":139:235   */\n    tag_102:\n        /* \"#utility.yul\":176:183   */\n      0x00\n        /* \"#utility.yul\":205:229   */\n      tag_121\n        /* \"#utility.yul\":223:228   */\n      dup3\n        /* \"#utility.yul\":205:229   */\n      tag_101\n      jump\t// in\n    tag_121:\n        /* \"#utility.yul\":194:229   */\n      swap1\n      pop\n        /* \"#utility.yul\":139:235   */\n      swap2\n      swap1\n      pop\n      jump\t// out\n        /* \"#utility.yul\":241:359   */\n    tag_103:\n        /* \"#utility.yul\":328:352   */\n      tag_123\n        /* \"#utility.yul\":346:351   */\n      dup2\n        /* \"#utility.yul\":328:352   */\n      tag_102\n      jump\t// in\n    tag_123:\n        /* \"#utility.yul\":323:326   */\n      dup3\n        /* \"#utility.yul\":316:353   */\n      mstore\n        /* \"#utility.yul\":241:359   */\n      pop\n      pop\n      jump\t// out\n        /* \"#utility.yul\":365:587   */\n    tag_21:\n        /* \"#utility.yul\":458:462   */\n      0x00\n        /* \"#utility.yul\":496:498   */\n      0x20\n        /* \"#utility.yul\":485:494   */\n      dup3\n        /* \"#utility.yul\":481:499   */\n      add\n        /* \"#utility.yul\":473:499   */\n      swap1\n      pop\n        /* \"#utility.yul\":509:580   */\n      tag_125\n        /* \"#utility.yul\":577:578   */\n      0x00\n        /* \"#utility.yul\":566:575   */\n      dup4\n        /* \"#utility.yul\":562:579   */\n      add\n        /* \"#utility.yul\":553:559   */\n      dup5\n        /* \"#utility.yul\":509:580   */\n      tag_103\n      jump\t// in\n    tag_125:\n        /* \"#utility.yul\":365:587   */\n      swap3\n      swap2\n      pop\n      pop\n      jump\t// out\n        /* \"#utility.yul\":593:670   */\n    tag_104:\n        /* \"#utility.yul\":630:637   */\n      0x00\n        /* \"#utility.yul\":659:664   */\n      dup2\n        /* \"#utility.yul\":648:664   */\n      swap1\n      pop\n        /* \"#utility.yul\":593:670   */\n      swap2\n      swap1\n      pop\n      jump\t// out\n        /* \"#utility.yul\":676:794   */\n    tag_105:\n        /* \"#utility.yul\":763:787   */\n      tag_128\n        /* \"#utility.yul\":781:786   */\n      dup2\n        /* \"#utility.yul\":763:787   */\n      tag_104\n      jump\t// in\n    tag_128:\n        /* \"#utility.yul\":758:761   */\n      dup3\n        /* \"#utility.yul\":751:788   */\n      mstore\n        /* \"#utility.yul\":676:794   */\n      pop\n      pop\n      jump\t// out\n        /* \"#utility.yul\":800:1022   */\n    tag_25:\n        /* \"#utility.yul\":893:897   */\n      0x00\n        /* \"#utility.yul\":931:933   */\n      0x20\n        /* \"#utility.yul\":920:929   */\n      dup3\n        /* \"#utility.yul\":916:934   */\n      add\n        /* \"#utility.yul\":908:934   */\n      swap1\n      pop\n        /* \"#utility.yul\":944:1015   */\n      tag_130\n        /* \"#utility.yul\":1012:1013   */\n      0x00\n        /* \"#utility.yul\":1001:1010   */\n      dup4\n        /* \"#utility.yul\":997:1014   */\n      add\n        /* \"#utility.yul\":988:994   */\n      dup5\n        /* \"#utility.yul\":944:1015   */\n      tag_105\n      jump\t// in\n    tag_130:\n        /* \"#utility.yul\":800:1022   */\n      swap3\n      swap2\n      pop\n      pop\n      jump\t// out\n        /* \"#utility.yul\":1109:1226   */\n    tag_107:\n        /* \"#utility.yul\":1218:1219   */\n      0x00\n        /* \"#utility.yul\":1215:1216   */\n      dup1\n        /* \"#utility.yul\":1208:1220   */\n      revert\n        /* \"#utility.yul\":1355:1477   */\n    tag_109:\n        /* \"#utility.yul\":1428:1452   */\n      tag_135\n        /* \"#utility.yul\":1446:1451   */\n      dup2\n        /* \"#utility.yul\":1428:1452   */\n      tag_102\n      jump\t// in\n    tag_135:\n        /* \"#utility.yul\":1421:1426   */\n      dup2\n        /* \"#utility.yul\":1418:1453   */\n      eq\n        /* \"#utility.yul\":1408:1471   */\n      tag_136\n      jumpi\n        /* \"#utility.yul\":1467:1468   */\n      0x00\n        /* \"#utility.yul\":1464:1465   */\n      dup1\n        /* \"#utility.yul\":1457:1469   */\n      revert\n        /* \"#utility.yul\":1408:1471   */\n    tag_136:\n        /* \"#utility.yul\":1355:1477   */\n      pop\n      jump\t// out\n        /* \"#utility.yul\":1483:1622   */\n    tag_110:\n        /* \"#utility.yul\":1529:1534   */\n      0x00\n        /* \"#utility.yul\":1567:1573   */\n      dup2\n        /* \"#utility.yul\":1554:1574   */\n      calldataload\n        /* \"#utility.yul\":1545:1574   */\n      swap1\n      pop\n        /* \"#utility.yul\":1583:1616   */\n      tag_138\n        /* \"#utility.yul\":1610:1615   */\n      dup2\n        /* \"#utility.yul\":1583:1616   */\n      tag_109\n      jump\t// in\n    tag_138:\n        /* \"#utility.yul\":1483:1622   */\n      swap3\n      swap2\n      pop\n      pop\n      jump\t// out\n        /* \"#utility.yul\":1628:1957   */\n    tag_28:\n        /* \"#utility.yul\":1687:1693   */\n      0x00\n        /* \"#utility.yul\":1736:1738   */\n      0x20\n        /* \"#utility.yul\":1724:1733   */\n      dup3\n        /* \"#utility.yul\":1715:1722   */\n      dup5\n        /* \"#utility.yul\":1711:1734   */\n      sub\n        /* \"#utility.yul\":1707:1739   */\n      slt\n        /* \"#utility.yul\":1704:1823   */\n      iszero\n      tag_140\n      jumpi\n        /* \"#utility.yul\":1742:1821   */\n      tag_141\n      tag_107\n      jump\t// in\n    tag_141:\n        /* \"#utility.yul\":1704:1823   */\n    tag_140:\n        /* \"#utility.yul\":1862:1863   */\n      0x00\n        /* \"#utility.yul\":1887:1940   */\n      tag_142\n        /* \"#utility.yul\":1932:1939   */\n      dup5\n        /* \"#utility.yul\":1923:1929   */\n      dup3\n        /* \"#utility.yul\":1912:1921   */\n      dup6\n        /* \"#utility.yul\":1908:1930   */\n      add\n        /* \"#utility.yul\":1887:1940   */\n      tag_110\n      jump\t// in\n    tag_142:\n        /* \"#utility.yul\":1877:1940   */\n      swap2\n      pop\n        /* \"#utility.yul\":1833:1950   */\n      pop\n        /* \"#utility.yul\":1628:1957   */\n      swap3\n      swap2\n      pop\n      pop\n      jump\t// out\n        /* \"#utility.yul\":1963:2053   */\n    tag_111:\n        /* \"#utility.yul\":1997:2004   */\n      0x00\n        /* \"#utility.yul\":2040:2045   */\n      dup2\n        /* \"#utility.yul\":2033:2046   */\n      iszero\n        /* \"#utility.yul\":2026:2047   */\n      iszero\n        /* \"#utility.yul\":2015:2047   */\n      swap1\n      pop\n        /* \"#utility.yul\":1963:2053   */\n      swap2\n      swap1\n      pop\n      jump\t// out\n        /* \"#utility.yul\":2059:2168   */\n    tag_112:\n        /* \"#utility.yul\":2140:2161   */\n      tag_145\n        /* \"#utility.yul\":2155:2160   */\n      dup2\n        /* \"#utility.yul\":2140:2161   */\n      tag_111\n      jump\t// in\n    tag_145:\n        /* \"#utility.yul\":2135:2138   */\n      dup3\n        /* \"#utility.yul\":2128:2162   */\n      mstore\n        /* \"#utility.yul\":2059:2168   */\n      pop\n      pop\n      jump\t// out\n        /* \"#utility.yul\":2174:2384   */\n    tag_47:\n        /* \"#utility.yul\":2261:2265   */\n      0x00\n        /* \"#utility.yul\":2299:2301   */\n      0x20\n        /* \"#utility.yul\":2288:2297   */\n      dup3\n        /* \"#utility.yul\":2284:2302   */\n      add\n        /* \"#utility.yul\":2276:2302   */\n      swap1\n      pop\n        /* \"#utility.yul\":2312:2377   */\n      tag_147\n        /* \"#utility.yul\":2374:2375   */\n      0x00\n        /* \"#utility.yul\":2363:2372   */\n      dup4\n        /* \"#utility.yul\":2359:2376   */\n      add\n        /* \"#utility.yul\":2350:2356   */\n      dup5\n        /* \"#utility.yul\":2312:2377   */\n      tag_112\n      jump\t// in\n    tag_147:\n        /* \"#utility.yul\":2174:2384   */\n      swap3\n      swap2\n      pop\n      pop\n      jump\t// out\n        /* \"#utility.yul\":2390:2512   */\n    tag_113:\n        /* \"#utility.yul\":2463:2487   */\n      tag_149\n        /* \"#utility.yul\":2481:2486   */\n      dup2\n        /* \"#utility.yul\":2463:2487   */\n      tag_104\n      jump\t// in\n    tag_149:\n        /* \"#utility.yul\":2456:2461   */\n      dup2\n        /* \"#utility.yul\":2453:2488   */\n      eq\n        /* \"#utility.yul\":2443:2506   */\n      tag_150\n      jumpi\n        /* \"#utility.yul\":2502:2503   */\n      0x00\n        /* \"#utility.yul\":2499:2500   */\n      dup1\n        /* \"#utility.yul\":2492:2504   */\n      revert\n        /* \"#utility.yul\":2443:2506   */\n    tag_150:\n        /* \"#utility.yul\":2390:2512   */\n      pop\n      jump\t// out\n        /* \"#utility.yul\":2518:2657   */\n    tag_114:\n        /* \"#utility.yul\":2564:2569   */\n      0x00\n        /* \"#utility.yul\":2602:2608   */\n      dup2\n        /* \"#utility.yul\":2589:2609   */\n      calldataload\n        /* \"#utility.yul\":2580:2609   */\n      swap1\n      pop\n        /* \"#utility.yul\":2618:2651   */\n      tag_152\n        /* \"#utility.yul\":2645:2650   */\n      dup2\n        /* \"#utility.yul\":2618:2651   */\n      tag_113\n      jump\t// in\n    tag_152:\n        /* \"#utility.yul\":2518:2657   */\n      swap3\n      swap2\n      pop\n      pop\n      jump\t// out\n        /* \"#utility.yul\":2663:2992   */\n    tag_50:\n        /* \"#utility.yul\":2722:2728   */\n      0x00\n        /* \"#utility.yul\":2771:2773   */\n      0x20\n        /* \"#utility.yul\":2759:2768   */\n      dup3\n        /* \"#utility.yul\":2750:2757   */\n      dup5\n        /* \"#utility.yul\":2746:2769   */\n      sub\n        /* \"#utility.yul\":2742:2774   */\n      slt\n        /* \"#utility.yul\":2739:2858   */\n      iszero\n      tag_154\n      jumpi\n        /* \"#utility.yul\":2777:2856   */\n      tag_155\n      tag_107\n      jump\t// in\n    tag_155:\n        /* \"#utility.yul\":2739:2858   */\n    tag_154:\n        /* \"#utility.yul\":2897:2898   */\n      0x00\n        /* \"#utility.yul\":2922:2975   */\n      tag_156\n        /* \"#utility.yul\":2967:2974   */\n      dup5\n        /* \"#utility.yul\":2958:2964   */\n      dup3\n        /* \"#utility.yul\":2947:2956   */\n      dup6\n        /* \"#utility.yul\":2943:2965   */\n      add\n        /* \"#utility.yul\":2922:2975   */\n      tag_114\n      jump\t// in\n    tag_156:\n        /* \"#utility.yul\":2912:2975   */\n      swap2\n      pop\n        /* \"#utility.yul\":2868:2985   */\n      pop\n        /* \"#utility.yul\":2663:2992   */\n      swap3\n      swap2\n      pop\n      pop\n      jump\t// out\n        /* \"#utility.yul\":2998:3872   */\n    tag_53:\n        /* \"#utility.yul\":3253:3257   */\n      0x00\n        /* \"#utility.yul\":3291:3294   */\n      0xe0\n        /* \"#utility.yul\":3280:3289   */\n      dup3\n        /* \"#utility.yul\":3276:3295   */\n      add\n        /* \"#utility.yul\":3268:3295   */\n      swap1\n      pop\n        /* \"#utility.yul\":3305:3376   */\n      tag_158\n        /* \"#utility.yul\":3373:3374   */\n      0x00\n        /* \"#utility.yul\":3362:3371   */\n      dup4\n        /* \"#utility.yul\":3358:3375   */\n      add\n        /* \"#utility.yul\":3349:3355   */\n      dup11\n        /* \"#utility.yul\":3305:3376   */\n      tag_103\n      jump\t// in\n    tag_158:\n        /* \"#utility.yul\":3386:3458   */\n      tag_159\n        /* \"#utility.yul\":3454:3456   */\n      0x20\n        /* \"#utility.yul\":3443:3452   */\n      dup4\n        /* \"#utility.yul\":3439:3457   */\n      add\n        /* \"#utility.yul\":3430:3436   */\n      dup10\n        /* \"#utility.yul\":3386:3458   */\n      tag_105\n      jump\t// in\n    tag_159:\n        /* \"#utility.yul\":3468:3540   */\n      tag_160\n        /* \"#utility.yul\":3536:3538   */\n      0x40\n        /* \"#utility.yul\":3525:3534   */\n      dup4\n        /* \"#utility.yul\":3521:3539   */\n      add\n        /* \"#utility.yul\":3512:3518   */\n      dup9\n        /* \"#utility.yul\":3468:3540   */\n      tag_105\n      jump\t// in\n    tag_160:\n        /* \"#utility.yul\":3550:3622   */\n      tag_161\n        /* \"#utility.yul\":3618:3620   */\n      0x60\n        /* \"#utility.yul\":3607:3616   */\n      dup4\n        /* \"#utility.yul\":3603:3621   */\n      add\n        /* \"#utility.yul\":3594:3600   */\n      dup8\n        /* \"#utility.yul\":3550:3622   */\n      tag_105\n      jump\t// in\n    tag_161:\n        /* \"#utility.yul\":3632:3705   */\n      tag_162\n        /* \"#utility.yul\":3700:3703   */\n      0x80\n        /* \"#utility.yul\":3689:3698   */\n      dup4\n        /* \"#utility.yul\":3685:3704   */\n      add\n        /* \"#utility.yul\":3676:3682   */\n      dup7\n        /* \"#utility.yul\":3632:3705   */\n      tag_105\n      jump\t// in\n    tag_162:\n        /* \"#utility.yul\":3715:3782   */\n      tag_163\n        /* \"#utility.yul\":3777:3780   */\n      0xa0\n        /* \"#utility.yul\":3766:3775   */\n      dup4\n        /* \"#utility.yul\":3762:3781   */\n      add\n        /* \"#utility.yul\":3753:3759   */\n      dup6\n        /* \"#utility.yul\":3715:3782   */\n      tag_112\n      jump\t// in\n    tag_163:\n        /* \"#utility.yul\":3792:3865   */\n      tag_164\n        /* \"#utility.yul\":3860:3863   */\n      0xc0\n        /* \"#utility.yul\":3849:3858   */\n      dup4\n        /* \"#utility.yul\":3845:3864   */\n      add\n        /* \"#utility.yul\":3836:3842   */\n      dup5\n        /* \"#utility.yul\":3792:3865   */\n      tag_105\n      jump\t// in\n    tag_164:\n        /* \"#utility.yul\":2998:3872   */\n      swap9\n      swap8\n      pop\n      pop\n      pop\n      pop\n      pop\n      pop\n      pop\n      pop\n      jump\t// out\n        /* \"#utility.yul\":3878:4021   */\n    tag_115:\n        /* \"#utility.yul\":3935:3940   */\n      0x00\n        /* \"#utility.yul\":3966:3972   */\n      dup2\n        /* \"#utility.yul\":3960:3973   */\n      mload\n        /* \"#utility.yul\":3951:3973   */\n      swap1\n      pop\n        /* \"#utility.yul\":3982:4015   */\n      tag_166\n        /* \"#utility.yul\":4009:4014   */\n      dup2\n        /* \"#utility.yul\":3982:4015   */\n      tag_113\n      jump\t// in\n    tag_166:\n        /* \"#utility.yul\":3878:4021   */\n      swap3\n      swap2\n      pop\n      pop\n      jump\t// out\n        /* \"#utility.yul\":4027:4378   */\n    tag_92:\n        /* \"#utility.yul\":4097:4103   */\n      0x00\n        /* \"#utility.yul\":4146:4148   */\n      0x20\n        /* \"#utility.yul\":4134:4143   */\n      dup3\n        /* \"#utility.yul\":4125:4132   */\n      dup5\n        /* \"#utility.yul\":4121:4144   */\n      sub\n        /* \"#utility.yul\":4117:4149   */\n      slt\n        /* \"#utility.yul\":4114:4233   */\n      iszero\n      tag_168\n      jumpi\n        /* \"#utility.yul\":4152:4231   */\n      tag_169\n      tag_107\n      jump\t// in\n    tag_169:\n        /* \"#utility.yul\":4114:4233   */\n    tag_168:\n        /* \"#utility.yul\":4272:4273   */\n      0x00\n        /* \"#utility.yul\":4297:4361   */\n      tag_170\n        /* \"#utility.yul\":4353:4360   */\n      dup5\n        /* \"#utility.yul\":4344:4350   */\n      dup3\n        /* \"#utility.yul\":4333:4342   */\n      dup6\n        /* \"#utility.yul\":4329:4351   */\n      add\n        /* \"#utility.yul\":4297:4361   */\n      tag_115\n      jump\t// in\n    tag_170:\n        /* \"#utility.yul\":4287:4361   */\n      swap2\n      pop\n        /* \"#utility.yul\":4243:4371   */\n      pop\n        /* \"#utility.yul\":4027:4378   */\n      swap3\n      swap2\n      pop\n      pop\n      jump\t// out\n        /* \"#utility.yul\":4384:4564   */\n    tag_116:\n        /* \"#utility.yul\":4432:4509   */\n      0x4e487b7100000000000000000000000000000000000000000000000000000000\n        /* \"#utility.yul\":4429:4430   */\n      0x00\n        /* \"#utility.yul\":4422:4510   */\n      mstore\n        /* \"#utility.yul\":4529:4533   */\n      0x12\n        /* \"#utility.yul\":4526:4527   */\n      0x04\n        /* \"#utility.yul\":4519:4534   */\n      mstore\n        /* \"#utility.yul\":4553:4557   */\n      0x24\n        /* \"#utility.yul\":4550:4551   */\n      0x00\n        /* \"#utility.yul\":4543:4558   */\n      revert\n        /* \"#utility.yul\":4756:4941   */\n    tag_98:\n        /* \"#utility.yul\":4796:4797   */\n      0x00\n        /* \"#utility.yul\":4813:4833   */\n      tag_174\n        /* \"#utility.yul\":4831:4832   */\n      dup3\n        /* \"#utility.yul\":4813:4833   */\n      tag_104\n      jump\t// in\n    tag_174:\n        /* \"#utility.yul\":4808:4833   */\n      swap2\n      pop\n        /* \"#utility.yul\":4847:4867   */\n      tag_175\n        /* \"#utility.yul\":4865:4866   */\n      dup4\n        /* \"#utility.yul\":4847:4867   */\n      tag_104\n      jump\t// in\n    tag_175:\n        /* \"#utility.yul\":4842:4867   */\n      swap3\n      pop\n        /* \"#utility.yul\":4886:4887   */\n      dup3\n        /* \"#utility.yul\":4876:4911   */\n      tag_176\n      jumpi\n        /* \"#utility.yul\":4891:4909   */\n      tag_177\n      tag_116\n      jump\t// in\n    tag_177:\n        /* \"#utility.yul\":4876:4911   */\n    tag_176:\n        /* \"#utility.yul\":4933:4934   */\n      dup3\n        /* \"#utility.yul\":4930:4931   */\n      dup3\n        /* \"#utility.yul\":4926:4935   */\n      div\n        /* \"#utility.yul\":4921:4935   */\n      swap1\n      pop\n        /* \"#utility.yul\":4756:4941   */\n      swap3\n      swap2\n      pop\n      pop\n      jump\t// out\n\n    auxdata: 0xa2646970667358221220c1ac0929712066757b084a12b53e325420c2a5c40ebca8c15140da5ecfda324664736f6c63430008190033\n}\n",
				"bytecode": {
					"linkReferences": {},
					"object": "608060405234801561000f575f80fd5b50604051610cf9380380610cf983398181016040528101906100319190610215565b335f806101000a81548173ffffffffffffffffffffffffffffffffffffffff021916908373ffffffffffffffffffffffffffffffffffffffff1602179055503360035f6101000a81548173ffffffffffffffffffffffffffffffffffffffff021916908373ffffffffffffffffffffffffffffffffffffffff1602179055508160015f6101000a81548173ffffffffffffffffffffffffffffffffffffffff021916908373ffffffffffffffffffffffffffffffffffffffff1602179055508060025f6101000a81548173ffffffffffffffffffffffffffffffffffffffff021916908373ffffffffffffffffffffffffffffffffffffffff1602179055508060065f6101000a81548173ffffffffffffffffffffffffffffffffffffffff021916908373ffffffffffffffffffffffffffffffffffffffff1602179055508160075f6101000a81548173ffffffffffffffffffffffffffffffffffffffff021916908373ffffffffffffffffffffffffffffffffffffffff1602179055505050610253565b5f80fd5b5f73ffffffffffffffffffffffffffffffffffffffff82169050919050565b5f6101e4826101bb565b9050919050565b6101f4816101da565b81146101fe575f80fd5b50565b5f8151905061020f816101eb565b92915050565b5f806040838503121561022b5761022a6101b7565b5b5f61023885828601610201565b925050602061024985828601610201565b9150509250929050565b610a99806102605f395ff3fe608060405234801561000f575f80fd5b50600436106100cd575f3560e01c80638da5cb5b1161008a578063c80f4e3511610064578063c80f4e35146101c9578063d212a69a146101ff578063f2fde38b1461021d578063fb5b82d014610239576100cd565b80638da5cb5b1461016f5780638e9915921461018d5780638f32d59b146101ab576100cd565b806304bb60ce146100d1578063235b6ea1146100ef57806336171e0e1461010d578063491d0a5614610129578063715018a6146101475780637c0b8de214610151575b5f80fd5b6100d9610255565b6040516100e6919061082f565b60405180910390f35b6100f761027a565b6040516101049190610860565b60405180910390f35b610127600480360381019061012291906108a7565b610280565b005b6101316102dc565b60405161013e919061082f565b60405180910390f35b61014f610301565b005b6101596103b4565b604051610166919061082f565b60405180910390f35b6101776103d9565b604051610184919061082f565b60405180910390f35b610195610400565b6040516101a2919061082f565b60405180910390f35b6101b3610425565b6040516101c091906108ec565b60405180910390f35b6101e360048036038101906101de919061092f565b61047a565b6040516101f6979695949392919061095a565b60405180910390f35b6102076104f2565b6040516102149190610860565b60405180910390f35b610237600480360381019061023291906108a7565b6104f8565b005b610253600480360381019061024e91906108a7565b610514565b005b60025f9054906101000a900473ffffffffffffffffffffffffffffffffffffffff1681565b60055481565b610288610425565b610290575f80fd5b8060045f6101000a81548173ffffffffffffffffffffffffffffffffffffffff021916908373ffffffffffffffffffffffffffffffffffffffff1602179055506102d8610567565b5050565b60045f9054906101000a900473ffffffffffffffffffffffffffffffffffffffff1681565b610309610425565b610311575f80fd5b5f8054906101000a900473ffffffffffffffffffffffffffffffffffffffff1673ffffffffffffffffffffffffffffffffffffffff167ff8df31144d9c2f0f6b59d69b8b98abd5459d07f2742c4df920b25aae33c6482060405160405180910390a25f805f6101000a81548173ffffffffffffffffffffffffffffffffffffffff021916908373ffffffffffffffffffffffffffffffffffffffff160217905550565b60015f9054906101000a900473ffffffffffffffffffffffffffffffffffffffff1681565b5f805f9054906101000a900473ffffffffffffffffffffffffffffffffffffffff16905090565b60035f9054906101000a900473ffffffffffffffffffffffffffffffffffffffff1681565b5f805f9054906101000a900473ffffffffffffffffffffffffffffffffffffffff1673ffffffffffffffffffffffffffffffffffffffff163373ffffffffffffffffffffffffffffffffffffffff1614905090565b60098181548110610489575f80fd5b905f5260205f2090600702015f91509050805f015f9054906101000a900473ffffffffffffffffffffffffffffffffffffffff1690806001015490806002015490806003015490806004015490806005015f9054906101000a900460ff16908060060154905087565b600a5481565b610500610425565b610508575f80fd5b610511816106fe565b50565b61051c610425565b610524575f80fd5b8060035f6101000a81548173ffffffffffffffffffffffffffffffffffffffff021916908373ffffffffffffffffffffffffffffffffffffffff16021790555050565b5f8060065f9054906101000a900473ffffffffffffffffffffffffffffffffffffffff1673ffffffffffffffffffffffffffffffffffffffff166370a0823160045f9054906101000a900473ffffffffffffffffffffffffffffffffffffffff166040518263ffffffff1660e01b81526004016105e4919061082f565b602060405180830381865afa1580156105ff573d5f803e3d5ffd5b505050506040513d601f19601f8201168201806040525081019061062391906109db565b90505f60075f9054906101000a900473ffffffffffffffffffffffffffffffffffffffff1673ffffffffffffffffffffffffffffffffffffffff166370a0823160045f9054906101000a900473ffffffffffffffffffffffffffffffffffffffff166040518263ffffffff1660e01b81526004016106a1919061082f565b602060405180830381865afa1580156106bc573d5f803e3d5ffd5b505050506040513d601f19601f820116820180604052508101906106e091906109db565b905080826106ee9190610a33565b6005819055506005549250505090565b5f73ffffffffffffffffffffffffffffffffffffffff168173ffffffffffffffffffffffffffffffffffffffff1603610735575f80fd5b8073ffffffffffffffffffffffffffffffffffffffff165f8054906101000a900473ffffffffffffffffffffffffffffffffffffffff1673ffffffffffffffffffffffffffffffffffffffff167f8be0079c531659141344cd1fd0a4f28419497f9722a3daafe3b4186f6b6457e060405160405180910390a3805f806101000a81548173ffffffffffffffffffffffffffffffffffffffff021916908373ffffffffffffffffffffffffffffffffffffffff16021790555050565b5f73ffffffffffffffffffffffffffffffffffffffff82169050919050565b5f610819826107f0565b9050919050565b6108298161080f565b82525050565b5f6020820190506108425f830184610820565b92915050565b5f819050919050565b61085a81610848565b82525050565b5f6020820190506108735f830184610851565b92915050565b5f80fd5b6108868161080f565b8114610890575f80fd5b50565b5f813590506108a18161087d565b92915050565b5f602082840312156108bc576108bb610879565b5b5f6108c984828501610893565b91505092915050565b5f8115159050919050565b6108e6816108d2565b82525050565b5f6020820190506108ff5f8301846108dd565b92915050565b61090e81610848565b8114610918575f80fd5b50565b5f8135905061092981610905565b92915050565b5f6020828403121561094457610943610879565b5b5f6109518482850161091b565b91505092915050565b5f60e08201905061096d5f83018a610820565b61097a6020830189610851565b6109876040830188610851565b6109946060830187610851565b6109a16080830186610851565b6109ae60a08301856108dd565b6109bb60c0830184610851565b98975050505050505050565b5f815190506109d581610905565b92915050565b5f602082840312156109f0576109ef610879565b5b5f6109fd848285016109c7565b91505092915050565b7f4e487b71000000000000000000000000000000000000000000000000000000005f52601260045260245ffd5b5f610a3d82610848565b9150610a4883610848565b925082610a5857610a57610a06565b5b82820490509291505056fea2646970667358221220c1ac0929712066757b084a12b53e325420c2a5c40ebca8c15140da5ecfda324664736f6c63430008190033",
					"opcodes": "PUSH1 0x80 PUSH1 0x40 MSTORE CALLVALUE DUP1 ISZERO PUSH2 0xF JUMPI PUSH0 DUP1 REVERT JUMPDEST POP PUSH1 0x40 MLOAD PUSH2 0xCF9 CODESIZE SUB DUP1 PUSH2 0xCF9 DUP4 CODECOPY DUP2 DUP2 ADD PUSH1 0x40 MSTORE DUP2 ADD SWAP1 PUSH2 0x31 SWAP2 SWAP1 PUSH2 0x215 JUMP JUMPDEST CALLER PUSH0 DUP1 PUSH2 0x100 EXP DUP2 SLOAD DUP2 PUSH20 0xFFFFFFFFFFFFFFFFFFFFFFFFFFFFFFFFFFFFFFFF MUL NOT AND SWAP1 DUP4 PUSH20 0xFFFFFFFFFFFFFFFFFFFFFFFFFFFFFFFFFFFFFFFF AND MUL OR SWAP1 SSTORE POP CALLER PUSH1 0x3 PUSH0 PUSH2 0x100 EXP DUP2 SLOAD DUP2 PUSH20 0xFFFFFFFFFFFFFFFFFFFFFFFFFFFFFFFFFFFFFFFF MUL NOT AND SWAP1 DUP4 PUSH20 0xFFFFFFFFFFFFFFFFFFFFFFFFFFFFFFFFFFFFFFFF AND MUL OR SWAP1 SSTORE POP DUP2 PUSH1 0x1 PUSH0 PUSH2 0x100 EXP DUP2 SLOAD DUP2 PUSH20 0xFFFFFFFFFFFFFFFFFFFFFFFFFFFFFFFFFFFFFFFF MUL NOT AND SWAP1 DUP4 PUSH20 0xFFFFFFFFFFFFFFFFFFFFFFFFFFFFFFFFFFFFFFFF AND MUL OR SWAP1 SSTORE POP DUP1 PUSH1 0x2 PUSH0 PUSH2 0x100 EXP DUP2 SLOAD DUP2 PUSH20 0xFFFFFFFFFFFFFFFFFFFFFFFFFFFFFFFFFFFFFFFF MUL NOT AND SWAP1 DUP4 PUSH20 0xFFFFFFFFFFFFFFFFFFFFFFFFFFFFFFFFFFFFFFFF AND MUL OR SWAP1 SSTORE POP DUP1 PUSH1 0x6 PUSH0 PUSH2 0x100 EXP DUP2 SLOAD DUP2 PUSH20 0xFFFFFFFFFFFFFFFFFFFFFFFFFFFFFFFFFFFFFFFF MUL NOT AND SWAP1 DUP4 PUSH20 0xFFFFFFFFFFFFFFFFFFFFFFFFFFFFFFFFFFFFFFFF AND MUL OR SWAP1 SSTORE POP DUP2 PUSH1 0x7 PUSH0 PUSH2 0x100 EXP DUP2 SLOAD DUP2 PUSH20 0xFFFFFFFFFFFFFFFFFFFFFFFFFFFFFFFFFFFFFFFF MUL NOT AND SWAP1 DUP4 PUSH20 0xFFFFFFFFFFFFFFFFFFFFFFFFFFFFFFFFFFFFFFFF AND MUL OR SWAP1 SSTORE POP POP POP PUSH2 0x253 JUMP JUMPDEST PUSH0 DUP1 REVERT JUMPDEST PUSH0 PUSH20 0xFFFFFFFFFFFFFFFFFFFFFFFFFFFFFFFFFFFFFFFF DUP3 AND SWAP1 POP SWAP2 SWAP1 POP JUMP JUMPDEST PUSH0 PUSH2 0x1E4 DUP3 PUSH2 0x1BB JUMP JUMPDEST SWAP1 POP SWAP2 SWAP1 POP JUMP JUMPDEST PUSH2 0x1F4 DUP2 PUSH2 0x1DA JUMP JUMPDEST DUP2 EQ PUSH2 0x1FE JUMPI PUSH0 DUP1 REVERT JUMPDEST POP JUMP JUMPDEST PUSH0 DUP2 MLOAD SWAP1 POP PUSH2 0x20F DUP2 PUSH2 0x1EB JUMP JUMPDEST SWAP3 SWAP2 POP POP JUMP JUMPDEST PUSH0 DUP1 PUSH1 0x40 DUP4 DUP6 SUB SLT ISZERO PUSH2 0x22B JUMPI PUSH2 0x22A PUSH2 0x1B7 JUMP JUMPDEST JUMPDEST PUSH0 PUSH2 0x238 DUP6 DUP3 DUP7 ADD PUSH2 0x201 JUMP JUMPDEST SWAP3 POP POP PUSH1 0x20 PUSH2 0x249 DUP6 DUP3 DUP7 ADD PUSH2 0x201 JUMP JUMPDEST SWAP2 POP POP SWAP3 POP SWAP3 SWAP1 POP JUMP JUMPDEST PUSH2 0xA99 DUP1 PUSH2 0x260 PUSH0 CODECOPY PUSH0 RETURN INVALID PUSH1 0x80 PUSH1 0x40 MSTORE CALLVALUE DUP1 ISZERO PUSH2 0xF JUMPI PUSH0 DUP1 REVERT JUMPDEST POP PUSH1 0x4 CALLDATASIZE LT PUSH2 0xCD JUMPI PUSH0 CALLDATALOAD PUSH1 0xE0 SHR DUP1 PUSH4 0x8DA5CB5B GT PUSH2 0x8A JUMPI DUP1 PUSH4 0xC80F4E35 GT PUSH2 0x64 JUMPI DUP1 PUSH4 0xC80F4E35 EQ PUSH2 0x1C9 JUMPI DUP1 PUSH4 0xD212A69A EQ PUSH2 0x1FF JUMPI DUP1 PUSH4 0xF2FDE38B EQ PUSH2 0x21D JUMPI DUP1 PUSH4 0xFB5B82D0 EQ PUSH2 0x239 JUMPI PUSH2 0xCD JUMP JUMPDEST DUP1 PUSH4 0x8DA5CB5B EQ PUSH2 0x16F JUMPI DUP1 PUSH4 0x8E991592 EQ PUSH2 0x18D JUMPI DUP1 PUSH4 0x8F32D59B EQ PUSH2 0x1AB JUMPI PUSH2 0xCD JUMP JUMPDEST DUP1 PUSH4 0x4BB60CE EQ PUSH2 0xD1 JUMPI DUP1 PUSH4 0x235B6EA1 EQ PUSH2 0xEF JUMPI DUP1 PUSH4 0x36171E0E EQ PUSH2 0x10D JUMPI DUP1 PUSH4 0x491D0A56 EQ PUSH2 0x129 JUMPI DUP1 PUSH4 0x715018A6 EQ PUSH2 0x147 JUMPI DUP1 PUSH4 0x7C0B8DE2 EQ PUSH2 0x151 JUMPI JUMPDEST PUSH0 DUP1 REVERT JUMPDEST PUSH2 0xD9 PUSH2 0x255 JUMP JUMPDEST PUSH1 0x40 MLOAD PUSH2 0xE6 SWAP2 SWAP1 PUSH2 0x82F JUMP JUMPDEST PUSH1 0x40 MLOAD DUP1 SWAP2 SUB SWAP1 RETURN JUMPDEST PUSH2 0xF7 PUSH2 0x27A JUMP JUMPDEST PUSH1 0x40 MLOAD PUSH2 0x104 SWAP2 SWAP1 PUSH2 0x860 JUMP JUMPDEST PUSH1 0x40 MLOAD DUP1 SWAP2 SUB SWAP1 RETURN JUMPDEST PUSH2 0x127 PUSH1 0x4 DUP1 CALLDATASIZE SUB DUP2 ADD SWAP1 PUSH2 0x122 SWAP2 SWAP1 PUSH2 0x8A7 JUMP JUMPDEST PUSH2 0x280 JUMP JUMPDEST STOP JUMPDEST PUSH2 0x131 PUSH2 0x2DC JUMP JUMPDEST PUSH1 0x40 MLOAD PUSH2 0x13E SWAP2 SWAP1 PUSH2 0x82F JUMP JUMPDEST PUSH1 0x40 MLOAD DUP1 SWAP2 SUB SWAP1 RETURN JUMPDEST PUSH2 0x14F PUSH2 0x301 JUMP JUMPDEST STOP JUMPDEST PUSH2 0x159 PUSH2 0x3B4 JUMP JUMPDEST PUSH1 0x40 MLOAD PUSH2 0x166 SWAP2 SWAP1 PUSH2 0x82F JUMP JUMPDEST PUSH1 0x40 MLOAD DUP1 SWAP2 SUB SWAP1 RETURN JUMPDEST PUSH2 0x177 PUSH2 0x3D9 JUMP JUMPDEST PUSH1 0x40 MLOAD PUSH2 0x184 SWAP2 SWAP1 PUSH2 0x82F JUMP JUMPDEST PUSH1 0x40 MLOAD DUP1 SWAP2 SUB SWAP1 RETURN JUMPDEST PUSH2 0x195 PUSH2 0x400 JUMP JUMPDEST PUSH1 0x40 MLOAD PUSH2 0x1A2 SWAP2 SWAP1 PUSH2 0x82F JUMP JUMPDEST PUSH1 0x40 MLOAD DUP1 SWAP2 SUB SWAP1 RETURN JUMPDEST PUSH2 0x1B3 PUSH2 0x425 JUMP JUMPDEST PUSH1 0x40 MLOAD PUSH2 0x1C0 SWAP2 SWAP1 PUSH2 0x8EC JUMP JUMPDEST PUSH1 0x40 MLOAD DUP1 SWAP2 SUB SWAP1 RETURN JUMPDEST PUSH2 0x1E3 PUSH1 0x4 DUP1 CALLDATASIZE SUB DUP2 ADD SWAP1 PUSH2 0x1DE SWAP2 SWAP1 PUSH2 0x92F JUMP JUMPDEST PUSH2 0x47A JUMP JUMPDEST PUSH1 0x40 MLOAD PUSH2 0x1F6 SWAP8 SWAP7 SWAP6 SWAP5 SWAP4 SWAP3 SWAP2 SWAP1 PUSH2 0x95A JUMP JUMPDEST PUSH1 0x40 MLOAD DUP1 SWAP2 SUB SWAP1 RETURN JUMPDEST PUSH2 0x207 PUSH2 0x4F2 JUMP JUMPDEST PUSH1 0x40 MLOAD PUSH2 0x214 SWAP2 SWAP1 PUSH2 0x860 JUMP JUMPDEST PUSH1 0x40 MLOAD DUP1 SWAP2 SUB SWAP1 RETURN JUMPDEST PUSH2 0x237 PUSH1 0x4 DUP1 CALLDATASIZE SUB DUP2 ADD SWAP1 PUSH2 0x232 SWAP2 SWAP1 PUSH2 0x8A7 JUMP JUMPDEST PUSH2 0x4F8 JUMP JUMPDEST STOP JUMPDEST PUSH2 0x253 PUSH1 0x4 DUP1 CALLDATASIZE SUB DUP2 ADD SWAP1 PUSH2 0x24E SWAP2 SWAP1 PUSH2 0x8A7 JUMP JUMPDEST PUSH2 0x514 JUMP JUMPDEST STOP JUMPDEST PUSH1 0x2 PUSH0 SWAP1 SLOAD SWAP1 PUSH2 0x100 EXP SWAP1 DIV PUSH20 0xFFFFFFFFFFFFFFFFFFFFFFFFFFFFFFFFFFFFFFFF AND DUP2 JUMP JUMPDEST PUSH1 0x5 SLOAD DUP2 JUMP JUMPDEST PUSH2 0x288 PUSH2 0x425 JUMP JUMPDEST PUSH2 0x290 JUMPI PUSH0 DUP1 REVERT JUMPDEST DUP1 PUSH1 0x4 PUSH0 PUSH2 0x100 EXP DUP2 SLOAD DUP2 PUSH20 0xFFFFFFFFFFFFFFFFFFFFFFFFFFFFFFFFFFFFFFFF MUL NOT AND SWAP1 DUP4 PUSH20 0xFFFFFFFFFFFFFFFFFFFFFFFFFFFFFFFFFFFFFFFF AND MUL OR SWAP1 SSTORE POP PUSH2 0x2D8 PUSH2 0x567 JUMP JUMPDEST POP POP JUMP JUMPDEST PUSH1 0x4 PUSH0 SWAP1 SLOAD SWAP1 PUSH2 0x100 EXP SWAP1 DIV PUSH20 0xFFFFFFFFFFFFFFFFFFFFFFFFFFFFFFFFFFFFFFFF AND DUP2 JUMP JUMPDEST PUSH2 0x309 PUSH2 0x425 JUMP JUMPDEST PUSH2 0x311 JUMPI PUSH0 DUP1 REVERT JUMPDEST PUSH0 DUP1 SLOAD SWAP1 PUSH2 0x100 EXP SWAP1 DIV PUSH20 0xFFFFFFFFFFFFFFFFFFFFFFFFFFFFFFFFFFFFFFFF AND PUSH20 0xFFFFFFFFFFFFFFFFFFFFFFFFFFFFFFFFFFFFFFFF AND PUSH32 0xF8DF31144D9C2F0F6B59D69B8B98ABD5459D07F2742C4DF920B25AAE33C64820 PUSH1 0x40 MLOAD PUSH1 0x40 MLOAD DUP1 SWAP2 SUB SWAP1 LOG2 PUSH0 DUP1 PUSH0 PUSH2 0x100 EXP DUP2 SLOAD DUP2 PUSH20 0xFFFFFFFFFFFFFFFFFFFFFFFFFFFFFFFFFFFFFFFF MUL NOT AND SWAP1 DUP4 PUSH20 0xFFFFFFFFFFFFFFFFFFFFFFFFFFFFFFFFFFFFFFFF AND MUL OR SWAP1 SSTORE POP JUMP JUMPDEST PUSH1 0x1 PUSH0 SWAP1 SLOAD SWAP1 PUSH2 0x100 EXP SWAP1 DIV PUSH20 0xFFFFFFFFFFFFFFFFFFFFFFFFFFFFFFFFFFFFFFFF AND DUP2 JUMP JUMPDEST PUSH0 DUP1 PUSH0 SWAP1 SLOAD SWAP1 PUSH2 0x100 EXP SWAP1 DIV PUSH20 0xFFFFFFFFFFFFFFFFFFFFFFFFFFFFFFFFFFFFFFFF AND SWAP1 POP SWAP1 JUMP JUMPDEST PUSH1 0x3 PUSH0 SWAP1 SLOAD SWAP1 PUSH2 0x100 EXP SWAP1 DIV PUSH20 0xFFFFFFFFFFFFFFFFFFFFFFFFFFFFFFFFFFFFFFFF AND DUP2 JUMP JUMPDEST PUSH0 DUP1 PUSH0 SWAP1 SLOAD SWAP1 PUSH2 0x100 EXP SWAP1 DIV PUSH20 0xFFFFFFFFFFFFFFFFFFFFFFFFFFFFFFFFFFFFFFFF AND PUSH20 0xFFFFFFFFFFFFFFFFFFFFFFFFFFFFFFFFFFFFFFFF AND CALLER PUSH20 0xFFFFFFFFFFFFFFFFFFFFFFFFFFFFFFFFFFFFFFFF AND EQ SWAP1 POP SWAP1 JUMP JUMPDEST PUSH1 0x9 DUP2 DUP2 SLOAD DUP2 LT PUSH2 0x489 JUMPI PUSH0 DUP1 REVERT JUMPDEST SWAP1 PUSH0 MSTORE PUSH1 0x20 PUSH0 KECCAK256 SWAP1 PUSH1 0x7 MUL ADD PUSH0 SWAP2 POP SWAP1 POP DUP1 PUSH0 ADD PUSH0 SWAP1 SLOAD SWAP1 PUSH2 0x100 EXP SWAP1 DIV PUSH20 0xFFFFFFFFFFFFFFFFFFFFFFFFFFFFFFFFFFFFFFFF AND SWAP1 DUP1 PUSH1 0x1 ADD SLOAD SWAP1 DUP1 PUSH1 0x2 ADD SLOAD SWAP1 DUP1 PUSH1 0x3 ADD SLOAD SWAP1 DUP1 PUSH1 0x4 ADD SLOAD SWAP1 DUP1 PUSH1 0x5 ADD PUSH0 SWAP1 SLOAD SWAP1 PUSH2 0x100 EXP SWAP1 DIV PUSH1 0xFF AND SWAP1 DUP1 PUSH1 0x6 ADD SLOAD SWAP1 POP DUP8 JUMP JUMPDEST PUSH1 0xA SLOAD DUP2 JUMP JUMPDEST PUSH2 0x500 PUSH2 0x425 JUMP JUMPDEST PUSH2 0x508 JUMPI PUSH0 DUP1 REVERT JUMPDEST PUSH2 0x511 DUP2 PUSH2 0x6FE JUMP JUMPDEST POP JUMP JUMPDEST PUSH2 0x51C PUSH2 0x425 JUMP JUMPDEST PUSH2 0x524 JUMPI PUSH0 DUP1 REVERT JUMPDEST DUP1 PUSH1 0x3 PUSH0 PUSH2 0x100 EXP DUP2 SLOAD DUP2 PUSH20 0xFFFFFFFFFFFFFFFFFFFFFFFFFFFFFFFFFFFFFFFF MUL NOT AND SWAP1 DUP4 PUSH20 0xFFFFFFFFFFFFFFFFFFFFFFFFFFFFFFFFFFFFFFFF AND MUL OR SWAP1 SSTORE POP POP JUMP JUMPDEST PUSH0 DUP1 PUSH1 0x6 PUSH0 SWAP1 SLOAD SWAP1 PUSH2 0x100 EXP SWAP1 DIV PUSH20 0xFFFFFFFFFFFFFFFFFFFFFFFFFFFFFFFFFFFFFFFF AND PUSH20 0xFFFFFFFFFFFFFFFFFFFFFFFFFFFFFFFFFFFFFFFF AND PUSH4 0x70A08231 PUSH1 0x4 PUSH0 SWAP1 SLOAD SWAP1 PUSH2 0x100 EXP SWAP1 DIV PUSH20 0xFFFFFFFFFFFFFFFFFFFFFFFFFFFFFFFFFFFFFFFF AND PUSH1 0x40 MLOAD DUP3 PUSH4 0xFFFFFFFF AND PUSH1 0xE0 SHL DUP2 MSTORE PUSH1 0x4 ADD PUSH2 0x5E4 SWAP2 SWAP1 PUSH2 0x82F JUMP JUMPDEST PUSH1 0x20 PUSH1 0x40 MLOAD DUP1 DUP4 SUB DUP2 DUP7 GAS STATICCALL ISZERO DUP1 ISZERO PUSH2 0x5FF JUMPI RETURNDATASIZE PUSH0 DUP1 RETURNDATACOPY RETURNDATASIZE PUSH0 REVERT JUMPDEST POP POP POP POP PUSH1 0x40 MLOAD RETURNDATASIZE PUSH1 0x1F NOT PUSH1 0x1F DUP3 ADD AND DUP3 ADD DUP1 PUSH1 0x40 MSTORE POP DUP2 ADD SWAP1 PUSH2 0x623 SWAP2 SWAP1 PUSH2 0x9DB JUMP JUMPDEST SWAP1 POP PUSH0 PUSH1 0x7 PUSH0 SWAP1 SLOAD SWAP1 PUSH2 0x100 EXP SWAP1 DIV PUSH20 0xFFFFFFFFFFFFFFFFFFFFFFFFFFFFFFFFFFFFFFFF AND PUSH20 0xFFFFFFFFFFFFFFFFFFFFFFFFFFFFFFFFFFFFFFFF AND PUSH4 0x70A08231 PUSH1 0x4 PUSH0 SWAP1 SLOAD SWAP1 PUSH2 0x100 EXP SWAP1 DIV PUSH20 0xFFFFFFFFFFFFFFFFFFFFFFFFFFFFFFFFFFFFFFFF AND PUSH1 0x40 MLOAD DUP3 PUSH4 0xFFFFFFFF AND PUSH1 0xE0 SHL DUP2 MSTORE PUSH1 0x4 ADD PUSH2 0x6A1 SWAP2 SWAP1 PUSH2 0x82F JUMP JUMPDEST PUSH1 0x20 PUSH1 0x40 MLOAD DUP1 DUP4 SUB DUP2 DUP7 GAS STATICCALL ISZERO DUP1 ISZERO PUSH2 0x6BC JUMPI RETURNDATASIZE PUSH0 DUP1 RETURNDATACOPY RETURNDATASIZE PUSH0 REVERT JUMPDEST POP POP POP POP PUSH1 0x40 MLOAD RETURNDATASIZE PUSH1 0x1F NOT PUSH1 0x1F DUP3 ADD AND DUP3 ADD DUP1 PUSH1 0x40 MSTORE POP DUP2 ADD SWAP1 PUSH2 0x6E0 SWAP2 SWAP1 PUSH2 0x9DB JUMP JUMPDEST SWAP1 POP DUP1 DUP3 PUSH2 0x6EE SWAP2 SWAP1 PUSH2 0xA33 JUMP JUMPDEST PUSH1 0x5 DUP2 SWAP1 SSTORE POP PUSH1 0x5 SLOAD SWAP3 POP POP POP SWAP1 JUMP JUMPDEST PUSH0 PUSH20 0xFFFFFFFFFFFFFFFFFFFFFFFFFFFFFFFFFFFFFFFF AND DUP2 PUSH20 0xFFFFFFFFFFFFFFFFFFFFFFFFFFFFFFFFFFFFFFFF AND SUB PUSH2 0x735 JUMPI PUSH0 DUP1 REVERT JUMPDEST DUP1 PUSH20 0xFFFFFFFFFFFFFFFFFFFFFFFFFFFFFFFFFFFFFFFF AND PUSH0 DUP1 SLOAD SWAP1 PUSH2 0x100 EXP SWAP1 DIV PUSH20 0xFFFFFFFFFFFFFFFFFFFFFFFFFFFFFFFFFFFFFFFF AND PUSH20 0xFFFFFFFFFFFFFFFFFFFFFFFFFFFFFFFFFFFFFFFF AND PUSH32 0x8BE0079C531659141344CD1FD0A4F28419497F9722A3DAAFE3B4186F6B6457E0 PUSH1 0x40 MLOAD PUSH1 0x40 MLOAD DUP1 SWAP2 SUB SWAP1 LOG3 DUP1 PUSH0 DUP1 PUSH2 0x100 EXP DUP2 SLOAD DUP2 PUSH20 0xFFFFFFFFFFFFFFFFFFFFFFFFFFFFFFFFFFFFFFFF MUL NOT AND SWAP1 DUP4 PUSH20 0xFFFFFFFFFFFFFFFFFFFFFFFFFFFFFFFFFFFFFFFF AND MUL OR SWAP1 SSTORE POP POP JUMP JUMPDEST PUSH0 PUSH20 0xFFFFFFFFFFFFFFFFFFFFFFFFFFFFFFFFFFFFFFFF DUP3 AND SWAP1 POP SWAP2 SWAP1 POP JUMP JUMPDEST PUSH0 PUSH2 0x819 DUP3 PUSH2 0x7F0 JUMP JUMPDEST SWAP1 POP SWAP2 SWAP1 POP JUMP JUMPDEST PUSH2 0x829 DUP2 PUSH2 0x80F JUMP JUMPDEST DUP3 MSTORE POP POP JUMP JUMPDEST PUSH0 PUSH1 0x20 DUP3 ADD SWAP1 POP PUSH2 0x842 PUSH0 DUP4 ADD DUP5 PUSH2 0x820 JUMP JUMPDEST SWAP3 SWAP2 POP POP JUMP JUMPDEST PUSH0 DUP2 SWAP1 POP SWAP2 SWAP1 POP JUMP JUMPDEST PUSH2 0x85A DUP2 PUSH2 0x848 JUMP JUMPDEST DUP3 MSTORE POP POP JUMP JUMPDEST PUSH0 PUSH1 0x20 DUP3 ADD SWAP1 POP PUSH2 0x873 PUSH0 DUP4 ADD DUP5 PUSH2 0x851 JUMP JUMPDEST SWAP3 SWAP2 POP POP JUMP JUMPDEST PUSH0 DUP1 REVERT JUMPDEST PUSH2 0x886 DUP2 PUSH2 0x80F JUMP JUMPDEST DUP2 EQ PUSH2 0x890 JUMPI PUSH0 DUP1 REVERT JUMPDEST POP JUMP JUMPDEST PUSH0 DUP2 CALLDATALOAD SWAP1 POP PUSH2 0x8A1 DUP2 PUSH2 0x87D JUMP JUMPDEST SWAP3 SWAP2 POP POP JUMP JUMPDEST PUSH0 PUSH1 0x20 DUP3 DUP5 SUB SLT ISZERO PUSH2 0x8BC JUMPI PUSH2 0x8BB PUSH2 0x879 JUMP JUMPDEST JUMPDEST PUSH0 PUSH2 0x8C9 DUP5 DUP3 DUP6 ADD PUSH2 0x893 JUMP JUMPDEST SWAP2 POP POP SWAP3 SWAP2 POP POP JUMP JUMPDEST PUSH0 DUP2 ISZERO ISZERO SWAP1 POP SWAP2 SWAP1 POP JUMP JUMPDEST PUSH2 0x8E6 DUP2 PUSH2 0x8D2 JUMP JUMPDEST DUP3 MSTORE POP POP JUMP JUMPDEST PUSH0 PUSH1 0x20 DUP3 ADD SWAP1 POP PUSH2 0x8FF PUSH0 DUP4 ADD DUP5 PUSH2 0x8DD JUMP JUMPDEST SWAP3 SWAP2 POP POP JUMP JUMPDEST PUSH2 0x90E DUP2 PUSH2 0x848 JUMP JUMPDEST DUP2 EQ PUSH2 0x918 JUMPI PUSH0 DUP1 REVERT JUMPDEST POP JUMP JUMPDEST PUSH0 DUP2 CALLDATALOAD SWAP1 POP PUSH2 0x929 DUP2 PUSH2 0x905 JUMP JUMPDEST SWAP3 SWAP2 POP POP JUMP JUMPDEST PUSH0 PUSH1 0x20 DUP3 DUP5 SUB SLT ISZERO PUSH2 0x944 JUMPI PUSH2 0x943 PUSH2 0x879 JUMP JUMPDEST JUMPDEST PUSH0 PUSH2 0x951 DUP5 DUP3 DUP6 ADD PUSH2 0x91B JUMP JUMPDEST SWAP2 POP POP SWAP3 SWAP2 POP POP JUMP JUMPDEST PUSH0 PUSH1 0xE0 DUP3 ADD SWAP1 POP PUSH2 0x96D PUSH0 DUP4 ADD DUP11 PUSH2 0x820 JUMP JUMPDEST PUSH2 0x97A PUSH1 0x20 DUP4 ADD DUP10 PUSH2 0x851 JUMP JUMPDEST PUSH2 0x987 PUSH1 0x40 DUP4 ADD DUP9 PUSH2 0x851 JUMP JUMPDEST PUSH2 0x994 PUSH1 0x60 DUP4 ADD DUP8 PUSH2 0x851 JUMP JUMPDEST PUSH2 0x9A1 PUSH1 0x80 DUP4 ADD DUP7 PUSH2 0x851 JUMP JUMPDEST PUSH2 0x9AE PUSH1 0xA0 DUP4 ADD DUP6 PUSH2 0x8DD JUMP JUMPDEST PUSH2 0x9BB PUSH1 0xC0 DUP4 ADD DUP5 PUSH2 0x851 JUMP JUMPDEST SWAP9 SWAP8 POP POP POP POP POP POP POP POP JUMP JUMPDEST PUSH0 DUP2 MLOAD SWAP1 POP PUSH2 0x9D5 DUP2 PUSH2 0x905 JUMP JUMPDEST SWAP3 SWAP2 POP POP JUMP JUMPDEST PUSH0 PUSH1 0x20 DUP3 DUP5 SUB SLT ISZERO PUSH2 0x9F0 JUMPI PUSH2 0x9EF PUSH2 0x879 JUMP JUMPDEST JUMPDEST PUSH0 PUSH2 0x9FD DUP5 DUP3 DUP6 ADD PUSH2 0x9C7 JUMP JUMPDEST SWAP2 POP POP SWAP3 SWAP2 POP POP JUMP JUMPDEST PUSH32 0x4E487B7100000000000000000000000000000000000000000000000000000000 PUSH0 MSTORE PUSH1 0x12 PUSH1 0x4 MSTORE PUSH1 0x24 PUSH0 REVERT JUMPDEST PUSH0 PUSH2 0xA3D DUP3 PUSH2 0x848 JUMP JUMPDEST SWAP2 POP PUSH2 0xA48 DUP4 PUSH2 0x848 JUMP JUMPDEST SWAP3 POP DUP3 PUSH2 0xA58 JUMPI PUSH2 0xA57 PUSH2 0xA06 JUMP JUMPDEST JUMPDEST DUP3 DUP3 DIV SWAP1 POP SWAP3 SWAP2 POP POP JUMP INVALID LOG2 PUSH5 0x6970667358 0x22 SLT KECCAK256 0xC1 0xAC MULMOD 0x29 PUSH18 0x2066757B084A12B53E325420C2A5C40EBCA8 0xC1 MLOAD BLOCKHASH 0xDA MCOPY 0xCF 0xDA ORIGIN CHAINID PUSH5 0x736F6C6343 STOP ADDMOD NOT STOP CALLER "
				},
				"gasEstimates": {
					"creation": {
						"codeDepositCost": "542600",
						"executionCost": "infinite",
						"totalCost": "infinite"
					},
					"external": {
						"FFT()": "2509",
						"NFT()": "2619",
						"_collector()": "2553",
						"_fees()": "2469",
						"_liquidities(uint256)": "infinite",
						"_liquidity()": "2575",
						"_price()": "2448",
						"isOwner()": "2557",
						"owner()": "2538",
						"renounceOwnership()": "29993",
						"setCollector(address)": "27006",
						"setLiquidity(address)": "infinite",
						"transferOwnership(address)": "30724"
					},
					"internal": {
						"_computePrice()": "infinite"
					}
				},
				"methodIdentifiers": {
					"FFT()": "04bb60ce",
					"NFT()": "7c0b8de2",
					"_collector()": "8e991592",
					"_fees()": "d212a69a",
					"_liquidities(uint256)": "c80f4e35",
					"_liquidity()": "491d0a56",
					"_price()": "235b6ea1",
					"isOwner()": "8f32d59b",
					"owner()": "8da5cb5b",
					"renounceOwnership()": "715018a6",
					"setCollector(address)": "fb5b82d0",
					"setLiquidity(address)": "36171e0e",
					"transferOwnership(address)": "f2fde38b"
				}
			},
			"storageLayout": {
				"storage": [
					{
						"astId": 391,
						"contract": "contracts/HotswapControllerBase.sol:HotswapControllerBase",
						"label": "_owner",
						"offset": 0,
						"slot": "0",
						"type": "t_address"
					},
					{
						"astId": 82,
						"contract": "contracts/HotswapControllerBase.sol:HotswapControllerBase",
						"label": "NFT",
						"offset": 0,
						"slot": "1",
						"type": "t_address"
					},
					{
						"astId": 84,
						"contract": "contracts/HotswapControllerBase.sol:HotswapControllerBase",
						"label": "FFT",
						"offset": 0,
						"slot": "2",
						"type": "t_address"
					},
					{
						"astId": 86,
						"contract": "contracts/HotswapControllerBase.sol:HotswapControllerBase",
						"label": "_collector",
						"offset": 0,
						"slot": "3",
						"type": "t_address"
					},
					{
						"astId": 88,
						"contract": "contracts/HotswapControllerBase.sol:HotswapControllerBase",
						"label": "_liquidity",
						"offset": 0,
						"slot": "4",
						"type": "t_address"
					},
					{
						"astId": 90,
						"contract": "contracts/HotswapControllerBase.sol:HotswapControllerBase",
						"label": "_price",
						"offset": 0,
						"slot": "5",
						"type": "t_uint256"
					},
					{
						"astId": 93,
						"contract": "contracts/HotswapControllerBase.sol:HotswapControllerBase",
						"label": "_fft",
						"offset": 0,
						"slot": "6",
						"type": "t_contract(ERC20)560"
					},
					{
						"astId": 96,
						"contract": "contracts/HotswapControllerBase.sol:HotswapControllerBase",
						"label": "_nft",
						"offset": 0,
						"slot": "7",
						"type": "t_contract(ERC721Enumerable)640"
					},
					{
						"astId": 101,
						"contract": "contracts/HotswapControllerBase.sol:HotswapControllerBase",
						"label": "_liquidityByUser",
						"offset": 0,
						"slot": "8",
						"type": "t_mapping(t_address,t_array(t_uint256)dyn_storage)"
					},
					{
						"astId": 105,
						"contract": "contracts/HotswapControllerBase.sol:HotswapControllerBase",
						"label": "_liquidities",
						"offset": 0,
						"slot": "9",
						"type": "t_array(t_struct(Liquid)210_storage)dyn_storage"
					},
					{
						"astId": 107,
						"contract": "contracts/HotswapControllerBase.sol:HotswapControllerBase",
						"label": "_fees",
						"offset": 0,
						"slot": "10",
						"type": "t_uint256"
					}
				],
				"types": {
					"t_address": {
						"encoding": "inplace",
						"label": "address",
						"numberOfBytes": "20"
					},
					"t_array(t_struct(Liquid)210_storage)dyn_storage": {
						"base": "t_struct(Liquid)210_storage",
						"encoding": "dynamic_array",
						"label": "struct HotswapControllerBase.Liquid[]",
						"numberOfBytes": "32"
					},
					"t_array(t_uint256)dyn_storage": {
						"base": "t_uint256",
						"encoding": "dynamic_array",
						"label": "uint256[]",
						"numberOfBytes": "32"
					},
					"t_bool": {
						"encoding": "inplace",
						"label": "bool",
						"numberOfBytes": "1"
					},
					"t_contract(ERC20)560": {
						"encoding": "inplace",
						"label": "contract ERC20",
						"numberOfBytes": "20"
					},
					"t_contract(ERC721Enumerable)640": {
						"encoding": "inplace",
						"label": "contract ERC721Enumerable",
						"numberOfBytes": "20"
					},
					"t_mapping(t_address,t_array(t_uint256)dyn_storage)": {
						"encoding": "mapping",
						"key": "t_address",
						"label": "mapping(address => uint256[])",
						"numberOfBytes": "32",
						"value": "t_array(t_uint256)dyn_storage"
					},
					"t_struct(Liquid)210_storage": {
						"encoding": "inplace",
						"label": "struct HotswapControllerBase.Liquid",
						"members": [
							{
								"astId": 197,
								"contract": "contracts/HotswapControllerBase.sol:HotswapControllerBase",
								"label": "depositor",
								"offset": 0,
								"slot": "0",
								"type": "t_address"
							},
							{
								"astId": 199,
								"contract": "contracts/HotswapControllerBase.sol:HotswapControllerBase",
								"label": "depositedAt",
								"offset": 0,
								"slot": "1",
								"type": "t_uint256"
							},
							{
								"astId": 201,
								"contract": "contracts/HotswapControllerBase.sol:HotswapControllerBase",
								"label": "price",
								"offset": 0,
								"slot": "2",
								"type": "t_uint256"
							},
							{
								"astId": 203,
								"contract": "contracts/HotswapControllerBase.sol:HotswapControllerBase",
								"label": "nftAlloc",
								"offset": 0,
								"slot": "3",
								"type": "t_uint256"
							},
							{
								"astId": 205,
								"contract": "contracts/HotswapControllerBase.sol:HotswapControllerBase",
								"label": "fftAlloc",
								"offset": 0,
								"slot": "4",
								"type": "t_uint256"
							},
							{
								"astId": 207,
								"contract": "contracts/HotswapControllerBase.sol:HotswapControllerBase",
								"label": "claimed",
								"offset": 0,
								"slot": "5",
								"type": "t_bool"
							},
							{
								"astId": 209,
								"contract": "contracts/HotswapControllerBase.sol:HotswapControllerBase",
								"label": "userIndex",
								"offset": 0,
								"slot": "6",
								"type": "t_uint256"
							}
						],
						"numberOfBytes": "224"
					},
					"t_uint256": {
						"encoding": "inplace",
						"label": "uint256",
						"numberOfBytes": "32"
					}
				}
			},
			"userdoc": {
				"kind": "user",
				"methods": {},
				"version": 1
			}
		}
	}
}