{
	"contracts/HotswapController.sol": {
		"HotswapController": {
			"abi": [
				{
					"anonymous": false,
					"inputs": [
						{
							"indexed": false,
							"internalType": "address",
							"name": "controllor",
							"type": "address"
						},
						{
							"indexed": false,
							"internalType": "address",
							"name": "liquidity",
							"type": "address"
						}
					],
					"name": "HotswapDeployed",
					"type": "event"
				},
				{
					"anonymous": false,
					"inputs": [
						{
							"indexed": false,
							"internalType": "uint256",
							"name": "amount",
							"type": "uint256"
						},
						{
							"indexed": false,
							"internalType": "address",
							"name": "targetAddr",
							"type": "address"
						}
					],
					"name": "NativeTransferred",
					"type": "event"
				},
				{
					"anonymous": false,
					"inputs": [
						{
							"indexed": true,
							"internalType": "address",
							"name": "previousOwner",
							"type": "address"
						}
					],
					"name": "OwnershipRenounced",
					"type": "event"
				},
				{
					"anonymous": false,
					"inputs": [
						{
							"indexed": true,
							"internalType": "address",
							"name": "previousOwner",
							"type": "address"
						},
						{
							"indexed": true,
							"internalType": "address",
							"name": "newOwner",
							"type": "address"
						}
					],
					"name": "OwnershipTransferred",
					"type": "event"
				},
				{
					"inputs": [],
					"name": "FFT",
					"outputs": [
						{
							"internalType": "address",
							"name": "",
							"type": "address"
						}
					],
					"stateMutability": "view",
					"type": "function"
				},
				{
					"inputs": [],
					"name": "NFT",
					"outputs": [
						{
							"internalType": "address",
							"name": "",
							"type": "address"
						}
					],
					"stateMutability": "view",
					"type": "function"
				},
				{
					"inputs": [],
					"name": "_collector",
					"outputs": [
						{
							"internalType": "address",
							"name": "",
							"type": "address"
						}
					],
					"stateMutability": "view",
					"type": "function"
				},
				{
					"inputs": [],
					"name": "_fees",
					"outputs": [
						{
							"internalType": "uint256",
							"name": "",
							"type": "uint256"
						}
					],
					"stateMutability": "view",
					"type": "function"
				},
				{
					"inputs": [
						{
							"internalType": "uint256",
							"name": "",
							"type": "uint256"
						}
					],
					"name": "_liquidities",
					"outputs": [
						{
							"internalType": "address",
							"name": "depositor",
							"type": "address"
						},
						{
							"internalType": "uint256",
							"name": "depositedAt",
							"type": "uint256"
						},
						{
							"internalType": "uint256",
							"name": "price",
							"type": "uint256"
						},
						{
							"internalType": "uint256",
							"name": "nftAlloc",
							"type": "uint256"
						},
						{
							"internalType": "uint256",
							"name": "fftAlloc",
							"type": "uint256"
						},
						{
							"internalType": "bool",
							"name": "claimed",
							"type": "bool"
						},
						{
							"internalType": "uint256",
							"name": "userIndex",
							"type": "uint256"
						}
					],
					"stateMutability": "view",
					"type": "function"
				},
				{
					"inputs": [],
					"name": "_liquidity",
					"outputs": [
						{
							"internalType": "address",
							"name": "",
							"type": "address"
						}
					],
					"stateMutability": "view",
					"type": "function"
				},
				{
					"inputs": [],
					"name": "_price",
					"outputs": [
						{
							"internalType": "uint256",
							"name": "",
							"type": "uint256"
						}
					],
					"stateMutability": "view",
					"type": "function"
				},
				{
					"inputs": [
						{
							"internalType": "uint256",
							"name": "amount",
							"type": "uint256"
						}
					],
					"name": "depositFFT",
					"outputs": [],
					"stateMutability": "nonpayable",
					"type": "function"
				},
				{
					"inputs": [
						{
							"internalType": "uint256",
							"name": "amount",
							"type": "uint256"
						}
					],
					"name": "depositNFT",
					"outputs": [],
					"stateMutability": "nonpayable",
					"type": "function"
				},
				{
					"inputs": [],
					"name": "fftLiquidity",
					"outputs": [
						{
							"internalType": "uint256",
							"name": "",
							"type": "uint256"
						}
					],
					"stateMutability": "view",
					"type": "function"
				},
				{
					"inputs": [
						{
							"internalType": "bool",
							"name": "isFFT",
							"type": "bool"
						}
					],
					"name": "getLiquidityCount",
					"outputs": [
						{
							"internalType": "uint256",
							"name": "",
							"type": "uint256"
						}
					],
					"stateMutability": "view",
					"type": "function"
				},
				{
					"inputs": [],
					"name": "getPrice",
					"outputs": [
						{
							"internalType": "uint256",
							"name": "",
							"type": "uint256"
						}
					],
					"stateMutability": "nonpayable",
					"type": "function"
				},
				{
					"inputs": [],
					"name": "isOwner",
					"outputs": [
						{
							"internalType": "bool",
							"name": "",
							"type": "bool"
						}
					],
					"stateMutability": "view",
					"type": "function"
				},
				{
					"inputs": [],
					"name": "nftLiquidity",
					"outputs": [
						{
							"internalType": "uint256",
							"name": "",
							"type": "uint256"
						}
					],
					"stateMutability": "view",
					"type": "function"
				},
				{
					"inputs": [],
					"name": "owner",
					"outputs": [
						{
							"internalType": "address",
							"name": "",
							"type": "address"
						}
					],
					"stateMutability": "view",
					"type": "function"
				},
				{
					"inputs": [
						{
							"internalType": "uint256",
							"name": "index",
							"type": "uint256"
						}
					],
					"name": "queryLiquid",
					"outputs": [
						{
							"components": [
								{
									"internalType": "address",
									"name": "depositor",
									"type": "address"
								},
								{
									"internalType": "uint256",
									"name": "depositedAt",
									"type": "uint256"
								},
								{
									"internalType": "uint256",
									"name": "price",
									"type": "uint256"
								},
								{
									"internalType": "uint256",
									"name": "nftAlloc",
									"type": "uint256"
								},
								{
									"internalType": "uint256",
									"name": "fftAlloc",
									"type": "uint256"
								},
								{
									"internalType": "bool",
									"name": "claimed",
									"type": "bool"
								}
							],
							"internalType": "struct HotswapControllerBase.LiquidData",
							"name": "",
							"type": "tuple"
						}
					],
					"stateMutability": "view",
					"type": "function"
				},
				{
					"inputs": [
						{
							"internalType": "address",
							"name": "depositor",
							"type": "address"
						},
						{
							"internalType": "uint256",
							"name": "index",
							"type": "uint256"
						}
					],
					"name": "queryLiquidbyDepositor",
					"outputs": [
						{
							"components": [
								{
									"internalType": "address",
									"name": "depositor",
									"type": "address"
								},
								{
									"internalType": "uint256",
									"name": "depositedAt",
									"type": "uint256"
								},
								{
									"internalType": "uint256",
									"name": "price",
									"type": "uint256"
								},
								{
									"internalType": "uint256",
									"name": "nftAlloc",
									"type": "uint256"
								},
								{
									"internalType": "uint256",
									"name": "fftAlloc",
									"type": "uint256"
								},
								{
									"internalType": "bool",
									"name": "claimed",
									"type": "bool"
								}
							],
							"internalType": "struct HotswapControllerBase.LiquidData",
							"name": "",
							"type": "tuple"
						}
					],
					"stateMutability": "view",
					"type": "function"
				},
				{
					"inputs": [],
					"name": "renounceOwnership",
					"outputs": [],
					"stateMutability": "nonpayable",
					"type": "function"
				},
				{
					"inputs": [
						{
							"internalType": "address",
							"name": "addr",
							"type": "address"
						}
					],
					"name": "setCollector",
					"outputs": [],
					"stateMutability": "nonpayable",
					"type": "function"
				},
				{
					"inputs": [
						{
							"internalType": "address",
							"name": "addr",
							"type": "address"
						}
					],
					"name": "setFFT",
					"outputs": [],
					"stateMutability": "nonpayable",
					"type": "function"
				},
				{
					"inputs": [
						{
							"internalType": "address",
							"name": "addr",
							"type": "address"
						}
					],
					"name": "setLiquidity",
					"outputs": [],
					"stateMutability": "nonpayable",
					"type": "function"
				},
				{
					"inputs": [
						{
							"internalType": "address",
							"name": "addr",
							"type": "address"
						}
					],
					"name": "setNFT",
					"outputs": [],
					"stateMutability": "nonpayable",
					"type": "function"
				},
				{
					"inputs": [
						{
							"internalType": "uint256",
							"name": "amount",
							"type": "uint256"
						}
					],
					"name": "swapFFT",
					"outputs": [],
					"stateMutability": "nonpayable",
					"type": "function"
				},
				{
					"inputs": [
						{
							"internalType": "uint256",
							"name": "amount",
							"type": "uint256"
						}
					],
					"name": "swapNFT",
					"outputs": [],
					"stateMutability": "nonpayable",
					"type": "function"
				},
				{
					"inputs": [
						{
							"internalType": "address",
							"name": "newOwner",
							"type": "address"
						}
					],
					"name": "transferOwnership",
					"outputs": [],
					"stateMutability": "nonpayable",
					"type": "function"
				},
				{
					"inputs": [
						{
							"internalType": "uint256",
							"name": "index",
							"type": "uint256"
						}
					],
					"name": "withdrawLiquidity",
					"outputs": [],
					"stateMutability": "nonpayable",
					"type": "function"
				}
			],
			"devdoc": {
				"kind": "dev",
				"methods": {},
				"version": 1
			},
			"evm": {
				"assembly": "    /* \"contracts/HotswapController.sol\":214:9048  contract HotswapController is HotswapControllerBase {... */\n  mstore(0x40, 0x80)\n  callvalue\n  dup1\n  iszero\n  tag_1\n  jumpi\n  0x00\n  dup1\n  revert\ntag_1:\n  pop\n    /* \"contracts/Ownable.sol\":431:441  msg.sender */\n  caller\n    /* \"contracts/Ownable.sol\":422:428  _owner */\n  0x00\n  dup1\n    /* \"contracts/Ownable.sol\":422:441  _owner = msg.sender */\n  0x0100\n  exp\n  dup2\n  sload\n  dup2\n  0xffffffffffffffffffffffffffffffffffffffff\n  mul\n  not\n  and\n  swap1\n  dup4\n  0xffffffffffffffffffffffffffffffffffffffff\n  and\n  mul\n  or\n  swap1\n  sstore\n  pop\n    /* \"contracts/HotswapControllerBase.sol\":957:967  msg.sender */\n  caller\n    /* \"contracts/HotswapControllerBase.sol\":944:954  _collector */\n  0x05\n  0x00\n    /* \"contracts/HotswapControllerBase.sol\":944:967  _collector = msg.sender */\n  0x0100\n  exp\n  dup2\n  sload\n  dup2\n  0xffffffffffffffffffffffffffffffffffffffff\n  mul\n  not\n  and\n  swap1\n  dup4\n  0xffffffffffffffffffffffffffffffffffffffff\n  and\n  mul\n  or\n  swap1\n  sstore\n  pop\n    /* \"contracts/HotswapController.sol\":214:9048  contract HotswapController is HotswapControllerBase {... */\n  dataSize(sub_0)\n  dup1\n  dataOffset(sub_0)\n  0x00\n  codecopy\n  0x00\n  return\nstop\n\nsub_0: assembly {\n        /* \"contracts/HotswapController.sol\":214:9048  contract HotswapController is HotswapControllerBase {... */\n      mstore(0x40, 0x80)\n      callvalue\n      dup1\n      iszero\n      tag_1\n      jumpi\n      0x00\n      dup1\n      revert\n    tag_1:\n      pop\n      jumpi(tag_2, lt(calldatasize, 0x04))\n      shr(0xe0, calldataload(0x00))\n      dup1\n      0x8e991592\n      gt\n      tag_29\n      jumpi\n      dup1\n      0xdcc9606f\n      gt\n      tag_30\n      jumpi\n      dup1\n      0xe91a7ca6\n      gt\n      tag_31\n      jumpi\n      dup1\n      0xe91a7ca6\n      eq\n      tag_25\n      jumpi\n      dup1\n      0xf2fde38b\n      eq\n      tag_26\n      jumpi\n      dup1\n      0xf56e9c66\n      eq\n      tag_27\n      jumpi\n      dup1\n      0xfb5b82d0\n      eq\n      tag_28\n      jumpi\n      jump(tag_2)\n    tag_31:\n      dup1\n      0xdcc9606f\n      eq\n      tag_22\n      jumpi\n      dup1\n      0xdd81b5ae\n      eq\n      tag_23\n      jumpi\n      dup1\n      0xe53442f0\n      eq\n      tag_24\n      jumpi\n      jump(tag_2)\n    tag_30:\n      dup1\n      0x8e991592\n      eq\n      tag_16\n      jumpi\n      dup1\n      0x8f32d59b\n      eq\n      tag_17\n      jumpi\n      dup1\n      0x98d5fdca\n      eq\n      tag_18\n      jumpi\n      dup1\n      0xc80f4e35\n      eq\n      tag_19\n      jumpi\n      dup1\n      0xd212a69a\n      eq\n      tag_20\n      jumpi\n      dup1\n      0xdb9fcd01\n      eq\n      tag_21\n      jumpi\n      jump(tag_2)\n    tag_29:\n      dup1\n      0x491d0a56\n      gt\n      tag_32\n      jumpi\n      dup1\n      0x6cc62992\n      gt\n      tag_33\n      jumpi\n      dup1\n      0x6cc62992\n      eq\n      tag_12\n      jumpi\n      dup1\n      0x715018a6\n      eq\n      tag_13\n      jumpi\n      dup1\n      0x7c0b8de2\n      eq\n      tag_14\n      jumpi\n      dup1\n      0x8da5cb5b\n      eq\n      tag_15\n      jumpi\n      jump(tag_2)\n    tag_33:\n      dup1\n      0x491d0a56\n      eq\n      tag_9\n      jumpi\n      dup1\n      0x4e36245d\n      eq\n      tag_10\n      jumpi\n      dup1\n      0x678660fb\n      eq\n      tag_11\n      jumpi\n      jump(tag_2)\n    tag_32:\n      dup1\n      0x04bb60ce\n      eq\n      tag_3\n      jumpi\n      dup1\n      0x0a861f2a\n      eq\n      tag_4\n      jumpi\n      dup1\n      0x235b6ea1\n      eq\n      tag_5\n      jumpi\n      dup1\n      0x36171e0e\n      eq\n      tag_6\n      jumpi\n      dup1\n      0x3bd11f57\n      eq\n      tag_7\n      jumpi\n      dup1\n      0x41796a17\n      eq\n      tag_8\n      jumpi\n    tag_2:\n      0x00\n      dup1\n      revert\n        /* \"contracts/HotswapPair.sol\":229:247  address public FFT */\n    tag_3:\n      tag_34\n      tag_35\n      jump\t// in\n    tag_34:\n      mload(0x40)\n      tag_36\n      swap2\n      swap1\n      tag_37\n      jump\t// in\n    tag_36:\n      mload(0x40)\n      dup1\n      swap2\n      sub\n      swap1\n      return\n        /* \"contracts/HotswapController.sol\":3175:4057  function withdrawLiquidity(uint256 index) external {... */\n    tag_4:\n      tag_38\n      0x04\n      dup1\n      calldatasize\n      sub\n      dup2\n      add\n      swap1\n      tag_39\n      swap2\n      swap1\n      tag_40\n      jump\t// in\n    tag_39:\n      tag_41\n      jump\t// in\n    tag_38:\n      stop\n        /* \"contracts/HotswapControllerBase.sol\":761:782  uint256 public _price */\n    tag_5:\n      tag_42\n      tag_43\n      jump\t// in\n    tag_42:\n      mload(0x40)\n      tag_44\n      swap2\n      swap1\n      tag_45\n      jump\t// in\n    tag_44:\n      mload(0x40)\n      dup1\n      swap2\n      sub\n      swap1\n      return\n        /* \"contracts/HotswapControllerBase.sol\":1425:1542  function setLiquidity(address addr) external onlyOwner {... */\n    tag_6:\n      tag_46\n      0x04\n      dup1\n      calldatasize\n      sub\n      dup2\n      add\n      swap1\n      tag_47\n      swap2\n      swap1\n      tag_48\n      jump\t// in\n    tag_47:\n      tag_49\n      jump\t// in\n    tag_46:\n      stop\n        /* \"contracts/HotswapController.sol\":318:345  uint256 public fftLiquidity */\n    tag_7:\n      tag_50\n      tag_51\n      jump\t// in\n    tag_50:\n      mload(0x40)\n      tag_52\n      swap2\n      swap1\n      tag_45\n      jump\t// in\n    tag_52:\n      mload(0x40)\n      dup1\n      swap2\n      sub\n      swap1\n      return\n        /* \"contracts/HotswapController.sol\":2188:2349  function queryLiquid(... */\n    tag_8:\n      tag_53\n      0x04\n      dup1\n      calldatasize\n      sub\n      dup2\n      add\n      swap1\n      tag_54\n      swap2\n      swap1\n      tag_40\n      jump\t// in\n    tag_54:\n      tag_55\n      jump\t// in\n    tag_53:\n      mload(0x40)\n      tag_56\n      swap2\n      swap1\n      tag_57\n      jump\t// in\n    tag_56:\n      mload(0x40)\n      dup1\n      swap2\n      sub\n      swap1\n      return\n        /* \"contracts/HotswapControllerBase.sol\":727:752  address public _liquidity */\n    tag_9:\n      tag_58\n      tag_59\n      jump\t// in\n    tag_58:\n      mload(0x40)\n      tag_60\n      swap2\n      swap1\n      tag_37\n      jump\t// in\n    tag_60:\n      mload(0x40)\n      dup1\n      swap2\n      sub\n      swap1\n      return\n        /* \"contracts/HotswapController.sol\":6633:7431  function swapFFT(uint256 amount) external {... */\n    tag_10:\n      tag_61\n      0x04\n      dup1\n      calldatasize\n      sub\n      dup2\n      add\n      swap1\n      tag_62\n      swap2\n      swap1\n      tag_40\n      jump\t// in\n    tag_62:\n      tag_63\n      jump\t// in\n    tag_61:\n      stop\n        /* \"contracts/HotswapController.sol\":273:300  uint256 public nftLiquidity */\n    tag_11:\n      tag_64\n      tag_65\n      jump\t// in\n    tag_64:\n      mload(0x40)\n      tag_66\n      swap2\n      swap1\n      tag_45\n      jump\t// in\n    tag_66:\n      mload(0x40)\n      dup1\n      swap2\n      sub\n      swap1\n      return\n        /* \"contracts/HotswapController.sol\":2957:3167  function getLiquidityCount(bool isFFT) external view returns (uint256) {... */\n    tag_12:\n      tag_67\n      0x04\n      dup1\n      calldatasize\n      sub\n      dup2\n      add\n      swap1\n      tag_68\n      swap2\n      swap1\n      tag_69\n      jump\t// in\n    tag_68:\n      tag_70\n      jump\t// in\n    tag_67:\n      mload(0x40)\n      tag_71\n      swap2\n      swap1\n      tag_45\n      jump\t// in\n    tag_71:\n      mload(0x40)\n      dup1\n      swap2\n      sub\n      swap1\n      return\n        /* \"contracts/Ownable.sol\":722:848  function renounceOwnership() public onlyOwner {... */\n    tag_13:\n      tag_72\n      tag_73\n      jump\t// in\n    tag_72:\n      stop\n        /* \"contracts/HotswapPair.sol\":204:222  address public NFT */\n    tag_14:\n      tag_74\n      tag_75\n      jump\t// in\n    tag_74:\n      mload(0x40)\n      tag_76\n      swap2\n      swap1\n      tag_37\n      jump\t// in\n    tag_76:\n      mload(0x40)\n      dup1\n      swap2\n      sub\n      swap1\n      return\n        /* \"contracts/Ownable.sol\":457:536  function owner() public view returns (address) {... */\n    tag_15:\n      tag_77\n      tag_78\n      jump\t// in\n    tag_77:\n      mload(0x40)\n      tag_79\n      swap2\n      swap1\n      tag_37\n      jump\t// in\n    tag_79:\n      mload(0x40)\n      dup1\n      swap2\n      sub\n      swap1\n      return\n        /* \"contracts/HotswapControllerBase.sol\":695:720  address public _collector */\n    tag_16:\n      tag_80\n      tag_81\n      jump\t// in\n    tag_80:\n      mload(0x40)\n      tag_82\n      swap2\n      swap1\n      tag_37\n      jump\t// in\n    tag_82:\n      mload(0x40)\n      dup1\n      swap2\n      sub\n      swap1\n      return\n        /* \"contracts/Ownable.sol\":622:714  function isOwner() public view returns (bool) {... */\n    tag_17:\n      tag_83\n      tag_84\n      jump\t// in\n    tag_83:\n      mload(0x40)\n      tag_85\n      swap2\n      swap1\n      tag_86\n      jump\t// in\n    tag_85:\n      mload(0x40)\n      dup1\n      swap2\n      sub\n      swap1\n      return\n        /* \"contracts/HotswapController.sol\":590:676  function getPrice() public returns (uint256) {... */\n    tag_18:\n      tag_87\n      tag_88\n      jump\t// in\n    tag_87:\n      mload(0x40)\n      tag_89\n      swap2\n      swap1\n      tag_45\n      jump\t// in\n    tag_89:\n      mload(0x40)\n      dup1\n      swap2\n      sub\n      swap1\n      return\n        /* \"contracts/HotswapControllerBase.sol\":855:883  Liquid[] public _liquidities */\n    tag_19:\n      tag_90\n      0x04\n      dup1\n      calldatasize\n      sub\n      dup2\n      add\n      swap1\n      tag_91\n      swap2\n      swap1\n      tag_40\n      jump\t// in\n    tag_91:\n      tag_92\n      jump\t// in\n    tag_90:\n      mload(0x40)\n      tag_93\n      swap8\n      swap7\n      swap6\n      swap5\n      swap4\n      swap3\n      swap2\n      swap1\n      tag_94\n      jump\t// in\n    tag_93:\n      mload(0x40)\n      dup1\n      swap2\n      sub\n      swap1\n      return\n        /* \"contracts/HotswapControllerBase.sol\":890:910  uint256 public _fees */\n    tag_20:\n      tag_95\n      tag_96\n      jump\t// in\n    tag_95:\n      mload(0x40)\n      tag_97\n      swap2\n      swap1\n      tag_45\n      jump\t// in\n    tag_97:\n      mload(0x40)\n      dup1\n      swap2\n      sub\n      swap1\n      return\n        /* \"contracts/HotswapPair.sol\":445:550  function setFFT(address addr) public onlyOwner {... */\n    tag_21:\n      tag_98\n      0x04\n      dup1\n      calldatasize\n      sub\n      dup2\n      add\n      swap1\n      tag_99\n      swap2\n      swap1\n      tag_48\n      jump\t// in\n    tag_99:\n      tag_100\n      jump\t// in\n    tag_98:\n      stop\n        /* \"contracts/HotswapController.sol\":5781:6625  function swapNFT(uint256 amount) external {... */\n    tag_22:\n      tag_101\n      0x04\n      dup1\n      calldatasize\n      sub\n      dup2\n      add\n      swap1\n      tag_102\n      swap2\n      swap1\n      tag_40\n      jump\t// in\n    tag_102:\n      tag_103\n      jump\t// in\n    tag_101:\n      stop\n        /* \"contracts/HotswapController.sol\":1180:1394  function depositFFT(uint256 amount) external {... */\n    tag_23:\n      tag_104\n      0x04\n      dup1\n      calldatasize\n      sub\n      dup2\n      add\n      swap1\n      tag_105\n      swap2\n      swap1\n      tag_40\n      jump\t// in\n    tag_105:\n      tag_106\n      jump\t// in\n    tag_104:\n      stop\n        /* \"contracts/HotswapController.sol\":2357:2949  function queryLiquidbyDepositor(... */\n    tag_24:\n      tag_107\n      0x04\n      dup1\n      calldatasize\n      sub\n      dup2\n      add\n      swap1\n      tag_108\n      swap2\n      swap1\n      tag_109\n      jump\t// in\n    tag_108:\n      tag_110\n      jump\t// in\n    tag_107:\n      mload(0x40)\n      tag_111\n      swap2\n      swap1\n      tag_57\n      jump\t// in\n    tag_111:\n      mload(0x40)\n      dup1\n      swap2\n      sub\n      swap1\n      return\n        /* \"contracts/HotswapController.sol\":684:1172  function depositNFT(uint256 amount) external {... */\n    tag_25:\n      tag_112\n      0x04\n      dup1\n      calldatasize\n      sub\n      dup2\n      add\n      swap1\n      tag_113\n      swap2\n      swap1\n      tag_40\n      jump\t// in\n    tag_113:\n      tag_114\n      jump\t// in\n    tag_112:\n      stop\n        /* \"contracts/Ownable.sol\":856:965  function transferOwnership(address newOwner) public onlyOwner {... */\n    tag_26:\n      tag_115\n      0x04\n      dup1\n      calldatasize\n      sub\n      dup2\n      add\n      swap1\n      tag_116\n      swap2\n      swap1\n      tag_48\n      jump\t// in\n    tag_116:\n      tag_117\n      jump\t// in\n    tag_115:\n      stop\n        /* \"contracts/HotswapPair.sol\":321:437  function setNFT(address addr) public onlyOwner {... */\n    tag_27:\n      tag_118\n      0x04\n      dup1\n      calldatasize\n      sub\n      dup2\n      add\n      swap1\n      tag_119\n      swap2\n      swap1\n      tag_48\n      jump\t// in\n    tag_119:\n      tag_120\n      jump\t// in\n    tag_118:\n      stop\n        /* \"contracts/HotswapControllerBase.sol\":1326:1417  function setCollector(address addr) external onlyOwner {... */\n    tag_28:\n      tag_121\n      0x04\n      dup1\n      calldatasize\n      sub\n      dup2\n      add\n      swap1\n      tag_122\n      swap2\n      swap1\n      tag_48\n      jump\t// in\n    tag_122:\n      tag_123\n      jump\t// in\n    tag_121:\n      stop\n        /* \"contracts/HotswapPair.sol\":229:247  address public FFT */\n    tag_35:\n      0x02\n      0x00\n      swap1\n      sload\n      swap1\n      0x0100\n      exp\n      swap1\n      div\n      0xffffffffffffffffffffffffffffffffffffffff\n      and\n      dup2\n      jump\t// out\n        /* \"contracts/HotswapController.sol\":3175:4057  function withdrawLiquidity(uint256 index) external {... */\n    tag_41:\n        /* \"contracts/HotswapController.sol\":3237:3249  address user */\n      0x00\n        /* \"contracts/HotswapController.sol\":3252:3262  msg.sender */\n      caller\n        /* \"contracts/HotswapController.sol\":3237:3262  address user = msg.sender */\n      swap1\n      pop\n        /* \"contracts/HotswapController.sol\":3273:3300  uint256[] memory userLiquid */\n      0x00\n        /* \"contracts/HotswapController.sol\":3303:3319  _liquidityByUser */\n      0x08\n        /* \"contracts/HotswapController.sol\":3303:3325  _liquidityByUser[user] */\n      0x00\n        /* \"contracts/HotswapController.sol\":3320:3324  user */\n      dup4\n        /* \"contracts/HotswapController.sol\":3303:3325  _liquidityByUser[user] */\n      0xffffffffffffffffffffffffffffffffffffffff\n      and\n      0xffffffffffffffffffffffffffffffffffffffff\n      and\n      dup2\n      mstore\n      0x20\n      add\n      swap1\n      dup2\n      mstore\n      0x20\n      add\n      0x00\n      keccak256\n        /* \"contracts/HotswapController.sol\":3273:3325  uint256[] memory userLiquid = _liquidityByUser[user] */\n      dup1\n      sload\n      dup1\n      0x20\n      mul\n      0x20\n      add\n      mload(0x40)\n      swap1\n      dup2\n      add\n      0x40\n      mstore\n      dup1\n      swap3\n      swap2\n      swap1\n      dup2\n      dup2\n      mstore\n      0x20\n      add\n      dup3\n      dup1\n      sload\n      dup1\n      iszero\n      tag_125\n      jumpi\n      0x20\n      mul\n      dup3\n      add\n      swap2\n      swap1\n      0x00\n      mstore\n      keccak256(0x00, 0x20)\n      swap1\n    tag_126:\n      dup2\n      sload\n      dup2\n      mstore\n      0x20\n      add\n      swap1\n      0x01\n      add\n      swap1\n      dup1\n      dup4\n      gt\n      tag_126\n      jumpi\n    tag_125:\n      pop\n      pop\n      pop\n      pop\n      pop\n      swap1\n      pop\n        /* \"contracts/HotswapController.sol\":3354:3364  userLiquid */\n      dup1\n        /* \"contracts/HotswapController.sol\":3354:3371  userLiquid.length */\n      mload\n        /* \"contracts/HotswapController.sol\":3346:3351  index */\n      dup4\n        /* \"contracts/HotswapController.sol\":3346:3371  index < userLiquid.length */\n      lt\n        /* \"contracts/HotswapController.sol\":3338:3394  require(index < userLiquid.length, \"Index out of range\") */\n      tag_127\n      jumpi\n      mload(0x40)\n      0x08c379a000000000000000000000000000000000000000000000000000000000\n      dup2\n      mstore\n      0x04\n      add\n      tag_128\n      swap1\n      tag_129\n      jump\t// in\n    tag_128:\n      mload(0x40)\n      dup1\n      swap2\n      sub\n      swap1\n      revert\n    tag_127:\n        /* \"contracts/HotswapController.sol\":3407:3416  uint256 n */\n      0x00\n        /* \"contracts/HotswapController.sol\":3419:3429  userLiquid */\n      dup2\n        /* \"contracts/HotswapController.sol\":3430:3435  index */\n      dup5\n        /* \"contracts/HotswapController.sol\":3419:3436  userLiquid[index] */\n      dup2\n      mload\n      dup2\n      lt\n      tag_130\n      jumpi\n      tag_131\n      tag_132\n      jump\t// in\n    tag_131:\n    tag_130:\n      0x20\n      mul\n      0x20\n      add\n      add\n      mload\n        /* \"contracts/HotswapController.sol\":3407:3436  uint256 n = userLiquid[index] */\n      swap1\n      pop\n        /* \"contracts/HotswapController.sol\":3447:3463  Liquid memory lq */\n      0x00\n        /* \"contracts/HotswapController.sol\":3466:3478  _liquidities */\n      0x09\n        /* \"contracts/HotswapController.sol\":3479:3480  n */\n      dup3\n        /* \"contracts/HotswapController.sol\":3466:3481  _liquidities[n] */\n      dup2\n      sload\n      dup2\n      lt\n      tag_133\n      jumpi\n      tag_134\n      tag_132\n      jump\t// in\n    tag_134:\n    tag_133:\n      swap1\n      0x00\n      mstore\n      keccak256(0x00, 0x20)\n      swap1\n      0x07\n      mul\n      add\n        /* \"contracts/HotswapController.sol\":3447:3481  Liquid memory lq = _liquidities[n] */\n      mload(0x40)\n      dup1\n      0xe0\n      add\n      0x40\n      mstore\n      swap1\n      dup2\n      0x00\n      dup3\n      add\n      0x00\n      swap1\n      sload\n      swap1\n      0x0100\n      exp\n      swap1\n      div\n      0xffffffffffffffffffffffffffffffffffffffff\n      and\n      0xffffffffffffffffffffffffffffffffffffffff\n      and\n      0xffffffffffffffffffffffffffffffffffffffff\n      and\n      dup2\n      mstore\n      0x20\n      add\n      0x01\n      dup3\n      add\n      sload\n      dup2\n      mstore\n      0x20\n      add\n      0x02\n      dup3\n      add\n      sload\n      dup2\n      mstore\n      0x20\n      add\n      0x03\n      dup3\n      add\n      sload\n      dup2\n      mstore\n      0x20\n      add\n      0x04\n      dup3\n      add\n      sload\n      dup2\n      mstore\n      0x20\n      add\n      0x05\n      dup3\n      add\n      0x00\n      swap1\n      sload\n      swap1\n      0x0100\n      exp\n      swap1\n      div\n      0xff\n      and\n      iszero\n      iszero\n      iszero\n      iszero\n      dup2\n      mstore\n      0x20\n      add\n      0x06\n      dup3\n      add\n      sload\n      dup2\n      mstore\n      pop\n      pop\n      swap1\n      pop\n        /* \"contracts/HotswapController.sol\":3494:3510  uint256 nftAlloc */\n      0x00\n        /* \"contracts/HotswapController.sol\":3513:3515  lq */\n      dup2\n        /* \"contracts/HotswapController.sol\":3513:3524  lq.nftAlloc */\n      0x60\n      add\n      mload\n        /* \"contracts/HotswapController.sol\":3494:3524  uint256 nftAlloc = lq.nftAlloc */\n      swap1\n      pop\n        /* \"contracts/HotswapController.sol\":3535:3551  uint256 fftAlloc */\n      0x00\n        /* \"contracts/HotswapController.sol\":3554:3556  lq */\n      dup3\n        /* \"contracts/HotswapController.sol\":3554:3565  lq.fftAlloc */\n      0x80\n      add\n      mload\n        /* \"contracts/HotswapController.sol\":3535:3565  uint256 fftAlloc = lq.fftAlloc */\n      swap1\n      pop\n        /* \"contracts/HotswapController.sol\":3578:3591  uint256 total */\n      0x00\n        /* \"contracts/HotswapController.sol\":3605:3613  fftAlloc */\n      dup2\n        /* \"contracts/HotswapController.sol\":3594:3602  nftAlloc */\n      dup4\n        /* \"contracts/HotswapController.sol\":3594:3613  nftAlloc + fftAlloc */\n      tag_136\n      swap2\n      swap1\n      tag_137\n      jump\t// in\n    tag_136:\n        /* \"contracts/HotswapController.sol\":3578:3613  uint256 total = nftAlloc + fftAlloc */\n      swap1\n      pop\n        /* \"contracts/HotswapController.sol\":3624:3640  uint256 nftRatio */\n      0x00\n        /* \"contracts/HotswapController.sol\":3651:3659  nftAlloc */\n      dup4\n        /* \"contracts/HotswapController.sol\":3643:3648  total */\n      dup3\n        /* \"contracts/HotswapController.sol\":3643:3659  total / nftAlloc */\n      tag_138\n      swap2\n      swap1\n      tag_139\n      jump\t// in\n    tag_138:\n        /* \"contracts/HotswapController.sol\":3624:3659  uint256 nftRatio = total / nftAlloc */\n      swap1\n      pop\n        /* \"contracts/HotswapController.sol\":3670:3686  uint256 fftRatio */\n      0x00\n        /* \"contracts/HotswapController.sol\":3697:3705  fftAlloc */\n      dup4\n        /* \"contracts/HotswapController.sol\":3689:3694  total */\n      dup4\n        /* \"contracts/HotswapController.sol\":3689:3705  total / fftAlloc */\n      tag_140\n      swap2\n      swap1\n      tag_139\n      jump\t// in\n    tag_140:\n        /* \"contracts/HotswapController.sol\":3670:3705  uint256 fftRatio = total / fftAlloc */\n      swap1\n      pop\n        /* \"contracts/HotswapController.sol\":3755:3776  IHotswapLiquidity liq */\n      0x00\n        /* \"contracts/HotswapController.sol\":3797:3807  _liquidity */\n      0x06\n      0x00\n      swap1\n      sload\n      swap1\n      0x0100\n      exp\n      swap1\n      div\n      0xffffffffffffffffffffffffffffffffffffffff\n      and\n        /* \"contracts/HotswapController.sol\":3755:3808  IHotswapLiquidity liq = IHotswapLiquidity(_liquidity) */\n      swap1\n      pop\n        /* \"contracts/HotswapController.sol\":3821:3839  uint256 nftBalance */\n      0x00\n        /* \"contracts/HotswapController.sol\":3866:3872  _price */\n      sload(0x07)\n        /* \"contracts/HotswapController.sol\":3854:3862  nftRatio */\n      dup5\n        /* \"contracts/HotswapController.sol\":3843:3851  nftAlloc */\n      dup9\n        /* \"contracts/HotswapController.sol\":3843:3862  nftAlloc / nftRatio */\n      tag_141\n      swap2\n      swap1\n      tag_139\n      jump\t// in\n    tag_141:\n        /* \"contracts/HotswapController.sol\":3842:3872  (nftAlloc / nftRatio) / _price */\n      tag_142\n      swap2\n      swap1\n      tag_139\n      jump\t// in\n    tag_142:\n        /* \"contracts/HotswapController.sol\":3821:3872  uint256 nftBalance = (nftAlloc / nftRatio) / _price */\n      swap1\n      pop\n        /* \"contracts/HotswapController.sol\":3883:3901  uint256 fftBalance */\n      0x00\n        /* \"contracts/HotswapController.sol\":3915:3923  fftRatio */\n      dup4\n        /* \"contracts/HotswapController.sol\":3904:3912  fftAlloc */\n      dup8\n        /* \"contracts/HotswapController.sol\":3904:3923  fftAlloc / fftRatio */\n      tag_143\n      swap2\n      swap1\n      tag_139\n      jump\t// in\n    tag_143:\n        /* \"contracts/HotswapController.sol\":3883:3923  uint256 fftBalance = fftAlloc / fftRatio */\n      swap1\n      pop\n        /* \"contracts/HotswapController.sol\":3936:3939  liq */\n      dup3\n        /* \"contracts/HotswapController.sol\":3936:3951  liq.withdrawNFT */\n      0xffffffffffffffffffffffffffffffffffffffff\n      and\n      0xc1d2d00d\n        /* \"contracts/HotswapController.sol\":3952:3962  nftBalance */\n      dup4\n        /* \"contracts/HotswapController.sol\":3964:3968  user */\n      dup15\n        /* \"contracts/HotswapController.sol\":3936:3969  liq.withdrawNFT(nftBalance, user) */\n      mload(0x40)\n      dup4\n      0xffffffff\n      and\n      0xe0\n      shl\n      dup2\n      mstore\n      0x04\n      add\n      tag_144\n      swap3\n      swap2\n      swap1\n      tag_145\n      jump\t// in\n    tag_144:\n      0x00\n      mload(0x40)\n      dup1\n      dup4\n      sub\n      dup2\n      0x00\n      dup8\n      dup1\n      extcodesize\n      iszero\n      dup1\n      iszero\n      tag_146\n      jumpi\n      0x00\n      dup1\n      revert\n    tag_146:\n      pop\n      gas\n      call\n      iszero\n      dup1\n      iszero\n      tag_148\n      jumpi\n      returndatasize\n      0x00\n      dup1\n      returndatacopy\n      revert(0x00, returndatasize)\n    tag_148:\n      pop\n      pop\n      pop\n      pop\n        /* \"contracts/HotswapController.sol\":3980:3983  liq */\n      dup3\n        /* \"contracts/HotswapController.sol\":3980:3995  liq.withdrawFFT */\n      0xffffffffffffffffffffffffffffffffffffffff\n      and\n      0x8cda7bb4\n        /* \"contracts/HotswapController.sol\":3996:4006  fftBalance */\n      dup3\n        /* \"contracts/HotswapController.sol\":4008:4012  user */\n      dup15\n        /* \"contracts/HotswapController.sol\":3980:4013  liq.withdrawFFT(fftBalance, user) */\n      mload(0x40)\n      dup4\n      0xffffffff\n      and\n      0xe0\n      shl\n      dup2\n      mstore\n      0x04\n      add\n      tag_149\n      swap3\n      swap2\n      swap1\n      tag_145\n      jump\t// in\n    tag_149:\n      0x00\n      mload(0x40)\n      dup1\n      dup4\n      sub\n      dup2\n      0x00\n      dup8\n      dup1\n      extcodesize\n      iszero\n      dup1\n      iszero\n      tag_150\n      jumpi\n      0x00\n      dup1\n      revert\n    tag_150:\n      pop\n      gas\n      call\n      iszero\n      dup1\n      iszero\n      tag_152\n      jumpi\n      returndatasize\n      0x00\n      dup1\n      returndatacopy\n      revert(0x00, returndatasize)\n    tag_152:\n      pop\n      pop\n      pop\n      pop\n        /* \"contracts/HotswapController.sol\":4026:4049  _removeLiquidity(lq, n) */\n      tag_153\n        /* \"contracts/HotswapController.sol\":4043:4045  lq */\n      dup10\n        /* \"contracts/HotswapController.sol\":4047:4048  n */\n      dup12\n        /* \"contracts/HotswapController.sol\":4026:4042  _removeLiquidity */\n      tag_154\n        /* \"contracts/HotswapController.sol\":4026:4049  _removeLiquidity(lq, n) */\n      jump\t// in\n    tag_153:\n        /* \"contracts/HotswapController.sol\":3226:4057  {... */\n      pop\n      pop\n      pop\n      pop\n      pop\n      pop\n      pop\n      pop\n      pop\n      pop\n      pop\n      pop\n        /* \"contracts/HotswapController.sol\":3175:4057  function withdrawLiquidity(uint256 index) external {... */\n      pop\n      jump\t// out\n        /* \"contracts/HotswapControllerBase.sol\":761:782  uint256 public _price */\n    tag_43:\n      sload(0x07)\n      dup2\n      jump\t// out\n        /* \"contracts/HotswapControllerBase.sol\":1425:1542  function setLiquidity(address addr) external onlyOwner {... */\n    tag_49:\n        /* \"contracts/Ownable.sol\":584:593  isOwner() */\n      tag_156\n        /* \"contracts/Ownable.sol\":584:591  isOwner */\n      tag_84\n        /* \"contracts/Ownable.sol\":584:593  isOwner() */\n      jump\t// in\n    tag_156:\n        /* \"contracts/Ownable.sol\":576:594  require(isOwner()) */\n      tag_157\n      jumpi\n      0x00\n      dup1\n      revert\n    tag_157:\n        /* \"contracts/HotswapControllerBase.sol\":1504:1508  addr */\n      dup1\n        /* \"contracts/HotswapControllerBase.sol\":1491:1501  _liquidity */\n      0x06\n      0x00\n        /* \"contracts/HotswapControllerBase.sol\":1491:1508  _liquidity = addr */\n      0x0100\n      exp\n      dup2\n      sload\n      dup2\n      0xffffffffffffffffffffffffffffffffffffffff\n      mul\n      not\n      and\n      swap1\n      dup4\n      0xffffffffffffffffffffffffffffffffffffffff\n      and\n      mul\n      or\n      swap1\n      sstore\n      pop\n        /* \"contracts/HotswapControllerBase.sol\":1519:1534  _computePrice() */\n      tag_159\n        /* \"contracts/HotswapControllerBase.sol\":1519:1532  _computePrice */\n      tag_160\n        /* \"contracts/HotswapControllerBase.sol\":1519:1534  _computePrice() */\n      jump\t// in\n    tag_159:\n      pop\n        /* \"contracts/HotswapControllerBase.sol\":1425:1542  function setLiquidity(address addr) external onlyOwner {... */\n      pop\n      jump\t// out\n        /* \"contracts/HotswapController.sol\":318:345  uint256 public fftLiquidity */\n    tag_51:\n      sload(0x0c)\n      dup2\n      jump\t// out\n        /* \"contracts/HotswapController.sol\":2188:2349  function queryLiquid(... */\n    tag_55:\n        /* \"contracts/HotswapController.sol\":2263:2280  LiquidData memory */\n      tag_161\n      tag_162\n      jump\t// in\n    tag_161:\n        /* \"contracts/HotswapController.sol\":2300:2341  queryLiquidbyDepositor(msg.sender, index) */\n      tag_164\n        /* \"contracts/HotswapController.sol\":2323:2333  msg.sender */\n      caller\n        /* \"contracts/HotswapController.sol\":2335:2340  index */\n      dup4\n        /* \"contracts/HotswapController.sol\":2300:2322  queryLiquidbyDepositor */\n      tag_110\n        /* \"contracts/HotswapController.sol\":2300:2341  queryLiquidbyDepositor(msg.sender, index) */\n      jump\t// in\n    tag_164:\n        /* \"contracts/HotswapController.sol\":2293:2341  return queryLiquidbyDepositor(msg.sender, index) */\n      swap1\n      pop\n        /* \"contracts/HotswapController.sol\":2188:2349  function queryLiquid(... */\n      swap2\n      swap1\n      pop\n      jump\t// out\n        /* \"contracts/HotswapControllerBase.sol\":727:752  address public _liquidity */\n    tag_59:\n      0x06\n      0x00\n      swap1\n      sload\n      swap1\n      0x0100\n      exp\n      swap1\n      div\n      0xffffffffffffffffffffffffffffffffffffffff\n      and\n      dup2\n      jump\t// out\n        /* \"contracts/HotswapController.sol\":6633:7431  function swapFFT(uint256 amount) external {... */\n    tag_63:\n        /* \"contracts/HotswapController.sol\":6686:6707  Liquid storage source */\n      0x00\n        /* \"contracts/HotswapController.sol\":6718:6739  Liquid storage target */\n      dup1\n        /* \"contracts/HotswapController.sol\":6752:6776  uint256[] memory indexes */\n      0x00\n        /* \"contracts/HotswapController.sol\":6779:6795  _liquidityByUser */\n      0x08\n        /* \"contracts/HotswapController.sol\":6779:6807  _liquidityByUser[msg.sender] */\n      0x00\n        /* \"contracts/HotswapController.sol\":6796:6806  msg.sender */\n      caller\n        /* \"contracts/HotswapController.sol\":6779:6807  _liquidityByUser[msg.sender] */\n      0xffffffffffffffffffffffffffffffffffffffff\n      and\n      0xffffffffffffffffffffffffffffffffffffffff\n      and\n      dup2\n      mstore\n      0x20\n      add\n      swap1\n      dup2\n      mstore\n      0x20\n      add\n      0x00\n      keccak256\n        /* \"contracts/HotswapController.sol\":6752:6807  uint256[] memory indexes = _liquidityByUser[msg.sender] */\n      dup1\n      sload\n      dup1\n      0x20\n      mul\n      0x20\n      add\n      mload(0x40)\n      swap1\n      dup2\n      add\n      0x40\n      mstore\n      dup1\n      swap3\n      swap2\n      swap1\n      dup2\n      dup2\n      mstore\n      0x20\n      add\n      dup3\n      dup1\n      sload\n      dup1\n      iszero\n      tag_166\n      jumpi\n      0x20\n      mul\n      dup3\n      add\n      swap2\n      swap1\n      0x00\n      mstore\n      keccak256(0x00, 0x20)\n      swap1\n    tag_167:\n      dup2\n      sload\n      dup2\n      mstore\n      0x20\n      add\n      swap1\n      0x01\n      add\n      swap1\n      dup1\n      dup4\n      gt\n      tag_167\n      jumpi\n    tag_166:\n      pop\n      pop\n      pop\n      pop\n      pop\n      swap1\n      pop\n        /* \"contracts/HotswapController.sol\":6818:6831  uint256 price */\n      0x00\n        /* \"contracts/HotswapController.sol\":6834:6840  _price */\n      sload(0x07)\n        /* \"contracts/HotswapController.sol\":6818:6840  uint256 price = _price */\n      swap1\n      pop\n        /* \"contracts/HotswapController.sol\":6853:6873  uint256 targetAmount */\n      0x00\n        /* \"contracts/HotswapController.sol\":6876:6894  _deductFee(amount) */\n      tag_168\n        /* \"contracts/HotswapController.sol\":6887:6893  amount */\n      dup7\n        /* \"contracts/HotswapController.sol\":6876:6886  _deductFee */\n      tag_169\n        /* \"contracts/HotswapController.sol\":6876:6894  _deductFee(amount) */\n      jump\t// in\n    tag_168:\n        /* \"contracts/HotswapController.sol\":6853:6894  uint256 targetAmount = _deductFee(amount) */\n      swap1\n      pop\n        /* \"contracts/HotswapController.sol\":6907:6924  uint256 fftAmount */\n      0x00\n        /* \"contracts/HotswapController.sol\":6927:6939  targetAmount */\n      dup2\n        /* \"contracts/HotswapController.sol\":6907:6939  uint256 fftAmount = targetAmount */\n      swap1\n      pop\n        /* \"contracts/HotswapController.sol\":6952:6964  bool success */\n      0x00\n        /* \"contracts/HotswapController.sol\":6975:6988  uint256 index */\n      dup1\n        /* \"contracts/HotswapController.sol\":7001:7010  uint256 i */\n      0x00\n        /* \"contracts/HotswapController.sol\":7021:7030  uint256 j */\n      dup1\n        /* \"contracts/HotswapController.sol\":7052:7059  indexes */\n      dup8\n        /* \"contracts/HotswapController.sol\":7052:7066  indexes.length */\n      mload\n        /* \"contracts/HotswapController.sol\":7048:7066  j = indexes.length */\n      swap1\n      pop\n        /* \"contracts/HotswapController.sol\":7043:7362  for (j = indexes.length; j > 0 && fftAmount > 0; j--) {... */\n    tag_170:\n        /* \"contracts/HotswapController.sol\":7072:7073  0 */\n      0x00\n        /* \"contracts/HotswapController.sol\":7068:7069  j */\n      dup2\n        /* \"contracts/HotswapController.sol\":7068:7073  j > 0 */\n      gt\n        /* \"contracts/HotswapController.sol\":7068:7090  j > 0 && fftAmount > 0 */\n      dup1\n      iszero\n      tag_173\n      jumpi\n      pop\n        /* \"contracts/HotswapController.sol\":7089:7090  0 */\n      0x00\n        /* \"contracts/HotswapController.sol\":7077:7086  fftAmount */\n      dup6\n        /* \"contracts/HotswapController.sol\":7077:7090  fftAmount > 0 */\n      gt\n        /* \"contracts/HotswapController.sol\":7068:7090  j > 0 && fftAmount > 0 */\n    tag_173:\n        /* \"contracts/HotswapController.sol\":7043:7362  for (j = indexes.length; j > 0 && fftAmount > 0; j--) {... */\n      iszero\n      tag_171\n      jumpi\n        /* \"contracts/HotswapController.sol\":7120:7121  1 */\n      0x01\n        /* \"contracts/HotswapController.sol\":7116:7117  j */\n      dup2\n        /* \"contracts/HotswapController.sol\":7116:7121  j - 1 */\n      tag_174\n      swap2\n      swap1\n      tag_175\n      jump\t// in\n    tag_174:\n        /* \"contracts/HotswapController.sol\":7112:7121  i = j - 1 */\n      swap2\n      pop\n        /* \"contracts/HotswapController.sol\":7145:7157  _liquidities */\n      0x09\n        /* \"contracts/HotswapController.sol\":7158:7165  indexes */\n      dup9\n        /* \"contracts/HotswapController.sol\":7166:7167  i */\n      dup4\n        /* \"contracts/HotswapController.sol\":7158:7168  indexes[i] */\n      dup2\n      mload\n      dup2\n      lt\n      tag_176\n      jumpi\n      tag_177\n      tag_132\n      jump\t// in\n    tag_177:\n    tag_176:\n      0x20\n      mul\n      0x20\n      add\n      add\n      mload\n        /* \"contracts/HotswapController.sol\":7145:7169  _liquidities[indexes[i]] */\n      dup2\n      sload\n      dup2\n      lt\n      tag_178\n      jumpi\n      tag_179\n      tag_132\n      jump\t// in\n    tag_179:\n    tag_178:\n      swap1\n      0x00\n      mstore\n      keccak256(0x00, 0x20)\n      swap1\n      0x07\n      mul\n      add\n        /* \"contracts/HotswapController.sol\":7136:7169  source = _liquidities[indexes[i]] */\n      swap10\n      pop\n        /* \"contracts/HotswapController.sol\":7205:7230  _findSuitableLiquid(true) */\n      tag_181\n        /* \"contracts/HotswapController.sol\":7225:7229  true */\n      0x01\n        /* \"contracts/HotswapController.sol\":7205:7224  _findSuitableLiquid */\n      tag_182\n        /* \"contracts/HotswapController.sol\":7205:7230  _findSuitableLiquid(true) */\n      jump\t// in\n    tag_181:\n        /* \"contracts/HotswapController.sol\":7186:7230  (success, index) = _findSuitableLiquid(true) */\n      dup1\n      swap5\n      pop\n      dup2\n      swap6\n      pop\n      pop\n      pop\n        /* \"contracts/HotswapController.sol\":7254:7266  _liquidities */\n      0x09\n        /* \"contracts/HotswapController.sol\":7267:7272  index */\n      dup4\n        /* \"contracts/HotswapController.sol\":7254:7273  _liquidities[index] */\n      dup2\n      sload\n      dup2\n      lt\n      tag_183\n      jumpi\n      tag_184\n      tag_132\n      jump\t// in\n    tag_184:\n    tag_183:\n      swap1\n      0x00\n      mstore\n      keccak256(0x00, 0x20)\n      swap1\n      0x07\n      mul\n      add\n        /* \"contracts/HotswapController.sol\":7245:7273  target = _liquidities[index] */\n      swap9\n      pop\n        /* \"contracts/HotswapController.sol\":7302:7350  _swapFFTLiquid(source, target, fftAmount, price) */\n      tag_186\n        /* \"contracts/HotswapController.sol\":7317:7323  source */\n      dup11\n        /* \"contracts/HotswapController.sol\":7325:7331  target */\n      dup11\n        /* \"contracts/HotswapController.sol\":7333:7342  fftAmount */\n      dup8\n        /* \"contracts/HotswapController.sol\":7344:7349  price */\n      dup11\n        /* \"contracts/HotswapController.sol\":7302:7316  _swapFFTLiquid */\n      tag_187\n        /* \"contracts/HotswapController.sol\":7302:7350  _swapFFTLiquid(source, target, fftAmount, price) */\n      jump\t// in\n    tag_186:\n        /* \"contracts/HotswapController.sol\":7290:7350  fftAmount = _swapFFTLiquid(source, target, fftAmount, price) */\n      swap5\n      pop\n        /* \"contracts/HotswapController.sol\":7092:7095  j-- */\n      dup1\n      dup1\n      tag_188\n      swap1\n      tag_189\n      jump\t// in\n    tag_188:\n      swap2\n      pop\n      pop\n        /* \"contracts/HotswapController.sol\":7043:7362  for (j = indexes.length; j > 0 && fftAmount > 0; j--) {... */\n      jump(tag_170)\n    tag_171:\n        /* \"contracts/HotswapController.sol\":7395:7396  0 */\n      0x00\n        /* \"contracts/HotswapController.sol\":7382:7391  fftAmount */\n      dup6\n        /* \"contracts/HotswapController.sol\":7382:7396  fftAmount == 0 */\n      eq\n        /* \"contracts/HotswapController.sol\":7374:7423  require(fftAmount == 0, \"Insufficient liquidity\") */\n      tag_190\n      jumpi\n      mload(0x40)\n      0x08c379a000000000000000000000000000000000000000000000000000000000\n      dup2\n      mstore\n      0x04\n      add\n      tag_191\n      swap1\n      tag_192\n      jump\t// in\n    tag_191:\n      mload(0x40)\n      dup1\n      swap2\n      sub\n      swap1\n      revert\n    tag_190:\n        /* \"contracts/HotswapController.sol\":6675:7431  {... */\n      pop\n      pop\n      pop\n      pop\n      pop\n      pop\n      pop\n      pop\n      pop\n      pop\n        /* \"contracts/HotswapController.sol\":6633:7431  function swapFFT(uint256 amount) external {... */\n      pop\n      jump\t// out\n        /* \"contracts/HotswapController.sol\":273:300  uint256 public nftLiquidity */\n    tag_65:\n      sload(0x0b)\n      dup2\n      jump\t// out\n        /* \"contracts/HotswapController.sol\":2957:3167  function getLiquidityCount(bool isFFT) external view returns (uint256) {... */\n    tag_70:\n        /* \"contracts/HotswapController.sol\":3019:3026  uint256 */\n      0x00\n        /* \"contracts/HotswapController.sol\":3043:3048  isFFT */\n      dup2\n        /* \"contracts/HotswapController.sol\":3039:3160  if (isFFT) {... */\n      iszero\n      tag_194\n      jumpi\n        /* \"contracts/HotswapController.sol\":3072:3090  _fftLiquidityCount */\n      sload(0x0e)\n        /* \"contracts/HotswapController.sol\":3065:3090  return _fftLiquidityCount */\n      swap1\n      pop\n      jump(tag_193)\n        /* \"contracts/HotswapController.sol\":3039:3160  if (isFFT) {... */\n    tag_194:\n        /* \"contracts/HotswapController.sol\":3130:3148  _nftLiquidityCount */\n      sload(0x0d)\n        /* \"contracts/HotswapController.sol\":3123:3148  return _nftLiquidityCount */\n      swap1\n      pop\n        /* \"contracts/HotswapController.sol\":2957:3167  function getLiquidityCount(bool isFFT) external view returns (uint256) {... */\n    tag_193:\n      swap2\n      swap1\n      pop\n      jump\t// out\n        /* \"contracts/Ownable.sol\":722:848  function renounceOwnership() public onlyOwner {... */\n    tag_73:\n        /* \"contracts/Ownable.sol\":584:593  isOwner() */\n      tag_197\n        /* \"contracts/Ownable.sol\":584:591  isOwner */\n      tag_84\n        /* \"contracts/Ownable.sol\":584:593  isOwner() */\n      jump\t// in\n    tag_197:\n        /* \"contracts/Ownable.sol\":576:594  require(isOwner()) */\n      tag_198\n      jumpi\n      0x00\n      dup1\n      revert\n    tag_198:\n        /* \"contracts/Ownable.sol\":803:809  _owner */\n      0x00\n      dup1\n      sload\n      swap1\n      0x0100\n      exp\n      swap1\n      div\n      0xffffffffffffffffffffffffffffffffffffffff\n      and\n        /* \"contracts/Ownable.sol\":784:810  OwnershipRenounced(_owner) */\n      0xffffffffffffffffffffffffffffffffffffffff\n      and\n      0xf8df31144d9c2f0f6b59d69b8b98abd5459d07f2742c4df920b25aae33c64820\n      mload(0x40)\n      mload(0x40)\n      dup1\n      swap2\n      sub\n      swap1\n      log2\n        /* \"contracts/Ownable.sol\":838:839  0 */\n      0x00\n        /* \"contracts/Ownable.sol\":821:827  _owner */\n      dup1\n      0x00\n        /* \"contracts/Ownable.sol\":821:840  _owner = address(0) */\n      0x0100\n      exp\n      dup2\n      sload\n      dup2\n      0xffffffffffffffffffffffffffffffffffffffff\n      mul\n      not\n      and\n      swap1\n      dup4\n      0xffffffffffffffffffffffffffffffffffffffff\n      and\n      mul\n      or\n      swap1\n      sstore\n      pop\n        /* \"contracts/Ownable.sol\":722:848  function renounceOwnership() public onlyOwner {... */\n      jump\t// out\n        /* \"contracts/HotswapPair.sol\":204:222  address public NFT */\n    tag_75:\n      0x01\n      0x00\n      swap1\n      sload\n      swap1\n      0x0100\n      exp\n      swap1\n      div\n      0xffffffffffffffffffffffffffffffffffffffff\n      and\n      dup2\n      jump\t// out\n        /* \"contracts/Ownable.sol\":457:536  function owner() public view returns (address) {... */\n    tag_78:\n        /* \"contracts/Ownable.sol\":495:502  address */\n      0x00\n        /* \"contracts/Ownable.sol\":522:528  _owner */\n      dup1\n      0x00\n      swap1\n      sload\n      swap1\n      0x0100\n      exp\n      swap1\n      div\n      0xffffffffffffffffffffffffffffffffffffffff\n      and\n        /* \"contracts/Ownable.sol\":515:528  return _owner */\n      swap1\n      pop\n        /* \"contracts/Ownable.sol\":457:536  function owner() public view returns (address) {... */\n      swap1\n      jump\t// out\n        /* \"contracts/HotswapControllerBase.sol\":695:720  address public _collector */\n    tag_81:\n      0x05\n      0x00\n      swap1\n      sload\n      swap1\n      0x0100\n      exp\n      swap1\n      div\n      0xffffffffffffffffffffffffffffffffffffffff\n      and\n      dup2\n      jump\t// out\n        /* \"contracts/Ownable.sol\":622:714  function isOwner() public view returns (bool) {... */\n    tag_84:\n        /* \"contracts/Ownable.sol\":662:666  bool */\n      0x00\n        /* \"contracts/Ownable.sol\":700:706  _owner */\n      dup1\n      0x00\n      swap1\n      sload\n      swap1\n      0x0100\n      exp\n      swap1\n      div\n      0xffffffffffffffffffffffffffffffffffffffff\n      and\n        /* \"contracts/Ownable.sol\":686:706  msg.sender == _owner */\n      0xffffffffffffffffffffffffffffffffffffffff\n      and\n        /* \"contracts/Ownable.sol\":686:696  msg.sender */\n      caller\n        /* \"contracts/Ownable.sol\":686:706  msg.sender == _owner */\n      0xffffffffffffffffffffffffffffffffffffffff\n      and\n      eq\n        /* \"contracts/Ownable.sol\":679:706  return msg.sender == _owner */\n      swap1\n      pop\n        /* \"contracts/Ownable.sol\":622:714  function isOwner() public view returns (bool) {... */\n      swap1\n      jump\t// out\n        /* \"contracts/HotswapController.sol\":590:676  function getPrice() public returns (uint256) {... */\n    tag_88:\n        /* \"contracts/HotswapController.sol\":626:633  uint256 */\n      0x00\n        /* \"contracts/HotswapController.sol\":653:668  _computePrice() */\n      tag_203\n        /* \"contracts/HotswapController.sol\":653:666  _computePrice */\n      tag_160\n        /* \"contracts/HotswapController.sol\":653:668  _computePrice() */\n      jump\t// in\n    tag_203:\n        /* \"contracts/HotswapController.sol\":646:668  return _computePrice() */\n      swap1\n      pop\n        /* \"contracts/HotswapController.sol\":590:676  function getPrice() public returns (uint256) {... */\n      swap1\n      jump\t// out\n        /* \"contracts/HotswapControllerBase.sol\":855:883  Liquid[] public _liquidities */\n    tag_92:\n      0x09\n      dup2\n      dup2\n      sload\n      dup2\n      lt\n      tag_204\n      jumpi\n      0x00\n      dup1\n      revert\n    tag_204:\n      swap1\n      0x00\n      mstore\n      keccak256(0x00, 0x20)\n      swap1\n      0x07\n      mul\n      add\n      0x00\n      swap2\n      pop\n      swap1\n      pop\n      dup1\n      0x00\n      add\n      0x00\n      swap1\n      sload\n      swap1\n      0x0100\n      exp\n      swap1\n      div\n      0xffffffffffffffffffffffffffffffffffffffff\n      and\n      swap1\n      dup1\n      0x01\n      add\n      sload\n      swap1\n      dup1\n      0x02\n      add\n      sload\n      swap1\n      dup1\n      0x03\n      add\n      sload\n      swap1\n      dup1\n      0x04\n      add\n      sload\n      swap1\n      dup1\n      0x05\n      add\n      0x00\n      swap1\n      sload\n      swap1\n      0x0100\n      exp\n      swap1\n      div\n      0xff\n      and\n      swap1\n      dup1\n      0x06\n      add\n      sload\n      swap1\n      pop\n      dup8\n      jump\t// out\n        /* \"contracts/HotswapControllerBase.sol\":890:910  uint256 public _fees */\n    tag_96:\n      sload(0x0a)\n      dup2\n      jump\t// out\n        /* \"contracts/HotswapPair.sol\":445:550  function setFFT(address addr) public onlyOwner {... */\n    tag_100:\n        /* \"contracts/Ownable.sol\":584:593  isOwner() */\n      tag_207\n        /* \"contracts/Ownable.sol\":584:591  isOwner */\n      tag_84\n        /* \"contracts/Ownable.sol\":584:593  isOwner() */\n      jump\t// in\n    tag_207:\n        /* \"contracts/Ownable.sol\":576:594  require(isOwner()) */\n      tag_208\n      jumpi\n      0x00\n      dup1\n      revert\n    tag_208:\n        /* \"contracts/HotswapPair.sol\":509:513  addr */\n      dup1\n        /* \"contracts/HotswapPair.sol\":503:506  FFT */\n      0x02\n      0x00\n        /* \"contracts/HotswapPair.sol\":503:513  FFT = addr */\n      0x0100\n      exp\n      dup2\n      sload\n      dup2\n      0xffffffffffffffffffffffffffffffffffffffff\n      mul\n      not\n      and\n      swap1\n      dup4\n      0xffffffffffffffffffffffffffffffffffffffff\n      and\n      mul\n      or\n      swap1\n      sstore\n      pop\n        /* \"contracts/HotswapPair.sol\":537:541  addr */\n      dup1\n        /* \"contracts/HotswapPair.sol\":524:528  _fft */\n      0x03\n      0x00\n        /* \"contracts/HotswapPair.sol\":524:542  _fft = ERC20(addr) */\n      0x0100\n      exp\n      dup2\n      sload\n      dup2\n      0xffffffffffffffffffffffffffffffffffffffff\n      mul\n      not\n      and\n      swap1\n      dup4\n      0xffffffffffffffffffffffffffffffffffffffff\n      and\n      mul\n      or\n      swap1\n      sstore\n      pop\n        /* \"contracts/HotswapPair.sol\":445:550  function setFFT(address addr) public onlyOwner {... */\n      pop\n      jump\t// out\n        /* \"contracts/HotswapController.sol\":5781:6625  function swapNFT(uint256 amount) external {... */\n    tag_103:\n        /* \"contracts/HotswapController.sol\":5834:5855  Liquid storage source */\n      0x00\n        /* \"contracts/HotswapController.sol\":5866:5887  Liquid storage target */\n      dup1\n        /* \"contracts/HotswapController.sol\":5900:5924  uint256[] memory indexes */\n      0x00\n        /* \"contracts/HotswapController.sol\":5927:5943  _liquidityByUser */\n      0x08\n        /* \"contracts/HotswapController.sol\":5927:5955  _liquidityByUser[msg.sender] */\n      0x00\n        /* \"contracts/HotswapController.sol\":5944:5954  msg.sender */\n      caller\n        /* \"contracts/HotswapController.sol\":5927:5955  _liquidityByUser[msg.sender] */\n      0xffffffffffffffffffffffffffffffffffffffff\n      and\n      0xffffffffffffffffffffffffffffffffffffffff\n      and\n      dup2\n      mstore\n      0x20\n      add\n      swap1\n      dup2\n      mstore\n      0x20\n      add\n      0x00\n      keccak256\n        /* \"contracts/HotswapController.sol\":5900:5955  uint256[] memory indexes = _liquidityByUser[msg.sender] */\n      dup1\n      sload\n      dup1\n      0x20\n      mul\n      0x20\n      add\n      mload(0x40)\n      swap1\n      dup2\n      add\n      0x40\n      mstore\n      dup1\n      swap3\n      swap2\n      swap1\n      dup2\n      dup2\n      mstore\n      0x20\n      add\n      dup3\n      dup1\n      sload\n      dup1\n      iszero\n      tag_211\n      jumpi\n      0x20\n      mul\n      dup3\n      add\n      swap2\n      swap1\n      0x00\n      mstore\n      keccak256(0x00, 0x20)\n      swap1\n    tag_212:\n      dup2\n      sload\n      dup2\n      mstore\n      0x20\n      add\n      swap1\n      0x01\n      add\n      swap1\n      dup1\n      dup4\n      gt\n      tag_212\n      jumpi\n    tag_211:\n      pop\n      pop\n      pop\n      pop\n      pop\n      swap1\n      pop\n        /* \"contracts/HotswapController.sol\":5968:5981  uint256 price */\n      0x00\n        /* \"contracts/HotswapController.sol\":5984:5990  _price */\n      sload(0x07)\n        /* \"contracts/HotswapController.sol\":5968:5990  uint256 price = _price */\n      swap1\n      pop\n        /* \"contracts/HotswapController.sol\":6003:6020  uint256 fftAmount */\n      0x00\n        /* \"contracts/HotswapController.sol\":6032:6037  price */\n      dup2\n        /* \"contracts/HotswapController.sol\":6023:6029  amount */\n      dup7\n        /* \"contracts/HotswapController.sol\":6023:6037  amount * price */\n      tag_213\n      swap2\n      swap1\n      tag_214\n      jump\t// in\n    tag_213:\n        /* \"contracts/HotswapController.sol\":6003:6037  uint256 fftAmount = amount * price */\n      swap1\n      pop\n        /* \"contracts/HotswapController.sol\":6063:6084  _deductFee(fftAmount) */\n      tag_215\n        /* \"contracts/HotswapController.sol\":6074:6083  fftAmount */\n      dup2\n        /* \"contracts/HotswapController.sol\":6063:6073  _deductFee */\n      tag_169\n        /* \"contracts/HotswapController.sol\":6063:6084  _deductFee(fftAmount) */\n      jump\t// in\n    tag_215:\n        /* \"contracts/HotswapController.sol\":6050:6084  fftAmount -= _deductFee(fftAmount) */\n      dup2\n      tag_216\n      swap2\n      swap1\n      tag_175\n      jump\t// in\n    tag_216:\n      swap1\n      pop\n        /* \"contracts/HotswapController.sol\":6095:6112  uint256 nftAmount */\n      0x00\n        /* \"contracts/HotswapController.sol\":6127:6132  price */\n      dup3\n        /* \"contracts/HotswapController.sol\":6115:6124  fftAmount */\n      dup3\n        /* \"contracts/HotswapController.sol\":6115:6132  fftAmount / price */\n      tag_217\n      swap2\n      swap1\n      tag_139\n      jump\t// in\n    tag_217:\n        /* \"contracts/HotswapController.sol\":6095:6132  uint256 nftAmount = fftAmount / price */\n      swap1\n      pop\n        /* \"contracts/HotswapController.sol\":6145:6157  bool success */\n      0x00\n        /* \"contracts/HotswapController.sol\":6168:6181  uint256 index */\n      dup1\n        /* \"contracts/HotswapController.sol\":6194:6203  uint256 i */\n      0x00\n        /* \"contracts/HotswapController.sol\":6214:6223  uint256 j */\n      dup1\n        /* \"contracts/HotswapController.sol\":6245:6252  indexes */\n      dup8\n        /* \"contracts/HotswapController.sol\":6245:6259  indexes.length */\n      mload\n        /* \"contracts/HotswapController.sol\":6241:6259  j = indexes.length */\n      swap1\n      pop\n        /* \"contracts/HotswapController.sol\":6236:6556  for (j = indexes.length; j > 0 && nftAmount > 0; j--) {... */\n    tag_218:\n        /* \"contracts/HotswapController.sol\":6265:6266  0 */\n      0x00\n        /* \"contracts/HotswapController.sol\":6261:6262  j */\n      dup2\n        /* \"contracts/HotswapController.sol\":6261:6266  j > 0 */\n      gt\n        /* \"contracts/HotswapController.sol\":6261:6283  j > 0 && nftAmount > 0 */\n      dup1\n      iszero\n      tag_221\n      jumpi\n      pop\n        /* \"contracts/HotswapController.sol\":6282:6283  0 */\n      0x00\n        /* \"contracts/HotswapController.sol\":6270:6279  nftAmount */\n      dup6\n        /* \"contracts/HotswapController.sol\":6270:6283  nftAmount > 0 */\n      gt\n        /* \"contracts/HotswapController.sol\":6261:6283  j > 0 && nftAmount > 0 */\n    tag_221:\n        /* \"contracts/HotswapController.sol\":6236:6556  for (j = indexes.length; j > 0 && nftAmount > 0; j--) {... */\n      iszero\n      tag_219\n      jumpi\n        /* \"contracts/HotswapController.sol\":6313:6314  1 */\n      0x01\n        /* \"contracts/HotswapController.sol\":6309:6310  j */\n      dup2\n        /* \"contracts/HotswapController.sol\":6309:6314  j - 1 */\n      tag_222\n      swap2\n      swap1\n      tag_175\n      jump\t// in\n    tag_222:\n        /* \"contracts/HotswapController.sol\":6305:6314  i = j - 1 */\n      swap2\n      pop\n        /* \"contracts/HotswapController.sol\":6338:6350  _liquidities */\n      0x09\n        /* \"contracts/HotswapController.sol\":6351:6358  indexes */\n      dup9\n        /* \"contracts/HotswapController.sol\":6359:6360  i */\n      dup4\n        /* \"contracts/HotswapController.sol\":6351:6361  indexes[i] */\n      dup2\n      mload\n      dup2\n      lt\n      tag_223\n      jumpi\n      tag_224\n      tag_132\n      jump\t// in\n    tag_224:\n    tag_223:\n      0x20\n      mul\n      0x20\n      add\n      add\n      mload\n        /* \"contracts/HotswapController.sol\":6338:6362  _liquidities[indexes[i]] */\n      dup2\n      sload\n      dup2\n      lt\n      tag_225\n      jumpi\n      tag_226\n      tag_132\n      jump\t// in\n    tag_226:\n    tag_225:\n      swap1\n      0x00\n      mstore\n      keccak256(0x00, 0x20)\n      swap1\n      0x07\n      mul\n      add\n        /* \"contracts/HotswapController.sol\":6329:6362  source = _liquidities[indexes[i]] */\n      swap10\n      pop\n        /* \"contracts/HotswapController.sol\":6398:6424  _findSuitableLiquid(false) */\n      tag_228\n        /* \"contracts/HotswapController.sol\":6418:6423  false */\n      0x00\n        /* \"contracts/HotswapController.sol\":6398:6417  _findSuitableLiquid */\n      tag_182\n        /* \"contracts/HotswapController.sol\":6398:6424  _findSuitableLiquid(false) */\n      jump\t// in\n    tag_228:\n        /* \"contracts/HotswapController.sol\":6379:6424  (success, index) = _findSuitableLiquid(false) */\n      dup1\n      swap5\n      pop\n      dup2\n      swap6\n      pop\n      pop\n      pop\n        /* \"contracts/HotswapController.sol\":6448:6460  _liquidities */\n      0x09\n        /* \"contracts/HotswapController.sol\":6461:6466  index */\n      dup4\n        /* \"contracts/HotswapController.sol\":6448:6467  _liquidities[index] */\n      dup2\n      sload\n      dup2\n      lt\n      tag_229\n      jumpi\n      tag_230\n      tag_132\n      jump\t// in\n    tag_230:\n    tag_229:\n      swap1\n      0x00\n      mstore\n      keccak256(0x00, 0x20)\n      swap1\n      0x07\n      mul\n      add\n        /* \"contracts/HotswapController.sol\":6439:6467  target = _liquidities[index] */\n      swap9\n      pop\n        /* \"contracts/HotswapController.sol\":6496:6544  _swapNFTLiquid(source, target, nftAmount, price) */\n      tag_232\n        /* \"contracts/HotswapController.sol\":6511:6517  source */\n      dup11\n        /* \"contracts/HotswapController.sol\":6519:6525  target */\n      dup11\n        /* \"contracts/HotswapController.sol\":6527:6536  nftAmount */\n      dup8\n        /* \"contracts/HotswapController.sol\":6538:6543  price */\n      dup11\n        /* \"contracts/HotswapController.sol\":6496:6510  _swapNFTLiquid */\n      tag_233\n        /* \"contracts/HotswapController.sol\":6496:6544  _swapNFTLiquid(source, target, nftAmount, price) */\n      jump\t// in\n    tag_232:\n        /* \"contracts/HotswapController.sol\":6484:6544  nftAmount = _swapNFTLiquid(source, target, nftAmount, price) */\n      swap5\n      pop\n        /* \"contracts/HotswapController.sol\":6285:6288  j-- */\n      dup1\n      dup1\n      tag_234\n      swap1\n      tag_189\n      jump\t// in\n    tag_234:\n      swap2\n      pop\n      pop\n        /* \"contracts/HotswapController.sol\":6236:6556  for (j = indexes.length; j > 0 && nftAmount > 0; j--) {... */\n      jump(tag_218)\n    tag_219:\n        /* \"contracts/HotswapController.sol\":6589:6590  0 */\n      0x00\n        /* \"contracts/HotswapController.sol\":6576:6585  nftAmount */\n      dup6\n        /* \"contracts/HotswapController.sol\":6576:6590  nftAmount == 0 */\n      eq\n        /* \"contracts/HotswapController.sol\":6568:6617  require(nftAmount == 0, \"Insufficient liquidity\") */\n      tag_235\n      jumpi\n      mload(0x40)\n      0x08c379a000000000000000000000000000000000000000000000000000000000\n      dup2\n      mstore\n      0x04\n      add\n      tag_236\n      swap1\n      tag_192\n      jump\t// in\n    tag_236:\n      mload(0x40)\n      dup1\n      swap2\n      sub\n      swap1\n      revert\n    tag_235:\n        /* \"contracts/HotswapController.sol\":5823:6625  {... */\n      pop\n      pop\n      pop\n      pop\n      pop\n      pop\n      pop\n      pop\n      pop\n      pop\n        /* \"contracts/HotswapController.sol\":5781:6625  function swapNFT(uint256 amount) external {... */\n      pop\n      jump\t// out\n        /* \"contracts/HotswapController.sol\":1180:1394  function depositFFT(uint256 amount) external {... */\n    tag_106:\n        /* \"contracts/HotswapController.sol\":1236:1248  bool success */\n      0x00\n        /* \"contracts/HotswapController.sol\":1251:1255  _fft */\n      0x03\n      0x00\n      swap1\n      sload\n      swap1\n      0x0100\n      exp\n      swap1\n      div\n      0xffffffffffffffffffffffffffffffffffffffff\n      and\n        /* \"contracts/HotswapController.sol\":1251:1268  _fft.transferFrom */\n      0xffffffffffffffffffffffffffffffffffffffff\n      and\n      0x23b872dd\n        /* \"contracts/HotswapController.sol\":1269:1279  msg.sender */\n      caller\n        /* \"contracts/HotswapController.sol\":1281:1291  _liquidity */\n      0x06\n      0x00\n      swap1\n      sload\n      swap1\n      0x0100\n      exp\n      swap1\n      div\n      0xffffffffffffffffffffffffffffffffffffffff\n      and\n        /* \"contracts/HotswapController.sol\":1293:1299  amount */\n      dup6\n        /* \"contracts/HotswapController.sol\":1251:1300  _fft.transferFrom(msg.sender, _liquidity, amount) */\n      mload(0x40)\n      dup5\n      0xffffffff\n      and\n      0xe0\n      shl\n      dup2\n      mstore\n      0x04\n      add\n      tag_238\n      swap4\n      swap3\n      swap2\n      swap1\n      tag_239\n      jump\t// in\n    tag_238:\n      0x20\n      mload(0x40)\n      dup1\n      dup4\n      sub\n      dup2\n      0x00\n      dup8\n      gas\n      call\n      iszero\n      dup1\n      iszero\n      tag_241\n      jumpi\n      returndatasize\n      0x00\n      dup1\n      returndatacopy\n      revert(0x00, returndatasize)\n    tag_241:\n      pop\n      pop\n      pop\n      pop\n      mload(0x40)\n      returndatasize\n      not(0x1f)\n      0x1f\n      dup3\n      add\n      and\n      dup3\n      add\n      dup1\n      0x40\n      mstore\n      pop\n      dup2\n      add\n      swap1\n      tag_242\n      swap2\n      swap1\n      tag_243\n      jump\t// in\n    tag_242:\n        /* \"contracts/HotswapController.sol\":1236:1300  bool success = _fft.transferFrom(msg.sender, _liquidity, amount) */\n      swap1\n      pop\n        /* \"contracts/HotswapController.sol\":1321:1328  success */\n      dup1\n        /* \"contracts/HotswapController.sol\":1313:1348  require(success, \"Transfer failed\") */\n      tag_244\n      jumpi\n      mload(0x40)\n      0x08c379a000000000000000000000000000000000000000000000000000000000\n      dup2\n      mstore\n      0x04\n      add\n      tag_245\n      swap1\n      tag_246\n      jump\t// in\n    tag_245:\n      mload(0x40)\n      dup1\n      swap2\n      sub\n      swap1\n      revert\n    tag_244:\n        /* \"contracts/HotswapController.sol\":1359:1386  _createLiquid(amount, true) */\n      tag_247\n        /* \"contracts/HotswapController.sol\":1373:1379  amount */\n      dup3\n        /* \"contracts/HotswapController.sol\":1381:1385  true */\n      0x01\n        /* \"contracts/HotswapController.sol\":1359:1372  _createLiquid */\n      tag_248\n        /* \"contracts/HotswapController.sol\":1359:1386  _createLiquid(amount, true) */\n      jump\t// in\n    tag_247:\n        /* \"contracts/HotswapController.sol\":1225:1394  {... */\n      pop\n        /* \"contracts/HotswapController.sol\":1180:1394  function depositFFT(uint256 amount) external {... */\n      pop\n      jump\t// out\n        /* \"contracts/HotswapController.sol\":2357:2949  function queryLiquidbyDepositor(... */\n    tag_110:\n        /* \"contracts/HotswapController.sol\":2469:2486  LiquidData memory */\n      tag_249\n      tag_162\n      jump\t// in\n    tag_249:\n        /* \"contracts/HotswapController.sol\":2499:2523  uint256[] memory indexes */\n      0x00\n        /* \"contracts/HotswapController.sol\":2526:2542  _liquidityByUser */\n      0x08\n        /* \"contracts/HotswapController.sol\":2526:2553  _liquidityByUser[depositor] */\n      0x00\n        /* \"contracts/HotswapController.sol\":2543:2552  depositor */\n      dup6\n        /* \"contracts/HotswapController.sol\":2526:2553  _liquidityByUser[depositor] */\n      0xffffffffffffffffffffffffffffffffffffffff\n      and\n      0xffffffffffffffffffffffffffffffffffffffff\n      and\n      dup2\n      mstore\n      0x20\n      add\n      swap1\n      dup2\n      mstore\n      0x20\n      add\n      0x00\n      keccak256\n        /* \"contracts/HotswapController.sol\":2499:2553  uint256[] memory indexes = _liquidityByUser[depositor] */\n      dup1\n      sload\n      dup1\n      0x20\n      mul\n      0x20\n      add\n      mload(0x40)\n      swap1\n      dup2\n      add\n      0x40\n      mstore\n      dup1\n      swap3\n      swap2\n      swap1\n      dup2\n      dup2\n      mstore\n      0x20\n      add\n      dup3\n      dup1\n      sload\n      dup1\n      iszero\n      tag_251\n      jumpi\n      0x20\n      mul\n      dup3\n      add\n      swap2\n      swap1\n      0x00\n      mstore\n      keccak256(0x00, 0x20)\n      swap1\n    tag_252:\n      dup2\n      sload\n      dup2\n      mstore\n      0x20\n      add\n      swap1\n      0x01\n      add\n      swap1\n      dup1\n      dup4\n      gt\n      tag_252\n      jumpi\n    tag_251:\n      pop\n      pop\n      pop\n      pop\n      pop\n      swap1\n      pop\n        /* \"contracts/HotswapController.sol\":2580:2587  indexes */\n      dup1\n        /* \"contracts/HotswapController.sol\":2580:2594  indexes.length */\n      mload\n        /* \"contracts/HotswapController.sol\":2572:2577  index */\n      dup4\n        /* \"contracts/HotswapController.sol\":2572:2594  index < indexes.length */\n      lt\n        /* \"contracts/HotswapController.sol\":2564:2617  require(index < indexes.length, \"Index out of range\") */\n      tag_253\n      jumpi\n      mload(0x40)\n      0x08c379a000000000000000000000000000000000000000000000000000000000\n      dup2\n      mstore\n      0x04\n      add\n      tag_254\n      swap1\n      tag_129\n      jump\t// in\n    tag_254:\n      mload(0x40)\n      dup1\n      swap2\n      sub\n      swap1\n      revert\n    tag_253:\n        /* \"contracts/HotswapController.sol\":2630:2639  uint256 n */\n      0x00\n        /* \"contracts/HotswapController.sol\":2642:2649  indexes */\n      dup2\n        /* \"contracts/HotswapController.sol\":2650:2655  index */\n      dup5\n        /* \"contracts/HotswapController.sol\":2642:2656  indexes[index] */\n      dup2\n      mload\n      dup2\n      lt\n      tag_255\n      jumpi\n      tag_256\n      tag_132\n      jump\t// in\n    tag_256:\n    tag_255:\n      0x20\n      mul\n      0x20\n      add\n      add\n      mload\n        /* \"contracts/HotswapController.sol\":2630:2656  uint256 n = indexes[index] */\n      swap1\n      pop\n        /* \"contracts/HotswapController.sol\":2669:2685  Liquid memory lq */\n      0x00\n        /* \"contracts/HotswapController.sol\":2688:2700  _liquidities */\n      0x09\n        /* \"contracts/HotswapController.sol\":2701:2702  n */\n      dup3\n        /* \"contracts/HotswapController.sol\":2688:2703  _liquidities[n] */\n      dup2\n      sload\n      dup2\n      lt\n      tag_257\n      jumpi\n      tag_258\n      tag_132\n      jump\t// in\n    tag_258:\n    tag_257:\n      swap1\n      0x00\n      mstore\n      keccak256(0x00, 0x20)\n      swap1\n      0x07\n      mul\n      add\n        /* \"contracts/HotswapController.sol\":2669:2703  Liquid memory lq = _liquidities[n] */\n      mload(0x40)\n      dup1\n      0xe0\n      add\n      0x40\n      mstore\n      swap1\n      dup2\n      0x00\n      dup3\n      add\n      0x00\n      swap1\n      sload\n      swap1\n      0x0100\n      exp\n      swap1\n      div\n      0xffffffffffffffffffffffffffffffffffffffff\n      and\n      0xffffffffffffffffffffffffffffffffffffffff\n      and\n      0xffffffffffffffffffffffffffffffffffffffff\n      and\n      dup2\n      mstore\n      0x20\n      add\n      0x01\n      dup3\n      add\n      sload\n      dup2\n      mstore\n      0x20\n      add\n      0x02\n      dup3\n      add\n      sload\n      dup2\n      mstore\n      0x20\n      add\n      0x03\n      dup3\n      add\n      sload\n      dup2\n      mstore\n      0x20\n      add\n      0x04\n      dup3\n      add\n      sload\n      dup2\n      mstore\n      0x20\n      add\n      0x05\n      dup3\n      add\n      0x00\n      swap1\n      sload\n      swap1\n      0x0100\n      exp\n      swap1\n      div\n      0xff\n      and\n      iszero\n      iszero\n      iszero\n      iszero\n      dup2\n      mstore\n      0x20\n      add\n      0x06\n      dup3\n      add\n      sload\n      dup2\n      mstore\n      pop\n      pop\n      swap1\n      pop\n        /* \"contracts/HotswapController.sol\":2736:2941  LiquidData(... */\n      mload(0x40)\n      dup1\n      0xc0\n      add\n      0x40\n      mstore\n      dup1\n        /* \"contracts/HotswapController.sol\":2765:2767  lq */\n      dup3\n        /* \"contracts/HotswapController.sol\":2765:2777  lq.depositor */\n      0x00\n      add\n      mload\n        /* \"contracts/HotswapController.sol\":2736:2941  LiquidData(... */\n      0xffffffffffffffffffffffffffffffffffffffff\n      and\n      dup2\n      mstore\n      0x20\n      add\n        /* \"contracts/HotswapController.sol\":2796:2798  lq */\n      dup3\n        /* \"contracts/HotswapController.sol\":2796:2810  lq.depositedAt */\n      0x20\n      add\n      mload\n        /* \"contracts/HotswapController.sol\":2736:2941  LiquidData(... */\n      dup2\n      mstore\n      0x20\n      add\n        /* \"contracts/HotswapController.sol\":2829:2831  lq */\n      dup3\n        /* \"contracts/HotswapController.sol\":2829:2837  lq.price */\n      0x40\n      add\n      mload\n        /* \"contracts/HotswapController.sol\":2736:2941  LiquidData(... */\n      dup2\n      mstore\n      0x20\n      add\n        /* \"contracts/HotswapController.sol\":2856:2858  lq */\n      dup3\n        /* \"contracts/HotswapController.sol\":2856:2867  lq.nftAlloc */\n      0x60\n      add\n      mload\n        /* \"contracts/HotswapController.sol\":2736:2941  LiquidData(... */\n      dup2\n      mstore\n      0x20\n      add\n        /* \"contracts/HotswapController.sol\":2886:2888  lq */\n      dup3\n        /* \"contracts/HotswapController.sol\":2886:2897  lq.fftAlloc */\n      0x80\n      add\n      mload\n        /* \"contracts/HotswapController.sol\":2736:2941  LiquidData(... */\n      dup2\n      mstore\n      0x20\n      add\n        /* \"contracts/HotswapController.sol\":2916:2918  lq */\n      dup3\n        /* \"contracts/HotswapController.sol\":2916:2926  lq.claimed */\n      0xa0\n      add\n      mload\n        /* \"contracts/HotswapController.sol\":2736:2941  LiquidData(... */\n      iszero\n      iszero\n      dup2\n      mstore\n      pop\n        /* \"contracts/HotswapController.sol\":2716:2941  return... */\n      swap4\n      pop\n      pop\n      pop\n      pop\n        /* \"contracts/HotswapController.sol\":2357:2949  function queryLiquidbyDepositor(... */\n      swap3\n      swap2\n      pop\n      pop\n      jump\t// out\n        /* \"contracts/HotswapController.sol\":684:1172  function depositNFT(uint256 amount) external {... */\n    tag_114:\n        /* \"contracts/HotswapController.sol\":784:785  0 */\n      0x00\n        /* \"contracts/HotswapController.sol\":762:786  _liquidity != address(0) */\n      0xffffffffffffffffffffffffffffffffffffffff\n      and\n        /* \"contracts/HotswapController.sol\":762:772  _liquidity */\n      0x06\n      0x00\n      swap1\n      sload\n      swap1\n      0x0100\n      exp\n      swap1\n      div\n      0xffffffffffffffffffffffffffffffffffffffff\n      and\n        /* \"contracts/HotswapController.sol\":762:786  _liquidity != address(0) */\n      0xffffffffffffffffffffffffffffffffffffffff\n      and\n      sub\n        /* \"contracts/HotswapController.sol\":740:853  require(... */\n      tag_261\n      jumpi\n      mload(0x40)\n      0x08c379a000000000000000000000000000000000000000000000000000000000\n      dup2\n      mstore\n      0x04\n      add\n      tag_262\n      swap1\n      tag_263\n      jump\t// in\n    tag_262:\n      mload(0x40)\n      dup1\n      swap2\n      sub\n      swap1\n      revert\n    tag_261:\n        /* \"contracts/HotswapController.sol\":866:881  uint256 tokenId */\n      0x00\n        /* \"contracts/HotswapController.sol\":892:909  bytes memory data */\n      dup1\n        /* \"contracts/HotswapController.sol\":922:923  0 */\n      0x00\n        /* \"contracts/HotswapController.sol\":912:924  new bytes(0) */\n      0xffffffffffffffff\n      dup2\n      gt\n      iszero\n      tag_264\n      jumpi\n      tag_265\n      tag_266\n      jump\t// in\n    tag_265:\n    tag_264:\n      mload(0x40)\n      swap1\n      dup1\n      dup3\n      mstore\n      dup1\n      0x1f\n      add\n      not(0x1f)\n      and\n      0x20\n      add\n      dup3\n      add\n      0x40\n      mstore\n      dup1\n      iszero\n      tag_267\n      jumpi\n      dup2\n      0x20\n      add\n      0x01\n      dup3\n      mul\n      dup1\n      calldatasize\n      dup4\n      calldatacopy\n      dup1\n      dup3\n      add\n      swap2\n      pop\n      pop\n      swap1\n      pop\n    tag_267:\n      pop\n        /* \"contracts/HotswapController.sol\":892:924  bytes memory data = new bytes(0) */\n      swap1\n      pop\n        /* \"contracts/HotswapController.sol\":942:951  uint256 i */\n      0x00\n        /* \"contracts/HotswapController.sol\":937:1125  for (uint256 i = 0; i < amount; i++) {... */\n    tag_268:\n        /* \"contracts/HotswapController.sol\":961:967  amount */\n      dup4\n        /* \"contracts/HotswapController.sol\":957:958  i */\n      dup2\n        /* \"contracts/HotswapController.sol\":957:967  i < amount */\n      lt\n        /* \"contracts/HotswapController.sol\":937:1125  for (uint256 i = 0; i < amount; i++) {... */\n      iszero\n      tag_269\n      jumpi\n        /* \"contracts/HotswapController.sol\":999:1003  _nft */\n      0x04\n      0x00\n      swap1\n      sload\n      swap1\n      0x0100\n      exp\n      swap1\n      div\n      0xffffffffffffffffffffffffffffffffffffffff\n      and\n        /* \"contracts/HotswapController.sol\":999:1023  _nft.tokenOfOwnerByIndex */\n      0xffffffffffffffffffffffffffffffffffffffff\n      and\n      0x2f745c59\n        /* \"contracts/HotswapController.sol\":1024:1034  msg.sender */\n      caller\n        /* \"contracts/HotswapController.sol\":1036:1037  i */\n      dup4\n        /* \"contracts/HotswapController.sol\":999:1038  _nft.tokenOfOwnerByIndex(msg.sender, i) */\n      mload(0x40)\n      dup4\n      0xffffffff\n      and\n      0xe0\n      shl\n      dup2\n      mstore\n      0x04\n      add\n      tag_271\n      swap3\n      swap2\n      swap1\n      tag_272\n      jump\t// in\n    tag_271:\n      0x20\n      mload(0x40)\n      dup1\n      dup4\n      sub\n      dup2\n      dup7\n      gas\n      staticcall\n      iszero\n      dup1\n      iszero\n      tag_274\n      jumpi\n      returndatasize\n      0x00\n      dup1\n      returndatacopy\n      revert(0x00, returndatasize)\n    tag_274:\n      pop\n      pop\n      pop\n      pop\n      mload(0x40)\n      returndatasize\n      not(0x1f)\n      0x1f\n      dup3\n      add\n      and\n      dup3\n      add\n      dup1\n      0x40\n      mstore\n      pop\n      dup2\n      add\n      swap1\n      tag_275\n      swap2\n      swap1\n      tag_276\n      jump\t// in\n    tag_275:\n        /* \"contracts/HotswapController.sol\":989:1038  tokenId = _nft.tokenOfOwnerByIndex(msg.sender, i) */\n      swap3\n      pop\n        /* \"contracts/HotswapController.sol\":1053:1057  _nft */\n      0x04\n      0x00\n      swap1\n      sload\n      swap1\n      0x0100\n      exp\n      swap1\n      div\n      0xffffffffffffffffffffffffffffffffffffffff\n      and\n        /* \"contracts/HotswapController.sol\":1053:1074  _nft.safeTransferFrom */\n      0xffffffffffffffffffffffffffffffffffffffff\n      and\n      0xb88d4fde\n        /* \"contracts/HotswapController.sol\":1075:1085  msg.sender */\n      caller\n        /* \"contracts/HotswapController.sol\":1087:1097  _liquidity */\n      0x06\n      0x00\n      swap1\n      sload\n      swap1\n      0x0100\n      exp\n      swap1\n      div\n      0xffffffffffffffffffffffffffffffffffffffff\n      and\n        /* \"contracts/HotswapController.sol\":1099:1106  tokenId */\n      dup7\n        /* \"contracts/HotswapController.sol\":1108:1112  data */\n      dup7\n        /* \"contracts/HotswapController.sol\":1053:1113  _nft.safeTransferFrom(msg.sender, _liquidity, tokenId, data) */\n      mload(0x40)\n      dup6\n      0xffffffff\n      and\n      0xe0\n      shl\n      dup2\n      mstore\n      0x04\n      add\n      tag_277\n      swap5\n      swap4\n      swap3\n      swap2\n      swap1\n      tag_278\n      jump\t// in\n    tag_277:\n      0x00\n      mload(0x40)\n      dup1\n      dup4\n      sub\n      dup2\n      0x00\n      dup8\n      dup1\n      extcodesize\n      iszero\n      dup1\n      iszero\n      tag_279\n      jumpi\n      0x00\n      dup1\n      revert\n    tag_279:\n      pop\n      gas\n      call\n      iszero\n      dup1\n      iszero\n      tag_281\n      jumpi\n      returndatasize\n      0x00\n      dup1\n      returndatacopy\n      revert(0x00, returndatasize)\n    tag_281:\n      pop\n      pop\n      pop\n      pop\n        /* \"contracts/HotswapController.sol\":969:972  i++ */\n      dup1\n      dup1\n      0x01\n      add\n      swap2\n      pop\n      pop\n        /* \"contracts/HotswapController.sol\":937:1125  for (uint256 i = 0; i < amount; i++) {... */\n      jump(tag_268)\n    tag_269:\n      pop\n        /* \"contracts/HotswapController.sol\":1137:1164  _createLiquid(amount, true) */\n      tag_282\n        /* \"contracts/HotswapController.sol\":1151:1157  amount */\n      dup4\n        /* \"contracts/HotswapController.sol\":1159:1163  true */\n      0x01\n        /* \"contracts/HotswapController.sol\":1137:1150  _createLiquid */\n      tag_248\n        /* \"contracts/HotswapController.sol\":1137:1164  _createLiquid(amount, true) */\n      jump\t// in\n    tag_282:\n        /* \"contracts/HotswapController.sol\":729:1172  {... */\n      pop\n      pop\n        /* \"contracts/HotswapController.sol\":684:1172  function depositNFT(uint256 amount) external {... */\n      pop\n      jump\t// out\n        /* \"contracts/Ownable.sol\":856:965  function transferOwnership(address newOwner) public onlyOwner {... */\n    tag_117:\n        /* \"contracts/Ownable.sol\":584:593  isOwner() */\n      tag_284\n        /* \"contracts/Ownable.sol\":584:591  isOwner */\n      tag_84\n        /* \"contracts/Ownable.sol\":584:593  isOwner() */\n      jump\t// in\n    tag_284:\n        /* \"contracts/Ownable.sol\":576:594  require(isOwner()) */\n      tag_285\n      jumpi\n      0x00\n      dup1\n      revert\n    tag_285:\n        /* \"contracts/Ownable.sol\":929:957  _transferOwnership(newOwner) */\n      tag_287\n        /* \"contracts/Ownable.sol\":948:956  newOwner */\n      dup2\n        /* \"contracts/Ownable.sol\":929:947  _transferOwnership */\n      tag_288\n        /* \"contracts/Ownable.sol\":929:957  _transferOwnership(newOwner) */\n      jump\t// in\n    tag_287:\n        /* \"contracts/Ownable.sol\":856:965  function transferOwnership(address newOwner) public onlyOwner {... */\n      pop\n      jump\t// out\n        /* \"contracts/HotswapPair.sol\":321:437  function setNFT(address addr) public onlyOwner {... */\n    tag_120:\n        /* \"contracts/Ownable.sol\":584:593  isOwner() */\n      tag_290\n        /* \"contracts/Ownable.sol\":584:591  isOwner */\n      tag_84\n        /* \"contracts/Ownable.sol\":584:593  isOwner() */\n      jump\t// in\n    tag_290:\n        /* \"contracts/Ownable.sol\":576:594  require(isOwner()) */\n      tag_291\n      jumpi\n      0x00\n      dup1\n      revert\n    tag_291:\n        /* \"contracts/HotswapPair.sol\":385:389  addr */\n      dup1\n        /* \"contracts/HotswapPair.sol\":379:382  NFT */\n      0x01\n      0x00\n        /* \"contracts/HotswapPair.sol\":379:389  NFT = addr */\n      0x0100\n      exp\n      dup2\n      sload\n      dup2\n      0xffffffffffffffffffffffffffffffffffffffff\n      mul\n      not\n      and\n      swap1\n      dup4\n      0xffffffffffffffffffffffffffffffffffffffff\n      and\n      mul\n      or\n      swap1\n      sstore\n      pop\n        /* \"contracts/HotswapPair.sol\":424:428  addr */\n      dup1\n        /* \"contracts/HotswapPair.sol\":400:404  _nft */\n      0x04\n      0x00\n        /* \"contracts/HotswapPair.sol\":400:429  _nft = ERC721Enumerable(addr) */\n      0x0100\n      exp\n      dup2\n      sload\n      dup2\n      0xffffffffffffffffffffffffffffffffffffffff\n      mul\n      not\n      and\n      swap1\n      dup4\n      0xffffffffffffffffffffffffffffffffffffffff\n      and\n      mul\n      or\n      swap1\n      sstore\n      pop\n        /* \"contracts/HotswapPair.sol\":321:437  function setNFT(address addr) public onlyOwner {... */\n      pop\n      jump\t// out\n        /* \"contracts/HotswapControllerBase.sol\":1326:1417  function setCollector(address addr) external onlyOwner {... */\n    tag_123:\n        /* \"contracts/Ownable.sol\":584:593  isOwner() */\n      tag_294\n        /* \"contracts/Ownable.sol\":584:591  isOwner */\n      tag_84\n        /* \"contracts/Ownable.sol\":584:593  isOwner() */\n      jump\t// in\n    tag_294:\n        /* \"contracts/Ownable.sol\":576:594  require(isOwner()) */\n      tag_295\n      jumpi\n      0x00\n      dup1\n      revert\n    tag_295:\n        /* \"contracts/HotswapControllerBase.sol\":1405:1409  addr */\n      dup1\n        /* \"contracts/HotswapControllerBase.sol\":1392:1402  _collector */\n      0x05\n      0x00\n        /* \"contracts/HotswapControllerBase.sol\":1392:1409  _collector = addr */\n      0x0100\n      exp\n      dup2\n      sload\n      dup2\n      0xffffffffffffffffffffffffffffffffffffffff\n      mul\n      not\n      and\n      swap1\n      dup4\n      0xffffffffffffffffffffffffffffffffffffffff\n      and\n      mul\n      or\n      swap1\n      sstore\n      pop\n        /* \"contracts/HotswapControllerBase.sol\":1326:1417  function setCollector(address addr) external onlyOwner {... */\n      pop\n      jump\t// out\n        /* \"contracts/HotswapController.sol\":4065:4662  function _removeLiquidity(Liquid memory lq, uint256 index) private {... */\n    tag_154:\n        /* \"contracts/HotswapController.sol\":4143:4160  uint256 userIndex */\n      0x00\n        /* \"contracts/HotswapController.sol\":4163:4165  lq */\n      dup3\n        /* \"contracts/HotswapController.sol\":4163:4175  lq.userIndex */\n      0xc0\n      add\n      mload\n        /* \"contracts/HotswapController.sol\":4143:4175  uint256 userIndex = lq.userIndex */\n      swap1\n      pop\n        /* \"contracts/HotswapController.sol\":4188:4207  Liquid storage last */\n      0x00\n        /* \"contracts/HotswapController.sol\":4218:4247  uint256[] storage userLiquids */\n      dup1\n        /* \"contracts/HotswapController.sol\":4250:4266  _liquidityByUser */\n      0x08\n        /* \"contracts/HotswapController.sol\":4250:4278  _liquidityByUser[msg.sender] */\n      0x00\n        /* \"contracts/HotswapController.sol\":4267:4277  msg.sender */\n      caller\n        /* \"contracts/HotswapController.sol\":4250:4278  _liquidityByUser[msg.sender] */\n      0xffffffffffffffffffffffffffffffffffffffff\n      and\n      0xffffffffffffffffffffffffffffffffffffffff\n      and\n      dup2\n      mstore\n      0x20\n      add\n      swap1\n      dup2\n      mstore\n      0x20\n      add\n      0x00\n      keccak256\n        /* \"contracts/HotswapController.sol\":4218:4278  uint256[] storage userLiquids = _liquidityByUser[msg.sender] */\n      swap1\n      pop\n        /* \"contracts/HotswapController.sol\":4295:4330  _removeItem(userLiquids, userIndex) */\n      tag_298\n        /* \"contracts/HotswapController.sol\":4307:4318  userLiquids */\n      dup2\n        /* \"contracts/HotswapController.sol\":4320:4329  userIndex */\n      dup5\n        /* \"contracts/HotswapController.sol\":4295:4306  _removeItem */\n      tag_299\n        /* \"contracts/HotswapController.sol\":4295:4330  _removeItem(userLiquids, userIndex) */\n      jump\t// in\n    tag_298:\n        /* \"contracts/HotswapController.sol\":4291:4443  if (_removeItem(userLiquids, userIndex)) {... */\n      iszero\n      tag_300\n      jumpi\n        /* \"contracts/HotswapController.sol\":4354:4366  _liquidities */\n      0x09\n        /* \"contracts/HotswapController.sol\":4367:4378  userLiquids */\n      dup2\n        /* \"contracts/HotswapController.sol\":4379:4388  userIndex */\n      dup5\n        /* \"contracts/HotswapController.sol\":4367:4389  userLiquids[userIndex] */\n      dup2\n      sload\n      dup2\n      lt\n      tag_301\n      jumpi\n      tag_302\n      tag_132\n      jump\t// in\n    tag_302:\n    tag_301:\n      swap1\n      0x00\n      mstore\n      keccak256(0x00, 0x20)\n      add\n      sload\n        /* \"contracts/HotswapController.sol\":4354:4390  _liquidities[userLiquids[userIndex]] */\n      dup2\n      sload\n      dup2\n      lt\n      tag_304\n      jumpi\n      tag_305\n      tag_132\n      jump\t// in\n    tag_305:\n    tag_304:\n      swap1\n      0x00\n      mstore\n      keccak256(0x00, 0x20)\n      swap1\n      0x07\n      mul\n      add\n        /* \"contracts/HotswapController.sol\":4347:4390  last = _liquidities[userLiquids[userIndex]] */\n      swap2\n      pop\n        /* \"contracts/HotswapController.sol\":4422:4431  userIndex */\n      dup3\n        /* \"contracts/HotswapController.sol\":4405:4409  last */\n      dup3\n        /* \"contracts/HotswapController.sol\":4405:4419  last.userIndex */\n      0x06\n      add\n        /* \"contracts/HotswapController.sol\":4405:4431  last.userIndex = userIndex */\n      dup2\n      swap1\n      sstore\n      pop\n        /* \"contracts/HotswapController.sol\":4291:4443  if (_removeItem(userLiquids, userIndex)) {... */\n    tag_300:\n        /* \"contracts/HotswapController.sol\":4459:4491  _removeItem(_liquidities, index) */\n      tag_307\n        /* \"contracts/HotswapController.sol\":4471:4483  _liquidities */\n      0x09\n        /* \"contracts/HotswapController.sol\":4485:4490  index */\n      dup6\n        /* \"contracts/HotswapController.sol\":4459:4470  _removeItem */\n      tag_308\n        /* \"contracts/HotswapController.sol\":4459:4491  _removeItem(_liquidities, index) */\n      jump\t// in\n    tag_307:\n        /* \"contracts/HotswapController.sol\":4455:4655  if (_removeItem(_liquidities, index)) {... */\n      iszero\n      tag_309\n      jumpi\n        /* \"contracts/HotswapController.sol\":4515:4527  _liquidities */\n      0x09\n        /* \"contracts/HotswapController.sol\":4528:4533  index */\n      dup5\n        /* \"contracts/HotswapController.sol\":4515:4534  _liquidities[index] */\n      dup2\n      sload\n      dup2\n      lt\n      tag_310\n      jumpi\n      tag_311\n      tag_132\n      jump\t// in\n    tag_311:\n    tag_310:\n      swap1\n      0x00\n      mstore\n      keccak256(0x00, 0x20)\n      swap1\n      0x07\n      mul\n      add\n        /* \"contracts/HotswapController.sol\":4508:4534  last = _liquidities[index] */\n      swap2\n      pop\n        /* \"contracts/HotswapController.sol\":4563:4567  last */\n      dup2\n        /* \"contracts/HotswapController.sol\":4563:4577  last.userIndex */\n      0x06\n      add\n      sload\n        /* \"contracts/HotswapController.sol\":4551:4577  userIndex = last.userIndex */\n      swap3\n      pop\n        /* \"contracts/HotswapController.sol\":4638:4643  index */\n      dup4\n        /* \"contracts/HotswapController.sol\":4592:4608  _liquidityByUser */\n      0x08\n        /* \"contracts/HotswapController.sol\":4592:4624  _liquidityByUser[last.depositor] */\n      0x00\n        /* \"contracts/HotswapController.sol\":4609:4613  last */\n      dup5\n        /* \"contracts/HotswapController.sol\":4609:4623  last.depositor */\n      0x00\n      add\n      0x00\n      swap1\n      sload\n      swap1\n      0x0100\n      exp\n      swap1\n      div\n      0xffffffffffffffffffffffffffffffffffffffff\n      and\n        /* \"contracts/HotswapController.sol\":4592:4624  _liquidityByUser[last.depositor] */\n      0xffffffffffffffffffffffffffffffffffffffff\n      and\n      0xffffffffffffffffffffffffffffffffffffffff\n      and\n      dup2\n      mstore\n      0x20\n      add\n      swap1\n      dup2\n      mstore\n      0x20\n      add\n      0x00\n      keccak256\n        /* \"contracts/HotswapController.sol\":4625:4634  userIndex */\n      dup5\n        /* \"contracts/HotswapController.sol\":4592:4635  _liquidityByUser[last.depositor][userIndex] */\n      dup2\n      sload\n      dup2\n      lt\n      tag_313\n      jumpi\n      tag_314\n      tag_132\n      jump\t// in\n    tag_314:\n    tag_313:\n      swap1\n      0x00\n      mstore\n      keccak256(0x00, 0x20)\n      add\n        /* \"contracts/HotswapController.sol\":4592:4643  _liquidityByUser[last.depositor][userIndex] = index */\n      dup2\n      swap1\n      sstore\n      pop\n        /* \"contracts/HotswapController.sol\":4455:4655  if (_removeItem(_liquidities, index)) {... */\n    tag_309:\n        /* \"contracts/HotswapController.sol\":4132:4662  {... */\n      pop\n      pop\n      pop\n        /* \"contracts/HotswapController.sol\":4065:4662  function _removeLiquidity(Liquid memory lq, uint256 index) private {... */\n      pop\n      pop\n      jump\t// out\n        /* \"contracts/HotswapControllerBase.sol\":983:1318  function _computePrice() internal returns (uint256) {... */\n    tag_160:\n        /* \"contracts/HotswapControllerBase.sol\":1026:1033  uint256 */\n      0x00\n        /* \"contracts/HotswapControllerBase.sol\":1046:1062  uint256 fBalance */\n      dup1\n        /* \"contracts/HotswapControllerBase.sol\":1065:1069  _fft */\n      0x03\n      0x00\n      swap1\n      sload\n      swap1\n      0x0100\n      exp\n      swap1\n      div\n      0xffffffffffffffffffffffffffffffffffffffff\n      and\n        /* \"contracts/HotswapControllerBase.sol\":1065:1079  _fft.balanceOf */\n      0xffffffffffffffffffffffffffffffffffffffff\n      and\n      0x70a08231\n        /* \"contracts/HotswapControllerBase.sol\":1080:1090  _liquidity */\n      0x06\n      0x00\n      swap1\n      sload\n      swap1\n      0x0100\n      exp\n      swap1\n      div\n      0xffffffffffffffffffffffffffffffffffffffff\n      and\n        /* \"contracts/HotswapControllerBase.sol\":1065:1091  _fft.balanceOf(_liquidity) */\n      mload(0x40)\n      dup3\n      0xffffffff\n      and\n      0xe0\n      shl\n      dup2\n      mstore\n      0x04\n      add\n      tag_317\n      swap2\n      swap1\n      tag_37\n      jump\t// in\n    tag_317:\n      0x20\n      mload(0x40)\n      dup1\n      dup4\n      sub\n      dup2\n      dup7\n      gas\n      staticcall\n      iszero\n      dup1\n      iszero\n      tag_319\n      jumpi\n      returndatasize\n      0x00\n      dup1\n      returndatacopy\n      revert(0x00, returndatasize)\n    tag_319:\n      pop\n      pop\n      pop\n      pop\n      mload(0x40)\n      returndatasize\n      not(0x1f)\n      0x1f\n      dup3\n      add\n      and\n      dup3\n      add\n      dup1\n      0x40\n      mstore\n      pop\n      dup2\n      add\n      swap1\n      tag_320\n      swap2\n      swap1\n      tag_276\n      jump\t// in\n    tag_320:\n        /* \"contracts/HotswapControllerBase.sol\":1046:1091  uint256 fBalance = _fft.balanceOf(_liquidity) */\n      swap1\n      pop\n        /* \"contracts/HotswapControllerBase.sol\":1102:1118  uint256 nBalance */\n      0x00\n        /* \"contracts/HotswapControllerBase.sol\":1121:1125  _nft */\n      0x04\n      0x00\n      swap1\n      sload\n      swap1\n      0x0100\n      exp\n      swap1\n      div\n      0xffffffffffffffffffffffffffffffffffffffff\n      and\n        /* \"contracts/HotswapControllerBase.sol\":1121:1135  _nft.balanceOf */\n      0xffffffffffffffffffffffffffffffffffffffff\n      and\n      0x70a08231\n        /* \"contracts/HotswapControllerBase.sol\":1136:1146  _liquidity */\n      0x06\n      0x00\n      swap1\n      sload\n      swap1\n      0x0100\n      exp\n      swap1\n      div\n      0xffffffffffffffffffffffffffffffffffffffff\n      and\n        /* \"contracts/HotswapControllerBase.sol\":1121:1147  _nft.balanceOf(_liquidity) */\n      mload(0x40)\n      dup3\n      0xffffffff\n      and\n      0xe0\n      shl\n      dup2\n      mstore\n      0x04\n      add\n      tag_321\n      swap2\n      swap1\n      tag_37\n      jump\t// in\n    tag_321:\n      0x20\n      mload(0x40)\n      dup1\n      dup4\n      sub\n      dup2\n      dup7\n      gas\n      staticcall\n      iszero\n      dup1\n      iszero\n      tag_323\n      jumpi\n      returndatasize\n      0x00\n      dup1\n      returndatacopy\n      revert(0x00, returndatasize)\n    tag_323:\n      pop\n      pop\n      pop\n      pop\n      mload(0x40)\n      returndatasize\n      not(0x1f)\n      0x1f\n      dup3\n      add\n      and\n      dup3\n      add\n      dup1\n      0x40\n      mstore\n      pop\n      dup2\n      add\n      swap1\n      tag_324\n      swap2\n      swap1\n      tag_276\n      jump\t// in\n    tag_324:\n        /* \"contracts/HotswapControllerBase.sol\":1102:1147  uint256 nBalance = _nft.balanceOf(_liquidity) */\n      swap1\n      pop\n        /* \"contracts/HotswapControllerBase.sol\":1227:1228  0 */\n      0x00\n        /* \"contracts/HotswapControllerBase.sol\":1215:1223  nBalance */\n      dup2\n        /* \"contracts/HotswapControllerBase.sol\":1215:1228  nBalance != 0 */\n      eq\n        /* \"contracts/HotswapControllerBase.sol\":1211:1285  if (nBalance != 0) {... */\n      tag_325\n      jumpi\n        /* \"contracts/HotswapControllerBase.sol\":1265:1273  nBalance */\n      dup1\n        /* \"contracts/HotswapControllerBase.sol\":1254:1262  fBalance */\n      dup3\n        /* \"contracts/HotswapControllerBase.sol\":1254:1273  fBalance / nBalance */\n      tag_326\n      swap2\n      swap1\n      tag_139\n      jump\t// in\n    tag_326:\n        /* \"contracts/HotswapControllerBase.sol\":1245:1251  _price */\n      0x07\n        /* \"contracts/HotswapControllerBase.sol\":1245:1273  _price = fBalance / nBalance */\n      dup2\n      swap1\n      sstore\n      pop\n        /* \"contracts/HotswapControllerBase.sol\":1211:1285  if (nBalance != 0) {... */\n    tag_325:\n        /* \"contracts/HotswapControllerBase.sol\":1304:1310  _price */\n      sload(0x07)\n        /* \"contracts/HotswapControllerBase.sol\":1297:1310  return _price */\n      swap3\n      pop\n      pop\n      pop\n        /* \"contracts/HotswapControllerBase.sol\":983:1318  function _computePrice() internal returns (uint256) {... */\n      swap1\n      jump\t// out\n        /* \"contracts/HotswapController.sol\":5315:5773  function _deductFee(uint256 amount) private returns (uint256) {... */\n    tag_169:\n        /* \"contracts/HotswapController.sol\":5368:5375  uint256 */\n      0x00\n        /* \"contracts/HotswapController.sol\":5388:5399  uint256 fee */\n      dup1\n        /* \"contracts/HotswapController.sol\":5441:5447  10_000 */\n      0x2710\n        /* \"contracts/HotswapController.sol\":502:503  5 */\n      0x05\n        /* \"contracts/HotswapController.sol\":5403:5409  amount */\n      dup5\n        /* \"contracts/HotswapController.sol\":5403:5437  amount * FEE_RATIO_BY_TEN_THOUSAND */\n      tag_328\n      swap2\n      swap1\n      tag_214\n      jump\t// in\n    tag_328:\n        /* \"contracts/HotswapController.sol\":5402:5447  (amount * FEE_RATIO_BY_TEN_THOUSAND) / 10_000 */\n      tag_329\n      swap2\n      swap1\n      tag_139\n      jump\t// in\n    tag_329:\n        /* \"contracts/HotswapController.sol\":5388:5447  uint256 fee = (amount * FEE_RATIO_BY_TEN_THOUSAND) / 10_000 */\n      swap1\n      pop\n        /* \"contracts/HotswapController.sol\":5460:5480  uint256 collectorFee */\n      0x00\n        /* \"contracts/HotswapController.sol\":5489:5490  5 */\n      0x05\n        /* \"contracts/HotswapController.sol\":5483:5486  fee */\n      dup3\n        /* \"contracts/HotswapController.sol\":5483:5490  fee / 5 */\n      tag_330\n      swap2\n      swap1\n      tag_139\n      jump\t// in\n    tag_330:\n        /* \"contracts/HotswapController.sol\":5460:5490  uint256 collectorFee = fee / 5 */\n      swap1\n      pop\n        /* \"contracts/HotswapController.sol\":5501:5515  uint256 remFee */\n      0x00\n        /* \"contracts/HotswapController.sol\":5524:5536  collectorFee */\n      dup2\n        /* \"contracts/HotswapController.sol\":5518:5521  fee */\n      dup4\n        /* \"contracts/HotswapController.sol\":5518:5536  fee - collectorFee */\n      tag_331\n      swap2\n      swap1\n      tag_175\n      jump\t// in\n    tag_331:\n        /* \"contracts/HotswapController.sol\":5501:5536  uint256 remFee = fee - collectorFee */\n      swap1\n      pop\n        /* \"contracts/HotswapController.sol\":5549:5561  bool success */\n      0x00\n        /* \"contracts/HotswapController.sol\":5564:5568  _fft */\n      0x03\n      0x00\n      swap1\n      sload\n      swap1\n      0x0100\n      exp\n      swap1\n      div\n      0xffffffffffffffffffffffffffffffffffffffff\n      and\n        /* \"contracts/HotswapController.sol\":5564:5577  _fft.transfer */\n      0xffffffffffffffffffffffffffffffffffffffff\n      and\n      0xa9059cbb\n        /* \"contracts/HotswapController.sol\":5578:5588  _collector */\n      0x05\n      0x00\n      swap1\n      sload\n      swap1\n      0x0100\n      exp\n      swap1\n      div\n      0xffffffffffffffffffffffffffffffffffffffff\n      and\n        /* \"contracts/HotswapController.sol\":5590:5602  collectorFee */\n      dup6\n        /* \"contracts/HotswapController.sol\":5564:5603  _fft.transfer(_collector, collectorFee) */\n      mload(0x40)\n      dup4\n      0xffffffff\n      and\n      0xe0\n      shl\n      dup2\n      mstore\n      0x04\n      add\n      tag_332\n      swap3\n      swap2\n      swap1\n      tag_272\n      jump\t// in\n    tag_332:\n      0x20\n      mload(0x40)\n      dup1\n      dup4\n      sub\n      dup2\n      0x00\n      dup8\n      gas\n      call\n      iszero\n      dup1\n      iszero\n      tag_334\n      jumpi\n      returndatasize\n      0x00\n      dup1\n      returndatacopy\n      revert(0x00, returndatasize)\n    tag_334:\n      pop\n      pop\n      pop\n      pop\n      mload(0x40)\n      returndatasize\n      not(0x1f)\n      0x1f\n      dup3\n      add\n      and\n      dup3\n      add\n      dup1\n      0x40\n      mstore\n      pop\n      dup2\n      add\n      swap1\n      tag_335\n      swap2\n      swap1\n      tag_243\n      jump\t// in\n    tag_335:\n        /* \"contracts/HotswapController.sol\":5549:5603  bool success = _fft.transfer(_collector, collectorFee) */\n      swap1\n      pop\n        /* \"contracts/HotswapController.sol\":5622:5629  success */\n      dup1\n        /* \"contracts/HotswapController.sol\":5614:5630  require(success) */\n      tag_336\n      jumpi\n      0x00\n      dup1\n      revert\n    tag_336:\n        /* \"contracts/HotswapController.sol\":5651:5655  _fft */\n      0x03\n      0x00\n      swap1\n      sload\n      swap1\n      0x0100\n      exp\n      swap1\n      div\n      0xffffffffffffffffffffffffffffffffffffffff\n      and\n        /* \"contracts/HotswapController.sol\":5651:5664  _fft.transfer */\n      0xffffffffffffffffffffffffffffffffffffffff\n      and\n      0xa9059cbb\n        /* \"contracts/HotswapController.sol\":5673:5677  this */\n      address\n        /* \"contracts/HotswapController.sol\":5680:5686  remFee */\n      dup5\n        /* \"contracts/HotswapController.sol\":5651:5687  _fft.transfer(address(this), remFee) */\n      mload(0x40)\n      dup4\n      0xffffffff\n      and\n      0xe0\n      shl\n      dup2\n      mstore\n      0x04\n      add\n      tag_337\n      swap3\n      swap2\n      swap1\n      tag_272\n      jump\t// in\n    tag_337:\n      0x20\n      mload(0x40)\n      dup1\n      dup4\n      sub\n      dup2\n      0x00\n      dup8\n      gas\n      call\n      iszero\n      dup1\n      iszero\n      tag_339\n      jumpi\n      returndatasize\n      0x00\n      dup1\n      returndatacopy\n      revert(0x00, returndatasize)\n    tag_339:\n      pop\n      pop\n      pop\n      pop\n      mload(0x40)\n      returndatasize\n      not(0x1f)\n      0x1f\n      dup3\n      add\n      and\n      dup3\n      add\n      dup1\n      0x40\n      mstore\n      pop\n      dup2\n      add\n      swap1\n      tag_340\n      swap2\n      swap1\n      tag_243\n      jump\t// in\n    tag_340:\n        /* \"contracts/HotswapController.sol\":5641:5687  success = _fft.transfer(address(this), remFee) */\n      swap1\n      pop\n        /* \"contracts/HotswapController.sol\":5706:5713  success */\n      dup1\n        /* \"contracts/HotswapController.sol\":5698:5714  require(success) */\n      tag_341\n      jumpi\n      0x00\n      dup1\n      revert\n    tag_341:\n        /* \"contracts/HotswapController.sol\":5736:5742  remFee */\n      dup2\n        /* \"contracts/HotswapController.sol\":5727:5732  _fees */\n      0x0a\n      0x00\n        /* \"contracts/HotswapController.sol\":5727:5742  _fees += remFee */\n      dup3\n      dup3\n      sload\n      tag_342\n      swap2\n      swap1\n      tag_137\n      jump\t// in\n    tag_342:\n      swap3\n      pop\n      pop\n      dup2\n      swap1\n      sstore\n      pop\n        /* \"contracts/HotswapController.sol\":5762:5765  fee */\n      dup4\n        /* \"contracts/HotswapController.sol\":5755:5765  return fee */\n      swap5\n      pop\n      pop\n      pop\n      pop\n      pop\n        /* \"contracts/HotswapController.sol\":5315:5773  function _deductFee(uint256 amount) private returns (uint256) {... */\n      swap2\n      swap1\n      pop\n      jump\t// out\n        /* \"contracts/HotswapController.sol\":8536:9045  function _findSuitableLiquid(... */\n    tag_182:\n        /* \"contracts/HotswapController.sol\":8615:8627  bool success */\n      0x00\n        /* \"contracts/HotswapController.sol\":8629:8642  uint256 index */\n      dup1\n        /* \"contracts/HotswapController.sol\":8655:8675  Liquid memory liquid */\n      tag_344\n      tag_345\n      jump\t// in\n    tag_344:\n        /* \"contracts/HotswapController.sol\":8688:8697  uint256 j */\n      0x00\n        /* \"contracts/HotswapController.sol\":8719:8731  _liquidities */\n      0x09\n        /* \"contracts/HotswapController.sol\":8719:8738  _liquidities.length */\n      dup1\n      sload\n      swap1\n      pop\n        /* \"contracts/HotswapController.sol\":8715:8738  j = _liquidities.length */\n      swap1\n      pop\n        /* \"contracts/HotswapController.sol\":8710:9038  for (j = _liquidities.length; j > 0 && !success; j--) {... */\n    tag_346:\n        /* \"contracts/HotswapController.sol\":8744:8745  0 */\n      0x00\n        /* \"contracts/HotswapController.sol\":8740:8741  j */\n      dup2\n        /* \"contracts/HotswapController.sol\":8740:8745  j > 0 */\n      gt\n        /* \"contracts/HotswapController.sol\":8740:8757  j > 0 && !success */\n      dup1\n      iszero\n      tag_349\n      jumpi\n      pop\n        /* \"contracts/HotswapController.sol\":8750:8757  success */\n      dup4\n        /* \"contracts/HotswapController.sol\":8749:8757  !success */\n      iszero\n        /* \"contracts/HotswapController.sol\":8740:8757  j > 0 && !success */\n    tag_349:\n        /* \"contracts/HotswapController.sol\":8710:9038  for (j = _liquidities.length; j > 0 && !success; j--) {... */\n      iszero\n      tag_347\n      jumpi\n        /* \"contracts/HotswapController.sol\":8791:8792  1 */\n      0x01\n        /* \"contracts/HotswapController.sol\":8787:8788  j */\n      dup2\n        /* \"contracts/HotswapController.sol\":8787:8792  j - 1 */\n      tag_350\n      swap2\n      swap1\n      tag_175\n      jump\t// in\n    tag_350:\n        /* \"contracts/HotswapController.sol\":8779:8792  index = j - 1 */\n      swap3\n      pop\n        /* \"contracts/HotswapController.sol\":8818:8830  _liquidities */\n      0x09\n        /* \"contracts/HotswapController.sol\":8831:8836  index */\n      dup4\n        /* \"contracts/HotswapController.sol\":8818:8837  _liquidities[index] */\n      dup2\n      sload\n      dup2\n      lt\n      tag_351\n      jumpi\n      tag_352\n      tag_132\n      jump\t// in\n    tag_352:\n    tag_351:\n      swap1\n      0x00\n      mstore\n      keccak256(0x00, 0x20)\n      swap1\n      0x07\n      mul\n      add\n        /* \"contracts/HotswapController.sol\":8809:8837  liquid = _liquidities[index] */\n      mload(0x40)\n      dup1\n      0xe0\n      add\n      0x40\n      mstore\n      swap1\n      dup2\n      0x00\n      dup3\n      add\n      0x00\n      swap1\n      sload\n      swap1\n      0x0100\n      exp\n      swap1\n      div\n      0xffffffffffffffffffffffffffffffffffffffff\n      and\n      0xffffffffffffffffffffffffffffffffffffffff\n      and\n      0xffffffffffffffffffffffffffffffffffffffff\n      and\n      dup2\n      mstore\n      0x20\n      add\n      0x01\n      dup3\n      add\n      sload\n      dup2\n      mstore\n      0x20\n      add\n      0x02\n      dup3\n      add\n      sload\n      dup2\n      mstore\n      0x20\n      add\n      0x03\n      dup3\n      add\n      sload\n      dup2\n      mstore\n      0x20\n      add\n      0x04\n      dup3\n      add\n      sload\n      dup2\n      mstore\n      0x20\n      add\n      0x05\n      dup3\n      add\n      0x00\n      swap1\n      sload\n      swap1\n      0x0100\n      exp\n      swap1\n      div\n      0xff\n      and\n      iszero\n      iszero\n      iszero\n      iszero\n      dup2\n      mstore\n      0x20\n      add\n      0x06\n      dup3\n      add\n      sload\n      dup2\n      mstore\n      pop\n      pop\n      swap2\n      pop\n        /* \"contracts/HotswapController.sol\":8859:8864  isNFT */\n      dup5\n        /* \"contracts/HotswapController.sol\":8858:8864  !isNFT */\n      iszero\n        /* \"contracts/HotswapController.sol\":8858:8887  !isNFT && liquid.fftAlloc > 0 */\n      dup1\n      iszero\n      tag_354\n      jumpi\n      pop\n        /* \"contracts/HotswapController.sol\":8886:8887  0 */\n      0x00\n        /* \"contracts/HotswapController.sol\":8868:8874  liquid */\n      dup3\n        /* \"contracts/HotswapController.sol\":8868:8883  liquid.fftAlloc */\n      0x80\n      add\n      mload\n        /* \"contracts/HotswapController.sol\":8868:8887  liquid.fftAlloc > 0 */\n      gt\n        /* \"contracts/HotswapController.sol\":8858:8887  !isNFT && liquid.fftAlloc > 0 */\n    tag_354:\n        /* \"contracts/HotswapController.sol\":8854:9027  if (!isNFT && liquid.fftAlloc > 0) {... */\n      iszero\n      tag_355\n      jumpi\n        /* \"contracts/HotswapController.sol\":8918:8922  true */\n      0x01\n        /* \"contracts/HotswapController.sol\":8908:8922  success = true */\n      swap4\n      pop\n        /* \"contracts/HotswapController.sol\":8854:9027  if (!isNFT && liquid.fftAlloc > 0) {... */\n      jump(tag_356)\n    tag_355:\n        /* \"contracts/HotswapController.sol\":8948:8953  isNFT */\n      dup5\n        /* \"contracts/HotswapController.sol\":8948:8976  isNFT && liquid.nftAlloc > 0 */\n      dup1\n      iszero\n      tag_357\n      jumpi\n      pop\n        /* \"contracts/HotswapController.sol\":8975:8976  0 */\n      0x00\n        /* \"contracts/HotswapController.sol\":8957:8963  liquid */\n      dup3\n        /* \"contracts/HotswapController.sol\":8957:8972  liquid.nftAlloc */\n      0x60\n      add\n      mload\n        /* \"contracts/HotswapController.sol\":8957:8976  liquid.nftAlloc > 0 */\n      gt\n        /* \"contracts/HotswapController.sol\":8948:8976  isNFT && liquid.nftAlloc > 0 */\n    tag_357:\n        /* \"contracts/HotswapController.sol\":8944:9027  if (isNFT && liquid.nftAlloc > 0) {... */\n      iszero\n      tag_358\n      jumpi\n        /* \"contracts/HotswapController.sol\":9007:9011  true */\n      0x01\n        /* \"contracts/HotswapController.sol\":8997:9011  success = true */\n      swap4\n      pop\n        /* \"contracts/HotswapController.sol\":8944:9027  if (isNFT && liquid.nftAlloc > 0) {... */\n    tag_358:\n        /* \"contracts/HotswapController.sol\":8854:9027  if (!isNFT && liquid.fftAlloc > 0) {... */\n    tag_356:\n        /* \"contracts/HotswapController.sol\":8759:8762  j-- */\n      dup1\n      dup1\n      tag_359\n      swap1\n      tag_189\n      jump\t// in\n    tag_359:\n      swap2\n      pop\n      pop\n        /* \"contracts/HotswapController.sol\":8710:9038  for (j = _liquidities.length; j > 0 && !success; j--) {... */\n      jump(tag_346)\n    tag_347:\n        /* \"contracts/HotswapController.sol\":8644:9045  {... */\n      pop\n      pop\n        /* \"contracts/HotswapController.sol\":8536:9045  function _findSuitableLiquid(... */\n      swap2\n      pop\n      swap2\n      jump\t// out\n        /* \"contracts/HotswapController.sol\":8023:8528  function _swapFFTLiquid(... */\n    tag_187:\n        /* \"contracts/HotswapController.sol\":8190:8197  uint256 */\n      0x00\n        /* \"contracts/HotswapController.sol\":8210:8223  uint256 alloc */\n      dup1\n        /* \"contracts/HotswapController.sol\":8226:8232  source */\n      dup6\n        /* \"contracts/HotswapController.sol\":8226:8241  source.fftAlloc */\n      0x04\n      add\n      sload\n        /* \"contracts/HotswapController.sol\":8210:8241  uint256 alloc = source.fftAlloc */\n      swap1\n      pop\n        /* \"contracts/HotswapController.sol\":8254:8272  uint256 swapAmount */\n      0x00\n        /* \"contracts/HotswapController.sol\":8284:8296  targetAmount */\n      dup5\n        /* \"contracts/HotswapController.sol\":8275:8280  alloc */\n      dup3\n        /* \"contracts/HotswapController.sol\":8275:8296  alloc <= targetAmount */\n      gt\n      iszero\n        /* \"contracts/HotswapController.sol\":8275:8319  alloc <= targetAmount ? alloc : targetAmount */\n      tag_361\n      jumpi\n        /* \"contracts/HotswapController.sol\":8307:8319  targetAmount */\n      dup5\n        /* \"contracts/HotswapController.sol\":8275:8319  alloc <= targetAmount ? alloc : targetAmount */\n      jump(tag_362)\n    tag_361:\n        /* \"contracts/HotswapController.sol\":8299:8304  alloc */\n      dup2\n        /* \"contracts/HotswapController.sol\":8275:8319  alloc <= targetAmount ? alloc : targetAmount */\n    tag_362:\n        /* \"contracts/HotswapController.sol\":8254:8319  uint256 swapAmount = alloc <= targetAmount ? alloc : targetAmount */\n      swap1\n      pop\n        /* \"contracts/HotswapController.sol\":8351:8361  swapAmount */\n      dup1\n        /* \"contracts/HotswapController.sol\":8332:8338  source */\n      dup8\n        /* \"contracts/HotswapController.sol\":8332:8347  source.fftAlloc */\n      0x04\n      add\n      0x00\n        /* \"contracts/HotswapController.sol\":8332:8361  source.fftAlloc -= swapAmount */\n      dup3\n      dup3\n      sload\n      tag_363\n      swap2\n      swap1\n      tag_175\n      jump\t// in\n    tag_363:\n      swap3\n      pop\n      pop\n      dup2\n      swap1\n      sstore\n      pop\n        /* \"contracts/HotswapController.sol\":8388:8398  swapAmount */\n      dup1\n        /* \"contracts/HotswapController.sol\":8372:8398  targetAmount -= swapAmount */\n      dup6\n      tag_364\n      swap2\n      swap1\n      tag_175\n      jump\t// in\n    tag_364:\n      swap5\n      pop\n        /* \"contracts/HotswapController.sol\":8443:8448  price */\n      dup4\n        /* \"contracts/HotswapController.sol\":8430:8440  swapAmount */\n      dup2\n        /* \"contracts/HotswapController.sol\":8430:8448  swapAmount / price */\n      tag_365\n      swap2\n      swap1\n      tag_139\n      jump\t// in\n    tag_365:\n        /* \"contracts/HotswapController.sol\":8411:8417  source */\n      dup8\n        /* \"contracts/HotswapController.sol\":8411:8426  source.nftAlloc */\n      0x03\n      add\n      0x00\n        /* \"contracts/HotswapController.sol\":8411:8448  source.nftAlloc += swapAmount / price */\n      dup3\n      dup3\n      sload\n      tag_366\n      swap2\n      swap1\n      tag_137\n      jump\t// in\n    tag_366:\n      swap3\n      pop\n      pop\n      dup2\n      swap1\n      sstore\n      pop\n        /* \"contracts/HotswapController.sol\":8478:8488  swapAmount */\n      dup1\n        /* \"contracts/HotswapController.sol\":8459:8465  target */\n      dup7\n        /* \"contracts/HotswapController.sol\":8459:8474  target.fftAlloc */\n      0x04\n      add\n      0x00\n        /* \"contracts/HotswapController.sol\":8459:8488  target.fftAlloc += swapAmount */\n      dup3\n      dup3\n      sload\n      tag_367\n      swap2\n      swap1\n      tag_137\n      jump\t// in\n    tag_367:\n      swap3\n      pop\n      pop\n      dup2\n      swap1\n      sstore\n      pop\n        /* \"contracts/HotswapController.sol\":8508:8520  targetAmount */\n      dup5\n        /* \"contracts/HotswapController.sol\":8501:8520  return targetAmount */\n      swap3\n      pop\n      pop\n      pop\n        /* \"contracts/HotswapController.sol\":8023:8528  function _swapFFTLiquid(... */\n      swap5\n      swap4\n      pop\n      pop\n      pop\n      pop\n      jump\t// out\n        /* \"contracts/HotswapController.sol\":7439:8015  function _swapNFTLiquid(... */\n    tag_233:\n        /* \"contracts/HotswapController.sol\":7606:7613  uint256 */\n      0x00\n        /* \"contracts/HotswapController.sol\":7626:7644  uint256 swapAmount */\n      dup1\n        /* \"contracts/HotswapController.sol\":7680:7692  targetAmount */\n      dup4\n        /* \"contracts/HotswapController.sol\":7661:7667  source */\n      dup7\n        /* \"contracts/HotswapController.sol\":7661:7676  source.nftAlloc */\n      0x03\n      add\n      sload\n        /* \"contracts/HotswapController.sol\":7661:7692  source.nftAlloc <= targetAmount */\n      gt\n        /* \"contracts/HotswapController.sol\":7657:7807  if (source.nftAlloc <= targetAmount) {... */\n      tag_369\n      jumpi\n        /* \"contracts/HotswapController.sol\":7722:7728  source */\n      dup6\n        /* \"contracts/HotswapController.sol\":7722:7737  source.nftAlloc */\n      0x03\n      add\n      sload\n        /* \"contracts/HotswapController.sol\":7709:7737  swapAmount = source.nftAlloc */\n      swap1\n      pop\n        /* \"contracts/HotswapController.sol\":7657:7807  if (source.nftAlloc <= targetAmount) {... */\n      jump(tag_370)\n    tag_369:\n        /* \"contracts/HotswapController.sol\":7783:7795  targetAmount */\n      dup4\n        /* \"contracts/HotswapController.sol\":7770:7795  swapAmount = targetAmount */\n      swap1\n      pop\n        /* \"contracts/HotswapController.sol\":7657:7807  if (source.nftAlloc <= targetAmount) {... */\n    tag_370:\n        /* \"contracts/HotswapController.sol\":7838:7848  swapAmount */\n      dup1\n        /* \"contracts/HotswapController.sol\":7819:7825  source */\n      dup7\n        /* \"contracts/HotswapController.sol\":7819:7834  source.nftAlloc */\n      0x03\n      add\n      0x00\n        /* \"contracts/HotswapController.sol\":7819:7848  source.nftAlloc -= swapAmount */\n      dup3\n      dup3\n      sload\n      tag_371\n      swap2\n      swap1\n      tag_175\n      jump\t// in\n    tag_371:\n      swap3\n      pop\n      pop\n      dup2\n      swap1\n      sstore\n      pop\n        /* \"contracts/HotswapController.sol\":7875:7885  swapAmount */\n      dup1\n        /* \"contracts/HotswapController.sol\":7859:7885  targetAmount -= swapAmount */\n      dup5\n      tag_372\n      swap2\n      swap1\n      tag_175\n      jump\t// in\n    tag_372:\n      swap4\n      pop\n        /* \"contracts/HotswapController.sol\":7930:7935  price */\n      dup3\n        /* \"contracts/HotswapController.sol\":7917:7927  swapAmount */\n      dup2\n        /* \"contracts/HotswapController.sol\":7917:7935  swapAmount * price */\n      tag_373\n      swap2\n      swap1\n      tag_214\n      jump\t// in\n    tag_373:\n        /* \"contracts/HotswapController.sol\":7898:7904  source */\n      dup7\n        /* \"contracts/HotswapController.sol\":7898:7913  source.fftAlloc */\n      0x04\n      add\n      0x00\n        /* \"contracts/HotswapController.sol\":7898:7935  source.fftAlloc += swapAmount * price */\n      dup3\n      dup3\n      sload\n      tag_374\n      swap2\n      swap1\n      tag_137\n      jump\t// in\n    tag_374:\n      swap3\n      pop\n      pop\n      dup2\n      swap1\n      sstore\n      pop\n        /* \"contracts/HotswapController.sol\":7965:7975  swapAmount */\n      dup1\n        /* \"contracts/HotswapController.sol\":7946:7952  target */\n      dup6\n        /* \"contracts/HotswapController.sol\":7946:7961  target.nftAlloc */\n      0x03\n      add\n      0x00\n        /* \"contracts/HotswapController.sol\":7946:7975  target.nftAlloc += swapAmount */\n      dup3\n      dup3\n      sload\n      tag_375\n      swap2\n      swap1\n      tag_137\n      jump\t// in\n    tag_375:\n      swap3\n      pop\n      pop\n      dup2\n      swap1\n      sstore\n      pop\n        /* \"contracts/HotswapController.sol\":7995:8007  targetAmount */\n      dup4\n        /* \"contracts/HotswapController.sol\":7988:8007  return targetAmount */\n      swap2\n      pop\n      pop\n        /* \"contracts/HotswapController.sol\":7439:8015  function _swapNFTLiquid(... */\n      swap5\n      swap4\n      pop\n      pop\n      pop\n      pop\n      jump\t// out\n        /* \"contracts/HotswapController.sol\":1402:2180  function _createLiquid(uint256 amount, bool kind) private {... */\n    tag_248:\n        /* \"contracts/HotswapController.sol\":1471:1499  uint256[] storage userLiquid */\n      0x00\n        /* \"contracts/HotswapController.sol\":1502:1518  _liquidityByUser */\n      0x08\n        /* \"contracts/HotswapController.sol\":1502:1530  _liquidityByUser[msg.sender] */\n      0x00\n        /* \"contracts/HotswapController.sol\":1519:1529  msg.sender */\n      caller\n        /* \"contracts/HotswapController.sol\":1502:1530  _liquidityByUser[msg.sender] */\n      0xffffffffffffffffffffffffffffffffffffffff\n      and\n      0xffffffffffffffffffffffffffffffffffffffff\n      and\n      dup2\n      mstore\n      0x20\n      add\n      swap1\n      dup2\n      mstore\n      0x20\n      add\n      0x00\n      keccak256\n        /* \"contracts/HotswapController.sol\":1471:1530  uint256[] storage userLiquid = _liquidityByUser[msg.sender] */\n      swap1\n      pop\n        /* \"contracts/HotswapController.sol\":1541:1554  uint256 index */\n      0x00\n        /* \"contracts/HotswapController.sol\":1557:1567  userLiquid */\n      dup2\n        /* \"contracts/HotswapController.sol\":1557:1574  userLiquid.length */\n      dup1\n      sload\n      swap1\n      pop\n        /* \"contracts/HotswapController.sol\":1541:1574  uint256 index = userLiquid.length */\n      swap1\n      pop\n        /* \"contracts/HotswapController.sol\":1587:1604  uint256 nftAmount */\n      0x00\n        /* \"contracts/HotswapController.sol\":1619:1636  uint256 fftAmount */\n      dup1\n        /* \"contracts/HotswapController.sol\":1657:1661  kind */\n      dup5\n        /* \"contracts/HotswapController.sol\":1653:1759  if (kind) {... */\n      iszero\n      tag_377\n      jumpi\n        /* \"contracts/HotswapController.sol\":1690:1696  amount */\n      dup6\n        /* \"contracts/HotswapController.sol\":1678:1696  nftAmount = amount */\n      swap2\n      pop\n        /* \"contracts/HotswapController.sol\":1653:1759  if (kind) {... */\n      jump(tag_378)\n    tag_377:\n        /* \"contracts/HotswapController.sol\":1741:1747  amount */\n      dup6\n        /* \"contracts/HotswapController.sol\":1729:1747  fftAmount = amount */\n      swap1\n      pop\n        /* \"contracts/HotswapController.sol\":1653:1759  if (kind) {... */\n    tag_378:\n        /* \"contracts/HotswapController.sol\":1771:1787  Liquid memory lq */\n      0x00\n        /* \"contracts/HotswapController.sol\":1790:1983  Liquid(... */\n      mload(0x40)\n      dup1\n      0xe0\n      add\n      0x40\n      mstore\n      dup1\n        /* \"contracts/HotswapController.sol\":1811:1821  msg.sender */\n      caller\n        /* \"contracts/HotswapController.sol\":1790:1983  Liquid(... */\n      0xffffffffffffffffffffffffffffffffffffffff\n      and\n      dup2\n      mstore\n      0x20\n      add\n        /* \"contracts/HotswapController.sol\":1836:1851  block.timestamp */\n      timestamp\n        /* \"contracts/HotswapController.sol\":1790:1983  Liquid(... */\n      dup2\n      mstore\n      0x20\n      add\n        /* \"contracts/HotswapController.sol\":1866:1872  _price */\n      sload(0x07)\n        /* \"contracts/HotswapController.sol\":1790:1983  Liquid(... */\n      dup2\n      mstore\n      0x20\n      add\n        /* \"contracts/HotswapController.sol\":1887:1896  nftAmount */\n      dup5\n        /* \"contracts/HotswapController.sol\":1790:1983  Liquid(... */\n      dup2\n      mstore\n      0x20\n      add\n        /* \"contracts/HotswapController.sol\":1911:1920  fftAmount */\n      dup4\n        /* \"contracts/HotswapController.sol\":1790:1983  Liquid(... */\n      dup2\n      mstore\n      0x20\n      add\n        /* \"contracts/HotswapController.sol\":1935:1940  false */\n      0x00\n        /* \"contracts/HotswapController.sol\":1790:1983  Liquid(... */\n      iszero\n      iszero\n      dup2\n      mstore\n      0x20\n      add\n        /* \"contracts/HotswapController.sol\":1955:1965  userLiquid */\n      dup7\n        /* \"contracts/HotswapController.sol\":1955:1972  userLiquid.length */\n      dup1\n      sload\n      swap1\n      pop\n        /* \"contracts/HotswapController.sol\":1790:1983  Liquid(... */\n      dup2\n      mstore\n      pop\n        /* \"contracts/HotswapController.sol\":1771:1983  Liquid memory lq = Liquid(... */\n      swap1\n      pop\n        /* \"contracts/HotswapController.sol\":2000:2004  kind */\n      dup6\n        /* \"contracts/HotswapController.sol\":1996:2106  if (kind) {... */\n      iszero\n      tag_379\n      jumpi\n        /* \"contracts/HotswapController.sol\":2021:2039  _nftLiquidityCount */\n      0x0d\n      0x00\n        /* \"contracts/HotswapController.sol\":2021:2041  _nftLiquidityCount++ */\n      dup2\n      sload\n      dup1\n      swap3\n      swap2\n      swap1\n      tag_380\n      swap1\n      tag_381\n      jump\t// in\n    tag_380:\n      swap2\n      swap1\n      pop\n      sstore\n      pop\n        /* \"contracts/HotswapController.sol\":1996:2106  if (kind) {... */\n      jump(tag_382)\n    tag_379:\n        /* \"contracts/HotswapController.sol\":2074:2092  _fftLiquidityCount */\n      0x0e\n      0x00\n        /* \"contracts/HotswapController.sol\":2074:2094  _fftLiquidityCount++ */\n      dup2\n      sload\n      dup1\n      swap3\n      swap2\n      swap1\n      tag_383\n      swap1\n      tag_381\n      jump\t// in\n    tag_383:\n      swap2\n      swap1\n      pop\n      sstore\n      pop\n        /* \"contracts/HotswapController.sol\":1996:2106  if (kind) {... */\n    tag_382:\n        /* \"contracts/HotswapController.sol\":2118:2130  _liquidities */\n      0x09\n        /* \"contracts/HotswapController.sol\":2136:2138  lq */\n      dup2\n        /* \"contracts/HotswapController.sol\":2118:2139  _liquidities.push(lq) */\n      swap1\n      dup1\n      0x01\n      dup2\n      sload\n      add\n      dup1\n      dup3\n      sstore\n      dup1\n      swap2\n      pop\n      pop\n      0x01\n      swap1\n      sub\n      swap1\n      0x00\n      mstore\n      keccak256(0x00, 0x20)\n      swap1\n      0x07\n      mul\n      add\n      0x00\n      swap1\n      swap2\n      swap1\n      swap2\n      swap1\n      swap2\n      pop\n      0x00\n      dup3\n      add\n      mload\n      dup2\n      0x00\n      add\n      exp(0x0100, 0x00)\n      dup2\n      sload\n      dup2\n      0xffffffffffffffffffffffffffffffffffffffff\n      mul\n      not\n      and\n      swap1\n      dup4\n      0xffffffffffffffffffffffffffffffffffffffff\n      and\n      mul\n      or\n      swap1\n      sstore\n      pop\n      0x20\n      dup3\n      add\n      mload\n      dup2\n      0x01\n      add\n      sstore\n      0x40\n      dup3\n      add\n      mload\n      dup2\n      0x02\n      add\n      sstore\n      0x60\n      dup3\n      add\n      mload\n      dup2\n      0x03\n      add\n      sstore\n      0x80\n      dup3\n      add\n      mload\n      dup2\n      0x04\n      add\n      sstore\n      0xa0\n      dup3\n      add\n      mload\n      dup2\n      0x05\n      add\n      exp(0x0100, 0x00)\n      dup2\n      sload\n      dup2\n      0xff\n      mul\n      not\n      and\n      swap1\n      dup4\n      iszero\n      iszero\n      mul\n      or\n      swap1\n      sstore\n      pop\n      0xc0\n      dup3\n      add\n      mload\n      dup2\n      0x06\n      add\n      sstore\n      pop\n      pop\n        /* \"contracts/HotswapController.sol\":2150:2160  userLiquid */\n      dup5\n        /* \"contracts/HotswapController.sol\":2166:2171  index */\n      dup5\n        /* \"contracts/HotswapController.sol\":2150:2172  userLiquid.push(index) */\n      swap1\n      dup1\n      0x01\n      dup2\n      sload\n      add\n      dup1\n      dup3\n      sstore\n      dup1\n      swap2\n      pop\n      pop\n      0x01\n      swap1\n      sub\n      swap1\n      0x00\n      mstore\n      keccak256(0x00, 0x20)\n      add\n      0x00\n      swap1\n      swap2\n      swap1\n      swap2\n      swap1\n      swap2\n      pop\n      sstore\n        /* \"contracts/HotswapController.sol\":1460:2180  {... */\n      pop\n      pop\n      pop\n      pop\n      pop\n        /* \"contracts/HotswapController.sol\":1402:2180  function _createLiquid(uint256 amount, bool kind) private {... */\n      pop\n      pop\n      jump\t// out\n        /* \"contracts/Ownable.sol\":973:1160  function _transferOwnership(address newOwner) internal {... */\n    tag_288:\n        /* \"contracts/Ownable.sol\":1067:1068  0 */\n      0x00\n        /* \"contracts/Ownable.sol\":1047:1069  newOwner != address(0) */\n      0xffffffffffffffffffffffffffffffffffffffff\n      and\n        /* \"contracts/Ownable.sol\":1047:1055  newOwner */\n      dup2\n        /* \"contracts/Ownable.sol\":1047:1069  newOwner != address(0) */\n      0xffffffffffffffffffffffffffffffffffffffff\n      and\n      sub\n        /* \"contracts/Ownable.sol\":1039:1070  require(newOwner != address(0)) */\n      tag_387\n      jumpi\n      0x00\n      dup1\n      revert\n    tag_387:\n        /* \"contracts/Ownable.sol\":1115:1123  newOwner */\n      dup1\n        /* \"contracts/Ownable.sol\":1086:1124  OwnershipTransferred(_owner, newOwner) */\n      0xffffffffffffffffffffffffffffffffffffffff\n      and\n        /* \"contracts/Ownable.sol\":1107:1113  _owner */\n      0x00\n      dup1\n      sload\n      swap1\n      0x0100\n      exp\n      swap1\n      div\n      0xffffffffffffffffffffffffffffffffffffffff\n      and\n        /* \"contracts/Ownable.sol\":1086:1124  OwnershipTransferred(_owner, newOwner) */\n      0xffffffffffffffffffffffffffffffffffffffff\n      and\n      0x8be0079c531659141344cd1fd0a4f28419497f9722a3daafe3b4186f6b6457e0\n      mload(0x40)\n      mload(0x40)\n      dup1\n      swap2\n      sub\n      swap1\n      log3\n        /* \"contracts/Ownable.sol\":1144:1152  newOwner */\n      dup1\n        /* \"contracts/Ownable.sol\":1135:1141  _owner */\n      0x00\n      dup1\n        /* \"contracts/Ownable.sol\":1135:1152  _owner = newOwner */\n      0x0100\n      exp\n      dup2\n      sload\n      dup2\n      0xffffffffffffffffffffffffffffffffffffffff\n      mul\n      not\n      and\n      swap1\n      dup4\n      0xffffffffffffffffffffffffffffffffffffffff\n      and\n      mul\n      or\n      swap1\n      sstore\n      pop\n        /* \"contracts/Ownable.sol\":973:1160  function _transferOwnership(address newOwner) internal {... */\n      pop\n      jump\t// out\n        /* \"contracts/HotswapController.sol\":4992:5307  function _removeItem(... */\n    tag_299:\n        /* \"contracts/HotswapController.sol\":5094:5098  bool */\n      0x00\n        /* \"contracts/HotswapController.sol\":5111:5123  uint256 last */\n      dup1\n        /* \"contracts/HotswapController.sol\":5139:5140  1 */\n      0x01\n        /* \"contracts/HotswapController.sol\":5126:5129  arr */\n      dup5\n        /* \"contracts/HotswapController.sol\":5126:5136  arr.length */\n      dup1\n      sload\n      swap1\n      pop\n        /* \"contracts/HotswapController.sol\":5126:5140  arr.length - 1 */\n      tag_389\n      swap2\n      swap1\n      tag_175\n      jump\t// in\n    tag_389:\n        /* \"contracts/HotswapController.sol\":5111:5140  uint256 last = arr.length - 1 */\n      swap1\n      pop\n        /* \"contracts/HotswapController.sol\":5151:5162  bool isLast */\n      0x00\n        /* \"contracts/HotswapController.sol\":5174:5178  last */\n      dup2\n        /* \"contracts/HotswapController.sol\":5165:5170  index */\n      dup5\n        /* \"contracts/HotswapController.sol\":5165:5178  index == last */\n      eq\n        /* \"contracts/HotswapController.sol\":5151:5178  bool isLast = index == last */\n      swap1\n      pop\n        /* \"contracts/HotswapController.sol\":5196:5202  isLast */\n      dup1\n        /* \"contracts/HotswapController.sol\":5191:5253  if (!isLast) {... */\n      tag_390\n      jumpi\n        /* \"contracts/HotswapController.sol\":5232:5235  arr */\n      dup5\n        /* \"contracts/HotswapController.sol\":5236:5240  last */\n      dup3\n        /* \"contracts/HotswapController.sol\":5232:5241  arr[last] */\n      dup2\n      sload\n      dup2\n      lt\n      tag_391\n      jumpi\n      tag_392\n      tag_132\n      jump\t// in\n    tag_392:\n    tag_391:\n      swap1\n      0x00\n      mstore\n      keccak256(0x00, 0x20)\n      add\n      sload\n        /* \"contracts/HotswapController.sol\":5219:5222  arr */\n      dup6\n        /* \"contracts/HotswapController.sol\":5223:5228  index */\n      dup6\n        /* \"contracts/HotswapController.sol\":5219:5229  arr[index] */\n      dup2\n      sload\n      dup2\n      lt\n      tag_394\n      jumpi\n      tag_395\n      tag_132\n      jump\t// in\n    tag_395:\n    tag_394:\n      swap1\n      0x00\n      mstore\n      keccak256(0x00, 0x20)\n      add\n        /* \"contracts/HotswapController.sol\":5219:5241  arr[index] = arr[last] */\n      dup2\n      swap1\n      sstore\n      pop\n        /* \"contracts/HotswapController.sol\":5191:5253  if (!isLast) {... */\n    tag_390:\n        /* \"contracts/HotswapController.sol\":5265:5268  arr */\n      dup5\n        /* \"contracts/HotswapController.sol\":5265:5274  arr.pop() */\n      dup1\n      sload\n      dup1\n      tag_397\n      jumpi\n      tag_398\n      tag_399\n      jump\t// in\n    tag_398:\n    tag_397:\n      0x01\n      swap1\n      sub\n      dup2\n      dup2\n      swap1\n      0x00\n      mstore\n      keccak256(0x00, 0x20)\n      add\n      0x00\n      swap1\n      sstore\n      swap1\n      sstore\n        /* \"contracts/HotswapController.sol\":5293:5299  isLast */\n      dup1\n        /* \"contracts/HotswapController.sol\":5292:5299  !isLast */\n      iszero\n        /* \"contracts/HotswapController.sol\":5285:5299  return !isLast */\n      swap3\n      pop\n      pop\n      pop\n        /* \"contracts/HotswapController.sol\":4992:5307  function _removeItem(... */\n      swap3\n      swap2\n      pop\n      pop\n      jump\t// out\n        /* \"contracts/HotswapController.sol\":4670:4984  function _removeItem(... */\n    tag_308:\n        /* \"contracts/HotswapController.sol\":4771:4775  bool */\n      0x00\n        /* \"contracts/HotswapController.sol\":4788:4800  uint256 last */\n      dup1\n        /* \"contracts/HotswapController.sol\":4816:4817  1 */\n      0x01\n        /* \"contracts/HotswapController.sol\":4803:4806  arr */\n      dup5\n        /* \"contracts/HotswapController.sol\":4803:4813  arr.length */\n      dup1\n      sload\n      swap1\n      pop\n        /* \"contracts/HotswapController.sol\":4803:4817  arr.length - 1 */\n      tag_402\n      swap2\n      swap1\n      tag_175\n      jump\t// in\n    tag_402:\n        /* \"contracts/HotswapController.sol\":4788:4817  uint256 last = arr.length - 1 */\n      swap1\n      pop\n        /* \"contracts/HotswapController.sol\":4828:4839  bool isLast */\n      0x00\n        /* \"contracts/HotswapController.sol\":4851:4855  last */\n      dup2\n        /* \"contracts/HotswapController.sol\":4842:4847  index */\n      dup5\n        /* \"contracts/HotswapController.sol\":4842:4855  index == last */\n      eq\n        /* \"contracts/HotswapController.sol\":4828:4855  bool isLast = index == last */\n      swap1\n      pop\n        /* \"contracts/HotswapController.sol\":4873:4879  isLast */\n      dup1\n        /* \"contracts/HotswapController.sol\":4868:4930  if (!isLast) {... */\n      tag_403\n      jumpi\n        /* \"contracts/HotswapController.sol\":4909:4912  arr */\n      dup5\n        /* \"contracts/HotswapController.sol\":4913:4917  last */\n      dup3\n        /* \"contracts/HotswapController.sol\":4909:4918  arr[last] */\n      dup2\n      sload\n      dup2\n      lt\n      tag_404\n      jumpi\n      tag_405\n      tag_132\n      jump\t// in\n    tag_405:\n    tag_404:\n      swap1\n      0x00\n      mstore\n      keccak256(0x00, 0x20)\n      swap1\n      0x07\n      mul\n      add\n        /* \"contracts/HotswapController.sol\":4896:4899  arr */\n      dup6\n        /* \"contracts/HotswapController.sol\":4900:4905  index */\n      dup6\n        /* \"contracts/HotswapController.sol\":4896:4906  arr[index] */\n      dup2\n      sload\n      dup2\n      lt\n      tag_407\n      jumpi\n      tag_408\n      tag_132\n      jump\t// in\n    tag_408:\n    tag_407:\n      swap1\n      0x00\n      mstore\n      keccak256(0x00, 0x20)\n      swap1\n      0x07\n      mul\n      add\n        /* \"contracts/HotswapController.sol\":4896:4918  arr[index] = arr[last] */\n      0x00\n      dup3\n      add\n      0x00\n      swap1\n      sload\n      swap1\n      0x0100\n      exp\n      swap1\n      div\n      0xffffffffffffffffffffffffffffffffffffffff\n      and\n      dup2\n      0x00\n      add\n      exp(0x0100, 0x00)\n      dup2\n      sload\n      dup2\n      0xffffffffffffffffffffffffffffffffffffffff\n      mul\n      not\n      and\n      swap1\n      dup4\n      0xffffffffffffffffffffffffffffffffffffffff\n      and\n      mul\n      or\n      swap1\n      sstore\n      pop\n      0x01\n      dup3\n      add\n      sload\n      dup2\n      0x01\n      add\n      sstore\n      0x02\n      dup3\n      add\n      sload\n      dup2\n      0x02\n      add\n      sstore\n      0x03\n      dup3\n      add\n      sload\n      dup2\n      0x03\n      add\n      sstore\n      0x04\n      dup3\n      add\n      sload\n      dup2\n      0x04\n      add\n      sstore\n      0x05\n      dup3\n      add\n      0x00\n      swap1\n      sload\n      swap1\n      0x0100\n      exp\n      swap1\n      div\n      0xff\n      and\n      dup2\n      0x05\n      add\n      exp(0x0100, 0x00)\n      dup2\n      sload\n      dup2\n      0xff\n      mul\n      not\n      and\n      swap1\n      dup4\n      iszero\n      iszero\n      mul\n      or\n      swap1\n      sstore\n      pop\n      0x06\n      dup3\n      add\n      sload\n      dup2\n      0x06\n      add\n      sstore\n      swap1\n      pop\n      pop\n        /* \"contracts/HotswapController.sol\":4868:4930  if (!isLast) {... */\n    tag_403:\n        /* \"contracts/HotswapController.sol\":4942:4945  arr */\n      dup5\n        /* \"contracts/HotswapController.sol\":4942:4951  arr.pop() */\n      dup1\n      sload\n      dup1\n      tag_410\n      jumpi\n      tag_411\n      tag_399\n      jump\t// in\n    tag_411:\n    tag_410:\n      0x01\n      swap1\n      sub\n      dup2\n      dup2\n      swap1\n      0x00\n      mstore\n      keccak256(0x00, 0x20)\n      swap1\n      0x07\n      mul\n      add\n      0x00\n      dup1\n      dup3\n      add\n      exp(0x0100, 0x00)\n      dup2\n      sload\n      swap1\n      0xffffffffffffffffffffffffffffffffffffffff\n      mul\n      not\n      and\n      swap1\n      sstore\n      0x01\n      dup3\n      add\n      0x00\n      swap1\n      sstore\n      0x02\n      dup3\n      add\n      0x00\n      swap1\n      sstore\n      0x03\n      dup3\n      add\n      0x00\n      swap1\n      sstore\n      0x04\n      dup3\n      add\n      0x00\n      swap1\n      sstore\n      0x05\n      dup3\n      add\n      exp(0x0100, 0x00)\n      dup2\n      sload\n      swap1\n      0xff\n      mul\n      not\n      and\n      swap1\n      sstore\n      0x06\n      dup3\n      add\n      0x00\n      swap1\n      sstore\n      pop\n      pop\n      swap1\n      sstore\n        /* \"contracts/HotswapController.sol\":4970:4976  isLast */\n      dup1\n        /* \"contracts/HotswapController.sol\":4969:4976  !isLast */\n      iszero\n        /* \"contracts/HotswapController.sol\":4962:4976  return !isLast */\n      swap3\n      pop\n      pop\n      pop\n        /* \"contracts/HotswapController.sol\":4670:4984  function _removeItem(... */\n      swap3\n      swap2\n      pop\n      pop\n      jump\t// out\n    tag_162:\n      mload(0x40)\n      dup1\n      0xc0\n      add\n      0x40\n      mstore\n      dup1\n      and(0xffffffffffffffffffffffffffffffffffffffff, 0x00)\n      dup2\n      mstore\n      0x20\n      add\n      0x00\n      dup2\n      mstore\n      0x20\n      add\n      0x00\n      dup2\n      mstore\n      0x20\n      add\n      0x00\n      dup2\n      mstore\n      0x20\n      add\n      0x00\n      dup2\n      mstore\n      0x20\n      add\n      iszero(iszero(0x00))\n      dup2\n      mstore\n      pop\n      swap1\n      jump\t// out\n    tag_345:\n      mload(0x40)\n      dup1\n      0xe0\n      add\n      0x40\n      mstore\n      dup1\n      and(0xffffffffffffffffffffffffffffffffffffffff, 0x00)\n      dup2\n      mstore\n      0x20\n      add\n      0x00\n      dup2\n      mstore\n      0x20\n      add\n      0x00\n      dup2\n      mstore\n      0x20\n      add\n      0x00\n      dup2\n      mstore\n      0x20\n      add\n      0x00\n      dup2\n      mstore\n      0x20\n      add\n      iszero(iszero(0x00))\n      dup2\n      mstore\n      0x20\n      add\n      0x00\n      dup2\n      mstore\n      pop\n      swap1\n      jump\t// out\n        /* \"#utility.yul\":7:133   */\n    tag_413:\n        /* \"#utility.yul\":44:51   */\n      0x00\n        /* \"#utility.yul\":84:126   */\n      0xffffffffffffffffffffffffffffffffffffffff\n        /* \"#utility.yul\":77:82   */\n      dup3\n        /* \"#utility.yul\":73:127   */\n      and\n        /* \"#utility.yul\":62:127   */\n      swap1\n      pop\n        /* \"#utility.yul\":7:133   */\n      swap2\n      swap1\n      pop\n      jump\t// out\n        /* \"#utility.yul\":139:235   */\n    tag_414:\n        /* \"#utility.yul\":176:183   */\n      0x00\n        /* \"#utility.yul\":205:229   */\n      tag_454\n        /* \"#utility.yul\":223:228   */\n      dup3\n        /* \"#utility.yul\":205:229   */\n      tag_413\n      jump\t// in\n    tag_454:\n        /* \"#utility.yul\":194:229   */\n      swap1\n      pop\n        /* \"#utility.yul\":139:235   */\n      swap2\n      swap1\n      pop\n      jump\t// out\n        /* \"#utility.yul\":241:359   */\n    tag_415:\n        /* \"#utility.yul\":328:352   */\n      tag_456\n        /* \"#utility.yul\":346:351   */\n      dup2\n        /* \"#utility.yul\":328:352   */\n      tag_414\n      jump\t// in\n    tag_456:\n        /* \"#utility.yul\":323:326   */\n      dup3\n        /* \"#utility.yul\":316:353   */\n      mstore\n        /* \"#utility.yul\":241:359   */\n      pop\n      pop\n      jump\t// out\n        /* \"#utility.yul\":365:587   */\n    tag_37:\n        /* \"#utility.yul\":458:462   */\n      0x00\n        /* \"#utility.yul\":496:498   */\n      0x20\n        /* \"#utility.yul\":485:494   */\n      dup3\n        /* \"#utility.yul\":481:499   */\n      add\n        /* \"#utility.yul\":473:499   */\n      swap1\n      pop\n        /* \"#utility.yul\":509:580   */\n      tag_458\n        /* \"#utility.yul\":577:578   */\n      0x00\n        /* \"#utility.yul\":566:575   */\n      dup4\n        /* \"#utility.yul\":562:579   */\n      add\n        /* \"#utility.yul\":553:559   */\n      dup5\n        /* \"#utility.yul\":509:580   */\n      tag_415\n      jump\t// in\n    tag_458:\n        /* \"#utility.yul\":365:587   */\n      swap3\n      swap2\n      pop\n      pop\n      jump\t// out\n        /* \"#utility.yul\":674:791   */\n    tag_417:\n        /* \"#utility.yul\":783:784   */\n      0x00\n        /* \"#utility.yul\":780:781   */\n      dup1\n        /* \"#utility.yul\":773:785   */\n      revert\n        /* \"#utility.yul\":920:997   */\n    tag_419:\n        /* \"#utility.yul\":957:964   */\n      0x00\n        /* \"#utility.yul\":986:991   */\n      dup2\n        /* \"#utility.yul\":975:991   */\n      swap1\n      pop\n        /* \"#utility.yul\":920:997   */\n      swap2\n      swap1\n      pop\n      jump\t// out\n        /* \"#utility.yul\":1003:1125   */\n    tag_420:\n        /* \"#utility.yul\":1076:1100   */\n      tag_464\n        /* \"#utility.yul\":1094:1099   */\n      dup2\n        /* \"#utility.yul\":1076:1100   */\n      tag_419\n      jump\t// in\n    tag_464:\n        /* \"#utility.yul\":1069:1074   */\n      dup2\n        /* \"#utility.yul\":1066:1101   */\n      eq\n        /* \"#utility.yul\":1056:1119   */\n      tag_465\n      jumpi\n        /* \"#utility.yul\":1115:1116   */\n      0x00\n        /* \"#utility.yul\":1112:1113   */\n      dup1\n        /* \"#utility.yul\":1105:1117   */\n      revert\n        /* \"#utility.yul\":1056:1119   */\n    tag_465:\n        /* \"#utility.yul\":1003:1125   */\n      pop\n      jump\t// out\n        /* \"#utility.yul\":1131:1270   */\n    tag_421:\n        /* \"#utility.yul\":1177:1182   */\n      0x00\n        /* \"#utility.yul\":1215:1221   */\n      dup2\n        /* \"#utility.yul\":1202:1222   */\n      calldataload\n        /* \"#utility.yul\":1193:1222   */\n      swap1\n      pop\n        /* \"#utility.yul\":1231:1264   */\n      tag_467\n        /* \"#utility.yul\":1258:1263   */\n      dup2\n        /* \"#utility.yul\":1231:1264   */\n      tag_420\n      jump\t// in\n    tag_467:\n        /* \"#utility.yul\":1131:1270   */\n      swap3\n      swap2\n      pop\n      pop\n      jump\t// out\n        /* \"#utility.yul\":1276:1605   */\n    tag_40:\n        /* \"#utility.yul\":1335:1341   */\n      0x00\n        /* \"#utility.yul\":1384:1386   */\n      0x20\n        /* \"#utility.yul\":1372:1381   */\n      dup3\n        /* \"#utility.yul\":1363:1370   */\n      dup5\n        /* \"#utility.yul\":1359:1382   */\n      sub\n        /* \"#utility.yul\":1355:1387   */\n      slt\n        /* \"#utility.yul\":1352:1471   */\n      iszero\n      tag_469\n      jumpi\n        /* \"#utility.yul\":1390:1469   */\n      tag_470\n      tag_417\n      jump\t// in\n    tag_470:\n        /* \"#utility.yul\":1352:1471   */\n    tag_469:\n        /* \"#utility.yul\":1510:1511   */\n      0x00\n        /* \"#utility.yul\":1535:1588   */\n      tag_471\n        /* \"#utility.yul\":1580:1587   */\n      dup5\n        /* \"#utility.yul\":1571:1577   */\n      dup3\n        /* \"#utility.yul\":1560:1569   */\n      dup6\n        /* \"#utility.yul\":1556:1578   */\n      add\n        /* \"#utility.yul\":1535:1588   */\n      tag_421\n      jump\t// in\n    tag_471:\n        /* \"#utility.yul\":1525:1588   */\n      swap2\n      pop\n        /* \"#utility.yul\":1481:1598   */\n      pop\n        /* \"#utility.yul\":1276:1605   */\n      swap3\n      swap2\n      pop\n      pop\n      jump\t// out\n        /* \"#utility.yul\":1611:1729   */\n    tag_422:\n        /* \"#utility.yul\":1698:1722   */\n      tag_473\n        /* \"#utility.yul\":1716:1721   */\n      dup2\n        /* \"#utility.yul\":1698:1722   */\n      tag_419\n      jump\t// in\n    tag_473:\n        /* \"#utility.yul\":1693:1696   */\n      dup3\n        /* \"#utility.yul\":1686:1723   */\n      mstore\n        /* \"#utility.yul\":1611:1729   */\n      pop\n      pop\n      jump\t// out\n        /* \"#utility.yul\":1735:1957   */\n    tag_45:\n        /* \"#utility.yul\":1828:1832   */\n      0x00\n        /* \"#utility.yul\":1866:1868   */\n      0x20\n        /* \"#utility.yul\":1855:1864   */\n      dup3\n        /* \"#utility.yul\":1851:1869   */\n      add\n        /* \"#utility.yul\":1843:1869   */\n      swap1\n      pop\n        /* \"#utility.yul\":1879:1950   */\n      tag_475\n        /* \"#utility.yul\":1947:1948   */\n      0x00\n        /* \"#utility.yul\":1936:1945   */\n      dup4\n        /* \"#utility.yul\":1932:1949   */\n      add\n        /* \"#utility.yul\":1923:1929   */\n      dup5\n        /* \"#utility.yul\":1879:1950   */\n      tag_422\n      jump\t// in\n    tag_475:\n        /* \"#utility.yul\":1735:1957   */\n      swap3\n      swap2\n      pop\n      pop\n      jump\t// out\n        /* \"#utility.yul\":1963:2085   */\n    tag_423:\n        /* \"#utility.yul\":2036:2060   */\n      tag_477\n        /* \"#utility.yul\":2054:2059   */\n      dup2\n        /* \"#utility.yul\":2036:2060   */\n      tag_414\n      jump\t// in\n    tag_477:\n        /* \"#utility.yul\":2029:2034   */\n      dup2\n        /* \"#utility.yul\":2026:2061   */\n      eq\n        /* \"#utility.yul\":2016:2079   */\n      tag_478\n      jumpi\n        /* \"#utility.yul\":2075:2076   */\n      0x00\n        /* \"#utility.yul\":2072:2073   */\n      dup1\n        /* \"#utility.yul\":2065:2077   */\n      revert\n        /* \"#utility.yul\":2016:2079   */\n    tag_478:\n        /* \"#utility.yul\":1963:2085   */\n      pop\n      jump\t// out\n        /* \"#utility.yul\":2091:2230   */\n    tag_424:\n        /* \"#utility.yul\":2137:2142   */\n      0x00\n        /* \"#utility.yul\":2175:2181   */\n      dup2\n        /* \"#utility.yul\":2162:2182   */\n      calldataload\n        /* \"#utility.yul\":2153:2182   */\n      swap1\n      pop\n        /* \"#utility.yul\":2191:2224   */\n      tag_480\n        /* \"#utility.yul\":2218:2223   */\n      dup2\n        /* \"#utility.yul\":2191:2224   */\n      tag_423\n      jump\t// in\n    tag_480:\n        /* \"#utility.yul\":2091:2230   */\n      swap3\n      swap2\n      pop\n      pop\n      jump\t// out\n        /* \"#utility.yul\":2236:2565   */\n    tag_48:\n        /* \"#utility.yul\":2295:2301   */\n      0x00\n        /* \"#utility.yul\":2344:2346   */\n      0x20\n        /* \"#utility.yul\":2332:2341   */\n      dup3\n        /* \"#utility.yul\":2323:2330   */\n      dup5\n        /* \"#utility.yul\":2319:2342   */\n      sub\n        /* \"#utility.yul\":2315:2347   */\n      slt\n        /* \"#utility.yul\":2312:2431   */\n      iszero\n      tag_482\n      jumpi\n        /* \"#utility.yul\":2350:2429   */\n      tag_483\n      tag_417\n      jump\t// in\n    tag_483:\n        /* \"#utility.yul\":2312:2431   */\n    tag_482:\n        /* \"#utility.yul\":2470:2471   */\n      0x00\n        /* \"#utility.yul\":2495:2548   */\n      tag_484\n        /* \"#utility.yul\":2540:2547   */\n      dup5\n        /* \"#utility.yul\":2531:2537   */\n      dup3\n        /* \"#utility.yul\":2520:2529   */\n      dup6\n        /* \"#utility.yul\":2516:2538   */\n      add\n        /* \"#utility.yul\":2495:2548   */\n      tag_424\n      jump\t// in\n    tag_484:\n        /* \"#utility.yul\":2485:2548   */\n      swap2\n      pop\n        /* \"#utility.yul\":2441:2558   */\n      pop\n        /* \"#utility.yul\":2236:2565   */\n      swap3\n      swap2\n      pop\n      pop\n      jump\t// out\n        /* \"#utility.yul\":2571:2679   */\n    tag_425:\n        /* \"#utility.yul\":2648:2672   */\n      tag_486\n        /* \"#utility.yul\":2666:2671   */\n      dup2\n        /* \"#utility.yul\":2648:2672   */\n      tag_414\n      jump\t// in\n    tag_486:\n        /* \"#utility.yul\":2643:2646   */\n      dup3\n        /* \"#utility.yul\":2636:2673   */\n      mstore\n        /* \"#utility.yul\":2571:2679   */\n      pop\n      pop\n      jump\t// out\n        /* \"#utility.yul\":2685:2793   */\n    tag_426:\n        /* \"#utility.yul\":2762:2786   */\n      tag_488\n        /* \"#utility.yul\":2780:2785   */\n      dup2\n        /* \"#utility.yul\":2762:2786   */\n      tag_419\n      jump\t// in\n    tag_488:\n        /* \"#utility.yul\":2757:2760   */\n      dup3\n        /* \"#utility.yul\":2750:2787   */\n      mstore\n        /* \"#utility.yul\":2685:2793   */\n      pop\n      pop\n      jump\t// out\n        /* \"#utility.yul\":2799:2889   */\n    tag_427:\n        /* \"#utility.yul\":2833:2840   */\n      0x00\n        /* \"#utility.yul\":2876:2881   */\n      dup2\n        /* \"#utility.yul\":2869:2882   */\n      iszero\n        /* \"#utility.yul\":2862:2883   */\n      iszero\n        /* \"#utility.yul\":2851:2883   */\n      swap1\n      pop\n        /* \"#utility.yul\":2799:2889   */\n      swap2\n      swap1\n      pop\n      jump\t// out\n        /* \"#utility.yul\":2895:2994   */\n    tag_428:\n        /* \"#utility.yul\":2966:2987   */\n      tag_491\n        /* \"#utility.yul\":2981:2986   */\n      dup2\n        /* \"#utility.yul\":2966:2987   */\n      tag_427\n      jump\t// in\n    tag_491:\n        /* \"#utility.yul\":2961:2964   */\n      dup3\n        /* \"#utility.yul\":2954:2988   */\n      mstore\n        /* \"#utility.yul\":2895:2994   */\n      pop\n      pop\n      jump\t// out\n        /* \"#utility.yul\":3090:4317   */\n    tag_429:\n        /* \"#utility.yul\":3243:3247   */\n      0xc0\n        /* \"#utility.yul\":3238:3241   */\n      dup3\n        /* \"#utility.yul\":3234:3248   */\n      add\n        /* \"#utility.yul\":3335:3339   */\n      0x00\n        /* \"#utility.yul\":3328:3333   */\n      dup3\n        /* \"#utility.yul\":3324:3340   */\n      add\n        /* \"#utility.yul\":3318:3341   */\n      mload\n        /* \"#utility.yul\":3354:3417   */\n      tag_493\n        /* \"#utility.yul\":3411:3415   */\n      0x00\n        /* \"#utility.yul\":3406:3409   */\n      dup6\n        /* \"#utility.yul\":3402:3416   */\n      add\n        /* \"#utility.yul\":3388:3400   */\n      dup3\n        /* \"#utility.yul\":3354:3417   */\n      tag_425\n      jump\t// in\n    tag_493:\n        /* \"#utility.yul\":3258:3427   */\n      pop\n        /* \"#utility.yul\":3516:3520   */\n      0x20\n        /* \"#utility.yul\":3509:3514   */\n      dup3\n        /* \"#utility.yul\":3505:3521   */\n      add\n        /* \"#utility.yul\":3499:3522   */\n      mload\n        /* \"#utility.yul\":3535:3598   */\n      tag_494\n        /* \"#utility.yul\":3592:3596   */\n      0x20\n        /* \"#utility.yul\":3587:3590   */\n      dup6\n        /* \"#utility.yul\":3583:3597   */\n      add\n        /* \"#utility.yul\":3569:3581   */\n      dup3\n        /* \"#utility.yul\":3535:3598   */\n      tag_426\n      jump\t// in\n    tag_494:\n        /* \"#utility.yul\":3437:3608   */\n      pop\n        /* \"#utility.yul\":3691:3695   */\n      0x40\n        /* \"#utility.yul\":3684:3689   */\n      dup3\n        /* \"#utility.yul\":3680:3696   */\n      add\n        /* \"#utility.yul\":3674:3697   */\n      mload\n        /* \"#utility.yul\":3710:3773   */\n      tag_495\n        /* \"#utility.yul\":3767:3771   */\n      0x40\n        /* \"#utility.yul\":3762:3765   */\n      dup6\n        /* \"#utility.yul\":3758:3772   */\n      add\n        /* \"#utility.yul\":3744:3756   */\n      dup3\n        /* \"#utility.yul\":3710:3773   */\n      tag_426\n      jump\t// in\n    tag_495:\n        /* \"#utility.yul\":3618:3783   */\n      pop\n        /* \"#utility.yul\":3869:3873   */\n      0x60\n        /* \"#utility.yul\":3862:3867   */\n      dup3\n        /* \"#utility.yul\":3858:3874   */\n      add\n        /* \"#utility.yul\":3852:3875   */\n      mload\n        /* \"#utility.yul\":3888:3951   */\n      tag_496\n        /* \"#utility.yul\":3945:3949   */\n      0x60\n        /* \"#utility.yul\":3940:3943   */\n      dup6\n        /* \"#utility.yul\":3936:3950   */\n      add\n        /* \"#utility.yul\":3922:3934   */\n      dup3\n        /* \"#utility.yul\":3888:3951   */\n      tag_426\n      jump\t// in\n    tag_496:\n        /* \"#utility.yul\":3793:3961   */\n      pop\n        /* \"#utility.yul\":4047:4051   */\n      0x80\n        /* \"#utility.yul\":4040:4045   */\n      dup3\n        /* \"#utility.yul\":4036:4052   */\n      add\n        /* \"#utility.yul\":4030:4053   */\n      mload\n        /* \"#utility.yul\":4066:4129   */\n      tag_497\n        /* \"#utility.yul\":4123:4127   */\n      0x80\n        /* \"#utility.yul\":4118:4121   */\n      dup6\n        /* \"#utility.yul\":4114:4128   */\n      add\n        /* \"#utility.yul\":4100:4112   */\n      dup3\n        /* \"#utility.yul\":4066:4129   */\n      tag_426\n      jump\t// in\n    tag_497:\n        /* \"#utility.yul\":3971:4139   */\n      pop\n        /* \"#utility.yul\":4224:4228   */\n      0xa0\n        /* \"#utility.yul\":4217:4222   */\n      dup3\n        /* \"#utility.yul\":4213:4229   */\n      add\n        /* \"#utility.yul\":4207:4230   */\n      mload\n        /* \"#utility.yul\":4243:4300   */\n      tag_498\n        /* \"#utility.yul\":4294:4298   */\n      0xa0\n        /* \"#utility.yul\":4289:4292   */\n      dup6\n        /* \"#utility.yul\":4285:4299   */\n      add\n        /* \"#utility.yul\":4271:4283   */\n      dup3\n        /* \"#utility.yul\":4243:4300   */\n      tag_428\n      jump\t// in\n    tag_498:\n        /* \"#utility.yul\":4149:4310   */\n      pop\n        /* \"#utility.yul\":3212:4317   */\n      pop\n        /* \"#utility.yul\":3090:4317   */\n      pop\n      pop\n      jump\t// out\n        /* \"#utility.yul\":4323:4658   */\n    tag_57:\n        /* \"#utility.yul\":4472:4476   */\n      0x00\n        /* \"#utility.yul\":4510:4513   */\n      0xc0\n        /* \"#utility.yul\":4499:4508   */\n      dup3\n        /* \"#utility.yul\":4495:4514   */\n      add\n        /* \"#utility.yul\":4487:4514   */\n      swap1\n      pop\n        /* \"#utility.yul\":4524:4651   */\n      tag_500\n        /* \"#utility.yul\":4648:4649   */\n      0x00\n        /* \"#utility.yul\":4637:4646   */\n      dup4\n        /* \"#utility.yul\":4633:4650   */\n      add\n        /* \"#utility.yul\":4624:4630   */\n      dup5\n        /* \"#utility.yul\":4524:4651   */\n      tag_429\n      jump\t// in\n    tag_500:\n        /* \"#utility.yul\":4323:4658   */\n      swap3\n      swap2\n      pop\n      pop\n      jump\t// out\n        /* \"#utility.yul\":4664:4780   */\n    tag_430:\n        /* \"#utility.yul\":4734:4755   */\n      tag_502\n        /* \"#utility.yul\":4749:4754   */\n      dup2\n        /* \"#utility.yul\":4734:4755   */\n      tag_427\n      jump\t// in\n    tag_502:\n        /* \"#utility.yul\":4727:4732   */\n      dup2\n        /* \"#utility.yul\":4724:4756   */\n      eq\n        /* \"#utility.yul\":4714:4774   */\n      tag_503\n      jumpi\n        /* \"#utility.yul\":4770:4771   */\n      0x00\n        /* \"#utility.yul\":4767:4768   */\n      dup1\n        /* \"#utility.yul\":4760:4772   */\n      revert\n        /* \"#utility.yul\":4714:4774   */\n    tag_503:\n        /* \"#utility.yul\":4664:4780   */\n      pop\n      jump\t// out\n        /* \"#utility.yul\":4786:4919   */\n    tag_431:\n        /* \"#utility.yul\":4829:4834   */\n      0x00\n        /* \"#utility.yul\":4867:4873   */\n      dup2\n        /* \"#utility.yul\":4854:4874   */\n      calldataload\n        /* \"#utility.yul\":4845:4874   */\n      swap1\n      pop\n        /* \"#utility.yul\":4883:4913   */\n      tag_505\n        /* \"#utility.yul\":4907:4912   */\n      dup2\n        /* \"#utility.yul\":4883:4913   */\n      tag_430\n      jump\t// in\n    tag_505:\n        /* \"#utility.yul\":4786:4919   */\n      swap3\n      swap2\n      pop\n      pop\n      jump\t// out\n        /* \"#utility.yul\":4925:5248   */\n    tag_69:\n        /* \"#utility.yul\":4981:4987   */\n      0x00\n        /* \"#utility.yul\":5030:5032   */\n      0x20\n        /* \"#utility.yul\":5018:5027   */\n      dup3\n        /* \"#utility.yul\":5009:5016   */\n      dup5\n        /* \"#utility.yul\":5005:5028   */\n      sub\n        /* \"#utility.yul\":5001:5033   */\n      slt\n        /* \"#utility.yul\":4998:5117   */\n      iszero\n      tag_507\n      jumpi\n        /* \"#utility.yul\":5036:5115   */\n      tag_508\n      tag_417\n      jump\t// in\n    tag_508:\n        /* \"#utility.yul\":4998:5117   */\n    tag_507:\n        /* \"#utility.yul\":5156:5157   */\n      0x00\n        /* \"#utility.yul\":5181:5231   */\n      tag_509\n        /* \"#utility.yul\":5223:5230   */\n      dup5\n        /* \"#utility.yul\":5214:5220   */\n      dup3\n        /* \"#utility.yul\":5203:5212   */\n      dup6\n        /* \"#utility.yul\":5199:5221   */\n      add\n        /* \"#utility.yul\":5181:5231   */\n      tag_431\n      jump\t// in\n    tag_509:\n        /* \"#utility.yul\":5171:5231   */\n      swap2\n      pop\n        /* \"#utility.yul\":5127:5241   */\n      pop\n        /* \"#utility.yul\":4925:5248   */\n      swap3\n      swap2\n      pop\n      pop\n      jump\t// out\n        /* \"#utility.yul\":5254:5363   */\n    tag_432:\n        /* \"#utility.yul\":5335:5356   */\n      tag_511\n        /* \"#utility.yul\":5350:5355   */\n      dup2\n        /* \"#utility.yul\":5335:5356   */\n      tag_427\n      jump\t// in\n    tag_511:\n        /* \"#utility.yul\":5330:5333   */\n      dup3\n        /* \"#utility.yul\":5323:5357   */\n      mstore\n        /* \"#utility.yul\":5254:5363   */\n      pop\n      pop\n      jump\t// out\n        /* \"#utility.yul\":5369:5579   */\n    tag_86:\n        /* \"#utility.yul\":5456:5460   */\n      0x00\n        /* \"#utility.yul\":5494:5496   */\n      0x20\n        /* \"#utility.yul\":5483:5492   */\n      dup3\n        /* \"#utility.yul\":5479:5497   */\n      add\n        /* \"#utility.yul\":5471:5497   */\n      swap1\n      pop\n        /* \"#utility.yul\":5507:5572   */\n      tag_513\n        /* \"#utility.yul\":5569:5570   */\n      0x00\n        /* \"#utility.yul\":5558:5567   */\n      dup4\n        /* \"#utility.yul\":5554:5571   */\n      add\n        /* \"#utility.yul\":5545:5551   */\n      dup5\n        /* \"#utility.yul\":5507:5572   */\n      tag_432\n      jump\t// in\n    tag_513:\n        /* \"#utility.yul\":5369:5579   */\n      swap3\n      swap2\n      pop\n      pop\n      jump\t// out\n        /* \"#utility.yul\":5585:6459   */\n    tag_94:\n        /* \"#utility.yul\":5840:5844   */\n      0x00\n        /* \"#utility.yul\":5878:5881   */\n      0xe0\n        /* \"#utility.yul\":5867:5876   */\n      dup3\n        /* \"#utility.yul\":5863:5882   */\n      add\n        /* \"#utility.yul\":5855:5882   */\n      swap1\n      pop\n        /* \"#utility.yul\":5892:5963   */\n      tag_515\n        /* \"#utility.yul\":5960:5961   */\n      0x00\n        /* \"#utility.yul\":5949:5958   */\n      dup4\n        /* \"#utility.yul\":5945:5962   */\n      add\n        /* \"#utility.yul\":5936:5942   */\n      dup11\n        /* \"#utility.yul\":5892:5963   */\n      tag_415\n      jump\t// in\n    tag_515:\n        /* \"#utility.yul\":5973:6045   */\n      tag_516\n        /* \"#utility.yul\":6041:6043   */\n      0x20\n        /* \"#utility.yul\":6030:6039   */\n      dup4\n        /* \"#utility.yul\":6026:6044   */\n      add\n        /* \"#utility.yul\":6017:6023   */\n      dup10\n        /* \"#utility.yul\":5973:6045   */\n      tag_422\n      jump\t// in\n    tag_516:\n        /* \"#utility.yul\":6055:6127   */\n      tag_517\n        /* \"#utility.yul\":6123:6125   */\n      0x40\n        /* \"#utility.yul\":6112:6121   */\n      dup4\n        /* \"#utility.yul\":6108:6126   */\n      add\n        /* \"#utility.yul\":6099:6105   */\n      dup9\n        /* \"#utility.yul\":6055:6127   */\n      tag_422\n      jump\t// in\n    tag_517:\n        /* \"#utility.yul\":6137:6209   */\n      tag_518\n        /* \"#utility.yul\":6205:6207   */\n      0x60\n        /* \"#utility.yul\":6194:6203   */\n      dup4\n        /* \"#utility.yul\":6190:6208   */\n      add\n        /* \"#utility.yul\":6181:6187   */\n      dup8\n        /* \"#utility.yul\":6137:6209   */\n      tag_422\n      jump\t// in\n    tag_518:\n        /* \"#utility.yul\":6219:6292   */\n      tag_519\n        /* \"#utility.yul\":6287:6290   */\n      0x80\n        /* \"#utility.yul\":6276:6285   */\n      dup4\n        /* \"#utility.yul\":6272:6291   */\n      add\n        /* \"#utility.yul\":6263:6269   */\n      dup7\n        /* \"#utility.yul\":6219:6292   */\n      tag_422\n      jump\t// in\n    tag_519:\n        /* \"#utility.yul\":6302:6369   */\n      tag_520\n        /* \"#utility.yul\":6364:6367   */\n      0xa0\n        /* \"#utility.yul\":6353:6362   */\n      dup4\n        /* \"#utility.yul\":6349:6368   */\n      add\n        /* \"#utility.yul\":6340:6346   */\n      dup6\n        /* \"#utility.yul\":6302:6369   */\n      tag_432\n      jump\t// in\n    tag_520:\n        /* \"#utility.yul\":6379:6452   */\n      tag_521\n        /* \"#utility.yul\":6447:6450   */\n      0xc0\n        /* \"#utility.yul\":6436:6445   */\n      dup4\n        /* \"#utility.yul\":6432:6451   */\n      add\n        /* \"#utility.yul\":6423:6429   */\n      dup5\n        /* \"#utility.yul\":6379:6452   */\n      tag_422\n      jump\t// in\n    tag_521:\n        /* \"#utility.yul\":5585:6459   */\n      swap9\n      swap8\n      pop\n      pop\n      pop\n      pop\n      pop\n      pop\n      pop\n      pop\n      jump\t// out\n        /* \"#utility.yul\":6465:6939   */\n    tag_109:\n        /* \"#utility.yul\":6533:6539   */\n      0x00\n        /* \"#utility.yul\":6541:6547   */\n      dup1\n        /* \"#utility.yul\":6590:6592   */\n      0x40\n        /* \"#utility.yul\":6578:6587   */\n      dup4\n        /* \"#utility.yul\":6569:6576   */\n      dup6\n        /* \"#utility.yul\":6565:6588   */\n      sub\n        /* \"#utility.yul\":6561:6593   */\n      slt\n        /* \"#utility.yul\":6558:6677   */\n      iszero\n      tag_523\n      jumpi\n        /* \"#utility.yul\":6596:6675   */\n      tag_524\n      tag_417\n      jump\t// in\n    tag_524:\n        /* \"#utility.yul\":6558:6677   */\n    tag_523:\n        /* \"#utility.yul\":6716:6717   */\n      0x00\n        /* \"#utility.yul\":6741:6794   */\n      tag_525\n        /* \"#utility.yul\":6786:6793   */\n      dup6\n        /* \"#utility.yul\":6777:6783   */\n      dup3\n        /* \"#utility.yul\":6766:6775   */\n      dup7\n        /* \"#utility.yul\":6762:6784   */\n      add\n        /* \"#utility.yul\":6741:6794   */\n      tag_424\n      jump\t// in\n    tag_525:\n        /* \"#utility.yul\":6731:6794   */\n      swap3\n      pop\n        /* \"#utility.yul\":6687:6804   */\n      pop\n        /* \"#utility.yul\":6843:6845   */\n      0x20\n        /* \"#utility.yul\":6869:6922   */\n      tag_526\n        /* \"#utility.yul\":6914:6921   */\n      dup6\n        /* \"#utility.yul\":6905:6911   */\n      dup3\n        /* \"#utility.yul\":6894:6903   */\n      dup7\n        /* \"#utility.yul\":6890:6912   */\n      add\n        /* \"#utility.yul\":6869:6922   */\n      tag_421\n      jump\t// in\n    tag_526:\n        /* \"#utility.yul\":6859:6922   */\n      swap2\n      pop\n        /* \"#utility.yul\":6814:6932   */\n      pop\n        /* \"#utility.yul\":6465:6939   */\n      swap3\n      pop\n      swap3\n      swap1\n      pop\n      jump\t// out\n        /* \"#utility.yul\":6945:7114   */\n    tag_433:\n        /* \"#utility.yul\":7029:7040   */\n      0x00\n        /* \"#utility.yul\":7063:7069   */\n      dup3\n        /* \"#utility.yul\":7058:7061   */\n      dup3\n        /* \"#utility.yul\":7051:7070   */\n      mstore\n        /* \"#utility.yul\":7103:7107   */\n      0x20\n        /* \"#utility.yul\":7098:7101   */\n      dup3\n        /* \"#utility.yul\":7094:7108   */\n      add\n        /* \"#utility.yul\":7079:7108   */\n      swap1\n      pop\n        /* \"#utility.yul\":6945:7114   */\n      swap3\n      swap2\n      pop\n      pop\n      jump\t// out\n        /* \"#utility.yul\":7120:7288   */\n    tag_434:\n        /* \"#utility.yul\":7260:7280   */\n      0x496e646578206f7574206f662072616e67650000000000000000000000000000\n        /* \"#utility.yul\":7256:7257   */\n      0x00\n        /* \"#utility.yul\":7248:7254   */\n      dup3\n        /* \"#utility.yul\":7244:7258   */\n      add\n        /* \"#utility.yul\":7237:7281   */\n      mstore\n        /* \"#utility.yul\":7120:7288   */\n      pop\n      jump\t// out\n        /* \"#utility.yul\":7294:7660   */\n    tag_435:\n        /* \"#utility.yul\":7436:7439   */\n      0x00\n        /* \"#utility.yul\":7457:7524   */\n      tag_530\n        /* \"#utility.yul\":7521:7523   */\n      0x12\n        /* \"#utility.yul\":7516:7519   */\n      dup4\n        /* \"#utility.yul\":7457:7524   */\n      tag_433\n      jump\t// in\n    tag_530:\n        /* \"#utility.yul\":7450:7524   */\n      swap2\n      pop\n        /* \"#utility.yul\":7533:7626   */\n      tag_531\n        /* \"#utility.yul\":7622:7625   */\n      dup3\n        /* \"#utility.yul\":7533:7626   */\n      tag_434\n      jump\t// in\n    tag_531:\n        /* \"#utility.yul\":7651:7653   */\n      0x20\n        /* \"#utility.yul\":7646:7649   */\n      dup3\n        /* \"#utility.yul\":7642:7654   */\n      add\n        /* \"#utility.yul\":7635:7654   */\n      swap1\n      pop\n        /* \"#utility.yul\":7294:7660   */\n      swap2\n      swap1\n      pop\n      jump\t// out\n        /* \"#utility.yul\":7666:8085   */\n    tag_129:\n        /* \"#utility.yul\":7832:7836   */\n      0x00\n        /* \"#utility.yul\":7870:7872   */\n      0x20\n        /* \"#utility.yul\":7859:7868   */\n      dup3\n        /* \"#utility.yul\":7855:7873   */\n      add\n        /* \"#utility.yul\":7847:7873   */\n      swap1\n      pop\n        /* \"#utility.yul\":7919:7928   */\n      dup2\n        /* \"#utility.yul\":7913:7917   */\n      dup2\n        /* \"#utility.yul\":7909:7929   */\n      sub\n        /* \"#utility.yul\":7905:7906   */\n      0x00\n        /* \"#utility.yul\":7894:7903   */\n      dup4\n        /* \"#utility.yul\":7890:7907   */\n      add\n        /* \"#utility.yul\":7883:7930   */\n      mstore\n        /* \"#utility.yul\":7947:8078   */\n      tag_533\n        /* \"#utility.yul\":8073:8077   */\n      dup2\n        /* \"#utility.yul\":7947:8078   */\n      tag_435\n      jump\t// in\n    tag_533:\n        /* \"#utility.yul\":7939:8078   */\n      swap1\n      pop\n        /* \"#utility.yul\":7666:8085   */\n      swap2\n      swap1\n      pop\n      jump\t// out\n        /* \"#utility.yul\":8091:8271   */\n    tag_132:\n        /* \"#utility.yul\":8139:8216   */\n      0x4e487b7100000000000000000000000000000000000000000000000000000000\n        /* \"#utility.yul\":8136:8137   */\n      0x00\n        /* \"#utility.yul\":8129:8217   */\n      mstore\n        /* \"#utility.yul\":8236:8240   */\n      0x32\n        /* \"#utility.yul\":8233:8234   */\n      0x04\n        /* \"#utility.yul\":8226:8241   */\n      mstore\n        /* \"#utility.yul\":8260:8264   */\n      0x24\n        /* \"#utility.yul\":8257:8258   */\n      0x00\n        /* \"#utility.yul\":8250:8265   */\n      revert\n        /* \"#utility.yul\":8277:8457   */\n    tag_436:\n        /* \"#utility.yul\":8325:8402   */\n      0x4e487b7100000000000000000000000000000000000000000000000000000000\n        /* \"#utility.yul\":8322:8323   */\n      0x00\n        /* \"#utility.yul\":8315:8403   */\n      mstore\n        /* \"#utility.yul\":8422:8426   */\n      0x11\n        /* \"#utility.yul\":8419:8420   */\n      0x04\n        /* \"#utility.yul\":8412:8427   */\n      mstore\n        /* \"#utility.yul\":8446:8450   */\n      0x24\n        /* \"#utility.yul\":8443:8444   */\n      0x00\n        /* \"#utility.yul\":8436:8451   */\n      revert\n        /* \"#utility.yul\":8463:8654   */\n    tag_137:\n        /* \"#utility.yul\":8503:8506   */\n      0x00\n        /* \"#utility.yul\":8522:8542   */\n      tag_537\n        /* \"#utility.yul\":8540:8541   */\n      dup3\n        /* \"#utility.yul\":8522:8542   */\n      tag_419\n      jump\t// in\n    tag_537:\n        /* \"#utility.yul\":8517:8542   */\n      swap2\n      pop\n        /* \"#utility.yul\":8556:8576   */\n      tag_538\n        /* \"#utility.yul\":8574:8575   */\n      dup4\n        /* \"#utility.yul\":8556:8576   */\n      tag_419\n      jump\t// in\n    tag_538:\n        /* \"#utility.yul\":8551:8576   */\n      swap3\n      pop\n        /* \"#utility.yul\":8599:8600   */\n      dup3\n        /* \"#utility.yul\":8596:8597   */\n      dup3\n        /* \"#utility.yul\":8592:8601   */\n      add\n        /* \"#utility.yul\":8585:8601   */\n      swap1\n      pop\n        /* \"#utility.yul\":8620:8623   */\n      dup1\n        /* \"#utility.yul\":8617:8618   */\n      dup3\n        /* \"#utility.yul\":8614:8624   */\n      gt\n        /* \"#utility.yul\":8611:8647   */\n      iszero\n      tag_539\n      jumpi\n        /* \"#utility.yul\":8627:8645   */\n      tag_540\n      tag_436\n      jump\t// in\n    tag_540:\n        /* \"#utility.yul\":8611:8647   */\n    tag_539:\n        /* \"#utility.yul\":8463:8654   */\n      swap3\n      swap2\n      pop\n      pop\n      jump\t// out\n        /* \"#utility.yul\":8660:8840   */\n    tag_437:\n        /* \"#utility.yul\":8708:8785   */\n      0x4e487b7100000000000000000000000000000000000000000000000000000000\n        /* \"#utility.yul\":8705:8706   */\n      0x00\n        /* \"#utility.yul\":8698:8786   */\n      mstore\n        /* \"#utility.yul\":8805:8809   */\n      0x12\n        /* \"#utility.yul\":8802:8803   */\n      0x04\n        /* \"#utility.yul\":8795:8810   */\n      mstore\n        /* \"#utility.yul\":8829:8833   */\n      0x24\n        /* \"#utility.yul\":8826:8827   */\n      0x00\n        /* \"#utility.yul\":8819:8834   */\n      revert\n        /* \"#utility.yul\":8846:9031   */\n    tag_139:\n        /* \"#utility.yul\":8886:8887   */\n      0x00\n        /* \"#utility.yul\":8903:8923   */\n      tag_543\n        /* \"#utility.yul\":8921:8922   */\n      dup3\n        /* \"#utility.yul\":8903:8923   */\n      tag_419\n      jump\t// in\n    tag_543:\n        /* \"#utility.yul\":8898:8923   */\n      swap2\n      pop\n        /* \"#utility.yul\":8937:8957   */\n      tag_544\n        /* \"#utility.yul\":8955:8956   */\n      dup4\n        /* \"#utility.yul\":8937:8957   */\n      tag_419\n      jump\t// in\n    tag_544:\n        /* \"#utility.yul\":8932:8957   */\n      swap3\n      pop\n        /* \"#utility.yul\":8976:8977   */\n      dup3\n        /* \"#utility.yul\":8966:9001   */\n      tag_545\n      jumpi\n        /* \"#utility.yul\":8981:8999   */\n      tag_546\n      tag_437\n      jump\t// in\n    tag_546:\n        /* \"#utility.yul\":8966:9001   */\n    tag_545:\n        /* \"#utility.yul\":9023:9024   */\n      dup3\n        /* \"#utility.yul\":9020:9021   */\n      dup3\n        /* \"#utility.yul\":9016:9025   */\n      div\n        /* \"#utility.yul\":9011:9025   */\n      swap1\n      pop\n        /* \"#utility.yul\":8846:9031   */\n      swap3\n      swap2\n      pop\n      pop\n      jump\t// out\n        /* \"#utility.yul\":9037:9369   */\n    tag_145:\n        /* \"#utility.yul\":9158:9162   */\n      0x00\n        /* \"#utility.yul\":9196:9198   */\n      0x40\n        /* \"#utility.yul\":9185:9194   */\n      dup3\n        /* \"#utility.yul\":9181:9199   */\n      add\n        /* \"#utility.yul\":9173:9199   */\n      swap1\n      pop\n        /* \"#utility.yul\":9209:9280   */\n      tag_548\n        /* \"#utility.yul\":9277:9278   */\n      0x00\n        /* \"#utility.yul\":9266:9275   */\n      dup4\n        /* \"#utility.yul\":9262:9279   */\n      add\n        /* \"#utility.yul\":9253:9259   */\n      dup6\n        /* \"#utility.yul\":9209:9280   */\n      tag_422\n      jump\t// in\n    tag_548:\n        /* \"#utility.yul\":9290:9362   */\n      tag_549\n        /* \"#utility.yul\":9358:9360   */\n      0x20\n        /* \"#utility.yul\":9347:9356   */\n      dup4\n        /* \"#utility.yul\":9343:9361   */\n      add\n        /* \"#utility.yul\":9334:9340   */\n      dup5\n        /* \"#utility.yul\":9290:9362   */\n      tag_415\n      jump\t// in\n    tag_549:\n        /* \"#utility.yul\":9037:9369   */\n      swap4\n      swap3\n      pop\n      pop\n      pop\n      jump\t// out\n        /* \"#utility.yul\":9375:9569   */\n    tag_175:\n        /* \"#utility.yul\":9415:9419   */\n      0x00\n        /* \"#utility.yul\":9435:9455   */\n      tag_551\n        /* \"#utility.yul\":9453:9454   */\n      dup3\n        /* \"#utility.yul\":9435:9455   */\n      tag_419\n      jump\t// in\n    tag_551:\n        /* \"#utility.yul\":9430:9455   */\n      swap2\n      pop\n        /* \"#utility.yul\":9469:9489   */\n      tag_552\n        /* \"#utility.yul\":9487:9488   */\n      dup4\n        /* \"#utility.yul\":9469:9489   */\n      tag_419\n      jump\t// in\n    tag_552:\n        /* \"#utility.yul\":9464:9489   */\n      swap3\n      pop\n        /* \"#utility.yul\":9513:9514   */\n      dup3\n        /* \"#utility.yul\":9510:9511   */\n      dup3\n        /* \"#utility.yul\":9506:9515   */\n      sub\n        /* \"#utility.yul\":9498:9515   */\n      swap1\n      pop\n        /* \"#utility.yul\":9537:9538   */\n      dup2\n        /* \"#utility.yul\":9531:9535   */\n      dup2\n        /* \"#utility.yul\":9528:9539   */\n      gt\n        /* \"#utility.yul\":9525:9562   */\n      iszero\n      tag_553\n      jumpi\n        /* \"#utility.yul\":9542:9560   */\n      tag_554\n      tag_436\n      jump\t// in\n    tag_554:\n        /* \"#utility.yul\":9525:9562   */\n    tag_553:\n        /* \"#utility.yul\":9375:9569   */\n      swap3\n      swap2\n      pop\n      pop\n      jump\t// out\n        /* \"#utility.yul\":9575:9746   */\n    tag_189:\n        /* \"#utility.yul\":9614:9617   */\n      0x00\n        /* \"#utility.yul\":9637:9661   */\n      tag_556\n        /* \"#utility.yul\":9655:9660   */\n      dup3\n        /* \"#utility.yul\":9637:9661   */\n      tag_419\n      jump\t// in\n    tag_556:\n        /* \"#utility.yul\":9628:9661   */\n      swap2\n      pop\n        /* \"#utility.yul\":9683:9687   */\n      0x00\n        /* \"#utility.yul\":9676:9681   */\n      dup3\n        /* \"#utility.yul\":9673:9688   */\n      sub\n        /* \"#utility.yul\":9670:9711   */\n      tag_557\n      jumpi\n        /* \"#utility.yul\":9691:9709   */\n      tag_558\n      tag_436\n      jump\t// in\n    tag_558:\n        /* \"#utility.yul\":9670:9711   */\n    tag_557:\n        /* \"#utility.yul\":9738:9739   */\n      0x01\n        /* \"#utility.yul\":9731:9736   */\n      dup3\n        /* \"#utility.yul\":9727:9740   */\n      sub\n        /* \"#utility.yul\":9720:9740   */\n      swap1\n      pop\n        /* \"#utility.yul\":9575:9746   */\n      swap2\n      swap1\n      pop\n      jump\t// out\n        /* \"#utility.yul\":9752:9924   */\n    tag_438:\n        /* \"#utility.yul\":9892:9916   */\n      0x496e73756666696369656e74206c697175696469747900000000000000000000\n        /* \"#utility.yul\":9888:9889   */\n      0x00\n        /* \"#utility.yul\":9880:9886   */\n      dup3\n        /* \"#utility.yul\":9876:9890   */\n      add\n        /* \"#utility.yul\":9869:9917   */\n      mstore\n        /* \"#utility.yul\":9752:9924   */\n      pop\n      jump\t// out\n        /* \"#utility.yul\":9930:10296   */\n    tag_439:\n        /* \"#utility.yul\":10072:10075   */\n      0x00\n        /* \"#utility.yul\":10093:10160   */\n      tag_561\n        /* \"#utility.yul\":10157:10159   */\n      0x16\n        /* \"#utility.yul\":10152:10155   */\n      dup4\n        /* \"#utility.yul\":10093:10160   */\n      tag_433\n      jump\t// in\n    tag_561:\n        /* \"#utility.yul\":10086:10160   */\n      swap2\n      pop\n        /* \"#utility.yul\":10169:10262   */\n      tag_562\n        /* \"#utility.yul\":10258:10261   */\n      dup3\n        /* \"#utility.yul\":10169:10262   */\n      tag_438\n      jump\t// in\n    tag_562:\n        /* \"#utility.yul\":10287:10289   */\n      0x20\n        /* \"#utility.yul\":10282:10285   */\n      dup3\n        /* \"#utility.yul\":10278:10290   */\n      add\n        /* \"#utility.yul\":10271:10290   */\n      swap1\n      pop\n        /* \"#utility.yul\":9930:10296   */\n      swap2\n      swap1\n      pop\n      jump\t// out\n        /* \"#utility.yul\":10302:10721   */\n    tag_192:\n        /* \"#utility.yul\":10468:10472   */\n      0x00\n        /* \"#utility.yul\":10506:10508   */\n      0x20\n        /* \"#utility.yul\":10495:10504   */\n      dup3\n        /* \"#utility.yul\":10491:10509   */\n      add\n        /* \"#utility.yul\":10483:10509   */\n      swap1\n      pop\n        /* \"#utility.yul\":10555:10564   */\n      dup2\n        /* \"#utility.yul\":10549:10553   */\n      dup2\n        /* \"#utility.yul\":10545:10565   */\n      sub\n        /* \"#utility.yul\":10541:10542   */\n      0x00\n        /* \"#utility.yul\":10530:10539   */\n      dup4\n        /* \"#utility.yul\":10526:10543   */\n      add\n        /* \"#utility.yul\":10519:10566   */\n      mstore\n        /* \"#utility.yul\":10583:10714   */\n      tag_564\n        /* \"#utility.yul\":10709:10713   */\n      dup2\n        /* \"#utility.yul\":10583:10714   */\n      tag_439\n      jump\t// in\n    tag_564:\n        /* \"#utility.yul\":10575:10714   */\n      swap1\n      pop\n        /* \"#utility.yul\":10302:10721   */\n      swap2\n      swap1\n      pop\n      jump\t// out\n        /* \"#utility.yul\":10727:11137   */\n    tag_214:\n        /* \"#utility.yul\":10767:10774   */\n      0x00\n        /* \"#utility.yul\":10790:10810   */\n      tag_566\n        /* \"#utility.yul\":10808:10809   */\n      dup3\n        /* \"#utility.yul\":10790:10810   */\n      tag_419\n      jump\t// in\n    tag_566:\n        /* \"#utility.yul\":10785:10810   */\n      swap2\n      pop\n        /* \"#utility.yul\":10824:10844   */\n      tag_567\n        /* \"#utility.yul\":10842:10843   */\n      dup4\n        /* \"#utility.yul\":10824:10844   */\n      tag_419\n      jump\t// in\n    tag_567:\n        /* \"#utility.yul\":10819:10844   */\n      swap3\n      pop\n        /* \"#utility.yul\":10879:10880   */\n      dup3\n        /* \"#utility.yul\":10876:10877   */\n      dup3\n        /* \"#utility.yul\":10872:10881   */\n      mul\n        /* \"#utility.yul\":10901:10931   */\n      tag_568\n        /* \"#utility.yul\":10919:10930   */\n      dup2\n        /* \"#utility.yul\":10901:10931   */\n      tag_419\n      jump\t// in\n    tag_568:\n        /* \"#utility.yul\":10890:10931   */\n      swap2\n      pop\n        /* \"#utility.yul\":11080:11081   */\n      dup3\n        /* \"#utility.yul\":11071:11078   */\n      dup3\n        /* \"#utility.yul\":11067:11082   */\n      div\n        /* \"#utility.yul\":11064:11065   */\n      dup5\n        /* \"#utility.yul\":11061:11083   */\n      eq\n        /* \"#utility.yul\":11041:11042   */\n      dup4\n        /* \"#utility.yul\":11034:11043   */\n      iszero\n        /* \"#utility.yul\":11014:11097   */\n      or\n        /* \"#utility.yul\":10991:11130   */\n      tag_569\n      jumpi\n        /* \"#utility.yul\":11110:11128   */\n      tag_570\n      tag_436\n      jump\t// in\n    tag_570:\n        /* \"#utility.yul\":10991:11130   */\n    tag_569:\n        /* \"#utility.yul\":10775:11137   */\n      pop\n        /* \"#utility.yul\":10727:11137   */\n      swap3\n      swap2\n      pop\n      pop\n      jump\t// out\n        /* \"#utility.yul\":11143:11585   */\n    tag_239:\n        /* \"#utility.yul\":11292:11296   */\n      0x00\n        /* \"#utility.yul\":11330:11332   */\n      0x60\n        /* \"#utility.yul\":11319:11328   */\n      dup3\n        /* \"#utility.yul\":11315:11333   */\n      add\n        /* \"#utility.yul\":11307:11333   */\n      swap1\n      pop\n        /* \"#utility.yul\":11343:11414   */\n      tag_572\n        /* \"#utility.yul\":11411:11412   */\n      0x00\n        /* \"#utility.yul\":11400:11409   */\n      dup4\n        /* \"#utility.yul\":11396:11413   */\n      add\n        /* \"#utility.yul\":11387:11393   */\n      dup7\n        /* \"#utility.yul\":11343:11414   */\n      tag_415\n      jump\t// in\n    tag_572:\n        /* \"#utility.yul\":11424:11496   */\n      tag_573\n        /* \"#utility.yul\":11492:11494   */\n      0x20\n        /* \"#utility.yul\":11481:11490   */\n      dup4\n        /* \"#utility.yul\":11477:11495   */\n      add\n        /* \"#utility.yul\":11468:11474   */\n      dup6\n        /* \"#utility.yul\":11424:11496   */\n      tag_415\n      jump\t// in\n    tag_573:\n        /* \"#utility.yul\":11506:11578   */\n      tag_574\n        /* \"#utility.yul\":11574:11576   */\n      0x40\n        /* \"#utility.yul\":11563:11572   */\n      dup4\n        /* \"#utility.yul\":11559:11577   */\n      add\n        /* \"#utility.yul\":11550:11556   */\n      dup5\n        /* \"#utility.yul\":11506:11578   */\n      tag_422\n      jump\t// in\n    tag_574:\n        /* \"#utility.yul\":11143:11585   */\n      swap5\n      swap4\n      pop\n      pop\n      pop\n      pop\n      jump\t// out\n        /* \"#utility.yul\":11591:11728   */\n    tag_440:\n        /* \"#utility.yul\":11645:11650   */\n      0x00\n        /* \"#utility.yul\":11676:11682   */\n      dup2\n        /* \"#utility.yul\":11670:11683   */\n      mload\n        /* \"#utility.yul\":11661:11683   */\n      swap1\n      pop\n        /* \"#utility.yul\":11692:11722   */\n      tag_576\n        /* \"#utility.yul\":11716:11721   */\n      dup2\n        /* \"#utility.yul\":11692:11722   */\n      tag_430\n      jump\t// in\n    tag_576:\n        /* \"#utility.yul\":11591:11728   */\n      swap3\n      swap2\n      pop\n      pop\n      jump\t// out\n        /* \"#utility.yul\":11734:12079   */\n    tag_243:\n        /* \"#utility.yul\":11801:11807   */\n      0x00\n        /* \"#utility.yul\":11850:11852   */\n      0x20\n        /* \"#utility.yul\":11838:11847   */\n      dup3\n        /* \"#utility.yul\":11829:11836   */\n      dup5\n        /* \"#utility.yul\":11825:11848   */\n      sub\n        /* \"#utility.yul\":11821:11853   */\n      slt\n        /* \"#utility.yul\":11818:11937   */\n      iszero\n      tag_578\n      jumpi\n        /* \"#utility.yul\":11856:11935   */\n      tag_579\n      tag_417\n      jump\t// in\n    tag_579:\n        /* \"#utility.yul\":11818:11937   */\n    tag_578:\n        /* \"#utility.yul\":11976:11977   */\n      0x00\n        /* \"#utility.yul\":12001:12062   */\n      tag_580\n        /* \"#utility.yul\":12054:12061   */\n      dup5\n        /* \"#utility.yul\":12045:12051   */\n      dup3\n        /* \"#utility.yul\":12034:12043   */\n      dup6\n        /* \"#utility.yul\":12030:12052   */\n      add\n        /* \"#utility.yul\":12001:12062   */\n      tag_440\n      jump\t// in\n    tag_580:\n        /* \"#utility.yul\":11991:12062   */\n      swap2\n      pop\n        /* \"#utility.yul\":11947:12072   */\n      pop\n        /* \"#utility.yul\":11734:12079   */\n      swap3\n      swap2\n      pop\n      pop\n      jump\t// out\n        /* \"#utility.yul\":12085:12250   */\n    tag_441:\n        /* \"#utility.yul\":12225:12242   */\n      0x5472616e73666572206661696c65640000000000000000000000000000000000\n        /* \"#utility.yul\":12221:12222   */\n      0x00\n        /* \"#utility.yul\":12213:12219   */\n      dup3\n        /* \"#utility.yul\":12209:12223   */\n      add\n        /* \"#utility.yul\":12202:12243   */\n      mstore\n        /* \"#utility.yul\":12085:12250   */\n      pop\n      jump\t// out\n        /* \"#utility.yul\":12256:12622   */\n    tag_442:\n        /* \"#utility.yul\":12398:12401   */\n      0x00\n        /* \"#utility.yul\":12419:12486   */\n      tag_583\n        /* \"#utility.yul\":12483:12485   */\n      0x0f\n        /* \"#utility.yul\":12478:12481   */\n      dup4\n        /* \"#utility.yul\":12419:12486   */\n      tag_433\n      jump\t// in\n    tag_583:\n        /* \"#utility.yul\":12412:12486   */\n      swap2\n      pop\n        /* \"#utility.yul\":12495:12588   */\n      tag_584\n        /* \"#utility.yul\":12584:12587   */\n      dup3\n        /* \"#utility.yul\":12495:12588   */\n      tag_441\n      jump\t// in\n    tag_584:\n        /* \"#utility.yul\":12613:12615   */\n      0x20\n        /* \"#utility.yul\":12608:12611   */\n      dup3\n        /* \"#utility.yul\":12604:12616   */\n      add\n        /* \"#utility.yul\":12597:12616   */\n      swap1\n      pop\n        /* \"#utility.yul\":12256:12622   */\n      swap2\n      swap1\n      pop\n      jump\t// out\n        /* \"#utility.yul\":12628:13047   */\n    tag_246:\n        /* \"#utility.yul\":12794:12798   */\n      0x00\n        /* \"#utility.yul\":12832:12834   */\n      0x20\n        /* \"#utility.yul\":12821:12830   */\n      dup3\n        /* \"#utility.yul\":12817:12835   */\n      add\n        /* \"#utility.yul\":12809:12835   */\n      swap1\n      pop\n        /* \"#utility.yul\":12881:12890   */\n      dup2\n        /* \"#utility.yul\":12875:12879   */\n      dup2\n        /* \"#utility.yul\":12871:12891   */\n      sub\n        /* \"#utility.yul\":12867:12868   */\n      0x00\n        /* \"#utility.yul\":12856:12865   */\n      dup4\n        /* \"#utility.yul\":12852:12869   */\n      add\n        /* \"#utility.yul\":12845:12892   */\n      mstore\n        /* \"#utility.yul\":12909:13040   */\n      tag_586\n        /* \"#utility.yul\":13035:13039   */\n      dup2\n        /* \"#utility.yul\":12909:13040   */\n      tag_442\n      jump\t// in\n    tag_586:\n        /* \"#utility.yul\":12901:13040   */\n      swap1\n      pop\n        /* \"#utility.yul\":12628:13047   */\n      swap2\n      swap1\n      pop\n      jump\t// out\n        /* \"#utility.yul\":13053:13279   */\n    tag_443:\n        /* \"#utility.yul\":13193:13227   */\n      0x4c697175696469747920616464726573732069732079657420746f2062652061\n        /* \"#utility.yul\":13189:13190   */\n      0x00\n        /* \"#utility.yul\":13181:13187   */\n      dup3\n        /* \"#utility.yul\":13177:13191   */\n      add\n        /* \"#utility.yul\":13170:13228   */\n      mstore\n        /* \"#utility.yul\":13262:13271   */\n      0x737369676e656400000000000000000000000000000000000000000000000000\n        /* \"#utility.yul\":13257:13259   */\n      0x20\n        /* \"#utility.yul\":13249:13255   */\n      dup3\n        /* \"#utility.yul\":13245:13260   */\n      add\n        /* \"#utility.yul\":13238:13272   */\n      mstore\n        /* \"#utility.yul\":13053:13279   */\n      pop\n      jump\t// out\n        /* \"#utility.yul\":13285:13651   */\n    tag_444:\n        /* \"#utility.yul\":13427:13430   */\n      0x00\n        /* \"#utility.yul\":13448:13515   */\n      tag_589\n        /* \"#utility.yul\":13512:13514   */\n      0x27\n        /* \"#utility.yul\":13507:13510   */\n      dup4\n        /* \"#utility.yul\":13448:13515   */\n      tag_433\n      jump\t// in\n    tag_589:\n        /* \"#utility.yul\":13441:13515   */\n      swap2\n      pop\n        /* \"#utility.yul\":13524:13617   */\n      tag_590\n        /* \"#utility.yul\":13613:13616   */\n      dup3\n        /* \"#utility.yul\":13524:13617   */\n      tag_443\n      jump\t// in\n    tag_590:\n        /* \"#utility.yul\":13642:13644   */\n      0x40\n        /* \"#utility.yul\":13637:13640   */\n      dup3\n        /* \"#utility.yul\":13633:13645   */\n      add\n        /* \"#utility.yul\":13626:13645   */\n      swap1\n      pop\n        /* \"#utility.yul\":13285:13651   */\n      swap2\n      swap1\n      pop\n      jump\t// out\n        /* \"#utility.yul\":13657:14076   */\n    tag_263:\n        /* \"#utility.yul\":13823:13827   */\n      0x00\n        /* \"#utility.yul\":13861:13863   */\n      0x20\n        /* \"#utility.yul\":13850:13859   */\n      dup3\n        /* \"#utility.yul\":13846:13864   */\n      add\n        /* \"#utility.yul\":13838:13864   */\n      swap1\n      pop\n        /* \"#utility.yul\":13910:13919   */\n      dup2\n        /* \"#utility.yul\":13904:13908   */\n      dup2\n        /* \"#utility.yul\":13900:13920   */\n      sub\n        /* \"#utility.yul\":13896:13897   */\n      0x00\n        /* \"#utility.yul\":13885:13894   */\n      dup4\n        /* \"#utility.yul\":13881:13898   */\n      add\n        /* \"#utility.yul\":13874:13921   */\n      mstore\n        /* \"#utility.yul\":13938:14069   */\n      tag_592\n        /* \"#utility.yul\":14064:14068   */\n      dup2\n        /* \"#utility.yul\":13938:14069   */\n      tag_444\n      jump\t// in\n    tag_592:\n        /* \"#utility.yul\":13930:14069   */\n      swap1\n      pop\n        /* \"#utility.yul\":13657:14076   */\n      swap2\n      swap1\n      pop\n      jump\t// out\n        /* \"#utility.yul\":14082:14262   */\n    tag_266:\n        /* \"#utility.yul\":14130:14207   */\n      0x4e487b7100000000000000000000000000000000000000000000000000000000\n        /* \"#utility.yul\":14127:14128   */\n      0x00\n        /* \"#utility.yul\":14120:14208   */\n      mstore\n        /* \"#utility.yul\":14227:14231   */\n      0x41\n        /* \"#utility.yul\":14224:14225   */\n      0x04\n        /* \"#utility.yul\":14217:14232   */\n      mstore\n        /* \"#utility.yul\":14251:14255   */\n      0x24\n        /* \"#utility.yul\":14248:14249   */\n      0x00\n        /* \"#utility.yul\":14241:14256   */\n      revert\n        /* \"#utility.yul\":14268:14600   */\n    tag_272:\n        /* \"#utility.yul\":14389:14393   */\n      0x00\n        /* \"#utility.yul\":14427:14429   */\n      0x40\n        /* \"#utility.yul\":14416:14425   */\n      dup3\n        /* \"#utility.yul\":14412:14430   */\n      add\n        /* \"#utility.yul\":14404:14430   */\n      swap1\n      pop\n        /* \"#utility.yul\":14440:14511   */\n      tag_595\n        /* \"#utility.yul\":14508:14509   */\n      0x00\n        /* \"#utility.yul\":14497:14506   */\n      dup4\n        /* \"#utility.yul\":14493:14510   */\n      add\n        /* \"#utility.yul\":14484:14490   */\n      dup6\n        /* \"#utility.yul\":14440:14511   */\n      tag_415\n      jump\t// in\n    tag_595:\n        /* \"#utility.yul\":14521:14593   */\n      tag_596\n        /* \"#utility.yul\":14589:14591   */\n      0x20\n        /* \"#utility.yul\":14578:14587   */\n      dup4\n        /* \"#utility.yul\":14574:14592   */\n      add\n        /* \"#utility.yul\":14565:14571   */\n      dup5\n        /* \"#utility.yul\":14521:14593   */\n      tag_422\n      jump\t// in\n    tag_596:\n        /* \"#utility.yul\":14268:14600   */\n      swap4\n      swap3\n      pop\n      pop\n      pop\n      jump\t// out\n        /* \"#utility.yul\":14606:14749   */\n    tag_445:\n        /* \"#utility.yul\":14663:14668   */\n      0x00\n        /* \"#utility.yul\":14694:14700   */\n      dup2\n        /* \"#utility.yul\":14688:14701   */\n      mload\n        /* \"#utility.yul\":14679:14701   */\n      swap1\n      pop\n        /* \"#utility.yul\":14710:14743   */\n      tag_598\n        /* \"#utility.yul\":14737:14742   */\n      dup2\n        /* \"#utility.yul\":14710:14743   */\n      tag_420\n      jump\t// in\n    tag_598:\n        /* \"#utility.yul\":14606:14749   */\n      swap3\n      swap2\n      pop\n      pop\n      jump\t// out\n        /* \"#utility.yul\":14755:15106   */\n    tag_276:\n        /* \"#utility.yul\":14825:14831   */\n      0x00\n        /* \"#utility.yul\":14874:14876   */\n      0x20\n        /* \"#utility.yul\":14862:14871   */\n      dup3\n        /* \"#utility.yul\":14853:14860   */\n      dup5\n        /* \"#utility.yul\":14849:14872   */\n      sub\n        /* \"#utility.yul\":14845:14877   */\n      slt\n        /* \"#utility.yul\":14842:14961   */\n      iszero\n      tag_600\n      jumpi\n        /* \"#utility.yul\":14880:14959   */\n      tag_601\n      tag_417\n      jump\t// in\n    tag_601:\n        /* \"#utility.yul\":14842:14961   */\n    tag_600:\n        /* \"#utility.yul\":15000:15001   */\n      0x00\n        /* \"#utility.yul\":15025:15089   */\n      tag_602\n        /* \"#utility.yul\":15081:15088   */\n      dup5\n        /* \"#utility.yul\":15072:15078   */\n      dup3\n        /* \"#utility.yul\":15061:15070   */\n      dup6\n        /* \"#utility.yul\":15057:15079   */\n      add\n        /* \"#utility.yul\":15025:15089   */\n      tag_445\n      jump\t// in\n    tag_602:\n        /* \"#utility.yul\":15015:15089   */\n      swap2\n      pop\n        /* \"#utility.yul\":14971:15099   */\n      pop\n        /* \"#utility.yul\":14755:15106   */\n      swap3\n      swap2\n      pop\n      pop\n      jump\t// out\n        /* \"#utility.yul\":15112:15210   */\n    tag_446:\n        /* \"#utility.yul\":15163:15169   */\n      0x00\n        /* \"#utility.yul\":15197:15202   */\n      dup2\n        /* \"#utility.yul\":15191:15203   */\n      mload\n        /* \"#utility.yul\":15181:15203   */\n      swap1\n      pop\n        /* \"#utility.yul\":15112:15210   */\n      swap2\n      swap1\n      pop\n      jump\t// out\n        /* \"#utility.yul\":15216:15384   */\n    tag_447:\n        /* \"#utility.yul\":15299:15310   */\n      0x00\n        /* \"#utility.yul\":15333:15339   */\n      dup3\n        /* \"#utility.yul\":15328:15331   */\n      dup3\n        /* \"#utility.yul\":15321:15340   */\n      mstore\n        /* \"#utility.yul\":15373:15377   */\n      0x20\n        /* \"#utility.yul\":15368:15371   */\n      dup3\n        /* \"#utility.yul\":15364:15378   */\n      add\n        /* \"#utility.yul\":15349:15378   */\n      swap1\n      pop\n        /* \"#utility.yul\":15216:15384   */\n      swap3\n      swap2\n      pop\n      pop\n      jump\t// out\n        /* \"#utility.yul\":15390:15529   */\n    tag_448:\n        /* \"#utility.yul\":15479:15485   */\n      dup3\n        /* \"#utility.yul\":15474:15477   */\n      dup2\n        /* \"#utility.yul\":15469:15472   */\n      dup4\n        /* \"#utility.yul\":15463:15486   */\n      mcopy\n        /* \"#utility.yul\":15520:15521   */\n      0x00\n        /* \"#utility.yul\":15511:15517   */\n      dup4\n        /* \"#utility.yul\":15506:15509   */\n      dup4\n        /* \"#utility.yul\":15502:15518   */\n      add\n        /* \"#utility.yul\":15495:15522   */\n      mstore\n        /* \"#utility.yul\":15390:15529   */\n      pop\n      pop\n      pop\n      jump\t// out\n        /* \"#utility.yul\":15535:15637   */\n    tag_449:\n        /* \"#utility.yul\":15576:15582   */\n      0x00\n        /* \"#utility.yul\":15627:15629   */\n      0x1f\n        /* \"#utility.yul\":15623:15630   */\n      not\n        /* \"#utility.yul\":15618:15620   */\n      0x1f\n        /* \"#utility.yul\":15611:15616   */\n      dup4\n        /* \"#utility.yul\":15607:15621   */\n      add\n        /* \"#utility.yul\":15603:15631   */\n      and\n        /* \"#utility.yul\":15593:15631   */\n      swap1\n      pop\n        /* \"#utility.yul\":15535:15637   */\n      swap2\n      swap1\n      pop\n      jump\t// out\n        /* \"#utility.yul\":15643:16016   */\n    tag_450:\n        /* \"#utility.yul\":15729:15732   */\n      0x00\n        /* \"#utility.yul\":15757:15795   */\n      tag_608\n        /* \"#utility.yul\":15789:15794   */\n      dup3\n        /* \"#utility.yul\":15757:15795   */\n      tag_446\n      jump\t// in\n    tag_608:\n        /* \"#utility.yul\":15811:15881   */\n      tag_609\n        /* \"#utility.yul\":15874:15880   */\n      dup2\n        /* \"#utility.yul\":15869:15872   */\n      dup6\n        /* \"#utility.yul\":15811:15881   */\n      tag_447\n      jump\t// in\n    tag_609:\n        /* \"#utility.yul\":15804:15881   */\n      swap4\n      pop\n        /* \"#utility.yul\":15890:15955   */\n      tag_610\n        /* \"#utility.yul\":15948:15954   */\n      dup2\n        /* \"#utility.yul\":15943:15946   */\n      dup6\n        /* \"#utility.yul\":15936:15940   */\n      0x20\n        /* \"#utility.yul\":15929:15934   */\n      dup7\n        /* \"#utility.yul\":15925:15941   */\n      add\n        /* \"#utility.yul\":15890:15955   */\n      tag_448\n      jump\t// in\n    tag_610:\n        /* \"#utility.yul\":15980:16009   */\n      tag_611\n        /* \"#utility.yul\":16002:16008   */\n      dup2\n        /* \"#utility.yul\":15980:16009   */\n      tag_449\n      jump\t// in\n    tag_611:\n        /* \"#utility.yul\":15975:15978   */\n      dup5\n        /* \"#utility.yul\":15971:16010   */\n      add\n        /* \"#utility.yul\":15964:16010   */\n      swap2\n      pop\n        /* \"#utility.yul\":15733:16016   */\n      pop\n        /* \"#utility.yul\":15643:16016   */\n      swap3\n      swap2\n      pop\n      pop\n      jump\t// out\n        /* \"#utility.yul\":16022:16662   */\n    tag_278:\n        /* \"#utility.yul\":16217:16221   */\n      0x00\n        /* \"#utility.yul\":16255:16258   */\n      0x80\n        /* \"#utility.yul\":16244:16253   */\n      dup3\n        /* \"#utility.yul\":16240:16259   */\n      add\n        /* \"#utility.yul\":16232:16259   */\n      swap1\n      pop\n        /* \"#utility.yul\":16269:16340   */\n      tag_613\n        /* \"#utility.yul\":16337:16338   */\n      0x00\n        /* \"#utility.yul\":16326:16335   */\n      dup4\n        /* \"#utility.yul\":16322:16339   */\n      add\n        /* \"#utility.yul\":16313:16319   */\n      dup8\n        /* \"#utility.yul\":16269:16340   */\n      tag_415\n      jump\t// in\n    tag_613:\n        /* \"#utility.yul\":16350:16422   */\n      tag_614\n        /* \"#utility.yul\":16418:16420   */\n      0x20\n        /* \"#utility.yul\":16407:16416   */\n      dup4\n        /* \"#utility.yul\":16403:16421   */\n      add\n        /* \"#utility.yul\":16394:16400   */\n      dup7\n        /* \"#utility.yul\":16350:16422   */\n      tag_415\n      jump\t// in\n    tag_614:\n        /* \"#utility.yul\":16432:16504   */\n      tag_615\n        /* \"#utility.yul\":16500:16502   */\n      0x40\n        /* \"#utility.yul\":16489:16498   */\n      dup4\n        /* \"#utility.yul\":16485:16503   */\n      add\n        /* \"#utility.yul\":16476:16482   */\n      dup6\n        /* \"#utility.yul\":16432:16504   */\n      tag_422\n      jump\t// in\n    tag_615:\n        /* \"#utility.yul\":16551:16560   */\n      dup2\n        /* \"#utility.yul\":16545:16549   */\n      dup2\n        /* \"#utility.yul\":16541:16561   */\n      sub\n        /* \"#utility.yul\":16536:16538   */\n      0x60\n        /* \"#utility.yul\":16525:16534   */\n      dup4\n        /* \"#utility.yul\":16521:16539   */\n      add\n        /* \"#utility.yul\":16514:16562   */\n      mstore\n        /* \"#utility.yul\":16579:16655   */\n      tag_616\n        /* \"#utility.yul\":16650:16654   */\n      dup2\n        /* \"#utility.yul\":16641:16647   */\n      dup5\n        /* \"#utility.yul\":16579:16655   */\n      tag_450\n      jump\t// in\n    tag_616:\n        /* \"#utility.yul\":16571:16655   */\n      swap1\n      pop\n        /* \"#utility.yul\":16022:16662   */\n      swap6\n      swap5\n      pop\n      pop\n      pop\n      pop\n      pop\n      jump\t// out\n        /* \"#utility.yul\":16668:16901   */\n    tag_381:\n        /* \"#utility.yul\":16707:16710   */\n      0x00\n        /* \"#utility.yul\":16730:16754   */\n      tag_618\n        /* \"#utility.yul\":16748:16753   */\n      dup3\n        /* \"#utility.yul\":16730:16754   */\n      tag_419\n      jump\t// in\n    tag_618:\n        /* \"#utility.yul\":16721:16754   */\n      swap2\n      pop\n        /* \"#utility.yul\":16776:16842   */\n      0xffffffffffffffffffffffffffffffffffffffffffffffffffffffffffffffff\n        /* \"#utility.yul\":16769:16774   */\n      dup3\n        /* \"#utility.yul\":16766:16843   */\n      sub\n        /* \"#utility.yul\":16763:16866   */\n      tag_619\n      jumpi\n        /* \"#utility.yul\":16846:16864   */\n      tag_620\n      tag_436\n      jump\t// in\n    tag_620:\n        /* \"#utility.yul\":16763:16866   */\n    tag_619:\n        /* \"#utility.yul\":16893:16894   */\n      0x01\n        /* \"#utility.yul\":16886:16891   */\n      dup3\n        /* \"#utility.yul\":16882:16895   */\n      add\n        /* \"#utility.yul\":16875:16895   */\n      swap1\n      pop\n        /* \"#utility.yul\":16668:16901   */\n      swap2\n      swap1\n      pop\n      jump\t// out\n        /* \"#utility.yul\":16907:17087   */\n    tag_399:\n        /* \"#utility.yul\":16955:17032   */\n      0x4e487b7100000000000000000000000000000000000000000000000000000000\n        /* \"#utility.yul\":16952:16953   */\n      0x00\n        /* \"#utility.yul\":16945:17033   */\n      mstore\n        /* \"#utility.yul\":17052:17056   */\n      0x31\n        /* \"#utility.yul\":17049:17050   */\n      0x04\n        /* \"#utility.yul\":17042:17057   */\n      mstore\n        /* \"#utility.yul\":17076:17080   */\n      0x24\n        /* \"#utility.yul\":17073:17074   */\n      0x00\n        /* \"#utility.yul\":17066:17081   */\n      revert\n\n    auxdata: 0xa26469706673582212204759d29a9ba1d723b0b70037d50d6d114c342d82a9273a958e87d88c78d83aee64736f6c63430008190033\n}\n",
				"bytecode": {
					"linkReferences": {},
					"object": "6080604052348015600e575f80fd5b50335f806101000a81548173ffffffffffffffffffffffffffffffffffffffff021916908373ffffffffffffffffffffffffffffffffffffffff1602179055503360055f6101000a81548173ffffffffffffffffffffffffffffffffffffffff021916908373ffffffffffffffffffffffffffffffffffffffff160217905550612b888061009b5f395ff3fe608060405234801561000f575f80fd5b506004361061018c575f3560e01c80638e991592116100dc578063dcc9606f11610095578063e91a7ca61161006f578063e91a7ca614610452578063f2fde38b1461046e578063f56e9c661461048a578063fb5b82d0146104a65761018c565b8063dcc9606f146103ea578063dd81b5ae14610406578063e53442f0146104225761018c565b80638e991592146103205780638f32d59b1461033e57806398d5fdca1461035c578063c80f4e351461037a578063d212a69a146103b0578063db9fcd01146103ce5761018c565b8063491d0a56116101495780636cc62992116101235780636cc62992146102aa578063715018a6146102da5780637c0b8de2146102e45780638da5cb5b146103025761018c565b8063491d0a56146102525780634e36245d14610270578063678660fb1461028c5761018c565b806304bb60ce146101905780630a861f2a146101ae578063235b6ea1146101ca57806336171e0e146101e85780633bd11f571461020457806341796a1714610222575b5f80fd5b6101986104c2565b6040516101a591906122b1565b60405180910390f35b6101c860048036038101906101c39190612301565b6104e7565b005b6101d261081d565b6040516101df919061233b565b60405180910390f35b61020260048036038101906101fd919061237e565b610823565b005b61020c61087f565b604051610219919061233b565b60405180910390f35b61023c60048036038101906102379190612301565b610885565b604051610249919061245a565b60405180910390f35b61025a61089e565b60405161026791906122b1565b60405180910390f35b61028a60048036038101906102859190612301565b6108c3565b005b610294610a73565b6040516102a1919061233b565b60405180910390f35b6102c460048036038101906102bf919061249d565b610a79565b6040516102d1919061233b565b60405180910390f35b6102e2610a95565b005b6102ec610b48565b6040516102f991906122b1565b60405180910390f35b61030a610b6d565b60405161031791906122b1565b60405180910390f35b610328610b94565b60405161033591906122b1565b60405180910390f35b610346610bb9565b60405161035391906124d7565b60405180910390f35b610364610c0e565b604051610371919061233b565b60405180910390f35b610394600480360381019061038f9190612301565b610c1c565b6040516103a797969594939291906124f0565b60405180910390f35b6103b8610c94565b6040516103c5919061233b565b60405180910390f35b6103e860048036038101906103e3919061237e565b610c9a565b005b61040460048036038101906103ff9190612301565b610d2d565b005b610420600480360381019061041b9190612301565b610f00565b005b61043c6004803603810190610437919061255d565b611011565b604051610449919061245a565b60405180910390f35b61046c60048036038101906104679190612301565b61123c565b005b6104886004803603810190610483919061237e565b61148f565b005b6104a4600480360381019061049f919061237e565b6114ab565b005b6104c060048036038101906104bb919061237e565b61153e565b005b60025f9054906101000a900473ffffffffffffffffffffffffffffffffffffffff1681565b5f3390505f60085f8373ffffffffffffffffffffffffffffffffffffffff1673ffffffffffffffffffffffffffffffffffffffff1681526020019081526020015f2080548060200260200160405190810160405280929190818152602001828054801561057157602002820191905f5260205f20905b81548152602001906001019080831161055d575b50505050509050805183106105bb576040517f08c379a00000000000000000000000000000000000000000000000000000000081526004016105b2906125f5565b60405180910390fd5b5f8184815181106105cf576105ce612613565b5b602002602001015190505f600982815481106105ee576105ed612613565b5b905f5260205f2090600702016040518060e00160405290815f82015f9054906101000a900473ffffffffffffffffffffffffffffffffffffffff1673ffffffffffffffffffffffffffffffffffffffff1673ffffffffffffffffffffffffffffffffffffffff16815260200160018201548152602001600282015481526020016003820154815260200160048201548152602001600582015f9054906101000a900460ff1615151515815260200160068201548152505090505f816060015190505f826080015190505f81836106c4919061266d565b90505f83826106d391906126cd565b90505f83836106e291906126cd565b90505f60065f9054906101000a900473ffffffffffffffffffffffffffffffffffffffff1690505f600754848861071991906126cd565b61072391906126cd565b90505f838761073291906126cd565b90508273ffffffffffffffffffffffffffffffffffffffff1663c1d2d00d838e6040518363ffffffff1660e01b815260040161076f9291906126fd565b5f604051808303815f87803b158015610786575f80fd5b505af1158015610798573d5f803e3d5ffd5b505050508273ffffffffffffffffffffffffffffffffffffffff16638cda7bb4828e6040518363ffffffff1660e01b81526004016107d79291906126fd565b5f604051808303815f87803b1580156107ee575f80fd5b505af1158015610800573d5f803e3d5ffd5b5050505061080e898b611591565b50505050505050505050505050565b60075481565b61082b610bb9565b610833575f80fd5b8060065f6101000a81548173ffffffffffffffffffffffffffffffffffffffff021916908373ffffffffffffffffffffffffffffffffffffffff16021790555061087b6116ef565b5050565b600c5481565b61088d6121dc565b6108973383611011565b9050919050565b60065f9054906101000a900473ffffffffffffffffffffffffffffffffffffffff1681565b5f805f60085f3373ffffffffffffffffffffffffffffffffffffffff1673ffffffffffffffffffffffffffffffffffffffff1681526020019081526020015f2080548060200260200160405190810160405280929190818152602001828054801561094b57602002820191905f5260205f20905b815481526020019060010190808311610937575b505050505090505f60075490505f6109628661188e565b90505f8190505f805f80875190505b5f8111801561097f57505f85115b15610a24576001816109919190612724565b915060098883815181106109a8576109a7612613565b5b6020026020010151815481106109c1576109c0612613565b5b905f5260205f20906007020199506109d96001611a5f565b8094508195505050600983815481106109f5576109f4612613565b5b905f5260205f2090600702019850610a0f8a8a878a611bb5565b94508080610a1c90612757565b915050610971565b5f8514610a66576040517f08c379a0000000000000000000000000000000000000000000000000000000008152600401610a5d906127c8565b60405180910390fd5b5050505050505050505050565b600b5481565b5f8115610a8a57600e549050610a90565b600d5490505b919050565b610a9d610bb9565b610aa5575f80fd5b5f8054906101000a900473ffffffffffffffffffffffffffffffffffffffff1673ffffffffffffffffffffffffffffffffffffffff167ff8df31144d9c2f0f6b59d69b8b98abd5459d07f2742c4df920b25aae33c6482060405160405180910390a25f805f6101000a81548173ffffffffffffffffffffffffffffffffffffffff021916908373ffffffffffffffffffffffffffffffffffffffff160217905550565b60015f9054906101000a900473ffffffffffffffffffffffffffffffffffffffff1681565b5f805f9054906101000a900473ffffffffffffffffffffffffffffffffffffffff16905090565b60055f9054906101000a900473ffffffffffffffffffffffffffffffffffffffff1681565b5f805f9054906101000a900473ffffffffffffffffffffffffffffffffffffffff1673ffffffffffffffffffffffffffffffffffffffff163373ffffffffffffffffffffffffffffffffffffffff1614905090565b5f610c176116ef565b905090565b60098181548110610c2b575f80fd5b905f5260205f2090600702015f91509050805f015f9054906101000a900473ffffffffffffffffffffffffffffffffffffffff1690806001015490806002015490806003015490806004015490806005015f9054906101000a900460ff16908060060154905087565b600a5481565b610ca2610bb9565b610caa575f80fd5b8060025f6101000a81548173ffffffffffffffffffffffffffffffffffffffff021916908373ffffffffffffffffffffffffffffffffffffffff1602179055508060035f6101000a81548173ffffffffffffffffffffffffffffffffffffffff021916908373ffffffffffffffffffffffffffffffffffffffff16021790555050565b5f805f60085f3373ffffffffffffffffffffffffffffffffffffffff1673ffffffffffffffffffffffffffffffffffffffff1681526020019081526020015f20805480602002602001604051908101604052809291908181526020018280548015610db557602002820191905f5260205f20905b815481526020019060010190808311610da1575b505050505090505f60075490505f8186610dcf91906127e6565b9050610dda8161188e565b81610de59190612724565b90505f8282610df491906126cd565b90505f805f80875190505b5f81118015610e0d57505f85115b15610eb157600181610e1f9190612724565b91506009888381518110610e3657610e35612613565b5b602002602001015181548110610e4f57610e4e612613565b5b905f5260205f2090600702019950610e665f611a5f565b809450819550505060098381548110610e8257610e81612613565b5b905f5260205f2090600702019850610e9c8a8a878a611c45565b94508080610ea990612757565b915050610dff565b5f8514610ef3576040517f08c379a0000000000000000000000000000000000000000000000000000000008152600401610eea906127c8565b60405180910390fd5b5050505050505050505050565b5f60035f9054906101000a900473ffffffffffffffffffffffffffffffffffffffff1673ffffffffffffffffffffffffffffffffffffffff166323b872dd3360065f9054906101000a900473ffffffffffffffffffffffffffffffffffffffff16856040518463ffffffff1660e01b8152600401610f8093929190612827565b6020604051808303815f875af1158015610f9c573d5f803e3d5ffd5b505050506040513d601f19601f82011682018060405250810190610fc09190612870565b905080611002576040517f08c379a0000000000000000000000000000000000000000000000000000000008152600401610ff9906128e5565b60405180910390fd5b61100d826001611cd5565b5050565b6110196121dc565b5f60085f8573ffffffffffffffffffffffffffffffffffffffff1673ffffffffffffffffffffffffffffffffffffffff1681526020019081526020015f2080548060200260200160405190810160405280929190818152602001828054801561109f57602002820191905f5260205f20905b81548152602001906001019080831161108b575b50505050509050805183106110e9576040517f08c379a00000000000000000000000000000000000000000000000000000000081526004016110e0906125f5565b60405180910390fd5b5f8184815181106110fd576110fc612613565b5b602002602001015190505f6009828154811061111c5761111b612613565b5b905f5260205f2090600702016040518060e00160405290815f82015f9054906101000a900473ffffffffffffffffffffffffffffffffffffffff1673ffffffffffffffffffffffffffffffffffffffff1673ffffffffffffffffffffffffffffffffffffffff16815260200160018201548152602001600282015481526020016003820154815260200160048201548152602001600582015f9054906101000a900460ff1615151515815260200160068201548152505090506040518060c00160405280825f015173ffffffffffffffffffffffffffffffffffffffff168152602001826020015181526020018260400151815260200182606001518152602001826080015181526020018260a001511515815250935050505092915050565b5f73ffffffffffffffffffffffffffffffffffffffff1660065f9054906101000a900473ffffffffffffffffffffffffffffffffffffffff1673ffffffffffffffffffffffffffffffffffffffff16036112cb576040517f08c379a00000000000000000000000000000000000000000000000000000000081526004016112c290612973565b60405180910390fd5b5f805f67ffffffffffffffff8111156112e7576112e6612991565b5b6040519080825280601f01601f1916602001820160405280156113195781602001600182028036833780820191505090505b5090505f5b8381101561147e5760045f9054906101000a900473ffffffffffffffffffffffffffffffffffffffff1673ffffffffffffffffffffffffffffffffffffffff16632f745c5933836040518363ffffffff1660e01b81526004016113829291906129be565b602060405180830381865afa15801561139d573d5f803e3d5ffd5b505050506040513d601f19601f820116820180604052508101906113c191906129f9565b925060045f9054906101000a900473ffffffffffffffffffffffffffffffffffffffff1673ffffffffffffffffffffffffffffffffffffffff1663b88d4fde3360065f9054906101000a900473ffffffffffffffffffffffffffffffffffffffff1686866040518563ffffffff1660e01b81526004016114449493929190612a94565b5f604051808303815f87803b15801561145b575f80fd5b505af115801561146d573d5f803e3d5ffd5b50505050808060010191505061131e565b5061148a836001611cd5565b505050565b611497610bb9565b61149f575f80fd5b6114a881611ead565b50565b6114b3610bb9565b6114bb575f80fd5b8060015f6101000a81548173ffffffffffffffffffffffffffffffffffffffff021916908373ffffffffffffffffffffffffffffffffffffffff1602179055508060045f6101000a81548173ffffffffffffffffffffffffffffffffffffffff021916908373ffffffffffffffffffffffffffffffffffffffff16021790555050565b611546610bb9565b61154e575f80fd5b8060055f6101000a81548173ffffffffffffffffffffffffffffffffffffffff021916908373ffffffffffffffffffffffffffffffffffffffff16021790555050565b5f8260c0015190505f8060085f3373ffffffffffffffffffffffffffffffffffffffff1673ffffffffffffffffffffffffffffffffffffffff1681526020019081526020015f2090506115e48184611f9f565b156116305760098184815481106115fe576115fd612613565b5b905f5260205f2001548154811061161857611617612613565b5b905f5260205f20906007020191508282600601819055505b61163b60098561202b565b156116e8576009848154811061165457611653612613565b5b905f5260205f2090600702019150816006015492508360085f845f015f9054906101000a900473ffffffffffffffffffffffffffffffffffffffff1673ffffffffffffffffffffffffffffffffffffffff1673ffffffffffffffffffffffffffffffffffffffff1681526020019081526020015f2084815481106116db576116da612613565b5b905f5260205f2001819055505b5050505050565b5f8060035f9054906101000a900473ffffffffffffffffffffffffffffffffffffffff1673ffffffffffffffffffffffffffffffffffffffff166370a0823160065f9054906101000a900473ffffffffffffffffffffffffffffffffffffffff166040518263ffffffff1660e01b815260040161176c91906122b1565b602060405180830381865afa158015611787573d5f803e3d5ffd5b505050506040513d601f19601f820116820180604052508101906117ab91906129f9565b90505f60045f9054906101000a900473ffffffffffffffffffffffffffffffffffffffff1673ffffffffffffffffffffffffffffffffffffffff166370a0823160065f9054906101000a900473ffffffffffffffffffffffffffffffffffffffff166040518263ffffffff1660e01b815260040161182991906122b1565b602060405180830381865afa158015611844573d5f803e3d5ffd5b505050506040513d601f19601f8201168201806040525081019061186891906129f9565b90505f811461188457808261187d91906126cd565b6007819055505b6007549250505090565b5f806127106005846118a091906127e6565b6118aa91906126cd565b90505f6005826118ba91906126cd565b90505f81836118c99190612724565b90505f60035f9054906101000a900473ffffffffffffffffffffffffffffffffffffffff1673ffffffffffffffffffffffffffffffffffffffff1663a9059cbb60055f9054906101000a900473ffffffffffffffffffffffffffffffffffffffff16856040518363ffffffff1660e01b81526004016119499291906129be565b6020604051808303815f875af1158015611965573d5f803e3d5ffd5b505050506040513d601f19601f820116820180604052508101906119899190612870565b905080611994575f80fd5b60035f9054906101000a900473ffffffffffffffffffffffffffffffffffffffff1673ffffffffffffffffffffffffffffffffffffffff1663a9059cbb30846040518363ffffffff1660e01b81526004016119f09291906129be565b6020604051808303815f875af1158015611a0c573d5f803e3d5ffd5b505050506040513d601f19601f82011682018060405250810190611a309190612870565b905080611a3b575f80fd5b81600a5f828254611a4c919061266d565b9250508190555083945050505050919050565b5f80611a69612224565b5f60098054905090505b5f81118015611a80575083155b15611bae57600181611a929190612724565b925060098381548110611aa857611aa7612613565b5b905f5260205f2090600702016040518060e00160405290815f82015f9054906101000a900473ffffffffffffffffffffffffffffffffffffffff1673ffffffffffffffffffffffffffffffffffffffff1673ffffffffffffffffffffffffffffffffffffffff16815260200160018201548152602001600282015481526020016003820154815260200160048201548152602001600582015f9054906101000a900460ff16151515158152602001600682015481525050915084158015611b7257505f8260800151115b15611b805760019350611b9b565b848015611b9057505f8260600151115b15611b9a57600193505b5b8080611ba690612757565b915050611a73565b5050915091565b5f80856004015490505f84821115611bcd5784611bcf565b815b905080876004015f828254611be49190612724565b925050819055508085611bf79190612724565b94508381611c0591906126cd565b876003015f828254611c17919061266d565b9250508190555080866004015f828254611c31919061266d565b925050819055508492505050949350505050565b5f8083866003015411611c5e5785600301549050611c62565b8390505b80866003015f828254611c759190612724565b925050819055508084611c889190612724565b93508281611c9691906127e6565b866004015f828254611ca8919061266d565b9250508190555080856003015f828254611cc2919061266d565b9250508190555083915050949350505050565b5f60085f3373ffffffffffffffffffffffffffffffffffffffff1673ffffffffffffffffffffffffffffffffffffffff1681526020019081526020015f2090505f818054905090505f808415611d2d57859150611d31565b8590505b5f6040518060e001604052803373ffffffffffffffffffffffffffffffffffffffff16815260200142815260200160075481526020018481526020018381526020015f15158152602001868054905081525090508515611da757600d5f815480929190611d9d90612ade565b9190505550611dbf565b600e5f815480929190611db990612ade565b91905055505b600981908060018154018082558091505060019003905f5260205f2090600702015f909190919091505f820151815f015f6101000a81548173ffffffffffffffffffffffffffffffffffffffff021916908373ffffffffffffffffffffffffffffffffffffffff1602179055506020820151816001015560408201518160020155606082015181600301556080820151816004015560a0820151816005015f6101000a81548160ff02191690831515021790555060c0820151816006015550508484908060018154018082558091505060019003905f5260205f20015f909190919091505550505050505050565b5f73ffffffffffffffffffffffffffffffffffffffff168173ffffffffffffffffffffffffffffffffffffffff1603611ee4575f80fd5b8073ffffffffffffffffffffffffffffffffffffffff165f8054906101000a900473ffffffffffffffffffffffffffffffffffffffff1673ffffffffffffffffffffffffffffffffffffffff167f8be0079c531659141344cd1fd0a4f28419497f9722a3daafe3b4186f6b6457e060405160405180910390a3805f806101000a81548173ffffffffffffffffffffffffffffffffffffffff021916908373ffffffffffffffffffffffffffffffffffffffff16021790555050565b5f8060018480549050611fb29190612724565b90505f818414905080611ffb57848281548110611fd257611fd1612613565b5b905f5260205f200154858581548110611fee57611fed612613565b5b905f5260205f2001819055505b8480548061200c5761200b612b25565b5b600190038181905f5260205f20015f9055905580159250505092915050565b5f806001848054905061203e9190612724565b90505f81841490508061214d5784828154811061205e5761205d612613565b5b905f5260205f20906007020185858154811061207d5761207c612613565b5b905f5260205f2090600702015f82015f9054906101000a900473ffffffffffffffffffffffffffffffffffffffff16815f015f6101000a81548173ffffffffffffffffffffffffffffffffffffffff021916908373ffffffffffffffffffffffffffffffffffffffff16021790555060018201548160010155600282015481600201556003820154816003015560048201548160040155600582015f9054906101000a900460ff16816005015f6101000a81548160ff021916908315150217905550600682015481600601559050505b8480548061215e5761215d612b25565b5b600190038181905f5260205f2090600702015f8082015f6101000a81549073ffffffffffffffffffffffffffffffffffffffff0219169055600182015f9055600282015f9055600382015f9055600482015f9055600582015f6101000a81549060ff0219169055600682015f90555050905580159250505092915050565b6040518060c001604052805f73ffffffffffffffffffffffffffffffffffffffff1681526020015f81526020015f81526020015f81526020015f81526020015f151581525090565b6040518060e001604052805f73ffffffffffffffffffffffffffffffffffffffff1681526020015f81526020015f81526020015f81526020015f81526020015f151581526020015f81525090565b5f73ffffffffffffffffffffffffffffffffffffffff82169050919050565b5f61229b82612272565b9050919050565b6122ab81612291565b82525050565b5f6020820190506122c45f8301846122a2565b92915050565b5f80fd5b5f819050919050565b6122e0816122ce565b81146122ea575f80fd5b50565b5f813590506122fb816122d7565b92915050565b5f60208284031215612316576123156122ca565b5b5f612323848285016122ed565b91505092915050565b612335816122ce565b82525050565b5f60208201905061234e5f83018461232c565b92915050565b61235d81612291565b8114612367575f80fd5b50565b5f8135905061237881612354565b92915050565b5f60208284031215612393576123926122ca565b5b5f6123a08482850161236a565b91505092915050565b6123b281612291565b82525050565b6123c1816122ce565b82525050565b5f8115159050919050565b6123db816123c7565b82525050565b60c082015f8201516123f55f8501826123a9565b50602082015161240860208501826123b8565b50604082015161241b60408501826123b8565b50606082015161242e60608501826123b8565b50608082015161244160808501826123b8565b5060a082015161245460a08501826123d2565b50505050565b5f60c08201905061246d5f8301846123e1565b92915050565b61247c816123c7565b8114612486575f80fd5b50565b5f8135905061249781612473565b92915050565b5f602082840312156124b2576124b16122ca565b5b5f6124bf84828501612489565b91505092915050565b6124d1816123c7565b82525050565b5f6020820190506124ea5f8301846124c8565b92915050565b5f60e0820190506125035f83018a6122a2565b612510602083018961232c565b61251d604083018861232c565b61252a606083018761232c565b612537608083018661232c565b61254460a08301856124c8565b61255160c083018461232c565b98975050505050505050565b5f8060408385031215612573576125726122ca565b5b5f6125808582860161236a565b9250506020612591858286016122ed565b9150509250929050565b5f82825260208201905092915050565b7f496e646578206f7574206f662072616e676500000000000000000000000000005f82015250565b5f6125df60128361259b565b91506125ea826125ab565b602082019050919050565b5f6020820190508181035f83015261260c816125d3565b9050919050565b7f4e487b71000000000000000000000000000000000000000000000000000000005f52603260045260245ffd5b7f4e487b71000000000000000000000000000000000000000000000000000000005f52601160045260245ffd5b5f612677826122ce565b9150612682836122ce565b925082820190508082111561269a57612699612640565b5b92915050565b7f4e487b71000000000000000000000000000000000000000000000000000000005f52601260045260245ffd5b5f6126d7826122ce565b91506126e2836122ce565b9250826126f2576126f16126a0565b5b828204905092915050565b5f6040820190506127105f83018561232c565b61271d60208301846122a2565b9392505050565b5f61272e826122ce565b9150612739836122ce565b925082820390508181111561275157612750612640565b5b92915050565b5f612761826122ce565b91505f820361277357612772612640565b5b600182039050919050565b7f496e73756666696369656e74206c6971756964697479000000000000000000005f82015250565b5f6127b260168361259b565b91506127bd8261277e565b602082019050919050565b5f6020820190508181035f8301526127df816127a6565b9050919050565b5f6127f0826122ce565b91506127fb836122ce565b9250828202612809816122ce565b915082820484148315176128205761281f612640565b5b5092915050565b5f60608201905061283a5f8301866122a2565b61284760208301856122a2565b612854604083018461232c565b949350505050565b5f8151905061286a81612473565b92915050565b5f60208284031215612885576128846122ca565b5b5f6128928482850161285c565b91505092915050565b7f5472616e73666572206661696c656400000000000000000000000000000000005f82015250565b5f6128cf600f8361259b565b91506128da8261289b565b602082019050919050565b5f6020820190508181035f8301526128fc816128c3565b9050919050565b7f4c697175696469747920616464726573732069732079657420746f20626520615f8201527f737369676e656400000000000000000000000000000000000000000000000000602082015250565b5f61295d60278361259b565b915061296882612903565b604082019050919050565b5f6020820190508181035f83015261298a81612951565b9050919050565b7f4e487b71000000000000000000000000000000000000000000000000000000005f52604160045260245ffd5b5f6040820190506129d15f8301856122a2565b6129de602083018461232c565b9392505050565b5f815190506129f3816122d7565b92915050565b5f60208284031215612a0e57612a0d6122ca565b5b5f612a1b848285016129e5565b91505092915050565b5f81519050919050565b5f82825260208201905092915050565b8281835e5f83830152505050565b5f601f19601f8301169050919050565b5f612a6682612a24565b612a708185612a2e565b9350612a80818560208601612a3e565b612a8981612a4c565b840191505092915050565b5f608082019050612aa75f8301876122a2565b612ab460208301866122a2565b612ac1604083018561232c565b8181036060830152612ad38184612a5c565b905095945050505050565b5f612ae8826122ce565b91507fffffffffffffffffffffffffffffffffffffffffffffffffffffffffffffffff8203612b1a57612b19612640565b5b600182019050919050565b7f4e487b71000000000000000000000000000000000000000000000000000000005f52603160045260245ffdfea26469706673582212204759d29a9ba1d723b0b70037d50d6d114c342d82a9273a958e87d88c78d83aee64736f6c63430008190033",
					"opcodes": "PUSH1 0x80 PUSH1 0x40 MSTORE CALLVALUE DUP1 ISZERO PUSH1 0xE JUMPI PUSH0 DUP1 REVERT JUMPDEST POP CALLER PUSH0 DUP1 PUSH2 0x100 EXP DUP2 SLOAD DUP2 PUSH20 0xFFFFFFFFFFFFFFFFFFFFFFFFFFFFFFFFFFFFFFFF MUL NOT AND SWAP1 DUP4 PUSH20 0xFFFFFFFFFFFFFFFFFFFFFFFFFFFFFFFFFFFFFFFF AND MUL OR SWAP1 SSTORE POP CALLER PUSH1 0x5 PUSH0 PUSH2 0x100 EXP DUP2 SLOAD DUP2 PUSH20 0xFFFFFFFFFFFFFFFFFFFFFFFFFFFFFFFFFFFFFFFF MUL NOT AND SWAP1 DUP4 PUSH20 0xFFFFFFFFFFFFFFFFFFFFFFFFFFFFFFFFFFFFFFFF AND MUL OR SWAP1 SSTORE POP PUSH2 0x2B88 DUP1 PUSH2 0x9B PUSH0 CODECOPY PUSH0 RETURN INVALID PUSH1 0x80 PUSH1 0x40 MSTORE CALLVALUE DUP1 ISZERO PUSH2 0xF JUMPI PUSH0 DUP1 REVERT JUMPDEST POP PUSH1 0x4 CALLDATASIZE LT PUSH2 0x18C JUMPI PUSH0 CALLDATALOAD PUSH1 0xE0 SHR DUP1 PUSH4 0x8E991592 GT PUSH2 0xDC JUMPI DUP1 PUSH4 0xDCC9606F GT PUSH2 0x95 JUMPI DUP1 PUSH4 0xE91A7CA6 GT PUSH2 0x6F JUMPI DUP1 PUSH4 0xE91A7CA6 EQ PUSH2 0x452 JUMPI DUP1 PUSH4 0xF2FDE38B EQ PUSH2 0x46E JUMPI DUP1 PUSH4 0xF56E9C66 EQ PUSH2 0x48A JUMPI DUP1 PUSH4 0xFB5B82D0 EQ PUSH2 0x4A6 JUMPI PUSH2 0x18C JUMP JUMPDEST DUP1 PUSH4 0xDCC9606F EQ PUSH2 0x3EA JUMPI DUP1 PUSH4 0xDD81B5AE EQ PUSH2 0x406 JUMPI DUP1 PUSH4 0xE53442F0 EQ PUSH2 0x422 JUMPI PUSH2 0x18C JUMP JUMPDEST DUP1 PUSH4 0x8E991592 EQ PUSH2 0x320 JUMPI DUP1 PUSH4 0x8F32D59B EQ PUSH2 0x33E JUMPI DUP1 PUSH4 0x98D5FDCA EQ PUSH2 0x35C JUMPI DUP1 PUSH4 0xC80F4E35 EQ PUSH2 0x37A JUMPI DUP1 PUSH4 0xD212A69A EQ PUSH2 0x3B0 JUMPI DUP1 PUSH4 0xDB9FCD01 EQ PUSH2 0x3CE JUMPI PUSH2 0x18C JUMP JUMPDEST DUP1 PUSH4 0x491D0A56 GT PUSH2 0x149 JUMPI DUP1 PUSH4 0x6CC62992 GT PUSH2 0x123 JUMPI DUP1 PUSH4 0x6CC62992 EQ PUSH2 0x2AA JUMPI DUP1 PUSH4 0x715018A6 EQ PUSH2 0x2DA JUMPI DUP1 PUSH4 0x7C0B8DE2 EQ PUSH2 0x2E4 JUMPI DUP1 PUSH4 0x8DA5CB5B EQ PUSH2 0x302 JUMPI PUSH2 0x18C JUMP JUMPDEST DUP1 PUSH4 0x491D0A56 EQ PUSH2 0x252 JUMPI DUP1 PUSH4 0x4E36245D EQ PUSH2 0x270 JUMPI DUP1 PUSH4 0x678660FB EQ PUSH2 0x28C JUMPI PUSH2 0x18C JUMP JUMPDEST DUP1 PUSH4 0x4BB60CE EQ PUSH2 0x190 JUMPI DUP1 PUSH4 0xA861F2A EQ PUSH2 0x1AE JUMPI DUP1 PUSH4 0x235B6EA1 EQ PUSH2 0x1CA JUMPI DUP1 PUSH4 0x36171E0E EQ PUSH2 0x1E8 JUMPI DUP1 PUSH4 0x3BD11F57 EQ PUSH2 0x204 JUMPI DUP1 PUSH4 0x41796A17 EQ PUSH2 0x222 JUMPI JUMPDEST PUSH0 DUP1 REVERT JUMPDEST PUSH2 0x198 PUSH2 0x4C2 JUMP JUMPDEST PUSH1 0x40 MLOAD PUSH2 0x1A5 SWAP2 SWAP1 PUSH2 0x22B1 JUMP JUMPDEST PUSH1 0x40 MLOAD DUP1 SWAP2 SUB SWAP1 RETURN JUMPDEST PUSH2 0x1C8 PUSH1 0x4 DUP1 CALLDATASIZE SUB DUP2 ADD SWAP1 PUSH2 0x1C3 SWAP2 SWAP1 PUSH2 0x2301 JUMP JUMPDEST PUSH2 0x4E7 JUMP JUMPDEST STOP JUMPDEST PUSH2 0x1D2 PUSH2 0x81D JUMP JUMPDEST PUSH1 0x40 MLOAD PUSH2 0x1DF SWAP2 SWAP1 PUSH2 0x233B JUMP JUMPDEST PUSH1 0x40 MLOAD DUP1 SWAP2 SUB SWAP1 RETURN JUMPDEST PUSH2 0x202 PUSH1 0x4 DUP1 CALLDATASIZE SUB DUP2 ADD SWAP1 PUSH2 0x1FD SWAP2 SWAP1 PUSH2 0x237E JUMP JUMPDEST PUSH2 0x823 JUMP JUMPDEST STOP JUMPDEST PUSH2 0x20C PUSH2 0x87F JUMP JUMPDEST PUSH1 0x40 MLOAD PUSH2 0x219 SWAP2 SWAP1 PUSH2 0x233B JUMP JUMPDEST PUSH1 0x40 MLOAD DUP1 SWAP2 SUB SWAP1 RETURN JUMPDEST PUSH2 0x23C PUSH1 0x4 DUP1 CALLDATASIZE SUB DUP2 ADD SWAP1 PUSH2 0x237 SWAP2 SWAP1 PUSH2 0x2301 JUMP JUMPDEST PUSH2 0x885 JUMP JUMPDEST PUSH1 0x40 MLOAD PUSH2 0x249 SWAP2 SWAP1 PUSH2 0x245A JUMP JUMPDEST PUSH1 0x40 MLOAD DUP1 SWAP2 SUB SWAP1 RETURN JUMPDEST PUSH2 0x25A PUSH2 0x89E JUMP JUMPDEST PUSH1 0x40 MLOAD PUSH2 0x267 SWAP2 SWAP1 PUSH2 0x22B1 JUMP JUMPDEST PUSH1 0x40 MLOAD DUP1 SWAP2 SUB SWAP1 RETURN JUMPDEST PUSH2 0x28A PUSH1 0x4 DUP1 CALLDATASIZE SUB DUP2 ADD SWAP1 PUSH2 0x285 SWAP2 SWAP1 PUSH2 0x2301 JUMP JUMPDEST PUSH2 0x8C3 JUMP JUMPDEST STOP JUMPDEST PUSH2 0x294 PUSH2 0xA73 JUMP JUMPDEST PUSH1 0x40 MLOAD PUSH2 0x2A1 SWAP2 SWAP1 PUSH2 0x233B JUMP JUMPDEST PUSH1 0x40 MLOAD DUP1 SWAP2 SUB SWAP1 RETURN JUMPDEST PUSH2 0x2C4 PUSH1 0x4 DUP1 CALLDATASIZE SUB DUP2 ADD SWAP1 PUSH2 0x2BF SWAP2 SWAP1 PUSH2 0x249D JUMP JUMPDEST PUSH2 0xA79 JUMP JUMPDEST PUSH1 0x40 MLOAD PUSH2 0x2D1 SWAP2 SWAP1 PUSH2 0x233B JUMP JUMPDEST PUSH1 0x40 MLOAD DUP1 SWAP2 SUB SWAP1 RETURN JUMPDEST PUSH2 0x2E2 PUSH2 0xA95 JUMP JUMPDEST STOP JUMPDEST PUSH2 0x2EC PUSH2 0xB48 JUMP JUMPDEST PUSH1 0x40 MLOAD PUSH2 0x2F9 SWAP2 SWAP1 PUSH2 0x22B1 JUMP JUMPDEST PUSH1 0x40 MLOAD DUP1 SWAP2 SUB SWAP1 RETURN JUMPDEST PUSH2 0x30A PUSH2 0xB6D JUMP JUMPDEST PUSH1 0x40 MLOAD PUSH2 0x317 SWAP2 SWAP1 PUSH2 0x22B1 JUMP JUMPDEST PUSH1 0x40 MLOAD DUP1 SWAP2 SUB SWAP1 RETURN JUMPDEST PUSH2 0x328 PUSH2 0xB94 JUMP JUMPDEST PUSH1 0x40 MLOAD PUSH2 0x335 SWAP2 SWAP1 PUSH2 0x22B1 JUMP JUMPDEST PUSH1 0x40 MLOAD DUP1 SWAP2 SUB SWAP1 RETURN JUMPDEST PUSH2 0x346 PUSH2 0xBB9 JUMP JUMPDEST PUSH1 0x40 MLOAD PUSH2 0x353 SWAP2 SWAP1 PUSH2 0x24D7 JUMP JUMPDEST PUSH1 0x40 MLOAD DUP1 SWAP2 SUB SWAP1 RETURN JUMPDEST PUSH2 0x364 PUSH2 0xC0E JUMP JUMPDEST PUSH1 0x40 MLOAD PUSH2 0x371 SWAP2 SWAP1 PUSH2 0x233B JUMP JUMPDEST PUSH1 0x40 MLOAD DUP1 SWAP2 SUB SWAP1 RETURN JUMPDEST PUSH2 0x394 PUSH1 0x4 DUP1 CALLDATASIZE SUB DUP2 ADD SWAP1 PUSH2 0x38F SWAP2 SWAP1 PUSH2 0x2301 JUMP JUMPDEST PUSH2 0xC1C JUMP JUMPDEST PUSH1 0x40 MLOAD PUSH2 0x3A7 SWAP8 SWAP7 SWAP6 SWAP5 SWAP4 SWAP3 SWAP2 SWAP1 PUSH2 0x24F0 JUMP JUMPDEST PUSH1 0x40 MLOAD DUP1 SWAP2 SUB SWAP1 RETURN JUMPDEST PUSH2 0x3B8 PUSH2 0xC94 JUMP JUMPDEST PUSH1 0x40 MLOAD PUSH2 0x3C5 SWAP2 SWAP1 PUSH2 0x233B JUMP JUMPDEST PUSH1 0x40 MLOAD DUP1 SWAP2 SUB SWAP1 RETURN JUMPDEST PUSH2 0x3E8 PUSH1 0x4 DUP1 CALLDATASIZE SUB DUP2 ADD SWAP1 PUSH2 0x3E3 SWAP2 SWAP1 PUSH2 0x237E JUMP JUMPDEST PUSH2 0xC9A JUMP JUMPDEST STOP JUMPDEST PUSH2 0x404 PUSH1 0x4 DUP1 CALLDATASIZE SUB DUP2 ADD SWAP1 PUSH2 0x3FF SWAP2 SWAP1 PUSH2 0x2301 JUMP JUMPDEST PUSH2 0xD2D JUMP JUMPDEST STOP JUMPDEST PUSH2 0x420 PUSH1 0x4 DUP1 CALLDATASIZE SUB DUP2 ADD SWAP1 PUSH2 0x41B SWAP2 SWAP1 PUSH2 0x2301 JUMP JUMPDEST PUSH2 0xF00 JUMP JUMPDEST STOP JUMPDEST PUSH2 0x43C PUSH1 0x4 DUP1 CALLDATASIZE SUB DUP2 ADD SWAP1 PUSH2 0x437 SWAP2 SWAP1 PUSH2 0x255D JUMP JUMPDEST PUSH2 0x1011 JUMP JUMPDEST PUSH1 0x40 MLOAD PUSH2 0x449 SWAP2 SWAP1 PUSH2 0x245A JUMP JUMPDEST PUSH1 0x40 MLOAD DUP1 SWAP2 SUB SWAP1 RETURN JUMPDEST PUSH2 0x46C PUSH1 0x4 DUP1 CALLDATASIZE SUB DUP2 ADD SWAP1 PUSH2 0x467 SWAP2 SWAP1 PUSH2 0x2301 JUMP JUMPDEST PUSH2 0x123C JUMP JUMPDEST STOP JUMPDEST PUSH2 0x488 PUSH1 0x4 DUP1 CALLDATASIZE SUB DUP2 ADD SWAP1 PUSH2 0x483 SWAP2 SWAP1 PUSH2 0x237E JUMP JUMPDEST PUSH2 0x148F JUMP JUMPDEST STOP JUMPDEST PUSH2 0x4A4 PUSH1 0x4 DUP1 CALLDATASIZE SUB DUP2 ADD SWAP1 PUSH2 0x49F SWAP2 SWAP1 PUSH2 0x237E JUMP JUMPDEST PUSH2 0x14AB JUMP JUMPDEST STOP JUMPDEST PUSH2 0x4C0 PUSH1 0x4 DUP1 CALLDATASIZE SUB DUP2 ADD SWAP1 PUSH2 0x4BB SWAP2 SWAP1 PUSH2 0x237E JUMP JUMPDEST PUSH2 0x153E JUMP JUMPDEST STOP JUMPDEST PUSH1 0x2 PUSH0 SWAP1 SLOAD SWAP1 PUSH2 0x100 EXP SWAP1 DIV PUSH20 0xFFFFFFFFFFFFFFFFFFFFFFFFFFFFFFFFFFFFFFFF AND DUP2 JUMP JUMPDEST PUSH0 CALLER SWAP1 POP PUSH0 PUSH1 0x8 PUSH0 DUP4 PUSH20 0xFFFFFFFFFFFFFFFFFFFFFFFFFFFFFFFFFFFFFFFF AND PUSH20 0xFFFFFFFFFFFFFFFFFFFFFFFFFFFFFFFFFFFFFFFF AND DUP2 MSTORE PUSH1 0x20 ADD SWAP1 DUP2 MSTORE PUSH1 0x20 ADD PUSH0 KECCAK256 DUP1 SLOAD DUP1 PUSH1 0x20 MUL PUSH1 0x20 ADD PUSH1 0x40 MLOAD SWAP1 DUP2 ADD PUSH1 0x40 MSTORE DUP1 SWAP3 SWAP2 SWAP1 DUP2 DUP2 MSTORE PUSH1 0x20 ADD DUP3 DUP1 SLOAD DUP1 ISZERO PUSH2 0x571 JUMPI PUSH1 0x20 MUL DUP3 ADD SWAP2 SWAP1 PUSH0 MSTORE PUSH1 0x20 PUSH0 KECCAK256 SWAP1 JUMPDEST DUP2 SLOAD DUP2 MSTORE PUSH1 0x20 ADD SWAP1 PUSH1 0x1 ADD SWAP1 DUP1 DUP4 GT PUSH2 0x55D JUMPI JUMPDEST POP POP POP POP POP SWAP1 POP DUP1 MLOAD DUP4 LT PUSH2 0x5BB JUMPI PUSH1 0x40 MLOAD PUSH32 0x8C379A000000000000000000000000000000000000000000000000000000000 DUP2 MSTORE PUSH1 0x4 ADD PUSH2 0x5B2 SWAP1 PUSH2 0x25F5 JUMP JUMPDEST PUSH1 0x40 MLOAD DUP1 SWAP2 SUB SWAP1 REVERT JUMPDEST PUSH0 DUP2 DUP5 DUP2 MLOAD DUP2 LT PUSH2 0x5CF JUMPI PUSH2 0x5CE PUSH2 0x2613 JUMP JUMPDEST JUMPDEST PUSH1 0x20 MUL PUSH1 0x20 ADD ADD MLOAD SWAP1 POP PUSH0 PUSH1 0x9 DUP3 DUP2 SLOAD DUP2 LT PUSH2 0x5EE JUMPI PUSH2 0x5ED PUSH2 0x2613 JUMP JUMPDEST JUMPDEST SWAP1 PUSH0 MSTORE PUSH1 0x20 PUSH0 KECCAK256 SWAP1 PUSH1 0x7 MUL ADD PUSH1 0x40 MLOAD DUP1 PUSH1 0xE0 ADD PUSH1 0x40 MSTORE SWAP1 DUP2 PUSH0 DUP3 ADD PUSH0 SWAP1 SLOAD SWAP1 PUSH2 0x100 EXP SWAP1 DIV PUSH20 0xFFFFFFFFFFFFFFFFFFFFFFFFFFFFFFFFFFFFFFFF AND PUSH20 0xFFFFFFFFFFFFFFFFFFFFFFFFFFFFFFFFFFFFFFFF AND PUSH20 0xFFFFFFFFFFFFFFFFFFFFFFFFFFFFFFFFFFFFFFFF AND DUP2 MSTORE PUSH1 0x20 ADD PUSH1 0x1 DUP3 ADD SLOAD DUP2 MSTORE PUSH1 0x20 ADD PUSH1 0x2 DUP3 ADD SLOAD DUP2 MSTORE PUSH1 0x20 ADD PUSH1 0x3 DUP3 ADD SLOAD DUP2 MSTORE PUSH1 0x20 ADD PUSH1 0x4 DUP3 ADD SLOAD DUP2 MSTORE PUSH1 0x20 ADD PUSH1 0x5 DUP3 ADD PUSH0 SWAP1 SLOAD SWAP1 PUSH2 0x100 EXP SWAP1 DIV PUSH1 0xFF AND ISZERO ISZERO ISZERO ISZERO DUP2 MSTORE PUSH1 0x20 ADD PUSH1 0x6 DUP3 ADD SLOAD DUP2 MSTORE POP POP SWAP1 POP PUSH0 DUP2 PUSH1 0x60 ADD MLOAD SWAP1 POP PUSH0 DUP3 PUSH1 0x80 ADD MLOAD SWAP1 POP PUSH0 DUP2 DUP4 PUSH2 0x6C4 SWAP2 SWAP1 PUSH2 0x266D JUMP JUMPDEST SWAP1 POP PUSH0 DUP4 DUP3 PUSH2 0x6D3 SWAP2 SWAP1 PUSH2 0x26CD JUMP JUMPDEST SWAP1 POP PUSH0 DUP4 DUP4 PUSH2 0x6E2 SWAP2 SWAP1 PUSH2 0x26CD JUMP JUMPDEST SWAP1 POP PUSH0 PUSH1 0x6 PUSH0 SWAP1 SLOAD SWAP1 PUSH2 0x100 EXP SWAP1 DIV PUSH20 0xFFFFFFFFFFFFFFFFFFFFFFFFFFFFFFFFFFFFFFFF AND SWAP1 POP PUSH0 PUSH1 0x7 SLOAD DUP5 DUP9 PUSH2 0x719 SWAP2 SWAP1 PUSH2 0x26CD JUMP JUMPDEST PUSH2 0x723 SWAP2 SWAP1 PUSH2 0x26CD JUMP JUMPDEST SWAP1 POP PUSH0 DUP4 DUP8 PUSH2 0x732 SWAP2 SWAP1 PUSH2 0x26CD JUMP JUMPDEST SWAP1 POP DUP3 PUSH20 0xFFFFFFFFFFFFFFFFFFFFFFFFFFFFFFFFFFFFFFFF AND PUSH4 0xC1D2D00D DUP4 DUP15 PUSH1 0x40 MLOAD DUP4 PUSH4 0xFFFFFFFF AND PUSH1 0xE0 SHL DUP2 MSTORE PUSH1 0x4 ADD PUSH2 0x76F SWAP3 SWAP2 SWAP1 PUSH2 0x26FD JUMP JUMPDEST PUSH0 PUSH1 0x40 MLOAD DUP1 DUP4 SUB DUP2 PUSH0 DUP8 DUP1 EXTCODESIZE ISZERO DUP1 ISZERO PUSH2 0x786 JUMPI PUSH0 DUP1 REVERT JUMPDEST POP GAS CALL ISZERO DUP1 ISZERO PUSH2 0x798 JUMPI RETURNDATASIZE PUSH0 DUP1 RETURNDATACOPY RETURNDATASIZE PUSH0 REVERT JUMPDEST POP POP POP POP DUP3 PUSH20 0xFFFFFFFFFFFFFFFFFFFFFFFFFFFFFFFFFFFFFFFF AND PUSH4 0x8CDA7BB4 DUP3 DUP15 PUSH1 0x40 MLOAD DUP4 PUSH4 0xFFFFFFFF AND PUSH1 0xE0 SHL DUP2 MSTORE PUSH1 0x4 ADD PUSH2 0x7D7 SWAP3 SWAP2 SWAP1 PUSH2 0x26FD JUMP JUMPDEST PUSH0 PUSH1 0x40 MLOAD DUP1 DUP4 SUB DUP2 PUSH0 DUP8 DUP1 EXTCODESIZE ISZERO DUP1 ISZERO PUSH2 0x7EE JUMPI PUSH0 DUP1 REVERT JUMPDEST POP GAS CALL ISZERO DUP1 ISZERO PUSH2 0x800 JUMPI RETURNDATASIZE PUSH0 DUP1 RETURNDATACOPY RETURNDATASIZE PUSH0 REVERT JUMPDEST POP POP POP POP PUSH2 0x80E DUP10 DUP12 PUSH2 0x1591 JUMP JUMPDEST POP POP POP POP POP POP POP POP POP POP POP POP POP JUMP JUMPDEST PUSH1 0x7 SLOAD DUP2 JUMP JUMPDEST PUSH2 0x82B PUSH2 0xBB9 JUMP JUMPDEST PUSH2 0x833 JUMPI PUSH0 DUP1 REVERT JUMPDEST DUP1 PUSH1 0x6 PUSH0 PUSH2 0x100 EXP DUP2 SLOAD DUP2 PUSH20 0xFFFFFFFFFFFFFFFFFFFFFFFFFFFFFFFFFFFFFFFF MUL NOT AND SWAP1 DUP4 PUSH20 0xFFFFFFFFFFFFFFFFFFFFFFFFFFFFFFFFFFFFFFFF AND MUL OR SWAP1 SSTORE POP PUSH2 0x87B PUSH2 0x16EF JUMP JUMPDEST POP POP JUMP JUMPDEST PUSH1 0xC SLOAD DUP2 JUMP JUMPDEST PUSH2 0x88D PUSH2 0x21DC JUMP JUMPDEST PUSH2 0x897 CALLER DUP4 PUSH2 0x1011 JUMP JUMPDEST SWAP1 POP SWAP2 SWAP1 POP JUMP JUMPDEST PUSH1 0x6 PUSH0 SWAP1 SLOAD SWAP1 PUSH2 0x100 EXP SWAP1 DIV PUSH20 0xFFFFFFFFFFFFFFFFFFFFFFFFFFFFFFFFFFFFFFFF AND DUP2 JUMP JUMPDEST PUSH0 DUP1 PUSH0 PUSH1 0x8 PUSH0 CALLER PUSH20 0xFFFFFFFFFFFFFFFFFFFFFFFFFFFFFFFFFFFFFFFF AND PUSH20 0xFFFFFFFFFFFFFFFFFFFFFFFFFFFFFFFFFFFFFFFF AND DUP2 MSTORE PUSH1 0x20 ADD SWAP1 DUP2 MSTORE PUSH1 0x20 ADD PUSH0 KECCAK256 DUP1 SLOAD DUP1 PUSH1 0x20 MUL PUSH1 0x20 ADD PUSH1 0x40 MLOAD SWAP1 DUP2 ADD PUSH1 0x40 MSTORE DUP1 SWAP3 SWAP2 SWAP1 DUP2 DUP2 MSTORE PUSH1 0x20 ADD DUP3 DUP1 SLOAD DUP1 ISZERO PUSH2 0x94B JUMPI PUSH1 0x20 MUL DUP3 ADD SWAP2 SWAP1 PUSH0 MSTORE PUSH1 0x20 PUSH0 KECCAK256 SWAP1 JUMPDEST DUP2 SLOAD DUP2 MSTORE PUSH1 0x20 ADD SWAP1 PUSH1 0x1 ADD SWAP1 DUP1 DUP4 GT PUSH2 0x937 JUMPI JUMPDEST POP POP POP POP POP SWAP1 POP PUSH0 PUSH1 0x7 SLOAD SWAP1 POP PUSH0 PUSH2 0x962 DUP7 PUSH2 0x188E JUMP JUMPDEST SWAP1 POP PUSH0 DUP2 SWAP1 POP PUSH0 DUP1 PUSH0 DUP1 DUP8 MLOAD SWAP1 POP JUMPDEST PUSH0 DUP2 GT DUP1 ISZERO PUSH2 0x97F JUMPI POP PUSH0 DUP6 GT JUMPDEST ISZERO PUSH2 0xA24 JUMPI PUSH1 0x1 DUP2 PUSH2 0x991 SWAP2 SWAP1 PUSH2 0x2724 JUMP JUMPDEST SWAP2 POP PUSH1 0x9 DUP9 DUP4 DUP2 MLOAD DUP2 LT PUSH2 0x9A8 JUMPI PUSH2 0x9A7 PUSH2 0x2613 JUMP JUMPDEST JUMPDEST PUSH1 0x20 MUL PUSH1 0x20 ADD ADD MLOAD DUP2 SLOAD DUP2 LT PUSH2 0x9C1 JUMPI PUSH2 0x9C0 PUSH2 0x2613 JUMP JUMPDEST JUMPDEST SWAP1 PUSH0 MSTORE PUSH1 0x20 PUSH0 KECCAK256 SWAP1 PUSH1 0x7 MUL ADD SWAP10 POP PUSH2 0x9D9 PUSH1 0x1 PUSH2 0x1A5F JUMP JUMPDEST DUP1 SWAP5 POP DUP2 SWAP6 POP POP POP PUSH1 0x9 DUP4 DUP2 SLOAD DUP2 LT PUSH2 0x9F5 JUMPI PUSH2 0x9F4 PUSH2 0x2613 JUMP JUMPDEST JUMPDEST SWAP1 PUSH0 MSTORE PUSH1 0x20 PUSH0 KECCAK256 SWAP1 PUSH1 0x7 MUL ADD SWAP9 POP PUSH2 0xA0F DUP11 DUP11 DUP8 DUP11 PUSH2 0x1BB5 JUMP JUMPDEST SWAP5 POP DUP1 DUP1 PUSH2 0xA1C SWAP1 PUSH2 0x2757 JUMP JUMPDEST SWAP2 POP POP PUSH2 0x971 JUMP JUMPDEST PUSH0 DUP6 EQ PUSH2 0xA66 JUMPI PUSH1 0x40 MLOAD PUSH32 0x8C379A000000000000000000000000000000000000000000000000000000000 DUP2 MSTORE PUSH1 0x4 ADD PUSH2 0xA5D SWAP1 PUSH2 0x27C8 JUMP JUMPDEST PUSH1 0x40 MLOAD DUP1 SWAP2 SUB SWAP1 REVERT JUMPDEST POP POP POP POP POP POP POP POP POP POP POP JUMP JUMPDEST PUSH1 0xB SLOAD DUP2 JUMP JUMPDEST PUSH0 DUP2 ISZERO PUSH2 0xA8A JUMPI PUSH1 0xE SLOAD SWAP1 POP PUSH2 0xA90 JUMP JUMPDEST PUSH1 0xD SLOAD SWAP1 POP JUMPDEST SWAP2 SWAP1 POP JUMP JUMPDEST PUSH2 0xA9D PUSH2 0xBB9 JUMP JUMPDEST PUSH2 0xAA5 JUMPI PUSH0 DUP1 REVERT JUMPDEST PUSH0 DUP1 SLOAD SWAP1 PUSH2 0x100 EXP SWAP1 DIV PUSH20 0xFFFFFFFFFFFFFFFFFFFFFFFFFFFFFFFFFFFFFFFF AND PUSH20 0xFFFFFFFFFFFFFFFFFFFFFFFFFFFFFFFFFFFFFFFF AND PUSH32 0xF8DF31144D9C2F0F6B59D69B8B98ABD5459D07F2742C4DF920B25AAE33C64820 PUSH1 0x40 MLOAD PUSH1 0x40 MLOAD DUP1 SWAP2 SUB SWAP1 LOG2 PUSH0 DUP1 PUSH0 PUSH2 0x100 EXP DUP2 SLOAD DUP2 PUSH20 0xFFFFFFFFFFFFFFFFFFFFFFFFFFFFFFFFFFFFFFFF MUL NOT AND SWAP1 DUP4 PUSH20 0xFFFFFFFFFFFFFFFFFFFFFFFFFFFFFFFFFFFFFFFF AND MUL OR SWAP1 SSTORE POP JUMP JUMPDEST PUSH1 0x1 PUSH0 SWAP1 SLOAD SWAP1 PUSH2 0x100 EXP SWAP1 DIV PUSH20 0xFFFFFFFFFFFFFFFFFFFFFFFFFFFFFFFFFFFFFFFF AND DUP2 JUMP JUMPDEST PUSH0 DUP1 PUSH0 SWAP1 SLOAD SWAP1 PUSH2 0x100 EXP SWAP1 DIV PUSH20 0xFFFFFFFFFFFFFFFFFFFFFFFFFFFFFFFFFFFFFFFF AND SWAP1 POP SWAP1 JUMP JUMPDEST PUSH1 0x5 PUSH0 SWAP1 SLOAD SWAP1 PUSH2 0x100 EXP SWAP1 DIV PUSH20 0xFFFFFFFFFFFFFFFFFFFFFFFFFFFFFFFFFFFFFFFF AND DUP2 JUMP JUMPDEST PUSH0 DUP1 PUSH0 SWAP1 SLOAD SWAP1 PUSH2 0x100 EXP SWAP1 DIV PUSH20 0xFFFFFFFFFFFFFFFFFFFFFFFFFFFFFFFFFFFFFFFF AND PUSH20 0xFFFFFFFFFFFFFFFFFFFFFFFFFFFFFFFFFFFFFFFF AND CALLER PUSH20 0xFFFFFFFFFFFFFFFFFFFFFFFFFFFFFFFFFFFFFFFF AND EQ SWAP1 POP SWAP1 JUMP JUMPDEST PUSH0 PUSH2 0xC17 PUSH2 0x16EF JUMP JUMPDEST SWAP1 POP SWAP1 JUMP JUMPDEST PUSH1 0x9 DUP2 DUP2 SLOAD DUP2 LT PUSH2 0xC2B JUMPI PUSH0 DUP1 REVERT JUMPDEST SWAP1 PUSH0 MSTORE PUSH1 0x20 PUSH0 KECCAK256 SWAP1 PUSH1 0x7 MUL ADD PUSH0 SWAP2 POP SWAP1 POP DUP1 PUSH0 ADD PUSH0 SWAP1 SLOAD SWAP1 PUSH2 0x100 EXP SWAP1 DIV PUSH20 0xFFFFFFFFFFFFFFFFFFFFFFFFFFFFFFFFFFFFFFFF AND SWAP1 DUP1 PUSH1 0x1 ADD SLOAD SWAP1 DUP1 PUSH1 0x2 ADD SLOAD SWAP1 DUP1 PUSH1 0x3 ADD SLOAD SWAP1 DUP1 PUSH1 0x4 ADD SLOAD SWAP1 DUP1 PUSH1 0x5 ADD PUSH0 SWAP1 SLOAD SWAP1 PUSH2 0x100 EXP SWAP1 DIV PUSH1 0xFF AND SWAP1 DUP1 PUSH1 0x6 ADD SLOAD SWAP1 POP DUP8 JUMP JUMPDEST PUSH1 0xA SLOAD DUP2 JUMP JUMPDEST PUSH2 0xCA2 PUSH2 0xBB9 JUMP JUMPDEST PUSH2 0xCAA JUMPI PUSH0 DUP1 REVERT JUMPDEST DUP1 PUSH1 0x2 PUSH0 PUSH2 0x100 EXP DUP2 SLOAD DUP2 PUSH20 0xFFFFFFFFFFFFFFFFFFFFFFFFFFFFFFFFFFFFFFFF MUL NOT AND SWAP1 DUP4 PUSH20 0xFFFFFFFFFFFFFFFFFFFFFFFFFFFFFFFFFFFFFFFF AND MUL OR SWAP1 SSTORE POP DUP1 PUSH1 0x3 PUSH0 PUSH2 0x100 EXP DUP2 SLOAD DUP2 PUSH20 0xFFFFFFFFFFFFFFFFFFFFFFFFFFFFFFFFFFFFFFFF MUL NOT AND SWAP1 DUP4 PUSH20 0xFFFFFFFFFFFFFFFFFFFFFFFFFFFFFFFFFFFFFFFF AND MUL OR SWAP1 SSTORE POP POP JUMP JUMPDEST PUSH0 DUP1 PUSH0 PUSH1 0x8 PUSH0 CALLER PUSH20 0xFFFFFFFFFFFFFFFFFFFFFFFFFFFFFFFFFFFFFFFF AND PUSH20 0xFFFFFFFFFFFFFFFFFFFFFFFFFFFFFFFFFFFFFFFF AND DUP2 MSTORE PUSH1 0x20 ADD SWAP1 DUP2 MSTORE PUSH1 0x20 ADD PUSH0 KECCAK256 DUP1 SLOAD DUP1 PUSH1 0x20 MUL PUSH1 0x20 ADD PUSH1 0x40 MLOAD SWAP1 DUP2 ADD PUSH1 0x40 MSTORE DUP1 SWAP3 SWAP2 SWAP1 DUP2 DUP2 MSTORE PUSH1 0x20 ADD DUP3 DUP1 SLOAD DUP1 ISZERO PUSH2 0xDB5 JUMPI PUSH1 0x20 MUL DUP3 ADD SWAP2 SWAP1 PUSH0 MSTORE PUSH1 0x20 PUSH0 KECCAK256 SWAP1 JUMPDEST DUP2 SLOAD DUP2 MSTORE PUSH1 0x20 ADD SWAP1 PUSH1 0x1 ADD SWAP1 DUP1 DUP4 GT PUSH2 0xDA1 JUMPI JUMPDEST POP POP POP POP POP SWAP1 POP PUSH0 PUSH1 0x7 SLOAD SWAP1 POP PUSH0 DUP2 DUP7 PUSH2 0xDCF SWAP2 SWAP1 PUSH2 0x27E6 JUMP JUMPDEST SWAP1 POP PUSH2 0xDDA DUP2 PUSH2 0x188E JUMP JUMPDEST DUP2 PUSH2 0xDE5 SWAP2 SWAP1 PUSH2 0x2724 JUMP JUMPDEST SWAP1 POP PUSH0 DUP3 DUP3 PUSH2 0xDF4 SWAP2 SWAP1 PUSH2 0x26CD JUMP JUMPDEST SWAP1 POP PUSH0 DUP1 PUSH0 DUP1 DUP8 MLOAD SWAP1 POP JUMPDEST PUSH0 DUP2 GT DUP1 ISZERO PUSH2 0xE0D JUMPI POP PUSH0 DUP6 GT JUMPDEST ISZERO PUSH2 0xEB1 JUMPI PUSH1 0x1 DUP2 PUSH2 0xE1F SWAP2 SWAP1 PUSH2 0x2724 JUMP JUMPDEST SWAP2 POP PUSH1 0x9 DUP9 DUP4 DUP2 MLOAD DUP2 LT PUSH2 0xE36 JUMPI PUSH2 0xE35 PUSH2 0x2613 JUMP JUMPDEST JUMPDEST PUSH1 0x20 MUL PUSH1 0x20 ADD ADD MLOAD DUP2 SLOAD DUP2 LT PUSH2 0xE4F JUMPI PUSH2 0xE4E PUSH2 0x2613 JUMP JUMPDEST JUMPDEST SWAP1 PUSH0 MSTORE PUSH1 0x20 PUSH0 KECCAK256 SWAP1 PUSH1 0x7 MUL ADD SWAP10 POP PUSH2 0xE66 PUSH0 PUSH2 0x1A5F JUMP JUMPDEST DUP1 SWAP5 POP DUP2 SWAP6 POP POP POP PUSH1 0x9 DUP4 DUP2 SLOAD DUP2 LT PUSH2 0xE82 JUMPI PUSH2 0xE81 PUSH2 0x2613 JUMP JUMPDEST JUMPDEST SWAP1 PUSH0 MSTORE PUSH1 0x20 PUSH0 KECCAK256 SWAP1 PUSH1 0x7 MUL ADD SWAP9 POP PUSH2 0xE9C DUP11 DUP11 DUP8 DUP11 PUSH2 0x1C45 JUMP JUMPDEST SWAP5 POP DUP1 DUP1 PUSH2 0xEA9 SWAP1 PUSH2 0x2757 JUMP JUMPDEST SWAP2 POP POP PUSH2 0xDFF JUMP JUMPDEST PUSH0 DUP6 EQ PUSH2 0xEF3 JUMPI PUSH1 0x40 MLOAD PUSH32 0x8C379A000000000000000000000000000000000000000000000000000000000 DUP2 MSTORE PUSH1 0x4 ADD PUSH2 0xEEA SWAP1 PUSH2 0x27C8 JUMP JUMPDEST PUSH1 0x40 MLOAD DUP1 SWAP2 SUB SWAP1 REVERT JUMPDEST POP POP POP POP POP POP POP POP POP POP POP JUMP JUMPDEST PUSH0 PUSH1 0x3 PUSH0 SWAP1 SLOAD SWAP1 PUSH2 0x100 EXP SWAP1 DIV PUSH20 0xFFFFFFFFFFFFFFFFFFFFFFFFFFFFFFFFFFFFFFFF AND PUSH20 0xFFFFFFFFFFFFFFFFFFFFFFFFFFFFFFFFFFFFFFFF AND PUSH4 0x23B872DD CALLER PUSH1 0x6 PUSH0 SWAP1 SLOAD SWAP1 PUSH2 0x100 EXP SWAP1 DIV PUSH20 0xFFFFFFFFFFFFFFFFFFFFFFFFFFFFFFFFFFFFFFFF AND DUP6 PUSH1 0x40 MLOAD DUP5 PUSH4 0xFFFFFFFF AND PUSH1 0xE0 SHL DUP2 MSTORE PUSH1 0x4 ADD PUSH2 0xF80 SWAP4 SWAP3 SWAP2 SWAP1 PUSH2 0x2827 JUMP JUMPDEST PUSH1 0x20 PUSH1 0x40 MLOAD DUP1 DUP4 SUB DUP2 PUSH0 DUP8 GAS CALL ISZERO DUP1 ISZERO PUSH2 0xF9C JUMPI RETURNDATASIZE PUSH0 DUP1 RETURNDATACOPY RETURNDATASIZE PUSH0 REVERT JUMPDEST POP POP POP POP PUSH1 0x40 MLOAD RETURNDATASIZE PUSH1 0x1F NOT PUSH1 0x1F DUP3 ADD AND DUP3 ADD DUP1 PUSH1 0x40 MSTORE POP DUP2 ADD SWAP1 PUSH2 0xFC0 SWAP2 SWAP1 PUSH2 0x2870 JUMP JUMPDEST SWAP1 POP DUP1 PUSH2 0x1002 JUMPI PUSH1 0x40 MLOAD PUSH32 0x8C379A000000000000000000000000000000000000000000000000000000000 DUP2 MSTORE PUSH1 0x4 ADD PUSH2 0xFF9 SWAP1 PUSH2 0x28E5 JUMP JUMPDEST PUSH1 0x40 MLOAD DUP1 SWAP2 SUB SWAP1 REVERT JUMPDEST PUSH2 0x100D DUP3 PUSH1 0x1 PUSH2 0x1CD5 JUMP JUMPDEST POP POP JUMP JUMPDEST PUSH2 0x1019 PUSH2 0x21DC JUMP JUMPDEST PUSH0 PUSH1 0x8 PUSH0 DUP6 PUSH20 0xFFFFFFFFFFFFFFFFFFFFFFFFFFFFFFFFFFFFFFFF AND PUSH20 0xFFFFFFFFFFFFFFFFFFFFFFFFFFFFFFFFFFFFFFFF AND DUP2 MSTORE PUSH1 0x20 ADD SWAP1 DUP2 MSTORE PUSH1 0x20 ADD PUSH0 KECCAK256 DUP1 SLOAD DUP1 PUSH1 0x20 MUL PUSH1 0x20 ADD PUSH1 0x40 MLOAD SWAP1 DUP2 ADD PUSH1 0x40 MSTORE DUP1 SWAP3 SWAP2 SWAP1 DUP2 DUP2 MSTORE PUSH1 0x20 ADD DUP3 DUP1 SLOAD DUP1 ISZERO PUSH2 0x109F JUMPI PUSH1 0x20 MUL DUP3 ADD SWAP2 SWAP1 PUSH0 MSTORE PUSH1 0x20 PUSH0 KECCAK256 SWAP1 JUMPDEST DUP2 SLOAD DUP2 MSTORE PUSH1 0x20 ADD SWAP1 PUSH1 0x1 ADD SWAP1 DUP1 DUP4 GT PUSH2 0x108B JUMPI JUMPDEST POP POP POP POP POP SWAP1 POP DUP1 MLOAD DUP4 LT PUSH2 0x10E9 JUMPI PUSH1 0x40 MLOAD PUSH32 0x8C379A000000000000000000000000000000000000000000000000000000000 DUP2 MSTORE PUSH1 0x4 ADD PUSH2 0x10E0 SWAP1 PUSH2 0x25F5 JUMP JUMPDEST PUSH1 0x40 MLOAD DUP1 SWAP2 SUB SWAP1 REVERT JUMPDEST PUSH0 DUP2 DUP5 DUP2 MLOAD DUP2 LT PUSH2 0x10FD JUMPI PUSH2 0x10FC PUSH2 0x2613 JUMP JUMPDEST JUMPDEST PUSH1 0x20 MUL PUSH1 0x20 ADD ADD MLOAD SWAP1 POP PUSH0 PUSH1 0x9 DUP3 DUP2 SLOAD DUP2 LT PUSH2 0x111C JUMPI PUSH2 0x111B PUSH2 0x2613 JUMP JUMPDEST JUMPDEST SWAP1 PUSH0 MSTORE PUSH1 0x20 PUSH0 KECCAK256 SWAP1 PUSH1 0x7 MUL ADD PUSH1 0x40 MLOAD DUP1 PUSH1 0xE0 ADD PUSH1 0x40 MSTORE SWAP1 DUP2 PUSH0 DUP3 ADD PUSH0 SWAP1 SLOAD SWAP1 PUSH2 0x100 EXP SWAP1 DIV PUSH20 0xFFFFFFFFFFFFFFFFFFFFFFFFFFFFFFFFFFFFFFFF AND PUSH20 0xFFFFFFFFFFFFFFFFFFFFFFFFFFFFFFFFFFFFFFFF AND PUSH20 0xFFFFFFFFFFFFFFFFFFFFFFFFFFFFFFFFFFFFFFFF AND DUP2 MSTORE PUSH1 0x20 ADD PUSH1 0x1 DUP3 ADD SLOAD DUP2 MSTORE PUSH1 0x20 ADD PUSH1 0x2 DUP3 ADD SLOAD DUP2 MSTORE PUSH1 0x20 ADD PUSH1 0x3 DUP3 ADD SLOAD DUP2 MSTORE PUSH1 0x20 ADD PUSH1 0x4 DUP3 ADD SLOAD DUP2 MSTORE PUSH1 0x20 ADD PUSH1 0x5 DUP3 ADD PUSH0 SWAP1 SLOAD SWAP1 PUSH2 0x100 EXP SWAP1 DIV PUSH1 0xFF AND ISZERO ISZERO ISZERO ISZERO DUP2 MSTORE PUSH1 0x20 ADD PUSH1 0x6 DUP3 ADD SLOAD DUP2 MSTORE POP POP SWAP1 POP PUSH1 0x40 MLOAD DUP1 PUSH1 0xC0 ADD PUSH1 0x40 MSTORE DUP1 DUP3 PUSH0 ADD MLOAD PUSH20 0xFFFFFFFFFFFFFFFFFFFFFFFFFFFFFFFFFFFFFFFF AND DUP2 MSTORE PUSH1 0x20 ADD DUP3 PUSH1 0x20 ADD MLOAD DUP2 MSTORE PUSH1 0x20 ADD DUP3 PUSH1 0x40 ADD MLOAD DUP2 MSTORE PUSH1 0x20 ADD DUP3 PUSH1 0x60 ADD MLOAD DUP2 MSTORE PUSH1 0x20 ADD DUP3 PUSH1 0x80 ADD MLOAD DUP2 MSTORE PUSH1 0x20 ADD DUP3 PUSH1 0xA0 ADD MLOAD ISZERO ISZERO DUP2 MSTORE POP SWAP4 POP POP POP POP SWAP3 SWAP2 POP POP JUMP JUMPDEST PUSH0 PUSH20 0xFFFFFFFFFFFFFFFFFFFFFFFFFFFFFFFFFFFFFFFF AND PUSH1 0x6 PUSH0 SWAP1 SLOAD SWAP1 PUSH2 0x100 EXP SWAP1 DIV PUSH20 0xFFFFFFFFFFFFFFFFFFFFFFFFFFFFFFFFFFFFFFFF AND PUSH20 0xFFFFFFFFFFFFFFFFFFFFFFFFFFFFFFFFFFFFFFFF AND SUB PUSH2 0x12CB JUMPI PUSH1 0x40 MLOAD PUSH32 0x8C379A000000000000000000000000000000000000000000000000000000000 DUP2 MSTORE PUSH1 0x4 ADD PUSH2 0x12C2 SWAP1 PUSH2 0x2973 JUMP JUMPDEST PUSH1 0x40 MLOAD DUP1 SWAP2 SUB SWAP1 REVERT JUMPDEST PUSH0 DUP1 PUSH0 PUSH8 0xFFFFFFFFFFFFFFFF DUP2 GT ISZERO PUSH2 0x12E7 JUMPI PUSH2 0x12E6 PUSH2 0x2991 JUMP JUMPDEST JUMPDEST PUSH1 0x40 MLOAD SWAP1 DUP1 DUP3 MSTORE DUP1 PUSH1 0x1F ADD PUSH1 0x1F NOT AND PUSH1 0x20 ADD DUP3 ADD PUSH1 0x40 MSTORE DUP1 ISZERO PUSH2 0x1319 JUMPI DUP2 PUSH1 0x20 ADD PUSH1 0x1 DUP3 MUL DUP1 CALLDATASIZE DUP4 CALLDATACOPY DUP1 DUP3 ADD SWAP2 POP POP SWAP1 POP JUMPDEST POP SWAP1 POP PUSH0 JUMPDEST DUP4 DUP2 LT ISZERO PUSH2 0x147E JUMPI PUSH1 0x4 PUSH0 SWAP1 SLOAD SWAP1 PUSH2 0x100 EXP SWAP1 DIV PUSH20 0xFFFFFFFFFFFFFFFFFFFFFFFFFFFFFFFFFFFFFFFF AND PUSH20 0xFFFFFFFFFFFFFFFFFFFFFFFFFFFFFFFFFFFFFFFF AND PUSH4 0x2F745C59 CALLER DUP4 PUSH1 0x40 MLOAD DUP4 PUSH4 0xFFFFFFFF AND PUSH1 0xE0 SHL DUP2 MSTORE PUSH1 0x4 ADD PUSH2 0x1382 SWAP3 SWAP2 SWAP1 PUSH2 0x29BE JUMP JUMPDEST PUSH1 0x20 PUSH1 0x40 MLOAD DUP1 DUP4 SUB DUP2 DUP7 GAS STATICCALL ISZERO DUP1 ISZERO PUSH2 0x139D JUMPI RETURNDATASIZE PUSH0 DUP1 RETURNDATACOPY RETURNDATASIZE PUSH0 REVERT JUMPDEST POP POP POP POP PUSH1 0x40 MLOAD RETURNDATASIZE PUSH1 0x1F NOT PUSH1 0x1F DUP3 ADD AND DUP3 ADD DUP1 PUSH1 0x40 MSTORE POP DUP2 ADD SWAP1 PUSH2 0x13C1 SWAP2 SWAP1 PUSH2 0x29F9 JUMP JUMPDEST SWAP3 POP PUSH1 0x4 PUSH0 SWAP1 SLOAD SWAP1 PUSH2 0x100 EXP SWAP1 DIV PUSH20 0xFFFFFFFFFFFFFFFFFFFFFFFFFFFFFFFFFFFFFFFF AND PUSH20 0xFFFFFFFFFFFFFFFFFFFFFFFFFFFFFFFFFFFFFFFF AND PUSH4 0xB88D4FDE CALLER PUSH1 0x6 PUSH0 SWAP1 SLOAD SWAP1 PUSH2 0x100 EXP SWAP1 DIV PUSH20 0xFFFFFFFFFFFFFFFFFFFFFFFFFFFFFFFFFFFFFFFF AND DUP7 DUP7 PUSH1 0x40 MLOAD DUP6 PUSH4 0xFFFFFFFF AND PUSH1 0xE0 SHL DUP2 MSTORE PUSH1 0x4 ADD PUSH2 0x1444 SWAP5 SWAP4 SWAP3 SWAP2 SWAP1 PUSH2 0x2A94 JUMP JUMPDEST PUSH0 PUSH1 0x40 MLOAD DUP1 DUP4 SUB DUP2 PUSH0 DUP8 DUP1 EXTCODESIZE ISZERO DUP1 ISZERO PUSH2 0x145B JUMPI PUSH0 DUP1 REVERT JUMPDEST POP GAS CALL ISZERO DUP1 ISZERO PUSH2 0x146D JUMPI RETURNDATASIZE PUSH0 DUP1 RETURNDATACOPY RETURNDATASIZE PUSH0 REVERT JUMPDEST POP POP POP POP DUP1 DUP1 PUSH1 0x1 ADD SWAP2 POP POP PUSH2 0x131E JUMP JUMPDEST POP PUSH2 0x148A DUP4 PUSH1 0x1 PUSH2 0x1CD5 JUMP JUMPDEST POP POP POP JUMP JUMPDEST PUSH2 0x1497 PUSH2 0xBB9 JUMP JUMPDEST PUSH2 0x149F JUMPI PUSH0 DUP1 REVERT JUMPDEST PUSH2 0x14A8 DUP2 PUSH2 0x1EAD JUMP JUMPDEST POP JUMP JUMPDEST PUSH2 0x14B3 PUSH2 0xBB9 JUMP JUMPDEST PUSH2 0x14BB JUMPI PUSH0 DUP1 REVERT JUMPDEST DUP1 PUSH1 0x1 PUSH0 PUSH2 0x100 EXP DUP2 SLOAD DUP2 PUSH20 0xFFFFFFFFFFFFFFFFFFFFFFFFFFFFFFFFFFFFFFFF MUL NOT AND SWAP1 DUP4 PUSH20 0xFFFFFFFFFFFFFFFFFFFFFFFFFFFFFFFFFFFFFFFF AND MUL OR SWAP1 SSTORE POP DUP1 PUSH1 0x4 PUSH0 PUSH2 0x100 EXP DUP2 SLOAD DUP2 PUSH20 0xFFFFFFFFFFFFFFFFFFFFFFFFFFFFFFFFFFFFFFFF MUL NOT AND SWAP1 DUP4 PUSH20 0xFFFFFFFFFFFFFFFFFFFFFFFFFFFFFFFFFFFFFFFF AND MUL OR SWAP1 SSTORE POP POP JUMP JUMPDEST PUSH2 0x1546 PUSH2 0xBB9 JUMP JUMPDEST PUSH2 0x154E JUMPI PUSH0 DUP1 REVERT JUMPDEST DUP1 PUSH1 0x5 PUSH0 PUSH2 0x100 EXP DUP2 SLOAD DUP2 PUSH20 0xFFFFFFFFFFFFFFFFFFFFFFFFFFFFFFFFFFFFFFFF MUL NOT AND SWAP1 DUP4 PUSH20 0xFFFFFFFFFFFFFFFFFFFFFFFFFFFFFFFFFFFFFFFF AND MUL OR SWAP1 SSTORE POP POP JUMP JUMPDEST PUSH0 DUP3 PUSH1 0xC0 ADD MLOAD SWAP1 POP PUSH0 DUP1 PUSH1 0x8 PUSH0 CALLER PUSH20 0xFFFFFFFFFFFFFFFFFFFFFFFFFFFFFFFFFFFFFFFF AND PUSH20 0xFFFFFFFFFFFFFFFFFFFFFFFFFFFFFFFFFFFFFFFF AND DUP2 MSTORE PUSH1 0x20 ADD SWAP1 DUP2 MSTORE PUSH1 0x20 ADD PUSH0 KECCAK256 SWAP1 POP PUSH2 0x15E4 DUP2 DUP5 PUSH2 0x1F9F JUMP JUMPDEST ISZERO PUSH2 0x1630 JUMPI PUSH1 0x9 DUP2 DUP5 DUP2 SLOAD DUP2 LT PUSH2 0x15FE JUMPI PUSH2 0x15FD PUSH2 0x2613 JUMP JUMPDEST JUMPDEST SWAP1 PUSH0 MSTORE PUSH1 0x20 PUSH0 KECCAK256 ADD SLOAD DUP2 SLOAD DUP2 LT PUSH2 0x1618 JUMPI PUSH2 0x1617 PUSH2 0x2613 JUMP JUMPDEST JUMPDEST SWAP1 PUSH0 MSTORE PUSH1 0x20 PUSH0 KECCAK256 SWAP1 PUSH1 0x7 MUL ADD SWAP2 POP DUP3 DUP3 PUSH1 0x6 ADD DUP2 SWAP1 SSTORE POP JUMPDEST PUSH2 0x163B PUSH1 0x9 DUP6 PUSH2 0x202B JUMP JUMPDEST ISZERO PUSH2 0x16E8 JUMPI PUSH1 0x9 DUP5 DUP2 SLOAD DUP2 LT PUSH2 0x1654 JUMPI PUSH2 0x1653 PUSH2 0x2613 JUMP JUMPDEST JUMPDEST SWAP1 PUSH0 MSTORE PUSH1 0x20 PUSH0 KECCAK256 SWAP1 PUSH1 0x7 MUL ADD SWAP2 POP DUP2 PUSH1 0x6 ADD SLOAD SWAP3 POP DUP4 PUSH1 0x8 PUSH0 DUP5 PUSH0 ADD PUSH0 SWAP1 SLOAD SWAP1 PUSH2 0x100 EXP SWAP1 DIV PUSH20 0xFFFFFFFFFFFFFFFFFFFFFFFFFFFFFFFFFFFFFFFF AND PUSH20 0xFFFFFFFFFFFFFFFFFFFFFFFFFFFFFFFFFFFFFFFF AND PUSH20 0xFFFFFFFFFFFFFFFFFFFFFFFFFFFFFFFFFFFFFFFF AND DUP2 MSTORE PUSH1 0x20 ADD SWAP1 DUP2 MSTORE PUSH1 0x20 ADD PUSH0 KECCAK256 DUP5 DUP2 SLOAD DUP2 LT PUSH2 0x16DB JUMPI PUSH2 0x16DA PUSH2 0x2613 JUMP JUMPDEST JUMPDEST SWAP1 PUSH0 MSTORE PUSH1 0x20 PUSH0 KECCAK256 ADD DUP2 SWAP1 SSTORE POP JUMPDEST POP POP POP POP POP JUMP JUMPDEST PUSH0 DUP1 PUSH1 0x3 PUSH0 SWAP1 SLOAD SWAP1 PUSH2 0x100 EXP SWAP1 DIV PUSH20 0xFFFFFFFFFFFFFFFFFFFFFFFFFFFFFFFFFFFFFFFF AND PUSH20 0xFFFFFFFFFFFFFFFFFFFFFFFFFFFFFFFFFFFFFFFF AND PUSH4 0x70A08231 PUSH1 0x6 PUSH0 SWAP1 SLOAD SWAP1 PUSH2 0x100 EXP SWAP1 DIV PUSH20 0xFFFFFFFFFFFFFFFFFFFFFFFFFFFFFFFFFFFFFFFF AND PUSH1 0x40 MLOAD DUP3 PUSH4 0xFFFFFFFF AND PUSH1 0xE0 SHL DUP2 MSTORE PUSH1 0x4 ADD PUSH2 0x176C SWAP2 SWAP1 PUSH2 0x22B1 JUMP JUMPDEST PUSH1 0x20 PUSH1 0x40 MLOAD DUP1 DUP4 SUB DUP2 DUP7 GAS STATICCALL ISZERO DUP1 ISZERO PUSH2 0x1787 JUMPI RETURNDATASIZE PUSH0 DUP1 RETURNDATACOPY RETURNDATASIZE PUSH0 REVERT JUMPDEST POP POP POP POP PUSH1 0x40 MLOAD RETURNDATASIZE PUSH1 0x1F NOT PUSH1 0x1F DUP3 ADD AND DUP3 ADD DUP1 PUSH1 0x40 MSTORE POP DUP2 ADD SWAP1 PUSH2 0x17AB SWAP2 SWAP1 PUSH2 0x29F9 JUMP JUMPDEST SWAP1 POP PUSH0 PUSH1 0x4 PUSH0 SWAP1 SLOAD SWAP1 PUSH2 0x100 EXP SWAP1 DIV PUSH20 0xFFFFFFFFFFFFFFFFFFFFFFFFFFFFFFFFFFFFFFFF AND PUSH20 0xFFFFFFFFFFFFFFFFFFFFFFFFFFFFFFFFFFFFFFFF AND PUSH4 0x70A08231 PUSH1 0x6 PUSH0 SWAP1 SLOAD SWAP1 PUSH2 0x100 EXP SWAP1 DIV PUSH20 0xFFFFFFFFFFFFFFFFFFFFFFFFFFFFFFFFFFFFFFFF AND PUSH1 0x40 MLOAD DUP3 PUSH4 0xFFFFFFFF AND PUSH1 0xE0 SHL DUP2 MSTORE PUSH1 0x4 ADD PUSH2 0x1829 SWAP2 SWAP1 PUSH2 0x22B1 JUMP JUMPDEST PUSH1 0x20 PUSH1 0x40 MLOAD DUP1 DUP4 SUB DUP2 DUP7 GAS STATICCALL ISZERO DUP1 ISZERO PUSH2 0x1844 JUMPI RETURNDATASIZE PUSH0 DUP1 RETURNDATACOPY RETURNDATASIZE PUSH0 REVERT JUMPDEST POP POP POP POP PUSH1 0x40 MLOAD RETURNDATASIZE PUSH1 0x1F NOT PUSH1 0x1F DUP3 ADD AND DUP3 ADD DUP1 PUSH1 0x40 MSTORE POP DUP2 ADD SWAP1 PUSH2 0x1868 SWAP2 SWAP1 PUSH2 0x29F9 JUMP JUMPDEST SWAP1 POP PUSH0 DUP2 EQ PUSH2 0x1884 JUMPI DUP1 DUP3 PUSH2 0x187D SWAP2 SWAP1 PUSH2 0x26CD JUMP JUMPDEST PUSH1 0x7 DUP2 SWAP1 SSTORE POP JUMPDEST PUSH1 0x7 SLOAD SWAP3 POP POP POP SWAP1 JUMP JUMPDEST PUSH0 DUP1 PUSH2 0x2710 PUSH1 0x5 DUP5 PUSH2 0x18A0 SWAP2 SWAP1 PUSH2 0x27E6 JUMP JUMPDEST PUSH2 0x18AA SWAP2 SWAP1 PUSH2 0x26CD JUMP JUMPDEST SWAP1 POP PUSH0 PUSH1 0x5 DUP3 PUSH2 0x18BA SWAP2 SWAP1 PUSH2 0x26CD JUMP JUMPDEST SWAP1 POP PUSH0 DUP2 DUP4 PUSH2 0x18C9 SWAP2 SWAP1 PUSH2 0x2724 JUMP JUMPDEST SWAP1 POP PUSH0 PUSH1 0x3 PUSH0 SWAP1 SLOAD SWAP1 PUSH2 0x100 EXP SWAP1 DIV PUSH20 0xFFFFFFFFFFFFFFFFFFFFFFFFFFFFFFFFFFFFFFFF AND PUSH20 0xFFFFFFFFFFFFFFFFFFFFFFFFFFFFFFFFFFFFFFFF AND PUSH4 0xA9059CBB PUSH1 0x5 PUSH0 SWAP1 SLOAD SWAP1 PUSH2 0x100 EXP SWAP1 DIV PUSH20 0xFFFFFFFFFFFFFFFFFFFFFFFFFFFFFFFFFFFFFFFF AND DUP6 PUSH1 0x40 MLOAD DUP4 PUSH4 0xFFFFFFFF AND PUSH1 0xE0 SHL DUP2 MSTORE PUSH1 0x4 ADD PUSH2 0x1949 SWAP3 SWAP2 SWAP1 PUSH2 0x29BE JUMP JUMPDEST PUSH1 0x20 PUSH1 0x40 MLOAD DUP1 DUP4 SUB DUP2 PUSH0 DUP8 GAS CALL ISZERO DUP1 ISZERO PUSH2 0x1965 JUMPI RETURNDATASIZE PUSH0 DUP1 RETURNDATACOPY RETURNDATASIZE PUSH0 REVERT JUMPDEST POP POP POP POP PUSH1 0x40 MLOAD RETURNDATASIZE PUSH1 0x1F NOT PUSH1 0x1F DUP3 ADD AND DUP3 ADD DUP1 PUSH1 0x40 MSTORE POP DUP2 ADD SWAP1 PUSH2 0x1989 SWAP2 SWAP1 PUSH2 0x2870 JUMP JUMPDEST SWAP1 POP DUP1 PUSH2 0x1994 JUMPI PUSH0 DUP1 REVERT JUMPDEST PUSH1 0x3 PUSH0 SWAP1 SLOAD SWAP1 PUSH2 0x100 EXP SWAP1 DIV PUSH20 0xFFFFFFFFFFFFFFFFFFFFFFFFFFFFFFFFFFFFFFFF AND PUSH20 0xFFFFFFFFFFFFFFFFFFFFFFFFFFFFFFFFFFFFFFFF AND PUSH4 0xA9059CBB ADDRESS DUP5 PUSH1 0x40 MLOAD DUP4 PUSH4 0xFFFFFFFF AND PUSH1 0xE0 SHL DUP2 MSTORE PUSH1 0x4 ADD PUSH2 0x19F0 SWAP3 SWAP2 SWAP1 PUSH2 0x29BE JUMP JUMPDEST PUSH1 0x20 PUSH1 0x40 MLOAD DUP1 DUP4 SUB DUP2 PUSH0 DUP8 GAS CALL ISZERO DUP1 ISZERO PUSH2 0x1A0C JUMPI RETURNDATASIZE PUSH0 DUP1 RETURNDATACOPY RETURNDATASIZE PUSH0 REVERT JUMPDEST POP POP POP POP PUSH1 0x40 MLOAD RETURNDATASIZE PUSH1 0x1F NOT PUSH1 0x1F DUP3 ADD AND DUP3 ADD DUP1 PUSH1 0x40 MSTORE POP DUP2 ADD SWAP1 PUSH2 0x1A30 SWAP2 SWAP1 PUSH2 0x2870 JUMP JUMPDEST SWAP1 POP DUP1 PUSH2 0x1A3B JUMPI PUSH0 DUP1 REVERT JUMPDEST DUP2 PUSH1 0xA PUSH0 DUP3 DUP3 SLOAD PUSH2 0x1A4C SWAP2 SWAP1 PUSH2 0x266D JUMP JUMPDEST SWAP3 POP POP DUP2 SWAP1 SSTORE POP DUP4 SWAP5 POP POP POP POP POP SWAP2 SWAP1 POP JUMP JUMPDEST PUSH0 DUP1 PUSH2 0x1A69 PUSH2 0x2224 JUMP JUMPDEST PUSH0 PUSH1 0x9 DUP1 SLOAD SWAP1 POP SWAP1 POP JUMPDEST PUSH0 DUP2 GT DUP1 ISZERO PUSH2 0x1A80 JUMPI POP DUP4 ISZERO JUMPDEST ISZERO PUSH2 0x1BAE JUMPI PUSH1 0x1 DUP2 PUSH2 0x1A92 SWAP2 SWAP1 PUSH2 0x2724 JUMP JUMPDEST SWAP3 POP PUSH1 0x9 DUP4 DUP2 SLOAD DUP2 LT PUSH2 0x1AA8 JUMPI PUSH2 0x1AA7 PUSH2 0x2613 JUMP JUMPDEST JUMPDEST SWAP1 PUSH0 MSTORE PUSH1 0x20 PUSH0 KECCAK256 SWAP1 PUSH1 0x7 MUL ADD PUSH1 0x40 MLOAD DUP1 PUSH1 0xE0 ADD PUSH1 0x40 MSTORE SWAP1 DUP2 PUSH0 DUP3 ADD PUSH0 SWAP1 SLOAD SWAP1 PUSH2 0x100 EXP SWAP1 DIV PUSH20 0xFFFFFFFFFFFFFFFFFFFFFFFFFFFFFFFFFFFFFFFF AND PUSH20 0xFFFFFFFFFFFFFFFFFFFFFFFFFFFFFFFFFFFFFFFF AND PUSH20 0xFFFFFFFFFFFFFFFFFFFFFFFFFFFFFFFFFFFFFFFF AND DUP2 MSTORE PUSH1 0x20 ADD PUSH1 0x1 DUP3 ADD SLOAD DUP2 MSTORE PUSH1 0x20 ADD PUSH1 0x2 DUP3 ADD SLOAD DUP2 MSTORE PUSH1 0x20 ADD PUSH1 0x3 DUP3 ADD SLOAD DUP2 MSTORE PUSH1 0x20 ADD PUSH1 0x4 DUP3 ADD SLOAD DUP2 MSTORE PUSH1 0x20 ADD PUSH1 0x5 DUP3 ADD PUSH0 SWAP1 SLOAD SWAP1 PUSH2 0x100 EXP SWAP1 DIV PUSH1 0xFF AND ISZERO ISZERO ISZERO ISZERO DUP2 MSTORE PUSH1 0x20 ADD PUSH1 0x6 DUP3 ADD SLOAD DUP2 MSTORE POP POP SWAP2 POP DUP5 ISZERO DUP1 ISZERO PUSH2 0x1B72 JUMPI POP PUSH0 DUP3 PUSH1 0x80 ADD MLOAD GT JUMPDEST ISZERO PUSH2 0x1B80 JUMPI PUSH1 0x1 SWAP4 POP PUSH2 0x1B9B JUMP JUMPDEST DUP5 DUP1 ISZERO PUSH2 0x1B90 JUMPI POP PUSH0 DUP3 PUSH1 0x60 ADD MLOAD GT JUMPDEST ISZERO PUSH2 0x1B9A JUMPI PUSH1 0x1 SWAP4 POP JUMPDEST JUMPDEST DUP1 DUP1 PUSH2 0x1BA6 SWAP1 PUSH2 0x2757 JUMP JUMPDEST SWAP2 POP POP PUSH2 0x1A73 JUMP JUMPDEST POP POP SWAP2 POP SWAP2 JUMP JUMPDEST PUSH0 DUP1 DUP6 PUSH1 0x4 ADD SLOAD SWAP1 POP PUSH0 DUP5 DUP3 GT ISZERO PUSH2 0x1BCD JUMPI DUP5 PUSH2 0x1BCF JUMP JUMPDEST DUP2 JUMPDEST SWAP1 POP DUP1 DUP8 PUSH1 0x4 ADD PUSH0 DUP3 DUP3 SLOAD PUSH2 0x1BE4 SWAP2 SWAP1 PUSH2 0x2724 JUMP JUMPDEST SWAP3 POP POP DUP2 SWAP1 SSTORE POP DUP1 DUP6 PUSH2 0x1BF7 SWAP2 SWAP1 PUSH2 0x2724 JUMP JUMPDEST SWAP5 POP DUP4 DUP2 PUSH2 0x1C05 SWAP2 SWAP1 PUSH2 0x26CD JUMP JUMPDEST DUP8 PUSH1 0x3 ADD PUSH0 DUP3 DUP3 SLOAD PUSH2 0x1C17 SWAP2 SWAP1 PUSH2 0x266D JUMP JUMPDEST SWAP3 POP POP DUP2 SWAP1 SSTORE POP DUP1 DUP7 PUSH1 0x4 ADD PUSH0 DUP3 DUP3 SLOAD PUSH2 0x1C31 SWAP2 SWAP1 PUSH2 0x266D JUMP JUMPDEST SWAP3 POP POP DUP2 SWAP1 SSTORE POP DUP5 SWAP3 POP POP POP SWAP5 SWAP4 POP POP POP POP JUMP JUMPDEST PUSH0 DUP1 DUP4 DUP7 PUSH1 0x3 ADD SLOAD GT PUSH2 0x1C5E JUMPI DUP6 PUSH1 0x3 ADD SLOAD SWAP1 POP PUSH2 0x1C62 JUMP JUMPDEST DUP4 SWAP1 POP JUMPDEST DUP1 DUP7 PUSH1 0x3 ADD PUSH0 DUP3 DUP3 SLOAD PUSH2 0x1C75 SWAP2 SWAP1 PUSH2 0x2724 JUMP JUMPDEST SWAP3 POP POP DUP2 SWAP1 SSTORE POP DUP1 DUP5 PUSH2 0x1C88 SWAP2 SWAP1 PUSH2 0x2724 JUMP JUMPDEST SWAP4 POP DUP3 DUP2 PUSH2 0x1C96 SWAP2 SWAP1 PUSH2 0x27E6 JUMP JUMPDEST DUP7 PUSH1 0x4 ADD PUSH0 DUP3 DUP3 SLOAD PUSH2 0x1CA8 SWAP2 SWAP1 PUSH2 0x266D JUMP JUMPDEST SWAP3 POP POP DUP2 SWAP1 SSTORE POP DUP1 DUP6 PUSH1 0x3 ADD PUSH0 DUP3 DUP3 SLOAD PUSH2 0x1CC2 SWAP2 SWAP1 PUSH2 0x266D JUMP JUMPDEST SWAP3 POP POP DUP2 SWAP1 SSTORE POP DUP4 SWAP2 POP POP SWAP5 SWAP4 POP POP POP POP JUMP JUMPDEST PUSH0 PUSH1 0x8 PUSH0 CALLER PUSH20 0xFFFFFFFFFFFFFFFFFFFFFFFFFFFFFFFFFFFFFFFF AND PUSH20 0xFFFFFFFFFFFFFFFFFFFFFFFFFFFFFFFFFFFFFFFF AND DUP2 MSTORE PUSH1 0x20 ADD SWAP1 DUP2 MSTORE PUSH1 0x20 ADD PUSH0 KECCAK256 SWAP1 POP PUSH0 DUP2 DUP1 SLOAD SWAP1 POP SWAP1 POP PUSH0 DUP1 DUP5 ISZERO PUSH2 0x1D2D JUMPI DUP6 SWAP2 POP PUSH2 0x1D31 JUMP JUMPDEST DUP6 SWAP1 POP JUMPDEST PUSH0 PUSH1 0x40 MLOAD DUP1 PUSH1 0xE0 ADD PUSH1 0x40 MSTORE DUP1 CALLER PUSH20 0xFFFFFFFFFFFFFFFFFFFFFFFFFFFFFFFFFFFFFFFF AND DUP2 MSTORE PUSH1 0x20 ADD TIMESTAMP DUP2 MSTORE PUSH1 0x20 ADD PUSH1 0x7 SLOAD DUP2 MSTORE PUSH1 0x20 ADD DUP5 DUP2 MSTORE PUSH1 0x20 ADD DUP4 DUP2 MSTORE PUSH1 0x20 ADD PUSH0 ISZERO ISZERO DUP2 MSTORE PUSH1 0x20 ADD DUP7 DUP1 SLOAD SWAP1 POP DUP2 MSTORE POP SWAP1 POP DUP6 ISZERO PUSH2 0x1DA7 JUMPI PUSH1 0xD PUSH0 DUP2 SLOAD DUP1 SWAP3 SWAP2 SWAP1 PUSH2 0x1D9D SWAP1 PUSH2 0x2ADE JUMP JUMPDEST SWAP2 SWAP1 POP SSTORE POP PUSH2 0x1DBF JUMP JUMPDEST PUSH1 0xE PUSH0 DUP2 SLOAD DUP1 SWAP3 SWAP2 SWAP1 PUSH2 0x1DB9 SWAP1 PUSH2 0x2ADE JUMP JUMPDEST SWAP2 SWAP1 POP SSTORE POP JUMPDEST PUSH1 0x9 DUP2 SWAP1 DUP1 PUSH1 0x1 DUP2 SLOAD ADD DUP1 DUP3 SSTORE DUP1 SWAP2 POP POP PUSH1 0x1 SWAP1 SUB SWAP1 PUSH0 MSTORE PUSH1 0x20 PUSH0 KECCAK256 SWAP1 PUSH1 0x7 MUL ADD PUSH0 SWAP1 SWAP2 SWAP1 SWAP2 SWAP1 SWAP2 POP PUSH0 DUP3 ADD MLOAD DUP2 PUSH0 ADD PUSH0 PUSH2 0x100 EXP DUP2 SLOAD DUP2 PUSH20 0xFFFFFFFFFFFFFFFFFFFFFFFFFFFFFFFFFFFFFFFF MUL NOT AND SWAP1 DUP4 PUSH20 0xFFFFFFFFFFFFFFFFFFFFFFFFFFFFFFFFFFFFFFFF AND MUL OR SWAP1 SSTORE POP PUSH1 0x20 DUP3 ADD MLOAD DUP2 PUSH1 0x1 ADD SSTORE PUSH1 0x40 DUP3 ADD MLOAD DUP2 PUSH1 0x2 ADD SSTORE PUSH1 0x60 DUP3 ADD MLOAD DUP2 PUSH1 0x3 ADD SSTORE PUSH1 0x80 DUP3 ADD MLOAD DUP2 PUSH1 0x4 ADD SSTORE PUSH1 0xA0 DUP3 ADD MLOAD DUP2 PUSH1 0x5 ADD PUSH0 PUSH2 0x100 EXP DUP2 SLOAD DUP2 PUSH1 0xFF MUL NOT AND SWAP1 DUP4 ISZERO ISZERO MUL OR SWAP1 SSTORE POP PUSH1 0xC0 DUP3 ADD MLOAD DUP2 PUSH1 0x6 ADD SSTORE POP POP DUP5 DUP5 SWAP1 DUP1 PUSH1 0x1 DUP2 SLOAD ADD DUP1 DUP3 SSTORE DUP1 SWAP2 POP POP PUSH1 0x1 SWAP1 SUB SWAP1 PUSH0 MSTORE PUSH1 0x20 PUSH0 KECCAK256 ADD PUSH0 SWAP1 SWAP2 SWAP1 SWAP2 SWAP1 SWAP2 POP SSTORE POP POP POP POP POP POP POP JUMP JUMPDEST PUSH0 PUSH20 0xFFFFFFFFFFFFFFFFFFFFFFFFFFFFFFFFFFFFFFFF AND DUP2 PUSH20 0xFFFFFFFFFFFFFFFFFFFFFFFFFFFFFFFFFFFFFFFF AND SUB PUSH2 0x1EE4 JUMPI PUSH0 DUP1 REVERT JUMPDEST DUP1 PUSH20 0xFFFFFFFFFFFFFFFFFFFFFFFFFFFFFFFFFFFFFFFF AND PUSH0 DUP1 SLOAD SWAP1 PUSH2 0x100 EXP SWAP1 DIV PUSH20 0xFFFFFFFFFFFFFFFFFFFFFFFFFFFFFFFFFFFFFFFF AND PUSH20 0xFFFFFFFFFFFFFFFFFFFFFFFFFFFFFFFFFFFFFFFF AND PUSH32 0x8BE0079C531659141344CD1FD0A4F28419497F9722A3DAAFE3B4186F6B6457E0 PUSH1 0x40 MLOAD PUSH1 0x40 MLOAD DUP1 SWAP2 SUB SWAP1 LOG3 DUP1 PUSH0 DUP1 PUSH2 0x100 EXP DUP2 SLOAD DUP2 PUSH20 0xFFFFFFFFFFFFFFFFFFFFFFFFFFFFFFFFFFFFFFFF MUL NOT AND SWAP1 DUP4 PUSH20 0xFFFFFFFFFFFFFFFFFFFFFFFFFFFFFFFFFFFFFFFF AND MUL OR SWAP1 SSTORE POP POP JUMP JUMPDEST PUSH0 DUP1 PUSH1 0x1 DUP5 DUP1 SLOAD SWAP1 POP PUSH2 0x1FB2 SWAP2 SWAP1 PUSH2 0x2724 JUMP JUMPDEST SWAP1 POP PUSH0 DUP2 DUP5 EQ SWAP1 POP DUP1 PUSH2 0x1FFB JUMPI DUP5 DUP3 DUP2 SLOAD DUP2 LT PUSH2 0x1FD2 JUMPI PUSH2 0x1FD1 PUSH2 0x2613 JUMP JUMPDEST JUMPDEST SWAP1 PUSH0 MSTORE PUSH1 0x20 PUSH0 KECCAK256 ADD SLOAD DUP6 DUP6 DUP2 SLOAD DUP2 LT PUSH2 0x1FEE JUMPI PUSH2 0x1FED PUSH2 0x2613 JUMP JUMPDEST JUMPDEST SWAP1 PUSH0 MSTORE PUSH1 0x20 PUSH0 KECCAK256 ADD DUP2 SWAP1 SSTORE POP JUMPDEST DUP5 DUP1 SLOAD DUP1 PUSH2 0x200C JUMPI PUSH2 0x200B PUSH2 0x2B25 JUMP JUMPDEST JUMPDEST PUSH1 0x1 SWAP1 SUB DUP2 DUP2 SWAP1 PUSH0 MSTORE PUSH1 0x20 PUSH0 KECCAK256 ADD PUSH0 SWAP1 SSTORE SWAP1 SSTORE DUP1 ISZERO SWAP3 POP POP POP SWAP3 SWAP2 POP POP JUMP JUMPDEST PUSH0 DUP1 PUSH1 0x1 DUP5 DUP1 SLOAD SWAP1 POP PUSH2 0x203E SWAP2 SWAP1 PUSH2 0x2724 JUMP JUMPDEST SWAP1 POP PUSH0 DUP2 DUP5 EQ SWAP1 POP DUP1 PUSH2 0x214D JUMPI DUP5 DUP3 DUP2 SLOAD DUP2 LT PUSH2 0x205E JUMPI PUSH2 0x205D PUSH2 0x2613 JUMP JUMPDEST JUMPDEST SWAP1 PUSH0 MSTORE PUSH1 0x20 PUSH0 KECCAK256 SWAP1 PUSH1 0x7 MUL ADD DUP6 DUP6 DUP2 SLOAD DUP2 LT PUSH2 0x207D JUMPI PUSH2 0x207C PUSH2 0x2613 JUMP JUMPDEST JUMPDEST SWAP1 PUSH0 MSTORE PUSH1 0x20 PUSH0 KECCAK256 SWAP1 PUSH1 0x7 MUL ADD PUSH0 DUP3 ADD PUSH0 SWAP1 SLOAD SWAP1 PUSH2 0x100 EXP SWAP1 DIV PUSH20 0xFFFFFFFFFFFFFFFFFFFFFFFFFFFFFFFFFFFFFFFF AND DUP2 PUSH0 ADD PUSH0 PUSH2 0x100 EXP DUP2 SLOAD DUP2 PUSH20 0xFFFFFFFFFFFFFFFFFFFFFFFFFFFFFFFFFFFFFFFF MUL NOT AND SWAP1 DUP4 PUSH20 0xFFFFFFFFFFFFFFFFFFFFFFFFFFFFFFFFFFFFFFFF AND MUL OR SWAP1 SSTORE POP PUSH1 0x1 DUP3 ADD SLOAD DUP2 PUSH1 0x1 ADD SSTORE PUSH1 0x2 DUP3 ADD SLOAD DUP2 PUSH1 0x2 ADD SSTORE PUSH1 0x3 DUP3 ADD SLOAD DUP2 PUSH1 0x3 ADD SSTORE PUSH1 0x4 DUP3 ADD SLOAD DUP2 PUSH1 0x4 ADD SSTORE PUSH1 0x5 DUP3 ADD PUSH0 SWAP1 SLOAD SWAP1 PUSH2 0x100 EXP SWAP1 DIV PUSH1 0xFF AND DUP2 PUSH1 0x5 ADD PUSH0 PUSH2 0x100 EXP DUP2 SLOAD DUP2 PUSH1 0xFF MUL NOT AND SWAP1 DUP4 ISZERO ISZERO MUL OR SWAP1 SSTORE POP PUSH1 0x6 DUP3 ADD SLOAD DUP2 PUSH1 0x6 ADD SSTORE SWAP1 POP POP JUMPDEST DUP5 DUP1 SLOAD DUP1 PUSH2 0x215E JUMPI PUSH2 0x215D PUSH2 0x2B25 JUMP JUMPDEST JUMPDEST PUSH1 0x1 SWAP1 SUB DUP2 DUP2 SWAP1 PUSH0 MSTORE PUSH1 0x20 PUSH0 KECCAK256 SWAP1 PUSH1 0x7 MUL ADD PUSH0 DUP1 DUP3 ADD PUSH0 PUSH2 0x100 EXP DUP2 SLOAD SWAP1 PUSH20 0xFFFFFFFFFFFFFFFFFFFFFFFFFFFFFFFFFFFFFFFF MUL NOT AND SWAP1 SSTORE PUSH1 0x1 DUP3 ADD PUSH0 SWAP1 SSTORE PUSH1 0x2 DUP3 ADD PUSH0 SWAP1 SSTORE PUSH1 0x3 DUP3 ADD PUSH0 SWAP1 SSTORE PUSH1 0x4 DUP3 ADD PUSH0 SWAP1 SSTORE PUSH1 0x5 DUP3 ADD PUSH0 PUSH2 0x100 EXP DUP2 SLOAD SWAP1 PUSH1 0xFF MUL NOT AND SWAP1 SSTORE PUSH1 0x6 DUP3 ADD PUSH0 SWAP1 SSTORE POP POP SWAP1 SSTORE DUP1 ISZERO SWAP3 POP POP POP SWAP3 SWAP2 POP POP JUMP JUMPDEST PUSH1 0x40 MLOAD DUP1 PUSH1 0xC0 ADD PUSH1 0x40 MSTORE DUP1 PUSH0 PUSH20 0xFFFFFFFFFFFFFFFFFFFFFFFFFFFFFFFFFFFFFFFF AND DUP2 MSTORE PUSH1 0x20 ADD PUSH0 DUP2 MSTORE PUSH1 0x20 ADD PUSH0 DUP2 MSTORE PUSH1 0x20 ADD PUSH0 DUP2 MSTORE PUSH1 0x20 ADD PUSH0 DUP2 MSTORE PUSH1 0x20 ADD PUSH0 ISZERO ISZERO DUP2 MSTORE POP SWAP1 JUMP JUMPDEST PUSH1 0x40 MLOAD DUP1 PUSH1 0xE0 ADD PUSH1 0x40 MSTORE DUP1 PUSH0 PUSH20 0xFFFFFFFFFFFFFFFFFFFFFFFFFFFFFFFFFFFFFFFF AND DUP2 MSTORE PUSH1 0x20 ADD PUSH0 DUP2 MSTORE PUSH1 0x20 ADD PUSH0 DUP2 MSTORE PUSH1 0x20 ADD PUSH0 DUP2 MSTORE PUSH1 0x20 ADD PUSH0 DUP2 MSTORE PUSH1 0x20 ADD PUSH0 ISZERO ISZERO DUP2 MSTORE PUSH1 0x20 ADD PUSH0 DUP2 MSTORE POP SWAP1 JUMP JUMPDEST PUSH0 PUSH20 0xFFFFFFFFFFFFFFFFFFFFFFFFFFFFFFFFFFFFFFFF DUP3 AND SWAP1 POP SWAP2 SWAP1 POP JUMP JUMPDEST PUSH0 PUSH2 0x229B DUP3 PUSH2 0x2272 JUMP JUMPDEST SWAP1 POP SWAP2 SWAP1 POP JUMP JUMPDEST PUSH2 0x22AB DUP2 PUSH2 0x2291 JUMP JUMPDEST DUP3 MSTORE POP POP JUMP JUMPDEST PUSH0 PUSH1 0x20 DUP3 ADD SWAP1 POP PUSH2 0x22C4 PUSH0 DUP4 ADD DUP5 PUSH2 0x22A2 JUMP JUMPDEST SWAP3 SWAP2 POP POP JUMP JUMPDEST PUSH0 DUP1 REVERT JUMPDEST PUSH0 DUP2 SWAP1 POP SWAP2 SWAP1 POP JUMP JUMPDEST PUSH2 0x22E0 DUP2 PUSH2 0x22CE JUMP JUMPDEST DUP2 EQ PUSH2 0x22EA JUMPI PUSH0 DUP1 REVERT JUMPDEST POP JUMP JUMPDEST PUSH0 DUP2 CALLDATALOAD SWAP1 POP PUSH2 0x22FB DUP2 PUSH2 0x22D7 JUMP JUMPDEST SWAP3 SWAP2 POP POP JUMP JUMPDEST PUSH0 PUSH1 0x20 DUP3 DUP5 SUB SLT ISZERO PUSH2 0x2316 JUMPI PUSH2 0x2315 PUSH2 0x22CA JUMP JUMPDEST JUMPDEST PUSH0 PUSH2 0x2323 DUP5 DUP3 DUP6 ADD PUSH2 0x22ED JUMP JUMPDEST SWAP2 POP POP SWAP3 SWAP2 POP POP JUMP JUMPDEST PUSH2 0x2335 DUP2 PUSH2 0x22CE JUMP JUMPDEST DUP3 MSTORE POP POP JUMP JUMPDEST PUSH0 PUSH1 0x20 DUP3 ADD SWAP1 POP PUSH2 0x234E PUSH0 DUP4 ADD DUP5 PUSH2 0x232C JUMP JUMPDEST SWAP3 SWAP2 POP POP JUMP JUMPDEST PUSH2 0x235D DUP2 PUSH2 0x2291 JUMP JUMPDEST DUP2 EQ PUSH2 0x2367 JUMPI PUSH0 DUP1 REVERT JUMPDEST POP JUMP JUMPDEST PUSH0 DUP2 CALLDATALOAD SWAP1 POP PUSH2 0x2378 DUP2 PUSH2 0x2354 JUMP JUMPDEST SWAP3 SWAP2 POP POP JUMP JUMPDEST PUSH0 PUSH1 0x20 DUP3 DUP5 SUB SLT ISZERO PUSH2 0x2393 JUMPI PUSH2 0x2392 PUSH2 0x22CA JUMP JUMPDEST JUMPDEST PUSH0 PUSH2 0x23A0 DUP5 DUP3 DUP6 ADD PUSH2 0x236A JUMP JUMPDEST SWAP2 POP POP SWAP3 SWAP2 POP POP JUMP JUMPDEST PUSH2 0x23B2 DUP2 PUSH2 0x2291 JUMP JUMPDEST DUP3 MSTORE POP POP JUMP JUMPDEST PUSH2 0x23C1 DUP2 PUSH2 0x22CE JUMP JUMPDEST DUP3 MSTORE POP POP JUMP JUMPDEST PUSH0 DUP2 ISZERO ISZERO SWAP1 POP SWAP2 SWAP1 POP JUMP JUMPDEST PUSH2 0x23DB DUP2 PUSH2 0x23C7 JUMP JUMPDEST DUP3 MSTORE POP POP JUMP JUMPDEST PUSH1 0xC0 DUP3 ADD PUSH0 DUP3 ADD MLOAD PUSH2 0x23F5 PUSH0 DUP6 ADD DUP3 PUSH2 0x23A9 JUMP JUMPDEST POP PUSH1 0x20 DUP3 ADD MLOAD PUSH2 0x2408 PUSH1 0x20 DUP6 ADD DUP3 PUSH2 0x23B8 JUMP JUMPDEST POP PUSH1 0x40 DUP3 ADD MLOAD PUSH2 0x241B PUSH1 0x40 DUP6 ADD DUP3 PUSH2 0x23B8 JUMP JUMPDEST POP PUSH1 0x60 DUP3 ADD MLOAD PUSH2 0x242E PUSH1 0x60 DUP6 ADD DUP3 PUSH2 0x23B8 JUMP JUMPDEST POP PUSH1 0x80 DUP3 ADD MLOAD PUSH2 0x2441 PUSH1 0x80 DUP6 ADD DUP3 PUSH2 0x23B8 JUMP JUMPDEST POP PUSH1 0xA0 DUP3 ADD MLOAD PUSH2 0x2454 PUSH1 0xA0 DUP6 ADD DUP3 PUSH2 0x23D2 JUMP JUMPDEST POP POP POP POP JUMP JUMPDEST PUSH0 PUSH1 0xC0 DUP3 ADD SWAP1 POP PUSH2 0x246D PUSH0 DUP4 ADD DUP5 PUSH2 0x23E1 JUMP JUMPDEST SWAP3 SWAP2 POP POP JUMP JUMPDEST PUSH2 0x247C DUP2 PUSH2 0x23C7 JUMP JUMPDEST DUP2 EQ PUSH2 0x2486 JUMPI PUSH0 DUP1 REVERT JUMPDEST POP JUMP JUMPDEST PUSH0 DUP2 CALLDATALOAD SWAP1 POP PUSH2 0x2497 DUP2 PUSH2 0x2473 JUMP JUMPDEST SWAP3 SWAP2 POP POP JUMP JUMPDEST PUSH0 PUSH1 0x20 DUP3 DUP5 SUB SLT ISZERO PUSH2 0x24B2 JUMPI PUSH2 0x24B1 PUSH2 0x22CA JUMP JUMPDEST JUMPDEST PUSH0 PUSH2 0x24BF DUP5 DUP3 DUP6 ADD PUSH2 0x2489 JUMP JUMPDEST SWAP2 POP POP SWAP3 SWAP2 POP POP JUMP JUMPDEST PUSH2 0x24D1 DUP2 PUSH2 0x23C7 JUMP JUMPDEST DUP3 MSTORE POP POP JUMP JUMPDEST PUSH0 PUSH1 0x20 DUP3 ADD SWAP1 POP PUSH2 0x24EA PUSH0 DUP4 ADD DUP5 PUSH2 0x24C8 JUMP JUMPDEST SWAP3 SWAP2 POP POP JUMP JUMPDEST PUSH0 PUSH1 0xE0 DUP3 ADD SWAP1 POP PUSH2 0x2503 PUSH0 DUP4 ADD DUP11 PUSH2 0x22A2 JUMP JUMPDEST PUSH2 0x2510 PUSH1 0x20 DUP4 ADD DUP10 PUSH2 0x232C JUMP JUMPDEST PUSH2 0x251D PUSH1 0x40 DUP4 ADD DUP9 PUSH2 0x232C JUMP JUMPDEST PUSH2 0x252A PUSH1 0x60 DUP4 ADD DUP8 PUSH2 0x232C JUMP JUMPDEST PUSH2 0x2537 PUSH1 0x80 DUP4 ADD DUP7 PUSH2 0x232C JUMP JUMPDEST PUSH2 0x2544 PUSH1 0xA0 DUP4 ADD DUP6 PUSH2 0x24C8 JUMP JUMPDEST PUSH2 0x2551 PUSH1 0xC0 DUP4 ADD DUP5 PUSH2 0x232C JUMP JUMPDEST SWAP9 SWAP8 POP POP POP POP POP POP POP POP JUMP JUMPDEST PUSH0 DUP1 PUSH1 0x40 DUP4 DUP6 SUB SLT ISZERO PUSH2 0x2573 JUMPI PUSH2 0x2572 PUSH2 0x22CA JUMP JUMPDEST JUMPDEST PUSH0 PUSH2 0x2580 DUP6 DUP3 DUP7 ADD PUSH2 0x236A JUMP JUMPDEST SWAP3 POP POP PUSH1 0x20 PUSH2 0x2591 DUP6 DUP3 DUP7 ADD PUSH2 0x22ED JUMP JUMPDEST SWAP2 POP POP SWAP3 POP SWAP3 SWAP1 POP JUMP JUMPDEST PUSH0 DUP3 DUP3 MSTORE PUSH1 0x20 DUP3 ADD SWAP1 POP SWAP3 SWAP2 POP POP JUMP JUMPDEST PUSH32 0x496E646578206F7574206F662072616E67650000000000000000000000000000 PUSH0 DUP3 ADD MSTORE POP JUMP JUMPDEST PUSH0 PUSH2 0x25DF PUSH1 0x12 DUP4 PUSH2 0x259B JUMP JUMPDEST SWAP2 POP PUSH2 0x25EA DUP3 PUSH2 0x25AB JUMP JUMPDEST PUSH1 0x20 DUP3 ADD SWAP1 POP SWAP2 SWAP1 POP JUMP JUMPDEST PUSH0 PUSH1 0x20 DUP3 ADD SWAP1 POP DUP2 DUP2 SUB PUSH0 DUP4 ADD MSTORE PUSH2 0x260C DUP2 PUSH2 0x25D3 JUMP JUMPDEST SWAP1 POP SWAP2 SWAP1 POP JUMP JUMPDEST PUSH32 0x4E487B7100000000000000000000000000000000000000000000000000000000 PUSH0 MSTORE PUSH1 0x32 PUSH1 0x4 MSTORE PUSH1 0x24 PUSH0 REVERT JUMPDEST PUSH32 0x4E487B7100000000000000000000000000000000000000000000000000000000 PUSH0 MSTORE PUSH1 0x11 PUSH1 0x4 MSTORE PUSH1 0x24 PUSH0 REVERT JUMPDEST PUSH0 PUSH2 0x2677 DUP3 PUSH2 0x22CE JUMP JUMPDEST SWAP2 POP PUSH2 0x2682 DUP4 PUSH2 0x22CE JUMP JUMPDEST SWAP3 POP DUP3 DUP3 ADD SWAP1 POP DUP1 DUP3 GT ISZERO PUSH2 0x269A JUMPI PUSH2 0x2699 PUSH2 0x2640 JUMP JUMPDEST JUMPDEST SWAP3 SWAP2 POP POP JUMP JUMPDEST PUSH32 0x4E487B7100000000000000000000000000000000000000000000000000000000 PUSH0 MSTORE PUSH1 0x12 PUSH1 0x4 MSTORE PUSH1 0x24 PUSH0 REVERT JUMPDEST PUSH0 PUSH2 0x26D7 DUP3 PUSH2 0x22CE JUMP JUMPDEST SWAP2 POP PUSH2 0x26E2 DUP4 PUSH2 0x22CE JUMP JUMPDEST SWAP3 POP DUP3 PUSH2 0x26F2 JUMPI PUSH2 0x26F1 PUSH2 0x26A0 JUMP JUMPDEST JUMPDEST DUP3 DUP3 DIV SWAP1 POP SWAP3 SWAP2 POP POP JUMP JUMPDEST PUSH0 PUSH1 0x40 DUP3 ADD SWAP1 POP PUSH2 0x2710 PUSH0 DUP4 ADD DUP6 PUSH2 0x232C JUMP JUMPDEST PUSH2 0x271D PUSH1 0x20 DUP4 ADD DUP5 PUSH2 0x22A2 JUMP JUMPDEST SWAP4 SWAP3 POP POP POP JUMP JUMPDEST PUSH0 PUSH2 0x272E DUP3 PUSH2 0x22CE JUMP JUMPDEST SWAP2 POP PUSH2 0x2739 DUP4 PUSH2 0x22CE JUMP JUMPDEST SWAP3 POP DUP3 DUP3 SUB SWAP1 POP DUP2 DUP2 GT ISZERO PUSH2 0x2751 JUMPI PUSH2 0x2750 PUSH2 0x2640 JUMP JUMPDEST JUMPDEST SWAP3 SWAP2 POP POP JUMP JUMPDEST PUSH0 PUSH2 0x2761 DUP3 PUSH2 0x22CE JUMP JUMPDEST SWAP2 POP PUSH0 DUP3 SUB PUSH2 0x2773 JUMPI PUSH2 0x2772 PUSH2 0x2640 JUMP JUMPDEST JUMPDEST PUSH1 0x1 DUP3 SUB SWAP1 POP SWAP2 SWAP1 POP JUMP JUMPDEST PUSH32 0x496E73756666696369656E74206C697175696469747900000000000000000000 PUSH0 DUP3 ADD MSTORE POP JUMP JUMPDEST PUSH0 PUSH2 0x27B2 PUSH1 0x16 DUP4 PUSH2 0x259B JUMP JUMPDEST SWAP2 POP PUSH2 0x27BD DUP3 PUSH2 0x277E JUMP JUMPDEST PUSH1 0x20 DUP3 ADD SWAP1 POP SWAP2 SWAP1 POP JUMP JUMPDEST PUSH0 PUSH1 0x20 DUP3 ADD SWAP1 POP DUP2 DUP2 SUB PUSH0 DUP4 ADD MSTORE PUSH2 0x27DF DUP2 PUSH2 0x27A6 JUMP JUMPDEST SWAP1 POP SWAP2 SWAP1 POP JUMP JUMPDEST PUSH0 PUSH2 0x27F0 DUP3 PUSH2 0x22CE JUMP JUMPDEST SWAP2 POP PUSH2 0x27FB DUP4 PUSH2 0x22CE JUMP JUMPDEST SWAP3 POP DUP3 DUP3 MUL PUSH2 0x2809 DUP2 PUSH2 0x22CE JUMP JUMPDEST SWAP2 POP DUP3 DUP3 DIV DUP5 EQ DUP4 ISZERO OR PUSH2 0x2820 JUMPI PUSH2 0x281F PUSH2 0x2640 JUMP JUMPDEST JUMPDEST POP SWAP3 SWAP2 POP POP JUMP JUMPDEST PUSH0 PUSH1 0x60 DUP3 ADD SWAP1 POP PUSH2 0x283A PUSH0 DUP4 ADD DUP7 PUSH2 0x22A2 JUMP JUMPDEST PUSH2 0x2847 PUSH1 0x20 DUP4 ADD DUP6 PUSH2 0x22A2 JUMP JUMPDEST PUSH2 0x2854 PUSH1 0x40 DUP4 ADD DUP5 PUSH2 0x232C JUMP JUMPDEST SWAP5 SWAP4 POP POP POP POP JUMP JUMPDEST PUSH0 DUP2 MLOAD SWAP1 POP PUSH2 0x286A DUP2 PUSH2 0x2473 JUMP JUMPDEST SWAP3 SWAP2 POP POP JUMP JUMPDEST PUSH0 PUSH1 0x20 DUP3 DUP5 SUB SLT ISZERO PUSH2 0x2885 JUMPI PUSH2 0x2884 PUSH2 0x22CA JUMP JUMPDEST JUMPDEST PUSH0 PUSH2 0x2892 DUP5 DUP3 DUP6 ADD PUSH2 0x285C JUMP JUMPDEST SWAP2 POP POP SWAP3 SWAP2 POP POP JUMP JUMPDEST PUSH32 0x5472616E73666572206661696C65640000000000000000000000000000000000 PUSH0 DUP3 ADD MSTORE POP JUMP JUMPDEST PUSH0 PUSH2 0x28CF PUSH1 0xF DUP4 PUSH2 0x259B JUMP JUMPDEST SWAP2 POP PUSH2 0x28DA DUP3 PUSH2 0x289B JUMP JUMPDEST PUSH1 0x20 DUP3 ADD SWAP1 POP SWAP2 SWAP1 POP JUMP JUMPDEST PUSH0 PUSH1 0x20 DUP3 ADD SWAP1 POP DUP2 DUP2 SUB PUSH0 DUP4 ADD MSTORE PUSH2 0x28FC DUP2 PUSH2 0x28C3 JUMP JUMPDEST SWAP1 POP SWAP2 SWAP1 POP JUMP JUMPDEST PUSH32 0x4C697175696469747920616464726573732069732079657420746F2062652061 PUSH0 DUP3 ADD MSTORE PUSH32 0x737369676E656400000000000000000000000000000000000000000000000000 PUSH1 0x20 DUP3 ADD MSTORE POP JUMP JUMPDEST PUSH0 PUSH2 0x295D PUSH1 0x27 DUP4 PUSH2 0x259B JUMP JUMPDEST SWAP2 POP PUSH2 0x2968 DUP3 PUSH2 0x2903 JUMP JUMPDEST PUSH1 0x40 DUP3 ADD SWAP1 POP SWAP2 SWAP1 POP JUMP JUMPDEST PUSH0 PUSH1 0x20 DUP3 ADD SWAP1 POP DUP2 DUP2 SUB PUSH0 DUP4 ADD MSTORE PUSH2 0x298A DUP2 PUSH2 0x2951 JUMP JUMPDEST SWAP1 POP SWAP2 SWAP1 POP JUMP JUMPDEST PUSH32 0x4E487B7100000000000000000000000000000000000000000000000000000000 PUSH0 MSTORE PUSH1 0x41 PUSH1 0x4 MSTORE PUSH1 0x24 PUSH0 REVERT JUMPDEST PUSH0 PUSH1 0x40 DUP3 ADD SWAP1 POP PUSH2 0x29D1 PUSH0 DUP4 ADD DUP6 PUSH2 0x22A2 JUMP JUMPDEST PUSH2 0x29DE PUSH1 0x20 DUP4 ADD DUP5 PUSH2 0x232C JUMP JUMPDEST SWAP4 SWAP3 POP POP POP JUMP JUMPDEST PUSH0 DUP2 MLOAD SWAP1 POP PUSH2 0x29F3 DUP2 PUSH2 0x22D7 JUMP JUMPDEST SWAP3 SWAP2 POP POP JUMP JUMPDEST PUSH0 PUSH1 0x20 DUP3 DUP5 SUB SLT ISZERO PUSH2 0x2A0E JUMPI PUSH2 0x2A0D PUSH2 0x22CA JUMP JUMPDEST JUMPDEST PUSH0 PUSH2 0x2A1B DUP5 DUP3 DUP6 ADD PUSH2 0x29E5 JUMP JUMPDEST SWAP2 POP POP SWAP3 SWAP2 POP POP JUMP JUMPDEST PUSH0 DUP2 MLOAD SWAP1 POP SWAP2 SWAP1 POP JUMP JUMPDEST PUSH0 DUP3 DUP3 MSTORE PUSH1 0x20 DUP3 ADD SWAP1 POP SWAP3 SWAP2 POP POP JUMP JUMPDEST DUP3 DUP2 DUP4 MCOPY PUSH0 DUP4 DUP4 ADD MSTORE POP POP POP JUMP JUMPDEST PUSH0 PUSH1 0x1F NOT PUSH1 0x1F DUP4 ADD AND SWAP1 POP SWAP2 SWAP1 POP JUMP JUMPDEST PUSH0 PUSH2 0x2A66 DUP3 PUSH2 0x2A24 JUMP JUMPDEST PUSH2 0x2A70 DUP2 DUP6 PUSH2 0x2A2E JUMP JUMPDEST SWAP4 POP PUSH2 0x2A80 DUP2 DUP6 PUSH1 0x20 DUP7 ADD PUSH2 0x2A3E JUMP JUMPDEST PUSH2 0x2A89 DUP2 PUSH2 0x2A4C JUMP JUMPDEST DUP5 ADD SWAP2 POP POP SWAP3 SWAP2 POP POP JUMP JUMPDEST PUSH0 PUSH1 0x80 DUP3 ADD SWAP1 POP PUSH2 0x2AA7 PUSH0 DUP4 ADD DUP8 PUSH2 0x22A2 JUMP JUMPDEST PUSH2 0x2AB4 PUSH1 0x20 DUP4 ADD DUP7 PUSH2 0x22A2 JUMP JUMPDEST PUSH2 0x2AC1 PUSH1 0x40 DUP4 ADD DUP6 PUSH2 0x232C JUMP JUMPDEST DUP2 DUP2 SUB PUSH1 0x60 DUP4 ADD MSTORE PUSH2 0x2AD3 DUP2 DUP5 PUSH2 0x2A5C JUMP JUMPDEST SWAP1 POP SWAP6 SWAP5 POP POP POP POP POP JUMP JUMPDEST PUSH0 PUSH2 0x2AE8 DUP3 PUSH2 0x22CE JUMP JUMPDEST SWAP2 POP PUSH32 0xFFFFFFFFFFFFFFFFFFFFFFFFFFFFFFFFFFFFFFFFFFFFFFFFFFFFFFFFFFFFFFFF DUP3 SUB PUSH2 0x2B1A JUMPI PUSH2 0x2B19 PUSH2 0x2640 JUMP JUMPDEST JUMPDEST PUSH1 0x1 DUP3 ADD SWAP1 POP SWAP2 SWAP1 POP JUMP JUMPDEST PUSH32 0x4E487B7100000000000000000000000000000000000000000000000000000000 PUSH0 MSTORE PUSH1 0x31 PUSH1 0x4 MSTORE PUSH1 0x24 PUSH0 REVERT INVALID LOG2 PUSH5 0x6970667358 0x22 SLT KECCAK256 SELFBALANCE MSIZE 0xD2 SWAP11 SWAP12 LOG1 0xD7 0x23 0xB0 0xB7 STOP CALLDATACOPY 0xD5 0xD PUSH14 0x114C342D82A9273A958E87D88C78 0xD8 GASPRICE 0xEE PUSH5 0x736F6C6343 STOP ADDMOD NOT STOP CALLER "
				},
				"gasEstimates": {
					"creation": {
						"codeDepositCost": "2228800",
						"executionCost": "50910",
						"totalCost": "2279710"
					},
					"external": {
						"FFT()": "2532",
						"NFT()": "2597",
						"_collector()": "2531",
						"_fees()": "2536",
						"_liquidities(uint256)": "infinite",
						"_liquidity()": "2554",
						"_price()": "2493",
						"depositFFT(uint256)": "infinite",
						"depositNFT(uint256)": "infinite",
						"fftLiquidity()": "2537",
						"getLiquidityCount(bool)": "2775",
						"getPrice()": "infinite",
						"isOwner()": "2535",
						"nftLiquidity()": "2515",
						"owner()": "2626",
						"queryLiquid(uint256)": "infinite",
						"queryLiquidbyDepositor(address,uint256)": "infinite",
						"renounceOwnership()": "29971",
						"setCollector(address)": "27028",
						"setFFT(address)": "51317",
						"setLiquidity(address)": "infinite",
						"setNFT(address)": "51272",
						"swapFFT(uint256)": "infinite",
						"swapNFT(uint256)": "infinite",
						"transferOwnership(address)": "30724",
						"withdrawLiquidity(uint256)": "infinite"
					},
					"internal": {
						"_createLiquid(uint256,bool)": "infinite",
						"_deductFee(uint256)": "infinite",
						"_findSuitableLiquid(bool)": "infinite",
						"_removeItem(struct HotswapControllerBase.Liquid storage ref[] storage pointer,uint256)": "infinite",
						"_removeItem(uint256[] storage pointer,uint256)": "infinite",
						"_removeLiquidity(struct HotswapControllerBase.Liquid memory,uint256)": "infinite",
						"_swapFFTLiquid(struct HotswapControllerBase.Liquid storage pointer,struct HotswapControllerBase.Liquid storage pointer,uint256,uint256)": "infinite",
						"_swapNFTLiquid(struct HotswapControllerBase.Liquid storage pointer,struct HotswapControllerBase.Liquid storage pointer,uint256,uint256)": "infinite"
					}
				},
				"methodIdentifiers": {
					"FFT()": "04bb60ce",
					"NFT()": "7c0b8de2",
					"_collector()": "8e991592",
					"_fees()": "d212a69a",
					"_liquidities(uint256)": "c80f4e35",
					"_liquidity()": "491d0a56",
					"_price()": "235b6ea1",
					"depositFFT(uint256)": "dd81b5ae",
					"depositNFT(uint256)": "e91a7ca6",
					"fftLiquidity()": "3bd11f57",
					"getLiquidityCount(bool)": "6cc62992",
					"getPrice()": "98d5fdca",
					"isOwner()": "8f32d59b",
					"nftLiquidity()": "678660fb",
					"owner()": "8da5cb5b",
					"queryLiquid(uint256)": "41796a17",
					"queryLiquidbyDepositor(address,uint256)": "e53442f0",
					"renounceOwnership()": "715018a6",
					"setCollector(address)": "fb5b82d0",
					"setFFT(address)": "db9fcd01",
					"setLiquidity(address)": "36171e0e",
					"setNFT(address)": "f56e9c66",
					"swapFFT(uint256)": "4e36245d",
					"swapNFT(uint256)": "dcc9606f",
					"transferOwnership(address)": "f2fde38b",
					"withdrawLiquidity(uint256)": "0a861f2a"
				}
			},
			"storageLayout": {
				"storage": [
					{
						"astId": 1421,
						"contract": "contracts/HotswapController.sol:HotswapController",
						"label": "_owner",
						"offset": 0,
						"slot": "0",
						"type": "t_address"
					},
					{
						"astId": 1364,
						"contract": "contracts/HotswapController.sol:HotswapController",
						"label": "NFT",
						"offset": 0,
						"slot": "1",
						"type": "t_address"
					},
					{
						"astId": 1366,
						"contract": "contracts/HotswapController.sol:HotswapController",
						"label": "FFT",
						"offset": 0,
						"slot": "2",
						"type": "t_address"
					},
					{
						"astId": 1369,
						"contract": "contracts/HotswapController.sol:HotswapController",
						"label": "_fft",
						"offset": 0,
						"slot": "3",
						"type": "t_contract(ERC20)1590"
					},
					{
						"astId": 1372,
						"contract": "contracts/HotswapController.sol:HotswapController",
						"label": "_nft",
						"offset": 0,
						"slot": "4",
						"type": "t_contract(ERC721Enumerable)1670"
					},
					{
						"astId": 1125,
						"contract": "contracts/HotswapController.sol:HotswapController",
						"label": "_collector",
						"offset": 0,
						"slot": "5",
						"type": "t_address"
					},
					{
						"astId": 1127,
						"contract": "contracts/HotswapController.sol:HotswapController",
						"label": "_liquidity",
						"offset": 0,
						"slot": "6",
						"type": "t_address"
					},
					{
						"astId": 1129,
						"contract": "contracts/HotswapController.sol:HotswapController",
						"label": "_price",
						"offset": 0,
						"slot": "7",
						"type": "t_uint256"
					},
					{
						"astId": 1134,
						"contract": "contracts/HotswapController.sol:HotswapController",
						"label": "_liquidityByUser",
						"offset": 0,
						"slot": "8",
						"type": "t_mapping(t_address,t_array(t_uint256)dyn_storage)"
					},
					{
						"astId": 1138,
						"contract": "contracts/HotswapController.sol:HotswapController",
						"label": "_liquidities",
						"offset": 0,
						"slot": "9",
						"type": "t_array(t_struct(Liquid)1224_storage)dyn_storage"
					},
					{
						"astId": 1140,
						"contract": "contracts/HotswapController.sol:HotswapController",
						"label": "_fees",
						"offset": 0,
						"slot": "10",
						"type": "t_uint256"
					},
					{
						"astId": 45,
						"contract": "contracts/HotswapController.sol:HotswapController",
						"label": "nftLiquidity",
						"offset": 0,
						"slot": "11",
						"type": "t_uint256"
					},
					{
						"astId": 47,
						"contract": "contracts/HotswapController.sol:HotswapController",
						"label": "fftLiquidity",
						"offset": 0,
						"slot": "12",
						"type": "t_uint256"
					},
					{
						"astId": 49,
						"contract": "contracts/HotswapController.sol:HotswapController",
						"label": "_nftLiquidityCount",
						"offset": 0,
						"slot": "13",
						"type": "t_uint256"
					},
					{
						"astId": 51,
						"contract": "contracts/HotswapController.sol:HotswapController",
						"label": "_fftLiquidityCount",
						"offset": 0,
						"slot": "14",
						"type": "t_uint256"
					}
				],
				"types": {
					"t_address": {
						"encoding": "inplace",
						"label": "address",
						"numberOfBytes": "20"
					},
					"t_array(t_struct(Liquid)1224_storage)dyn_storage": {
						"base": "t_struct(Liquid)1224_storage",
						"encoding": "dynamic_array",
						"label": "struct HotswapControllerBase.Liquid[]",
						"numberOfBytes": "32"
					},
					"t_array(t_uint256)dyn_storage": {
						"base": "t_uint256",
						"encoding": "dynamic_array",
						"label": "uint256[]",
						"numberOfBytes": "32"
					},
					"t_bool": {
						"encoding": "inplace",
						"label": "bool",
						"numberOfBytes": "1"
					},
					"t_contract(ERC20)1590": {
						"encoding": "inplace",
						"label": "contract ERC20",
						"numberOfBytes": "20"
					},
					"t_contract(ERC721Enumerable)1670": {
						"encoding": "inplace",
						"label": "contract ERC721Enumerable",
						"numberOfBytes": "20"
					},
					"t_mapping(t_address,t_array(t_uint256)dyn_storage)": {
						"encoding": "mapping",
						"key": "t_address",
						"label": "mapping(address => uint256[])",
						"numberOfBytes": "32",
						"value": "t_array(t_uint256)dyn_storage"
					},
					"t_struct(Liquid)1224_storage": {
						"encoding": "inplace",
						"label": "struct HotswapControllerBase.Liquid",
						"members": [
							{
								"astId": 1211,
								"contract": "contracts/HotswapController.sol:HotswapController",
								"label": "depositor",
								"offset": 0,
								"slot": "0",
								"type": "t_address"
							},
							{
								"astId": 1213,
								"contract": "contracts/HotswapController.sol:HotswapController",
								"label": "depositedAt",
								"offset": 0,
								"slot": "1",
								"type": "t_uint256"
							},
							{
								"astId": 1215,
								"contract": "contracts/HotswapController.sol:HotswapController",
								"label": "price",
								"offset": 0,
								"slot": "2",
								"type": "t_uint256"
							},
							{
								"astId": 1217,
								"contract": "contracts/HotswapController.sol:HotswapController",
								"label": "nftAlloc",
								"offset": 0,
								"slot": "3",
								"type": "t_uint256"
							},
							{
								"astId": 1219,
								"contract": "contracts/HotswapController.sol:HotswapController",
								"label": "fftAlloc",
								"offset": 0,
								"slot": "4",
								"type": "t_uint256"
							},
							{
								"astId": 1221,
								"contract": "contracts/HotswapController.sol:HotswapController",
								"label": "claimed",
								"offset": 0,
								"slot": "5",
								"type": "t_bool"
							},
							{
								"astId": 1223,
								"contract": "contracts/HotswapController.sol:HotswapController",
								"label": "userIndex",
								"offset": 0,
								"slot": "6",
								"type": "t_uint256"
							}
						],
						"numberOfBytes": "224"
					},
					"t_uint256": {
						"encoding": "inplace",
						"label": "uint256",
						"numberOfBytes": "32"
					}
				}
			},
			"userdoc": {
				"kind": "user",
				"methods": {},
				"version": 1
			}
		}
	}
}