{
	"contracts/Ownable.sol": {
		"Ownable": {
			"abi": [
				{
					"inputs": [],
					"stateMutability": "nonpayable",
					"type": "constructor"
				},
				{
					"anonymous": false,
					"inputs": [
						{
							"indexed": true,
							"internalType": "address",
							"name": "previousOwner",
							"type": "address"
						}
					],
					"name": "OwnershipRenounced",
					"type": "event"
				},
				{
					"anonymous": false,
					"inputs": [
						{
							"indexed": true,
							"internalType": "address",
							"name": "previousOwner",
							"type": "address"
						},
						{
							"indexed": true,
							"internalType": "address",
							"name": "newOwner",
							"type": "address"
						}
					],
					"name": "OwnershipTransferred",
					"type": "event"
				},
				{
					"inputs": [],
					"name": "isOwner",
					"outputs": [
						{
							"internalType": "bool",
							"name": "",
							"type": "bool"
						}
					],
					"stateMutability": "view",
					"type": "function"
				},
				{
					"inputs": [],
					"name": "owner",
					"outputs": [
						{
							"internalType": "address",
							"name": "",
							"type": "address"
						}
					],
					"stateMutability": "view",
					"type": "function"
				},
				{
					"inputs": [],
					"name": "renounceOwnership",
					"outputs": [],
					"stateMutability": "nonpayable",
					"type": "function"
				},
				{
					"inputs": [
						{
							"internalType": "address",
							"name": "newOwner",
							"type": "address"
						}
					],
					"name": "transferOwnership",
					"outputs": [],
					"stateMutability": "nonpayable",
					"type": "function"
				}
			],
			"devdoc": {
				"kind": "dev",
				"methods": {},
				"version": 1
			},
			"evm": {
				"assembly": "    /* \"contracts/Ownable.sol\":148:1163  contract Ownable is IOwnable {... */\n  mstore(0x40, 0x80)\n    /* \"contracts/Ownable.sol\":397:449  constructor() {... */\n  callvalue\n  dup1\n  iszero\n  tag_1\n  jumpi\n  0x00\n  dup1\n  revert\ntag_1:\n  pop\n    /* \"contracts/Ownable.sol\":431:441  msg.sender */\n  caller\n    /* \"contracts/Ownable.sol\":422:428  _owner */\n  0x00\n  dup1\n    /* \"contracts/Ownable.sol\":422:441  _owner = msg.sender */\n  0x0100\n  exp\n  dup2\n  sload\n  dup2\n  0xffffffffffffffffffffffffffffffffffffffff\n  mul\n  not\n  and\n  swap1\n  dup4\n  0xffffffffffffffffffffffffffffffffffffffff\n  and\n  mul\n  or\n  swap1\n  sstore\n  pop\n    /* \"contracts/Ownable.sol\":148:1163  contract Ownable is IOwnable {... */\n  dataSize(sub_0)\n  dup1\n  dataOffset(sub_0)\n  0x00\n  codecopy\n  0x00\n  return\nstop\n\nsub_0: assembly {\n        /* \"contracts/Ownable.sol\":148:1163  contract Ownable is IOwnable {... */\n      mstore(0x40, 0x80)\n      callvalue\n      dup1\n      iszero\n      tag_1\n      jumpi\n      0x00\n      dup1\n      revert\n    tag_1:\n      pop\n      jumpi(tag_2, lt(calldatasize, 0x04))\n      shr(0xe0, calldataload(0x00))\n      dup1\n      0x715018a6\n      eq\n      tag_3\n      jumpi\n      dup1\n      0x8da5cb5b\n      eq\n      tag_4\n      jumpi\n      dup1\n      0x8f32d59b\n      eq\n      tag_5\n      jumpi\n      dup1\n      0xf2fde38b\n      eq\n      tag_6\n      jumpi\n    tag_2:\n      0x00\n      dup1\n      revert\n        /* \"contracts/Ownable.sol\":722:848  function renounceOwnership() public onlyOwner {... */\n    tag_3:\n      tag_7\n      tag_8\n      jump\t// in\n    tag_7:\n      stop\n        /* \"contracts/Ownable.sol\":457:536  function owner() public view returns (address) {... */\n    tag_4:\n      tag_9\n      tag_10\n      jump\t// in\n    tag_9:\n      mload(0x40)\n      tag_11\n      swap2\n      swap1\n      tag_12\n      jump\t// in\n    tag_11:\n      mload(0x40)\n      dup1\n      swap2\n      sub\n      swap1\n      return\n        /* \"contracts/Ownable.sol\":622:714  function isOwner() public view returns (bool) {... */\n    tag_5:\n      tag_13\n      tag_14\n      jump\t// in\n    tag_13:\n      mload(0x40)\n      tag_15\n      swap2\n      swap1\n      tag_16\n      jump\t// in\n    tag_15:\n      mload(0x40)\n      dup1\n      swap2\n      sub\n      swap1\n      return\n        /* \"contracts/Ownable.sol\":856:965  function transferOwnership(address newOwner) public onlyOwner {... */\n    tag_6:\n      tag_17\n      0x04\n      dup1\n      calldatasize\n      sub\n      dup2\n      add\n      swap1\n      tag_18\n      swap2\n      swap1\n      tag_19\n      jump\t// in\n    tag_18:\n      tag_20\n      jump\t// in\n    tag_17:\n      stop\n        /* \"contracts/Ownable.sol\":722:848  function renounceOwnership() public onlyOwner {... */\n    tag_8:\n        /* \"contracts/Ownable.sol\":584:593  isOwner() */\n      tag_22\n        /* \"contracts/Ownable.sol\":584:591  isOwner */\n      tag_14\n        /* \"contracts/Ownable.sol\":584:593  isOwner() */\n      jump\t// in\n    tag_22:\n        /* \"contracts/Ownable.sol\":576:594  require(isOwner()) */\n      tag_23\n      jumpi\n      0x00\n      dup1\n      revert\n    tag_23:\n        /* \"contracts/Ownable.sol\":803:809  _owner */\n      0x00\n      dup1\n      sload\n      swap1\n      0x0100\n      exp\n      swap1\n      div\n      0xffffffffffffffffffffffffffffffffffffffff\n      and\n        /* \"contracts/Ownable.sol\":784:810  OwnershipRenounced(_owner) */\n      0xffffffffffffffffffffffffffffffffffffffff\n      and\n      0xf8df31144d9c2f0f6b59d69b8b98abd5459d07f2742c4df920b25aae33c64820\n      mload(0x40)\n      mload(0x40)\n      dup1\n      swap2\n      sub\n      swap1\n      log2\n        /* \"contracts/Ownable.sol\":838:839  0 */\n      0x00\n        /* \"contracts/Ownable.sol\":821:827  _owner */\n      dup1\n      0x00\n        /* \"contracts/Ownable.sol\":821:840  _owner = address(0) */\n      0x0100\n      exp\n      dup2\n      sload\n      dup2\n      0xffffffffffffffffffffffffffffffffffffffff\n      mul\n      not\n      and\n      swap1\n      dup4\n      0xffffffffffffffffffffffffffffffffffffffff\n      and\n      mul\n      or\n      swap1\n      sstore\n      pop\n        /* \"contracts/Ownable.sol\":722:848  function renounceOwnership() public onlyOwner {... */\n      jump\t// out\n        /* \"contracts/Ownable.sol\":457:536  function owner() public view returns (address) {... */\n    tag_10:\n        /* \"contracts/Ownable.sol\":495:502  address */\n      0x00\n        /* \"contracts/Ownable.sol\":522:528  _owner */\n      dup1\n      0x00\n      swap1\n      sload\n      swap1\n      0x0100\n      exp\n      swap1\n      div\n      0xffffffffffffffffffffffffffffffffffffffff\n      and\n        /* \"contracts/Ownable.sol\":515:528  return _owner */\n      swap1\n      pop\n        /* \"contracts/Ownable.sol\":457:536  function owner() public view returns (address) {... */\n      swap1\n      jump\t// out\n        /* \"contracts/Ownable.sol\":622:714  function isOwner() public view returns (bool) {... */\n    tag_14:\n        /* \"contracts/Ownable.sol\":662:666  bool */\n      0x00\n        /* \"contracts/Ownable.sol\":700:706  _owner */\n      dup1\n      0x00\n      swap1\n      sload\n      swap1\n      0x0100\n      exp\n      swap1\n      div\n      0xffffffffffffffffffffffffffffffffffffffff\n      and\n        /* \"contracts/Ownable.sol\":686:706  msg.sender == _owner */\n      0xffffffffffffffffffffffffffffffffffffffff\n      and\n        /* \"contracts/Ownable.sol\":686:696  msg.sender */\n      caller\n        /* \"contracts/Ownable.sol\":686:706  msg.sender == _owner */\n      0xffffffffffffffffffffffffffffffffffffffff\n      and\n      eq\n        /* \"contracts/Ownable.sol\":679:706  return msg.sender == _owner */\n      swap1\n      pop\n        /* \"contracts/Ownable.sol\":622:714  function isOwner() public view returns (bool) {... */\n      swap1\n      jump\t// out\n        /* \"contracts/Ownable.sol\":856:965  function transferOwnership(address newOwner) public onlyOwner {... */\n    tag_20:\n        /* \"contracts/Ownable.sol\":584:593  isOwner() */\n      tag_28\n        /* \"contracts/Ownable.sol\":584:591  isOwner */\n      tag_14\n        /* \"contracts/Ownable.sol\":584:593  isOwner() */\n      jump\t// in\n    tag_28:\n        /* \"contracts/Ownable.sol\":576:594  require(isOwner()) */\n      tag_29\n      jumpi\n      0x00\n      dup1\n      revert\n    tag_29:\n        /* \"contracts/Ownable.sol\":929:957  _transferOwnership(newOwner) */\n      tag_31\n        /* \"contracts/Ownable.sol\":948:956  newOwner */\n      dup2\n        /* \"contracts/Ownable.sol\":929:947  _transferOwnership */\n      tag_32\n        /* \"contracts/Ownable.sol\":929:957  _transferOwnership(newOwner) */\n      jump\t// in\n    tag_31:\n        /* \"contracts/Ownable.sol\":856:965  function transferOwnership(address newOwner) public onlyOwner {... */\n      pop\n      jump\t// out\n        /* \"contracts/Ownable.sol\":973:1160  function _transferOwnership(address newOwner) internal {... */\n    tag_32:\n        /* \"contracts/Ownable.sol\":1067:1068  0 */\n      0x00\n        /* \"contracts/Ownable.sol\":1047:1069  newOwner != address(0) */\n      0xffffffffffffffffffffffffffffffffffffffff\n      and\n        /* \"contracts/Ownable.sol\":1047:1055  newOwner */\n      dup2\n        /* \"contracts/Ownable.sol\":1047:1069  newOwner != address(0) */\n      0xffffffffffffffffffffffffffffffffffffffff\n      and\n      sub\n        /* \"contracts/Ownable.sol\":1039:1070  require(newOwner != address(0)) */\n      tag_34\n      jumpi\n      0x00\n      dup1\n      revert\n    tag_34:\n        /* \"contracts/Ownable.sol\":1115:1123  newOwner */\n      dup1\n        /* \"contracts/Ownable.sol\":1086:1124  OwnershipTransferred(_owner, newOwner) */\n      0xffffffffffffffffffffffffffffffffffffffff\n      and\n        /* \"contracts/Ownable.sol\":1107:1113  _owner */\n      0x00\n      dup1\n      sload\n      swap1\n      0x0100\n      exp\n      swap1\n      div\n      0xffffffffffffffffffffffffffffffffffffffff\n      and\n        /* \"contracts/Ownable.sol\":1086:1124  OwnershipTransferred(_owner, newOwner) */\n      0xffffffffffffffffffffffffffffffffffffffff\n      and\n      0x8be0079c531659141344cd1fd0a4f28419497f9722a3daafe3b4186f6b6457e0\n      mload(0x40)\n      mload(0x40)\n      dup1\n      swap2\n      sub\n      swap1\n      log3\n        /* \"contracts/Ownable.sol\":1144:1152  newOwner */\n      dup1\n        /* \"contracts/Ownable.sol\":1135:1141  _owner */\n      0x00\n      dup1\n        /* \"contracts/Ownable.sol\":1135:1152  _owner = newOwner */\n      0x0100\n      exp\n      dup2\n      sload\n      dup2\n      0xffffffffffffffffffffffffffffffffffffffff\n      mul\n      not\n      and\n      swap1\n      dup4\n      0xffffffffffffffffffffffffffffffffffffffff\n      and\n      mul\n      or\n      swap1\n      sstore\n      pop\n        /* \"contracts/Ownable.sol\":973:1160  function _transferOwnership(address newOwner) internal {... */\n      pop\n      jump\t// out\n        /* \"#utility.yul\":7:133   */\n    tag_35:\n        /* \"#utility.yul\":44:51   */\n      0x00\n        /* \"#utility.yul\":84:126   */\n      0xffffffffffffffffffffffffffffffffffffffff\n        /* \"#utility.yul\":77:82   */\n      dup3\n        /* \"#utility.yul\":73:127   */\n      and\n        /* \"#utility.yul\":62:127   */\n      swap1\n      pop\n        /* \"#utility.yul\":7:133   */\n      swap2\n      swap1\n      pop\n      jump\t// out\n        /* \"#utility.yul\":139:235   */\n    tag_36:\n        /* \"#utility.yul\":176:183   */\n      0x00\n        /* \"#utility.yul\":205:229   */\n      tag_48\n        /* \"#utility.yul\":223:228   */\n      dup3\n        /* \"#utility.yul\":205:229   */\n      tag_35\n      jump\t// in\n    tag_48:\n        /* \"#utility.yul\":194:229   */\n      swap1\n      pop\n        /* \"#utility.yul\":139:235   */\n      swap2\n      swap1\n      pop\n      jump\t// out\n        /* \"#utility.yul\":241:359   */\n    tag_37:\n        /* \"#utility.yul\":328:352   */\n      tag_50\n        /* \"#utility.yul\":346:351   */\n      dup2\n        /* \"#utility.yul\":328:352   */\n      tag_36\n      jump\t// in\n    tag_50:\n        /* \"#utility.yul\":323:326   */\n      dup3\n        /* \"#utility.yul\":316:353   */\n      mstore\n        /* \"#utility.yul\":241:359   */\n      pop\n      pop\n      jump\t// out\n        /* \"#utility.yul\":365:587   */\n    tag_12:\n        /* \"#utility.yul\":458:462   */\n      0x00\n        /* \"#utility.yul\":496:498   */\n      0x20\n        /* \"#utility.yul\":485:494   */\n      dup3\n        /* \"#utility.yul\":481:499   */\n      add\n        /* \"#utility.yul\":473:499   */\n      swap1\n      pop\n        /* \"#utility.yul\":509:580   */\n      tag_52\n        /* \"#utility.yul\":577:578   */\n      0x00\n        /* \"#utility.yul\":566:575   */\n      dup4\n        /* \"#utility.yul\":562:579   */\n      add\n        /* \"#utility.yul\":553:559   */\n      dup5\n        /* \"#utility.yul\":509:580   */\n      tag_37\n      jump\t// in\n    tag_52:\n        /* \"#utility.yul\":365:587   */\n      swap3\n      swap2\n      pop\n      pop\n      jump\t// out\n        /* \"#utility.yul\":593:683   */\n    tag_38:\n        /* \"#utility.yul\":627:634   */\n      0x00\n        /* \"#utility.yul\":670:675   */\n      dup2\n        /* \"#utility.yul\":663:676   */\n      iszero\n        /* \"#utility.yul\":656:677   */\n      iszero\n        /* \"#utility.yul\":645:677   */\n      swap1\n      pop\n        /* \"#utility.yul\":593:683   */\n      swap2\n      swap1\n      pop\n      jump\t// out\n        /* \"#utility.yul\":689:798   */\n    tag_39:\n        /* \"#utility.yul\":770:791   */\n      tag_55\n        /* \"#utility.yul\":785:790   */\n      dup2\n        /* \"#utility.yul\":770:791   */\n      tag_38\n      jump\t// in\n    tag_55:\n        /* \"#utility.yul\":765:768   */\n      dup3\n        /* \"#utility.yul\":758:792   */\n      mstore\n        /* \"#utility.yul\":689:798   */\n      pop\n      pop\n      jump\t// out\n        /* \"#utility.yul\":804:1014   */\n    tag_16:\n        /* \"#utility.yul\":891:895   */\n      0x00\n        /* \"#utility.yul\":929:931   */\n      0x20\n        /* \"#utility.yul\":918:927   */\n      dup3\n        /* \"#utility.yul\":914:932   */\n      add\n        /* \"#utility.yul\":906:932   */\n      swap1\n      pop\n        /* \"#utility.yul\":942:1007   */\n      tag_57\n        /* \"#utility.yul\":1004:1005   */\n      0x00\n        /* \"#utility.yul\":993:1002   */\n      dup4\n        /* \"#utility.yul\":989:1006   */\n      add\n        /* \"#utility.yul\":980:986   */\n      dup5\n        /* \"#utility.yul\":942:1007   */\n      tag_39\n      jump\t// in\n    tag_57:\n        /* \"#utility.yul\":804:1014   */\n      swap3\n      swap2\n      pop\n      pop\n      jump\t// out\n        /* \"#utility.yul\":1101:1218   */\n    tag_41:\n        /* \"#utility.yul\":1210:1211   */\n      0x00\n        /* \"#utility.yul\":1207:1208   */\n      dup1\n        /* \"#utility.yul\":1200:1212   */\n      revert\n        /* \"#utility.yul\":1347:1469   */\n    tag_43:\n        /* \"#utility.yul\":1420:1444   */\n      tag_62\n        /* \"#utility.yul\":1438:1443   */\n      dup2\n        /* \"#utility.yul\":1420:1444   */\n      tag_36\n      jump\t// in\n    tag_62:\n        /* \"#utility.yul\":1413:1418   */\n      dup2\n        /* \"#utility.yul\":1410:1445   */\n      eq\n        /* \"#utility.yul\":1400:1463   */\n      tag_63\n      jumpi\n        /* \"#utility.yul\":1459:1460   */\n      0x00\n        /* \"#utility.yul\":1456:1457   */\n      dup1\n        /* \"#utility.yul\":1449:1461   */\n      revert\n        /* \"#utility.yul\":1400:1463   */\n    tag_63:\n        /* \"#utility.yul\":1347:1469   */\n      pop\n      jump\t// out\n        /* \"#utility.yul\":1475:1614   */\n    tag_44:\n        /* \"#utility.yul\":1521:1526   */\n      0x00\n        /* \"#utility.yul\":1559:1565   */\n      dup2\n        /* \"#utility.yul\":1546:1566   */\n      calldataload\n        /* \"#utility.yul\":1537:1566   */\n      swap1\n      pop\n        /* \"#utility.yul\":1575:1608   */\n      tag_65\n        /* \"#utility.yul\":1602:1607   */\n      dup2\n        /* \"#utility.yul\":1575:1608   */\n      tag_43\n      jump\t// in\n    tag_65:\n        /* \"#utility.yul\":1475:1614   */\n      swap3\n      swap2\n      pop\n      pop\n      jump\t// out\n        /* \"#utility.yul\":1620:1949   */\n    tag_19:\n        /* \"#utility.yul\":1679:1685   */\n      0x00\n        /* \"#utility.yul\":1728:1730   */\n      0x20\n        /* \"#utility.yul\":1716:1725   */\n      dup3\n        /* \"#utility.yul\":1707:1714   */\n      dup5\n        /* \"#utility.yul\":1703:1726   */\n      sub\n        /* \"#utility.yul\":1699:1731   */\n      slt\n        /* \"#utility.yul\":1696:1815   */\n      iszero\n      tag_67\n      jumpi\n        /* \"#utility.yul\":1734:1813   */\n      tag_68\n      tag_41\n      jump\t// in\n    tag_68:\n        /* \"#utility.yul\":1696:1815   */\n    tag_67:\n        /* \"#utility.yul\":1854:1855   */\n      0x00\n        /* \"#utility.yul\":1879:1932   */\n      tag_69\n        /* \"#utility.yul\":1924:1931   */\n      dup5\n        /* \"#utility.yul\":1915:1921   */\n      dup3\n        /* \"#utility.yul\":1904:1913   */\n      dup6\n        /* \"#utility.yul\":1900:1922   */\n      add\n        /* \"#utility.yul\":1879:1932   */\n      tag_44\n      jump\t// in\n    tag_69:\n        /* \"#utility.yul\":1869:1932   */\n      swap2\n      pop\n        /* \"#utility.yul\":1825:1942   */\n      pop\n        /* \"#utility.yul\":1620:1949   */\n      swap3\n      swap2\n      pop\n      pop\n      jump\t// out\n\n    auxdata: 0xa264697066735822122077874e9f283fcdf8af3cc03777fea8da105ecf5973f8f4db1dbe9cea19c44e9064736f6c63430008190033\n}\n",
				"bytecode": {
					"linkReferences": {},
					"object": "6080604052348015600e575f80fd5b50335f806101000a81548173ffffffffffffffffffffffffffffffffffffffff021916908373ffffffffffffffffffffffffffffffffffffffff1602179055506104078061005b5f395ff3fe608060405234801561000f575f80fd5b506004361061004a575f3560e01c8063715018a61461004e5780638da5cb5b146100585780638f32d59b14610076578063f2fde38b14610094575b5f80fd5b6100566100b0565b005b610060610163565b60405161006d919061032c565b60405180910390f35b61007e61018a565b60405161008b919061035f565b60405180910390f35b6100ae60048036038101906100a991906103a6565b6101df565b005b6100b861018a565b6100c0575f80fd5b5f8054906101000a900473ffffffffffffffffffffffffffffffffffffffff1673ffffffffffffffffffffffffffffffffffffffff167ff8df31144d9c2f0f6b59d69b8b98abd5459d07f2742c4df920b25aae33c6482060405160405180910390a25f805f6101000a81548173ffffffffffffffffffffffffffffffffffffffff021916908373ffffffffffffffffffffffffffffffffffffffff160217905550565b5f805f9054906101000a900473ffffffffffffffffffffffffffffffffffffffff16905090565b5f805f9054906101000a900473ffffffffffffffffffffffffffffffffffffffff1673ffffffffffffffffffffffffffffffffffffffff163373ffffffffffffffffffffffffffffffffffffffff1614905090565b6101e761018a565b6101ef575f80fd5b6101f8816101fb565b50565b5f73ffffffffffffffffffffffffffffffffffffffff168173ffffffffffffffffffffffffffffffffffffffff1603610232575f80fd5b8073ffffffffffffffffffffffffffffffffffffffff165f8054906101000a900473ffffffffffffffffffffffffffffffffffffffff1673ffffffffffffffffffffffffffffffffffffffff167f8be0079c531659141344cd1fd0a4f28419497f9722a3daafe3b4186f6b6457e060405160405180910390a3805f806101000a81548173ffffffffffffffffffffffffffffffffffffffff021916908373ffffffffffffffffffffffffffffffffffffffff16021790555050565b5f73ffffffffffffffffffffffffffffffffffffffff82169050919050565b5f610316826102ed565b9050919050565b6103268161030c565b82525050565b5f60208201905061033f5f83018461031d565b92915050565b5f8115159050919050565b61035981610345565b82525050565b5f6020820190506103725f830184610350565b92915050565b5f80fd5b6103858161030c565b811461038f575f80fd5b50565b5f813590506103a08161037c565b92915050565b5f602082840312156103bb576103ba610378565b5b5f6103c884828501610392565b9150509291505056fea264697066735822122077874e9f283fcdf8af3cc03777fea8da105ecf5973f8f4db1dbe9cea19c44e9064736f6c63430008190033",
					"opcodes": "PUSH1 0x80 PUSH1 0x40 MSTORE CALLVALUE DUP1 ISZERO PUSH1 0xE JUMPI PUSH0 DUP1 REVERT JUMPDEST POP CALLER PUSH0 DUP1 PUSH2 0x100 EXP DUP2 SLOAD DUP2 PUSH20 0xFFFFFFFFFFFFFFFFFFFFFFFFFFFFFFFFFFFFFFFF MUL NOT AND SWAP1 DUP4 PUSH20 0xFFFFFFFFFFFFFFFFFFFFFFFFFFFFFFFFFFFFFFFF AND MUL OR SWAP1 SSTORE POP PUSH2 0x407 DUP1 PUSH2 0x5B PUSH0 CODECOPY PUSH0 RETURN INVALID PUSH1 0x80 PUSH1 0x40 MSTORE CALLVALUE DUP1 ISZERO PUSH2 0xF JUMPI PUSH0 DUP1 REVERT JUMPDEST POP PUSH1 0x4 CALLDATASIZE LT PUSH2 0x4A JUMPI PUSH0 CALLDATALOAD PUSH1 0xE0 SHR DUP1 PUSH4 0x715018A6 EQ PUSH2 0x4E JUMPI DUP1 PUSH4 0x8DA5CB5B EQ PUSH2 0x58 JUMPI DUP1 PUSH4 0x8F32D59B EQ PUSH2 0x76 JUMPI DUP1 PUSH4 0xF2FDE38B EQ PUSH2 0x94 JUMPI JUMPDEST PUSH0 DUP1 REVERT JUMPDEST PUSH2 0x56 PUSH2 0xB0 JUMP JUMPDEST STOP JUMPDEST PUSH2 0x60 PUSH2 0x163 JUMP JUMPDEST PUSH1 0x40 MLOAD PUSH2 0x6D SWAP2 SWAP1 PUSH2 0x32C JUMP JUMPDEST PUSH1 0x40 MLOAD DUP1 SWAP2 SUB SWAP1 RETURN JUMPDEST PUSH2 0x7E PUSH2 0x18A JUMP JUMPDEST PUSH1 0x40 MLOAD PUSH2 0x8B SWAP2 SWAP1 PUSH2 0x35F JUMP JUMPDEST PUSH1 0x40 MLOAD DUP1 SWAP2 SUB SWAP1 RETURN JUMPDEST PUSH2 0xAE PUSH1 0x4 DUP1 CALLDATASIZE SUB DUP2 ADD SWAP1 PUSH2 0xA9 SWAP2 SWAP1 PUSH2 0x3A6 JUMP JUMPDEST PUSH2 0x1DF JUMP JUMPDEST STOP JUMPDEST PUSH2 0xB8 PUSH2 0x18A JUMP JUMPDEST PUSH2 0xC0 JUMPI PUSH0 DUP1 REVERT JUMPDEST PUSH0 DUP1 SLOAD SWAP1 PUSH2 0x100 EXP SWAP1 DIV PUSH20 0xFFFFFFFFFFFFFFFFFFFFFFFFFFFFFFFFFFFFFFFF AND PUSH20 0xFFFFFFFFFFFFFFFFFFFFFFFFFFFFFFFFFFFFFFFF AND PUSH32 0xF8DF31144D9C2F0F6B59D69B8B98ABD5459D07F2742C4DF920B25AAE33C64820 PUSH1 0x40 MLOAD PUSH1 0x40 MLOAD DUP1 SWAP2 SUB SWAP1 LOG2 PUSH0 DUP1 PUSH0 PUSH2 0x100 EXP DUP2 SLOAD DUP2 PUSH20 0xFFFFFFFFFFFFFFFFFFFFFFFFFFFFFFFFFFFFFFFF MUL NOT AND SWAP1 DUP4 PUSH20 0xFFFFFFFFFFFFFFFFFFFFFFFFFFFFFFFFFFFFFFFF AND MUL OR SWAP1 SSTORE POP JUMP JUMPDEST PUSH0 DUP1 PUSH0 SWAP1 SLOAD SWAP1 PUSH2 0x100 EXP SWAP1 DIV PUSH20 0xFFFFFFFFFFFFFFFFFFFFFFFFFFFFFFFFFFFFFFFF AND SWAP1 POP SWAP1 JUMP JUMPDEST PUSH0 DUP1 PUSH0 SWAP1 SLOAD SWAP1 PUSH2 0x100 EXP SWAP1 DIV PUSH20 0xFFFFFFFFFFFFFFFFFFFFFFFFFFFFFFFFFFFFFFFF AND PUSH20 0xFFFFFFFFFFFFFFFFFFFFFFFFFFFFFFFFFFFFFFFF AND CALLER PUSH20 0xFFFFFFFFFFFFFFFFFFFFFFFFFFFFFFFFFFFFFFFF AND EQ SWAP1 POP SWAP1 JUMP JUMPDEST PUSH2 0x1E7 PUSH2 0x18A JUMP JUMPDEST PUSH2 0x1EF JUMPI PUSH0 DUP1 REVERT JUMPDEST PUSH2 0x1F8 DUP2 PUSH2 0x1FB JUMP JUMPDEST POP JUMP JUMPDEST PUSH0 PUSH20 0xFFFFFFFFFFFFFFFFFFFFFFFFFFFFFFFFFFFFFFFF AND DUP2 PUSH20 0xFFFFFFFFFFFFFFFFFFFFFFFFFFFFFFFFFFFFFFFF AND SUB PUSH2 0x232 JUMPI PUSH0 DUP1 REVERT JUMPDEST DUP1 PUSH20 0xFFFFFFFFFFFFFFFFFFFFFFFFFFFFFFFFFFFFFFFF AND PUSH0 DUP1 SLOAD SWAP1 PUSH2 0x100 EXP SWAP1 DIV PUSH20 0xFFFFFFFFFFFFFFFFFFFFFFFFFFFFFFFFFFFFFFFF AND PUSH20 0xFFFFFFFFFFFFFFFFFFFFFFFFFFFFFFFFFFFFFFFF AND PUSH32 0x8BE0079C531659141344CD1FD0A4F28419497F9722A3DAAFE3B4186F6B6457E0 PUSH1 0x40 MLOAD PUSH1 0x40 MLOAD DUP1 SWAP2 SUB SWAP1 LOG3 DUP1 PUSH0 DUP1 PUSH2 0x100 EXP DUP2 SLOAD DUP2 PUSH20 0xFFFFFFFFFFFFFFFFFFFFFFFFFFFFFFFFFFFFFFFF MUL NOT AND SWAP1 DUP4 PUSH20 0xFFFFFFFFFFFFFFFFFFFFFFFFFFFFFFFFFFFFFFFF AND MUL OR SWAP1 SSTORE POP POP JUMP JUMPDEST PUSH0 PUSH20 0xFFFFFFFFFFFFFFFFFFFFFFFFFFFFFFFFFFFFFFFF DUP3 AND SWAP1 POP SWAP2 SWAP1 POP JUMP JUMPDEST PUSH0 PUSH2 0x316 DUP3 PUSH2 0x2ED JUMP JUMPDEST SWAP1 POP SWAP2 SWAP1 POP JUMP JUMPDEST PUSH2 0x326 DUP2 PUSH2 0x30C JUMP JUMPDEST DUP3 MSTORE POP POP JUMP JUMPDEST PUSH0 PUSH1 0x20 DUP3 ADD SWAP1 POP PUSH2 0x33F PUSH0 DUP4 ADD DUP5 PUSH2 0x31D JUMP JUMPDEST SWAP3 SWAP2 POP POP JUMP JUMPDEST PUSH0 DUP2 ISZERO ISZERO SWAP1 POP SWAP2 SWAP1 POP JUMP JUMPDEST PUSH2 0x359 DUP2 PUSH2 0x345 JUMP JUMPDEST DUP3 MSTORE POP POP JUMP JUMPDEST PUSH0 PUSH1 0x20 DUP3 ADD SWAP1 POP PUSH2 0x372 PUSH0 DUP4 ADD DUP5 PUSH2 0x350 JUMP JUMPDEST SWAP3 SWAP2 POP POP JUMP JUMPDEST PUSH0 DUP1 REVERT JUMPDEST PUSH2 0x385 DUP2 PUSH2 0x30C JUMP JUMPDEST DUP2 EQ PUSH2 0x38F JUMPI PUSH0 DUP1 REVERT JUMPDEST POP JUMP JUMPDEST PUSH0 DUP2 CALLDATALOAD SWAP1 POP PUSH2 0x3A0 DUP2 PUSH2 0x37C JUMP JUMPDEST SWAP3 SWAP2 POP POP JUMP JUMPDEST PUSH0 PUSH1 0x20 DUP3 DUP5 SUB SLT ISZERO PUSH2 0x3BB JUMPI PUSH2 0x3BA PUSH2 0x378 JUMP JUMPDEST JUMPDEST PUSH0 PUSH2 0x3C8 DUP5 DUP3 DUP6 ADD PUSH2 0x392 JUMP JUMPDEST SWAP2 POP POP SWAP3 SWAP2 POP POP JUMP INVALID LOG2 PUSH5 0x6970667358 0x22 SLT KECCAK256 PUSH24 0x874E9F283FCDF8AF3CC03777FEA8DA105ECF5973F8F4DB1D 0xBE SWAP13 0xEA NOT 0xC4 0x4E SWAP1 PUSH5 0x736F6C6343 STOP ADDMOD NOT STOP CALLER "
				},
				"gasEstimates": {
					"creation": {
						"codeDepositCost": "206200",
						"executionCost": "24514",
						"totalCost": "230714"
					},
					"external": {
						"isOwner()": "2512",
						"owner()": "2515",
						"renounceOwnership()": "29882",
						"transferOwnership(address)": "30702"
					},
					"internal": {
						"_transferOwnership(address)": "27997"
					}
				},
				"methodIdentifiers": {
					"isOwner()": "8f32d59b",
					"owner()": "8da5cb5b",
					"renounceOwnership()": "715018a6",
					"transferOwnership(address)": "f2fde38b"
				}
			},
			"storageLayout": {
				"storage": [
					{
						"astId": 1421,
						"contract": "contracts/Ownable.sol:Ownable",
						"label": "_owner",
						"offset": 0,
						"slot": "0",
						"type": "t_address"
					}
				],
				"types": {
					"t_address": {
						"encoding": "inplace",
						"label": "address",
						"numberOfBytes": "20"
					}
				}
			},
			"userdoc": {
				"kind": "user",
				"methods": {},
				"version": 1
			}
		}
	}
}