{
	"contracts/HotswapLiquidity.sol": {
		"HotswapLiquidity": {
			"abi": [
				{
					"anonymous": false,
					"inputs": [
						{
							"indexed": false,
							"internalType": "uint256",
							"name": "amount",
							"type": "uint256"
						},
						{
							"indexed": false,
							"internalType": "address",
							"name": "targetAddr",
							"type": "address"
						}
					],
					"name": "NativeTransferred",
					"type": "event"
				},
				{
					"anonymous": false,
					"inputs": [
						{
							"indexed": true,
							"internalType": "address",
							"name": "previousOwner",
							"type": "address"
						}
					],
					"name": "OwnershipRenounced",
					"type": "event"
				},
				{
					"anonymous": false,
					"inputs": [
						{
							"indexed": true,
							"internalType": "address",
							"name": "previousOwner",
							"type": "address"
						},
						{
							"indexed": true,
							"internalType": "address",
							"name": "newOwner",
							"type": "address"
						}
					],
					"name": "OwnershipTransferred",
					"type": "event"
				},
				{
					"inputs": [],
					"name": "FFT",
					"outputs": [
						{
							"internalType": "address",
							"name": "",
							"type": "address"
						}
					],
					"stateMutability": "view",
					"type": "function"
				},
				{
					"inputs": [],
					"name": "NFT",
					"outputs": [
						{
							"internalType": "address",
							"name": "",
							"type": "address"
						}
					],
					"stateMutability": "view",
					"type": "function"
				},
				{
					"inputs": [],
					"name": "controller",
					"outputs": [
						{
							"internalType": "address",
							"name": "",
							"type": "address"
						}
					],
					"stateMutability": "view",
					"type": "function"
				},
				{
					"inputs": [],
					"name": "isOwner",
					"outputs": [
						{
							"internalType": "bool",
							"name": "",
							"type": "bool"
						}
					],
					"stateMutability": "view",
					"type": "function"
				},
				{
					"inputs": [],
					"name": "owner",
					"outputs": [
						{
							"internalType": "address",
							"name": "",
							"type": "address"
						}
					],
					"stateMutability": "view",
					"type": "function"
				},
				{
					"inputs": [],
					"name": "renounceOwnership",
					"outputs": [],
					"stateMutability": "nonpayable",
					"type": "function"
				},
				{
					"inputs": [
						{
							"internalType": "address",
							"name": "addr",
							"type": "address"
						}
					],
					"name": "setController",
					"outputs": [],
					"stateMutability": "nonpayable",
					"type": "function"
				},
				{
					"inputs": [
						{
							"internalType": "address",
							"name": "addr",
							"type": "address"
						}
					],
					"name": "setFFT",
					"outputs": [],
					"stateMutability": "nonpayable",
					"type": "function"
				},
				{
					"inputs": [
						{
							"internalType": "address",
							"name": "addr",
							"type": "address"
						}
					],
					"name": "setNFT",
					"outputs": [],
					"stateMutability": "nonpayable",
					"type": "function"
				},
				{
					"inputs": [
						{
							"internalType": "address",
							"name": "newOwner",
							"type": "address"
						}
					],
					"name": "transferOwnership",
					"outputs": [],
					"stateMutability": "nonpayable",
					"type": "function"
				},
				{
					"inputs": [
						{
							"internalType": "uint256",
							"name": "amount",
							"type": "uint256"
						},
						{
							"internalType": "address",
							"name": "dest",
							"type": "address"
						}
					],
					"name": "withdrawFFT",
					"outputs": [],
					"stateMutability": "nonpayable",
					"type": "function"
				},
				{
					"inputs": [
						{
							"internalType": "uint256",
							"name": "amount",
							"type": "uint256"
						},
						{
							"internalType": "address",
							"name": "dest",
							"type": "address"
						}
					],
					"name": "withdrawNFT",
					"outputs": [],
					"stateMutability": "nonpayable",
					"type": "function"
				}
			],
			"devdoc": {
				"kind": "dev",
				"methods": {},
				"version": 1
			},
			"evm": {
				"assembly": "    /* \"contracts/HotswapLiquidity.sol\":222:1075  contract HotswapLiquidity is HotswapPair {... */\n  mstore(0x40, 0x80)\n  callvalue\n  dup1\n  iszero\n  tag_1\n  jumpi\n  0x00\n  dup1\n  revert\ntag_1:\n  pop\n    /* \"contracts/Ownable.sol\":431:441  msg.sender */\n  caller\n    /* \"contracts/Ownable.sol\":422:428  _owner */\n  0x00\n  dup1\n    /* \"contracts/Ownable.sol\":422:441  _owner = msg.sender */\n  0x0100\n  exp\n  dup2\n  sload\n  dup2\n  0xffffffffffffffffffffffffffffffffffffffff\n  mul\n  not\n  and\n  swap1\n  dup4\n  0xffffffffffffffffffffffffffffffffffffffff\n  and\n  mul\n  or\n  swap1\n  sstore\n  pop\n    /* \"contracts/HotswapLiquidity.sol\":222:1075  contract HotswapLiquidity is HotswapPair {... */\n  dataSize(sub_0)\n  dup1\n  dataOffset(sub_0)\n  0x00\n  codecopy\n  0x00\n  return\nstop\n\nsub_0: assembly {\n        /* \"contracts/HotswapLiquidity.sol\":222:1075  contract HotswapLiquidity is HotswapPair {... */\n      mstore(0x40, 0x80)\n      callvalue\n      dup1\n      iszero\n      tag_1\n      jumpi\n      0x00\n      dup1\n      revert\n    tag_1:\n      pop\n      jumpi(tag_2, lt(calldatasize, 0x04))\n      shr(0xe0, calldataload(0x00))\n      dup1\n      0x92eefe9b\n      gt\n      tag_15\n      jumpi\n      dup1\n      0x92eefe9b\n      eq\n      tag_9\n      jumpi\n      dup1\n      0xc1d2d00d\n      eq\n      tag_10\n      jumpi\n      dup1\n      0xdb9fcd01\n      eq\n      tag_11\n      jumpi\n      dup1\n      0xf2fde38b\n      eq\n      tag_12\n      jumpi\n      dup1\n      0xf56e9c66\n      eq\n      tag_13\n      jumpi\n      dup1\n      0xf77c4791\n      eq\n      tag_14\n      jumpi\n      jump(tag_2)\n    tag_15:\n      dup1\n      0x04bb60ce\n      eq\n      tag_3\n      jumpi\n      dup1\n      0x715018a6\n      eq\n      tag_4\n      jumpi\n      dup1\n      0x7c0b8de2\n      eq\n      tag_5\n      jumpi\n      dup1\n      0x8cda7bb4\n      eq\n      tag_6\n      jumpi\n      dup1\n      0x8da5cb5b\n      eq\n      tag_7\n      jumpi\n      dup1\n      0x8f32d59b\n      eq\n      tag_8\n      jumpi\n    tag_2:\n      0x00\n      dup1\n      revert\n        /* \"contracts/HotswapPair.sol\":229:247  address public FFT */\n    tag_3:\n      tag_16\n      tag_17\n      jump\t// in\n    tag_16:\n      mload(0x40)\n      tag_18\n      swap2\n      swap1\n      tag_19\n      jump\t// in\n    tag_18:\n      mload(0x40)\n      dup1\n      swap2\n      sub\n      swap1\n      return\n        /* \"contracts/Ownable.sol\":722:848  function renounceOwnership() public onlyOwner {... */\n    tag_4:\n      tag_20\n      tag_21\n      jump\t// in\n    tag_20:\n      stop\n        /* \"contracts/HotswapPair.sol\":204:222  address public NFT */\n    tag_5:\n      tag_22\n      tag_23\n      jump\t// in\n    tag_22:\n      mload(0x40)\n      tag_24\n      swap2\n      swap1\n      tag_19\n      jump\t// in\n    tag_24:\n      mload(0x40)\n      dup1\n      swap2\n      sub\n      swap1\n      return\n        /* \"contracts/HotswapLiquidity.sol\":461:612  function withdrawFFT(uint256 amount, address dest) external onlyAuthorized {... */\n    tag_6:\n      tag_25\n      0x04\n      dup1\n      calldatasize\n      sub\n      dup2\n      add\n      swap1\n      tag_26\n      swap2\n      swap1\n      tag_27\n      jump\t// in\n    tag_26:\n      tag_28\n      jump\t// in\n    tag_25:\n      stop\n        /* \"contracts/Ownable.sol\":457:536  function owner() public view returns (address) {... */\n    tag_7:\n      tag_29\n      tag_30\n      jump\t// in\n    tag_29:\n      mload(0x40)\n      tag_31\n      swap2\n      swap1\n      tag_19\n      jump\t// in\n    tag_31:\n      mload(0x40)\n      dup1\n      swap2\n      sub\n      swap1\n      return\n        /* \"contracts/Ownable.sol\":622:714  function isOwner() public view returns (bool) {... */\n    tag_8:\n      tag_32\n      tag_33\n      jump\t// in\n    tag_32:\n      mload(0x40)\n      tag_34\n      swap2\n      swap1\n      tag_35\n      jump\t// in\n    tag_34:\n      mload(0x40)\n      dup1\n      swap2\n      sub\n      swap1\n      return\n        /* \"contracts/HotswapLiquidity.sol\":980:1072  function setController(address addr) external onlyOwner {... */\n    tag_9:\n      tag_36\n      0x04\n      dup1\n      calldatasize\n      sub\n      dup2\n      add\n      swap1\n      tag_37\n      swap2\n      swap1\n      tag_38\n      jump\t// in\n    tag_37:\n      tag_39\n      jump\t// in\n    tag_36:\n      stop\n        /* \"contracts/HotswapLiquidity.sol\":620:972  function withdrawNFT(uint256 amount, address dest) external onlyAuthorized {... */\n    tag_10:\n      tag_40\n      0x04\n      dup1\n      calldatasize\n      sub\n      dup2\n      add\n      swap1\n      tag_41\n      swap2\n      swap1\n      tag_27\n      jump\t// in\n    tag_41:\n      tag_42\n      jump\t// in\n    tag_40:\n      stop\n        /* \"contracts/HotswapPair.sol\":445:550  function setFFT(address addr) public onlyOwner {... */\n    tag_11:\n      tag_43\n      0x04\n      dup1\n      calldatasize\n      sub\n      dup2\n      add\n      swap1\n      tag_44\n      swap2\n      swap1\n      tag_38\n      jump\t// in\n    tag_44:\n      tag_45\n      jump\t// in\n    tag_43:\n      stop\n        /* \"contracts/Ownable.sol\":856:965  function transferOwnership(address newOwner) public onlyOwner {... */\n    tag_12:\n      tag_46\n      0x04\n      dup1\n      calldatasize\n      sub\n      dup2\n      add\n      swap1\n      tag_47\n      swap2\n      swap1\n      tag_38\n      jump\t// in\n    tag_47:\n      tag_48\n      jump\t// in\n    tag_46:\n      stop\n        /* \"contracts/HotswapPair.sol\":321:437  function setNFT(address addr) public onlyOwner {... */\n    tag_13:\n      tag_49\n      0x04\n      dup1\n      calldatasize\n      sub\n      dup2\n      add\n      swap1\n      tag_50\n      swap2\n      swap1\n      tag_38\n      jump\t// in\n    tag_50:\n      tag_51\n      jump\t// in\n    tag_49:\n      stop\n        /* \"contracts/HotswapLiquidity.sol\":305:330  address public controller */\n    tag_14:\n      tag_52\n      tag_53\n      jump\t// in\n    tag_52:\n      mload(0x40)\n      tag_54\n      swap2\n      swap1\n      tag_19\n      jump\t// in\n    tag_54:\n      mload(0x40)\n      dup1\n      swap2\n      sub\n      swap1\n      return\n        /* \"contracts/HotswapPair.sol\":229:247  address public FFT */\n    tag_17:\n      0x02\n      0x00\n      swap1\n      sload\n      swap1\n      0x0100\n      exp\n      swap1\n      div\n      0xffffffffffffffffffffffffffffffffffffffff\n      and\n      dup2\n      jump\t// out\n        /* \"contracts/Ownable.sol\":722:848  function renounceOwnership() public onlyOwner {... */\n    tag_21:\n        /* \"contracts/Ownable.sol\":584:593  isOwner() */\n      tag_56\n        /* \"contracts/Ownable.sol\":584:591  isOwner */\n      tag_33\n        /* \"contracts/Ownable.sol\":584:593  isOwner() */\n      jump\t// in\n    tag_56:\n        /* \"contracts/Ownable.sol\":576:594  require(isOwner()) */\n      tag_57\n      jumpi\n      0x00\n      dup1\n      revert\n    tag_57:\n        /* \"contracts/Ownable.sol\":803:809  _owner */\n      0x00\n      dup1\n      sload\n      swap1\n      0x0100\n      exp\n      swap1\n      div\n      0xffffffffffffffffffffffffffffffffffffffff\n      and\n        /* \"contracts/Ownable.sol\":784:810  OwnershipRenounced(_owner) */\n      0xffffffffffffffffffffffffffffffffffffffff\n      and\n      0xf8df31144d9c2f0f6b59d69b8b98abd5459d07f2742c4df920b25aae33c64820\n      mload(0x40)\n      mload(0x40)\n      dup1\n      swap2\n      sub\n      swap1\n      log2\n        /* \"contracts/Ownable.sol\":838:839  0 */\n      0x00\n        /* \"contracts/Ownable.sol\":821:827  _owner */\n      dup1\n      0x00\n        /* \"contracts/Ownable.sol\":821:840  _owner = address(0) */\n      0x0100\n      exp\n      dup2\n      sload\n      dup2\n      0xffffffffffffffffffffffffffffffffffffffff\n      mul\n      not\n      and\n      swap1\n      dup4\n      0xffffffffffffffffffffffffffffffffffffffff\n      and\n      mul\n      or\n      swap1\n      sstore\n      pop\n        /* \"contracts/Ownable.sol\":722:848  function renounceOwnership() public onlyOwner {... */\n      jump\t// out\n        /* \"contracts/HotswapPair.sol\":204:222  address public NFT */\n    tag_23:\n      0x01\n      0x00\n      swap1\n      sload\n      swap1\n      0x0100\n      exp\n      swap1\n      div\n      0xffffffffffffffffffffffffffffffffffffffff\n      and\n      dup2\n      jump\t// out\n        /* \"contracts/HotswapLiquidity.sol\":461:612  function withdrawFFT(uint256 amount, address dest) external onlyAuthorized {... */\n    tag_28:\n        /* \"contracts/HotswapLiquidity.sol\":398:404  _owner */\n      0x00\n      dup1\n      sload\n      swap1\n      0x0100\n      exp\n      swap1\n      div\n      0xffffffffffffffffffffffffffffffffffffffff\n      and\n        /* \"contracts/HotswapLiquidity.sol\":384:404  msg.sender == _owner */\n      0xffffffffffffffffffffffffffffffffffffffff\n      and\n        /* \"contracts/HotswapLiquidity.sol\":384:394  msg.sender */\n      caller\n        /* \"contracts/HotswapLiquidity.sol\":384:404  msg.sender == _owner */\n      0xffffffffffffffffffffffffffffffffffffffff\n      and\n      eq\n        /* \"contracts/HotswapLiquidity.sol\":384:432  msg.sender == _owner || msg.sender == controller */\n      dup1\n      tag_60\n      jumpi\n      pop\n        /* \"contracts/HotswapLiquidity.sol\":422:432  controller */\n      0x05\n      0x00\n      swap1\n      sload\n      swap1\n      0x0100\n      exp\n      swap1\n      div\n      0xffffffffffffffffffffffffffffffffffffffff\n      and\n        /* \"contracts/HotswapLiquidity.sol\":408:432  msg.sender == controller */\n      0xffffffffffffffffffffffffffffffffffffffff\n      and\n        /* \"contracts/HotswapLiquidity.sol\":408:418  msg.sender */\n      caller\n        /* \"contracts/HotswapLiquidity.sol\":408:432  msg.sender == controller */\n      0xffffffffffffffffffffffffffffffffffffffff\n      and\n      eq\n        /* \"contracts/HotswapLiquidity.sol\":384:432  msg.sender == _owner || msg.sender == controller */\n    tag_60:\n        /* \"contracts/HotswapLiquidity.sol\":376:433  require(msg.sender == _owner || msg.sender == controller) */\n      tag_61\n      jumpi\n      0x00\n      dup1\n      revert\n    tag_61:\n        /* \"contracts/HotswapLiquidity.sol\":555:559  _fft */\n      0x03\n      0x00\n      swap1\n      sload\n      swap1\n      0x0100\n      exp\n      swap1\n      div\n      0xffffffffffffffffffffffffffffffffffffffff\n      and\n        /* \"contracts/HotswapLiquidity.sol\":555:568  _fft.transfer */\n      0xffffffffffffffffffffffffffffffffffffffff\n      and\n      0xa9059cbb\n        /* \"contracts/HotswapLiquidity.sol\":569:573  dest */\n      dup3\n        /* \"contracts/HotswapLiquidity.sol\":575:581  amount */\n      dup5\n        /* \"contracts/HotswapLiquidity.sol\":555:582  _fft.transfer(dest, amount) */\n      mload(0x40)\n      dup4\n      0xffffffff\n      and\n      0xe0\n      shl\n      dup2\n      mstore\n      0x04\n      add\n      tag_63\n      swap3\n      swap2\n      swap1\n      tag_64\n      jump\t// in\n    tag_63:\n      0x20\n      mload(0x40)\n      dup1\n      dup4\n      sub\n      dup2\n      0x00\n      dup8\n      gas\n      call\n      iszero\n      dup1\n      iszero\n      tag_66\n      jumpi\n      returndatasize\n      0x00\n      dup1\n      returndatacopy\n      revert(0x00, returndatasize)\n    tag_66:\n      pop\n      pop\n      pop\n      pop\n      mload(0x40)\n      returndatasize\n      not(0x1f)\n      0x1f\n      dup3\n      add\n      and\n      dup3\n      add\n      dup1\n      0x40\n      mstore\n      pop\n      dup2\n      add\n      swap1\n      tag_67\n      swap2\n      swap1\n      tag_68\n      jump\t// in\n    tag_67:\n        /* \"contracts/HotswapLiquidity.sol\":547:604  require(_fft.transfer(dest, amount), \"Withdrawal failed\") */\n      tag_69\n      jumpi\n      mload(0x40)\n      0x08c379a000000000000000000000000000000000000000000000000000000000\n      dup2\n      mstore\n      0x04\n      add\n      tag_70\n      swap1\n      tag_71\n      jump\t// in\n    tag_70:\n      mload(0x40)\n      dup1\n      swap2\n      sub\n      swap1\n      revert\n    tag_69:\n        /* \"contracts/HotswapLiquidity.sol\":461:612  function withdrawFFT(uint256 amount, address dest) external onlyAuthorized {... */\n      pop\n      pop\n      jump\t// out\n        /* \"contracts/Ownable.sol\":457:536  function owner() public view returns (address) {... */\n    tag_30:\n        /* \"contracts/Ownable.sol\":495:502  address */\n      0x00\n        /* \"contracts/Ownable.sol\":522:528  _owner */\n      dup1\n      0x00\n      swap1\n      sload\n      swap1\n      0x0100\n      exp\n      swap1\n      div\n      0xffffffffffffffffffffffffffffffffffffffff\n      and\n        /* \"contracts/Ownable.sol\":515:528  return _owner */\n      swap1\n      pop\n        /* \"contracts/Ownable.sol\":457:536  function owner() public view returns (address) {... */\n      swap1\n      jump\t// out\n        /* \"contracts/Ownable.sol\":622:714  function isOwner() public view returns (bool) {... */\n    tag_33:\n        /* \"contracts/Ownable.sol\":662:666  bool */\n      0x00\n        /* \"contracts/Ownable.sol\":700:706  _owner */\n      dup1\n      0x00\n      swap1\n      sload\n      swap1\n      0x0100\n      exp\n      swap1\n      div\n      0xffffffffffffffffffffffffffffffffffffffff\n      and\n        /* \"contracts/Ownable.sol\":686:706  msg.sender == _owner */\n      0xffffffffffffffffffffffffffffffffffffffff\n      and\n        /* \"contracts/Ownable.sol\":686:696  msg.sender */\n      caller\n        /* \"contracts/Ownable.sol\":686:706  msg.sender == _owner */\n      0xffffffffffffffffffffffffffffffffffffffff\n      and\n      eq\n        /* \"contracts/Ownable.sol\":679:706  return msg.sender == _owner */\n      swap1\n      pop\n        /* \"contracts/Ownable.sol\":622:714  function isOwner() public view returns (bool) {... */\n      swap1\n      jump\t// out\n        /* \"contracts/HotswapLiquidity.sol\":980:1072  function setController(address addr) external onlyOwner {... */\n    tag_39:\n        /* \"contracts/Ownable.sol\":584:593  isOwner() */\n      tag_75\n        /* \"contracts/Ownable.sol\":584:591  isOwner */\n      tag_33\n        /* \"contracts/Ownable.sol\":584:593  isOwner() */\n      jump\t// in\n    tag_75:\n        /* \"contracts/Ownable.sol\":576:594  require(isOwner()) */\n      tag_76\n      jumpi\n      0x00\n      dup1\n      revert\n    tag_76:\n        /* \"contracts/HotswapLiquidity.sol\":1060:1064  addr */\n      dup1\n        /* \"contracts/HotswapLiquidity.sol\":1047:1057  controller */\n      0x05\n      0x00\n        /* \"contracts/HotswapLiquidity.sol\":1047:1064  controller = addr */\n      0x0100\n      exp\n      dup2\n      sload\n      dup2\n      0xffffffffffffffffffffffffffffffffffffffff\n      mul\n      not\n      and\n      swap1\n      dup4\n      0xffffffffffffffffffffffffffffffffffffffff\n      and\n      mul\n      or\n      swap1\n      sstore\n      pop\n        /* \"contracts/HotswapLiquidity.sol\":980:1072  function setController(address addr) external onlyOwner {... */\n      pop\n      jump\t// out\n        /* \"contracts/HotswapLiquidity.sol\":620:972  function withdrawNFT(uint256 amount, address dest) external onlyAuthorized {... */\n    tag_42:\n        /* \"contracts/HotswapLiquidity.sol\":398:404  _owner */\n      0x00\n      dup1\n      sload\n      swap1\n      0x0100\n      exp\n      swap1\n      div\n      0xffffffffffffffffffffffffffffffffffffffff\n      and\n        /* \"contracts/HotswapLiquidity.sol\":384:404  msg.sender == _owner */\n      0xffffffffffffffffffffffffffffffffffffffff\n      and\n        /* \"contracts/HotswapLiquidity.sol\":384:394  msg.sender */\n      caller\n        /* \"contracts/HotswapLiquidity.sol\":384:404  msg.sender == _owner */\n      0xffffffffffffffffffffffffffffffffffffffff\n      and\n      eq\n        /* \"contracts/HotswapLiquidity.sol\":384:432  msg.sender == _owner || msg.sender == controller */\n      dup1\n      tag_79\n      jumpi\n      pop\n        /* \"contracts/HotswapLiquidity.sol\":422:432  controller */\n      0x05\n      0x00\n      swap1\n      sload\n      swap1\n      0x0100\n      exp\n      swap1\n      div\n      0xffffffffffffffffffffffffffffffffffffffff\n      and\n        /* \"contracts/HotswapLiquidity.sol\":408:432  msg.sender == controller */\n      0xffffffffffffffffffffffffffffffffffffffff\n      and\n        /* \"contracts/HotswapLiquidity.sol\":408:418  msg.sender */\n      caller\n        /* \"contracts/HotswapLiquidity.sol\":408:432  msg.sender == controller */\n      0xffffffffffffffffffffffffffffffffffffffff\n      and\n      eq\n        /* \"contracts/HotswapLiquidity.sol\":384:432  msg.sender == _owner || msg.sender == controller */\n    tag_79:\n        /* \"contracts/HotswapLiquidity.sol\":376:433  require(msg.sender == _owner || msg.sender == controller) */\n      tag_80\n      jumpi\n      0x00\n      dup1\n      revert\n    tag_80:\n        /* \"contracts/HotswapLiquidity.sol\":706:721  uint256 tokenId */\n      0x00\n        /* \"contracts/HotswapLiquidity.sol\":732:749  bytes memory data */\n      dup1\n        /* \"contracts/HotswapLiquidity.sol\":762:763  0 */\n      0x00\n        /* \"contracts/HotswapLiquidity.sol\":752:764  new bytes(0) */\n      0xffffffffffffffff\n      dup2\n      gt\n      iszero\n      tag_82\n      jumpi\n      tag_83\n      tag_84\n      jump\t// in\n    tag_83:\n    tag_82:\n      mload(0x40)\n      swap1\n      dup1\n      dup3\n      mstore\n      dup1\n      0x1f\n      add\n      not(0x1f)\n      and\n      0x20\n      add\n      dup3\n      add\n      0x40\n      mstore\n      dup1\n      iszero\n      tag_85\n      jumpi\n      dup2\n      0x20\n      add\n      0x01\n      dup3\n      mul\n      dup1\n      calldatasize\n      dup4\n      calldatacopy\n      dup1\n      dup3\n      add\n      swap2\n      pop\n      pop\n      swap1\n      pop\n    tag_85:\n      pop\n        /* \"contracts/HotswapLiquidity.sol\":732:764  bytes memory data = new bytes(0) */\n      swap1\n      pop\n        /* \"contracts/HotswapLiquidity.sol\":782:791  uint256 i */\n      0x00\n        /* \"contracts/HotswapLiquidity.sol\":777:965  for (uint256 i = 0; i < amount; i++) {... */\n    tag_86:\n        /* \"contracts/HotswapLiquidity.sol\":801:807  amount */\n      dup5\n        /* \"contracts/HotswapLiquidity.sol\":797:798  i */\n      dup2\n        /* \"contracts/HotswapLiquidity.sol\":797:807  i < amount */\n      lt\n        /* \"contracts/HotswapLiquidity.sol\":777:965  for (uint256 i = 0; i < amount; i++) {... */\n      iszero\n      tag_87\n      jumpi\n        /* \"contracts/HotswapLiquidity.sol\":839:843  _nft */\n      0x04\n      0x00\n      swap1\n      sload\n      swap1\n      0x0100\n      exp\n      swap1\n      div\n      0xffffffffffffffffffffffffffffffffffffffff\n      and\n        /* \"contracts/HotswapLiquidity.sol\":839:863  _nft.tokenOfOwnerByIndex */\n      0xffffffffffffffffffffffffffffffffffffffff\n      and\n      0x2f745c59\n        /* \"contracts/HotswapLiquidity.sol\":872:876  this */\n      address\n        /* \"contracts/HotswapLiquidity.sol\":879:880  i */\n      dup4\n        /* \"contracts/HotswapLiquidity.sol\":839:881  _nft.tokenOfOwnerByIndex(address(this), i) */\n      mload(0x40)\n      dup4\n      0xffffffff\n      and\n      0xe0\n      shl\n      dup2\n      mstore\n      0x04\n      add\n      tag_89\n      swap3\n      swap2\n      swap1\n      tag_64\n      jump\t// in\n    tag_89:\n      0x20\n      mload(0x40)\n      dup1\n      dup4\n      sub\n      dup2\n      dup7\n      gas\n      staticcall\n      iszero\n      dup1\n      iszero\n      tag_91\n      jumpi\n      returndatasize\n      0x00\n      dup1\n      returndatacopy\n      revert(0x00, returndatasize)\n    tag_91:\n      pop\n      pop\n      pop\n      pop\n      mload(0x40)\n      returndatasize\n      not(0x1f)\n      0x1f\n      dup3\n      add\n      and\n      dup3\n      add\n      dup1\n      0x40\n      mstore\n      pop\n      dup2\n      add\n      swap1\n      tag_92\n      swap2\n      swap1\n      tag_93\n      jump\t// in\n    tag_92:\n        /* \"contracts/HotswapLiquidity.sol\":829:881  tokenId = _nft.tokenOfOwnerByIndex(address(this), i) */\n      swap3\n      pop\n        /* \"contracts/HotswapLiquidity.sol\":896:900  _nft */\n      0x04\n      0x00\n      swap1\n      sload\n      swap1\n      0x0100\n      exp\n      swap1\n      div\n      0xffffffffffffffffffffffffffffffffffffffff\n      and\n        /* \"contracts/HotswapLiquidity.sol\":896:917  _nft.safeTransferFrom */\n      0xffffffffffffffffffffffffffffffffffffffff\n      and\n      0xb88d4fde\n        /* \"contracts/HotswapLiquidity.sol\":926:930  this */\n      address\n        /* \"contracts/HotswapLiquidity.sol\":933:937  dest */\n      dup7\n        /* \"contracts/HotswapLiquidity.sol\":939:946  tokenId */\n      dup7\n        /* \"contracts/HotswapLiquidity.sol\":948:952  data */\n      dup7\n        /* \"contracts/HotswapLiquidity.sol\":896:953  _nft.safeTransferFrom(address(this), dest, tokenId, data) */\n      mload(0x40)\n      dup6\n      0xffffffff\n      and\n      0xe0\n      shl\n      dup2\n      mstore\n      0x04\n      add\n      tag_94\n      swap5\n      swap4\n      swap3\n      swap2\n      swap1\n      tag_95\n      jump\t// in\n    tag_94:\n      0x00\n      mload(0x40)\n      dup1\n      dup4\n      sub\n      dup2\n      0x00\n      dup8\n      dup1\n      extcodesize\n      iszero\n      dup1\n      iszero\n      tag_96\n      jumpi\n      0x00\n      dup1\n      revert\n    tag_96:\n      pop\n      gas\n      call\n      iszero\n      dup1\n      iszero\n      tag_98\n      jumpi\n      returndatasize\n      0x00\n      dup1\n      returndatacopy\n      revert(0x00, returndatasize)\n    tag_98:\n      pop\n      pop\n      pop\n      pop\n        /* \"contracts/HotswapLiquidity.sol\":809:812  i++ */\n      dup1\n      dup1\n      0x01\n      add\n      swap2\n      pop\n      pop\n        /* \"contracts/HotswapLiquidity.sol\":777:965  for (uint256 i = 0; i < amount; i++) {... */\n      jump(tag_86)\n    tag_87:\n      pop\n        /* \"contracts/HotswapLiquidity.sol\":695:972  {... */\n      pop\n      pop\n        /* \"contracts/HotswapLiquidity.sol\":620:972  function withdrawNFT(uint256 amount, address dest) external onlyAuthorized {... */\n      pop\n      pop\n      jump\t// out\n        /* \"contracts/HotswapPair.sol\":445:550  function setFFT(address addr) public onlyOwner {... */\n    tag_45:\n        /* \"contracts/Ownable.sol\":584:593  isOwner() */\n      tag_100\n        /* \"contracts/Ownable.sol\":584:591  isOwner */\n      tag_33\n        /* \"contracts/Ownable.sol\":584:593  isOwner() */\n      jump\t// in\n    tag_100:\n        /* \"contracts/Ownable.sol\":576:594  require(isOwner()) */\n      tag_101\n      jumpi\n      0x00\n      dup1\n      revert\n    tag_101:\n        /* \"contracts/HotswapPair.sol\":509:513  addr */\n      dup1\n        /* \"contracts/HotswapPair.sol\":503:506  FFT */\n      0x02\n      0x00\n        /* \"contracts/HotswapPair.sol\":503:513  FFT = addr */\n      0x0100\n      exp\n      dup2\n      sload\n      dup2\n      0xffffffffffffffffffffffffffffffffffffffff\n      mul\n      not\n      and\n      swap1\n      dup4\n      0xffffffffffffffffffffffffffffffffffffffff\n      and\n      mul\n      or\n      swap1\n      sstore\n      pop\n        /* \"contracts/HotswapPair.sol\":537:541  addr */\n      dup1\n        /* \"contracts/HotswapPair.sol\":524:528  _fft */\n      0x03\n      0x00\n        /* \"contracts/HotswapPair.sol\":524:542  _fft = ERC20(addr) */\n      0x0100\n      exp\n      dup2\n      sload\n      dup2\n      0xffffffffffffffffffffffffffffffffffffffff\n      mul\n      not\n      and\n      swap1\n      dup4\n      0xffffffffffffffffffffffffffffffffffffffff\n      and\n      mul\n      or\n      swap1\n      sstore\n      pop\n        /* \"contracts/HotswapPair.sol\":445:550  function setFFT(address addr) public onlyOwner {... */\n      pop\n      jump\t// out\n        /* \"contracts/Ownable.sol\":856:965  function transferOwnership(address newOwner) public onlyOwner {... */\n    tag_48:\n        /* \"contracts/Ownable.sol\":584:593  isOwner() */\n      tag_104\n        /* \"contracts/Ownable.sol\":584:591  isOwner */\n      tag_33\n        /* \"contracts/Ownable.sol\":584:593  isOwner() */\n      jump\t// in\n    tag_104:\n        /* \"contracts/Ownable.sol\":576:594  require(isOwner()) */\n      tag_105\n      jumpi\n      0x00\n      dup1\n      revert\n    tag_105:\n        /* \"contracts/Ownable.sol\":929:957  _transferOwnership(newOwner) */\n      tag_107\n        /* \"contracts/Ownable.sol\":948:956  newOwner */\n      dup2\n        /* \"contracts/Ownable.sol\":929:947  _transferOwnership */\n      tag_108\n        /* \"contracts/Ownable.sol\":929:957  _transferOwnership(newOwner) */\n      jump\t// in\n    tag_107:\n        /* \"contracts/Ownable.sol\":856:965  function transferOwnership(address newOwner) public onlyOwner {... */\n      pop\n      jump\t// out\n        /* \"contracts/HotswapPair.sol\":321:437  function setNFT(address addr) public onlyOwner {... */\n    tag_51:\n        /* \"contracts/Ownable.sol\":584:593  isOwner() */\n      tag_110\n        /* \"contracts/Ownable.sol\":584:591  isOwner */\n      tag_33\n        /* \"contracts/Ownable.sol\":584:593  isOwner() */\n      jump\t// in\n    tag_110:\n        /* \"contracts/Ownable.sol\":576:594  require(isOwner()) */\n      tag_111\n      jumpi\n      0x00\n      dup1\n      revert\n    tag_111:\n        /* \"contracts/HotswapPair.sol\":385:389  addr */\n      dup1\n        /* \"contracts/HotswapPair.sol\":379:382  NFT */\n      0x01\n      0x00\n        /* \"contracts/HotswapPair.sol\":379:389  NFT = addr */\n      0x0100\n      exp\n      dup2\n      sload\n      dup2\n      0xffffffffffffffffffffffffffffffffffffffff\n      mul\n      not\n      and\n      swap1\n      dup4\n      0xffffffffffffffffffffffffffffffffffffffff\n      and\n      mul\n      or\n      swap1\n      sstore\n      pop\n        /* \"contracts/HotswapPair.sol\":424:428  addr */\n      dup1\n        /* \"contracts/HotswapPair.sol\":400:404  _nft */\n      0x04\n      0x00\n        /* \"contracts/HotswapPair.sol\":400:429  _nft = ERC721Enumerable(addr) */\n      0x0100\n      exp\n      dup2\n      sload\n      dup2\n      0xffffffffffffffffffffffffffffffffffffffff\n      mul\n      not\n      and\n      swap1\n      dup4\n      0xffffffffffffffffffffffffffffffffffffffff\n      and\n      mul\n      or\n      swap1\n      sstore\n      pop\n        /* \"contracts/HotswapPair.sol\":321:437  function setNFT(address addr) public onlyOwner {... */\n      pop\n      jump\t// out\n        /* \"contracts/HotswapLiquidity.sol\":305:330  address public controller */\n    tag_53:\n      0x05\n      0x00\n      swap1\n      sload\n      swap1\n      0x0100\n      exp\n      swap1\n      div\n      0xffffffffffffffffffffffffffffffffffffffff\n      and\n      dup2\n      jump\t// out\n        /* \"contracts/Ownable.sol\":973:1160  function _transferOwnership(address newOwner) internal {... */\n    tag_108:\n        /* \"contracts/Ownable.sol\":1067:1068  0 */\n      0x00\n        /* \"contracts/Ownable.sol\":1047:1069  newOwner != address(0) */\n      0xffffffffffffffffffffffffffffffffffffffff\n      and\n        /* \"contracts/Ownable.sol\":1047:1055  newOwner */\n      dup2\n        /* \"contracts/Ownable.sol\":1047:1069  newOwner != address(0) */\n      0xffffffffffffffffffffffffffffffffffffffff\n      and\n      sub\n        /* \"contracts/Ownable.sol\":1039:1070  require(newOwner != address(0)) */\n      tag_114\n      jumpi\n      0x00\n      dup1\n      revert\n    tag_114:\n        /* \"contracts/Ownable.sol\":1115:1123  newOwner */\n      dup1\n        /* \"contracts/Ownable.sol\":1086:1124  OwnershipTransferred(_owner, newOwner) */\n      0xffffffffffffffffffffffffffffffffffffffff\n      and\n        /* \"contracts/Ownable.sol\":1107:1113  _owner */\n      0x00\n      dup1\n      sload\n      swap1\n      0x0100\n      exp\n      swap1\n      div\n      0xffffffffffffffffffffffffffffffffffffffff\n      and\n        /* \"contracts/Ownable.sol\":1086:1124  OwnershipTransferred(_owner, newOwner) */\n      0xffffffffffffffffffffffffffffffffffffffff\n      and\n      0x8be0079c531659141344cd1fd0a4f28419497f9722a3daafe3b4186f6b6457e0\n      mload(0x40)\n      mload(0x40)\n      dup1\n      swap2\n      sub\n      swap1\n      log3\n        /* \"contracts/Ownable.sol\":1144:1152  newOwner */\n      dup1\n        /* \"contracts/Ownable.sol\":1135:1141  _owner */\n      0x00\n      dup1\n        /* \"contracts/Ownable.sol\":1135:1152  _owner = newOwner */\n      0x0100\n      exp\n      dup2\n      sload\n      dup2\n      0xffffffffffffffffffffffffffffffffffffffff\n      mul\n      not\n      and\n      swap1\n      dup4\n      0xffffffffffffffffffffffffffffffffffffffff\n      and\n      mul\n      or\n      swap1\n      sstore\n      pop\n        /* \"contracts/Ownable.sol\":973:1160  function _transferOwnership(address newOwner) internal {... */\n      pop\n      jump\t// out\n        /* \"#utility.yul\":7:133   */\n    tag_115:\n        /* \"#utility.yul\":44:51   */\n      0x00\n        /* \"#utility.yul\":84:126   */\n      0xffffffffffffffffffffffffffffffffffffffff\n        /* \"#utility.yul\":77:82   */\n      dup3\n        /* \"#utility.yul\":73:127   */\n      and\n        /* \"#utility.yul\":62:127   */\n      swap1\n      pop\n        /* \"#utility.yul\":7:133   */\n      swap2\n      swap1\n      pop\n      jump\t// out\n        /* \"#utility.yul\":139:235   */\n    tag_116:\n        /* \"#utility.yul\":176:183   */\n      0x00\n        /* \"#utility.yul\":205:229   */\n      tag_143\n        /* \"#utility.yul\":223:228   */\n      dup3\n        /* \"#utility.yul\":205:229   */\n      tag_115\n      jump\t// in\n    tag_143:\n        /* \"#utility.yul\":194:229   */\n      swap1\n      pop\n        /* \"#utility.yul\":139:235   */\n      swap2\n      swap1\n      pop\n      jump\t// out\n        /* \"#utility.yul\":241:359   */\n    tag_117:\n        /* \"#utility.yul\":328:352   */\n      tag_145\n        /* \"#utility.yul\":346:351   */\n      dup2\n        /* \"#utility.yul\":328:352   */\n      tag_116\n      jump\t// in\n    tag_145:\n        /* \"#utility.yul\":323:326   */\n      dup3\n        /* \"#utility.yul\":316:353   */\n      mstore\n        /* \"#utility.yul\":241:359   */\n      pop\n      pop\n      jump\t// out\n        /* \"#utility.yul\":365:587   */\n    tag_19:\n        /* \"#utility.yul\":458:462   */\n      0x00\n        /* \"#utility.yul\":496:498   */\n      0x20\n        /* \"#utility.yul\":485:494   */\n      dup3\n        /* \"#utility.yul\":481:499   */\n      add\n        /* \"#utility.yul\":473:499   */\n      swap1\n      pop\n        /* \"#utility.yul\":509:580   */\n      tag_147\n        /* \"#utility.yul\":577:578   */\n      0x00\n        /* \"#utility.yul\":566:575   */\n      dup4\n        /* \"#utility.yul\":562:579   */\n      add\n        /* \"#utility.yul\":553:559   */\n      dup5\n        /* \"#utility.yul\":509:580   */\n      tag_117\n      jump\t// in\n    tag_147:\n        /* \"#utility.yul\":365:587   */\n      swap3\n      swap2\n      pop\n      pop\n      jump\t// out\n        /* \"#utility.yul\":674:791   */\n    tag_119:\n        /* \"#utility.yul\":783:784   */\n      0x00\n        /* \"#utility.yul\":780:781   */\n      dup1\n        /* \"#utility.yul\":773:785   */\n      revert\n        /* \"#utility.yul\":920:997   */\n    tag_121:\n        /* \"#utility.yul\":957:964   */\n      0x00\n        /* \"#utility.yul\":986:991   */\n      dup2\n        /* \"#utility.yul\":975:991   */\n      swap1\n      pop\n        /* \"#utility.yul\":920:997   */\n      swap2\n      swap1\n      pop\n      jump\t// out\n        /* \"#utility.yul\":1003:1125   */\n    tag_122:\n        /* \"#utility.yul\":1076:1100   */\n      tag_153\n        /* \"#utility.yul\":1094:1099   */\n      dup2\n        /* \"#utility.yul\":1076:1100   */\n      tag_121\n      jump\t// in\n    tag_153:\n        /* \"#utility.yul\":1069:1074   */\n      dup2\n        /* \"#utility.yul\":1066:1101   */\n      eq\n        /* \"#utility.yul\":1056:1119   */\n      tag_154\n      jumpi\n        /* \"#utility.yul\":1115:1116   */\n      0x00\n        /* \"#utility.yul\":1112:1113   */\n      dup1\n        /* \"#utility.yul\":1105:1117   */\n      revert\n        /* \"#utility.yul\":1056:1119   */\n    tag_154:\n        /* \"#utility.yul\":1003:1125   */\n      pop\n      jump\t// out\n        /* \"#utility.yul\":1131:1270   */\n    tag_123:\n        /* \"#utility.yul\":1177:1182   */\n      0x00\n        /* \"#utility.yul\":1215:1221   */\n      dup2\n        /* \"#utility.yul\":1202:1222   */\n      calldataload\n        /* \"#utility.yul\":1193:1222   */\n      swap1\n      pop\n        /* \"#utility.yul\":1231:1264   */\n      tag_156\n        /* \"#utility.yul\":1258:1263   */\n      dup2\n        /* \"#utility.yul\":1231:1264   */\n      tag_122\n      jump\t// in\n    tag_156:\n        /* \"#utility.yul\":1131:1270   */\n      swap3\n      swap2\n      pop\n      pop\n      jump\t// out\n        /* \"#utility.yul\":1276:1398   */\n    tag_124:\n        /* \"#utility.yul\":1349:1373   */\n      tag_158\n        /* \"#utility.yul\":1367:1372   */\n      dup2\n        /* \"#utility.yul\":1349:1373   */\n      tag_116\n      jump\t// in\n    tag_158:\n        /* \"#utility.yul\":1342:1347   */\n      dup2\n        /* \"#utility.yul\":1339:1374   */\n      eq\n        /* \"#utility.yul\":1329:1392   */\n      tag_159\n      jumpi\n        /* \"#utility.yul\":1388:1389   */\n      0x00\n        /* \"#utility.yul\":1385:1386   */\n      dup1\n        /* \"#utility.yul\":1378:1390   */\n      revert\n        /* \"#utility.yul\":1329:1392   */\n    tag_159:\n        /* \"#utility.yul\":1276:1398   */\n      pop\n      jump\t// out\n        /* \"#utility.yul\":1404:1543   */\n    tag_125:\n        /* \"#utility.yul\":1450:1455   */\n      0x00\n        /* \"#utility.yul\":1488:1494   */\n      dup2\n        /* \"#utility.yul\":1475:1495   */\n      calldataload\n        /* \"#utility.yul\":1466:1495   */\n      swap1\n      pop\n        /* \"#utility.yul\":1504:1537   */\n      tag_161\n        /* \"#utility.yul\":1531:1536   */\n      dup2\n        /* \"#utility.yul\":1504:1537   */\n      tag_124\n      jump\t// in\n    tag_161:\n        /* \"#utility.yul\":1404:1543   */\n      swap3\n      swap2\n      pop\n      pop\n      jump\t// out\n        /* \"#utility.yul\":1549:2023   */\n    tag_27:\n        /* \"#utility.yul\":1617:1623   */\n      0x00\n        /* \"#utility.yul\":1625:1631   */\n      dup1\n        /* \"#utility.yul\":1674:1676   */\n      0x40\n        /* \"#utility.yul\":1662:1671   */\n      dup4\n        /* \"#utility.yul\":1653:1660   */\n      dup6\n        /* \"#utility.yul\":1649:1672   */\n      sub\n        /* \"#utility.yul\":1645:1677   */\n      slt\n        /* \"#utility.yul\":1642:1761   */\n      iszero\n      tag_163\n      jumpi\n        /* \"#utility.yul\":1680:1759   */\n      tag_164\n      tag_119\n      jump\t// in\n    tag_164:\n        /* \"#utility.yul\":1642:1761   */\n    tag_163:\n        /* \"#utility.yul\":1800:1801   */\n      0x00\n        /* \"#utility.yul\":1825:1878   */\n      tag_165\n        /* \"#utility.yul\":1870:1877   */\n      dup6\n        /* \"#utility.yul\":1861:1867   */\n      dup3\n        /* \"#utility.yul\":1850:1859   */\n      dup7\n        /* \"#utility.yul\":1846:1868   */\n      add\n        /* \"#utility.yul\":1825:1878   */\n      tag_123\n      jump\t// in\n    tag_165:\n        /* \"#utility.yul\":1815:1878   */\n      swap3\n      pop\n        /* \"#utility.yul\":1771:1888   */\n      pop\n        /* \"#utility.yul\":1927:1929   */\n      0x20\n        /* \"#utility.yul\":1953:2006   */\n      tag_166\n        /* \"#utility.yul\":1998:2005   */\n      dup6\n        /* \"#utility.yul\":1989:1995   */\n      dup3\n        /* \"#utility.yul\":1978:1987   */\n      dup7\n        /* \"#utility.yul\":1974:1996   */\n      add\n        /* \"#utility.yul\":1953:2006   */\n      tag_125\n      jump\t// in\n    tag_166:\n        /* \"#utility.yul\":1943:2006   */\n      swap2\n      pop\n        /* \"#utility.yul\":1898:2016   */\n      pop\n        /* \"#utility.yul\":1549:2023   */\n      swap3\n      pop\n      swap3\n      swap1\n      pop\n      jump\t// out\n        /* \"#utility.yul\":2029:2119   */\n    tag_126:\n        /* \"#utility.yul\":2063:2070   */\n      0x00\n        /* \"#utility.yul\":2106:2111   */\n      dup2\n        /* \"#utility.yul\":2099:2112   */\n      iszero\n        /* \"#utility.yul\":2092:2113   */\n      iszero\n        /* \"#utility.yul\":2081:2113   */\n      swap1\n      pop\n        /* \"#utility.yul\":2029:2119   */\n      swap2\n      swap1\n      pop\n      jump\t// out\n        /* \"#utility.yul\":2125:2234   */\n    tag_127:\n        /* \"#utility.yul\":2206:2227   */\n      tag_169\n        /* \"#utility.yul\":2221:2226   */\n      dup2\n        /* \"#utility.yul\":2206:2227   */\n      tag_126\n      jump\t// in\n    tag_169:\n        /* \"#utility.yul\":2201:2204   */\n      dup3\n        /* \"#utility.yul\":2194:2228   */\n      mstore\n        /* \"#utility.yul\":2125:2234   */\n      pop\n      pop\n      jump\t// out\n        /* \"#utility.yul\":2240:2450   */\n    tag_35:\n        /* \"#utility.yul\":2327:2331   */\n      0x00\n        /* \"#utility.yul\":2365:2367   */\n      0x20\n        /* \"#utility.yul\":2354:2363   */\n      dup3\n        /* \"#utility.yul\":2350:2368   */\n      add\n        /* \"#utility.yul\":2342:2368   */\n      swap1\n      pop\n        /* \"#utility.yul\":2378:2443   */\n      tag_171\n        /* \"#utility.yul\":2440:2441   */\n      0x00\n        /* \"#utility.yul\":2429:2438   */\n      dup4\n        /* \"#utility.yul\":2425:2442   */\n      add\n        /* \"#utility.yul\":2416:2422   */\n      dup5\n        /* \"#utility.yul\":2378:2443   */\n      tag_127\n      jump\t// in\n    tag_171:\n        /* \"#utility.yul\":2240:2450   */\n      swap3\n      swap2\n      pop\n      pop\n      jump\t// out\n        /* \"#utility.yul\":2456:2785   */\n    tag_38:\n        /* \"#utility.yul\":2515:2521   */\n      0x00\n        /* \"#utility.yul\":2564:2566   */\n      0x20\n        /* \"#utility.yul\":2552:2561   */\n      dup3\n        /* \"#utility.yul\":2543:2550   */\n      dup5\n        /* \"#utility.yul\":2539:2562   */\n      sub\n        /* \"#utility.yul\":2535:2567   */\n      slt\n        /* \"#utility.yul\":2532:2651   */\n      iszero\n      tag_173\n      jumpi\n        /* \"#utility.yul\":2570:2649   */\n      tag_174\n      tag_119\n      jump\t// in\n    tag_174:\n        /* \"#utility.yul\":2532:2651   */\n    tag_173:\n        /* \"#utility.yul\":2690:2691   */\n      0x00\n        /* \"#utility.yul\":2715:2768   */\n      tag_175\n        /* \"#utility.yul\":2760:2767   */\n      dup5\n        /* \"#utility.yul\":2751:2757   */\n      dup3\n        /* \"#utility.yul\":2740:2749   */\n      dup6\n        /* \"#utility.yul\":2736:2758   */\n      add\n        /* \"#utility.yul\":2715:2768   */\n      tag_125\n      jump\t// in\n    tag_175:\n        /* \"#utility.yul\":2705:2768   */\n      swap2\n      pop\n        /* \"#utility.yul\":2661:2778   */\n      pop\n        /* \"#utility.yul\":2456:2785   */\n      swap3\n      swap2\n      pop\n      pop\n      jump\t// out\n        /* \"#utility.yul\":2791:2909   */\n    tag_128:\n        /* \"#utility.yul\":2878:2902   */\n      tag_177\n        /* \"#utility.yul\":2896:2901   */\n      dup2\n        /* \"#utility.yul\":2878:2902   */\n      tag_121\n      jump\t// in\n    tag_177:\n        /* \"#utility.yul\":2873:2876   */\n      dup3\n        /* \"#utility.yul\":2866:2903   */\n      mstore\n        /* \"#utility.yul\":2791:2909   */\n      pop\n      pop\n      jump\t// out\n        /* \"#utility.yul\":2915:3247   */\n    tag_64:\n        /* \"#utility.yul\":3036:3040   */\n      0x00\n        /* \"#utility.yul\":3074:3076   */\n      0x40\n        /* \"#utility.yul\":3063:3072   */\n      dup3\n        /* \"#utility.yul\":3059:3077   */\n      add\n        /* \"#utility.yul\":3051:3077   */\n      swap1\n      pop\n        /* \"#utility.yul\":3087:3158   */\n      tag_179\n        /* \"#utility.yul\":3155:3156   */\n      0x00\n        /* \"#utility.yul\":3144:3153   */\n      dup4\n        /* \"#utility.yul\":3140:3157   */\n      add\n        /* \"#utility.yul\":3131:3137   */\n      dup6\n        /* \"#utility.yul\":3087:3158   */\n      tag_117\n      jump\t// in\n    tag_179:\n        /* \"#utility.yul\":3168:3240   */\n      tag_180\n        /* \"#utility.yul\":3236:3238   */\n      0x20\n        /* \"#utility.yul\":3225:3234   */\n      dup4\n        /* \"#utility.yul\":3221:3239   */\n      add\n        /* \"#utility.yul\":3212:3218   */\n      dup5\n        /* \"#utility.yul\":3168:3240   */\n      tag_128\n      jump\t// in\n    tag_180:\n        /* \"#utility.yul\":2915:3247   */\n      swap4\n      swap3\n      pop\n      pop\n      pop\n      jump\t// out\n        /* \"#utility.yul\":3253:3369   */\n    tag_129:\n        /* \"#utility.yul\":3323:3344   */\n      tag_182\n        /* \"#utility.yul\":3338:3343   */\n      dup2\n        /* \"#utility.yul\":3323:3344   */\n      tag_126\n      jump\t// in\n    tag_182:\n        /* \"#utility.yul\":3316:3321   */\n      dup2\n        /* \"#utility.yul\":3313:3345   */\n      eq\n        /* \"#utility.yul\":3303:3363   */\n      tag_183\n      jumpi\n        /* \"#utility.yul\":3359:3360   */\n      0x00\n        /* \"#utility.yul\":3356:3357   */\n      dup1\n        /* \"#utility.yul\":3349:3361   */\n      revert\n        /* \"#utility.yul\":3303:3363   */\n    tag_183:\n        /* \"#utility.yul\":3253:3369   */\n      pop\n      jump\t// out\n        /* \"#utility.yul\":3375:3512   */\n    tag_130:\n        /* \"#utility.yul\":3429:3434   */\n      0x00\n        /* \"#utility.yul\":3460:3466   */\n      dup2\n        /* \"#utility.yul\":3454:3467   */\n      mload\n        /* \"#utility.yul\":3445:3467   */\n      swap1\n      pop\n        /* \"#utility.yul\":3476:3506   */\n      tag_185\n        /* \"#utility.yul\":3500:3505   */\n      dup2\n        /* \"#utility.yul\":3476:3506   */\n      tag_129\n      jump\t// in\n    tag_185:\n        /* \"#utility.yul\":3375:3512   */\n      swap3\n      swap2\n      pop\n      pop\n      jump\t// out\n        /* \"#utility.yul\":3518:3863   */\n    tag_68:\n        /* \"#utility.yul\":3585:3591   */\n      0x00\n        /* \"#utility.yul\":3634:3636   */\n      0x20\n        /* \"#utility.yul\":3622:3631   */\n      dup3\n        /* \"#utility.yul\":3613:3620   */\n      dup5\n        /* \"#utility.yul\":3609:3632   */\n      sub\n        /* \"#utility.yul\":3605:3637   */\n      slt\n        /* \"#utility.yul\":3602:3721   */\n      iszero\n      tag_187\n      jumpi\n        /* \"#utility.yul\":3640:3719   */\n      tag_188\n      tag_119\n      jump\t// in\n    tag_188:\n        /* \"#utility.yul\":3602:3721   */\n    tag_187:\n        /* \"#utility.yul\":3760:3761   */\n      0x00\n        /* \"#utility.yul\":3785:3846   */\n      tag_189\n        /* \"#utility.yul\":3838:3845   */\n      dup5\n        /* \"#utility.yul\":3829:3835   */\n      dup3\n        /* \"#utility.yul\":3818:3827   */\n      dup6\n        /* \"#utility.yul\":3814:3836   */\n      add\n        /* \"#utility.yul\":3785:3846   */\n      tag_130\n      jump\t// in\n    tag_189:\n        /* \"#utility.yul\":3775:3846   */\n      swap2\n      pop\n        /* \"#utility.yul\":3731:3856   */\n      pop\n        /* \"#utility.yul\":3518:3863   */\n      swap3\n      swap2\n      pop\n      pop\n      jump\t// out\n        /* \"#utility.yul\":3869:4038   */\n    tag_131:\n        /* \"#utility.yul\":3953:3964   */\n      0x00\n        /* \"#utility.yul\":3987:3993   */\n      dup3\n        /* \"#utility.yul\":3982:3985   */\n      dup3\n        /* \"#utility.yul\":3975:3994   */\n      mstore\n        /* \"#utility.yul\":4027:4031   */\n      0x20\n        /* \"#utility.yul\":4022:4025   */\n      dup3\n        /* \"#utility.yul\":4018:4032   */\n      add\n        /* \"#utility.yul\":4003:4032   */\n      swap1\n      pop\n        /* \"#utility.yul\":3869:4038   */\n      swap3\n      swap2\n      pop\n      pop\n      jump\t// out\n        /* \"#utility.yul\":4044:4211   */\n    tag_132:\n        /* \"#utility.yul\":4184:4203   */\n      0x5769746864726177616c206661696c6564000000000000000000000000000000\n        /* \"#utility.yul\":4180:4181   */\n      0x00\n        /* \"#utility.yul\":4172:4178   */\n      dup3\n        /* \"#utility.yul\":4168:4182   */\n      add\n        /* \"#utility.yul\":4161:4204   */\n      mstore\n        /* \"#utility.yul\":4044:4211   */\n      pop\n      jump\t// out\n        /* \"#utility.yul\":4217:4583   */\n    tag_133:\n        /* \"#utility.yul\":4359:4362   */\n      0x00\n        /* \"#utility.yul\":4380:4447   */\n      tag_193\n        /* \"#utility.yul\":4444:4446   */\n      0x11\n        /* \"#utility.yul\":4439:4442   */\n      dup4\n        /* \"#utility.yul\":4380:4447   */\n      tag_131\n      jump\t// in\n    tag_193:\n        /* \"#utility.yul\":4373:4447   */\n      swap2\n      pop\n        /* \"#utility.yul\":4456:4549   */\n      tag_194\n        /* \"#utility.yul\":4545:4548   */\n      dup3\n        /* \"#utility.yul\":4456:4549   */\n      tag_132\n      jump\t// in\n    tag_194:\n        /* \"#utility.yul\":4574:4576   */\n      0x20\n        /* \"#utility.yul\":4569:4572   */\n      dup3\n        /* \"#utility.yul\":4565:4577   */\n      add\n        /* \"#utility.yul\":4558:4577   */\n      swap1\n      pop\n        /* \"#utility.yul\":4217:4583   */\n      swap2\n      swap1\n      pop\n      jump\t// out\n        /* \"#utility.yul\":4589:5008   */\n    tag_71:\n        /* \"#utility.yul\":4755:4759   */\n      0x00\n        /* \"#utility.yul\":4793:4795   */\n      0x20\n        /* \"#utility.yul\":4782:4791   */\n      dup3\n        /* \"#utility.yul\":4778:4796   */\n      add\n        /* \"#utility.yul\":4770:4796   */\n      swap1\n      pop\n        /* \"#utility.yul\":4842:4851   */\n      dup2\n        /* \"#utility.yul\":4836:4840   */\n      dup2\n        /* \"#utility.yul\":4832:4852   */\n      sub\n        /* \"#utility.yul\":4828:4829   */\n      0x00\n        /* \"#utility.yul\":4817:4826   */\n      dup4\n        /* \"#utility.yul\":4813:4830   */\n      add\n        /* \"#utility.yul\":4806:4853   */\n      mstore\n        /* \"#utility.yul\":4870:5001   */\n      tag_196\n        /* \"#utility.yul\":4996:5000   */\n      dup2\n        /* \"#utility.yul\":4870:5001   */\n      tag_133\n      jump\t// in\n    tag_196:\n        /* \"#utility.yul\":4862:5001   */\n      swap1\n      pop\n        /* \"#utility.yul\":4589:5008   */\n      swap2\n      swap1\n      pop\n      jump\t// out\n        /* \"#utility.yul\":5014:5194   */\n    tag_84:\n        /* \"#utility.yul\":5062:5139   */\n      0x4e487b7100000000000000000000000000000000000000000000000000000000\n        /* \"#utility.yul\":5059:5060   */\n      0x00\n        /* \"#utility.yul\":5052:5140   */\n      mstore\n        /* \"#utility.yul\":5159:5163   */\n      0x41\n        /* \"#utility.yul\":5156:5157   */\n      0x04\n        /* \"#utility.yul\":5149:5164   */\n      mstore\n        /* \"#utility.yul\":5183:5187   */\n      0x24\n        /* \"#utility.yul\":5180:5181   */\n      0x00\n        /* \"#utility.yul\":5173:5188   */\n      revert\n        /* \"#utility.yul\":5200:5343   */\n    tag_134:\n        /* \"#utility.yul\":5257:5262   */\n      0x00\n        /* \"#utility.yul\":5288:5294   */\n      dup2\n        /* \"#utility.yul\":5282:5295   */\n      mload\n        /* \"#utility.yul\":5273:5295   */\n      swap1\n      pop\n        /* \"#utility.yul\":5304:5337   */\n      tag_199\n        /* \"#utility.yul\":5331:5336   */\n      dup2\n        /* \"#utility.yul\":5304:5337   */\n      tag_122\n      jump\t// in\n    tag_199:\n        /* \"#utility.yul\":5200:5343   */\n      swap3\n      swap2\n      pop\n      pop\n      jump\t// out\n        /* \"#utility.yul\":5349:5700   */\n    tag_93:\n        /* \"#utility.yul\":5419:5425   */\n      0x00\n        /* \"#utility.yul\":5468:5470   */\n      0x20\n        /* \"#utility.yul\":5456:5465   */\n      dup3\n        /* \"#utility.yul\":5447:5454   */\n      dup5\n        /* \"#utility.yul\":5443:5466   */\n      sub\n        /* \"#utility.yul\":5439:5471   */\n      slt\n        /* \"#utility.yul\":5436:5555   */\n      iszero\n      tag_201\n      jumpi\n        /* \"#utility.yul\":5474:5553   */\n      tag_202\n      tag_119\n      jump\t// in\n    tag_202:\n        /* \"#utility.yul\":5436:5555   */\n    tag_201:\n        /* \"#utility.yul\":5594:5595   */\n      0x00\n        /* \"#utility.yul\":5619:5683   */\n      tag_203\n        /* \"#utility.yul\":5675:5682   */\n      dup5\n        /* \"#utility.yul\":5666:5672   */\n      dup3\n        /* \"#utility.yul\":5655:5664   */\n      dup6\n        /* \"#utility.yul\":5651:5673   */\n      add\n        /* \"#utility.yul\":5619:5683   */\n      tag_134\n      jump\t// in\n    tag_203:\n        /* \"#utility.yul\":5609:5683   */\n      swap2\n      pop\n        /* \"#utility.yul\":5565:5693   */\n      pop\n        /* \"#utility.yul\":5349:5700   */\n      swap3\n      swap2\n      pop\n      pop\n      jump\t// out\n        /* \"#utility.yul\":5706:5804   */\n    tag_135:\n        /* \"#utility.yul\":5757:5763   */\n      0x00\n        /* \"#utility.yul\":5791:5796   */\n      dup2\n        /* \"#utility.yul\":5785:5797   */\n      mload\n        /* \"#utility.yul\":5775:5797   */\n      swap1\n      pop\n        /* \"#utility.yul\":5706:5804   */\n      swap2\n      swap1\n      pop\n      jump\t// out\n        /* \"#utility.yul\":5810:5978   */\n    tag_136:\n        /* \"#utility.yul\":5893:5904   */\n      0x00\n        /* \"#utility.yul\":5927:5933   */\n      dup3\n        /* \"#utility.yul\":5922:5925   */\n      dup3\n        /* \"#utility.yul\":5915:5934   */\n      mstore\n        /* \"#utility.yul\":5967:5971   */\n      0x20\n        /* \"#utility.yul\":5962:5965   */\n      dup3\n        /* \"#utility.yul\":5958:5972   */\n      add\n        /* \"#utility.yul\":5943:5972   */\n      swap1\n      pop\n        /* \"#utility.yul\":5810:5978   */\n      swap3\n      swap2\n      pop\n      pop\n      jump\t// out\n        /* \"#utility.yul\":5984:6123   */\n    tag_137:\n        /* \"#utility.yul\":6073:6079   */\n      dup3\n        /* \"#utility.yul\":6068:6071   */\n      dup2\n        /* \"#utility.yul\":6063:6066   */\n      dup4\n        /* \"#utility.yul\":6057:6080   */\n      mcopy\n        /* \"#utility.yul\":6114:6115   */\n      0x00\n        /* \"#utility.yul\":6105:6111   */\n      dup4\n        /* \"#utility.yul\":6100:6103   */\n      dup4\n        /* \"#utility.yul\":6096:6112   */\n      add\n        /* \"#utility.yul\":6089:6116   */\n      mstore\n        /* \"#utility.yul\":5984:6123   */\n      pop\n      pop\n      pop\n      jump\t// out\n        /* \"#utility.yul\":6129:6231   */\n    tag_138:\n        /* \"#utility.yul\":6170:6176   */\n      0x00\n        /* \"#utility.yul\":6221:6223   */\n      0x1f\n        /* \"#utility.yul\":6217:6224   */\n      not\n        /* \"#utility.yul\":6212:6214   */\n      0x1f\n        /* \"#utility.yul\":6205:6210   */\n      dup4\n        /* \"#utility.yul\":6201:6215   */\n      add\n        /* \"#utility.yul\":6197:6225   */\n      and\n        /* \"#utility.yul\":6187:6225   */\n      swap1\n      pop\n        /* \"#utility.yul\":6129:6231   */\n      swap2\n      swap1\n      pop\n      jump\t// out\n        /* \"#utility.yul\":6237:6610   */\n    tag_139:\n        /* \"#utility.yul\":6323:6326   */\n      0x00\n        /* \"#utility.yul\":6351:6389   */\n      tag_209\n        /* \"#utility.yul\":6383:6388   */\n      dup3\n        /* \"#utility.yul\":6351:6389   */\n      tag_135\n      jump\t// in\n    tag_209:\n        /* \"#utility.yul\":6405:6475   */\n      tag_210\n        /* \"#utility.yul\":6468:6474   */\n      dup2\n        /* \"#utility.yul\":6463:6466   */\n      dup6\n        /* \"#utility.yul\":6405:6475   */\n      tag_136\n      jump\t// in\n    tag_210:\n        /* \"#utility.yul\":6398:6475   */\n      swap4\n      pop\n        /* \"#utility.yul\":6484:6549   */\n      tag_211\n        /* \"#utility.yul\":6542:6548   */\n      dup2\n        /* \"#utility.yul\":6537:6540   */\n      dup6\n        /* \"#utility.yul\":6530:6534   */\n      0x20\n        /* \"#utility.yul\":6523:6528   */\n      dup7\n        /* \"#utility.yul\":6519:6535   */\n      add\n        /* \"#utility.yul\":6484:6549   */\n      tag_137\n      jump\t// in\n    tag_211:\n        /* \"#utility.yul\":6574:6603   */\n      tag_212\n        /* \"#utility.yul\":6596:6602   */\n      dup2\n        /* \"#utility.yul\":6574:6603   */\n      tag_138\n      jump\t// in\n    tag_212:\n        /* \"#utility.yul\":6569:6572   */\n      dup5\n        /* \"#utility.yul\":6565:6604   */\n      add\n        /* \"#utility.yul\":6558:6604   */\n      swap2\n      pop\n        /* \"#utility.yul\":6327:6610   */\n      pop\n        /* \"#utility.yul\":6237:6610   */\n      swap3\n      swap2\n      pop\n      pop\n      jump\t// out\n        /* \"#utility.yul\":6616:7256   */\n    tag_95:\n        /* \"#utility.yul\":6811:6815   */\n      0x00\n        /* \"#utility.yul\":6849:6852   */\n      0x80\n        /* \"#utility.yul\":6838:6847   */\n      dup3\n        /* \"#utility.yul\":6834:6853   */\n      add\n        /* \"#utility.yul\":6826:6853   */\n      swap1\n      pop\n        /* \"#utility.yul\":6863:6934   */\n      tag_214\n        /* \"#utility.yul\":6931:6932   */\n      0x00\n        /* \"#utility.yul\":6920:6929   */\n      dup4\n        /* \"#utility.yul\":6916:6933   */\n      add\n        /* \"#utility.yul\":6907:6913   */\n      dup8\n        /* \"#utility.yul\":6863:6934   */\n      tag_117\n      jump\t// in\n    tag_214:\n        /* \"#utility.yul\":6944:7016   */\n      tag_215\n        /* \"#utility.yul\":7012:7014   */\n      0x20\n        /* \"#utility.yul\":7001:7010   */\n      dup4\n        /* \"#utility.yul\":6997:7015   */\n      add\n        /* \"#utility.yul\":6988:6994   */\n      dup7\n        /* \"#utility.yul\":6944:7016   */\n      tag_117\n      jump\t// in\n    tag_215:\n        /* \"#utility.yul\":7026:7098   */\n      tag_216\n        /* \"#utility.yul\":7094:7096   */\n      0x40\n        /* \"#utility.yul\":7083:7092   */\n      dup4\n        /* \"#utility.yul\":7079:7097   */\n      add\n        /* \"#utility.yul\":7070:7076   */\n      dup6\n        /* \"#utility.yul\":7026:7098   */\n      tag_128\n      jump\t// in\n    tag_216:\n        /* \"#utility.yul\":7145:7154   */\n      dup2\n        /* \"#utility.yul\":7139:7143   */\n      dup2\n        /* \"#utility.yul\":7135:7155   */\n      sub\n        /* \"#utility.yul\":7130:7132   */\n      0x60\n        /* \"#utility.yul\":7119:7128   */\n      dup4\n        /* \"#utility.yul\":7115:7133   */\n      add\n        /* \"#utility.yul\":7108:7156   */\n      mstore\n        /* \"#utility.yul\":7173:7249   */\n      tag_217\n        /* \"#utility.yul\":7244:7248   */\n      dup2\n        /* \"#utility.yul\":7235:7241   */\n      dup5\n        /* \"#utility.yul\":7173:7249   */\n      tag_139\n      jump\t// in\n    tag_217:\n        /* \"#utility.yul\":7165:7249   */\n      swap1\n      pop\n        /* \"#utility.yul\":6616:7256   */\n      swap6\n      swap5\n      pop\n      pop\n      pop\n      pop\n      pop\n      jump\t// out\n\n    auxdata: 0xa2646970667358221220c766b69e9c7c5812477e745d9ad429049d65ef30c29e8f27c4ccbe1df3db4dfb64736f6c63430008190033\n}\n",
				"bytecode": {
					"linkReferences": {},
					"object": "6080604052348015600e575f80fd5b50335f806101000a81548173ffffffffffffffffffffffffffffffffffffffff021916908373ffffffffffffffffffffffffffffffffffffffff160217905550610da98061005b5f395ff3fe608060405234801561000f575f80fd5b50600436106100b2575f3560e01c806392eefe9b1161006f57806392eefe9b14610154578063c1d2d00d14610170578063db9fcd011461018c578063f2fde38b146101a8578063f56e9c66146101c4578063f77c4791146101e0576100b2565b806304bb60ce146100b6578063715018a6146100d45780637c0b8de2146100de5780638cda7bb4146100fc5780638da5cb5b146101185780638f32d59b14610136575b5f80fd5b6100be6101fe565b6040516100cb9190610a34565b60405180910390f35b6100dc610223565b005b6100e66102d6565b6040516100f39190610a34565b60405180910390f35b61011660048036038101906101119190610aae565b6102fb565b005b610120610487565b60405161012d9190610a34565b60405180910390f35b61013e6104ae565b60405161014b9190610b06565b60405180910390f35b61016e60048036038101906101699190610b1f565b610503565b005b61018a60048036038101906101859190610aae565b610556565b005b6101a660048036038101906101a19190610b1f565b61079c565b005b6101c260048036038101906101bd9190610b1f565b61082f565b005b6101de60048036038101906101d99190610b1f565b61084b565b005b6101e86108de565b6040516101f59190610a34565b60405180910390f35b60025f9054906101000a900473ffffffffffffffffffffffffffffffffffffffff1681565b61022b6104ae565b610233575f80fd5b5f8054906101000a900473ffffffffffffffffffffffffffffffffffffffff1673ffffffffffffffffffffffffffffffffffffffff167ff8df31144d9c2f0f6b59d69b8b98abd5459d07f2742c4df920b25aae33c6482060405160405180910390a25f805f6101000a81548173ffffffffffffffffffffffffffffffffffffffff021916908373ffffffffffffffffffffffffffffffffffffffff160217905550565b60015f9054906101000a900473ffffffffffffffffffffffffffffffffffffffff1681565b5f8054906101000a900473ffffffffffffffffffffffffffffffffffffffff1673ffffffffffffffffffffffffffffffffffffffff163373ffffffffffffffffffffffffffffffffffffffff1614806103a0575060055f9054906101000a900473ffffffffffffffffffffffffffffffffffffffff1673ffffffffffffffffffffffffffffffffffffffff163373ffffffffffffffffffffffffffffffffffffffff16145b6103a8575f80fd5b60035f9054906101000a900473ffffffffffffffffffffffffffffffffffffffff1673ffffffffffffffffffffffffffffffffffffffff1663a9059cbb82846040518363ffffffff1660e01b8152600401610404929190610b59565b6020604051808303815f875af1158015610420573d5f803e3d5ffd5b505050506040513d601f19601f820116820180604052508101906104449190610baa565b610483576040517f08c379a000000000000000000000000000000000000000000000000000000000815260040161047a90610c2f565b60405180910390fd5b5050565b5f805f9054906101000a900473ffffffffffffffffffffffffffffffffffffffff16905090565b5f805f9054906101000a900473ffffffffffffffffffffffffffffffffffffffff1673ffffffffffffffffffffffffffffffffffffffff163373ffffffffffffffffffffffffffffffffffffffff1614905090565b61050b6104ae565b610513575f80fd5b8060055f6101000a81548173ffffffffffffffffffffffffffffffffffffffff021916908373ffffffffffffffffffffffffffffffffffffffff16021790555050565b5f8054906101000a900473ffffffffffffffffffffffffffffffffffffffff1673ffffffffffffffffffffffffffffffffffffffff163373ffffffffffffffffffffffffffffffffffffffff1614806105fb575060055f9054906101000a900473ffffffffffffffffffffffffffffffffffffffff1673ffffffffffffffffffffffffffffffffffffffff163373ffffffffffffffffffffffffffffffffffffffff16145b610603575f80fd5b5f805f67ffffffffffffffff81111561061f5761061e610c4d565b5b6040519080825280601f01601f1916602001820160405280156106515781602001600182028036833780820191505090505b5090505f5b848110156107955760045f9054906101000a900473ffffffffffffffffffffffffffffffffffffffff1673ffffffffffffffffffffffffffffffffffffffff16632f745c5930836040518363ffffffff1660e01b81526004016106ba929190610b59565b602060405180830381865afa1580156106d5573d5f803e3d5ffd5b505050506040513d601f19601f820116820180604052508101906106f99190610c8e565b925060045f9054906101000a900473ffffffffffffffffffffffffffffffffffffffff1673ffffffffffffffffffffffffffffffffffffffff1663b88d4fde308686866040518563ffffffff1660e01b815260040161075b9493929190610d29565b5f604051808303815f87803b158015610772575f80fd5b505af1158015610784573d5f803e3d5ffd5b505050508080600101915050610656565b5050505050565b6107a46104ae565b6107ac575f80fd5b8060025f6101000a81548173ffffffffffffffffffffffffffffffffffffffff021916908373ffffffffffffffffffffffffffffffffffffffff1602179055508060035f6101000a81548173ffffffffffffffffffffffffffffffffffffffff021916908373ffffffffffffffffffffffffffffffffffffffff16021790555050565b6108376104ae565b61083f575f80fd5b61084881610903565b50565b6108536104ae565b61085b575f80fd5b8060015f6101000a81548173ffffffffffffffffffffffffffffffffffffffff021916908373ffffffffffffffffffffffffffffffffffffffff1602179055508060045f6101000a81548173ffffffffffffffffffffffffffffffffffffffff021916908373ffffffffffffffffffffffffffffffffffffffff16021790555050565b60055f9054906101000a900473ffffffffffffffffffffffffffffffffffffffff1681565b5f73ffffffffffffffffffffffffffffffffffffffff168173ffffffffffffffffffffffffffffffffffffffff160361093a575f80fd5b8073ffffffffffffffffffffffffffffffffffffffff165f8054906101000a900473ffffffffffffffffffffffffffffffffffffffff1673ffffffffffffffffffffffffffffffffffffffff167f8be0079c531659141344cd1fd0a4f28419497f9722a3daafe3b4186f6b6457e060405160405180910390a3805f806101000a81548173ffffffffffffffffffffffffffffffffffffffff021916908373ffffffffffffffffffffffffffffffffffffffff16021790555050565b5f73ffffffffffffffffffffffffffffffffffffffff82169050919050565b5f610a1e826109f5565b9050919050565b610a2e81610a14565b82525050565b5f602082019050610a475f830184610a25565b92915050565b5f80fd5b5f819050919050565b610a6381610a51565b8114610a6d575f80fd5b50565b5f81359050610a7e81610a5a565b92915050565b610a8d81610a14565b8114610a97575f80fd5b50565b5f81359050610aa881610a84565b92915050565b5f8060408385031215610ac457610ac3610a4d565b5b5f610ad185828601610a70565b9250506020610ae285828601610a9a565b9150509250929050565b5f8115159050919050565b610b0081610aec565b82525050565b5f602082019050610b195f830184610af7565b92915050565b5f60208284031215610b3457610b33610a4d565b5b5f610b4184828501610a9a565b91505092915050565b610b5381610a51565b82525050565b5f604082019050610b6c5f830185610a25565b610b796020830184610b4a565b9392505050565b610b8981610aec565b8114610b93575f80fd5b50565b5f81519050610ba481610b80565b92915050565b5f60208284031215610bbf57610bbe610a4d565b5b5f610bcc84828501610b96565b91505092915050565b5f82825260208201905092915050565b7f5769746864726177616c206661696c65640000000000000000000000000000005f82015250565b5f610c19601183610bd5565b9150610c2482610be5565b602082019050919050565b5f6020820190508181035f830152610c4681610c0d565b9050919050565b7f4e487b71000000000000000000000000000000000000000000000000000000005f52604160045260245ffd5b5f81519050610c8881610a5a565b92915050565b5f60208284031215610ca357610ca2610a4d565b5b5f610cb084828501610c7a565b91505092915050565b5f81519050919050565b5f82825260208201905092915050565b8281835e5f83830152505050565b5f601f19601f8301169050919050565b5f610cfb82610cb9565b610d058185610cc3565b9350610d15818560208601610cd3565b610d1e81610ce1565b840191505092915050565b5f608082019050610d3c5f830187610a25565b610d496020830186610a25565b610d566040830185610b4a565b8181036060830152610d688184610cf1565b90509594505050505056fea2646970667358221220c766b69e9c7c5812477e745d9ad429049d65ef30c29e8f27c4ccbe1df3db4dfb64736f6c63430008190033",
					"opcodes": "PUSH1 0x80 PUSH1 0x40 MSTORE CALLVALUE DUP1 ISZERO PUSH1 0xE JUMPI PUSH0 DUP1 REVERT JUMPDEST POP CALLER PUSH0 DUP1 PUSH2 0x100 EXP DUP2 SLOAD DUP2 PUSH20 0xFFFFFFFFFFFFFFFFFFFFFFFFFFFFFFFFFFFFFFFF MUL NOT AND SWAP1 DUP4 PUSH20 0xFFFFFFFFFFFFFFFFFFFFFFFFFFFFFFFFFFFFFFFF AND MUL OR SWAP1 SSTORE POP PUSH2 0xDA9 DUP1 PUSH2 0x5B PUSH0 CODECOPY PUSH0 RETURN INVALID PUSH1 0x80 PUSH1 0x40 MSTORE CALLVALUE DUP1 ISZERO PUSH2 0xF JUMPI PUSH0 DUP1 REVERT JUMPDEST POP PUSH1 0x4 CALLDATASIZE LT PUSH2 0xB2 JUMPI PUSH0 CALLDATALOAD PUSH1 0xE0 SHR DUP1 PUSH4 0x92EEFE9B GT PUSH2 0x6F JUMPI DUP1 PUSH4 0x92EEFE9B EQ PUSH2 0x154 JUMPI DUP1 PUSH4 0xC1D2D00D EQ PUSH2 0x170 JUMPI DUP1 PUSH4 0xDB9FCD01 EQ PUSH2 0x18C JUMPI DUP1 PUSH4 0xF2FDE38B EQ PUSH2 0x1A8 JUMPI DUP1 PUSH4 0xF56E9C66 EQ PUSH2 0x1C4 JUMPI DUP1 PUSH4 0xF77C4791 EQ PUSH2 0x1E0 JUMPI PUSH2 0xB2 JUMP JUMPDEST DUP1 PUSH4 0x4BB60CE EQ PUSH2 0xB6 JUMPI DUP1 PUSH4 0x715018A6 EQ PUSH2 0xD4 JUMPI DUP1 PUSH4 0x7C0B8DE2 EQ PUSH2 0xDE JUMPI DUP1 PUSH4 0x8CDA7BB4 EQ PUSH2 0xFC JUMPI DUP1 PUSH4 0x8DA5CB5B EQ PUSH2 0x118 JUMPI DUP1 PUSH4 0x8F32D59B EQ PUSH2 0x136 JUMPI JUMPDEST PUSH0 DUP1 REVERT JUMPDEST PUSH2 0xBE PUSH2 0x1FE JUMP JUMPDEST PUSH1 0x40 MLOAD PUSH2 0xCB SWAP2 SWAP1 PUSH2 0xA34 JUMP JUMPDEST PUSH1 0x40 MLOAD DUP1 SWAP2 SUB SWAP1 RETURN JUMPDEST PUSH2 0xDC PUSH2 0x223 JUMP JUMPDEST STOP JUMPDEST PUSH2 0xE6 PUSH2 0x2D6 JUMP JUMPDEST PUSH1 0x40 MLOAD PUSH2 0xF3 SWAP2 SWAP1 PUSH2 0xA34 JUMP JUMPDEST PUSH1 0x40 MLOAD DUP1 SWAP2 SUB SWAP1 RETURN JUMPDEST PUSH2 0x116 PUSH1 0x4 DUP1 CALLDATASIZE SUB DUP2 ADD SWAP1 PUSH2 0x111 SWAP2 SWAP1 PUSH2 0xAAE JUMP JUMPDEST PUSH2 0x2FB JUMP JUMPDEST STOP JUMPDEST PUSH2 0x120 PUSH2 0x487 JUMP JUMPDEST PUSH1 0x40 MLOAD PUSH2 0x12D SWAP2 SWAP1 PUSH2 0xA34 JUMP JUMPDEST PUSH1 0x40 MLOAD DUP1 SWAP2 SUB SWAP1 RETURN JUMPDEST PUSH2 0x13E PUSH2 0x4AE JUMP JUMPDEST PUSH1 0x40 MLOAD PUSH2 0x14B SWAP2 SWAP1 PUSH2 0xB06 JUMP JUMPDEST PUSH1 0x40 MLOAD DUP1 SWAP2 SUB SWAP1 RETURN JUMPDEST PUSH2 0x16E PUSH1 0x4 DUP1 CALLDATASIZE SUB DUP2 ADD SWAP1 PUSH2 0x169 SWAP2 SWAP1 PUSH2 0xB1F JUMP JUMPDEST PUSH2 0x503 JUMP JUMPDEST STOP JUMPDEST PUSH2 0x18A PUSH1 0x4 DUP1 CALLDATASIZE SUB DUP2 ADD SWAP1 PUSH2 0x185 SWAP2 SWAP1 PUSH2 0xAAE JUMP JUMPDEST PUSH2 0x556 JUMP JUMPDEST STOP JUMPDEST PUSH2 0x1A6 PUSH1 0x4 DUP1 CALLDATASIZE SUB DUP2 ADD SWAP1 PUSH2 0x1A1 SWAP2 SWAP1 PUSH2 0xB1F JUMP JUMPDEST PUSH2 0x79C JUMP JUMPDEST STOP JUMPDEST PUSH2 0x1C2 PUSH1 0x4 DUP1 CALLDATASIZE SUB DUP2 ADD SWAP1 PUSH2 0x1BD SWAP2 SWAP1 PUSH2 0xB1F JUMP JUMPDEST PUSH2 0x82F JUMP JUMPDEST STOP JUMPDEST PUSH2 0x1DE PUSH1 0x4 DUP1 CALLDATASIZE SUB DUP2 ADD SWAP1 PUSH2 0x1D9 SWAP2 SWAP1 PUSH2 0xB1F JUMP JUMPDEST PUSH2 0x84B JUMP JUMPDEST STOP JUMPDEST PUSH2 0x1E8 PUSH2 0x8DE JUMP JUMPDEST PUSH1 0x40 MLOAD PUSH2 0x1F5 SWAP2 SWAP1 PUSH2 0xA34 JUMP JUMPDEST PUSH1 0x40 MLOAD DUP1 SWAP2 SUB SWAP1 RETURN JUMPDEST PUSH1 0x2 PUSH0 SWAP1 SLOAD SWAP1 PUSH2 0x100 EXP SWAP1 DIV PUSH20 0xFFFFFFFFFFFFFFFFFFFFFFFFFFFFFFFFFFFFFFFF AND DUP2 JUMP JUMPDEST PUSH2 0x22B PUSH2 0x4AE JUMP JUMPDEST PUSH2 0x233 JUMPI PUSH0 DUP1 REVERT JUMPDEST PUSH0 DUP1 SLOAD SWAP1 PUSH2 0x100 EXP SWAP1 DIV PUSH20 0xFFFFFFFFFFFFFFFFFFFFFFFFFFFFFFFFFFFFFFFF AND PUSH20 0xFFFFFFFFFFFFFFFFFFFFFFFFFFFFFFFFFFFFFFFF AND PUSH32 0xF8DF31144D9C2F0F6B59D69B8B98ABD5459D07F2742C4DF920B25AAE33C64820 PUSH1 0x40 MLOAD PUSH1 0x40 MLOAD DUP1 SWAP2 SUB SWAP1 LOG2 PUSH0 DUP1 PUSH0 PUSH2 0x100 EXP DUP2 SLOAD DUP2 PUSH20 0xFFFFFFFFFFFFFFFFFFFFFFFFFFFFFFFFFFFFFFFF MUL NOT AND SWAP1 DUP4 PUSH20 0xFFFFFFFFFFFFFFFFFFFFFFFFFFFFFFFFFFFFFFFF AND MUL OR SWAP1 SSTORE POP JUMP JUMPDEST PUSH1 0x1 PUSH0 SWAP1 SLOAD SWAP1 PUSH2 0x100 EXP SWAP1 DIV PUSH20 0xFFFFFFFFFFFFFFFFFFFFFFFFFFFFFFFFFFFFFFFF AND DUP2 JUMP JUMPDEST PUSH0 DUP1 SLOAD SWAP1 PUSH2 0x100 EXP SWAP1 DIV PUSH20 0xFFFFFFFFFFFFFFFFFFFFFFFFFFFFFFFFFFFFFFFF AND PUSH20 0xFFFFFFFFFFFFFFFFFFFFFFFFFFFFFFFFFFFFFFFF AND CALLER PUSH20 0xFFFFFFFFFFFFFFFFFFFFFFFFFFFFFFFFFFFFFFFF AND EQ DUP1 PUSH2 0x3A0 JUMPI POP PUSH1 0x5 PUSH0 SWAP1 SLOAD SWAP1 PUSH2 0x100 EXP SWAP1 DIV PUSH20 0xFFFFFFFFFFFFFFFFFFFFFFFFFFFFFFFFFFFFFFFF AND PUSH20 0xFFFFFFFFFFFFFFFFFFFFFFFFFFFFFFFFFFFFFFFF AND CALLER PUSH20 0xFFFFFFFFFFFFFFFFFFFFFFFFFFFFFFFFFFFFFFFF AND EQ JUMPDEST PUSH2 0x3A8 JUMPI PUSH0 DUP1 REVERT JUMPDEST PUSH1 0x3 PUSH0 SWAP1 SLOAD SWAP1 PUSH2 0x100 EXP SWAP1 DIV PUSH20 0xFFFFFFFFFFFFFFFFFFFFFFFFFFFFFFFFFFFFFFFF AND PUSH20 0xFFFFFFFFFFFFFFFFFFFFFFFFFFFFFFFFFFFFFFFF AND PUSH4 0xA9059CBB DUP3 DUP5 PUSH1 0x40 MLOAD DUP4 PUSH4 0xFFFFFFFF AND PUSH1 0xE0 SHL DUP2 MSTORE PUSH1 0x4 ADD PUSH2 0x404 SWAP3 SWAP2 SWAP1 PUSH2 0xB59 JUMP JUMPDEST PUSH1 0x20 PUSH1 0x40 MLOAD DUP1 DUP4 SUB DUP2 PUSH0 DUP8 GAS CALL ISZERO DUP1 ISZERO PUSH2 0x420 JUMPI RETURNDATASIZE PUSH0 DUP1 RETURNDATACOPY RETURNDATASIZE PUSH0 REVERT JUMPDEST POP POP POP POP PUSH1 0x40 MLOAD RETURNDATASIZE PUSH1 0x1F NOT PUSH1 0x1F DUP3 ADD AND DUP3 ADD DUP1 PUSH1 0x40 MSTORE POP DUP2 ADD SWAP1 PUSH2 0x444 SWAP2 SWAP1 PUSH2 0xBAA JUMP JUMPDEST PUSH2 0x483 JUMPI PUSH1 0x40 MLOAD PUSH32 0x8C379A000000000000000000000000000000000000000000000000000000000 DUP2 MSTORE PUSH1 0x4 ADD PUSH2 0x47A SWAP1 PUSH2 0xC2F JUMP JUMPDEST PUSH1 0x40 MLOAD DUP1 SWAP2 SUB SWAP1 REVERT JUMPDEST POP POP JUMP JUMPDEST PUSH0 DUP1 PUSH0 SWAP1 SLOAD SWAP1 PUSH2 0x100 EXP SWAP1 DIV PUSH20 0xFFFFFFFFFFFFFFFFFFFFFFFFFFFFFFFFFFFFFFFF AND SWAP1 POP SWAP1 JUMP JUMPDEST PUSH0 DUP1 PUSH0 SWAP1 SLOAD SWAP1 PUSH2 0x100 EXP SWAP1 DIV PUSH20 0xFFFFFFFFFFFFFFFFFFFFFFFFFFFFFFFFFFFFFFFF AND PUSH20 0xFFFFFFFFFFFFFFFFFFFFFFFFFFFFFFFFFFFFFFFF AND CALLER PUSH20 0xFFFFFFFFFFFFFFFFFFFFFFFFFFFFFFFFFFFFFFFF AND EQ SWAP1 POP SWAP1 JUMP JUMPDEST PUSH2 0x50B PUSH2 0x4AE JUMP JUMPDEST PUSH2 0x513 JUMPI PUSH0 DUP1 REVERT JUMPDEST DUP1 PUSH1 0x5 PUSH0 PUSH2 0x100 EXP DUP2 SLOAD DUP2 PUSH20 0xFFFFFFFFFFFFFFFFFFFFFFFFFFFFFFFFFFFFFFFF MUL NOT AND SWAP1 DUP4 PUSH20 0xFFFFFFFFFFFFFFFFFFFFFFFFFFFFFFFFFFFFFFFF AND MUL OR SWAP1 SSTORE POP POP JUMP JUMPDEST PUSH0 DUP1 SLOAD SWAP1 PUSH2 0x100 EXP SWAP1 DIV PUSH20 0xFFFFFFFFFFFFFFFFFFFFFFFFFFFFFFFFFFFFFFFF AND PUSH20 0xFFFFFFFFFFFFFFFFFFFFFFFFFFFFFFFFFFFFFFFF AND CALLER PUSH20 0xFFFFFFFFFFFFFFFFFFFFFFFFFFFFFFFFFFFFFFFF AND EQ DUP1 PUSH2 0x5FB JUMPI POP PUSH1 0x5 PUSH0 SWAP1 SLOAD SWAP1 PUSH2 0x100 EXP SWAP1 DIV PUSH20 0xFFFFFFFFFFFFFFFFFFFFFFFFFFFFFFFFFFFFFFFF AND PUSH20 0xFFFFFFFFFFFFFFFFFFFFFFFFFFFFFFFFFFFFFFFF AND CALLER PUSH20 0xFFFFFFFFFFFFFFFFFFFFFFFFFFFFFFFFFFFFFFFF AND EQ JUMPDEST PUSH2 0x603 JUMPI PUSH0 DUP1 REVERT JUMPDEST PUSH0 DUP1 PUSH0 PUSH8 0xFFFFFFFFFFFFFFFF DUP2 GT ISZERO PUSH2 0x61F JUMPI PUSH2 0x61E PUSH2 0xC4D JUMP JUMPDEST JUMPDEST PUSH1 0x40 MLOAD SWAP1 DUP1 DUP3 MSTORE DUP1 PUSH1 0x1F ADD PUSH1 0x1F NOT AND PUSH1 0x20 ADD DUP3 ADD PUSH1 0x40 MSTORE DUP1 ISZERO PUSH2 0x651 JUMPI DUP2 PUSH1 0x20 ADD PUSH1 0x1 DUP3 MUL DUP1 CALLDATASIZE DUP4 CALLDATACOPY DUP1 DUP3 ADD SWAP2 POP POP SWAP1 POP JUMPDEST POP SWAP1 POP PUSH0 JUMPDEST DUP5 DUP2 LT ISZERO PUSH2 0x795 JUMPI PUSH1 0x4 PUSH0 SWAP1 SLOAD SWAP1 PUSH2 0x100 EXP SWAP1 DIV PUSH20 0xFFFFFFFFFFFFFFFFFFFFFFFFFFFFFFFFFFFFFFFF AND PUSH20 0xFFFFFFFFFFFFFFFFFFFFFFFFFFFFFFFFFFFFFFFF AND PUSH4 0x2F745C59 ADDRESS DUP4 PUSH1 0x40 MLOAD DUP4 PUSH4 0xFFFFFFFF AND PUSH1 0xE0 SHL DUP2 MSTORE PUSH1 0x4 ADD PUSH2 0x6BA SWAP3 SWAP2 SWAP1 PUSH2 0xB59 JUMP JUMPDEST PUSH1 0x20 PUSH1 0x40 MLOAD DUP1 DUP4 SUB DUP2 DUP7 GAS STATICCALL ISZERO DUP1 ISZERO PUSH2 0x6D5 JUMPI RETURNDATASIZE PUSH0 DUP1 RETURNDATACOPY RETURNDATASIZE PUSH0 REVERT JUMPDEST POP POP POP POP PUSH1 0x40 MLOAD RETURNDATASIZE PUSH1 0x1F NOT PUSH1 0x1F DUP3 ADD AND DUP3 ADD DUP1 PUSH1 0x40 MSTORE POP DUP2 ADD SWAP1 PUSH2 0x6F9 SWAP2 SWAP1 PUSH2 0xC8E JUMP JUMPDEST SWAP3 POP PUSH1 0x4 PUSH0 SWAP1 SLOAD SWAP1 PUSH2 0x100 EXP SWAP1 DIV PUSH20 0xFFFFFFFFFFFFFFFFFFFFFFFFFFFFFFFFFFFFFFFF AND PUSH20 0xFFFFFFFFFFFFFFFFFFFFFFFFFFFFFFFFFFFFFFFF AND PUSH4 0xB88D4FDE ADDRESS DUP7 DUP7 DUP7 PUSH1 0x40 MLOAD DUP6 PUSH4 0xFFFFFFFF AND PUSH1 0xE0 SHL DUP2 MSTORE PUSH1 0x4 ADD PUSH2 0x75B SWAP5 SWAP4 SWAP3 SWAP2 SWAP1 PUSH2 0xD29 JUMP JUMPDEST PUSH0 PUSH1 0x40 MLOAD DUP1 DUP4 SUB DUP2 PUSH0 DUP8 DUP1 EXTCODESIZE ISZERO DUP1 ISZERO PUSH2 0x772 JUMPI PUSH0 DUP1 REVERT JUMPDEST POP GAS CALL ISZERO DUP1 ISZERO PUSH2 0x784 JUMPI RETURNDATASIZE PUSH0 DUP1 RETURNDATACOPY RETURNDATASIZE PUSH0 REVERT JUMPDEST POP POP POP POP DUP1 DUP1 PUSH1 0x1 ADD SWAP2 POP POP PUSH2 0x656 JUMP JUMPDEST POP POP POP POP POP JUMP JUMPDEST PUSH2 0x7A4 PUSH2 0x4AE JUMP JUMPDEST PUSH2 0x7AC JUMPI PUSH0 DUP1 REVERT JUMPDEST DUP1 PUSH1 0x2 PUSH0 PUSH2 0x100 EXP DUP2 SLOAD DUP2 PUSH20 0xFFFFFFFFFFFFFFFFFFFFFFFFFFFFFFFFFFFFFFFF MUL NOT AND SWAP1 DUP4 PUSH20 0xFFFFFFFFFFFFFFFFFFFFFFFFFFFFFFFFFFFFFFFF AND MUL OR SWAP1 SSTORE POP DUP1 PUSH1 0x3 PUSH0 PUSH2 0x100 EXP DUP2 SLOAD DUP2 PUSH20 0xFFFFFFFFFFFFFFFFFFFFFFFFFFFFFFFFFFFFFFFF MUL NOT AND SWAP1 DUP4 PUSH20 0xFFFFFFFFFFFFFFFFFFFFFFFFFFFFFFFFFFFFFFFF AND MUL OR SWAP1 SSTORE POP POP JUMP JUMPDEST PUSH2 0x837 PUSH2 0x4AE JUMP JUMPDEST PUSH2 0x83F JUMPI PUSH0 DUP1 REVERT JUMPDEST PUSH2 0x848 DUP2 PUSH2 0x903 JUMP JUMPDEST POP JUMP JUMPDEST PUSH2 0x853 PUSH2 0x4AE JUMP JUMPDEST PUSH2 0x85B JUMPI PUSH0 DUP1 REVERT JUMPDEST DUP1 PUSH1 0x1 PUSH0 PUSH2 0x100 EXP DUP2 SLOAD DUP2 PUSH20 0xFFFFFFFFFFFFFFFFFFFFFFFFFFFFFFFFFFFFFFFF MUL NOT AND SWAP1 DUP4 PUSH20 0xFFFFFFFFFFFFFFFFFFFFFFFFFFFFFFFFFFFFFFFF AND MUL OR SWAP1 SSTORE POP DUP1 PUSH1 0x4 PUSH0 PUSH2 0x100 EXP DUP2 SLOAD DUP2 PUSH20 0xFFFFFFFFFFFFFFFFFFFFFFFFFFFFFFFFFFFFFFFF MUL NOT AND SWAP1 DUP4 PUSH20 0xFFFFFFFFFFFFFFFFFFFFFFFFFFFFFFFFFFFFFFFF AND MUL OR SWAP1 SSTORE POP POP JUMP JUMPDEST PUSH1 0x5 PUSH0 SWAP1 SLOAD SWAP1 PUSH2 0x100 EXP SWAP1 DIV PUSH20 0xFFFFFFFFFFFFFFFFFFFFFFFFFFFFFFFFFFFFFFFF AND DUP2 JUMP JUMPDEST PUSH0 PUSH20 0xFFFFFFFFFFFFFFFFFFFFFFFFFFFFFFFFFFFFFFFF AND DUP2 PUSH20 0xFFFFFFFFFFFFFFFFFFFFFFFFFFFFFFFFFFFFFFFF AND SUB PUSH2 0x93A JUMPI PUSH0 DUP1 REVERT JUMPDEST DUP1 PUSH20 0xFFFFFFFFFFFFFFFFFFFFFFFFFFFFFFFFFFFFFFFF AND PUSH0 DUP1 SLOAD SWAP1 PUSH2 0x100 EXP SWAP1 DIV PUSH20 0xFFFFFFFFFFFFFFFFFFFFFFFFFFFFFFFFFFFFFFFF AND PUSH20 0xFFFFFFFFFFFFFFFFFFFFFFFFFFFFFFFFFFFFFFFF AND PUSH32 0x8BE0079C531659141344CD1FD0A4F28419497F9722A3DAAFE3B4186F6B6457E0 PUSH1 0x40 MLOAD PUSH1 0x40 MLOAD DUP1 SWAP2 SUB SWAP1 LOG3 DUP1 PUSH0 DUP1 PUSH2 0x100 EXP DUP2 SLOAD DUP2 PUSH20 0xFFFFFFFFFFFFFFFFFFFFFFFFFFFFFFFFFFFFFFFF MUL NOT AND SWAP1 DUP4 PUSH20 0xFFFFFFFFFFFFFFFFFFFFFFFFFFFFFFFFFFFFFFFF AND MUL OR SWAP1 SSTORE POP POP JUMP JUMPDEST PUSH0 PUSH20 0xFFFFFFFFFFFFFFFFFFFFFFFFFFFFFFFFFFFFFFFF DUP3 AND SWAP1 POP SWAP2 SWAP1 POP JUMP JUMPDEST PUSH0 PUSH2 0xA1E DUP3 PUSH2 0x9F5 JUMP JUMPDEST SWAP1 POP SWAP2 SWAP1 POP JUMP JUMPDEST PUSH2 0xA2E DUP2 PUSH2 0xA14 JUMP JUMPDEST DUP3 MSTORE POP POP JUMP JUMPDEST PUSH0 PUSH1 0x20 DUP3 ADD SWAP1 POP PUSH2 0xA47 PUSH0 DUP4 ADD DUP5 PUSH2 0xA25 JUMP JUMPDEST SWAP3 SWAP2 POP POP JUMP JUMPDEST PUSH0 DUP1 REVERT JUMPDEST PUSH0 DUP2 SWAP1 POP SWAP2 SWAP1 POP JUMP JUMPDEST PUSH2 0xA63 DUP2 PUSH2 0xA51 JUMP JUMPDEST DUP2 EQ PUSH2 0xA6D JUMPI PUSH0 DUP1 REVERT JUMPDEST POP JUMP JUMPDEST PUSH0 DUP2 CALLDATALOAD SWAP1 POP PUSH2 0xA7E DUP2 PUSH2 0xA5A JUMP JUMPDEST SWAP3 SWAP2 POP POP JUMP JUMPDEST PUSH2 0xA8D DUP2 PUSH2 0xA14 JUMP JUMPDEST DUP2 EQ PUSH2 0xA97 JUMPI PUSH0 DUP1 REVERT JUMPDEST POP JUMP JUMPDEST PUSH0 DUP2 CALLDATALOAD SWAP1 POP PUSH2 0xAA8 DUP2 PUSH2 0xA84 JUMP JUMPDEST SWAP3 SWAP2 POP POP JUMP JUMPDEST PUSH0 DUP1 PUSH1 0x40 DUP4 DUP6 SUB SLT ISZERO PUSH2 0xAC4 JUMPI PUSH2 0xAC3 PUSH2 0xA4D JUMP JUMPDEST JUMPDEST PUSH0 PUSH2 0xAD1 DUP6 DUP3 DUP7 ADD PUSH2 0xA70 JUMP JUMPDEST SWAP3 POP POP PUSH1 0x20 PUSH2 0xAE2 DUP6 DUP3 DUP7 ADD PUSH2 0xA9A JUMP JUMPDEST SWAP2 POP POP SWAP3 POP SWAP3 SWAP1 POP JUMP JUMPDEST PUSH0 DUP2 ISZERO ISZERO SWAP1 POP SWAP2 SWAP1 POP JUMP JUMPDEST PUSH2 0xB00 DUP2 PUSH2 0xAEC JUMP JUMPDEST DUP3 MSTORE POP POP JUMP JUMPDEST PUSH0 PUSH1 0x20 DUP3 ADD SWAP1 POP PUSH2 0xB19 PUSH0 DUP4 ADD DUP5 PUSH2 0xAF7 JUMP JUMPDEST SWAP3 SWAP2 POP POP JUMP JUMPDEST PUSH0 PUSH1 0x20 DUP3 DUP5 SUB SLT ISZERO PUSH2 0xB34 JUMPI PUSH2 0xB33 PUSH2 0xA4D JUMP JUMPDEST JUMPDEST PUSH0 PUSH2 0xB41 DUP5 DUP3 DUP6 ADD PUSH2 0xA9A JUMP JUMPDEST SWAP2 POP POP SWAP3 SWAP2 POP POP JUMP JUMPDEST PUSH2 0xB53 DUP2 PUSH2 0xA51 JUMP JUMPDEST DUP3 MSTORE POP POP JUMP JUMPDEST PUSH0 PUSH1 0x40 DUP3 ADD SWAP1 POP PUSH2 0xB6C PUSH0 DUP4 ADD DUP6 PUSH2 0xA25 JUMP JUMPDEST PUSH2 0xB79 PUSH1 0x20 DUP4 ADD DUP5 PUSH2 0xB4A JUMP JUMPDEST SWAP4 SWAP3 POP POP POP JUMP JUMPDEST PUSH2 0xB89 DUP2 PUSH2 0xAEC JUMP JUMPDEST DUP2 EQ PUSH2 0xB93 JUMPI PUSH0 DUP1 REVERT JUMPDEST POP JUMP JUMPDEST PUSH0 DUP2 MLOAD SWAP1 POP PUSH2 0xBA4 DUP2 PUSH2 0xB80 JUMP JUMPDEST SWAP3 SWAP2 POP POP JUMP JUMPDEST PUSH0 PUSH1 0x20 DUP3 DUP5 SUB SLT ISZERO PUSH2 0xBBF JUMPI PUSH2 0xBBE PUSH2 0xA4D JUMP JUMPDEST JUMPDEST PUSH0 PUSH2 0xBCC DUP5 DUP3 DUP6 ADD PUSH2 0xB96 JUMP JUMPDEST SWAP2 POP POP SWAP3 SWAP2 POP POP JUMP JUMPDEST PUSH0 DUP3 DUP3 MSTORE PUSH1 0x20 DUP3 ADD SWAP1 POP SWAP3 SWAP2 POP POP JUMP JUMPDEST PUSH32 0x5769746864726177616C206661696C6564000000000000000000000000000000 PUSH0 DUP3 ADD MSTORE POP JUMP JUMPDEST PUSH0 PUSH2 0xC19 PUSH1 0x11 DUP4 PUSH2 0xBD5 JUMP JUMPDEST SWAP2 POP PUSH2 0xC24 DUP3 PUSH2 0xBE5 JUMP JUMPDEST PUSH1 0x20 DUP3 ADD SWAP1 POP SWAP2 SWAP1 POP JUMP JUMPDEST PUSH0 PUSH1 0x20 DUP3 ADD SWAP1 POP DUP2 DUP2 SUB PUSH0 DUP4 ADD MSTORE PUSH2 0xC46 DUP2 PUSH2 0xC0D JUMP JUMPDEST SWAP1 POP SWAP2 SWAP1 POP JUMP JUMPDEST PUSH32 0x4E487B7100000000000000000000000000000000000000000000000000000000 PUSH0 MSTORE PUSH1 0x41 PUSH1 0x4 MSTORE PUSH1 0x24 PUSH0 REVERT JUMPDEST PUSH0 DUP2 MLOAD SWAP1 POP PUSH2 0xC88 DUP2 PUSH2 0xA5A JUMP JUMPDEST SWAP3 SWAP2 POP POP JUMP JUMPDEST PUSH0 PUSH1 0x20 DUP3 DUP5 SUB SLT ISZERO PUSH2 0xCA3 JUMPI PUSH2 0xCA2 PUSH2 0xA4D JUMP JUMPDEST JUMPDEST PUSH0 PUSH2 0xCB0 DUP5 DUP3 DUP6 ADD PUSH2 0xC7A JUMP JUMPDEST SWAP2 POP POP SWAP3 SWAP2 POP POP JUMP JUMPDEST PUSH0 DUP2 MLOAD SWAP1 POP SWAP2 SWAP1 POP JUMP JUMPDEST PUSH0 DUP3 DUP3 MSTORE PUSH1 0x20 DUP3 ADD SWAP1 POP SWAP3 SWAP2 POP POP JUMP JUMPDEST DUP3 DUP2 DUP4 MCOPY PUSH0 DUP4 DUP4 ADD MSTORE POP POP POP JUMP JUMPDEST PUSH0 PUSH1 0x1F NOT PUSH1 0x1F DUP4 ADD AND SWAP1 POP SWAP2 SWAP1 POP JUMP JUMPDEST PUSH0 PUSH2 0xCFB DUP3 PUSH2 0xCB9 JUMP JUMPDEST PUSH2 0xD05 DUP2 DUP6 PUSH2 0xCC3 JUMP JUMPDEST SWAP4 POP PUSH2 0xD15 DUP2 DUP6 PUSH1 0x20 DUP7 ADD PUSH2 0xCD3 JUMP JUMPDEST PUSH2 0xD1E DUP2 PUSH2 0xCE1 JUMP JUMPDEST DUP5 ADD SWAP2 POP POP SWAP3 SWAP2 POP POP JUMP JUMPDEST PUSH0 PUSH1 0x80 DUP3 ADD SWAP1 POP PUSH2 0xD3C PUSH0 DUP4 ADD DUP8 PUSH2 0xA25 JUMP JUMPDEST PUSH2 0xD49 PUSH1 0x20 DUP4 ADD DUP7 PUSH2 0xA25 JUMP JUMPDEST PUSH2 0xD56 PUSH1 0x40 DUP4 ADD DUP6 PUSH2 0xB4A JUMP JUMPDEST DUP2 DUP2 SUB PUSH1 0x60 DUP4 ADD MSTORE PUSH2 0xD68 DUP2 DUP5 PUSH2 0xCF1 JUMP JUMPDEST SWAP1 POP SWAP6 SWAP5 POP POP POP POP POP JUMP INVALID LOG2 PUSH5 0x6970667358 0x22 SLT KECCAK256 0xC7 PUSH7 0xB69E9C7C581247 PUSH31 0x745D9AD429049D65EF30C29E8F27C4CCBE1DF3DB4DFB64736F6C6343000819 STOP CALLER "
				},
				"gasEstimates": {
					"creation": {
						"codeDepositCost": "699400",
						"executionCost": "24997",
						"totalCost": "724397"
					},
					"external": {
						"FFT()": "2509",
						"NFT()": "2553",
						"controller()": "2618",
						"isOwner()": "2601",
						"owner()": "2604",
						"renounceOwnership()": "29927",
						"setController(address)": "26918",
						"setFFT(address)": "51228",
						"setNFT(address)": "51272",
						"transferOwnership(address)": "30724",
						"withdrawFFT(uint256,address)": "infinite",
						"withdrawNFT(uint256,address)": "infinite"
					}
				},
				"methodIdentifiers": {
					"FFT()": "04bb60ce",
					"NFT()": "7c0b8de2",
					"controller()": "f77c4791",
					"isOwner()": "8f32d59b",
					"owner()": "8da5cb5b",
					"renounceOwnership()": "715018a6",
					"setController(address)": "92eefe9b",
					"setFFT(address)": "db9fcd01",
					"setNFT(address)": "f56e9c66",
					"transferOwnership(address)": "f2fde38b",
					"withdrawFFT(uint256,address)": "8cda7bb4",
					"withdrawNFT(uint256,address)": "c1d2d00d"
				}
			},
			"storageLayout": {
				"storage": [
					{
						"astId": 1421,
						"contract": "contracts/HotswapLiquidity.sol:HotswapLiquidity",
						"label": "_owner",
						"offset": 0,
						"slot": "0",
						"type": "t_address"
					},
					{
						"astId": 1364,
						"contract": "contracts/HotswapLiquidity.sol:HotswapLiquidity",
						"label": "NFT",
						"offset": 0,
						"slot": "1",
						"type": "t_address"
					},
					{
						"astId": 1366,
						"contract": "contracts/HotswapLiquidity.sol:HotswapLiquidity",
						"label": "FFT",
						"offset": 0,
						"slot": "2",
						"type": "t_address"
					},
					{
						"astId": 1369,
						"contract": "contracts/HotswapLiquidity.sol:HotswapLiquidity",
						"label": "_fft",
						"offset": 0,
						"slot": "3",
						"type": "t_contract(ERC20)1590"
					},
					{
						"astId": 1372,
						"contract": "contracts/HotswapLiquidity.sol:HotswapLiquidity",
						"label": "_nft",
						"offset": 0,
						"slot": "4",
						"type": "t_contract(ERC721Enumerable)1670"
					},
					{
						"astId": 1252,
						"contract": "contracts/HotswapLiquidity.sol:HotswapLiquidity",
						"label": "controller",
						"offset": 0,
						"slot": "5",
						"type": "t_address"
					}
				],
				"types": {
					"t_address": {
						"encoding": "inplace",
						"label": "address",
						"numberOfBytes": "20"
					},
					"t_contract(ERC20)1590": {
						"encoding": "inplace",
						"label": "contract ERC20",
						"numberOfBytes": "20"
					},
					"t_contract(ERC721Enumerable)1670": {
						"encoding": "inplace",
						"label": "contract ERC721Enumerable",
						"numberOfBytes": "20"
					}
				}
			},
			"userdoc": {
				"kind": "user",
				"methods": {},
				"version": 1
			}
		}
	}
}