{
	"data": {
		"bytecode": {
			"linkReferences": {},
			"object": "60806040526012600460146101000a81548160ff021916908360ff16021790555034801561002b575f80fd5b50604051611873380380611873833981810160405281019061004d9190610338565b8181335f806101000a81548173ffffffffffffffffffffffffffffffffffffffff021916908373ffffffffffffffffffffffffffffffffffffffff16021790555061009d826100f560201b60201c565b6100ac8161017860201b60201c565b50503360055f6101000a81548173ffffffffffffffffffffffffffffffffffffffff021916908373ffffffffffffffffffffffffffffffffffffffff16021790555050506103d7565b8060015f6101000a81548173ffffffffffffffffffffffffffffffffffffffff021916908373ffffffffffffffffffffffffffffffffffffffff1602179055508060045f6101000a81548173ffffffffffffffffffffffffffffffffffffffff021916908373ffffffffffffffffffffffffffffffffffffffff16021790555050565b8060025f6101000a81548173ffffffffffffffffffffffffffffffffffffffff021916908373ffffffffffffffffffffffffffffffffffffffff1602179055508060035f6101000a81548173ffffffffffffffffffffffffffffffffffffffff021916908373ffffffffffffffffffffffffffffffffffffffff1602179055505f73ffffffffffffffffffffffffffffffffffffffff168173ffffffffffffffffffffffffffffffffffffffff16146102d75760035f9054906101000a900473ffffffffffffffffffffffffffffffffffffffff1673ffffffffffffffffffffffffffffffffffffffff1663313ce5676040518163ffffffff1660e01b8152600401602060405180830381865afa9250505080156102b457506040513d601f19601f820116820180604052508101906102b191906103ac565b60015b156102d65780600460146101000a81548160ff021916908360ff160217905550505b5b50565b5f80fd5b5f73ffffffffffffffffffffffffffffffffffffffff82169050919050565b5f610307826102de565b9050919050565b610317816102fd565b8114610321575f80fd5b50565b5f815190506103328161030e565b92915050565b5f806040838503121561034e5761034d6102da565b5b5f61035b85828601610324565b925050602061036c85828601610324565b9150509250929050565b5f60ff82169050919050565b61038b81610376565b8114610395575f80fd5b50565b5f815190506103a681610382565b92915050565b5f602082840312156103c1576103c06102da565b5b5f6103ce84828501610398565b91505092915050565b61148f806103e45f395ff3fe608060405234801561000f575f80fd5b5060043610610109575f3560e01c8063715018a6116100a05780638f32d59b1161006f5780638f32d59b14610271578063cc18cb871461028f578063d212a69a146102c5578063f2fde38b146102e3578063fb5b82d0146102ff57610109565b8063715018a61461020d5780637c0b8de2146102175780638da5cb5b146102355780638e9915921461025357610109565b8063313ce567116100dc578063313ce5671461019757806336171e0e146101b5578063491d0a56146101d1578063673a7e28146101ef57610109565b806304bb60ce1461010d57806306fdde031461012b578063150b7a0214610149578063235b6ea114610179575b5f80fd5b61011561031b565b6040516101229190610da0565b60405180910390f35b610133610340565b6040516101409190610e29565b60405180910390f35b610163600480360381019061015e9190610f18565b610593565b6040516101709190610fd6565b60405180910390f35b6101816105a7565b60405161018e9190610ffe565b60405180910390f35b61019f6105ad565b6040516101ac9190611032565b60405180910390f35b6101cf60048036038101906101ca919061104b565b6105c0565b005b6101d961065c565b6040516101e69190610da0565b60405180910390f35b6101f7610681565b6040516102049190610ffe565b60405180910390f35b610215610849565b005b61021f6108fc565b60405161022c9190610da0565b60405180910390f35b61023d610921565b60405161024a9190610da0565b60405180910390f35b61025b610948565b6040516102689190610da0565b60405180910390f35b61027961096d565b6040516102869190611090565b60405180910390f35b6102a960048036038101906102a491906110a9565b6109c2565b6040516102bc97969594939291906110d4565b60405180910390f35b6102cd610a3a565b6040516102da9190610ffe565b60405180910390f35b6102fd60048036038101906102f8919061104b565b610a40565b005b6103196004803603810190610314919061104b565b610a5c565b005b60025f9054906101000a900473ffffffffffffffffffffffffffffffffffffffff1681565b60605f73ffffffffffffffffffffffffffffffffffffffff1660015f9054906101000a900473ffffffffffffffffffffffffffffffffffffffff1673ffffffffffffffffffffffffffffffffffffffff161480156103ea57505f73ffffffffffffffffffffffffffffffffffffffff1660025f9054906101000a900473ffffffffffffffffffffffffffffffffffffffff1673ffffffffffffffffffffffffffffffffffffffff16145b1561042c576040518060400160405280600681526020017f4c656761637900000000000000000000000000000000000000000000000000008152509050610590565b60045f9054906101000a900473ffffffffffffffffffffffffffffffffffffffff1673ffffffffffffffffffffffffffffffffffffffff166306fdde036040518163ffffffff1660e01b81526004015f60405180830381865afa158015610495573d5f803e3d5ffd5b505050506040513d5f823e3d601f19601f820116820180604052508101906104bd919061125b565b6040516020016104cd9190611302565b60405160208183030381529060405260035f9054906101000a900473ffffffffffffffffffffffffffffffffffffffff1673ffffffffffffffffffffffffffffffffffffffff166306fdde036040518163ffffffff1660e01b81526004015f60405180830381865afa158015610545573d5f803e3d5ffd5b505050506040513d5f823e3d601f19601f8201168201806040525081019061056d919061125b565b60405160200161057e929190611327565b60405160208183030381529060405290505b90565b5f63150b7a0260e01b905095945050505050565b60075481565b600460149054906101000a900460ff1681565b6105c861096d565b6105d0575f80fd5b8060065f6101000a81548173ffffffffffffffffffffffffffffffffffffffff021916908373ffffffffffffffffffffffffffffffffffffffff16021790555080600c5f6101000a81548173ffffffffffffffffffffffffffffffffffffffff021916908373ffffffffffffffffffffffffffffffffffffffff160217905550610658610681565b5050565b60065f9054906101000a900473ffffffffffffffffffffffffffffffffffffffff1681565b5f8060035f9054906101000a900473ffffffffffffffffffffffffffffffffffffffff1673ffffffffffffffffffffffffffffffffffffffff166370a0823160065f9054906101000a900473ffffffffffffffffffffffffffffffffffffffff166040518263ffffffff1660e01b81526004016106fe9190610da0565b602060405180830381865afa158015610719573d5f803e3d5ffd5b505050506040513d601f19601f8201168201806040525081019061073d919061135e565b90505f60045f9054906101000a900473ffffffffffffffffffffffffffffffffffffffff1673ffffffffffffffffffffffffffffffffffffffff166370a0823160065f9054906101000a900473ffffffffffffffffffffffffffffffffffffffff166040518263ffffffff1660e01b81526004016107bb9190610da0565b602060405180830381865afa1580156107d6573d5f803e3d5ffd5b505050506040513d601f19601f820116820180604052508101906107fa919061135e565b90505f61081683600460149054906101000a900460ff16610aaf565b9050610823826012610aaf565b91505f82111561083e576108378183610ade565b6007819055505b600754935050505090565b61085161096d565b610859575f80fd5b5f8054906101000a900473ffffffffffffffffffffffffffffffffffffffff1673ffffffffffffffffffffffffffffffffffffffff167ff8df31144d9c2f0f6b59d69b8b98abd5459d07f2742c4df920b25aae33c6482060405160405180910390a25f805f6101000a81548173ffffffffffffffffffffffffffffffffffffffff021916908373ffffffffffffffffffffffffffffffffffffffff160217905550565b60015f9054906101000a900473ffffffffffffffffffffffffffffffffffffffff1681565b5f805f9054906101000a900473ffffffffffffffffffffffffffffffffffffffff16905090565b60055f9054906101000a900473ffffffffffffffffffffffffffffffffffffffff1681565b5f805f9054906101000a900473ffffffffffffffffffffffffffffffffffffffff1673ffffffffffffffffffffffffffffffffffffffff163373ffffffffffffffffffffffffffffffffffffffff1614905090565b600a81815481106109d1575f80fd5b905f5260205f2090600702015f91509050805f015f9054906101000a900473ffffffffffffffffffffffffffffffffffffffff1690806001015490806002015490806003015490806004015490806005015f9054906101000a900460ff16908060060154905087565b600b5481565b610a4861096d565b610a50575f80fd5b610a5981610af1565b50565b610a6461096d565b610a6c575f80fd5b8060055f6101000a81548173ffffffffffffffffffffffffffffffffffffffff021916908373ffffffffffffffffffffffffffffffffffffffff16021790555050565b5f60018260ff1614610ad457610ac482610be3565b83610acf91906113b6565b610ad6565b825b905092915050565b5f610ae98383610c33565b905092915050565b5f73ffffffffffffffffffffffffffffffffffffffff168173ffffffffffffffffffffffffffffffffffffffff1603610b28575f80fd5b8073ffffffffffffffffffffffffffffffffffffffff165f8054906101000a900473ffffffffffffffffffffffffffffffffffffffff1673ffffffffffffffffffffffffffffffffffffffff167f8be0079c531659141344cd1fd0a4f28419497f9722a3daafe3b4186f6b6457e060405160405180910390a3805f806101000a81548173ffffffffffffffffffffffffffffffffffffffff021916908373ffffffffffffffffffffffffffffffffffffffff16021790555050565b5f60085f8360ff1660ff1681526020019081526020015f205490505f8103610c2e578160120360ff16600a0a90508060085f8460ff1660ff1681526020019081526020015f20819055505b919050565b5f610c4783670de0b6b3a764000084610c4f565b905092915050565b5f805f80198587098587029250828110838203039150505f8103610c8757838281610c7d57610c7c6113f7565b5b0492505050610d5a565b838110610ccf578585856040517f6c59da12000000000000000000000000000000000000000000000000000000008152600401610cc693929190611424565b60405180910390fd5b5f8486880990508281118203915080830392505f6001861901861690505f81870496508185049450600182835f0304019050808402851794505f60028860030218905080880260020381029050808802600203810290508088026002038102905080880260020381029050808802600203810290508088026002038102905080860296505050505050505b9392505050565b5f73ffffffffffffffffffffffffffffffffffffffff82169050919050565b5f610d8a82610d61565b9050919050565b610d9a81610d80565b82525050565b5f602082019050610db35f830184610d91565b92915050565b5f81519050919050565b5f82825260208201905092915050565b8281835e5f83830152505050565b5f601f19601f8301169050919050565b5f610dfb82610db9565b610e058185610dc3565b9350610e15818560208601610dd3565b610e1e81610de1565b840191505092915050565b5f6020820190508181035f830152610e418184610df1565b905092915050565b5f604051905090565b5f80fd5b5f80fd5b610e6381610d80565b8114610e6d575f80fd5b50565b5f81359050610e7e81610e5a565b92915050565b5f819050919050565b610e9681610e84565b8114610ea0575f80fd5b50565b5f81359050610eb181610e8d565b92915050565b5f80fd5b5f80fd5b5f80fd5b5f8083601f840112610ed857610ed7610eb7565b5b8235905067ffffffffffffffff811115610ef557610ef4610ebb565b5b602083019150836001820283011115610f1157610f10610ebf565b5b9250929050565b5f805f805f60808688031215610f3157610f30610e52565b5b5f610f3e88828901610e70565b9550506020610f4f88828901610e70565b9450506040610f6088828901610ea3565b935050606086013567ffffffffffffffff811115610f8157610f80610e56565b5b610f8d88828901610ec3565b92509250509295509295909350565b5f7fffffffff0000000000000000000000000000000000000000000000000000000082169050919050565b610fd081610f9c565b82525050565b5f602082019050610fe95f830184610fc7565b92915050565b610ff881610e84565b82525050565b5f6020820190506110115f830184610fef565b92915050565b5f60ff82169050919050565b61102c81611017565b82525050565b5f6020820190506110455f830184611023565b92915050565b5f602082840312156110605761105f610e52565b5b5f61106d84828501610e70565b91505092915050565b5f8115159050919050565b61108a81611076565b82525050565b5f6020820190506110a35f830184611081565b92915050565b5f602082840312156110be576110bd610e52565b5b5f6110cb84828501610ea3565b91505092915050565b5f60e0820190506110e75f83018a610d91565b6110f46020830189610fef565b6111016040830188610fef565b61110e6060830187610fef565b61111b6080830186610fef565b61112860a0830185611081565b61113560c0830184610fef565b98975050505050505050565b5f80fd5b7f4e487b71000000000000000000000000000000000000000000000000000000005f52604160045260245ffd5b61117b82610de1565b810181811067ffffffffffffffff8211171561119a57611199611145565b5b80604052505050565b5f6111ac610e49565b90506111b88282611172565b919050565b5f67ffffffffffffffff8211156111d7576111d6611145565b5b6111e082610de1565b9050602081019050919050565b5f6111ff6111fa846111bd565b6111a3565b90508281526020810184848401111561121b5761121a611141565b5b611226848285610dd3565b509392505050565b5f82601f83011261124257611241610eb7565b5b81516112528482602086016111ed565b91505092915050565b5f602082840312156112705761126f610e52565b5b5f82015167ffffffffffffffff81111561128d5761128c610e56565b5b6112998482850161122e565b91505092915050565b5f81905092915050565b5f6112b682610db9565b6112c081856112a2565b93506112d0818560208601610dd3565b80840191505092915050565b7f202d200000000000000000000000000000000000000000000000000000000000815250565b5f61130d82846112ac565b9150611318826112dc565b60038201915081905092915050565b5f61133282856112ac565b915061133e82846112ac565b91508190509392505050565b5f8151905061135881610e8d565b92915050565b5f6020828403121561137357611372610e52565b5b5f6113808482850161134a565b91505092915050565b7f4e487b71000000000000000000000000000000000000000000000000000000005f52601160045260245ffd5b5f6113c082610e84565b91506113cb83610e84565b92508282026113d981610e84565b915082820484148315176113f0576113ef611389565b5b5092915050565b7f4e487b71000000000000000000000000000000000000000000000000000000005f52601260045260245ffd5b5f6060820190506114375f830186610fef565b6114446020830185610fef565b6114516040830184610fef565b94935050505056fea26469706673582212205899f0a195c49ce2bb4dcea2c38f38f2f16d5140d45a9ebeed5f0d9e3b55160564736f6c63430008190033",
			"opcodes": "PUSH1 0x80 PUSH1 0x40 MSTORE PUSH1 0x12 PUSH1 0x4 PUSH1 0x14 PUSH2 0x100 EXP DUP2 SLOAD DUP2 PUSH1 0xFF MUL NOT AND SWAP1 DUP4 PUSH1 0xFF AND MUL OR SWAP1 SSTORE POP CALLVALUE DUP1 ISZERO PUSH2 0x2B JUMPI PUSH0 DUP1 REVERT JUMPDEST POP PUSH1 0x40 MLOAD PUSH2 0x1873 CODESIZE SUB DUP1 PUSH2 0x1873 DUP4 CODECOPY DUP2 DUP2 ADD PUSH1 0x40 MSTORE DUP2 ADD SWAP1 PUSH2 0x4D SWAP2 SWAP1 PUSH2 0x338 JUMP JUMPDEST DUP2 DUP2 CALLER PUSH0 DUP1 PUSH2 0x100 EXP DUP2 SLOAD DUP2 PUSH20 0xFFFFFFFFFFFFFFFFFFFFFFFFFFFFFFFFFFFFFFFF MUL NOT AND SWAP1 DUP4 PUSH20 0xFFFFFFFFFFFFFFFFFFFFFFFFFFFFFFFFFFFFFFFF AND MUL OR SWAP1 SSTORE POP PUSH2 0x9D DUP3 PUSH2 0xF5 PUSH1 0x20 SHL PUSH1 0x20 SHR JUMP JUMPDEST PUSH2 0xAC DUP2 PUSH2 0x178 PUSH1 0x20 SHL PUSH1 0x20 SHR JUMP JUMPDEST POP POP CALLER PUSH1 0x5 PUSH0 PUSH2 0x100 EXP DUP2 SLOAD DUP2 PUSH20 0xFFFFFFFFFFFFFFFFFFFFFFFFFFFFFFFFFFFFFFFF MUL NOT AND SWAP1 DUP4 PUSH20 0xFFFFFFFFFFFFFFFFFFFFFFFFFFFFFFFFFFFFFFFF AND MUL OR SWAP1 SSTORE POP POP POP PUSH2 0x3D7 JUMP JUMPDEST DUP1 PUSH1 0x1 PUSH0 PUSH2 0x100 EXP DUP2 SLOAD DUP2 PUSH20 0xFFFFFFFFFFFFFFFFFFFFFFFFFFFFFFFFFFFFFFFF MUL NOT AND SWAP1 DUP4 PUSH20 0xFFFFFFFFFFFFFFFFFFFFFFFFFFFFFFFFFFFFFFFF AND MUL OR SWAP1 SSTORE POP DUP1 PUSH1 0x4 PUSH0 PUSH2 0x100 EXP DUP2 SLOAD DUP2 PUSH20 0xFFFFFFFFFFFFFFFFFFFFFFFFFFFFFFFFFFFFFFFF MUL NOT AND SWAP1 DUP4 PUSH20 0xFFFFFFFFFFFFFFFFFFFFFFFFFFFFFFFFFFFFFFFF AND MUL OR SWAP1 SSTORE POP POP JUMP JUMPDEST DUP1 PUSH1 0x2 PUSH0 PUSH2 0x100 EXP DUP2 SLOAD DUP2 PUSH20 0xFFFFFFFFFFFFFFFFFFFFFFFFFFFFFFFFFFFFFFFF MUL NOT AND SWAP1 DUP4 PUSH20 0xFFFFFFFFFFFFFFFFFFFFFFFFFFFFFFFFFFFFFFFF AND MUL OR SWAP1 SSTORE POP DUP1 PUSH1 0x3 PUSH0 PUSH2 0x100 EXP DUP2 SLOAD DUP2 PUSH20 0xFFFFFFFFFFFFFFFFFFFFFFFFFFFFFFFFFFFFFFFF MUL NOT AND SWAP1 DUP4 PUSH20 0xFFFFFFFFFFFFFFFFFFFFFFFFFFFFFFFFFFFFFFFF AND MUL OR SWAP1 SSTORE POP PUSH0 PUSH20 0xFFFFFFFFFFFFFFFFFFFFFFFFFFFFFFFFFFFFFFFF AND DUP2 PUSH20 0xFFFFFFFFFFFFFFFFFFFFFFFFFFFFFFFFFFFFFFFF AND EQ PUSH2 0x2D7 JUMPI PUSH1 0x3 PUSH0 SWAP1 SLOAD SWAP1 PUSH2 0x100 EXP SWAP1 DIV PUSH20 0xFFFFFFFFFFFFFFFFFFFFFFFFFFFFFFFFFFFFFFFF AND PUSH20 0xFFFFFFFFFFFFFFFFFFFFFFFFFFFFFFFFFFFFFFFF AND PUSH4 0x313CE567 PUSH1 0x40 MLOAD DUP2 PUSH4 0xFFFFFFFF AND PUSH1 0xE0 SHL DUP2 MSTORE PUSH1 0x4 ADD PUSH1 0x20 PUSH1 0x40 MLOAD DUP1 DUP4 SUB DUP2 DUP7 GAS STATICCALL SWAP3 POP POP POP DUP1 ISZERO PUSH2 0x2B4 JUMPI POP PUSH1 0x40 MLOAD RETURNDATASIZE PUSH1 0x1F NOT PUSH1 0x1F DUP3 ADD AND DUP3 ADD DUP1 PUSH1 0x40 MSTORE POP DUP2 ADD SWAP1 PUSH2 0x2B1 SWAP2 SWAP1 PUSH2 0x3AC JUMP JUMPDEST PUSH1 0x1 JUMPDEST ISZERO PUSH2 0x2D6 JUMPI DUP1 PUSH1 0x4 PUSH1 0x14 PUSH2 0x100 EXP DUP2 SLOAD DUP2 PUSH1 0xFF MUL NOT AND SWAP1 DUP4 PUSH1 0xFF AND MUL OR SWAP1 SSTORE POP POP JUMPDEST JUMPDEST POP JUMP JUMPDEST PUSH0 DUP1 REVERT JUMPDEST PUSH0 PUSH20 0xFFFFFFFFFFFFFFFFFFFFFFFFFFFFFFFFFFFFFFFF DUP3 AND SWAP1 POP SWAP2 SWAP1 POP JUMP JUMPDEST PUSH0 PUSH2 0x307 DUP3 PUSH2 0x2DE JUMP JUMPDEST SWAP1 POP SWAP2 SWAP1 POP JUMP JUMPDEST PUSH2 0x317 DUP2 PUSH2 0x2FD JUMP JUMPDEST DUP2 EQ PUSH2 0x321 JUMPI PUSH0 DUP1 REVERT JUMPDEST POP JUMP JUMPDEST PUSH0 DUP2 MLOAD SWAP1 POP PUSH2 0x332 DUP2 PUSH2 0x30E JUMP JUMPDEST SWAP3 SWAP2 POP POP JUMP JUMPDEST PUSH0 DUP1 PUSH1 0x40 DUP4 DUP6 SUB SLT ISZERO PUSH2 0x34E JUMPI PUSH2 0x34D PUSH2 0x2DA JUMP JUMPDEST JUMPDEST PUSH0 PUSH2 0x35B DUP6 DUP3 DUP7 ADD PUSH2 0x324 JUMP JUMPDEST SWAP3 POP POP PUSH1 0x20 PUSH2 0x36C DUP6 DUP3 DUP7 ADD PUSH2 0x324 JUMP JUMPDEST SWAP2 POP POP SWAP3 POP SWAP3 SWAP1 POP JUMP JUMPDEST PUSH0 PUSH1 0xFF DUP3 AND SWAP1 POP SWAP2 SWAP1 POP JUMP JUMPDEST PUSH2 0x38B DUP2 PUSH2 0x376 JUMP JUMPDEST DUP2 EQ PUSH2 0x395 JUMPI PUSH0 DUP1 REVERT JUMPDEST POP JUMP JUMPDEST PUSH0 DUP2 MLOAD SWAP1 POP PUSH2 0x3A6 DUP2 PUSH2 0x382 JUMP JUMPDEST SWAP3 SWAP2 POP POP JUMP JUMPDEST PUSH0 PUSH1 0x20 DUP3 DUP5 SUB SLT ISZERO PUSH2 0x3C1 JUMPI PUSH2 0x3C0 PUSH2 0x2DA JUMP JUMPDEST JUMPDEST PUSH0 PUSH2 0x3CE DUP5 DUP3 DUP6 ADD PUSH2 0x398 JUMP JUMPDEST SWAP2 POP POP SWAP3 SWAP2 POP POP JUMP JUMPDEST PUSH2 0x148F DUP1 PUSH2 0x3E4 PUSH0 CODECOPY PUSH0 RETURN INVALID PUSH1 0x80 PUSH1 0x40 MSTORE CALLVALUE DUP1 ISZERO PUSH2 0xF JUMPI PUSH0 DUP1 REVERT JUMPDEST POP PUSH1 0x4 CALLDATASIZE LT PUSH2 0x109 JUMPI PUSH0 CALLDATALOAD PUSH1 0xE0 SHR DUP1 PUSH4 0x715018A6 GT PUSH2 0xA0 JUMPI DUP1 PUSH4 0x8F32D59B GT PUSH2 0x6F JUMPI DUP1 PUSH4 0x8F32D59B EQ PUSH2 0x271 JUMPI DUP1 PUSH4 0xCC18CB87 EQ PUSH2 0x28F JUMPI DUP1 PUSH4 0xD212A69A EQ PUSH2 0x2C5 JUMPI DUP1 PUSH4 0xF2FDE38B EQ PUSH2 0x2E3 JUMPI DUP1 PUSH4 0xFB5B82D0 EQ PUSH2 0x2FF JUMPI PUSH2 0x109 JUMP JUMPDEST DUP1 PUSH4 0x715018A6 EQ PUSH2 0x20D JUMPI DUP1 PUSH4 0x7C0B8DE2 EQ PUSH2 0x217 JUMPI DUP1 PUSH4 0x8DA5CB5B EQ PUSH2 0x235 JUMPI DUP1 PUSH4 0x8E991592 EQ PUSH2 0x253 JUMPI PUSH2 0x109 JUMP JUMPDEST DUP1 PUSH4 0x313CE567 GT PUSH2 0xDC JUMPI DUP1 PUSH4 0x313CE567 EQ PUSH2 0x197 JUMPI DUP1 PUSH4 0x36171E0E EQ PUSH2 0x1B5 JUMPI DUP1 PUSH4 0x491D0A56 EQ PUSH2 0x1D1 JUMPI DUP1 PUSH4 0x673A7E28 EQ PUSH2 0x1EF JUMPI PUSH2 0x109 JUMP JUMPDEST DUP1 PUSH4 0x4BB60CE EQ PUSH2 0x10D JUMPI DUP1 PUSH4 0x6FDDE03 EQ PUSH2 0x12B JUMPI DUP1 PUSH4 0x150B7A02 EQ PUSH2 0x149 JUMPI DUP1 PUSH4 0x235B6EA1 EQ PUSH2 0x179 JUMPI JUMPDEST PUSH0 DUP1 REVERT JUMPDEST PUSH2 0x115 PUSH2 0x31B JUMP JUMPDEST PUSH1 0x40 MLOAD PUSH2 0x122 SWAP2 SWAP1 PUSH2 0xDA0 JUMP JUMPDEST PUSH1 0x40 MLOAD DUP1 SWAP2 SUB SWAP1 RETURN JUMPDEST PUSH2 0x133 PUSH2 0x340 JUMP JUMPDEST PUSH1 0x40 MLOAD PUSH2 0x140 SWAP2 SWAP1 PUSH2 0xE29 JUMP JUMPDEST PUSH1 0x40 MLOAD DUP1 SWAP2 SUB SWAP1 RETURN JUMPDEST PUSH2 0x163 PUSH1 0x4 DUP1 CALLDATASIZE SUB DUP2 ADD SWAP1 PUSH2 0x15E SWAP2 SWAP1 PUSH2 0xF18 JUMP JUMPDEST PUSH2 0x593 JUMP JUMPDEST PUSH1 0x40 MLOAD PUSH2 0x170 SWAP2 SWAP1 PUSH2 0xFD6 JUMP JUMPDEST PUSH1 0x40 MLOAD DUP1 SWAP2 SUB SWAP1 RETURN JUMPDEST PUSH2 0x181 PUSH2 0x5A7 JUMP JUMPDEST PUSH1 0x40 MLOAD PUSH2 0x18E SWAP2 SWAP1 PUSH2 0xFFE JUMP JUMPDEST PUSH1 0x40 MLOAD DUP1 SWAP2 SUB SWAP1 RETURN JUMPDEST PUSH2 0x19F PUSH2 0x5AD JUMP JUMPDEST PUSH1 0x40 MLOAD PUSH2 0x1AC SWAP2 SWAP1 PUSH2 0x1032 JUMP JUMPDEST PUSH1 0x40 MLOAD DUP1 SWAP2 SUB SWAP1 RETURN JUMPDEST PUSH2 0x1CF PUSH1 0x4 DUP1 CALLDATASIZE SUB DUP2 ADD SWAP1 PUSH2 0x1CA SWAP2 SWAP1 PUSH2 0x104B JUMP JUMPDEST PUSH2 0x5C0 JUMP JUMPDEST STOP JUMPDEST PUSH2 0x1D9 PUSH2 0x65C JUMP JUMPDEST PUSH1 0x40 MLOAD PUSH2 0x1E6 SWAP2 SWAP1 PUSH2 0xDA0 JUMP JUMPDEST PUSH1 0x40 MLOAD DUP1 SWAP2 SUB SWAP1 RETURN JUMPDEST PUSH2 0x1F7 PUSH2 0x681 JUMP JUMPDEST PUSH1 0x40 MLOAD PUSH2 0x204 SWAP2 SWAP1 PUSH2 0xFFE JUMP JUMPDEST PUSH1 0x40 MLOAD DUP1 SWAP2 SUB SWAP1 RETURN JUMPDEST PUSH2 0x215 PUSH2 0x849 JUMP JUMPDEST STOP JUMPDEST PUSH2 0x21F PUSH2 0x8FC JUMP JUMPDEST PUSH1 0x40 MLOAD PUSH2 0x22C SWAP2 SWAP1 PUSH2 0xDA0 JUMP JUMPDEST PUSH1 0x40 MLOAD DUP1 SWAP2 SUB SWAP1 RETURN JUMPDEST PUSH2 0x23D PUSH2 0x921 JUMP JUMPDEST PUSH1 0x40 MLOAD PUSH2 0x24A SWAP2 SWAP1 PUSH2 0xDA0 JUMP JUMPDEST PUSH1 0x40 MLOAD DUP1 SWAP2 SUB SWAP1 RETURN JUMPDEST PUSH2 0x25B PUSH2 0x948 JUMP JUMPDEST PUSH1 0x40 MLOAD PUSH2 0x268 SWAP2 SWAP1 PUSH2 0xDA0 JUMP JUMPDEST PUSH1 0x40 MLOAD DUP1 SWAP2 SUB SWAP1 RETURN JUMPDEST PUSH2 0x279 PUSH2 0x96D JUMP JUMPDEST PUSH1 0x40 MLOAD PUSH2 0x286 SWAP2 SWAP1 PUSH2 0x1090 JUMP JUMPDEST PUSH1 0x40 MLOAD DUP1 SWAP2 SUB SWAP1 RETURN JUMPDEST PUSH2 0x2A9 PUSH1 0x4 DUP1 CALLDATASIZE SUB DUP2 ADD SWAP1 PUSH2 0x2A4 SWAP2 SWAP1 PUSH2 0x10A9 JUMP JUMPDEST PUSH2 0x9C2 JUMP JUMPDEST PUSH1 0x40 MLOAD PUSH2 0x2BC SWAP8 SWAP7 SWAP6 SWAP5 SWAP4 SWAP3 SWAP2 SWAP1 PUSH2 0x10D4 JUMP JUMPDEST PUSH1 0x40 MLOAD DUP1 SWAP2 SUB SWAP1 RETURN JUMPDEST PUSH2 0x2CD PUSH2 0xA3A JUMP JUMPDEST PUSH1 0x40 MLOAD PUSH2 0x2DA SWAP2 SWAP1 PUSH2 0xFFE JUMP JUMPDEST PUSH1 0x40 MLOAD DUP1 SWAP2 SUB SWAP1 RETURN JUMPDEST PUSH2 0x2FD PUSH1 0x4 DUP1 CALLDATASIZE SUB DUP2 ADD SWAP1 PUSH2 0x2F8 SWAP2 SWAP1 PUSH2 0x104B JUMP JUMPDEST PUSH2 0xA40 JUMP JUMPDEST STOP JUMPDEST PUSH2 0x319 PUSH1 0x4 DUP1 CALLDATASIZE SUB DUP2 ADD SWAP1 PUSH2 0x314 SWAP2 SWAP1 PUSH2 0x104B JUMP JUMPDEST PUSH2 0xA5C JUMP JUMPDEST STOP JUMPDEST PUSH1 0x2 PUSH0 SWAP1 SLOAD SWAP1 PUSH2 0x100 EXP SWAP1 DIV PUSH20 0xFFFFFFFFFFFFFFFFFFFFFFFFFFFFFFFFFFFFFFFF AND DUP2 JUMP JUMPDEST PUSH1 0x60 PUSH0 PUSH20 0xFFFFFFFFFFFFFFFFFFFFFFFFFFFFFFFFFFFFFFFF AND PUSH1 0x1 PUSH0 SWAP1 SLOAD SWAP1 PUSH2 0x100 EXP SWAP1 DIV PUSH20 0xFFFFFFFFFFFFFFFFFFFFFFFFFFFFFFFFFFFFFFFF AND PUSH20 0xFFFFFFFFFFFFFFFFFFFFFFFFFFFFFFFFFFFFFFFF AND EQ DUP1 ISZERO PUSH2 0x3EA JUMPI POP PUSH0 PUSH20 0xFFFFFFFFFFFFFFFFFFFFFFFFFFFFFFFFFFFFFFFF AND PUSH1 0x2 PUSH0 SWAP1 SLOAD SWAP1 PUSH2 0x100 EXP SWAP1 DIV PUSH20 0xFFFFFFFFFFFFFFFFFFFFFFFFFFFFFFFFFFFFFFFF AND PUSH20 0xFFFFFFFFFFFFFFFFFFFFFFFFFFFFFFFFFFFFFFFF AND EQ JUMPDEST ISZERO PUSH2 0x42C JUMPI PUSH1 0x40 MLOAD DUP1 PUSH1 0x40 ADD PUSH1 0x40 MSTORE DUP1 PUSH1 0x6 DUP2 MSTORE PUSH1 0x20 ADD PUSH32 0x4C65676163790000000000000000000000000000000000000000000000000000 DUP2 MSTORE POP SWAP1 POP PUSH2 0x590 JUMP JUMPDEST PUSH1 0x4 PUSH0 SWAP1 SLOAD SWAP1 PUSH2 0x100 EXP SWAP1 DIV PUSH20 0xFFFFFFFFFFFFFFFFFFFFFFFFFFFFFFFFFFFFFFFF AND PUSH20 0xFFFFFFFFFFFFFFFFFFFFFFFFFFFFFFFFFFFFFFFF AND PUSH4 0x6FDDE03 PUSH1 0x40 MLOAD DUP2 PUSH4 0xFFFFFFFF AND PUSH1 0xE0 SHL DUP2 MSTORE PUSH1 0x4 ADD PUSH0 PUSH1 0x40 MLOAD DUP1 DUP4 SUB DUP2 DUP7 GAS STATICCALL ISZERO DUP1 ISZERO PUSH2 0x495 JUMPI RETURNDATASIZE PUSH0 DUP1 RETURNDATACOPY RETURNDATASIZE PUSH0 REVERT JUMPDEST POP POP POP POP PUSH1 0x40 MLOAD RETURNDATASIZE PUSH0 DUP3 RETURNDATACOPY RETURNDATASIZE PUSH1 0x1F NOT PUSH1 0x1F DUP3 ADD AND DUP3 ADD DUP1 PUSH1 0x40 MSTORE POP DUP2 ADD SWAP1 PUSH2 0x4BD SWAP2 SWAP1 PUSH2 0x125B JUMP JUMPDEST PUSH1 0x40 MLOAD PUSH1 0x20 ADD PUSH2 0x4CD SWAP2 SWAP1 PUSH2 0x1302 JUMP JUMPDEST PUSH1 0x40 MLOAD PUSH1 0x20 DUP2 DUP4 SUB SUB DUP2 MSTORE SWAP1 PUSH1 0x40 MSTORE PUSH1 0x3 PUSH0 SWAP1 SLOAD SWAP1 PUSH2 0x100 EXP SWAP1 DIV PUSH20 0xFFFFFFFFFFFFFFFFFFFFFFFFFFFFFFFFFFFFFFFF AND PUSH20 0xFFFFFFFFFFFFFFFFFFFFFFFFFFFFFFFFFFFFFFFF AND PUSH4 0x6FDDE03 PUSH1 0x40 MLOAD DUP2 PUSH4 0xFFFFFFFF AND PUSH1 0xE0 SHL DUP2 MSTORE PUSH1 0x4 ADD PUSH0 PUSH1 0x40 MLOAD DUP1 DUP4 SUB DUP2 DUP7 GAS STATICCALL ISZERO DUP1 ISZERO PUSH2 0x545 JUMPI RETURNDATASIZE PUSH0 DUP1 RETURNDATACOPY RETURNDATASIZE PUSH0 REVERT JUMPDEST POP POP POP POP PUSH1 0x40 MLOAD RETURNDATASIZE PUSH0 DUP3 RETURNDATACOPY RETURNDATASIZE PUSH1 0x1F NOT PUSH1 0x1F DUP3 ADD AND DUP3 ADD DUP1 PUSH1 0x40 MSTORE POP DUP2 ADD SWAP1 PUSH2 0x56D SWAP2 SWAP1 PUSH2 0x125B JUMP JUMPDEST PUSH1 0x40 MLOAD PUSH1 0x20 ADD PUSH2 0x57E SWAP3 SWAP2 SWAP1 PUSH2 0x1327 JUMP JUMPDEST PUSH1 0x40 MLOAD PUSH1 0x20 DUP2 DUP4 SUB SUB DUP2 MSTORE SWAP1 PUSH1 0x40 MSTORE SWAP1 POP JUMPDEST SWAP1 JUMP JUMPDEST PUSH0 PUSH4 0x150B7A02 PUSH1 0xE0 SHL SWAP1 POP SWAP6 SWAP5 POP POP POP POP POP JUMP JUMPDEST PUSH1 0x7 SLOAD DUP2 JUMP JUMPDEST PUSH1 0x4 PUSH1 0x14 SWAP1 SLOAD SWAP1 PUSH2 0x100 EXP SWAP1 DIV PUSH1 0xFF AND DUP2 JUMP JUMPDEST PUSH2 0x5C8 PUSH2 0x96D JUMP JUMPDEST PUSH2 0x5D0 JUMPI PUSH0 DUP1 REVERT JUMPDEST DUP1 PUSH1 0x6 PUSH0 PUSH2 0x100 EXP DUP2 SLOAD DUP2 PUSH20 0xFFFFFFFFFFFFFFFFFFFFFFFFFFFFFFFFFFFFFFFF MUL NOT AND SWAP1 DUP4 PUSH20 0xFFFFFFFFFFFFFFFFFFFFFFFFFFFFFFFFFFFFFFFF AND MUL OR SWAP1 SSTORE POP DUP1 PUSH1 0xC PUSH0 PUSH2 0x100 EXP DUP2 SLOAD DUP2 PUSH20 0xFFFFFFFFFFFFFFFFFFFFFFFFFFFFFFFFFFFFFFFF MUL NOT AND SWAP1 DUP4 PUSH20 0xFFFFFFFFFFFFFFFFFFFFFFFFFFFFFFFFFFFFFFFF AND MUL OR SWAP1 SSTORE POP PUSH2 0x658 PUSH2 0x681 JUMP JUMPDEST POP POP JUMP JUMPDEST PUSH1 0x6 PUSH0 SWAP1 SLOAD SWAP1 PUSH2 0x100 EXP SWAP1 DIV PUSH20 0xFFFFFFFFFFFFFFFFFFFFFFFFFFFFFFFFFFFFFFFF AND DUP2 JUMP JUMPDEST PUSH0 DUP1 PUSH1 0x3 PUSH0 SWAP1 SLOAD SWAP1 PUSH2 0x100 EXP SWAP1 DIV PUSH20 0xFFFFFFFFFFFFFFFFFFFFFFFFFFFFFFFFFFFFFFFF AND PUSH20 0xFFFFFFFFFFFFFFFFFFFFFFFFFFFFFFFFFFFFFFFF AND PUSH4 0x70A08231 PUSH1 0x6 PUSH0 SWAP1 SLOAD SWAP1 PUSH2 0x100 EXP SWAP1 DIV PUSH20 0xFFFFFFFFFFFFFFFFFFFFFFFFFFFFFFFFFFFFFFFF AND PUSH1 0x40 MLOAD DUP3 PUSH4 0xFFFFFFFF AND PUSH1 0xE0 SHL DUP2 MSTORE PUSH1 0x4 ADD PUSH2 0x6FE SWAP2 SWAP1 PUSH2 0xDA0 JUMP JUMPDEST PUSH1 0x20 PUSH1 0x40 MLOAD DUP1 DUP4 SUB DUP2 DUP7 GAS STATICCALL ISZERO DUP1 ISZERO PUSH2 0x719 JUMPI RETURNDATASIZE PUSH0 DUP1 RETURNDATACOPY RETURNDATASIZE PUSH0 REVERT JUMPDEST POP POP POP POP PUSH1 0x40 MLOAD RETURNDATASIZE PUSH1 0x1F NOT PUSH1 0x1F DUP3 ADD AND DUP3 ADD DUP1 PUSH1 0x40 MSTORE POP DUP2 ADD SWAP1 PUSH2 0x73D SWAP2 SWAP1 PUSH2 0x135E JUMP JUMPDEST SWAP1 POP PUSH0 PUSH1 0x4 PUSH0 SWAP1 SLOAD SWAP1 PUSH2 0x100 EXP SWAP1 DIV PUSH20 0xFFFFFFFFFFFFFFFFFFFFFFFFFFFFFFFFFFFFFFFF AND PUSH20 0xFFFFFFFFFFFFFFFFFFFFFFFFFFFFFFFFFFFFFFFF AND PUSH4 0x70A08231 PUSH1 0x6 PUSH0 SWAP1 SLOAD SWAP1 PUSH2 0x100 EXP SWAP1 DIV PUSH20 0xFFFFFFFFFFFFFFFFFFFFFFFFFFFFFFFFFFFFFFFF AND PUSH1 0x40 MLOAD DUP3 PUSH4 0xFFFFFFFF AND PUSH1 0xE0 SHL DUP2 MSTORE PUSH1 0x4 ADD PUSH2 0x7BB SWAP2 SWAP1 PUSH2 0xDA0 JUMP JUMPDEST PUSH1 0x20 PUSH1 0x40 MLOAD DUP1 DUP4 SUB DUP2 DUP7 GAS STATICCALL ISZERO DUP1 ISZERO PUSH2 0x7D6 JUMPI RETURNDATASIZE PUSH0 DUP1 RETURNDATACOPY RETURNDATASIZE PUSH0 REVERT JUMPDEST POP POP POP POP PUSH1 0x40 MLOAD RETURNDATASIZE PUSH1 0x1F NOT PUSH1 0x1F DUP3 ADD AND DUP3 ADD DUP1 PUSH1 0x40 MSTORE POP DUP2 ADD SWAP1 PUSH2 0x7FA SWAP2 SWAP1 PUSH2 0x135E JUMP JUMPDEST SWAP1 POP PUSH0 PUSH2 0x816 DUP4 PUSH1 0x4 PUSH1 0x14 SWAP1 SLOAD SWAP1 PUSH2 0x100 EXP SWAP1 DIV PUSH1 0xFF AND PUSH2 0xAAF JUMP JUMPDEST SWAP1 POP PUSH2 0x823 DUP3 PUSH1 0x12 PUSH2 0xAAF JUMP JUMPDEST SWAP2 POP PUSH0 DUP3 GT ISZERO PUSH2 0x83E JUMPI PUSH2 0x837 DUP2 DUP4 PUSH2 0xADE JUMP JUMPDEST PUSH1 0x7 DUP2 SWAP1 SSTORE POP JUMPDEST PUSH1 0x7 SLOAD SWAP4 POP POP POP POP SWAP1 JUMP JUMPDEST PUSH2 0x851 PUSH2 0x96D JUMP JUMPDEST PUSH2 0x859 JUMPI PUSH0 DUP1 REVERT JUMPDEST PUSH0 DUP1 SLOAD SWAP1 PUSH2 0x100 EXP SWAP1 DIV PUSH20 0xFFFFFFFFFFFFFFFFFFFFFFFFFFFFFFFFFFFFFFFF AND PUSH20 0xFFFFFFFFFFFFFFFFFFFFFFFFFFFFFFFFFFFFFFFF AND PUSH32 0xF8DF31144D9C2F0F6B59D69B8B98ABD5459D07F2742C4DF920B25AAE33C64820 PUSH1 0x40 MLOAD PUSH1 0x40 MLOAD DUP1 SWAP2 SUB SWAP1 LOG2 PUSH0 DUP1 PUSH0 PUSH2 0x100 EXP DUP2 SLOAD DUP2 PUSH20 0xFFFFFFFFFFFFFFFFFFFFFFFFFFFFFFFFFFFFFFFF MUL NOT AND SWAP1 DUP4 PUSH20 0xFFFFFFFFFFFFFFFFFFFFFFFFFFFFFFFFFFFFFFFF AND MUL OR SWAP1 SSTORE POP JUMP JUMPDEST PUSH1 0x1 PUSH0 SWAP1 SLOAD SWAP1 PUSH2 0x100 EXP SWAP1 DIV PUSH20 0xFFFFFFFFFFFFFFFFFFFFFFFFFFFFFFFFFFFFFFFF AND DUP2 JUMP JUMPDEST PUSH0 DUP1 PUSH0 SWAP1 SLOAD SWAP1 PUSH2 0x100 EXP SWAP1 DIV PUSH20 0xFFFFFFFFFFFFFFFFFFFFFFFFFFFFFFFFFFFFFFFF AND SWAP1 POP SWAP1 JUMP JUMPDEST PUSH1 0x5 PUSH0 SWAP1 SLOAD SWAP1 PUSH2 0x100 EXP SWAP1 DIV PUSH20 0xFFFFFFFFFFFFFFFFFFFFFFFFFFFFFFFFFFFFFFFF AND DUP2 JUMP JUMPDEST PUSH0 DUP1 PUSH0 SWAP1 SLOAD SWAP1 PUSH2 0x100 EXP SWAP1 DIV PUSH20 0xFFFFFFFFFFFFFFFFFFFFFFFFFFFFFFFFFFFFFFFF AND PUSH20 0xFFFFFFFFFFFFFFFFFFFFFFFFFFFFFFFFFFFFFFFF AND CALLER PUSH20 0xFFFFFFFFFFFFFFFFFFFFFFFFFFFFFFFFFFFFFFFF AND EQ SWAP1 POP SWAP1 JUMP JUMPDEST PUSH1 0xA DUP2 DUP2 SLOAD DUP2 LT PUSH2 0x9D1 JUMPI PUSH0 DUP1 REVERT JUMPDEST SWAP1 PUSH0 MSTORE PUSH1 0x20 PUSH0 KECCAK256 SWAP1 PUSH1 0x7 MUL ADD PUSH0 SWAP2 POP SWAP1 POP DUP1 PUSH0 ADD PUSH0 SWAP1 SLOAD SWAP1 PUSH2 0x100 EXP SWAP1 DIV PUSH20 0xFFFFFFFFFFFFFFFFFFFFFFFFFFFFFFFFFFFFFFFF AND SWAP1 DUP1 PUSH1 0x1 ADD SLOAD SWAP1 DUP1 PUSH1 0x2 ADD SLOAD SWAP1 DUP1 PUSH1 0x3 ADD SLOAD SWAP1 DUP1 PUSH1 0x4 ADD SLOAD SWAP1 DUP1 PUSH1 0x5 ADD PUSH0 SWAP1 SLOAD SWAP1 PUSH2 0x100 EXP SWAP1 DIV PUSH1 0xFF AND SWAP1 DUP1 PUSH1 0x6 ADD SLOAD SWAP1 POP DUP8 JUMP JUMPDEST PUSH1 0xB SLOAD DUP2 JUMP JUMPDEST PUSH2 0xA48 PUSH2 0x96D JUMP JUMPDEST PUSH2 0xA50 JUMPI PUSH0 DUP1 REVERT JUMPDEST PUSH2 0xA59 DUP2 PUSH2 0xAF1 JUMP JUMPDEST POP JUMP JUMPDEST PUSH2 0xA64 PUSH2 0x96D JUMP JUMPDEST PUSH2 0xA6C JUMPI PUSH0 DUP1 REVERT JUMPDEST DUP1 PUSH1 0x5 PUSH0 PUSH2 0x100 EXP DUP2 SLOAD DUP2 PUSH20 0xFFFFFFFFFFFFFFFFFFFFFFFFFFFFFFFFFFFFFFFF MUL NOT AND SWAP1 DUP4 PUSH20 0xFFFFFFFFFFFFFFFFFFFFFFFFFFFFFFFFFFFFFFFF AND MUL OR SWAP1 SSTORE POP POP JUMP JUMPDEST PUSH0 PUSH1 0x1 DUP3 PUSH1 0xFF AND EQ PUSH2 0xAD4 JUMPI PUSH2 0xAC4 DUP3 PUSH2 0xBE3 JUMP JUMPDEST DUP4 PUSH2 0xACF SWAP2 SWAP1 PUSH2 0x13B6 JUMP JUMPDEST PUSH2 0xAD6 JUMP JUMPDEST DUP3 JUMPDEST SWAP1 POP SWAP3 SWAP2 POP POP JUMP JUMPDEST PUSH0 PUSH2 0xAE9 DUP4 DUP4 PUSH2 0xC33 JUMP JUMPDEST SWAP1 POP SWAP3 SWAP2 POP POP JUMP JUMPDEST PUSH0 PUSH20 0xFFFFFFFFFFFFFFFFFFFFFFFFFFFFFFFFFFFFFFFF AND DUP2 PUSH20 0xFFFFFFFFFFFFFFFFFFFFFFFFFFFFFFFFFFFFFFFF AND SUB PUSH2 0xB28 JUMPI PUSH0 DUP1 REVERT JUMPDEST DUP1 PUSH20 0xFFFFFFFFFFFFFFFFFFFFFFFFFFFFFFFFFFFFFFFF AND PUSH0 DUP1 SLOAD SWAP1 PUSH2 0x100 EXP SWAP1 DIV PUSH20 0xFFFFFFFFFFFFFFFFFFFFFFFFFFFFFFFFFFFFFFFF AND PUSH20 0xFFFFFFFFFFFFFFFFFFFFFFFFFFFFFFFFFFFFFFFF AND PUSH32 0x8BE0079C531659141344CD1FD0A4F28419497F9722A3DAAFE3B4186F6B6457E0 PUSH1 0x40 MLOAD PUSH1 0x40 MLOAD DUP1 SWAP2 SUB SWAP1 LOG3 DUP1 PUSH0 DUP1 PUSH2 0x100 EXP DUP2 SLOAD DUP2 PUSH20 0xFFFFFFFFFFFFFFFFFFFFFFFFFFFFFFFFFFFFFFFF MUL NOT AND SWAP1 DUP4 PUSH20 0xFFFFFFFFFFFFFFFFFFFFFFFFFFFFFFFFFFFFFFFF AND MUL OR SWAP1 SSTORE POP POP JUMP JUMPDEST PUSH0 PUSH1 0x8 PUSH0 DUP4 PUSH1 0xFF AND PUSH1 0xFF AND DUP2 MSTORE PUSH1 0x20 ADD SWAP1 DUP2 MSTORE PUSH1 0x20 ADD PUSH0 KECCAK256 SLOAD SWAP1 POP PUSH0 DUP2 SUB PUSH2 0xC2E JUMPI DUP2 PUSH1 0x12 SUB PUSH1 0xFF AND PUSH1 0xA EXP SWAP1 POP DUP1 PUSH1 0x8 PUSH0 DUP5 PUSH1 0xFF AND PUSH1 0xFF AND DUP2 MSTORE PUSH1 0x20 ADD SWAP1 DUP2 MSTORE PUSH1 0x20 ADD PUSH0 KECCAK256 DUP2 SWAP1 SSTORE POP JUMPDEST SWAP2 SWAP1 POP JUMP JUMPDEST PUSH0 PUSH2 0xC47 DUP4 PUSH8 0xDE0B6B3A7640000 DUP5 PUSH2 0xC4F JUMP JUMPDEST SWAP1 POP SWAP3 SWAP2 POP POP JUMP JUMPDEST PUSH0 DUP1 PUSH0 DUP1 NOT DUP6 DUP8 MULMOD DUP6 DUP8 MUL SWAP3 POP DUP3 DUP2 LT DUP4 DUP3 SUB SUB SWAP2 POP POP PUSH0 DUP2 SUB PUSH2 0xC87 JUMPI DUP4 DUP3 DUP2 PUSH2 0xC7D JUMPI PUSH2 0xC7C PUSH2 0x13F7 JUMP JUMPDEST JUMPDEST DIV SWAP3 POP POP POP PUSH2 0xD5A JUMP JUMPDEST DUP4 DUP2 LT PUSH2 0xCCF JUMPI DUP6 DUP6 DUP6 PUSH1 0x40 MLOAD PUSH32 0x6C59DA1200000000000000000000000000000000000000000000000000000000 DUP2 MSTORE PUSH1 0x4 ADD PUSH2 0xCC6 SWAP4 SWAP3 SWAP2 SWAP1 PUSH2 0x1424 JUMP JUMPDEST PUSH1 0x40 MLOAD DUP1 SWAP2 SUB SWAP1 REVERT JUMPDEST PUSH0 DUP5 DUP7 DUP9 MULMOD SWAP1 POP DUP3 DUP2 GT DUP3 SUB SWAP2 POP DUP1 DUP4 SUB SWAP3 POP PUSH0 PUSH1 0x1 DUP7 NOT ADD DUP7 AND SWAP1 POP PUSH0 DUP2 DUP8 DIV SWAP7 POP DUP2 DUP6 DIV SWAP5 POP PUSH1 0x1 DUP3 DUP4 PUSH0 SUB DIV ADD SWAP1 POP DUP1 DUP5 MUL DUP6 OR SWAP5 POP PUSH0 PUSH1 0x2 DUP9 PUSH1 0x3 MUL XOR SWAP1 POP DUP1 DUP9 MUL PUSH1 0x2 SUB DUP2 MUL SWAP1 POP DUP1 DUP9 MUL PUSH1 0x2 SUB DUP2 MUL SWAP1 POP DUP1 DUP9 MUL PUSH1 0x2 SUB DUP2 MUL SWAP1 POP DUP1 DUP9 MUL PUSH1 0x2 SUB DUP2 MUL SWAP1 POP DUP1 DUP9 MUL PUSH1 0x2 SUB DUP2 MUL SWAP1 POP DUP1 DUP9 MUL PUSH1 0x2 SUB DUP2 MUL SWAP1 POP DUP1 DUP7 MUL SWAP7 POP POP POP POP POP POP POP JUMPDEST SWAP4 SWAP3 POP POP POP JUMP JUMPDEST PUSH0 PUSH20 0xFFFFFFFFFFFFFFFFFFFFFFFFFFFFFFFFFFFFFFFF DUP3 AND SWAP1 POP SWAP2 SWAP1 POP JUMP JUMPDEST PUSH0 PUSH2 0xD8A DUP3 PUSH2 0xD61 JUMP JUMPDEST SWAP1 POP SWAP2 SWAP1 POP JUMP JUMPDEST PUSH2 0xD9A DUP2 PUSH2 0xD80 JUMP JUMPDEST DUP3 MSTORE POP POP JUMP JUMPDEST PUSH0 PUSH1 0x20 DUP3 ADD SWAP1 POP PUSH2 0xDB3 PUSH0 DUP4 ADD DUP5 PUSH2 0xD91 JUMP JUMPDEST SWAP3 SWAP2 POP POP JUMP JUMPDEST PUSH0 DUP2 MLOAD SWAP1 POP SWAP2 SWAP1 POP JUMP JUMPDEST PUSH0 DUP3 DUP3 MSTORE PUSH1 0x20 DUP3 ADD SWAP1 POP SWAP3 SWAP2 POP POP JUMP JUMPDEST DUP3 DUP2 DUP4 MCOPY PUSH0 DUP4 DUP4 ADD MSTORE POP POP POP JUMP JUMPDEST PUSH0 PUSH1 0x1F NOT PUSH1 0x1F DUP4 ADD AND SWAP1 POP SWAP2 SWAP1 POP JUMP JUMPDEST PUSH0 PUSH2 0xDFB DUP3 PUSH2 0xDB9 JUMP JUMPDEST PUSH2 0xE05 DUP2 DUP6 PUSH2 0xDC3 JUMP JUMPDEST SWAP4 POP PUSH2 0xE15 DUP2 DUP6 PUSH1 0x20 DUP7 ADD PUSH2 0xDD3 JUMP JUMPDEST PUSH2 0xE1E DUP2 PUSH2 0xDE1 JUMP JUMPDEST DUP5 ADD SWAP2 POP POP SWAP3 SWAP2 POP POP JUMP JUMPDEST PUSH0 PUSH1 0x20 DUP3 ADD SWAP1 POP DUP2 DUP2 SUB PUSH0 DUP4 ADD MSTORE PUSH2 0xE41 DUP2 DUP5 PUSH2 0xDF1 JUMP JUMPDEST SWAP1 POP SWAP3 SWAP2 POP POP JUMP JUMPDEST PUSH0 PUSH1 0x40 MLOAD SWAP1 POP SWAP1 JUMP JUMPDEST PUSH0 DUP1 REVERT JUMPDEST PUSH0 DUP1 REVERT JUMPDEST PUSH2 0xE63 DUP2 PUSH2 0xD80 JUMP JUMPDEST DUP2 EQ PUSH2 0xE6D JUMPI PUSH0 DUP1 REVERT JUMPDEST POP JUMP JUMPDEST PUSH0 DUP2 CALLDATALOAD SWAP1 POP PUSH2 0xE7E DUP2 PUSH2 0xE5A JUMP JUMPDEST SWAP3 SWAP2 POP POP JUMP JUMPDEST PUSH0 DUP2 SWAP1 POP SWAP2 SWAP1 POP JUMP JUMPDEST PUSH2 0xE96 DUP2 PUSH2 0xE84 JUMP JUMPDEST DUP2 EQ PUSH2 0xEA0 JUMPI PUSH0 DUP1 REVERT JUMPDEST POP JUMP JUMPDEST PUSH0 DUP2 CALLDATALOAD SWAP1 POP PUSH2 0xEB1 DUP2 PUSH2 0xE8D JUMP JUMPDEST SWAP3 SWAP2 POP POP JUMP JUMPDEST PUSH0 DUP1 REVERT JUMPDEST PUSH0 DUP1 REVERT JUMPDEST PUSH0 DUP1 REVERT JUMPDEST PUSH0 DUP1 DUP4 PUSH1 0x1F DUP5 ADD SLT PUSH2 0xED8 JUMPI PUSH2 0xED7 PUSH2 0xEB7 JUMP JUMPDEST JUMPDEST DUP3 CALLDATALOAD SWAP1 POP PUSH8 0xFFFFFFFFFFFFFFFF DUP2 GT ISZERO PUSH2 0xEF5 JUMPI PUSH2 0xEF4 PUSH2 0xEBB JUMP JUMPDEST JUMPDEST PUSH1 0x20 DUP4 ADD SWAP2 POP DUP4 PUSH1 0x1 DUP3 MUL DUP4 ADD GT ISZERO PUSH2 0xF11 JUMPI PUSH2 0xF10 PUSH2 0xEBF JUMP JUMPDEST JUMPDEST SWAP3 POP SWAP3 SWAP1 POP JUMP JUMPDEST PUSH0 DUP1 PUSH0 DUP1 PUSH0 PUSH1 0x80 DUP7 DUP9 SUB SLT ISZERO PUSH2 0xF31 JUMPI PUSH2 0xF30 PUSH2 0xE52 JUMP JUMPDEST JUMPDEST PUSH0 PUSH2 0xF3E DUP9 DUP3 DUP10 ADD PUSH2 0xE70 JUMP JUMPDEST SWAP6 POP POP PUSH1 0x20 PUSH2 0xF4F DUP9 DUP3 DUP10 ADD PUSH2 0xE70 JUMP JUMPDEST SWAP5 POP POP PUSH1 0x40 PUSH2 0xF60 DUP9 DUP3 DUP10 ADD PUSH2 0xEA3 JUMP JUMPDEST SWAP4 POP POP PUSH1 0x60 DUP7 ADD CALLDATALOAD PUSH8 0xFFFFFFFFFFFFFFFF DUP2 GT ISZERO PUSH2 0xF81 JUMPI PUSH2 0xF80 PUSH2 0xE56 JUMP JUMPDEST JUMPDEST PUSH2 0xF8D DUP9 DUP3 DUP10 ADD PUSH2 0xEC3 JUMP JUMPDEST SWAP3 POP SWAP3 POP POP SWAP3 SWAP6 POP SWAP3 SWAP6 SWAP1 SWAP4 POP JUMP JUMPDEST PUSH0 PUSH32 0xFFFFFFFF00000000000000000000000000000000000000000000000000000000 DUP3 AND SWAP1 POP SWAP2 SWAP1 POP JUMP JUMPDEST PUSH2 0xFD0 DUP2 PUSH2 0xF9C JUMP JUMPDEST DUP3 MSTORE POP POP JUMP JUMPDEST PUSH0 PUSH1 0x20 DUP3 ADD SWAP1 POP PUSH2 0xFE9 PUSH0 DUP4 ADD DUP5 PUSH2 0xFC7 JUMP JUMPDEST SWAP3 SWAP2 POP POP JUMP JUMPDEST PUSH2 0xFF8 DUP2 PUSH2 0xE84 JUMP JUMPDEST DUP3 MSTORE POP POP JUMP JUMPDEST PUSH0 PUSH1 0x20 DUP3 ADD SWAP1 POP PUSH2 0x1011 PUSH0 DUP4 ADD DUP5 PUSH2 0xFEF JUMP JUMPDEST SWAP3 SWAP2 POP POP JUMP JUMPDEST PUSH0 PUSH1 0xFF DUP3 AND SWAP1 POP SWAP2 SWAP1 POP JUMP JUMPDEST PUSH2 0x102C DUP2 PUSH2 0x1017 JUMP JUMPDEST DUP3 MSTORE POP POP JUMP JUMPDEST PUSH0 PUSH1 0x20 DUP3 ADD SWAP1 POP PUSH2 0x1045 PUSH0 DUP4 ADD DUP5 PUSH2 0x1023 JUMP JUMPDEST SWAP3 SWAP2 POP POP JUMP JUMPDEST PUSH0 PUSH1 0x20 DUP3 DUP5 SUB SLT ISZERO PUSH2 0x1060 JUMPI PUSH2 0x105F PUSH2 0xE52 JUMP JUMPDEST JUMPDEST PUSH0 PUSH2 0x106D DUP5 DUP3 DUP6 ADD PUSH2 0xE70 JUMP JUMPDEST SWAP2 POP POP SWAP3 SWAP2 POP POP JUMP JUMPDEST PUSH0 DUP2 ISZERO ISZERO SWAP1 POP SWAP2 SWAP1 POP JUMP JUMPDEST PUSH2 0x108A DUP2 PUSH2 0x1076 JUMP JUMPDEST DUP3 MSTORE POP POP JUMP JUMPDEST PUSH0 PUSH1 0x20 DUP3 ADD SWAP1 POP PUSH2 0x10A3 PUSH0 DUP4 ADD DUP5 PUSH2 0x1081 JUMP JUMPDEST SWAP3 SWAP2 POP POP JUMP JUMPDEST PUSH0 PUSH1 0x20 DUP3 DUP5 SUB SLT ISZERO PUSH2 0x10BE JUMPI PUSH2 0x10BD PUSH2 0xE52 JUMP JUMPDEST JUMPDEST PUSH0 PUSH2 0x10CB DUP5 DUP3 DUP6 ADD PUSH2 0xEA3 JUMP JUMPDEST SWAP2 POP POP SWAP3 SWAP2 POP POP JUMP JUMPDEST PUSH0 PUSH1 0xE0 DUP3 ADD SWAP1 POP PUSH2 0x10E7 PUSH0 DUP4 ADD DUP11 PUSH2 0xD91 JUMP JUMPDEST PUSH2 0x10F4 PUSH1 0x20 DUP4 ADD DUP10 PUSH2 0xFEF JUMP JUMPDEST PUSH2 0x1101 PUSH1 0x40 DUP4 ADD DUP9 PUSH2 0xFEF JUMP JUMPDEST PUSH2 0x110E PUSH1 0x60 DUP4 ADD DUP8 PUSH2 0xFEF JUMP JUMPDEST PUSH2 0x111B PUSH1 0x80 DUP4 ADD DUP7 PUSH2 0xFEF JUMP JUMPDEST PUSH2 0x1128 PUSH1 0xA0 DUP4 ADD DUP6 PUSH2 0x1081 JUMP JUMPDEST PUSH2 0x1135 PUSH1 0xC0 DUP4 ADD DUP5 PUSH2 0xFEF JUMP JUMPDEST SWAP9 SWAP8 POP POP POP POP POP POP POP POP JUMP JUMPDEST PUSH0 DUP1 REVERT JUMPDEST PUSH32 0x4E487B7100000000000000000000000000000000000000000000000000000000 PUSH0 MSTORE PUSH1 0x41 PUSH1 0x4 MSTORE PUSH1 0x24 PUSH0 REVERT JUMPDEST PUSH2 0x117B DUP3 PUSH2 0xDE1 JUMP JUMPDEST DUP2 ADD DUP2 DUP2 LT PUSH8 0xFFFFFFFFFFFFFFFF DUP3 GT OR ISZERO PUSH2 0x119A JUMPI PUSH2 0x1199 PUSH2 0x1145 JUMP JUMPDEST JUMPDEST DUP1 PUSH1 0x40 MSTORE POP POP POP JUMP JUMPDEST PUSH0 PUSH2 0x11AC PUSH2 0xE49 JUMP JUMPDEST SWAP1 POP PUSH2 0x11B8 DUP3 DUP3 PUSH2 0x1172 JUMP JUMPDEST SWAP2 SWAP1 POP JUMP JUMPDEST PUSH0 PUSH8 0xFFFFFFFFFFFFFFFF DUP3 GT ISZERO PUSH2 0x11D7 JUMPI PUSH2 0x11D6 PUSH2 0x1145 JUMP JUMPDEST JUMPDEST PUSH2 0x11E0 DUP3 PUSH2 0xDE1 JUMP JUMPDEST SWAP1 POP PUSH1 0x20 DUP2 ADD SWAP1 POP SWAP2 SWAP1 POP JUMP JUMPDEST PUSH0 PUSH2 0x11FF PUSH2 0x11FA DUP5 PUSH2 0x11BD JUMP JUMPDEST PUSH2 0x11A3 JUMP JUMPDEST SWAP1 POP DUP3 DUP2 MSTORE PUSH1 0x20 DUP2 ADD DUP5 DUP5 DUP5 ADD GT ISZERO PUSH2 0x121B JUMPI PUSH2 0x121A PUSH2 0x1141 JUMP JUMPDEST JUMPDEST PUSH2 0x1226 DUP5 DUP3 DUP6 PUSH2 0xDD3 JUMP JUMPDEST POP SWAP4 SWAP3 POP POP POP JUMP JUMPDEST PUSH0 DUP3 PUSH1 0x1F DUP4 ADD SLT PUSH2 0x1242 JUMPI PUSH2 0x1241 PUSH2 0xEB7 JUMP JUMPDEST JUMPDEST DUP2 MLOAD PUSH2 0x1252 DUP5 DUP3 PUSH1 0x20 DUP7 ADD PUSH2 0x11ED JUMP JUMPDEST SWAP2 POP POP SWAP3 SWAP2 POP POP JUMP JUMPDEST PUSH0 PUSH1 0x20 DUP3 DUP5 SUB SLT ISZERO PUSH2 0x1270 JUMPI PUSH2 0x126F PUSH2 0xE52 JUMP JUMPDEST JUMPDEST PUSH0 DUP3 ADD MLOAD PUSH8 0xFFFFFFFFFFFFFFFF DUP2 GT ISZERO PUSH2 0x128D JUMPI PUSH2 0x128C PUSH2 0xE56 JUMP JUMPDEST JUMPDEST PUSH2 0x1299 DUP5 DUP3 DUP6 ADD PUSH2 0x122E JUMP JUMPDEST SWAP2 POP POP SWAP3 SWAP2 POP POP JUMP JUMPDEST PUSH0 DUP2 SWAP1 POP SWAP3 SWAP2 POP POP JUMP JUMPDEST PUSH0 PUSH2 0x12B6 DUP3 PUSH2 0xDB9 JUMP JUMPDEST PUSH2 0x12C0 DUP2 DUP6 PUSH2 0x12A2 JUMP JUMPDEST SWAP4 POP PUSH2 0x12D0 DUP2 DUP6 PUSH1 0x20 DUP7 ADD PUSH2 0xDD3 JUMP JUMPDEST DUP1 DUP5 ADD SWAP2 POP POP SWAP3 SWAP2 POP POP JUMP JUMPDEST PUSH32 0x202D200000000000000000000000000000000000000000000000000000000000 DUP2 MSTORE POP JUMP JUMPDEST PUSH0 PUSH2 0x130D DUP3 DUP5 PUSH2 0x12AC JUMP JUMPDEST SWAP2 POP PUSH2 0x1318 DUP3 PUSH2 0x12DC JUMP JUMPDEST PUSH1 0x3 DUP3 ADD SWAP2 POP DUP2 SWAP1 POP SWAP3 SWAP2 POP POP JUMP JUMPDEST PUSH0 PUSH2 0x1332 DUP3 DUP6 PUSH2 0x12AC JUMP JUMPDEST SWAP2 POP PUSH2 0x133E DUP3 DUP5 PUSH2 0x12AC JUMP JUMPDEST SWAP2 POP DUP2 SWAP1 POP SWAP4 SWAP3 POP POP POP JUMP JUMPDEST PUSH0 DUP2 MLOAD SWAP1 POP PUSH2 0x1358 DUP2 PUSH2 0xE8D JUMP JUMPDEST SWAP3 SWAP2 POP POP JUMP JUMPDEST PUSH0 PUSH1 0x20 DUP3 DUP5 SUB SLT ISZERO PUSH2 0x1373 JUMPI PUSH2 0x1372 PUSH2 0xE52 JUMP JUMPDEST JUMPDEST PUSH0 PUSH2 0x1380 DUP5 DUP3 DUP6 ADD PUSH2 0x134A JUMP JUMPDEST SWAP2 POP POP SWAP3 SWAP2 POP POP JUMP JUMPDEST PUSH32 0x4E487B7100000000000000000000000000000000000000000000000000000000 PUSH0 MSTORE PUSH1 0x11 PUSH1 0x4 MSTORE PUSH1 0x24 PUSH0 REVERT JUMPDEST PUSH0 PUSH2 0x13C0 DUP3 PUSH2 0xE84 JUMP JUMPDEST SWAP2 POP PUSH2 0x13CB DUP4 PUSH2 0xE84 JUMP JUMPDEST SWAP3 POP DUP3 DUP3 MUL PUSH2 0x13D9 DUP2 PUSH2 0xE84 JUMP JUMPDEST SWAP2 POP DUP3 DUP3 DIV DUP5 EQ DUP4 ISZERO OR PUSH2 0x13F0 JUMPI PUSH2 0x13EF PUSH2 0x1389 JUMP JUMPDEST JUMPDEST POP SWAP3 SWAP2 POP POP JUMP JUMPDEST PUSH32 0x4E487B7100000000000000000000000000000000000000000000000000000000 PUSH0 MSTORE PUSH1 0x12 PUSH1 0x4 MSTORE PUSH1 0x24 PUSH0 REVERT JUMPDEST PUSH0 PUSH1 0x60 DUP3 ADD SWAP1 POP PUSH2 0x1437 PUSH0 DUP4 ADD DUP7 PUSH2 0xFEF JUMP JUMPDEST PUSH2 0x1444 PUSH1 0x20 DUP4 ADD DUP6 PUSH2 0xFEF JUMP JUMPDEST PUSH2 0x1451 PUSH1 0x40 DUP4 ADD DUP5 PUSH2 0xFEF JUMP JUMPDEST SWAP5 SWAP4 POP POP POP POP JUMP INVALID LOG2 PUSH5 0x6970667358 0x22 SLT KECCAK256 PC SWAP10 CREATE LOG1 SWAP6 0xC4 SWAP13 0xE2 0xBB 0x4D 0xCE LOG2 0xC3 DUP16 CODESIZE CALLCODE CALL PUSH14 0x5140D45A9EBEED5F0D9E3B551605 PUSH5 0x736F6C6343 STOP ADDMOD NOT STOP CALLER "
		},
		"gasEstimates": {
			"creation": {
				"codeDepositCost": "1052600",
				"executionCost": "infinite",
				"totalCost": "infinite"
			},
			"external": {
				"FFT()": "2532",
				"NFT()": "2553",
				"_collector()": "2597",
				"_fees()": "2491",
				"_liquidity()": "2575",
				"_liquids(uint256)": "infinite",
				"_price()": "2515",
				"decimals()": "2540",
				"isOwner()": "2512",
				"name()": "infinite",
				"onERC721Received(address,address,uint256,bytes)": "infinite",
				"owner()": "2582",
				"renounceOwnership()": "29927",
				"setCollector(address)": "27028",
				"setLiquidity(address)": "infinite",
				"transferOwnership(address)": "30746",
				"updatePrice()": "infinite"
			},
			"internal": {
				"_computeScalar(uint8)": "26078",
				"_denormalize(uint256,uint8)": "infinite",
				"_div(uint256,uint256)": "infinite",
				"_mul(uint256,uint256)": "infinite",
				"_normalize(uint256,uint8)": "infinite"
			}
		},
		"methodIdentifiers": {
			"FFT()": "04bb60ce",
			"NFT()": "7c0b8de2",
			"_collector()": "8e991592",
			"_fees()": "d212a69a",
			"_liquidity()": "491d0a56",
			"_liquids(uint256)": "cc18cb87",
			"_price()": "235b6ea1",
			"decimals()": "313ce567",
			"isOwner()": "8f32d59b",
			"name()": "06fdde03",
			"onERC721Received(address,address,uint256,bytes)": "150b7a02",
			"owner()": "8da5cb5b",
			"renounceOwnership()": "715018a6",
			"setCollector(address)": "fb5b82d0",
			"setLiquidity(address)": "36171e0e",
			"transferOwnership(address)": "f2fde38b",
			"updatePrice()": "673a7e28"
		}
	},
	"abi": [
		{
			"inputs": [
				{
					"internalType": "address",
					"name": "nft",
					"type": "address"
				},
				{
					"internalType": "address",
					"name": "fft",
					"type": "address"
				}
			],
			"stateMutability": "nonpayable",
			"type": "constructor"
		},
		{
			"inputs": [],
			"name": "DepositFailed",
			"type": "error"
		},
		{
			"inputs": [],
			"name": "InsufficientLiquidity",
			"type": "error"
		},
		{
			"inputs": [],
			"name": "InvalidWithdrawalRequest",
			"type": "error"
		},
		{
			"inputs": [
				{
					"internalType": "uint256",
					"name": "x",
					"type": "uint256"
				},
				{
					"internalType": "uint256",
					"name": "y",
					"type": "uint256"
				},
				{
					"internalType": "uint256",
					"name": "denominator",
					"type": "uint256"
				}
			],
			"name": "MulDivOverflow",
			"type": "error"
		},
		{
			"anonymous": false,
			"inputs": [
				{
					"indexed": false,
					"internalType": "uint256",
					"name": "amount",
					"type": "uint256"
				},
				{
					"indexed": false,
					"internalType": "address",
					"name": "targetAddr",
					"type": "address"
				}
			],
			"name": "NativeTransferred",
			"type": "event"
		},
		{
			"anonymous": false,
			"inputs": [
				{
					"indexed": true,
					"internalType": "address",
					"name": "previousOwner",
					"type": "address"
				}
			],
			"name": "OwnershipRenounced",
			"type": "event"
		},
		{
			"anonymous": false,
			"inputs": [
				{
					"indexed": true,
					"internalType": "address",
					"name": "previousOwner",
					"type": "address"
				},
				{
					"indexed": true,
					"internalType": "address",
					"name": "newOwner",
					"type": "address"
				}
			],
			"name": "OwnershipTransferred",
			"type": "event"
		},
		{
			"inputs": [],
			"name": "FFT",
			"outputs": [
				{
					"internalType": "address",
					"name": "",
					"type": "address"
				}
			],
			"stateMutability": "view",
			"type": "function"
		},
		{
			"inputs": [],
			"name": "NFT",
			"outputs": [
				{
					"internalType": "address",
					"name": "",
					"type": "address"
				}
			],
			"stateMutability": "view",
			"type": "function"
		},
		{
			"inputs": [],
			"name": "_collector",
			"outputs": [
				{
					"internalType": "address",
					"name": "",
					"type": "address"
				}
			],
			"stateMutability": "view",
			"type": "function"
		},
		{
			"inputs": [],
			"name": "_fees",
			"outputs": [
				{
					"internalType": "uint256",
					"name": "",
					"type": "uint256"
				}
			],
			"stateMutability": "view",
			"type": "function"
		},
		{
			"inputs": [],
			"name": "_liquidity",
			"outputs": [
				{
					"internalType": "address",
					"name": "",
					"type": "address"
				}
			],
			"stateMutability": "view",
			"type": "function"
		},
		{
			"inputs": [
				{
					"internalType": "uint256",
					"name": "",
					"type": "uint256"
				}
			],
			"name": "_liquids",
			"outputs": [
				{
					"internalType": "address",
					"name": "depositor",
					"type": "address"
				},
				{
					"internalType": "uint256",
					"name": "depositedAt",
					"type": "uint256"
				},
				{
					"internalType": "uint256",
					"name": "price",
					"type": "uint256"
				},
				{
					"internalType": "uint256",
					"name": "nftAlloc",
					"type": "uint256"
				},
				{
					"internalType": "uint256",
					"name": "fftAlloc",
					"type": "uint256"
				},
				{
					"internalType": "bool",
					"name": "claimed",
					"type": "bool"
				},
				{
					"internalType": "uint256",
					"name": "userIndex",
					"type": "uint256"
				}
			],
			"stateMutability": "view",
			"type": "function"
		},
		{
			"inputs": [],
			"name": "_price",
			"outputs": [
				{
					"internalType": "uint256",
					"name": "",
					"type": "uint256"
				}
			],
			"stateMutability": "view",
			"type": "function"
		},
		{
			"inputs": [],
			"name": "decimals",
			"outputs": [
				{
					"internalType": "uint8",
					"name": "",
					"type": "uint8"
				}
			],
			"stateMutability": "view",
			"type": "function"
		},
		{
			"inputs": [],
			"name": "isOwner",
			"outputs": [
				{
					"internalType": "bool",
					"name": "",
					"type": "bool"
				}
			],
			"stateMutability": "view",
			"type": "function"
		},
		{
			"inputs": [],
			"name": "name",
			"outputs": [
				{
					"internalType": "string",
					"name": "",
					"type": "string"
				}
			],
			"stateMutability": "view",
			"type": "function"
		},
		{
			"inputs": [
				{
					"internalType": "address",
					"name": "operator",
					"type": "address"
				},
				{
					"internalType": "address",
					"name": "from",
					"type": "address"
				},
				{
					"internalType": "uint256",
					"name": "tokenId",
					"type": "uint256"
				},
				{
					"internalType": "bytes",
					"name": "data",
					"type": "bytes"
				}
			],
			"name": "onERC721Received",
			"outputs": [
				{
					"internalType": "bytes4",
					"name": "",
					"type": "bytes4"
				}
			],
			"stateMutability": "nonpayable",
			"type": "function"
		},
		{
			"inputs": [],
			"name": "owner",
			"outputs": [
				{
					"internalType": "address",
					"name": "",
					"type": "address"
				}
			],
			"stateMutability": "view",
			"type": "function"
		},
		{
			"inputs": [],
			"name": "renounceOwnership",
			"outputs": [],
			"stateMutability": "nonpayable",
			"type": "function"
		},
		{
			"inputs": [
				{
					"internalType": "address",
					"name": "addr",
					"type": "address"
				}
			],
			"name": "setCollector",
			"outputs": [],
			"stateMutability": "nonpayable",
			"type": "function"
		},
		{
			"inputs": [
				{
					"internalType": "address",
					"name": "addr",
					"type": "address"
				}
			],
			"name": "setLiquidity",
			"outputs": [],
			"stateMutability": "nonpayable",
			"type": "function"
		},
		{
			"inputs": [
				{
					"internalType": "address",
					"name": "newOwner",
					"type": "address"
				}
			],
			"name": "transferOwnership",
			"outputs": [],
			"stateMutability": "nonpayable",
			"type": "function"
		},
		{
			"inputs": [],
			"name": "updatePrice",
			"outputs": [
				{
					"internalType": "uint256",
					"name": "",
					"type": "uint256"
				}
			],
			"stateMutability": "nonpayable",
			"type": "function"
		}
	]
}