{
	"data": {
		"bytecode": {
			"linkReferences": {},
			"object": "6080604052348015600e575f80fd5b50335f806101000a81548173ffffffffffffffffffffffffffffffffffffffff021916908373ffffffffffffffffffffffffffffffffffffffff1602179055503360055f6101000a81548173ffffffffffffffffffffffffffffffffffffffff021916908373ffffffffffffffffffffffffffffffffffffffff160217905550612b888061009b5f395ff3fe608060405234801561000f575f80fd5b506004361061018c575f3560e01c80638e991592116100dc578063dcc9606f11610095578063e91a7ca61161006f578063e91a7ca614610452578063f2fde38b1461046e578063f56e9c661461048a578063fb5b82d0146104a65761018c565b8063dcc9606f146103ea578063dd81b5ae14610406578063e53442f0146104225761018c565b80638e991592146103205780638f32d59b1461033e57806398d5fdca1461035c578063c80f4e351461037a578063d212a69a146103b0578063db9fcd01146103ce5761018c565b8063491d0a56116101495780636cc62992116101235780636cc62992146102aa578063715018a6146102da5780637c0b8de2146102e45780638da5cb5b146103025761018c565b8063491d0a56146102525780634e36245d14610270578063678660fb1461028c5761018c565b806304bb60ce146101905780630a861f2a146101ae578063235b6ea1146101ca57806336171e0e146101e85780633bd11f571461020457806341796a1714610222575b5f80fd5b6101986104c2565b6040516101a591906122b1565b60405180910390f35b6101c860048036038101906101c39190612301565b6104e7565b005b6101d261081d565b6040516101df919061233b565b60405180910390f35b61020260048036038101906101fd919061237e565b610823565b005b61020c61087f565b604051610219919061233b565b60405180910390f35b61023c60048036038101906102379190612301565b610885565b604051610249919061245a565b60405180910390f35b61025a61089e565b60405161026791906122b1565b60405180910390f35b61028a60048036038101906102859190612301565b6108c3565b005b610294610a73565b6040516102a1919061233b565b60405180910390f35b6102c460048036038101906102bf919061249d565b610a79565b6040516102d1919061233b565b60405180910390f35b6102e2610a95565b005b6102ec610b48565b6040516102f991906122b1565b60405180910390f35b61030a610b6d565b60405161031791906122b1565b60405180910390f35b610328610b94565b60405161033591906122b1565b60405180910390f35b610346610bb9565b60405161035391906124d7565b60405180910390f35b610364610c0e565b604051610371919061233b565b60405180910390f35b610394600480360381019061038f9190612301565b610c1c565b6040516103a797969594939291906124f0565b60405180910390f35b6103b8610c94565b6040516103c5919061233b565b60405180910390f35b6103e860048036038101906103e3919061237e565b610c9a565b005b61040460048036038101906103ff9190612301565b610d2d565b005b610420600480360381019061041b9190612301565b610f00565b005b61043c6004803603810190610437919061255d565b611011565b604051610449919061245a565b60405180910390f35b61046c60048036038101906104679190612301565b61123c565b005b6104886004803603810190610483919061237e565b61148f565b005b6104a4600480360381019061049f919061237e565b6114ab565b005b6104c060048036038101906104bb919061237e565b61153e565b005b60025f9054906101000a900473ffffffffffffffffffffffffffffffffffffffff1681565b5f3390505f60085f8373ffffffffffffffffffffffffffffffffffffffff1673ffffffffffffffffffffffffffffffffffffffff1681526020019081526020015f2080548060200260200160405190810160405280929190818152602001828054801561057157602002820191905f5260205f20905b81548152602001906001019080831161055d575b50505050509050805183106105bb576040517f08c379a00000000000000000000000000000000000000000000000000000000081526004016105b2906125f5565b60405180910390fd5b5f8184815181106105cf576105ce612613565b5b602002602001015190505f600982815481106105ee576105ed612613565b5b905f5260205f2090600702016040518060e00160405290815f82015f9054906101000a900473ffffffffffffffffffffffffffffffffffffffff1673ffffffffffffffffffffffffffffffffffffffff1673ffffffffffffffffffffffffffffffffffffffff16815260200160018201548152602001600282015481526020016003820154815260200160048201548152602001600582015f9054906101000a900460ff1615151515815260200160068201548152505090505f816060015190505f826080015190505f81836106c4919061266d565b90505f83826106d391906126cd565b90505f83836106e291906126cd565b90505f60065f9054906101000a900473ffffffffffffffffffffffffffffffffffffffff1690505f600754848861071991906126cd565b61072391906126cd565b90505f838761073291906126cd565b90508273ffffffffffffffffffffffffffffffffffffffff1663c1d2d00d838e6040518363ffffffff1660e01b815260040161076f9291906126fd565b5f604051808303815f87803b158015610786575f80fd5b505af1158015610798573d5f803e3d5ffd5b505050508273ffffffffffffffffffffffffffffffffffffffff16638cda7bb4828e6040518363ffffffff1660e01b81526004016107d79291906126fd565b5f604051808303815f87803b1580156107ee575f80fd5b505af1158015610800573d5f803e3d5ffd5b5050505061080e898b611591565b50505050505050505050505050565b60075481565b61082b610bb9565b610833575f80fd5b8060065f6101000a81548173ffffffffffffffffffffffffffffffffffffffff021916908373ffffffffffffffffffffffffffffffffffffffff16021790555061087b6116ef565b5050565b600c5481565b61088d6121dc565b6108973383611011565b9050919050565b60065f9054906101000a900473ffffffffffffffffffffffffffffffffffffffff1681565b5f805f60085f3373ffffffffffffffffffffffffffffffffffffffff1673ffffffffffffffffffffffffffffffffffffffff1681526020019081526020015f2080548060200260200160405190810160405280929190818152602001828054801561094b57602002820191905f5260205f20905b815481526020019060010190808311610937575b505050505090505f60075490505f6109628661188e565b90505f8190505f805f80875190505b5f8111801561097f57505f85115b15610a24576001816109919190612724565b915060098883815181106109a8576109a7612613565b5b6020026020010151815481106109c1576109c0612613565b5b905f5260205f20906007020199506109d96001611a5f565b8094508195505050600983815481106109f5576109f4612613565b5b905f5260205f2090600702019850610a0f8a8a878a611bb5565b94508080610a1c90612757565b915050610971565b5f8514610a66576040517f08c379a0000000000000000000000000000000000000000000000000000000008152600401610a5d906127c8565b60405180910390fd5b5050505050505050505050565b600b5481565b5f8115610a8a57600e549050610a90565b600d5490505b919050565b610a9d610bb9565b610aa5575f80fd5b5f8054906101000a900473ffffffffffffffffffffffffffffffffffffffff1673ffffffffffffffffffffffffffffffffffffffff167ff8df31144d9c2f0f6b59d69b8b98abd5459d07f2742c4df920b25aae33c6482060405160405180910390a25f805f6101000a81548173ffffffffffffffffffffffffffffffffffffffff021916908373ffffffffffffffffffffffffffffffffffffffff160217905550565b60015f9054906101000a900473ffffffffffffffffffffffffffffffffffffffff1681565b5f805f9054906101000a900473ffffffffffffffffffffffffffffffffffffffff16905090565b60055f9054906101000a900473ffffffffffffffffffffffffffffffffffffffff1681565b5f805f9054906101000a900473ffffffffffffffffffffffffffffffffffffffff1673ffffffffffffffffffffffffffffffffffffffff163373ffffffffffffffffffffffffffffffffffffffff1614905090565b5f610c176116ef565b905090565b60098181548110610c2b575f80fd5b905f5260205f2090600702015f91509050805f015f9054906101000a900473ffffffffffffffffffffffffffffffffffffffff1690806001015490806002015490806003015490806004015490806005015f9054906101000a900460ff16908060060154905087565b600a5481565b610ca2610bb9565b610caa575f80fd5b8060025f6101000a81548173ffffffffffffffffffffffffffffffffffffffff021916908373ffffffffffffffffffffffffffffffffffffffff1602179055508060035f6101000a81548173ffffffffffffffffffffffffffffffffffffffff021916908373ffffffffffffffffffffffffffffffffffffffff16021790555050565b5f805f60085f3373ffffffffffffffffffffffffffffffffffffffff1673ffffffffffffffffffffffffffffffffffffffff1681526020019081526020015f20805480602002602001604051908101604052809291908181526020018280548015610db557602002820191905f5260205f20905b815481526020019060010190808311610da1575b505050505090505f60075490505f8186610dcf91906127e6565b9050610dda8161188e565b81610de59190612724565b90505f8282610df491906126cd565b90505f805f80875190505b5f81118015610e0d57505f85115b15610eb157600181610e1f9190612724565b91506009888381518110610e3657610e35612613565b5b602002602001015181548110610e4f57610e4e612613565b5b905f5260205f2090600702019950610e665f611a5f565b809450819550505060098381548110610e8257610e81612613565b5b905f5260205f2090600702019850610e9c8a8a878a611c45565b94508080610ea990612757565b915050610dff565b5f8514610ef3576040517f08c379a0000000000000000000000000000000000000000000000000000000008152600401610eea906127c8565b60405180910390fd5b5050505050505050505050565b5f60035f9054906101000a900473ffffffffffffffffffffffffffffffffffffffff1673ffffffffffffffffffffffffffffffffffffffff166323b872dd3360065f9054906101000a900473ffffffffffffffffffffffffffffffffffffffff16856040518463ffffffff1660e01b8152600401610f8093929190612827565b6020604051808303815f875af1158015610f9c573d5f803e3d5ffd5b505050506040513d601f19601f82011682018060405250810190610fc09190612870565b905080611002576040517f08c379a0000000000000000000000000000000000000000000000000000000008152600401610ff9906128e5565b60405180910390fd5b61100d826001611cd5565b5050565b6110196121dc565b5f60085f8573ffffffffffffffffffffffffffffffffffffffff1673ffffffffffffffffffffffffffffffffffffffff1681526020019081526020015f2080548060200260200160405190810160405280929190818152602001828054801561109f57602002820191905f5260205f20905b81548152602001906001019080831161108b575b50505050509050805183106110e9576040517f08c379a00000000000000000000000000000000000000000000000000000000081526004016110e0906125f5565b60405180910390fd5b5f8184815181106110fd576110fc612613565b5b602002602001015190505f6009828154811061111c5761111b612613565b5b905f5260205f2090600702016040518060e00160405290815f82015f9054906101000a900473ffffffffffffffffffffffffffffffffffffffff1673ffffffffffffffffffffffffffffffffffffffff1673ffffffffffffffffffffffffffffffffffffffff16815260200160018201548152602001600282015481526020016003820154815260200160048201548152602001600582015f9054906101000a900460ff1615151515815260200160068201548152505090506040518060c00160405280825f015173ffffffffffffffffffffffffffffffffffffffff168152602001826020015181526020018260400151815260200182606001518152602001826080015181526020018260a001511515815250935050505092915050565b5f73ffffffffffffffffffffffffffffffffffffffff1660065f9054906101000a900473ffffffffffffffffffffffffffffffffffffffff1673ffffffffffffffffffffffffffffffffffffffff16036112cb576040517f08c379a00000000000000000000000000000000000000000000000000000000081526004016112c290612973565b60405180910390fd5b5f805f67ffffffffffffffff8111156112e7576112e6612991565b5b6040519080825280601f01601f1916602001820160405280156113195781602001600182028036833780820191505090505b5090505f5b8381101561147e5760045f9054906101000a900473ffffffffffffffffffffffffffffffffffffffff1673ffffffffffffffffffffffffffffffffffffffff16632f745c5933836040518363ffffffff1660e01b81526004016113829291906129be565b602060405180830381865afa15801561139d573d5f803e3d5ffd5b505050506040513d601f19601f820116820180604052508101906113c191906129f9565b925060045f9054906101000a900473ffffffffffffffffffffffffffffffffffffffff1673ffffffffffffffffffffffffffffffffffffffff1663b88d4fde3360065f9054906101000a900473ffffffffffffffffffffffffffffffffffffffff1686866040518563ffffffff1660e01b81526004016114449493929190612a94565b5f604051808303815f87803b15801561145b575f80fd5b505af115801561146d573d5f803e3d5ffd5b50505050808060010191505061131e565b5061148a836001611cd5565b505050565b611497610bb9565b61149f575f80fd5b6114a881611ead565b50565b6114b3610bb9565b6114bb575f80fd5b8060015f6101000a81548173ffffffffffffffffffffffffffffffffffffffff021916908373ffffffffffffffffffffffffffffffffffffffff1602179055508060045f6101000a81548173ffffffffffffffffffffffffffffffffffffffff021916908373ffffffffffffffffffffffffffffffffffffffff16021790555050565b611546610bb9565b61154e575f80fd5b8060055f6101000a81548173ffffffffffffffffffffffffffffffffffffffff021916908373ffffffffffffffffffffffffffffffffffffffff16021790555050565b5f8260c0015190505f8060085f3373ffffffffffffffffffffffffffffffffffffffff1673ffffffffffffffffffffffffffffffffffffffff1681526020019081526020015f2090506115e48184611f9f565b156116305760098184815481106115fe576115fd612613565b5b905f5260205f2001548154811061161857611617612613565b5b905f5260205f20906007020191508282600601819055505b61163b60098561202b565b156116e8576009848154811061165457611653612613565b5b905f5260205f2090600702019150816006015492508360085f845f015f9054906101000a900473ffffffffffffffffffffffffffffffffffffffff1673ffffffffffffffffffffffffffffffffffffffff1673ffffffffffffffffffffffffffffffffffffffff1681526020019081526020015f2084815481106116db576116da612613565b5b905f5260205f2001819055505b5050505050565b5f8060035f9054906101000a900473ffffffffffffffffffffffffffffffffffffffff1673ffffffffffffffffffffffffffffffffffffffff166370a0823160065f9054906101000a900473ffffffffffffffffffffffffffffffffffffffff166040518263ffffffff1660e01b815260040161176c91906122b1565b602060405180830381865afa158015611787573d5f803e3d5ffd5b505050506040513d601f19601f820116820180604052508101906117ab91906129f9565b90505f60045f9054906101000a900473ffffffffffffffffffffffffffffffffffffffff1673ffffffffffffffffffffffffffffffffffffffff166370a0823160065f9054906101000a900473ffffffffffffffffffffffffffffffffffffffff166040518263ffffffff1660e01b815260040161182991906122b1565b602060405180830381865afa158015611844573d5f803e3d5ffd5b505050506040513d601f19601f8201168201806040525081019061186891906129f9565b90505f811461188457808261187d91906126cd565b6007819055505b6007549250505090565b5f806127106005846118a091906127e6565b6118aa91906126cd565b90505f6005826118ba91906126cd565b90505f81836118c99190612724565b90505f60035f9054906101000a900473ffffffffffffffffffffffffffffffffffffffff1673ffffffffffffffffffffffffffffffffffffffff1663a9059cbb60055f9054906101000a900473ffffffffffffffffffffffffffffffffffffffff16856040518363ffffffff1660e01b81526004016119499291906129be565b6020604051808303815f875af1158015611965573d5f803e3d5ffd5b505050506040513d601f19601f820116820180604052508101906119899190612870565b905080611994575f80fd5b60035f9054906101000a900473ffffffffffffffffffffffffffffffffffffffff1673ffffffffffffffffffffffffffffffffffffffff1663a9059cbb30846040518363ffffffff1660e01b81526004016119f09291906129be565b6020604051808303815f875af1158015611a0c573d5f803e3d5ffd5b505050506040513d601f19601f82011682018060405250810190611a309190612870565b905080611a3b575f80fd5b81600a5f828254611a4c919061266d565b9250508190555083945050505050919050565b5f80611a69612224565b5f60098054905090505b5f81118015611a80575083155b15611bae57600181611a929190612724565b925060098381548110611aa857611aa7612613565b5b905f5260205f2090600702016040518060e00160405290815f82015f9054906101000a900473ffffffffffffffffffffffffffffffffffffffff1673ffffffffffffffffffffffffffffffffffffffff1673ffffffffffffffffffffffffffffffffffffffff16815260200160018201548152602001600282015481526020016003820154815260200160048201548152602001600582015f9054906101000a900460ff16151515158152602001600682015481525050915084158015611b7257505f8260800151115b15611b805760019350611b9b565b848015611b9057505f8260600151115b15611b9a57600193505b5b8080611ba690612757565b915050611a73565b5050915091565b5f80856004015490505f84821115611bcd5784611bcf565b815b905080876004015f828254611be49190612724565b925050819055508085611bf79190612724565b94508381611c0591906126cd565b876003015f828254611c17919061266d565b9250508190555080866004015f828254611c31919061266d565b925050819055508492505050949350505050565b5f8083866003015411611c5e5785600301549050611c62565b8390505b80866003015f828254611c759190612724565b925050819055508084611c889190612724565b93508281611c9691906127e6565b866004015f828254611ca8919061266d565b9250508190555080856003015f828254611cc2919061266d565b9250508190555083915050949350505050565b5f60085f3373ffffffffffffffffffffffffffffffffffffffff1673ffffffffffffffffffffffffffffffffffffffff1681526020019081526020015f2090505f818054905090505f808415611d2d57859150611d31565b8590505b5f6040518060e001604052803373ffffffffffffffffffffffffffffffffffffffff16815260200142815260200160075481526020018481526020018381526020015f15158152602001868054905081525090508515611da757600d5f815480929190611d9d90612ade565b9190505550611dbf565b600e5f815480929190611db990612ade565b91905055505b600981908060018154018082558091505060019003905f5260205f2090600702015f909190919091505f820151815f015f6101000a81548173ffffffffffffffffffffffffffffffffffffffff021916908373ffffffffffffffffffffffffffffffffffffffff1602179055506020820151816001015560408201518160020155606082015181600301556080820151816004015560a0820151816005015f6101000a81548160ff02191690831515021790555060c0820151816006015550508484908060018154018082558091505060019003905f5260205f20015f909190919091505550505050505050565b5f73ffffffffffffffffffffffffffffffffffffffff168173ffffffffffffffffffffffffffffffffffffffff1603611ee4575f80fd5b8073ffffffffffffffffffffffffffffffffffffffff165f8054906101000a900473ffffffffffffffffffffffffffffffffffffffff1673ffffffffffffffffffffffffffffffffffffffff167f8be0079c531659141344cd1fd0a4f28419497f9722a3daafe3b4186f6b6457e060405160405180910390a3805f806101000a81548173ffffffffffffffffffffffffffffffffffffffff021916908373ffffffffffffffffffffffffffffffffffffffff16021790555050565b5f8060018480549050611fb29190612724565b90505f818414905080611ffb57848281548110611fd257611fd1612613565b5b905f5260205f200154858581548110611fee57611fed612613565b5b905f5260205f2001819055505b8480548061200c5761200b612b25565b5b600190038181905f5260205f20015f9055905580159250505092915050565b5f806001848054905061203e9190612724565b90505f81841490508061214d5784828154811061205e5761205d612613565b5b905f5260205f20906007020185858154811061207d5761207c612613565b5b905f5260205f2090600702015f82015f9054906101000a900473ffffffffffffffffffffffffffffffffffffffff16815f015f6101000a81548173ffffffffffffffffffffffffffffffffffffffff021916908373ffffffffffffffffffffffffffffffffffffffff16021790555060018201548160010155600282015481600201556003820154816003015560048201548160040155600582015f9054906101000a900460ff16816005015f6101000a81548160ff021916908315150217905550600682015481600601559050505b8480548061215e5761215d612b25565b5b600190038181905f5260205f2090600702015f8082015f6101000a81549073ffffffffffffffffffffffffffffffffffffffff0219169055600182015f9055600282015f9055600382015f9055600482015f9055600582015f6101000a81549060ff0219169055600682015f90555050905580159250505092915050565b6040518060c001604052805f73ffffffffffffffffffffffffffffffffffffffff1681526020015f81526020015f81526020015f81526020015f81526020015f151581525090565b6040518060e001604052805f73ffffffffffffffffffffffffffffffffffffffff1681526020015f81526020015f81526020015f81526020015f81526020015f151581526020015f81525090565b5f73ffffffffffffffffffffffffffffffffffffffff82169050919050565b5f61229b82612272565b9050919050565b6122ab81612291565b82525050565b5f6020820190506122c45f8301846122a2565b92915050565b5f80fd5b5f819050919050565b6122e0816122ce565b81146122ea575f80fd5b50565b5f813590506122fb816122d7565b92915050565b5f60208284031215612316576123156122ca565b5b5f612323848285016122ed565b91505092915050565b612335816122ce565b82525050565b5f60208201905061234e5f83018461232c565b92915050565b61235d81612291565b8114612367575f80fd5b50565b5f8135905061237881612354565b92915050565b5f60208284031215612393576123926122ca565b5b5f6123a08482850161236a565b91505092915050565b6123b281612291565b82525050565b6123c1816122ce565b82525050565b5f8115159050919050565b6123db816123c7565b82525050565b60c082015f8201516123f55f8501826123a9565b50602082015161240860208501826123b8565b50604082015161241b60408501826123b8565b50606082015161242e60608501826123b8565b50608082015161244160808501826123b8565b5060a082015161245460a08501826123d2565b50505050565b5f60c08201905061246d5f8301846123e1565b92915050565b61247c816123c7565b8114612486575f80fd5b50565b5f8135905061249781612473565b92915050565b5f602082840312156124b2576124b16122ca565b5b5f6124bf84828501612489565b91505092915050565b6124d1816123c7565b82525050565b5f6020820190506124ea5f8301846124c8565b92915050565b5f60e0820190506125035f83018a6122a2565b612510602083018961232c565b61251d604083018861232c565b61252a606083018761232c565b612537608083018661232c565b61254460a08301856124c8565b61255160c083018461232c565b98975050505050505050565b5f8060408385031215612573576125726122ca565b5b5f6125808582860161236a565b9250506020612591858286016122ed565b9150509250929050565b5f82825260208201905092915050565b7f496e646578206f7574206f662072616e676500000000000000000000000000005f82015250565b5f6125df60128361259b565b91506125ea826125ab565b602082019050919050565b5f6020820190508181035f83015261260c816125d3565b9050919050565b7f4e487b71000000000000000000000000000000000000000000000000000000005f52603260045260245ffd5b7f4e487b71000000000000000000000000000000000000000000000000000000005f52601160045260245ffd5b5f612677826122ce565b9150612682836122ce565b925082820190508082111561269a57612699612640565b5b92915050565b7f4e487b71000000000000000000000000000000000000000000000000000000005f52601260045260245ffd5b5f6126d7826122ce565b91506126e2836122ce565b9250826126f2576126f16126a0565b5b828204905092915050565b5f6040820190506127105f83018561232c565b61271d60208301846122a2565b9392505050565b5f61272e826122ce565b9150612739836122ce565b925082820390508181111561275157612750612640565b5b92915050565b5f612761826122ce565b91505f820361277357612772612640565b5b600182039050919050565b7f496e73756666696369656e74206c6971756964697479000000000000000000005f82015250565b5f6127b260168361259b565b91506127bd8261277e565b602082019050919050565b5f6020820190508181035f8301526127df816127a6565b9050919050565b5f6127f0826122ce565b91506127fb836122ce565b9250828202612809816122ce565b915082820484148315176128205761281f612640565b5b5092915050565b5f60608201905061283a5f8301866122a2565b61284760208301856122a2565b612854604083018461232c565b949350505050565b5f8151905061286a81612473565b92915050565b5f60208284031215612885576128846122ca565b5b5f6128928482850161285c565b91505092915050565b7f5472616e73666572206661696c656400000000000000000000000000000000005f82015250565b5f6128cf600f8361259b565b91506128da8261289b565b602082019050919050565b5f6020820190508181035f8301526128fc816128c3565b9050919050565b7f4c697175696469747920616464726573732069732079657420746f20626520615f8201527f737369676e656400000000000000000000000000000000000000000000000000602082015250565b5f61295d60278361259b565b915061296882612903565b604082019050919050565b5f6020820190508181035f83015261298a81612951565b9050919050565b7f4e487b71000000000000000000000000000000000000000000000000000000005f52604160045260245ffd5b5f6040820190506129d15f8301856122a2565b6129de602083018461232c565b9392505050565b5f815190506129f3816122d7565b92915050565b5f60208284031215612a0e57612a0d6122ca565b5b5f612a1b848285016129e5565b91505092915050565b5f81519050919050565b5f82825260208201905092915050565b8281835e5f83830152505050565b5f601f19601f8301169050919050565b5f612a6682612a24565b612a708185612a2e565b9350612a80818560208601612a3e565b612a8981612a4c565b840191505092915050565b5f608082019050612aa75f8301876122a2565b612ab460208301866122a2565b612ac1604083018561232c565b8181036060830152612ad38184612a5c565b905095945050505050565b5f612ae8826122ce565b91507fffffffffffffffffffffffffffffffffffffffffffffffffffffffffffffffff8203612b1a57612b19612640565b5b600182019050919050565b7f4e487b71000000000000000000000000000000000000000000000000000000005f52603160045260245ffdfea264697066735822122084d3a494e1e2fd3a08bf98d643900d921d904f5752c5d03996a34b524031db3764736f6c63430008190033",
			"opcodes": "PUSH1 0x80 PUSH1 0x40 MSTORE CALLVALUE DUP1 ISZERO PUSH1 0xE JUMPI PUSH0 DUP1 REVERT JUMPDEST POP CALLER PUSH0 DUP1 PUSH2 0x100 EXP DUP2 SLOAD DUP2 PUSH20 0xFFFFFFFFFFFFFFFFFFFFFFFFFFFFFFFFFFFFFFFF MUL NOT AND SWAP1 DUP4 PUSH20 0xFFFFFFFFFFFFFFFFFFFFFFFFFFFFFFFFFFFFFFFF AND MUL OR SWAP1 SSTORE POP CALLER PUSH1 0x5 PUSH0 PUSH2 0x100 EXP DUP2 SLOAD DUP2 PUSH20 0xFFFFFFFFFFFFFFFFFFFFFFFFFFFFFFFFFFFFFFFF MUL NOT AND SWAP1 DUP4 PUSH20 0xFFFFFFFFFFFFFFFFFFFFFFFFFFFFFFFFFFFFFFFF AND MUL OR SWAP1 SSTORE POP PUSH2 0x2B88 DUP1 PUSH2 0x9B PUSH0 CODECOPY PUSH0 RETURN INVALID PUSH1 0x80 PUSH1 0x40 MSTORE CALLVALUE DUP1 ISZERO PUSH2 0xF JUMPI PUSH0 DUP1 REVERT JUMPDEST POP PUSH1 0x4 CALLDATASIZE LT PUSH2 0x18C JUMPI PUSH0 CALLDATALOAD PUSH1 0xE0 SHR DUP1 PUSH4 0x8E991592 GT PUSH2 0xDC JUMPI DUP1 PUSH4 0xDCC9606F GT PUSH2 0x95 JUMPI DUP1 PUSH4 0xE91A7CA6 GT PUSH2 0x6F JUMPI DUP1 PUSH4 0xE91A7CA6 EQ PUSH2 0x452 JUMPI DUP1 PUSH4 0xF2FDE38B EQ PUSH2 0x46E JUMPI DUP1 PUSH4 0xF56E9C66 EQ PUSH2 0x48A JUMPI DUP1 PUSH4 0xFB5B82D0 EQ PUSH2 0x4A6 JUMPI PUSH2 0x18C JUMP JUMPDEST DUP1 PUSH4 0xDCC9606F EQ PUSH2 0x3EA JUMPI DUP1 PUSH4 0xDD81B5AE EQ PUSH2 0x406 JUMPI DUP1 PUSH4 0xE53442F0 EQ PUSH2 0x422 JUMPI PUSH2 0x18C JUMP JUMPDEST DUP1 PUSH4 0x8E991592 EQ PUSH2 0x320 JUMPI DUP1 PUSH4 0x8F32D59B EQ PUSH2 0x33E JUMPI DUP1 PUSH4 0x98D5FDCA EQ PUSH2 0x35C JUMPI DUP1 PUSH4 0xC80F4E35 EQ PUSH2 0x37A JUMPI DUP1 PUSH4 0xD212A69A EQ PUSH2 0x3B0 JUMPI DUP1 PUSH4 0xDB9FCD01 EQ PUSH2 0x3CE JUMPI PUSH2 0x18C JUMP JUMPDEST DUP1 PUSH4 0x491D0A56 GT PUSH2 0x149 JUMPI DUP1 PUSH4 0x6CC62992 GT PUSH2 0x123 JUMPI DUP1 PUSH4 0x6CC62992 EQ PUSH2 0x2AA JUMPI DUP1 PUSH4 0x715018A6 EQ PUSH2 0x2DA JUMPI DUP1 PUSH4 0x7C0B8DE2 EQ PUSH2 0x2E4 JUMPI DUP1 PUSH4 0x8DA5CB5B EQ PUSH2 0x302 JUMPI PUSH2 0x18C JUMP JUMPDEST DUP1 PUSH4 0x491D0A56 EQ PUSH2 0x252 JUMPI DUP1 PUSH4 0x4E36245D EQ PUSH2 0x270 JUMPI DUP1 PUSH4 0x678660FB EQ PUSH2 0x28C JUMPI PUSH2 0x18C JUMP JUMPDEST DUP1 PUSH4 0x4BB60CE EQ PUSH2 0x190 JUMPI DUP1 PUSH4 0xA861F2A EQ PUSH2 0x1AE JUMPI DUP1 PUSH4 0x235B6EA1 EQ PUSH2 0x1CA JUMPI DUP1 PUSH4 0x36171E0E EQ PUSH2 0x1E8 JUMPI DUP1 PUSH4 0x3BD11F57 EQ PUSH2 0x204 JUMPI DUP1 PUSH4 0x41796A17 EQ PUSH2 0x222 JUMPI JUMPDEST PUSH0 DUP1 REVERT JUMPDEST PUSH2 0x198 PUSH2 0x4C2 JUMP JUMPDEST PUSH1 0x40 MLOAD PUSH2 0x1A5 SWAP2 SWAP1 PUSH2 0x22B1 JUMP JUMPDEST PUSH1 0x40 MLOAD DUP1 SWAP2 SUB SWAP1 RETURN JUMPDEST PUSH2 0x1C8 PUSH1 0x4 DUP1 CALLDATASIZE SUB DUP2 ADD SWAP1 PUSH2 0x1C3 SWAP2 SWAP1 PUSH2 0x2301 JUMP JUMPDEST PUSH2 0x4E7 JUMP JUMPDEST STOP JUMPDEST PUSH2 0x1D2 PUSH2 0x81D JUMP JUMPDEST PUSH1 0x40 MLOAD PUSH2 0x1DF SWAP2 SWAP1 PUSH2 0x233B JUMP JUMPDEST PUSH1 0x40 MLOAD DUP1 SWAP2 SUB SWAP1 RETURN JUMPDEST PUSH2 0x202 PUSH1 0x4 DUP1 CALLDATASIZE SUB DUP2 ADD SWAP1 PUSH2 0x1FD SWAP2 SWAP1 PUSH2 0x237E JUMP JUMPDEST PUSH2 0x823 JUMP JUMPDEST STOP JUMPDEST PUSH2 0x20C PUSH2 0x87F JUMP JUMPDEST PUSH1 0x40 MLOAD PUSH2 0x219 SWAP2 SWAP1 PUSH2 0x233B JUMP JUMPDEST PUSH1 0x40 MLOAD DUP1 SWAP2 SUB SWAP1 RETURN JUMPDEST PUSH2 0x23C PUSH1 0x4 DUP1 CALLDATASIZE SUB DUP2 ADD SWAP1 PUSH2 0x237 SWAP2 SWAP1 PUSH2 0x2301 JUMP JUMPDEST PUSH2 0x885 JUMP JUMPDEST PUSH1 0x40 MLOAD PUSH2 0x249 SWAP2 SWAP1 PUSH2 0x245A JUMP JUMPDEST PUSH1 0x40 MLOAD DUP1 SWAP2 SUB SWAP1 RETURN JUMPDEST PUSH2 0x25A PUSH2 0x89E JUMP JUMPDEST PUSH1 0x40 MLOAD PUSH2 0x267 SWAP2 SWAP1 PUSH2 0x22B1 JUMP JUMPDEST PUSH1 0x40 MLOAD DUP1 SWAP2 SUB SWAP1 RETURN JUMPDEST PUSH2 0x28A PUSH1 0x4 DUP1 CALLDATASIZE SUB DUP2 ADD SWAP1 PUSH2 0x285 SWAP2 SWAP1 PUSH2 0x2301 JUMP JUMPDEST PUSH2 0x8C3 JUMP JUMPDEST STOP JUMPDEST PUSH2 0x294 PUSH2 0xA73 JUMP JUMPDEST PUSH1 0x40 MLOAD PUSH2 0x2A1 SWAP2 SWAP1 PUSH2 0x233B JUMP JUMPDEST PUSH1 0x40 MLOAD DUP1 SWAP2 SUB SWAP1 RETURN JUMPDEST PUSH2 0x2C4 PUSH1 0x4 DUP1 CALLDATASIZE SUB DUP2 ADD SWAP1 PUSH2 0x2BF SWAP2 SWAP1 PUSH2 0x249D JUMP JUMPDEST PUSH2 0xA79 JUMP JUMPDEST PUSH1 0x40 MLOAD PUSH2 0x2D1 SWAP2 SWAP1 PUSH2 0x233B JUMP JUMPDEST PUSH1 0x40 MLOAD DUP1 SWAP2 SUB SWAP1 RETURN JUMPDEST PUSH2 0x2E2 PUSH2 0xA95 JUMP JUMPDEST STOP JUMPDEST PUSH2 0x2EC PUSH2 0xB48 JUMP JUMPDEST PUSH1 0x40 MLOAD PUSH2 0x2F9 SWAP2 SWAP1 PUSH2 0x22B1 JUMP JUMPDEST PUSH1 0x40 MLOAD DUP1 SWAP2 SUB SWAP1 RETURN JUMPDEST PUSH2 0x30A PUSH2 0xB6D JUMP JUMPDEST PUSH1 0x40 MLOAD PUSH2 0x317 SWAP2 SWAP1 PUSH2 0x22B1 JUMP JUMPDEST PUSH1 0x40 MLOAD DUP1 SWAP2 SUB SWAP1 RETURN JUMPDEST PUSH2 0x328 PUSH2 0xB94 JUMP JUMPDEST PUSH1 0x40 MLOAD PUSH2 0x335 SWAP2 SWAP1 PUSH2 0x22B1 JUMP JUMPDEST PUSH1 0x40 MLOAD DUP1 SWAP2 SUB SWAP1 RETURN JUMPDEST PUSH2 0x346 PUSH2 0xBB9 JUMP JUMPDEST PUSH1 0x40 MLOAD PUSH2 0x353 SWAP2 SWAP1 PUSH2 0x24D7 JUMP JUMPDEST PUSH1 0x40 MLOAD DUP1 SWAP2 SUB SWAP1 RETURN JUMPDEST PUSH2 0x364 PUSH2 0xC0E JUMP JUMPDEST PUSH1 0x40 MLOAD PUSH2 0x371 SWAP2 SWAP1 PUSH2 0x233B JUMP JUMPDEST PUSH1 0x40 MLOAD DUP1 SWAP2 SUB SWAP1 RETURN JUMPDEST PUSH2 0x394 PUSH1 0x4 DUP1 CALLDATASIZE SUB DUP2 ADD SWAP1 PUSH2 0x38F SWAP2 SWAP1 PUSH2 0x2301 JUMP JUMPDEST PUSH2 0xC1C JUMP JUMPDEST PUSH1 0x40 MLOAD PUSH2 0x3A7 SWAP8 SWAP7 SWAP6 SWAP5 SWAP4 SWAP3 SWAP2 SWAP1 PUSH2 0x24F0 JUMP JUMPDEST PUSH1 0x40 MLOAD DUP1 SWAP2 SUB SWAP1 RETURN JUMPDEST PUSH2 0x3B8 PUSH2 0xC94 JUMP JUMPDEST PUSH1 0x40 MLOAD PUSH2 0x3C5 SWAP2 SWAP1 PUSH2 0x233B JUMP JUMPDEST PUSH1 0x40 MLOAD DUP1 SWAP2 SUB SWAP1 RETURN JUMPDEST PUSH2 0x3E8 PUSH1 0x4 DUP1 CALLDATASIZE SUB DUP2 ADD SWAP1 PUSH2 0x3E3 SWAP2 SWAP1 PUSH2 0x237E JUMP JUMPDEST PUSH2 0xC9A JUMP JUMPDEST STOP JUMPDEST PUSH2 0x404 PUSH1 0x4 DUP1 CALLDATASIZE SUB DUP2 ADD SWAP1 PUSH2 0x3FF SWAP2 SWAP1 PUSH2 0x2301 JUMP JUMPDEST PUSH2 0xD2D JUMP JUMPDEST STOP JUMPDEST PUSH2 0x420 PUSH1 0x4 DUP1 CALLDATASIZE SUB DUP2 ADD SWAP1 PUSH2 0x41B SWAP2 SWAP1 PUSH2 0x2301 JUMP JUMPDEST PUSH2 0xF00 JUMP JUMPDEST STOP JUMPDEST PUSH2 0x43C PUSH1 0x4 DUP1 CALLDATASIZE SUB DUP2 ADD SWAP1 PUSH2 0x437 SWAP2 SWAP1 PUSH2 0x255D JUMP JUMPDEST PUSH2 0x1011 JUMP JUMPDEST PUSH1 0x40 MLOAD PUSH2 0x449 SWAP2 SWAP1 PUSH2 0x245A JUMP JUMPDEST PUSH1 0x40 MLOAD DUP1 SWAP2 SUB SWAP1 RETURN JUMPDEST PUSH2 0x46C PUSH1 0x4 DUP1 CALLDATASIZE SUB DUP2 ADD SWAP1 PUSH2 0x467 SWAP2 SWAP1 PUSH2 0x2301 JUMP JUMPDEST PUSH2 0x123C JUMP JUMPDEST STOP JUMPDEST PUSH2 0x488 PUSH1 0x4 DUP1 CALLDATASIZE SUB DUP2 ADD SWAP1 PUSH2 0x483 SWAP2 SWAP1 PUSH2 0x237E JUMP JUMPDEST PUSH2 0x148F JUMP JUMPDEST STOP JUMPDEST PUSH2 0x4A4 PUSH1 0x4 DUP1 CALLDATASIZE SUB DUP2 ADD SWAP1 PUSH2 0x49F SWAP2 SWAP1 PUSH2 0x237E JUMP JUMPDEST PUSH2 0x14AB JUMP JUMPDEST STOP JUMPDEST PUSH2 0x4C0 PUSH1 0x4 DUP1 CALLDATASIZE SUB DUP2 ADD SWAP1 PUSH2 0x4BB SWAP2 SWAP1 PUSH2 0x237E JUMP JUMPDEST PUSH2 0x153E JUMP JUMPDEST STOP JUMPDEST PUSH1 0x2 PUSH0 SWAP1 SLOAD SWAP1 PUSH2 0x100 EXP SWAP1 DIV PUSH20 0xFFFFFFFFFFFFFFFFFFFFFFFFFFFFFFFFFFFFFFFF AND DUP2 JUMP JUMPDEST PUSH0 CALLER SWAP1 POP PUSH0 PUSH1 0x8 PUSH0 DUP4 PUSH20 0xFFFFFFFFFFFFFFFFFFFFFFFFFFFFFFFFFFFFFFFF AND PUSH20 0xFFFFFFFFFFFFFFFFFFFFFFFFFFFFFFFFFFFFFFFF AND DUP2 MSTORE PUSH1 0x20 ADD SWAP1 DUP2 MSTORE PUSH1 0x20 ADD PUSH0 KECCAK256 DUP1 SLOAD DUP1 PUSH1 0x20 MUL PUSH1 0x20 ADD PUSH1 0x40 MLOAD SWAP1 DUP2 ADD PUSH1 0x40 MSTORE DUP1 SWAP3 SWAP2 SWAP1 DUP2 DUP2 MSTORE PUSH1 0x20 ADD DUP3 DUP1 SLOAD DUP1 ISZERO PUSH2 0x571 JUMPI PUSH1 0x20 MUL DUP3 ADD SWAP2 SWAP1 PUSH0 MSTORE PUSH1 0x20 PUSH0 KECCAK256 SWAP1 JUMPDEST DUP2 SLOAD DUP2 MSTORE PUSH1 0x20 ADD SWAP1 PUSH1 0x1 ADD SWAP1 DUP1 DUP4 GT PUSH2 0x55D JUMPI JUMPDEST POP POP POP POP POP SWAP1 POP DUP1 MLOAD DUP4 LT PUSH2 0x5BB JUMPI PUSH1 0x40 MLOAD PUSH32 0x8C379A000000000000000000000000000000000000000000000000000000000 DUP2 MSTORE PUSH1 0x4 ADD PUSH2 0x5B2 SWAP1 PUSH2 0x25F5 JUMP JUMPDEST PUSH1 0x40 MLOAD DUP1 SWAP2 SUB SWAP1 REVERT JUMPDEST PUSH0 DUP2 DUP5 DUP2 MLOAD DUP2 LT PUSH2 0x5CF JUMPI PUSH2 0x5CE PUSH2 0x2613 JUMP JUMPDEST JUMPDEST PUSH1 0x20 MUL PUSH1 0x20 ADD ADD MLOAD SWAP1 POP PUSH0 PUSH1 0x9 DUP3 DUP2 SLOAD DUP2 LT PUSH2 0x5EE JUMPI PUSH2 0x5ED PUSH2 0x2613 JUMP JUMPDEST JUMPDEST SWAP1 PUSH0 MSTORE PUSH1 0x20 PUSH0 KECCAK256 SWAP1 PUSH1 0x7 MUL ADD PUSH1 0x40 MLOAD DUP1 PUSH1 0xE0 ADD PUSH1 0x40 MSTORE SWAP1 DUP2 PUSH0 DUP3 ADD PUSH0 SWAP1 SLOAD SWAP1 PUSH2 0x100 EXP SWAP1 DIV PUSH20 0xFFFFFFFFFFFFFFFFFFFFFFFFFFFFFFFFFFFFFFFF AND PUSH20 0xFFFFFFFFFFFFFFFFFFFFFFFFFFFFFFFFFFFFFFFF AND PUSH20 0xFFFFFFFFFFFFFFFFFFFFFFFFFFFFFFFFFFFFFFFF AND DUP2 MSTORE PUSH1 0x20 ADD PUSH1 0x1 DUP3 ADD SLOAD DUP2 MSTORE PUSH1 0x20 ADD PUSH1 0x2 DUP3 ADD SLOAD DUP2 MSTORE PUSH1 0x20 ADD PUSH1 0x3 DUP3 ADD SLOAD DUP2 MSTORE PUSH1 0x20 ADD PUSH1 0x4 DUP3 ADD SLOAD DUP2 MSTORE PUSH1 0x20 ADD PUSH1 0x5 DUP3 ADD PUSH0 SWAP1 SLOAD SWAP1 PUSH2 0x100 EXP SWAP1 DIV PUSH1 0xFF AND ISZERO ISZERO ISZERO ISZERO DUP2 MSTORE PUSH1 0x20 ADD PUSH1 0x6 DUP3 ADD SLOAD DUP2 MSTORE POP POP SWAP1 POP PUSH0 DUP2 PUSH1 0x60 ADD MLOAD SWAP1 POP PUSH0 DUP3 PUSH1 0x80 ADD MLOAD SWAP1 POP PUSH0 DUP2 DUP4 PUSH2 0x6C4 SWAP2 SWAP1 PUSH2 0x266D JUMP JUMPDEST SWAP1 POP PUSH0 DUP4 DUP3 PUSH2 0x6D3 SWAP2 SWAP1 PUSH2 0x26CD JUMP JUMPDEST SWAP1 POP PUSH0 DUP4 DUP4 PUSH2 0x6E2 SWAP2 SWAP1 PUSH2 0x26CD JUMP JUMPDEST SWAP1 POP PUSH0 PUSH1 0x6 PUSH0 SWAP1 SLOAD SWAP1 PUSH2 0x100 EXP SWAP1 DIV PUSH20 0xFFFFFFFFFFFFFFFFFFFFFFFFFFFFFFFFFFFFFFFF AND SWAP1 POP PUSH0 PUSH1 0x7 SLOAD DUP5 DUP9 PUSH2 0x719 SWAP2 SWAP1 PUSH2 0x26CD JUMP JUMPDEST PUSH2 0x723 SWAP2 SWAP1 PUSH2 0x26CD JUMP JUMPDEST SWAP1 POP PUSH0 DUP4 DUP8 PUSH2 0x732 SWAP2 SWAP1 PUSH2 0x26CD JUMP JUMPDEST SWAP1 POP DUP3 PUSH20 0xFFFFFFFFFFFFFFFFFFFFFFFFFFFFFFFFFFFFFFFF AND PUSH4 0xC1D2D00D DUP4 DUP15 PUSH1 0x40 MLOAD DUP4 PUSH4 0xFFFFFFFF AND PUSH1 0xE0 SHL DUP2 MSTORE PUSH1 0x4 ADD PUSH2 0x76F SWAP3 SWAP2 SWAP1 PUSH2 0x26FD JUMP JUMPDEST PUSH0 PUSH1 0x40 MLOAD DUP1 DUP4 SUB DUP2 PUSH0 DUP8 DUP1 EXTCODESIZE ISZERO DUP1 ISZERO PUSH2 0x786 JUMPI PUSH0 DUP1 REVERT JUMPDEST POP GAS CALL ISZERO DUP1 ISZERO PUSH2 0x798 JUMPI RETURNDATASIZE PUSH0 DUP1 RETURNDATACOPY RETURNDATASIZE PUSH0 REVERT JUMPDEST POP POP POP POP DUP3 PUSH20 0xFFFFFFFFFFFFFFFFFFFFFFFFFFFFFFFFFFFFFFFF AND PUSH4 0x8CDA7BB4 DUP3 DUP15 PUSH1 0x40 MLOAD DUP4 PUSH4 0xFFFFFFFF AND PUSH1 0xE0 SHL DUP2 MSTORE PUSH1 0x4 ADD PUSH2 0x7D7 SWAP3 SWAP2 SWAP1 PUSH2 0x26FD JUMP JUMPDEST PUSH0 PUSH1 0x40 MLOAD DUP1 DUP4 SUB DUP2 PUSH0 DUP8 DUP1 EXTCODESIZE ISZERO DUP1 ISZERO PUSH2 0x7EE JUMPI PUSH0 DUP1 REVERT JUMPDEST POP GAS CALL ISZERO DUP1 ISZERO PUSH2 0x800 JUMPI RETURNDATASIZE PUSH0 DUP1 RETURNDATACOPY RETURNDATASIZE PUSH0 REVERT JUMPDEST POP POP POP POP PUSH2 0x80E DUP10 DUP12 PUSH2 0x1591 JUMP JUMPDEST POP POP POP POP POP POP POP POP POP POP POP POP POP JUMP JUMPDEST PUSH1 0x7 SLOAD DUP2 JUMP JUMPDEST PUSH2 0x82B PUSH2 0xBB9 JUMP JUMPDEST PUSH2 0x833 JUMPI PUSH0 DUP1 REVERT JUMPDEST DUP1 PUSH1 0x6 PUSH0 PUSH2 0x100 EXP DUP2 SLOAD DUP2 PUSH20 0xFFFFFFFFFFFFFFFFFFFFFFFFFFFFFFFFFFFFFFFF MUL NOT AND SWAP1 DUP4 PUSH20 0xFFFFFFFFFFFFFFFFFFFFFFFFFFFFFFFFFFFFFFFF AND MUL OR SWAP1 SSTORE POP PUSH2 0x87B PUSH2 0x16EF JUMP JUMPDEST POP POP JUMP JUMPDEST PUSH1 0xC SLOAD DUP2 JUMP JUMPDEST PUSH2 0x88D PUSH2 0x21DC JUMP JUMPDEST PUSH2 0x897 CALLER DUP4 PUSH2 0x1011 JUMP JUMPDEST SWAP1 POP SWAP2 SWAP1 POP JUMP JUMPDEST PUSH1 0x6 PUSH0 SWAP1 SLOAD SWAP1 PUSH2 0x100 EXP SWAP1 DIV PUSH20 0xFFFFFFFFFFFFFFFFFFFFFFFFFFFFFFFFFFFFFFFF AND DUP2 JUMP JUMPDEST PUSH0 DUP1 PUSH0 PUSH1 0x8 PUSH0 CALLER PUSH20 0xFFFFFFFFFFFFFFFFFFFFFFFFFFFFFFFFFFFFFFFF AND PUSH20 0xFFFFFFFFFFFFFFFFFFFFFFFFFFFFFFFFFFFFFFFF AND DUP2 MSTORE PUSH1 0x20 ADD SWAP1 DUP2 MSTORE PUSH1 0x20 ADD PUSH0 KECCAK256 DUP1 SLOAD DUP1 PUSH1 0x20 MUL PUSH1 0x20 ADD PUSH1 0x40 MLOAD SWAP1 DUP2 ADD PUSH1 0x40 MSTORE DUP1 SWAP3 SWAP2 SWAP1 DUP2 DUP2 MSTORE PUSH1 0x20 ADD DUP3 DUP1 SLOAD DUP1 ISZERO PUSH2 0x94B JUMPI PUSH1 0x20 MUL DUP3 ADD SWAP2 SWAP1 PUSH0 MSTORE PUSH1 0x20 PUSH0 KECCAK256 SWAP1 JUMPDEST DUP2 SLOAD DUP2 MSTORE PUSH1 0x20 ADD SWAP1 PUSH1 0x1 ADD SWAP1 DUP1 DUP4 GT PUSH2 0x937 JUMPI JUMPDEST POP POP POP POP POP SWAP1 POP PUSH0 PUSH1 0x7 SLOAD SWAP1 POP PUSH0 PUSH2 0x962 DUP7 PUSH2 0x188E JUMP JUMPDEST SWAP1 POP PUSH0 DUP2 SWAP1 POP PUSH0 DUP1 PUSH0 DUP1 DUP8 MLOAD SWAP1 POP JUMPDEST PUSH0 DUP2 GT DUP1 ISZERO PUSH2 0x97F JUMPI POP PUSH0 DUP6 GT JUMPDEST ISZERO PUSH2 0xA24 JUMPI PUSH1 0x1 DUP2 PUSH2 0x991 SWAP2 SWAP1 PUSH2 0x2724 JUMP JUMPDEST SWAP2 POP PUSH1 0x9 DUP9 DUP4 DUP2 MLOAD DUP2 LT PUSH2 0x9A8 JUMPI PUSH2 0x9A7 PUSH2 0x2613 JUMP JUMPDEST JUMPDEST PUSH1 0x20 MUL PUSH1 0x20 ADD ADD MLOAD DUP2 SLOAD DUP2 LT PUSH2 0x9C1 JUMPI PUSH2 0x9C0 PUSH2 0x2613 JUMP JUMPDEST JUMPDEST SWAP1 PUSH0 MSTORE PUSH1 0x20 PUSH0 KECCAK256 SWAP1 PUSH1 0x7 MUL ADD SWAP10 POP PUSH2 0x9D9 PUSH1 0x1 PUSH2 0x1A5F JUMP JUMPDEST DUP1 SWAP5 POP DUP2 SWAP6 POP POP POP PUSH1 0x9 DUP4 DUP2 SLOAD DUP2 LT PUSH2 0x9F5 JUMPI PUSH2 0x9F4 PUSH2 0x2613 JUMP JUMPDEST JUMPDEST SWAP1 PUSH0 MSTORE PUSH1 0x20 PUSH0 KECCAK256 SWAP1 PUSH1 0x7 MUL ADD SWAP9 POP PUSH2 0xA0F DUP11 DUP11 DUP8 DUP11 PUSH2 0x1BB5 JUMP JUMPDEST SWAP5 POP DUP1 DUP1 PUSH2 0xA1C SWAP1 PUSH2 0x2757 JUMP JUMPDEST SWAP2 POP POP PUSH2 0x971 JUMP JUMPDEST PUSH0 DUP6 EQ PUSH2 0xA66 JUMPI PUSH1 0x40 MLOAD PUSH32 0x8C379A000000000000000000000000000000000000000000000000000000000 DUP2 MSTORE PUSH1 0x4 ADD PUSH2 0xA5D SWAP1 PUSH2 0x27C8 JUMP JUMPDEST PUSH1 0x40 MLOAD DUP1 SWAP2 SUB SWAP1 REVERT JUMPDEST POP POP POP POP POP POP POP POP POP POP POP JUMP JUMPDEST PUSH1 0xB SLOAD DUP2 JUMP JUMPDEST PUSH0 DUP2 ISZERO PUSH2 0xA8A JUMPI PUSH1 0xE SLOAD SWAP1 POP PUSH2 0xA90 JUMP JUMPDEST PUSH1 0xD SLOAD SWAP1 POP JUMPDEST SWAP2 SWAP1 POP JUMP JUMPDEST PUSH2 0xA9D PUSH2 0xBB9 JUMP JUMPDEST PUSH2 0xAA5 JUMPI PUSH0 DUP1 REVERT JUMPDEST PUSH0 DUP1 SLOAD SWAP1 PUSH2 0x100 EXP SWAP1 DIV PUSH20 0xFFFFFFFFFFFFFFFFFFFFFFFFFFFFFFFFFFFFFFFF AND PUSH20 0xFFFFFFFFFFFFFFFFFFFFFFFFFFFFFFFFFFFFFFFF AND PUSH32 0xF8DF31144D9C2F0F6B59D69B8B98ABD5459D07F2742C4DF920B25AAE33C64820 PUSH1 0x40 MLOAD PUSH1 0x40 MLOAD DUP1 SWAP2 SUB SWAP1 LOG2 PUSH0 DUP1 PUSH0 PUSH2 0x100 EXP DUP2 SLOAD DUP2 PUSH20 0xFFFFFFFFFFFFFFFFFFFFFFFFFFFFFFFFFFFFFFFF MUL NOT AND SWAP1 DUP4 PUSH20 0xFFFFFFFFFFFFFFFFFFFFFFFFFFFFFFFFFFFFFFFF AND MUL OR SWAP1 SSTORE POP JUMP JUMPDEST PUSH1 0x1 PUSH0 SWAP1 SLOAD SWAP1 PUSH2 0x100 EXP SWAP1 DIV PUSH20 0xFFFFFFFFFFFFFFFFFFFFFFFFFFFFFFFFFFFFFFFF AND DUP2 JUMP JUMPDEST PUSH0 DUP1 PUSH0 SWAP1 SLOAD SWAP1 PUSH2 0x100 EXP SWAP1 DIV PUSH20 0xFFFFFFFFFFFFFFFFFFFFFFFFFFFFFFFFFFFFFFFF AND SWAP1 POP SWAP1 JUMP JUMPDEST PUSH1 0x5 PUSH0 SWAP1 SLOAD SWAP1 PUSH2 0x100 EXP SWAP1 DIV PUSH20 0xFFFFFFFFFFFFFFFFFFFFFFFFFFFFFFFFFFFFFFFF AND DUP2 JUMP JUMPDEST PUSH0 DUP1 PUSH0 SWAP1 SLOAD SWAP1 PUSH2 0x100 EXP SWAP1 DIV PUSH20 0xFFFFFFFFFFFFFFFFFFFFFFFFFFFFFFFFFFFFFFFF AND PUSH20 0xFFFFFFFFFFFFFFFFFFFFFFFFFFFFFFFFFFFFFFFF AND CALLER PUSH20 0xFFFFFFFFFFFFFFFFFFFFFFFFFFFFFFFFFFFFFFFF AND EQ SWAP1 POP SWAP1 JUMP JUMPDEST PUSH0 PUSH2 0xC17 PUSH2 0x16EF JUMP JUMPDEST SWAP1 POP SWAP1 JUMP JUMPDEST PUSH1 0x9 DUP2 DUP2 SLOAD DUP2 LT PUSH2 0xC2B JUMPI PUSH0 DUP1 REVERT JUMPDEST SWAP1 PUSH0 MSTORE PUSH1 0x20 PUSH0 KECCAK256 SWAP1 PUSH1 0x7 MUL ADD PUSH0 SWAP2 POP SWAP1 POP DUP1 PUSH0 ADD PUSH0 SWAP1 SLOAD SWAP1 PUSH2 0x100 EXP SWAP1 DIV PUSH20 0xFFFFFFFFFFFFFFFFFFFFFFFFFFFFFFFFFFFFFFFF AND SWAP1 DUP1 PUSH1 0x1 ADD SLOAD SWAP1 DUP1 PUSH1 0x2 ADD SLOAD SWAP1 DUP1 PUSH1 0x3 ADD SLOAD SWAP1 DUP1 PUSH1 0x4 ADD SLOAD SWAP1 DUP1 PUSH1 0x5 ADD PUSH0 SWAP1 SLOAD SWAP1 PUSH2 0x100 EXP SWAP1 DIV PUSH1 0xFF AND SWAP1 DUP1 PUSH1 0x6 ADD SLOAD SWAP1 POP DUP8 JUMP JUMPDEST PUSH1 0xA SLOAD DUP2 JUMP JUMPDEST PUSH2 0xCA2 PUSH2 0xBB9 JUMP JUMPDEST PUSH2 0xCAA JUMPI PUSH0 DUP1 REVERT JUMPDEST DUP1 PUSH1 0x2 PUSH0 PUSH2 0x100 EXP DUP2 SLOAD DUP2 PUSH20 0xFFFFFFFFFFFFFFFFFFFFFFFFFFFFFFFFFFFFFFFF MUL NOT AND SWAP1 DUP4 PUSH20 0xFFFFFFFFFFFFFFFFFFFFFFFFFFFFFFFFFFFFFFFF AND MUL OR SWAP1 SSTORE POP DUP1 PUSH1 0x3 PUSH0 PUSH2 0x100 EXP DUP2 SLOAD DUP2 PUSH20 0xFFFFFFFFFFFFFFFFFFFFFFFFFFFFFFFFFFFFFFFF MUL NOT AND SWAP1 DUP4 PUSH20 0xFFFFFFFFFFFFFFFFFFFFFFFFFFFFFFFFFFFFFFFF AND MUL OR SWAP1 SSTORE POP POP JUMP JUMPDEST PUSH0 DUP1 PUSH0 PUSH1 0x8 PUSH0 CALLER PUSH20 0xFFFFFFFFFFFFFFFFFFFFFFFFFFFFFFFFFFFFFFFF AND PUSH20 0xFFFFFFFFFFFFFFFFFFFFFFFFFFFFFFFFFFFFFFFF AND DUP2 MSTORE PUSH1 0x20 ADD SWAP1 DUP2 MSTORE PUSH1 0x20 ADD PUSH0 KECCAK256 DUP1 SLOAD DUP1 PUSH1 0x20 MUL PUSH1 0x20 ADD PUSH1 0x40 MLOAD SWAP1 DUP2 ADD PUSH1 0x40 MSTORE DUP1 SWAP3 SWAP2 SWAP1 DUP2 DUP2 MSTORE PUSH1 0x20 ADD DUP3 DUP1 SLOAD DUP1 ISZERO PUSH2 0xDB5 JUMPI PUSH1 0x20 MUL DUP3 ADD SWAP2 SWAP1 PUSH0 MSTORE PUSH1 0x20 PUSH0 KECCAK256 SWAP1 JUMPDEST DUP2 SLOAD DUP2 MSTORE PUSH1 0x20 ADD SWAP1 PUSH1 0x1 ADD SWAP1 DUP1 DUP4 GT PUSH2 0xDA1 JUMPI JUMPDEST POP POP POP POP POP SWAP1 POP PUSH0 PUSH1 0x7 SLOAD SWAP1 POP PUSH0 DUP2 DUP7 PUSH2 0xDCF SWAP2 SWAP1 PUSH2 0x27E6 JUMP JUMPDEST SWAP1 POP PUSH2 0xDDA DUP2 PUSH2 0x188E JUMP JUMPDEST DUP2 PUSH2 0xDE5 SWAP2 SWAP1 PUSH2 0x2724 JUMP JUMPDEST SWAP1 POP PUSH0 DUP3 DUP3 PUSH2 0xDF4 SWAP2 SWAP1 PUSH2 0x26CD JUMP JUMPDEST SWAP1 POP PUSH0 DUP1 PUSH0 DUP1 DUP8 MLOAD SWAP1 POP JUMPDEST PUSH0 DUP2 GT DUP1 ISZERO PUSH2 0xE0D JUMPI POP PUSH0 DUP6 GT JUMPDEST ISZERO PUSH2 0xEB1 JUMPI PUSH1 0x1 DUP2 PUSH2 0xE1F SWAP2 SWAP1 PUSH2 0x2724 JUMP JUMPDEST SWAP2 POP PUSH1 0x9 DUP9 DUP4 DUP2 MLOAD DUP2 LT PUSH2 0xE36 JUMPI PUSH2 0xE35 PUSH2 0x2613 JUMP JUMPDEST JUMPDEST PUSH1 0x20 MUL PUSH1 0x20 ADD ADD MLOAD DUP2 SLOAD DUP2 LT PUSH2 0xE4F JUMPI PUSH2 0xE4E PUSH2 0x2613 JUMP JUMPDEST JUMPDEST SWAP1 PUSH0 MSTORE PUSH1 0x20 PUSH0 KECCAK256 SWAP1 PUSH1 0x7 MUL ADD SWAP10 POP PUSH2 0xE66 PUSH0 PUSH2 0x1A5F JUMP JUMPDEST DUP1 SWAP5 POP DUP2 SWAP6 POP POP POP PUSH1 0x9 DUP4 DUP2 SLOAD DUP2 LT PUSH2 0xE82 JUMPI PUSH2 0xE81 PUSH2 0x2613 JUMP JUMPDEST JUMPDEST SWAP1 PUSH0 MSTORE PUSH1 0x20 PUSH0 KECCAK256 SWAP1 PUSH1 0x7 MUL ADD SWAP9 POP PUSH2 0xE9C DUP11 DUP11 DUP8 DUP11 PUSH2 0x1C45 JUMP JUMPDEST SWAP5 POP DUP1 DUP1 PUSH2 0xEA9 SWAP1 PUSH2 0x2757 JUMP JUMPDEST SWAP2 POP POP PUSH2 0xDFF JUMP JUMPDEST PUSH0 DUP6 EQ PUSH2 0xEF3 JUMPI PUSH1 0x40 MLOAD PUSH32 0x8C379A000000000000000000000000000000000000000000000000000000000 DUP2 MSTORE PUSH1 0x4 ADD PUSH2 0xEEA SWAP1 PUSH2 0x27C8 JUMP JUMPDEST PUSH1 0x40 MLOAD DUP1 SWAP2 SUB SWAP1 REVERT JUMPDEST POP POP POP POP POP POP POP POP POP POP POP JUMP JUMPDEST PUSH0 PUSH1 0x3 PUSH0 SWAP1 SLOAD SWAP1 PUSH2 0x100 EXP SWAP1 DIV PUSH20 0xFFFFFFFFFFFFFFFFFFFFFFFFFFFFFFFFFFFFFFFF AND PUSH20 0xFFFFFFFFFFFFFFFFFFFFFFFFFFFFFFFFFFFFFFFF AND PUSH4 0x23B872DD CALLER PUSH1 0x6 PUSH0 SWAP1 SLOAD SWAP1 PUSH2 0x100 EXP SWAP1 DIV PUSH20 0xFFFFFFFFFFFFFFFFFFFFFFFFFFFFFFFFFFFFFFFF AND DUP6 PUSH1 0x40 MLOAD DUP5 PUSH4 0xFFFFFFFF AND PUSH1 0xE0 SHL DUP2 MSTORE PUSH1 0x4 ADD PUSH2 0xF80 SWAP4 SWAP3 SWAP2 SWAP1 PUSH2 0x2827 JUMP JUMPDEST PUSH1 0x20 PUSH1 0x40 MLOAD DUP1 DUP4 SUB DUP2 PUSH0 DUP8 GAS CALL ISZERO DUP1 ISZERO PUSH2 0xF9C JUMPI RETURNDATASIZE PUSH0 DUP1 RETURNDATACOPY RETURNDATASIZE PUSH0 REVERT JUMPDEST POP POP POP POP PUSH1 0x40 MLOAD RETURNDATASIZE PUSH1 0x1F NOT PUSH1 0x1F DUP3 ADD AND DUP3 ADD DUP1 PUSH1 0x40 MSTORE POP DUP2 ADD SWAP1 PUSH2 0xFC0 SWAP2 SWAP1 PUSH2 0x2870 JUMP JUMPDEST SWAP1 POP DUP1 PUSH2 0x1002 JUMPI PUSH1 0x40 MLOAD PUSH32 0x8C379A000000000000000000000000000000000000000000000000000000000 DUP2 MSTORE PUSH1 0x4 ADD PUSH2 0xFF9 SWAP1 PUSH2 0x28E5 JUMP JUMPDEST PUSH1 0x40 MLOAD DUP1 SWAP2 SUB SWAP1 REVERT JUMPDEST PUSH2 0x100D DUP3 PUSH1 0x1 PUSH2 0x1CD5 JUMP JUMPDEST POP POP JUMP JUMPDEST PUSH2 0x1019 PUSH2 0x21DC JUMP JUMPDEST PUSH0 PUSH1 0x8 PUSH0 DUP6 PUSH20 0xFFFFFFFFFFFFFFFFFFFFFFFFFFFFFFFFFFFFFFFF AND PUSH20 0xFFFFFFFFFFFFFFFFFFFFFFFFFFFFFFFFFFFFFFFF AND DUP2 MSTORE PUSH1 0x20 ADD SWAP1 DUP2 MSTORE PUSH1 0x20 ADD PUSH0 KECCAK256 DUP1 SLOAD DUP1 PUSH1 0x20 MUL PUSH1 0x20 ADD PUSH1 0x40 MLOAD SWAP1 DUP2 ADD PUSH1 0x40 MSTORE DUP1 SWAP3 SWAP2 SWAP1 DUP2 DUP2 MSTORE PUSH1 0x20 ADD DUP3 DUP1 SLOAD DUP1 ISZERO PUSH2 0x109F JUMPI PUSH1 0x20 MUL DUP3 ADD SWAP2 SWAP1 PUSH0 MSTORE PUSH1 0x20 PUSH0 KECCAK256 SWAP1 JUMPDEST DUP2 SLOAD DUP2 MSTORE PUSH1 0x20 ADD SWAP1 PUSH1 0x1 ADD SWAP1 DUP1 DUP4 GT PUSH2 0x108B JUMPI JUMPDEST POP POP POP POP POP SWAP1 POP DUP1 MLOAD DUP4 LT PUSH2 0x10E9 JUMPI PUSH1 0x40 MLOAD PUSH32 0x8C379A000000000000000000000000000000000000000000000000000000000 DUP2 MSTORE PUSH1 0x4 ADD PUSH2 0x10E0 SWAP1 PUSH2 0x25F5 JUMP JUMPDEST PUSH1 0x40 MLOAD DUP1 SWAP2 SUB SWAP1 REVERT JUMPDEST PUSH0 DUP2 DUP5 DUP2 MLOAD DUP2 LT PUSH2 0x10FD JUMPI PUSH2 0x10FC PUSH2 0x2613 JUMP JUMPDEST JUMPDEST PUSH1 0x20 MUL PUSH1 0x20 ADD ADD MLOAD SWAP1 POP PUSH0 PUSH1 0x9 DUP3 DUP2 SLOAD DUP2 LT PUSH2 0x111C JUMPI PUSH2 0x111B PUSH2 0x2613 JUMP JUMPDEST JUMPDEST SWAP1 PUSH0 MSTORE PUSH1 0x20 PUSH0 KECCAK256 SWAP1 PUSH1 0x7 MUL ADD PUSH1 0x40 MLOAD DUP1 PUSH1 0xE0 ADD PUSH1 0x40 MSTORE SWAP1 DUP2 PUSH0 DUP3 ADD PUSH0 SWAP1 SLOAD SWAP1 PUSH2 0x100 EXP SWAP1 DIV PUSH20 0xFFFFFFFFFFFFFFFFFFFFFFFFFFFFFFFFFFFFFFFF AND PUSH20 0xFFFFFFFFFFFFFFFFFFFFFFFFFFFFFFFFFFFFFFFF AND PUSH20 0xFFFFFFFFFFFFFFFFFFFFFFFFFFFFFFFFFFFFFFFF AND DUP2 MSTORE PUSH1 0x20 ADD PUSH1 0x1 DUP3 ADD SLOAD DUP2 MSTORE PUSH1 0x20 ADD PUSH1 0x2 DUP3 ADD SLOAD DUP2 MSTORE PUSH1 0x20 ADD PUSH1 0x3 DUP3 ADD SLOAD DUP2 MSTORE PUSH1 0x20 ADD PUSH1 0x4 DUP3 ADD SLOAD DUP2 MSTORE PUSH1 0x20 ADD PUSH1 0x5 DUP3 ADD PUSH0 SWAP1 SLOAD SWAP1 PUSH2 0x100 EXP SWAP1 DIV PUSH1 0xFF AND ISZERO ISZERO ISZERO ISZERO DUP2 MSTORE PUSH1 0x20 ADD PUSH1 0x6 DUP3 ADD SLOAD DUP2 MSTORE POP POP SWAP1 POP PUSH1 0x40 MLOAD DUP1 PUSH1 0xC0 ADD PUSH1 0x40 MSTORE DUP1 DUP3 PUSH0 ADD MLOAD PUSH20 0xFFFFFFFFFFFFFFFFFFFFFFFFFFFFFFFFFFFFFFFF AND DUP2 MSTORE PUSH1 0x20 ADD DUP3 PUSH1 0x20 ADD MLOAD DUP2 MSTORE PUSH1 0x20 ADD DUP3 PUSH1 0x40 ADD MLOAD DUP2 MSTORE PUSH1 0x20 ADD DUP3 PUSH1 0x60 ADD MLOAD DUP2 MSTORE PUSH1 0x20 ADD DUP3 PUSH1 0x80 ADD MLOAD DUP2 MSTORE PUSH1 0x20 ADD DUP3 PUSH1 0xA0 ADD MLOAD ISZERO ISZERO DUP2 MSTORE POP SWAP4 POP POP POP POP SWAP3 SWAP2 POP POP JUMP JUMPDEST PUSH0 PUSH20 0xFFFFFFFFFFFFFFFFFFFFFFFFFFFFFFFFFFFFFFFF AND PUSH1 0x6 PUSH0 SWAP1 SLOAD SWAP1 PUSH2 0x100 EXP SWAP1 DIV PUSH20 0xFFFFFFFFFFFFFFFFFFFFFFFFFFFFFFFFFFFFFFFF AND PUSH20 0xFFFFFFFFFFFFFFFFFFFFFFFFFFFFFFFFFFFFFFFF AND SUB PUSH2 0x12CB JUMPI PUSH1 0x40 MLOAD PUSH32 0x8C379A000000000000000000000000000000000000000000000000000000000 DUP2 MSTORE PUSH1 0x4 ADD PUSH2 0x12C2 SWAP1 PUSH2 0x2973 JUMP JUMPDEST PUSH1 0x40 MLOAD DUP1 SWAP2 SUB SWAP1 REVERT JUMPDEST PUSH0 DUP1 PUSH0 PUSH8 0xFFFFFFFFFFFFFFFF DUP2 GT ISZERO PUSH2 0x12E7 JUMPI PUSH2 0x12E6 PUSH2 0x2991 JUMP JUMPDEST JUMPDEST PUSH1 0x40 MLOAD SWAP1 DUP1 DUP3 MSTORE DUP1 PUSH1 0x1F ADD PUSH1 0x1F NOT AND PUSH1 0x20 ADD DUP3 ADD PUSH1 0x40 MSTORE DUP1 ISZERO PUSH2 0x1319 JUMPI DUP2 PUSH1 0x20 ADD PUSH1 0x1 DUP3 MUL DUP1 CALLDATASIZE DUP4 CALLDATACOPY DUP1 DUP3 ADD SWAP2 POP POP SWAP1 POP JUMPDEST POP SWAP1 POP PUSH0 JUMPDEST DUP4 DUP2 LT ISZERO PUSH2 0x147E JUMPI PUSH1 0x4 PUSH0 SWAP1 SLOAD SWAP1 PUSH2 0x100 EXP SWAP1 DIV PUSH20 0xFFFFFFFFFFFFFFFFFFFFFFFFFFFFFFFFFFFFFFFF AND PUSH20 0xFFFFFFFFFFFFFFFFFFFFFFFFFFFFFFFFFFFFFFFF AND PUSH4 0x2F745C59 CALLER DUP4 PUSH1 0x40 MLOAD DUP4 PUSH4 0xFFFFFFFF AND PUSH1 0xE0 SHL DUP2 MSTORE PUSH1 0x4 ADD PUSH2 0x1382 SWAP3 SWAP2 SWAP1 PUSH2 0x29BE JUMP JUMPDEST PUSH1 0x20 PUSH1 0x40 MLOAD DUP1 DUP4 SUB DUP2 DUP7 GAS STATICCALL ISZERO DUP1 ISZERO PUSH2 0x139D JUMPI RETURNDATASIZE PUSH0 DUP1 RETURNDATACOPY RETURNDATASIZE PUSH0 REVERT JUMPDEST POP POP POP POP PUSH1 0x40 MLOAD RETURNDATASIZE PUSH1 0x1F NOT PUSH1 0x1F DUP3 ADD AND DUP3 ADD DUP1 PUSH1 0x40 MSTORE POP DUP2 ADD SWAP1 PUSH2 0x13C1 SWAP2 SWAP1 PUSH2 0x29F9 JUMP JUMPDEST SWAP3 POP PUSH1 0x4 PUSH0 SWAP1 SLOAD SWAP1 PUSH2 0x100 EXP SWAP1 DIV PUSH20 0xFFFFFFFFFFFFFFFFFFFFFFFFFFFFFFFFFFFFFFFF AND PUSH20 0xFFFFFFFFFFFFFFFFFFFFFFFFFFFFFFFFFFFFFFFF AND PUSH4 0xB88D4FDE CALLER PUSH1 0x6 PUSH0 SWAP1 SLOAD SWAP1 PUSH2 0x100 EXP SWAP1 DIV PUSH20 0xFFFFFFFFFFFFFFFFFFFFFFFFFFFFFFFFFFFFFFFF AND DUP7 DUP7 PUSH1 0x40 MLOAD DUP6 PUSH4 0xFFFFFFFF AND PUSH1 0xE0 SHL DUP2 MSTORE PUSH1 0x4 ADD PUSH2 0x1444 SWAP5 SWAP4 SWAP3 SWAP2 SWAP1 PUSH2 0x2A94 JUMP JUMPDEST PUSH0 PUSH1 0x40 MLOAD DUP1 DUP4 SUB DUP2 PUSH0 DUP8 DUP1 EXTCODESIZE ISZERO DUP1 ISZERO PUSH2 0x145B JUMPI PUSH0 DUP1 REVERT JUMPDEST POP GAS CALL ISZERO DUP1 ISZERO PUSH2 0x146D JUMPI RETURNDATASIZE PUSH0 DUP1 RETURNDATACOPY RETURNDATASIZE PUSH0 REVERT JUMPDEST POP POP POP POP DUP1 DUP1 PUSH1 0x1 ADD SWAP2 POP POP PUSH2 0x131E JUMP JUMPDEST POP PUSH2 0x148A DUP4 PUSH1 0x1 PUSH2 0x1CD5 JUMP JUMPDEST POP POP POP JUMP JUMPDEST PUSH2 0x1497 PUSH2 0xBB9 JUMP JUMPDEST PUSH2 0x149F JUMPI PUSH0 DUP1 REVERT JUMPDEST PUSH2 0x14A8 DUP2 PUSH2 0x1EAD JUMP JUMPDEST POP JUMP JUMPDEST PUSH2 0x14B3 PUSH2 0xBB9 JUMP JUMPDEST PUSH2 0x14BB JUMPI PUSH0 DUP1 REVERT JUMPDEST DUP1 PUSH1 0x1 PUSH0 PUSH2 0x100 EXP DUP2 SLOAD DUP2 PUSH20 0xFFFFFFFFFFFFFFFFFFFFFFFFFFFFFFFFFFFFFFFF MUL NOT AND SWAP1 DUP4 PUSH20 0xFFFFFFFFFFFFFFFFFFFFFFFFFFFFFFFFFFFFFFFF AND MUL OR SWAP1 SSTORE POP DUP1 PUSH1 0x4 PUSH0 PUSH2 0x100 EXP DUP2 SLOAD DUP2 PUSH20 0xFFFFFFFFFFFFFFFFFFFFFFFFFFFFFFFFFFFFFFFF MUL NOT AND SWAP1 DUP4 PUSH20 0xFFFFFFFFFFFFFFFFFFFFFFFFFFFFFFFFFFFFFFFF AND MUL OR SWAP1 SSTORE POP POP JUMP JUMPDEST PUSH2 0x1546 PUSH2 0xBB9 JUMP JUMPDEST PUSH2 0x154E JUMPI PUSH0 DUP1 REVERT JUMPDEST DUP1 PUSH1 0x5 PUSH0 PUSH2 0x100 EXP DUP2 SLOAD DUP2 PUSH20 0xFFFFFFFFFFFFFFFFFFFFFFFFFFFFFFFFFFFFFFFF MUL NOT AND SWAP1 DUP4 PUSH20 0xFFFFFFFFFFFFFFFFFFFFFFFFFFFFFFFFFFFFFFFF AND MUL OR SWAP1 SSTORE POP POP JUMP JUMPDEST PUSH0 DUP3 PUSH1 0xC0 ADD MLOAD SWAP1 POP PUSH0 DUP1 PUSH1 0x8 PUSH0 CALLER PUSH20 0xFFFFFFFFFFFFFFFFFFFFFFFFFFFFFFFFFFFFFFFF AND PUSH20 0xFFFFFFFFFFFFFFFFFFFFFFFFFFFFFFFFFFFFFFFF AND DUP2 MSTORE PUSH1 0x20 ADD SWAP1 DUP2 MSTORE PUSH1 0x20 ADD PUSH0 KECCAK256 SWAP1 POP PUSH2 0x15E4 DUP2 DUP5 PUSH2 0x1F9F JUMP JUMPDEST ISZERO PUSH2 0x1630 JUMPI PUSH1 0x9 DUP2 DUP5 DUP2 SLOAD DUP2 LT PUSH2 0x15FE JUMPI PUSH2 0x15FD PUSH2 0x2613 JUMP JUMPDEST JUMPDEST SWAP1 PUSH0 MSTORE PUSH1 0x20 PUSH0 KECCAK256 ADD SLOAD DUP2 SLOAD DUP2 LT PUSH2 0x1618 JUMPI PUSH2 0x1617 PUSH2 0x2613 JUMP JUMPDEST JUMPDEST SWAP1 PUSH0 MSTORE PUSH1 0x20 PUSH0 KECCAK256 SWAP1 PUSH1 0x7 MUL ADD SWAP2 POP DUP3 DUP3 PUSH1 0x6 ADD DUP2 SWAP1 SSTORE POP JUMPDEST PUSH2 0x163B PUSH1 0x9 DUP6 PUSH2 0x202B JUMP JUMPDEST ISZERO PUSH2 0x16E8 JUMPI PUSH1 0x9 DUP5 DUP2 SLOAD DUP2 LT PUSH2 0x1654 JUMPI PUSH2 0x1653 PUSH2 0x2613 JUMP JUMPDEST JUMPDEST SWAP1 PUSH0 MSTORE PUSH1 0x20 PUSH0 KECCAK256 SWAP1 PUSH1 0x7 MUL ADD SWAP2 POP DUP2 PUSH1 0x6 ADD SLOAD SWAP3 POP DUP4 PUSH1 0x8 PUSH0 DUP5 PUSH0 ADD PUSH0 SWAP1 SLOAD SWAP1 PUSH2 0x100 EXP SWAP1 DIV PUSH20 0xFFFFFFFFFFFFFFFFFFFFFFFFFFFFFFFFFFFFFFFF AND PUSH20 0xFFFFFFFFFFFFFFFFFFFFFFFFFFFFFFFFFFFFFFFF AND PUSH20 0xFFFFFFFFFFFFFFFFFFFFFFFFFFFFFFFFFFFFFFFF AND DUP2 MSTORE PUSH1 0x20 ADD SWAP1 DUP2 MSTORE PUSH1 0x20 ADD PUSH0 KECCAK256 DUP5 DUP2 SLOAD DUP2 LT PUSH2 0x16DB JUMPI PUSH2 0x16DA PUSH2 0x2613 JUMP JUMPDEST JUMPDEST SWAP1 PUSH0 MSTORE PUSH1 0x20 PUSH0 KECCAK256 ADD DUP2 SWAP1 SSTORE POP JUMPDEST POP POP POP POP POP JUMP JUMPDEST PUSH0 DUP1 PUSH1 0x3 PUSH0 SWAP1 SLOAD SWAP1 PUSH2 0x100 EXP SWAP1 DIV PUSH20 0xFFFFFFFFFFFFFFFFFFFFFFFFFFFFFFFFFFFFFFFF AND PUSH20 0xFFFFFFFFFFFFFFFFFFFFFFFFFFFFFFFFFFFFFFFF AND PUSH4 0x70A08231 PUSH1 0x6 PUSH0 SWAP1 SLOAD SWAP1 PUSH2 0x100 EXP SWAP1 DIV PUSH20 0xFFFFFFFFFFFFFFFFFFFFFFFFFFFFFFFFFFFFFFFF AND PUSH1 0x40 MLOAD DUP3 PUSH4 0xFFFFFFFF AND PUSH1 0xE0 SHL DUP2 MSTORE PUSH1 0x4 ADD PUSH2 0x176C SWAP2 SWAP1 PUSH2 0x22B1 JUMP JUMPDEST PUSH1 0x20 PUSH1 0x40 MLOAD DUP1 DUP4 SUB DUP2 DUP7 GAS STATICCALL ISZERO DUP1 ISZERO PUSH2 0x1787 JUMPI RETURNDATASIZE PUSH0 DUP1 RETURNDATACOPY RETURNDATASIZE PUSH0 REVERT JUMPDEST POP POP POP POP PUSH1 0x40 MLOAD RETURNDATASIZE PUSH1 0x1F NOT PUSH1 0x1F DUP3 ADD AND DUP3 ADD DUP1 PUSH1 0x40 MSTORE POP DUP2 ADD SWAP1 PUSH2 0x17AB SWAP2 SWAP1 PUSH2 0x29F9 JUMP JUMPDEST SWAP1 POP PUSH0 PUSH1 0x4 PUSH0 SWAP1 SLOAD SWAP1 PUSH2 0x100 EXP SWAP1 DIV PUSH20 0xFFFFFFFFFFFFFFFFFFFFFFFFFFFFFFFFFFFFFFFF AND PUSH20 0xFFFFFFFFFFFFFFFFFFFFFFFFFFFFFFFFFFFFFFFF AND PUSH4 0x70A08231 PUSH1 0x6 PUSH0 SWAP1 SLOAD SWAP1 PUSH2 0x100 EXP SWAP1 DIV PUSH20 0xFFFFFFFFFFFFFFFFFFFFFFFFFFFFFFFFFFFFFFFF AND PUSH1 0x40 MLOAD DUP3 PUSH4 0xFFFFFFFF AND PUSH1 0xE0 SHL DUP2 MSTORE PUSH1 0x4 ADD PUSH2 0x1829 SWAP2 SWAP1 PUSH2 0x22B1 JUMP JUMPDEST PUSH1 0x20 PUSH1 0x40 MLOAD DUP1 DUP4 SUB DUP2 DUP7 GAS STATICCALL ISZERO DUP1 ISZERO PUSH2 0x1844 JUMPI RETURNDATASIZE PUSH0 DUP1 RETURNDATACOPY RETURNDATASIZE PUSH0 REVERT JUMPDEST POP POP POP POP PUSH1 0x40 MLOAD RETURNDATASIZE PUSH1 0x1F NOT PUSH1 0x1F DUP3 ADD AND DUP3 ADD DUP1 PUSH1 0x40 MSTORE POP DUP2 ADD SWAP1 PUSH2 0x1868 SWAP2 SWAP1 PUSH2 0x29F9 JUMP JUMPDEST SWAP1 POP PUSH0 DUP2 EQ PUSH2 0x1884 JUMPI DUP1 DUP3 PUSH2 0x187D SWAP2 SWAP1 PUSH2 0x26CD JUMP JUMPDEST PUSH1 0x7 DUP2 SWAP1 SSTORE POP JUMPDEST PUSH1 0x7 SLOAD SWAP3 POP POP POP SWAP1 JUMP JUMPDEST PUSH0 DUP1 PUSH2 0x2710 PUSH1 0x5 DUP5 PUSH2 0x18A0 SWAP2 SWAP1 PUSH2 0x27E6 JUMP JUMPDEST PUSH2 0x18AA SWAP2 SWAP1 PUSH2 0x26CD JUMP JUMPDEST SWAP1 POP PUSH0 PUSH1 0x5 DUP3 PUSH2 0x18BA SWAP2 SWAP1 PUSH2 0x26CD JUMP JUMPDEST SWAP1 POP PUSH0 DUP2 DUP4 PUSH2 0x18C9 SWAP2 SWAP1 PUSH2 0x2724 JUMP JUMPDEST SWAP1 POP PUSH0 PUSH1 0x3 PUSH0 SWAP1 SLOAD SWAP1 PUSH2 0x100 EXP SWAP1 DIV PUSH20 0xFFFFFFFFFFFFFFFFFFFFFFFFFFFFFFFFFFFFFFFF AND PUSH20 0xFFFFFFFFFFFFFFFFFFFFFFFFFFFFFFFFFFFFFFFF AND PUSH4 0xA9059CBB PUSH1 0x5 PUSH0 SWAP1 SLOAD SWAP1 PUSH2 0x100 EXP SWAP1 DIV PUSH20 0xFFFFFFFFFFFFFFFFFFFFFFFFFFFFFFFFFFFFFFFF AND DUP6 PUSH1 0x40 MLOAD DUP4 PUSH4 0xFFFFFFFF AND PUSH1 0xE0 SHL DUP2 MSTORE PUSH1 0x4 ADD PUSH2 0x1949 SWAP3 SWAP2 SWAP1 PUSH2 0x29BE JUMP JUMPDEST PUSH1 0x20 PUSH1 0x40 MLOAD DUP1 DUP4 SUB DUP2 PUSH0 DUP8 GAS CALL ISZERO DUP1 ISZERO PUSH2 0x1965 JUMPI RETURNDATASIZE PUSH0 DUP1 RETURNDATACOPY RETURNDATASIZE PUSH0 REVERT JUMPDEST POP POP POP POP PUSH1 0x40 MLOAD RETURNDATASIZE PUSH1 0x1F NOT PUSH1 0x1F DUP3 ADD AND DUP3 ADD DUP1 PUSH1 0x40 MSTORE POP DUP2 ADD SWAP1 PUSH2 0x1989 SWAP2 SWAP1 PUSH2 0x2870 JUMP JUMPDEST SWAP1 POP DUP1 PUSH2 0x1994 JUMPI PUSH0 DUP1 REVERT JUMPDEST PUSH1 0x3 PUSH0 SWAP1 SLOAD SWAP1 PUSH2 0x100 EXP SWAP1 DIV PUSH20 0xFFFFFFFFFFFFFFFFFFFFFFFFFFFFFFFFFFFFFFFF AND PUSH20 0xFFFFFFFFFFFFFFFFFFFFFFFFFFFFFFFFFFFFFFFF AND PUSH4 0xA9059CBB ADDRESS DUP5 PUSH1 0x40 MLOAD DUP4 PUSH4 0xFFFFFFFF AND PUSH1 0xE0 SHL DUP2 MSTORE PUSH1 0x4 ADD PUSH2 0x19F0 SWAP3 SWAP2 SWAP1 PUSH2 0x29BE JUMP JUMPDEST PUSH1 0x20 PUSH1 0x40 MLOAD DUP1 DUP4 SUB DUP2 PUSH0 DUP8 GAS CALL ISZERO DUP1 ISZERO PUSH2 0x1A0C JUMPI RETURNDATASIZE PUSH0 DUP1 RETURNDATACOPY RETURNDATASIZE PUSH0 REVERT JUMPDEST POP POP POP POP PUSH1 0x40 MLOAD RETURNDATASIZE PUSH1 0x1F NOT PUSH1 0x1F DUP3 ADD AND DUP3 ADD DUP1 PUSH1 0x40 MSTORE POP DUP2 ADD SWAP1 PUSH2 0x1A30 SWAP2 SWAP1 PUSH2 0x2870 JUMP JUMPDEST SWAP1 POP DUP1 PUSH2 0x1A3B JUMPI PUSH0 DUP1 REVERT JUMPDEST DUP2 PUSH1 0xA PUSH0 DUP3 DUP3 SLOAD PUSH2 0x1A4C SWAP2 SWAP1 PUSH2 0x266D JUMP JUMPDEST SWAP3 POP POP DUP2 SWAP1 SSTORE POP DUP4 SWAP5 POP POP POP POP POP SWAP2 SWAP1 POP JUMP JUMPDEST PUSH0 DUP1 PUSH2 0x1A69 PUSH2 0x2224 JUMP JUMPDEST PUSH0 PUSH1 0x9 DUP1 SLOAD SWAP1 POP SWAP1 POP JUMPDEST PUSH0 DUP2 GT DUP1 ISZERO PUSH2 0x1A80 JUMPI POP DUP4 ISZERO JUMPDEST ISZERO PUSH2 0x1BAE JUMPI PUSH1 0x1 DUP2 PUSH2 0x1A92 SWAP2 SWAP1 PUSH2 0x2724 JUMP JUMPDEST SWAP3 POP PUSH1 0x9 DUP4 DUP2 SLOAD DUP2 LT PUSH2 0x1AA8 JUMPI PUSH2 0x1AA7 PUSH2 0x2613 JUMP JUMPDEST JUMPDEST SWAP1 PUSH0 MSTORE PUSH1 0x20 PUSH0 KECCAK256 SWAP1 PUSH1 0x7 MUL ADD PUSH1 0x40 MLOAD DUP1 PUSH1 0xE0 ADD PUSH1 0x40 MSTORE SWAP1 DUP2 PUSH0 DUP3 ADD PUSH0 SWAP1 SLOAD SWAP1 PUSH2 0x100 EXP SWAP1 DIV PUSH20 0xFFFFFFFFFFFFFFFFFFFFFFFFFFFFFFFFFFFFFFFF AND PUSH20 0xFFFFFFFFFFFFFFFFFFFFFFFFFFFFFFFFFFFFFFFF AND PUSH20 0xFFFFFFFFFFFFFFFFFFFFFFFFFFFFFFFFFFFFFFFF AND DUP2 MSTORE PUSH1 0x20 ADD PUSH1 0x1 DUP3 ADD SLOAD DUP2 MSTORE PUSH1 0x20 ADD PUSH1 0x2 DUP3 ADD SLOAD DUP2 MSTORE PUSH1 0x20 ADD PUSH1 0x3 DUP3 ADD SLOAD DUP2 MSTORE PUSH1 0x20 ADD PUSH1 0x4 DUP3 ADD SLOAD DUP2 MSTORE PUSH1 0x20 ADD PUSH1 0x5 DUP3 ADD PUSH0 SWAP1 SLOAD SWAP1 PUSH2 0x100 EXP SWAP1 DIV PUSH1 0xFF AND ISZERO ISZERO ISZERO ISZERO DUP2 MSTORE PUSH1 0x20 ADD PUSH1 0x6 DUP3 ADD SLOAD DUP2 MSTORE POP POP SWAP2 POP DUP5 ISZERO DUP1 ISZERO PUSH2 0x1B72 JUMPI POP PUSH0 DUP3 PUSH1 0x80 ADD MLOAD GT JUMPDEST ISZERO PUSH2 0x1B80 JUMPI PUSH1 0x1 SWAP4 POP PUSH2 0x1B9B JUMP JUMPDEST DUP5 DUP1 ISZERO PUSH2 0x1B90 JUMPI POP PUSH0 DUP3 PUSH1 0x60 ADD MLOAD GT JUMPDEST ISZERO PUSH2 0x1B9A JUMPI PUSH1 0x1 SWAP4 POP JUMPDEST JUMPDEST DUP1 DUP1 PUSH2 0x1BA6 SWAP1 PUSH2 0x2757 JUMP JUMPDEST SWAP2 POP POP PUSH2 0x1A73 JUMP JUMPDEST POP POP SWAP2 POP SWAP2 JUMP JUMPDEST PUSH0 DUP1 DUP6 PUSH1 0x4 ADD SLOAD SWAP1 POP PUSH0 DUP5 DUP3 GT ISZERO PUSH2 0x1BCD JUMPI DUP5 PUSH2 0x1BCF JUMP JUMPDEST DUP2 JUMPDEST SWAP1 POP DUP1 DUP8 PUSH1 0x4 ADD PUSH0 DUP3 DUP3 SLOAD PUSH2 0x1BE4 SWAP2 SWAP1 PUSH2 0x2724 JUMP JUMPDEST SWAP3 POP POP DUP2 SWAP1 SSTORE POP DUP1 DUP6 PUSH2 0x1BF7 SWAP2 SWAP1 PUSH2 0x2724 JUMP JUMPDEST SWAP5 POP DUP4 DUP2 PUSH2 0x1C05 SWAP2 SWAP1 PUSH2 0x26CD JUMP JUMPDEST DUP8 PUSH1 0x3 ADD PUSH0 DUP3 DUP3 SLOAD PUSH2 0x1C17 SWAP2 SWAP1 PUSH2 0x266D JUMP JUMPDEST SWAP3 POP POP DUP2 SWAP1 SSTORE POP DUP1 DUP7 PUSH1 0x4 ADD PUSH0 DUP3 DUP3 SLOAD PUSH2 0x1C31 SWAP2 SWAP1 PUSH2 0x266D JUMP JUMPDEST SWAP3 POP POP DUP2 SWAP1 SSTORE POP DUP5 SWAP3 POP POP POP SWAP5 SWAP4 POP POP POP POP JUMP JUMPDEST PUSH0 DUP1 DUP4 DUP7 PUSH1 0x3 ADD SLOAD GT PUSH2 0x1C5E JUMPI DUP6 PUSH1 0x3 ADD SLOAD SWAP1 POP PUSH2 0x1C62 JUMP JUMPDEST DUP4 SWAP1 POP JUMPDEST DUP1 DUP7 PUSH1 0x3 ADD PUSH0 DUP3 DUP3 SLOAD PUSH2 0x1C75 SWAP2 SWAP1 PUSH2 0x2724 JUMP JUMPDEST SWAP3 POP POP DUP2 SWAP1 SSTORE POP DUP1 DUP5 PUSH2 0x1C88 SWAP2 SWAP1 PUSH2 0x2724 JUMP JUMPDEST SWAP4 POP DUP3 DUP2 PUSH2 0x1C96 SWAP2 SWAP1 PUSH2 0x27E6 JUMP JUMPDEST DUP7 PUSH1 0x4 ADD PUSH0 DUP3 DUP3 SLOAD PUSH2 0x1CA8 SWAP2 SWAP1 PUSH2 0x266D JUMP JUMPDEST SWAP3 POP POP DUP2 SWAP1 SSTORE POP DUP1 DUP6 PUSH1 0x3 ADD PUSH0 DUP3 DUP3 SLOAD PUSH2 0x1CC2 SWAP2 SWAP1 PUSH2 0x266D JUMP JUMPDEST SWAP3 POP POP DUP2 SWAP1 SSTORE POP DUP4 SWAP2 POP POP SWAP5 SWAP4 POP POP POP POP JUMP JUMPDEST PUSH0 PUSH1 0x8 PUSH0 CALLER PUSH20 0xFFFFFFFFFFFFFFFFFFFFFFFFFFFFFFFFFFFFFFFF AND PUSH20 0xFFFFFFFFFFFFFFFFFFFFFFFFFFFFFFFFFFFFFFFF AND DUP2 MSTORE PUSH1 0x20 ADD SWAP1 DUP2 MSTORE PUSH1 0x20 ADD PUSH0 KECCAK256 SWAP1 POP PUSH0 DUP2 DUP1 SLOAD SWAP1 POP SWAP1 POP PUSH0 DUP1 DUP5 ISZERO PUSH2 0x1D2D JUMPI DUP6 SWAP2 POP PUSH2 0x1D31 JUMP JUMPDEST DUP6 SWAP1 POP JUMPDEST PUSH0 PUSH1 0x40 MLOAD DUP1 PUSH1 0xE0 ADD PUSH1 0x40 MSTORE DUP1 CALLER PUSH20 0xFFFFFFFFFFFFFFFFFFFFFFFFFFFFFFFFFFFFFFFF AND DUP2 MSTORE PUSH1 0x20 ADD TIMESTAMP DUP2 MSTORE PUSH1 0x20 ADD PUSH1 0x7 SLOAD DUP2 MSTORE PUSH1 0x20 ADD DUP5 DUP2 MSTORE PUSH1 0x20 ADD DUP4 DUP2 MSTORE PUSH1 0x20 ADD PUSH0 ISZERO ISZERO DUP2 MSTORE PUSH1 0x20 ADD DUP7 DUP1 SLOAD SWAP1 POP DUP2 MSTORE POP SWAP1 POP DUP6 ISZERO PUSH2 0x1DA7 JUMPI PUSH1 0xD PUSH0 DUP2 SLOAD DUP1 SWAP3 SWAP2 SWAP1 PUSH2 0x1D9D SWAP1 PUSH2 0x2ADE JUMP JUMPDEST SWAP2 SWAP1 POP SSTORE POP PUSH2 0x1DBF JUMP JUMPDEST PUSH1 0xE PUSH0 DUP2 SLOAD DUP1 SWAP3 SWAP2 SWAP1 PUSH2 0x1DB9 SWAP1 PUSH2 0x2ADE JUMP JUMPDEST SWAP2 SWAP1 POP SSTORE POP JUMPDEST PUSH1 0x9 DUP2 SWAP1 DUP1 PUSH1 0x1 DUP2 SLOAD ADD DUP1 DUP3 SSTORE DUP1 SWAP2 POP POP PUSH1 0x1 SWAP1 SUB SWAP1 PUSH0 MSTORE PUSH1 0x20 PUSH0 KECCAK256 SWAP1 PUSH1 0x7 MUL ADD PUSH0 SWAP1 SWAP2 SWAP1 SWAP2 SWAP1 SWAP2 POP PUSH0 DUP3 ADD MLOAD DUP2 PUSH0 ADD PUSH0 PUSH2 0x100 EXP DUP2 SLOAD DUP2 PUSH20 0xFFFFFFFFFFFFFFFFFFFFFFFFFFFFFFFFFFFFFFFF MUL NOT AND SWAP1 DUP4 PUSH20 0xFFFFFFFFFFFFFFFFFFFFFFFFFFFFFFFFFFFFFFFF AND MUL OR SWAP1 SSTORE POP PUSH1 0x20 DUP3 ADD MLOAD DUP2 PUSH1 0x1 ADD SSTORE PUSH1 0x40 DUP3 ADD MLOAD DUP2 PUSH1 0x2 ADD SSTORE PUSH1 0x60 DUP3 ADD MLOAD DUP2 PUSH1 0x3 ADD SSTORE PUSH1 0x80 DUP3 ADD MLOAD DUP2 PUSH1 0x4 ADD SSTORE PUSH1 0xA0 DUP3 ADD MLOAD DUP2 PUSH1 0x5 ADD PUSH0 PUSH2 0x100 EXP DUP2 SLOAD DUP2 PUSH1 0xFF MUL NOT AND SWAP1 DUP4 ISZERO ISZERO MUL OR SWAP1 SSTORE POP PUSH1 0xC0 DUP3 ADD MLOAD DUP2 PUSH1 0x6 ADD SSTORE POP POP DUP5 DUP5 SWAP1 DUP1 PUSH1 0x1 DUP2 SLOAD ADD DUP1 DUP3 SSTORE DUP1 SWAP2 POP POP PUSH1 0x1 SWAP1 SUB SWAP1 PUSH0 MSTORE PUSH1 0x20 PUSH0 KECCAK256 ADD PUSH0 SWAP1 SWAP2 SWAP1 SWAP2 SWAP1 SWAP2 POP SSTORE POP POP POP POP POP POP POP JUMP JUMPDEST PUSH0 PUSH20 0xFFFFFFFFFFFFFFFFFFFFFFFFFFFFFFFFFFFFFFFF AND DUP2 PUSH20 0xFFFFFFFFFFFFFFFFFFFFFFFFFFFFFFFFFFFFFFFF AND SUB PUSH2 0x1EE4 JUMPI PUSH0 DUP1 REVERT JUMPDEST DUP1 PUSH20 0xFFFFFFFFFFFFFFFFFFFFFFFFFFFFFFFFFFFFFFFF AND PUSH0 DUP1 SLOAD SWAP1 PUSH2 0x100 EXP SWAP1 DIV PUSH20 0xFFFFFFFFFFFFFFFFFFFFFFFFFFFFFFFFFFFFFFFF AND PUSH20 0xFFFFFFFFFFFFFFFFFFFFFFFFFFFFFFFFFFFFFFFF AND PUSH32 0x8BE0079C531659141344CD1FD0A4F28419497F9722A3DAAFE3B4186F6B6457E0 PUSH1 0x40 MLOAD PUSH1 0x40 MLOAD DUP1 SWAP2 SUB SWAP1 LOG3 DUP1 PUSH0 DUP1 PUSH2 0x100 EXP DUP2 SLOAD DUP2 PUSH20 0xFFFFFFFFFFFFFFFFFFFFFFFFFFFFFFFFFFFFFFFF MUL NOT AND SWAP1 DUP4 PUSH20 0xFFFFFFFFFFFFFFFFFFFFFFFFFFFFFFFFFFFFFFFF AND MUL OR SWAP1 SSTORE POP POP JUMP JUMPDEST PUSH0 DUP1 PUSH1 0x1 DUP5 DUP1 SLOAD SWAP1 POP PUSH2 0x1FB2 SWAP2 SWAP1 PUSH2 0x2724 JUMP JUMPDEST SWAP1 POP PUSH0 DUP2 DUP5 EQ SWAP1 POP DUP1 PUSH2 0x1FFB JUMPI DUP5 DUP3 DUP2 SLOAD DUP2 LT PUSH2 0x1FD2 JUMPI PUSH2 0x1FD1 PUSH2 0x2613 JUMP JUMPDEST JUMPDEST SWAP1 PUSH0 MSTORE PUSH1 0x20 PUSH0 KECCAK256 ADD SLOAD DUP6 DUP6 DUP2 SLOAD DUP2 LT PUSH2 0x1FEE JUMPI PUSH2 0x1FED PUSH2 0x2613 JUMP JUMPDEST JUMPDEST SWAP1 PUSH0 MSTORE PUSH1 0x20 PUSH0 KECCAK256 ADD DUP2 SWAP1 SSTORE POP JUMPDEST DUP5 DUP1 SLOAD DUP1 PUSH2 0x200C JUMPI PUSH2 0x200B PUSH2 0x2B25 JUMP JUMPDEST JUMPDEST PUSH1 0x1 SWAP1 SUB DUP2 DUP2 SWAP1 PUSH0 MSTORE PUSH1 0x20 PUSH0 KECCAK256 ADD PUSH0 SWAP1 SSTORE SWAP1 SSTORE DUP1 ISZERO SWAP3 POP POP POP SWAP3 SWAP2 POP POP JUMP JUMPDEST PUSH0 DUP1 PUSH1 0x1 DUP5 DUP1 SLOAD SWAP1 POP PUSH2 0x203E SWAP2 SWAP1 PUSH2 0x2724 JUMP JUMPDEST SWAP1 POP PUSH0 DUP2 DUP5 EQ SWAP1 POP DUP1 PUSH2 0x214D JUMPI DUP5 DUP3 DUP2 SLOAD DUP2 LT PUSH2 0x205E JUMPI PUSH2 0x205D PUSH2 0x2613 JUMP JUMPDEST JUMPDEST SWAP1 PUSH0 MSTORE PUSH1 0x20 PUSH0 KECCAK256 SWAP1 PUSH1 0x7 MUL ADD DUP6 DUP6 DUP2 SLOAD DUP2 LT PUSH2 0x207D JUMPI PUSH2 0x207C PUSH2 0x2613 JUMP JUMPDEST JUMPDEST SWAP1 PUSH0 MSTORE PUSH1 0x20 PUSH0 KECCAK256 SWAP1 PUSH1 0x7 MUL ADD PUSH0 DUP3 ADD PUSH0 SWAP1 SLOAD SWAP1 PUSH2 0x100 EXP SWAP1 DIV PUSH20 0xFFFFFFFFFFFFFFFFFFFFFFFFFFFFFFFFFFFFFFFF AND DUP2 PUSH0 ADD PUSH0 PUSH2 0x100 EXP DUP2 SLOAD DUP2 PUSH20 0xFFFFFFFFFFFFFFFFFFFFFFFFFFFFFFFFFFFFFFFF MUL NOT AND SWAP1 DUP4 PUSH20 0xFFFFFFFFFFFFFFFFFFFFFFFFFFFFFFFFFFFFFFFF AND MUL OR SWAP1 SSTORE POP PUSH1 0x1 DUP3 ADD SLOAD DUP2 PUSH1 0x1 ADD SSTORE PUSH1 0x2 DUP3 ADD SLOAD DUP2 PUSH1 0x2 ADD SSTORE PUSH1 0x3 DUP3 ADD SLOAD DUP2 PUSH1 0x3 ADD SSTORE PUSH1 0x4 DUP3 ADD SLOAD DUP2 PUSH1 0x4 ADD SSTORE PUSH1 0x5 DUP3 ADD PUSH0 SWAP1 SLOAD SWAP1 PUSH2 0x100 EXP SWAP1 DIV PUSH1 0xFF AND DUP2 PUSH1 0x5 ADD PUSH0 PUSH2 0x100 EXP DUP2 SLOAD DUP2 PUSH1 0xFF MUL NOT AND SWAP1 DUP4 ISZERO ISZERO MUL OR SWAP1 SSTORE POP PUSH1 0x6 DUP3 ADD SLOAD DUP2 PUSH1 0x6 ADD SSTORE SWAP1 POP POP JUMPDEST DUP5 DUP1 SLOAD DUP1 PUSH2 0x215E JUMPI PUSH2 0x215D PUSH2 0x2B25 JUMP JUMPDEST JUMPDEST PUSH1 0x1 SWAP1 SUB DUP2 DUP2 SWAP1 PUSH0 MSTORE PUSH1 0x20 PUSH0 KECCAK256 SWAP1 PUSH1 0x7 MUL ADD PUSH0 DUP1 DUP3 ADD PUSH0 PUSH2 0x100 EXP DUP2 SLOAD SWAP1 PUSH20 0xFFFFFFFFFFFFFFFFFFFFFFFFFFFFFFFFFFFFFFFF MUL NOT AND SWAP1 SSTORE PUSH1 0x1 DUP3 ADD PUSH0 SWAP1 SSTORE PUSH1 0x2 DUP3 ADD PUSH0 SWAP1 SSTORE PUSH1 0x3 DUP3 ADD PUSH0 SWAP1 SSTORE PUSH1 0x4 DUP3 ADD PUSH0 SWAP1 SSTORE PUSH1 0x5 DUP3 ADD PUSH0 PUSH2 0x100 EXP DUP2 SLOAD SWAP1 PUSH1 0xFF MUL NOT AND SWAP1 SSTORE PUSH1 0x6 DUP3 ADD PUSH0 SWAP1 SSTORE POP POP SWAP1 SSTORE DUP1 ISZERO SWAP3 POP POP POP SWAP3 SWAP2 POP POP JUMP JUMPDEST PUSH1 0x40 MLOAD DUP1 PUSH1 0xC0 ADD PUSH1 0x40 MSTORE DUP1 PUSH0 PUSH20 0xFFFFFFFFFFFFFFFFFFFFFFFFFFFFFFFFFFFFFFFF AND DUP2 MSTORE PUSH1 0x20 ADD PUSH0 DUP2 MSTORE PUSH1 0x20 ADD PUSH0 DUP2 MSTORE PUSH1 0x20 ADD PUSH0 DUP2 MSTORE PUSH1 0x20 ADD PUSH0 DUP2 MSTORE PUSH1 0x20 ADD PUSH0 ISZERO ISZERO DUP2 MSTORE POP SWAP1 JUMP JUMPDEST PUSH1 0x40 MLOAD DUP1 PUSH1 0xE0 ADD PUSH1 0x40 MSTORE DUP1 PUSH0 PUSH20 0xFFFFFFFFFFFFFFFFFFFFFFFFFFFFFFFFFFFFFFFF AND DUP2 MSTORE PUSH1 0x20 ADD PUSH0 DUP2 MSTORE PUSH1 0x20 ADD PUSH0 DUP2 MSTORE PUSH1 0x20 ADD PUSH0 DUP2 MSTORE PUSH1 0x20 ADD PUSH0 DUP2 MSTORE PUSH1 0x20 ADD PUSH0 ISZERO ISZERO DUP2 MSTORE PUSH1 0x20 ADD PUSH0 DUP2 MSTORE POP SWAP1 JUMP JUMPDEST PUSH0 PUSH20 0xFFFFFFFFFFFFFFFFFFFFFFFFFFFFFFFFFFFFFFFF DUP3 AND SWAP1 POP SWAP2 SWAP1 POP JUMP JUMPDEST PUSH0 PUSH2 0x229B DUP3 PUSH2 0x2272 JUMP JUMPDEST SWAP1 POP SWAP2 SWAP1 POP JUMP JUMPDEST PUSH2 0x22AB DUP2 PUSH2 0x2291 JUMP JUMPDEST DUP3 MSTORE POP POP JUMP JUMPDEST PUSH0 PUSH1 0x20 DUP3 ADD SWAP1 POP PUSH2 0x22C4 PUSH0 DUP4 ADD DUP5 PUSH2 0x22A2 JUMP JUMPDEST SWAP3 SWAP2 POP POP JUMP JUMPDEST PUSH0 DUP1 REVERT JUMPDEST PUSH0 DUP2 SWAP1 POP SWAP2 SWAP1 POP JUMP JUMPDEST PUSH2 0x22E0 DUP2 PUSH2 0x22CE JUMP JUMPDEST DUP2 EQ PUSH2 0x22EA JUMPI PUSH0 DUP1 REVERT JUMPDEST POP JUMP JUMPDEST PUSH0 DUP2 CALLDATALOAD SWAP1 POP PUSH2 0x22FB DUP2 PUSH2 0x22D7 JUMP JUMPDEST SWAP3 SWAP2 POP POP JUMP JUMPDEST PUSH0 PUSH1 0x20 DUP3 DUP5 SUB SLT ISZERO PUSH2 0x2316 JUMPI PUSH2 0x2315 PUSH2 0x22CA JUMP JUMPDEST JUMPDEST PUSH0 PUSH2 0x2323 DUP5 DUP3 DUP6 ADD PUSH2 0x22ED JUMP JUMPDEST SWAP2 POP POP SWAP3 SWAP2 POP POP JUMP JUMPDEST PUSH2 0x2335 DUP2 PUSH2 0x22CE JUMP JUMPDEST DUP3 MSTORE POP POP JUMP JUMPDEST PUSH0 PUSH1 0x20 DUP3 ADD SWAP1 POP PUSH2 0x234E PUSH0 DUP4 ADD DUP5 PUSH2 0x232C JUMP JUMPDEST SWAP3 SWAP2 POP POP JUMP JUMPDEST PUSH2 0x235D DUP2 PUSH2 0x2291 JUMP JUMPDEST DUP2 EQ PUSH2 0x2367 JUMPI PUSH0 DUP1 REVERT JUMPDEST POP JUMP JUMPDEST PUSH0 DUP2 CALLDATALOAD SWAP1 POP PUSH2 0x2378 DUP2 PUSH2 0x2354 JUMP JUMPDEST SWAP3 SWAP2 POP POP JUMP JUMPDEST PUSH0 PUSH1 0x20 DUP3 DUP5 SUB SLT ISZERO PUSH2 0x2393 JUMPI PUSH2 0x2392 PUSH2 0x22CA JUMP JUMPDEST JUMPDEST PUSH0 PUSH2 0x23A0 DUP5 DUP3 DUP6 ADD PUSH2 0x236A JUMP JUMPDEST SWAP2 POP POP SWAP3 SWAP2 POP POP JUMP JUMPDEST PUSH2 0x23B2 DUP2 PUSH2 0x2291 JUMP JUMPDEST DUP3 MSTORE POP POP JUMP JUMPDEST PUSH2 0x23C1 DUP2 PUSH2 0x22CE JUMP JUMPDEST DUP3 MSTORE POP POP JUMP JUMPDEST PUSH0 DUP2 ISZERO ISZERO SWAP1 POP SWAP2 SWAP1 POP JUMP JUMPDEST PUSH2 0x23DB DUP2 PUSH2 0x23C7 JUMP JUMPDEST DUP3 MSTORE POP POP JUMP JUMPDEST PUSH1 0xC0 DUP3 ADD PUSH0 DUP3 ADD MLOAD PUSH2 0x23F5 PUSH0 DUP6 ADD DUP3 PUSH2 0x23A9 JUMP JUMPDEST POP PUSH1 0x20 DUP3 ADD MLOAD PUSH2 0x2408 PUSH1 0x20 DUP6 ADD DUP3 PUSH2 0x23B8 JUMP JUMPDEST POP PUSH1 0x40 DUP3 ADD MLOAD PUSH2 0x241B PUSH1 0x40 DUP6 ADD DUP3 PUSH2 0x23B8 JUMP JUMPDEST POP PUSH1 0x60 DUP3 ADD MLOAD PUSH2 0x242E PUSH1 0x60 DUP6 ADD DUP3 PUSH2 0x23B8 JUMP JUMPDEST POP PUSH1 0x80 DUP3 ADD MLOAD PUSH2 0x2441 PUSH1 0x80 DUP6 ADD DUP3 PUSH2 0x23B8 JUMP JUMPDEST POP PUSH1 0xA0 DUP3 ADD MLOAD PUSH2 0x2454 PUSH1 0xA0 DUP6 ADD DUP3 PUSH2 0x23D2 JUMP JUMPDEST POP POP POP POP JUMP JUMPDEST PUSH0 PUSH1 0xC0 DUP3 ADD SWAP1 POP PUSH2 0x246D PUSH0 DUP4 ADD DUP5 PUSH2 0x23E1 JUMP JUMPDEST SWAP3 SWAP2 POP POP JUMP JUMPDEST PUSH2 0x247C DUP2 PUSH2 0x23C7 JUMP JUMPDEST DUP2 EQ PUSH2 0x2486 JUMPI PUSH0 DUP1 REVERT JUMPDEST POP JUMP JUMPDEST PUSH0 DUP2 CALLDATALOAD SWAP1 POP PUSH2 0x2497 DUP2 PUSH2 0x2473 JUMP JUMPDEST SWAP3 SWAP2 POP POP JUMP JUMPDEST PUSH0 PUSH1 0x20 DUP3 DUP5 SUB SLT ISZERO PUSH2 0x24B2 JUMPI PUSH2 0x24B1 PUSH2 0x22CA JUMP JUMPDEST JUMPDEST PUSH0 PUSH2 0x24BF DUP5 DUP3 DUP6 ADD PUSH2 0x2489 JUMP JUMPDEST SWAP2 POP POP SWAP3 SWAP2 POP POP JUMP JUMPDEST PUSH2 0x24D1 DUP2 PUSH2 0x23C7 JUMP JUMPDEST DUP3 MSTORE POP POP JUMP JUMPDEST PUSH0 PUSH1 0x20 DUP3 ADD SWAP1 POP PUSH2 0x24EA PUSH0 DUP4 ADD DUP5 PUSH2 0x24C8 JUMP JUMPDEST SWAP3 SWAP2 POP POP JUMP JUMPDEST PUSH0 PUSH1 0xE0 DUP3 ADD SWAP1 POP PUSH2 0x2503 PUSH0 DUP4 ADD DUP11 PUSH2 0x22A2 JUMP JUMPDEST PUSH2 0x2510 PUSH1 0x20 DUP4 ADD DUP10 PUSH2 0x232C JUMP JUMPDEST PUSH2 0x251D PUSH1 0x40 DUP4 ADD DUP9 PUSH2 0x232C JUMP JUMPDEST PUSH2 0x252A PUSH1 0x60 DUP4 ADD DUP8 PUSH2 0x232C JUMP JUMPDEST PUSH2 0x2537 PUSH1 0x80 DUP4 ADD DUP7 PUSH2 0x232C JUMP JUMPDEST PUSH2 0x2544 PUSH1 0xA0 DUP4 ADD DUP6 PUSH2 0x24C8 JUMP JUMPDEST PUSH2 0x2551 PUSH1 0xC0 DUP4 ADD DUP5 PUSH2 0x232C JUMP JUMPDEST SWAP9 SWAP8 POP POP POP POP POP POP POP POP JUMP JUMPDEST PUSH0 DUP1 PUSH1 0x40 DUP4 DUP6 SUB SLT ISZERO PUSH2 0x2573 JUMPI PUSH2 0x2572 PUSH2 0x22CA JUMP JUMPDEST JUMPDEST PUSH0 PUSH2 0x2580 DUP6 DUP3 DUP7 ADD PUSH2 0x236A JUMP JUMPDEST SWAP3 POP POP PUSH1 0x20 PUSH2 0x2591 DUP6 DUP3 DUP7 ADD PUSH2 0x22ED JUMP JUMPDEST SWAP2 POP POP SWAP3 POP SWAP3 SWAP1 POP JUMP JUMPDEST PUSH0 DUP3 DUP3 MSTORE PUSH1 0x20 DUP3 ADD SWAP1 POP SWAP3 SWAP2 POP POP JUMP JUMPDEST PUSH32 0x496E646578206F7574206F662072616E67650000000000000000000000000000 PUSH0 DUP3 ADD MSTORE POP JUMP JUMPDEST PUSH0 PUSH2 0x25DF PUSH1 0x12 DUP4 PUSH2 0x259B JUMP JUMPDEST SWAP2 POP PUSH2 0x25EA DUP3 PUSH2 0x25AB JUMP JUMPDEST PUSH1 0x20 DUP3 ADD SWAP1 POP SWAP2 SWAP1 POP JUMP JUMPDEST PUSH0 PUSH1 0x20 DUP3 ADD SWAP1 POP DUP2 DUP2 SUB PUSH0 DUP4 ADD MSTORE PUSH2 0x260C DUP2 PUSH2 0x25D3 JUMP JUMPDEST SWAP1 POP SWAP2 SWAP1 POP JUMP JUMPDEST PUSH32 0x4E487B7100000000000000000000000000000000000000000000000000000000 PUSH0 MSTORE PUSH1 0x32 PUSH1 0x4 MSTORE PUSH1 0x24 PUSH0 REVERT JUMPDEST PUSH32 0x4E487B7100000000000000000000000000000000000000000000000000000000 PUSH0 MSTORE PUSH1 0x11 PUSH1 0x4 MSTORE PUSH1 0x24 PUSH0 REVERT JUMPDEST PUSH0 PUSH2 0x2677 DUP3 PUSH2 0x22CE JUMP JUMPDEST SWAP2 POP PUSH2 0x2682 DUP4 PUSH2 0x22CE JUMP JUMPDEST SWAP3 POP DUP3 DUP3 ADD SWAP1 POP DUP1 DUP3 GT ISZERO PUSH2 0x269A JUMPI PUSH2 0x2699 PUSH2 0x2640 JUMP JUMPDEST JUMPDEST SWAP3 SWAP2 POP POP JUMP JUMPDEST PUSH32 0x4E487B7100000000000000000000000000000000000000000000000000000000 PUSH0 MSTORE PUSH1 0x12 PUSH1 0x4 MSTORE PUSH1 0x24 PUSH0 REVERT JUMPDEST PUSH0 PUSH2 0x26D7 DUP3 PUSH2 0x22CE JUMP JUMPDEST SWAP2 POP PUSH2 0x26E2 DUP4 PUSH2 0x22CE JUMP JUMPDEST SWAP3 POP DUP3 PUSH2 0x26F2 JUMPI PUSH2 0x26F1 PUSH2 0x26A0 JUMP JUMPDEST JUMPDEST DUP3 DUP3 DIV SWAP1 POP SWAP3 SWAP2 POP POP JUMP JUMPDEST PUSH0 PUSH1 0x40 DUP3 ADD SWAP1 POP PUSH2 0x2710 PUSH0 DUP4 ADD DUP6 PUSH2 0x232C JUMP JUMPDEST PUSH2 0x271D PUSH1 0x20 DUP4 ADD DUP5 PUSH2 0x22A2 JUMP JUMPDEST SWAP4 SWAP3 POP POP POP JUMP JUMPDEST PUSH0 PUSH2 0x272E DUP3 PUSH2 0x22CE JUMP JUMPDEST SWAP2 POP PUSH2 0x2739 DUP4 PUSH2 0x22CE JUMP JUMPDEST SWAP3 POP DUP3 DUP3 SUB SWAP1 POP DUP2 DUP2 GT ISZERO PUSH2 0x2751 JUMPI PUSH2 0x2750 PUSH2 0x2640 JUMP JUMPDEST JUMPDEST SWAP3 SWAP2 POP POP JUMP JUMPDEST PUSH0 PUSH2 0x2761 DUP3 PUSH2 0x22CE JUMP JUMPDEST SWAP2 POP PUSH0 DUP3 SUB PUSH2 0x2773 JUMPI PUSH2 0x2772 PUSH2 0x2640 JUMP JUMPDEST JUMPDEST PUSH1 0x1 DUP3 SUB SWAP1 POP SWAP2 SWAP1 POP JUMP JUMPDEST PUSH32 0x496E73756666696369656E74206C697175696469747900000000000000000000 PUSH0 DUP3 ADD MSTORE POP JUMP JUMPDEST PUSH0 PUSH2 0x27B2 PUSH1 0x16 DUP4 PUSH2 0x259B JUMP JUMPDEST SWAP2 POP PUSH2 0x27BD DUP3 PUSH2 0x277E JUMP JUMPDEST PUSH1 0x20 DUP3 ADD SWAP1 POP SWAP2 SWAP1 POP JUMP JUMPDEST PUSH0 PUSH1 0x20 DUP3 ADD SWAP1 POP DUP2 DUP2 SUB PUSH0 DUP4 ADD MSTORE PUSH2 0x27DF DUP2 PUSH2 0x27A6 JUMP JUMPDEST SWAP1 POP SWAP2 SWAP1 POP JUMP JUMPDEST PUSH0 PUSH2 0x27F0 DUP3 PUSH2 0x22CE JUMP JUMPDEST SWAP2 POP PUSH2 0x27FB DUP4 PUSH2 0x22CE JUMP JUMPDEST SWAP3 POP DUP3 DUP3 MUL PUSH2 0x2809 DUP2 PUSH2 0x22CE JUMP JUMPDEST SWAP2 POP DUP3 DUP3 DIV DUP5 EQ DUP4 ISZERO OR PUSH2 0x2820 JUMPI PUSH2 0x281F PUSH2 0x2640 JUMP JUMPDEST JUMPDEST POP SWAP3 SWAP2 POP POP JUMP JUMPDEST PUSH0 PUSH1 0x60 DUP3 ADD SWAP1 POP PUSH2 0x283A PUSH0 DUP4 ADD DUP7 PUSH2 0x22A2 JUMP JUMPDEST PUSH2 0x2847 PUSH1 0x20 DUP4 ADD DUP6 PUSH2 0x22A2 JUMP JUMPDEST PUSH2 0x2854 PUSH1 0x40 DUP4 ADD DUP5 PUSH2 0x232C JUMP JUMPDEST SWAP5 SWAP4 POP POP POP POP JUMP JUMPDEST PUSH0 DUP2 MLOAD SWAP1 POP PUSH2 0x286A DUP2 PUSH2 0x2473 JUMP JUMPDEST SWAP3 SWAP2 POP POP JUMP JUMPDEST PUSH0 PUSH1 0x20 DUP3 DUP5 SUB SLT ISZERO PUSH2 0x2885 JUMPI PUSH2 0x2884 PUSH2 0x22CA JUMP JUMPDEST JUMPDEST PUSH0 PUSH2 0x2892 DUP5 DUP3 DUP6 ADD PUSH2 0x285C JUMP JUMPDEST SWAP2 POP POP SWAP3 SWAP2 POP POP JUMP JUMPDEST PUSH32 0x5472616E73666572206661696C65640000000000000000000000000000000000 PUSH0 DUP3 ADD MSTORE POP JUMP JUMPDEST PUSH0 PUSH2 0x28CF PUSH1 0xF DUP4 PUSH2 0x259B JUMP JUMPDEST SWAP2 POP PUSH2 0x28DA DUP3 PUSH2 0x289B JUMP JUMPDEST PUSH1 0x20 DUP3 ADD SWAP1 POP SWAP2 SWAP1 POP JUMP JUMPDEST PUSH0 PUSH1 0x20 DUP3 ADD SWAP1 POP DUP2 DUP2 SUB PUSH0 DUP4 ADD MSTORE PUSH2 0x28FC DUP2 PUSH2 0x28C3 JUMP JUMPDEST SWAP1 POP SWAP2 SWAP1 POP JUMP JUMPDEST PUSH32 0x4C697175696469747920616464726573732069732079657420746F2062652061 PUSH0 DUP3 ADD MSTORE PUSH32 0x737369676E656400000000000000000000000000000000000000000000000000 PUSH1 0x20 DUP3 ADD MSTORE POP JUMP JUMPDEST PUSH0 PUSH2 0x295D PUSH1 0x27 DUP4 PUSH2 0x259B JUMP JUMPDEST SWAP2 POP PUSH2 0x2968 DUP3 PUSH2 0x2903 JUMP JUMPDEST PUSH1 0x40 DUP3 ADD SWAP1 POP SWAP2 SWAP1 POP JUMP JUMPDEST PUSH0 PUSH1 0x20 DUP3 ADD SWAP1 POP DUP2 DUP2 SUB PUSH0 DUP4 ADD MSTORE PUSH2 0x298A DUP2 PUSH2 0x2951 JUMP JUMPDEST SWAP1 POP SWAP2 SWAP1 POP JUMP JUMPDEST PUSH32 0x4E487B7100000000000000000000000000000000000000000000000000000000 PUSH0 MSTORE PUSH1 0x41 PUSH1 0x4 MSTORE PUSH1 0x24 PUSH0 REVERT JUMPDEST PUSH0 PUSH1 0x40 DUP3 ADD SWAP1 POP PUSH2 0x29D1 PUSH0 DUP4 ADD DUP6 PUSH2 0x22A2 JUMP JUMPDEST PUSH2 0x29DE PUSH1 0x20 DUP4 ADD DUP5 PUSH2 0x232C JUMP JUMPDEST SWAP4 SWAP3 POP POP POP JUMP JUMPDEST PUSH0 DUP2 MLOAD SWAP1 POP PUSH2 0x29F3 DUP2 PUSH2 0x22D7 JUMP JUMPDEST SWAP3 SWAP2 POP POP JUMP JUMPDEST PUSH0 PUSH1 0x20 DUP3 DUP5 SUB SLT ISZERO PUSH2 0x2A0E JUMPI PUSH2 0x2A0D PUSH2 0x22CA JUMP JUMPDEST JUMPDEST PUSH0 PUSH2 0x2A1B DUP5 DUP3 DUP6 ADD PUSH2 0x29E5 JUMP JUMPDEST SWAP2 POP POP SWAP3 SWAP2 POP POP JUMP JUMPDEST PUSH0 DUP2 MLOAD SWAP1 POP SWAP2 SWAP1 POP JUMP JUMPDEST PUSH0 DUP3 DUP3 MSTORE PUSH1 0x20 DUP3 ADD SWAP1 POP SWAP3 SWAP2 POP POP JUMP JUMPDEST DUP3 DUP2 DUP4 MCOPY PUSH0 DUP4 DUP4 ADD MSTORE POP POP POP JUMP JUMPDEST PUSH0 PUSH1 0x1F NOT PUSH1 0x1F DUP4 ADD AND SWAP1 POP SWAP2 SWAP1 POP JUMP JUMPDEST PUSH0 PUSH2 0x2A66 DUP3 PUSH2 0x2A24 JUMP JUMPDEST PUSH2 0x2A70 DUP2 DUP6 PUSH2 0x2A2E JUMP JUMPDEST SWAP4 POP PUSH2 0x2A80 DUP2 DUP6 PUSH1 0x20 DUP7 ADD PUSH2 0x2A3E JUMP JUMPDEST PUSH2 0x2A89 DUP2 PUSH2 0x2A4C JUMP JUMPDEST DUP5 ADD SWAP2 POP POP SWAP3 SWAP2 POP POP JUMP JUMPDEST PUSH0 PUSH1 0x80 DUP3 ADD SWAP1 POP PUSH2 0x2AA7 PUSH0 DUP4 ADD DUP8 PUSH2 0x22A2 JUMP JUMPDEST PUSH2 0x2AB4 PUSH1 0x20 DUP4 ADD DUP7 PUSH2 0x22A2 JUMP JUMPDEST PUSH2 0x2AC1 PUSH1 0x40 DUP4 ADD DUP6 PUSH2 0x232C JUMP JUMPDEST DUP2 DUP2 SUB PUSH1 0x60 DUP4 ADD MSTORE PUSH2 0x2AD3 DUP2 DUP5 PUSH2 0x2A5C JUMP JUMPDEST SWAP1 POP SWAP6 SWAP5 POP POP POP POP POP JUMP JUMPDEST PUSH0 PUSH2 0x2AE8 DUP3 PUSH2 0x22CE JUMP JUMPDEST SWAP2 POP PUSH32 0xFFFFFFFFFFFFFFFFFFFFFFFFFFFFFFFFFFFFFFFFFFFFFFFFFFFFFFFFFFFFFFFF DUP3 SUB PUSH2 0x2B1A JUMPI PUSH2 0x2B19 PUSH2 0x2640 JUMP JUMPDEST JUMPDEST PUSH1 0x1 DUP3 ADD SWAP1 POP SWAP2 SWAP1 POP JUMP JUMPDEST PUSH32 0x4E487B7100000000000000000000000000000000000000000000000000000000 PUSH0 MSTORE PUSH1 0x31 PUSH1 0x4 MSTORE PUSH1 0x24 PUSH0 REVERT INVALID LOG2 PUSH5 0x6970667358 0x22 SLT KECCAK256 DUP5 0xD3 LOG4 SWAP5 0xE1 0xE2 REVERT GASPRICE ADDMOD 0xBF SWAP9 0xD6 NUMBER SWAP1 0xD SWAP3 SAR SWAP1 0x4F JUMPI MSTORE 0xC5 0xD0 CODECOPY SWAP7 LOG3 0x4B MSTORE BLOCKHASH BALANCE 0xDB CALLDATACOPY PUSH5 0x736F6C6343 STOP ADDMOD NOT STOP CALLER "
		},
		"gasEstimates": {
			"creation": {
				"codeDepositCost": "2228800",
				"executionCost": "50910",
				"totalCost": "2279710"
			},
			"external": {
				"FFT()": "2532",
				"NFT()": "2597",
				"_collector()": "2531",
				"_fees()": "2536",
				"_liquidities(uint256)": "infinite",
				"_liquidity()": "2554",
				"_price()": "2493",
				"depositFFT(uint256)": "infinite",
				"depositNFT(uint256)": "infinite",
				"fftLiquidity()": "2537",
				"getLiquidityCount(bool)": "2775",
				"getPrice()": "infinite",
				"isOwner()": "2535",
				"nftLiquidity()": "2515",
				"owner()": "2626",
				"queryLiquid(uint256)": "infinite",
				"queryLiquidbyDepositor(address,uint256)": "infinite",
				"renounceOwnership()": "29971",
				"setCollector(address)": "27028",
				"setFFT(address)": "51317",
				"setLiquidity(address)": "infinite",
				"setNFT(address)": "51272",
				"swapFFT(uint256)": "infinite",
				"swapNFT(uint256)": "infinite",
				"transferOwnership(address)": "30724",
				"withdrawLiquidity(uint256)": "infinite"
			},
			"internal": {
				"_createLiquid(uint256,bool)": "infinite",
				"_deductFee(uint256)": "infinite",
				"_findSuitableLiquid(bool)": "infinite",
				"_removeItem(struct HotswapControllerBase.Liquid storage ref[] storage pointer,uint256)": "infinite",
				"_removeItem(uint256[] storage pointer,uint256)": "infinite",
				"_removeLiquidity(struct HotswapControllerBase.Liquid memory,uint256)": "infinite",
				"_swapFFTLiquid(struct HotswapControllerBase.Liquid storage pointer,struct HotswapControllerBase.Liquid storage pointer,uint256,uint256)": "infinite",
				"_swapNFTLiquid(struct HotswapControllerBase.Liquid storage pointer,struct HotswapControllerBase.Liquid storage pointer,uint256,uint256)": "infinite"
			}
		},
		"methodIdentifiers": {
			"FFT()": "04bb60ce",
			"NFT()": "7c0b8de2",
			"_collector()": "8e991592",
			"_fees()": "d212a69a",
			"_liquidities(uint256)": "c80f4e35",
			"_liquidity()": "491d0a56",
			"_price()": "235b6ea1",
			"depositFFT(uint256)": "dd81b5ae",
			"depositNFT(uint256)": "e91a7ca6",
			"fftLiquidity()": "3bd11f57",
			"getLiquidityCount(bool)": "6cc62992",
			"getPrice()": "98d5fdca",
			"isOwner()": "8f32d59b",
			"nftLiquidity()": "678660fb",
			"owner()": "8da5cb5b",
			"queryLiquid(uint256)": "41796a17",
			"queryLiquidbyDepositor(address,uint256)": "e53442f0",
			"renounceOwnership()": "715018a6",
			"setCollector(address)": "fb5b82d0",
			"setFFT(address)": "db9fcd01",
			"setLiquidity(address)": "36171e0e",
			"setNFT(address)": "f56e9c66",
			"swapFFT(uint256)": "4e36245d",
			"swapNFT(uint256)": "dcc9606f",
			"transferOwnership(address)": "f2fde38b",
			"withdrawLiquidity(uint256)": "0a861f2a"
		}
	},
	"abi": [
		{
			"anonymous": false,
			"inputs": [
				{
					"indexed": false,
					"internalType": "address",
					"name": "controllor",
					"type": "address"
				},
				{
					"indexed": false,
					"internalType": "address",
					"name": "liquidity",
					"type": "address"
				}
			],
			"name": "HotswapDeployed",
			"type": "event"
		},
		{
			"anonymous": false,
			"inputs": [
				{
					"indexed": false,
					"internalType": "uint256",
					"name": "amount",
					"type": "uint256"
				},
				{
					"indexed": false,
					"internalType": "address",
					"name": "targetAddr",
					"type": "address"
				}
			],
			"name": "NativeTransferred",
			"type": "event"
		},
		{
			"anonymous": false,
			"inputs": [
				{
					"indexed": true,
					"internalType": "address",
					"name": "previousOwner",
					"type": "address"
				}
			],
			"name": "OwnershipRenounced",
			"type": "event"
		},
		{
			"anonymous": false,
			"inputs": [
				{
					"indexed": true,
					"internalType": "address",
					"name": "previousOwner",
					"type": "address"
				},
				{
					"indexed": true,
					"internalType": "address",
					"name": "newOwner",
					"type": "address"
				}
			],
			"name": "OwnershipTransferred",
			"type": "event"
		},
		{
			"inputs": [],
			"name": "FFT",
			"outputs": [
				{
					"internalType": "address",
					"name": "",
					"type": "address"
				}
			],
			"stateMutability": "view",
			"type": "function"
		},
		{
			"inputs": [],
			"name": "NFT",
			"outputs": [
				{
					"internalType": "address",
					"name": "",
					"type": "address"
				}
			],
			"stateMutability": "view",
			"type": "function"
		},
		{
			"inputs": [],
			"name": "_collector",
			"outputs": [
				{
					"internalType": "address",
					"name": "",
					"type": "address"
				}
			],
			"stateMutability": "view",
			"type": "function"
		},
		{
			"inputs": [],
			"name": "_fees",
			"outputs": [
				{
					"internalType": "uint256",
					"name": "",
					"type": "uint256"
				}
			],
			"stateMutability": "view",
			"type": "function"
		},
		{
			"inputs": [
				{
					"internalType": "uint256",
					"name": "",
					"type": "uint256"
				}
			],
			"name": "_liquidities",
			"outputs": [
				{
					"internalType": "address",
					"name": "depositor",
					"type": "address"
				},
				{
					"internalType": "uint256",
					"name": "depositedAt",
					"type": "uint256"
				},
				{
					"internalType": "uint256",
					"name": "price",
					"type": "uint256"
				},
				{
					"internalType": "uint256",
					"name": "nftAlloc",
					"type": "uint256"
				},
				{
					"internalType": "uint256",
					"name": "fftAlloc",
					"type": "uint256"
				},
				{
					"internalType": "bool",
					"name": "claimed",
					"type": "bool"
				},
				{
					"internalType": "uint256",
					"name": "userIndex",
					"type": "uint256"
				}
			],
			"stateMutability": "view",
			"type": "function"
		},
		{
			"inputs": [],
			"name": "_liquidity",
			"outputs": [
				{
					"internalType": "address",
					"name": "",
					"type": "address"
				}
			],
			"stateMutability": "view",
			"type": "function"
		},
		{
			"inputs": [],
			"name": "_price",
			"outputs": [
				{
					"internalType": "uint256",
					"name": "",
					"type": "uint256"
				}
			],
			"stateMutability": "view",
			"type": "function"
		},
		{
			"inputs": [
				{
					"internalType": "uint256",
					"name": "amount",
					"type": "uint256"
				}
			],
			"name": "depositFFT",
			"outputs": [],
			"stateMutability": "nonpayable",
			"type": "function"
		},
		{
			"inputs": [
				{
					"internalType": "uint256",
					"name": "amount",
					"type": "uint256"
				}
			],
			"name": "depositNFT",
			"outputs": [],
			"stateMutability": "nonpayable",
			"type": "function"
		},
		{
			"inputs": [],
			"name": "fftLiquidity",
			"outputs": [
				{
					"internalType": "uint256",
					"name": "",
					"type": "uint256"
				}
			],
			"stateMutability": "view",
			"type": "function"
		},
		{
			"inputs": [
				{
					"internalType": "bool",
					"name": "isFFT",
					"type": "bool"
				}
			],
			"name": "getLiquidityCount",
			"outputs": [
				{
					"internalType": "uint256",
					"name": "",
					"type": "uint256"
				}
			],
			"stateMutability": "view",
			"type": "function"
		},
		{
			"inputs": [],
			"name": "getPrice",
			"outputs": [
				{
					"internalType": "uint256",
					"name": "",
					"type": "uint256"
				}
			],
			"stateMutability": "nonpayable",
			"type": "function"
		},
		{
			"inputs": [],
			"name": "isOwner",
			"outputs": [
				{
					"internalType": "bool",
					"name": "",
					"type": "bool"
				}
			],
			"stateMutability": "view",
			"type": "function"
		},
		{
			"inputs": [],
			"name": "nftLiquidity",
			"outputs": [
				{
					"internalType": "uint256",
					"name": "",
					"type": "uint256"
				}
			],
			"stateMutability": "view",
			"type": "function"
		},
		{
			"inputs": [],
			"name": "owner",
			"outputs": [
				{
					"internalType": "address",
					"name": "",
					"type": "address"
				}
			],
			"stateMutability": "view",
			"type": "function"
		},
		{
			"inputs": [
				{
					"internalType": "uint256",
					"name": "index",
					"type": "uint256"
				}
			],
			"name": "queryLiquid",
			"outputs": [
				{
					"components": [
						{
							"internalType": "address",
							"name": "depositor",
							"type": "address"
						},
						{
							"internalType": "uint256",
							"name": "depositedAt",
							"type": "uint256"
						},
						{
							"internalType": "uint256",
							"name": "price",
							"type": "uint256"
						},
						{
							"internalType": "uint256",
							"name": "nftAlloc",
							"type": "uint256"
						},
						{
							"internalType": "uint256",
							"name": "fftAlloc",
							"type": "uint256"
						},
						{
							"internalType": "bool",
							"name": "claimed",
							"type": "bool"
						}
					],
					"internalType": "struct HotswapControllerBase.LiquidData",
					"name": "",
					"type": "tuple"
				}
			],
			"stateMutability": "view",
			"type": "function"
		},
		{
			"inputs": [
				{
					"internalType": "address",
					"name": "depositor",
					"type": "address"
				},
				{
					"internalType": "uint256",
					"name": "index",
					"type": "uint256"
				}
			],
			"name": "queryLiquidbyDepositor",
			"outputs": [
				{
					"components": [
						{
							"internalType": "address",
							"name": "depositor",
							"type": "address"
						},
						{
							"internalType": "uint256",
							"name": "depositedAt",
							"type": "uint256"
						},
						{
							"internalType": "uint256",
							"name": "price",
							"type": "uint256"
						},
						{
							"internalType": "uint256",
							"name": "nftAlloc",
							"type": "uint256"
						},
						{
							"internalType": "uint256",
							"name": "fftAlloc",
							"type": "uint256"
						},
						{
							"internalType": "bool",
							"name": "claimed",
							"type": "bool"
						}
					],
					"internalType": "struct HotswapControllerBase.LiquidData",
					"name": "",
					"type": "tuple"
				}
			],
			"stateMutability": "view",
			"type": "function"
		},
		{
			"inputs": [],
			"name": "renounceOwnership",
			"outputs": [],
			"stateMutability": "nonpayable",
			"type": "function"
		},
		{
			"inputs": [
				{
					"internalType": "address",
					"name": "addr",
					"type": "address"
				}
			],
			"name": "setCollector",
			"outputs": [],
			"stateMutability": "nonpayable",
			"type": "function"
		},
		{
			"inputs": [
				{
					"internalType": "address",
					"name": "addr",
					"type": "address"
				}
			],
			"name": "setFFT",
			"outputs": [],
			"stateMutability": "nonpayable",
			"type": "function"
		},
		{
			"inputs": [
				{
					"internalType": "address",
					"name": "addr",
					"type": "address"
				}
			],
			"name": "setLiquidity",
			"outputs": [],
			"stateMutability": "nonpayable",
			"type": "function"
		},
		{
			"inputs": [
				{
					"internalType": "address",
					"name": "addr",
					"type": "address"
				}
			],
			"name": "setNFT",
			"outputs": [],
			"stateMutability": "nonpayable",
			"type": "function"
		},
		{
			"inputs": [
				{
					"internalType": "uint256",
					"name": "amount",
					"type": "uint256"
				}
			],
			"name": "swapFFT",
			"outputs": [],
			"stateMutability": "nonpayable",
			"type": "function"
		},
		{
			"inputs": [
				{
					"internalType": "uint256",
					"name": "amount",
					"type": "uint256"
				}
			],
			"name": "swapNFT",
			"outputs": [],
			"stateMutability": "nonpayable",
			"type": "function"
		},
		{
			"inputs": [
				{
					"internalType": "address",
					"name": "newOwner",
					"type": "address"
				}
			],
			"name": "transferOwnership",
			"outputs": [],
			"stateMutability": "nonpayable",
			"type": "function"
		},
		{
			"inputs": [
				{
					"internalType": "uint256",
					"name": "index",
					"type": "uint256"
				}
			],
			"name": "withdrawLiquidity",
			"outputs": [],
			"stateMutability": "nonpayable",
			"type": "function"
		}
	]
}