{
	"data": {
		"bytecode": {
			"linkReferences": {},
			"object": "60806040526012600460146101000a81548160ff021916908360ff16021790555034801561002b575f80fd5b506040516139eb3803806139eb833981810160405281019061004d919061033c565b81818181335f806101000a81548173ffffffffffffffffffffffffffffffffffffffff021916908373ffffffffffffffffffffffffffffffffffffffff16021790555061009f826100f960201b60201c565b6100ae8161017c60201b60201c565b50503360055f6101000a81548173ffffffffffffffffffffffffffffffffffffffff021916908373ffffffffffffffffffffffffffffffffffffffff160217905550505050506103db565b8060015f6101000a81548173ffffffffffffffffffffffffffffffffffffffff021916908373ffffffffffffffffffffffffffffffffffffffff1602179055508060045f6101000a81548173ffffffffffffffffffffffffffffffffffffffff021916908373ffffffffffffffffffffffffffffffffffffffff16021790555050565b8060025f6101000a81548173ffffffffffffffffffffffffffffffffffffffff021916908373ffffffffffffffffffffffffffffffffffffffff1602179055508060035f6101000a81548173ffffffffffffffffffffffffffffffffffffffff021916908373ffffffffffffffffffffffffffffffffffffffff1602179055505f73ffffffffffffffffffffffffffffffffffffffff168173ffffffffffffffffffffffffffffffffffffffff16146102db5760035f9054906101000a900473ffffffffffffffffffffffffffffffffffffffff1673ffffffffffffffffffffffffffffffffffffffff1663313ce5676040518163ffffffff1660e01b8152600401602060405180830381865afa9250505080156102b857506040513d601f19601f820116820180604052508101906102b591906103b0565b60015b156102da5780600460146101000a81548160ff021916908360ff160217905550505b5b50565b5f80fd5b5f73ffffffffffffffffffffffffffffffffffffffff82169050919050565b5f61030b826102e2565b9050919050565b61031b81610301565b8114610325575f80fd5b50565b5f8151905061033681610312565b92915050565b5f8060408385031215610352576103516102de565b5b5f61035f85828601610328565b925050602061037085828601610328565b9150509250929050565b5f60ff82169050919050565b61038f8161037a565b8114610399575f80fd5b50565b5f815190506103aa81610386565b92915050565b5f602082840312156103c5576103c46102de565b5b5f6103d28482850161039c565b91505092915050565b613603806103e85f395ff3fe608060405234801561000f575f80fd5b50600436106101c2575f3560e01c8063715018a6116100f7578063d294f09311610095578063e53442f01161006f578063e53442f0146104b2578063e91a7ca6146104e2578063f2fde38b146104fe578063fb5b82d01461051a576101c2565b8063d294f09314610470578063dcc9606f1461047a578063dd81b5ae14610496576101c2565b80638e991592116100d15780638e991592146103e05780638f32d59b146103fe578063cc18cb871461041c578063d212a69a14610452576101c2565b8063715018a61461039a5780637c0b8de2146103a45780638da5cb5b146103c2576101c2565b80633bd11f57116101645780634e36245d1161013e5780634e36245d14610312578063673a7e281461032e578063678660fb1461034c5780636cc629921461036a576101c2565b80633bd11f57146102a657806341796a17146102c4578063491d0a56146102f4576101c2565b8063150b7a02116101a0578063150b7a021461021e578063235b6ea11461024e578063313ce5671461026c57806336171e0e1461028a576101c2565b806304bb60ce146101c657806306fdde03146101e45780630a861f2a14610202575b5f80fd5b6101ce610536565b6040516101db9190612adf565b60405180910390f35b6101ec61055b565b6040516101f99190612b68565b60405180910390f35b61021c60048036038101906102179190612bcc565b6107ae565b005b61023860048036038101906102339190612c82565b610b42565b6040516102459190612d40565b60405180910390f35b610256610b56565b6040516102639190612d68565b60405180910390f35b610274610b5c565b6040516102819190612d9c565b60405180910390f35b6102a4600480360381019061029f9190612db5565b610b6f565b005b6102ae610c0b565b6040516102bb9190612d68565b60405180910390f35b6102de60048036038101906102d99190612bcc565b610c11565b6040516102eb9190612e91565b60405180910390f35b6102fc610c2a565b6040516103099190612adf565b60405180910390f35b61032c60048036038101906103279190612bcc565b610c4f565b005b610336610dd1565b6040516103439190612d68565b60405180910390f35b610354610f99565b6040516103619190612d68565b60405180910390f35b610384600480360381019061037f9190612ed4565b610f9f565b6040516103919190612d68565b60405180910390f35b6103a2610fb8565b005b6103ac61106b565b6040516103b99190612adf565b60405180910390f35b6103ca611090565b6040516103d79190612adf565b60405180910390f35b6103e86110b7565b6040516103f59190612adf565b60405180910390f35b6104066110dc565b6040516104139190612f0e565b60405180910390f35b61043660048036038101906104319190612bcc565b611131565b6040516104499796959493929190612f27565b60405180910390f35b61045a6111a9565b6040516104679190612d68565b60405180910390f35b6104786111af565b005b610494600480360381019061048f9190612bcc565b611487565b005b6104b060048036038101906104ab9190612bcc565b61162d565b005b6104cc60048036038101906104c79190612f94565b611730565b6040516104d99190612e91565b60405180910390f35b6104fc60048036038101906104f79190612bcc565b611918565b005b61051860048036038101906105139190612db5565b611adc565b005b610534600480360381019061052f9190612db5565b611af8565b005b60025f9054906101000a900473ffffffffffffffffffffffffffffffffffffffff1681565b60605f73ffffffffffffffffffffffffffffffffffffffff1660015f9054906101000a900473ffffffffffffffffffffffffffffffffffffffff1673ffffffffffffffffffffffffffffffffffffffff1614801561060557505f73ffffffffffffffffffffffffffffffffffffffff1660025f9054906101000a900473ffffffffffffffffffffffffffffffffffffffff1673ffffffffffffffffffffffffffffffffffffffff16145b15610647576040518060400160405280600681526020017f4c6567616379000000000000000000000000000000000000000000000000000081525090506107ab565b60045f9054906101000a900473ffffffffffffffffffffffffffffffffffffffff1673ffffffffffffffffffffffffffffffffffffffff166306fdde036040518163ffffffff1660e01b81526004015f60405180830381865afa1580156106b0573d5f803e3d5ffd5b505050506040513d5f823e3d601f19601f820116820180604052508101906106d891906130ec565b6040516020016106e89190613193565b60405160208183030381529060405260035f9054906101000a900473ffffffffffffffffffffffffffffffffffffffff1673ffffffffffffffffffffffffffffffffffffffff166306fdde036040518163ffffffff1660e01b81526004015f60405180830381865afa158015610760573d5f803e3d5ffd5b505050506040513d5f823e3d601f19601f8201168201806040525081019061078891906130ec565b6040516020016107999291906131b8565b60405160208183030381529060405290505b90565b5f3390505f60095f8373ffffffffffffffffffffffffffffffffffffffff1673ffffffffffffffffffffffffffffffffffffffff1681526020019081526020015f2080548060200260200160405190810160405280929190818152602001828054801561083857602002820191905f5260205f20905b815481526020019060010190808311610824575b5050505050905080518310610879576040517fa0fc0d0300000000000000000000000000000000000000000000000000000000815260040160405180910390fd5b5f81848151811061088d5761088c6131db565b5b602002602001015190505f600a82815481106108ac576108ab6131db565b5b905f5260205f2090600702016040518060e00160405290815f82015f9054906101000a900473ffffffffffffffffffffffffffffffffffffffff1673ffffffffffffffffffffffffffffffffffffffff1673ffffffffffffffffffffffffffffffffffffffff16815260200160018201548152602001600282015481526020016003820154815260200160048201548152602001600582015f9054906101000a900460ff1615151515815260200160068201548152505090505f61097582606001516012611b4b565b90505f826080015190505f818361098c9190613235565b90505f6109998285611b7a565b90505f6109a68385611b7a565b90505f6109b38684611b7a565b90506109c181600754611b7a565b90505f6109ce8684611b7a565b90505f6109dc836012611b8d565b90505f6109f883600460149054906101000a900460ff16611b8d565b9050600c5f9054906101000a900473ffffffffffffffffffffffffffffffffffffffff1673ffffffffffffffffffffffffffffffffffffffff1663c1d2d00d838f6040518363ffffffff1660e01b8152600401610a56929190613268565b5f604051808303815f87803b158015610a6d575f80fd5b505af1158015610a7f573d5f803e3d5ffd5b50505050600c5f9054906101000a900473ffffffffffffffffffffffffffffffffffffffff1673ffffffffffffffffffffffffffffffffffffffff16638cda7bb4828f6040518363ffffffff1660e01b8152600401610adf929190613268565b5f604051808303815f87803b158015610af6575f80fd5b505af1158015610b08573d5f803e3d5ffd5b50505050610b168a8c611bbc565b896020015160115f828254610b2b919061328f565b925050819055505050505050505050505050505050565b5f63150b7a0260e01b905095945050505050565b60075481565b600460149054906101000a900460ff1681565b610b776110dc565b610b7f575f80fd5b8060065f6101000a81548173ffffffffffffffffffffffffffffffffffffffff021916908373ffffffffffffffffffffffffffffffffffffffff16021790555080600c5f6101000a81548173ffffffffffffffffffffffffffffffffffffffff021916908373ffffffffffffffffffffffffffffffffffffffff160217905550610c07610dd1565b5050565b600e5481565b610c19612a0a565b610c233383611730565b9050919050565b60065f9054906101000a900473ffffffffffffffffffffffffffffffffffffffff1681565b5f805f60095f3373ffffffffffffffffffffffffffffffffffffffff1673ffffffffffffffffffffffffffffffffffffffff1681526020019081526020015f20805480602002602001604051908101604052809291908181526020018280548015610cd757602002820191905f5260205f20905b815481526020019060010190808311610cc3575b505050505090505f60075490505f610cfe86600460149054906101000a900460ff16611b4b565b90505f610d0a82611d1a565b82610d15919061328f565b90505f805f865190505b5f81118015610d2d57505f84115b15610d8b57610d3c6001611f21565b8093508194505050610d7687600183610d55919061328f565b81518110610d6657610d656131db565b5b6020026020010151838689612077565b93508080610d83906132c2565b915050610d1f565b505f831115610dc6576040517fbb55fd2700000000000000000000000000000000000000000000000000000000815260040160405180910390fd5b505050505050505050565b5f8060035f9054906101000a900473ffffffffffffffffffffffffffffffffffffffff1673ffffffffffffffffffffffffffffffffffffffff166370a0823160065f9054906101000a900473ffffffffffffffffffffffffffffffffffffffff166040518263ffffffff1660e01b8152600401610e4e9190612adf565b602060405180830381865afa158015610e69573d5f803e3d5ffd5b505050506040513d601f19601f82011682018060405250810190610e8d91906132fd565b90505f60045f9054906101000a900473ffffffffffffffffffffffffffffffffffffffff1673ffffffffffffffffffffffffffffffffffffffff166370a0823160065f9054906101000a900473ffffffffffffffffffffffffffffffffffffffff166040518263ffffffff1660e01b8152600401610f0b9190612adf565b602060405180830381865afa158015610f26573d5f803e3d5ffd5b505050506040513d601f19601f82011682018060405250810190610f4a91906132fd565b90505f610f6683600460149054906101000a900460ff16611b4b565b9050610f73826012611b4b565b91505f821115610f8e57610f878183611b7a565b6007819055505b600754935050505090565b600d5481565b5f81610fad57600f54610fb1565b6010545b9050919050565b610fc06110dc565b610fc8575f80fd5b5f8054906101000a900473ffffffffffffffffffffffffffffffffffffffff1673ffffffffffffffffffffffffffffffffffffffff167ff8df31144d9c2f0f6b59d69b8b98abd5459d07f2742c4df920b25aae33c6482060405160405180910390a25f805f6101000a81548173ffffffffffffffffffffffffffffffffffffffff021916908373ffffffffffffffffffffffffffffffffffffffff160217905550565b60015f9054906101000a900473ffffffffffffffffffffffffffffffffffffffff1681565b5f805f9054906101000a900473ffffffffffffffffffffffffffffffffffffffff16905090565b60055f9054906101000a900473ffffffffffffffffffffffffffffffffffffffff1681565b5f805f9054906101000a900473ffffffffffffffffffffffffffffffffffffffff1673ffffffffffffffffffffffffffffffffffffffff163373ffffffffffffffffffffffffffffffffffffffff1614905090565b600a8181548110611140575f80fd5b905f5260205f2090600702015f91509050805f015f9054906101000a900473ffffffffffffffffffffffffffffffffffffffff1690806001015490806002015490806003015490806004015490806005015f9054906101000a900460ff16908060060154905087565b600b5481565b5f3390505f60095f8373ffffffffffffffffffffffffffffffffffffffff1673ffffffffffffffffffffffffffffffffffffffff1681526020019081526020015f2080548060200260200160405190810160405280929190818152602001828054801561123957602002820191905f5260205f20905b815481526020019060010190808311611225575b505050505090505f805f6112e9600c5f9054906101000a900473ffffffffffffffffffffffffffffffffffffffff1673ffffffffffffffffffffffffffffffffffffffff16631f1b29e46040518163ffffffff1660e01b8152600401602060405180830381865afa1580156112b0573d5f803e3d5ffd5b505050506040513d601f19601f820116820180604052508101906112d491906132fd565b600460149054906101000a900460ff16611b4b565b90505f805b85518110156113c55785818151811061130a576113096131db565b5b60200260200101519450600a8581548110611328576113276131db565b5b905f5260205f2090600702019350836005015f9054906101000a900460ff166113b8575f61135c8560010154601154611b7a565b90505f61136d866004015486611b7a565b90506001866005015f6101000a81548160ff0219169083151502179055506113a8818361139a9190613235565b671bc16d674ec80000611b7a565b846113b39190613235565b935050505b80806001019150506112ee565b505f81116113d857505050505050611485565b5f6113f282600460149054906101000a900460ff16611b8d565b9050600c5f9054906101000a900473ffffffffffffffffffffffffffffffffffffffff1673ffffffffffffffffffffffffffffffffffffffff16638cda7bb482896040518363ffffffff1660e01b8152600401611450929190613268565b5f604051808303815f87803b158015611467575f80fd5b505af1158015611479573d5f803e3d5ffd5b50505050505050505050505b565b5f60095f3373ffffffffffffffffffffffffffffffffffffffff1673ffffffffffffffffffffffffffffffffffffffff1681526020019081526020015f2080548060200260200160405190810160405280929190818152602001828054801561150d57602002820191905f5260205f20905b8154815260200190600101908083116114f9575b505050505090505f60075490505f61153484600460149054906101000a900460ff16611b4b565b90505f6115418284612157565b905061154c81611d1a565b81611557919061328f565b90505f6115648285611b7a565b90505f611572826012611b8d565b90505f805f885190505b5f8111801561158a57505f84115b156115e7576115985f611f21565b80935081945050506115d2896001836115b1919061328f565b815181106115c2576115c16131db565b5b602002602001015183868b61216a565b935080806115df906132c2565b91505061157c565b505f831115611622576040517fbb55fd2700000000000000000000000000000000000000000000000000000000815260040160405180910390fd5b505050505050505050565b60035f9054906101000a900473ffffffffffffffffffffffffffffffffffffffff1673ffffffffffffffffffffffffffffffffffffffff166323b872dd3360065f9054906101000a900473ffffffffffffffffffffffffffffffffffffffff16846040518463ffffffff1660e01b81526004016116ac93929190613328565b6020604051808303815f875af11580156116c8573d5f803e3d5ffd5b505050506040513d601f19601f820116820180604052508101906116ec9190613371565b611722576040517f79cacff100000000000000000000000000000000000000000000000000000000815260040160405180910390fd5b61172d816001612258565b50565b611738612a0a565b5f60095f8573ffffffffffffffffffffffffffffffffffffffff1673ffffffffffffffffffffffffffffffffffffffff1681526020019081526020015f208054806020026020016040519081016040528092919081815260200182805480156117be57602002820191905f5260205f20905b8154815260200190600101908083116117aa575b505050505090505f8184815181106117d9576117d86131db565b5b602002602001015190505f600a82815481106117f8576117f76131db565b5b905f5260205f2090600702016040518060e00160405290815f82015f9054906101000a900473ffffffffffffffffffffffffffffffffffffffff1673ffffffffffffffffffffffffffffffffffffffff1673ffffffffffffffffffffffffffffffffffffffff16815260200160018201548152602001600282015481526020016003820154815260200160048201548152602001600582015f9054906101000a900460ff1615151515815260200160068201548152505090506040518060c00160405280825f015173ffffffffffffffffffffffffffffffffffffffff168152602001826020015181526020018260400151815260200182606001518152602001826080015181526020018260a001511515815250935050505092915050565b5f805f67ffffffffffffffff81111561193457611933612fd6565b5b6040519080825280601f01601f1916602001820160405280156119665781602001600182028036833780820191505090505b5090505f5b83811015611acb5760045f9054906101000a900473ffffffffffffffffffffffffffffffffffffffff1673ffffffffffffffffffffffffffffffffffffffff16632f745c5933836040518363ffffffff1660e01b81526004016119cf92919061339c565b602060405180830381865afa1580156119ea573d5f803e3d5ffd5b505050506040513d601f19601f82011682018060405250810190611a0e91906132fd565b925060045f9054906101000a900473ffffffffffffffffffffffffffffffffffffffff1673ffffffffffffffffffffffffffffffffffffffff1663b88d4fde3360065f9054906101000a900473ffffffffffffffffffffffffffffffffffffffff1686866040518563ffffffff1660e01b8152600401611a919493929190613415565b5f604051808303815f87803b158015611aa8575f80fd5b505af1158015611aba573d5f803e3d5ffd5b50505050808060010191505061196b565b50611ad7836001612258565b505050565b611ae46110dc565b611aec575f80fd5b611af581612465565b50565b611b006110dc565b611b08575f80fd5b8060055f6101000a81548173ffffffffffffffffffffffffffffffffffffffff021916908373ffffffffffffffffffffffffffffffffffffffff16021790555050565b5f60018260ff1614611b7057611b6082612557565b83611b6b919061345f565b611b72565b825b905092915050565b5f611b8583836125a7565b905092915050565b5f60018260ff1614611bb257611ba282612557565b83611bad91906134cd565b611bb4565b825b905092915050565b5f8260c0015190505f8060095f3373ffffffffffffffffffffffffffffffffffffffff1673ffffffffffffffffffffffffffffffffffffffff1681526020019081526020015f209050611c0f81846125c3565b15611c5b57600a818481548110611c2957611c286131db565b5b905f5260205f20015481548110611c4357611c426131db565b5b905f5260205f20906007020191508282600601819055505b611c66600a8561264f565b15611d1357600a8481548110611c7f57611c7e6131db565b5b905f5260205f2090600702019150816006015492508360095f845f015f9054906101000a900473ffffffffffffffffffffffffffffffffffffffff1673ffffffffffffffffffffffffffffffffffffffff1673ffffffffffffffffffffffffffffffffffffffff1681526020019081526020015f208481548110611d0657611d056131db565b5b905f5260205f2001819055505b5050505050565b5f80611d2d836601c6bf52634000612157565b90505f611d4282674563918244f40000611b7a565b90505f8183611d51919061328f565b90505f611d6d83600460149054906101000a900460ff16611b8d565b90505f611d8983600460149054906101000a900460ff16611b8d565b90505f60035f9054906101000a900473ffffffffffffffffffffffffffffffffffffffff1673ffffffffffffffffffffffffffffffffffffffff1663a9059cbb60055f9054906101000a900473ffffffffffffffffffffffffffffffffffffffff16856040518363ffffffff1660e01b8152600401611e0992919061339c565b6020604051808303815f875af1158015611e25573d5f803e3d5ffd5b505050506040513d601f19601f82011682018060405250810190611e499190613371565b905080611e54575f80fd5b60035f9054906101000a900473ffffffffffffffffffffffffffffffffffffffff1673ffffffffffffffffffffffffffffffffffffffff1663a9059cbb30846040518363ffffffff1660e01b8152600401611eb092919061339c565b6020604051808303815f875af1158015611ecc573d5f803e3d5ffd5b505050506040513d601f19601f82011682018060405250810190611ef09190613371565b905080611efb575f80fd5b83600b5f828254611f0c9190613235565b92505081905550859650505050505050919050565b5f80611f2b612a52565b5f600a8054905090505b5f81118015611f42575083155b1561207057600181611f54919061328f565b9250600a8381548110611f6a57611f696131db565b5b905f5260205f2090600702016040518060e00160405290815f82015f9054906101000a900473ffffffffffffffffffffffffffffffffffffffff1673ffffffffffffffffffffffffffffffffffffffff1673ffffffffffffffffffffffffffffffffffffffff16815260200160018201548152602001600282015481526020016003820154815260200160048201548152602001600582015f9054906101000a900460ff1615151515815260200160068201548152505091508415801561203457505f8260800151115b15612042576001935061205d565b84801561205257505f8260600151115b1561205c57600193505b5b8080612068906132c2565b915050611f35565b5050915091565b5f80600a868154811061208d5761208c6131db565b5b905f5260205f20906007020190505f600a86815481106120b0576120af6131db565b5b905f5260205f20906007020190505f826004015490505f868211156120d557866120d7565b815b905080846004015f8282546120ec919061328f565b9250508190555080876120ff919061328f565b965080836004015f8282546121149190613235565b9250508190555061212f6121288288611b7a565b6012611b8d565b846003015f8282546121419190613235565b9250508190555086945050505050949350505050565b5f6121628383612800565b905092915050565b5f805f600a8781548110612181576121806131db565b5b905f5260205f20906007020190505f600a87815481106121a4576121a36131db565b5b905f5260205f2090600702019050858260030154116121c957816003015492506121cd565b8592505b82826003015f8282546121e0919061328f565b9250508190555082866121f3919061328f565b95506122176122028487612157565b600460149054906101000a900460ff16611b4b565b826004015f8282546122299190613235565b9250508190555082816003015f8282546122439190613235565b92505081905550859350505050949350505050565b5f60095f3373ffffffffffffffffffffffffffffffffffffffff1673ffffffffffffffffffffffffffffffffffffffff1681526020019081526020015f2090505f818054905090505f8084156122b0578591506122cc565b6122c986600460149054906101000a900460ff16611b4b565b90505b5f4290508060115f8282546122e19190613235565b925050819055505f6040518060e001604052803373ffffffffffffffffffffffffffffffffffffffff16815260200183815260200160075481526020018581526020018481526020015f1515815260200187805490508152509050861561235e57600f5f815480929190612354906134fd565b9190505550612376565b60105f815480929190612370906134fd565b91905055505b600a81908060018154018082558091505060019003905f5260205f2090600702015f909190919091505f820151815f015f6101000a81548173ffffffffffffffffffffffffffffffffffffffff021916908373ffffffffffffffffffffffffffffffffffffffff1602179055506020820151816001015560408201518160020155606082015181600301556080820151816004015560a0820151816005015f6101000a81548160ff02191690831515021790555060c0820151816006015550508585908060018154018082558091505060019003905f5260205f20015f90919091909150555050505050505050565b5f73ffffffffffffffffffffffffffffffffffffffff168173ffffffffffffffffffffffffffffffffffffffff160361249c575f80fd5b8073ffffffffffffffffffffffffffffffffffffffff165f8054906101000a900473ffffffffffffffffffffffffffffffffffffffff1673ffffffffffffffffffffffffffffffffffffffff167f8be0079c531659141344cd1fd0a4f28419497f9722a3daafe3b4186f6b6457e060405160405180910390a3805f806101000a81548173ffffffffffffffffffffffffffffffffffffffff021916908373ffffffffffffffffffffffffffffffffffffffff16021790555050565b5f60085f8360ff1660ff1681526020019081526020015f205490505f81036125a2578160120360ff16600a0a90508060085f8460ff1660ff1681526020019081526020015f20819055505b919050565b5f6125bb83670de0b6b3a764000084612813565b905092915050565b5f80600184805490506125d6919061328f565b90505f81841490508061261f578482815481106125f6576125f56131db565b5b905f5260205f200154858581548110612612576126116131db565b5b905f5260205f2001819055505b848054806126305761262f613544565b5b600190038181905f5260205f20015f9055905580159250505092915050565b5f8060018480549050612662919061328f565b90505f81841490508061277157848281548110612682576126816131db565b5b905f5260205f2090600702018585815481106126a1576126a06131db565b5b905f5260205f2090600702015f82015f9054906101000a900473ffffffffffffffffffffffffffffffffffffffff16815f015f6101000a81548173ffffffffffffffffffffffffffffffffffffffff021916908373ffffffffffffffffffffffffffffffffffffffff16021790555060018201548160010155600282015481600201556003820154816003015560048201548160040155600582015f9054906101000a900460ff16816005015f6101000a81548160ff021916908315150217905550600682015481600601559050505b8480548061278257612781613544565b5b600190038181905f5260205f2090600702015f8082015f6101000a81549073ffffffffffffffffffffffffffffffffffffffff0219169055600182015f9055600282015f9055600382015f9055600482015f9055600582015f6101000a81549060ff0219169055600682015f90555050905580159250505092915050565b5f61280b8383612925565b905092915050565b5f805f80198587098587029250828110838203039150505f810361284b57838281612841576128406134a0565b5b049250505061291e565b838110612893578585856040517f6c59da1200000000000000000000000000000000000000000000000000000000815260040161288a93929190613571565b60405180910390fd5b5f8486880990508281118203915080830392505f6001861901861690505f81870496508185049450600182835f0304019050808402851794505f60028860030218905080880260020381029050808802600203810290508088026002038102905080880260020381029050808802600203810290508088026002038102905080860296505050505050505b9392505050565b5f805f80198486098486029250828110838203039150505f810361296557670de0b6b3a7640000828161295b5761295a6134a0565b5b0492505050612a04565b670de0b6b3a764000081106129b35784846040517fd3c0df5e0000000000000000000000000000000000000000000000000000000081526004016129aa9291906135a6565b60405180910390fd5b5f670de0b6b3a764000085870990507faccb18165bd6fe31ae1cf318dc5b51eee0e1ba569b88cd74c1773b91fac10669600162040000805f0304018483118403026204000083860304170293505050505b92915050565b6040518060c001604052805f73ffffffffffffffffffffffffffffffffffffffff1681526020015f81526020015f81526020015f81526020015f81526020015f151581525090565b6040518060e001604052805f73ffffffffffffffffffffffffffffffffffffffff1681526020015f81526020015f81526020015f81526020015f81526020015f151581526020015f81525090565b5f73ffffffffffffffffffffffffffffffffffffffff82169050919050565b5f612ac982612aa0565b9050919050565b612ad981612abf565b82525050565b5f602082019050612af25f830184612ad0565b92915050565b5f81519050919050565b5f82825260208201905092915050565b8281835e5f83830152505050565b5f601f19601f8301169050919050565b5f612b3a82612af8565b612b448185612b02565b9350612b54818560208601612b12565b612b5d81612b20565b840191505092915050565b5f6020820190508181035f830152612b808184612b30565b905092915050565b5f604051905090565b5f80fd5b5f80fd5b5f819050919050565b612bab81612b99565b8114612bb5575f80fd5b50565b5f81359050612bc681612ba2565b92915050565b5f60208284031215612be157612be0612b91565b5b5f612bee84828501612bb8565b91505092915050565b612c0081612abf565b8114612c0a575f80fd5b50565b5f81359050612c1b81612bf7565b92915050565b5f80fd5b5f80fd5b5f80fd5b5f8083601f840112612c4257612c41612c21565b5b8235905067ffffffffffffffff811115612c5f57612c5e612c25565b5b602083019150836001820283011115612c7b57612c7a612c29565b5b9250929050565b5f805f805f60808688031215612c9b57612c9a612b91565b5b5f612ca888828901612c0d565b9550506020612cb988828901612c0d565b9450506040612cca88828901612bb8565b935050606086013567ffffffffffffffff811115612ceb57612cea612b95565b5b612cf788828901612c2d565b92509250509295509295909350565b5f7fffffffff0000000000000000000000000000000000000000000000000000000082169050919050565b612d3a81612d06565b82525050565b5f602082019050612d535f830184612d31565b92915050565b612d6281612b99565b82525050565b5f602082019050612d7b5f830184612d59565b92915050565b5f60ff82169050919050565b612d9681612d81565b82525050565b5f602082019050612daf5f830184612d8d565b92915050565b5f60208284031215612dca57612dc9612b91565b5b5f612dd784828501612c0d565b91505092915050565b612de981612abf565b82525050565b612df881612b99565b82525050565b5f8115159050919050565b612e1281612dfe565b82525050565b60c082015f820151612e2c5f850182612de0565b506020820151612e3f6020850182612def565b506040820151612e526040850182612def565b506060820151612e656060850182612def565b506080820151612e786080850182612def565b5060a0820151612e8b60a0850182612e09565b50505050565b5f60c082019050612ea45f830184612e18565b92915050565b612eb381612dfe565b8114612ebd575f80fd5b50565b5f81359050612ece81612eaa565b92915050565b5f60208284031215612ee957612ee8612b91565b5b5f612ef684828501612ec0565b91505092915050565b612f0881612dfe565b82525050565b5f602082019050612f215f830184612eff565b92915050565b5f60e082019050612f3a5f83018a612ad0565b612f476020830189612d59565b612f546040830188612d59565b612f616060830187612d59565b612f6e6080830186612d59565b612f7b60a0830185612eff565b612f8860c0830184612d59565b98975050505050505050565b5f8060408385031215612faa57612fa9612b91565b5b5f612fb785828601612c0d565b9250506020612fc885828601612bb8565b9150509250929050565b5f80fd5b7f4e487b71000000000000000000000000000000000000000000000000000000005f52604160045260245ffd5b61300c82612b20565b810181811067ffffffffffffffff8211171561302b5761302a612fd6565b5b80604052505050565b5f61303d612b88565b90506130498282613003565b919050565b5f67ffffffffffffffff82111561306857613067612fd6565b5b61307182612b20565b9050602081019050919050565b5f61309061308b8461304e565b613034565b9050828152602081018484840111156130ac576130ab612fd2565b5b6130b7848285612b12565b509392505050565b5f82601f8301126130d3576130d2612c21565b5b81516130e384826020860161307e565b91505092915050565b5f6020828403121561310157613100612b91565b5b5f82015167ffffffffffffffff81111561311e5761311d612b95565b5b61312a848285016130bf565b91505092915050565b5f81905092915050565b5f61314782612af8565b6131518185613133565b9350613161818560208601612b12565b80840191505092915050565b7f202d200000000000000000000000000000000000000000000000000000000000815250565b5f61319e828461313d565b91506131a98261316d565b60038201915081905092915050565b5f6131c3828561313d565b91506131cf828461313d565b91508190509392505050565b7f4e487b71000000000000000000000000000000000000000000000000000000005f52603260045260245ffd5b7f4e487b71000000000000000000000000000000000000000000000000000000005f52601160045260245ffd5b5f61323f82612b99565b915061324a83612b99565b925082820190508082111561326257613261613208565b5b92915050565b5f60408201905061327b5f830185612d59565b6132886020830184612ad0565b9392505050565b5f61329982612b99565b91506132a483612b99565b92508282039050818111156132bc576132bb613208565b5b92915050565b5f6132cc82612b99565b91505f82036132de576132dd613208565b5b600182039050919050565b5f815190506132f781612ba2565b92915050565b5f6020828403121561331257613311612b91565b5b5f61331f848285016132e9565b91505092915050565b5f60608201905061333b5f830186612ad0565b6133486020830185612ad0565b6133556040830184612d59565b949350505050565b5f8151905061336b81612eaa565b92915050565b5f6020828403121561338657613385612b91565b5b5f6133938482850161335d565b91505092915050565b5f6040820190506133af5f830185612ad0565b6133bc6020830184612d59565b9392505050565b5f81519050919050565b5f82825260208201905092915050565b5f6133e7826133c3565b6133f181856133cd565b9350613401818560208601612b12565b61340a81612b20565b840191505092915050565b5f6080820190506134285f830187612ad0565b6134356020830186612ad0565b6134426040830185612d59565b818103606083015261345481846133dd565b905095945050505050565b5f61346982612b99565b915061347483612b99565b925082820261348281612b99565b9150828204841483151761349957613498613208565b5b5092915050565b7f4e487b71000000000000000000000000000000000000000000000000000000005f52601260045260245ffd5b5f6134d782612b99565b91506134e283612b99565b9250826134f2576134f16134a0565b5b828204905092915050565b5f61350782612b99565b91507fffffffffffffffffffffffffffffffffffffffffffffffffffffffffffffffff820361353957613538613208565b5b600182019050919050565b7f4e487b71000000000000000000000000000000000000000000000000000000005f52603160045260245ffd5b5f6060820190506135845f830186612d59565b6135916020830185612d59565b61359e6040830184612d59565b949350505050565b5f6040820190506135b95f830185612d59565b6135c66020830184612d59565b939250505056fea264697066735822122013bfeab1d030f31f8806f4e2a5b1bdc2719ace60380683878fa70c6092510bc364736f6c63430008190033",
			"opcodes": "PUSH1 0x80 PUSH1 0x40 MSTORE PUSH1 0x12 PUSH1 0x4 PUSH1 0x14 PUSH2 0x100 EXP DUP2 SLOAD DUP2 PUSH1 0xFF MUL NOT AND SWAP1 DUP4 PUSH1 0xFF AND MUL OR SWAP1 SSTORE POP CALLVALUE DUP1 ISZERO PUSH2 0x2B JUMPI PUSH0 DUP1 REVERT JUMPDEST POP PUSH1 0x40 MLOAD PUSH2 0x39EB CODESIZE SUB DUP1 PUSH2 0x39EB DUP4 CODECOPY DUP2 DUP2 ADD PUSH1 0x40 MSTORE DUP2 ADD SWAP1 PUSH2 0x4D SWAP2 SWAP1 PUSH2 0x33C JUMP JUMPDEST DUP2 DUP2 DUP2 DUP2 CALLER PUSH0 DUP1 PUSH2 0x100 EXP DUP2 SLOAD DUP2 PUSH20 0xFFFFFFFFFFFFFFFFFFFFFFFFFFFFFFFFFFFFFFFF MUL NOT AND SWAP1 DUP4 PUSH20 0xFFFFFFFFFFFFFFFFFFFFFFFFFFFFFFFFFFFFFFFF AND MUL OR SWAP1 SSTORE POP PUSH2 0x9F DUP3 PUSH2 0xF9 PUSH1 0x20 SHL PUSH1 0x20 SHR JUMP JUMPDEST PUSH2 0xAE DUP2 PUSH2 0x17C PUSH1 0x20 SHL PUSH1 0x20 SHR JUMP JUMPDEST POP POP CALLER PUSH1 0x5 PUSH0 PUSH2 0x100 EXP DUP2 SLOAD DUP2 PUSH20 0xFFFFFFFFFFFFFFFFFFFFFFFFFFFFFFFFFFFFFFFF MUL NOT AND SWAP1 DUP4 PUSH20 0xFFFFFFFFFFFFFFFFFFFFFFFFFFFFFFFFFFFFFFFF AND MUL OR SWAP1 SSTORE POP POP POP POP POP PUSH2 0x3DB JUMP JUMPDEST DUP1 PUSH1 0x1 PUSH0 PUSH2 0x100 EXP DUP2 SLOAD DUP2 PUSH20 0xFFFFFFFFFFFFFFFFFFFFFFFFFFFFFFFFFFFFFFFF MUL NOT AND SWAP1 DUP4 PUSH20 0xFFFFFFFFFFFFFFFFFFFFFFFFFFFFFFFFFFFFFFFF AND MUL OR SWAP1 SSTORE POP DUP1 PUSH1 0x4 PUSH0 PUSH2 0x100 EXP DUP2 SLOAD DUP2 PUSH20 0xFFFFFFFFFFFFFFFFFFFFFFFFFFFFFFFFFFFFFFFF MUL NOT AND SWAP1 DUP4 PUSH20 0xFFFFFFFFFFFFFFFFFFFFFFFFFFFFFFFFFFFFFFFF AND MUL OR SWAP1 SSTORE POP POP JUMP JUMPDEST DUP1 PUSH1 0x2 PUSH0 PUSH2 0x100 EXP DUP2 SLOAD DUP2 PUSH20 0xFFFFFFFFFFFFFFFFFFFFFFFFFFFFFFFFFFFFFFFF MUL NOT AND SWAP1 DUP4 PUSH20 0xFFFFFFFFFFFFFFFFFFFFFFFFFFFFFFFFFFFFFFFF AND MUL OR SWAP1 SSTORE POP DUP1 PUSH1 0x3 PUSH0 PUSH2 0x100 EXP DUP2 SLOAD DUP2 PUSH20 0xFFFFFFFFFFFFFFFFFFFFFFFFFFFFFFFFFFFFFFFF MUL NOT AND SWAP1 DUP4 PUSH20 0xFFFFFFFFFFFFFFFFFFFFFFFFFFFFFFFFFFFFFFFF AND MUL OR SWAP1 SSTORE POP PUSH0 PUSH20 0xFFFFFFFFFFFFFFFFFFFFFFFFFFFFFFFFFFFFFFFF AND DUP2 PUSH20 0xFFFFFFFFFFFFFFFFFFFFFFFFFFFFFFFFFFFFFFFF AND EQ PUSH2 0x2DB JUMPI PUSH1 0x3 PUSH0 SWAP1 SLOAD SWAP1 PUSH2 0x100 EXP SWAP1 DIV PUSH20 0xFFFFFFFFFFFFFFFFFFFFFFFFFFFFFFFFFFFFFFFF AND PUSH20 0xFFFFFFFFFFFFFFFFFFFFFFFFFFFFFFFFFFFFFFFF AND PUSH4 0x313CE567 PUSH1 0x40 MLOAD DUP2 PUSH4 0xFFFFFFFF AND PUSH1 0xE0 SHL DUP2 MSTORE PUSH1 0x4 ADD PUSH1 0x20 PUSH1 0x40 MLOAD DUP1 DUP4 SUB DUP2 DUP7 GAS STATICCALL SWAP3 POP POP POP DUP1 ISZERO PUSH2 0x2B8 JUMPI POP PUSH1 0x40 MLOAD RETURNDATASIZE PUSH1 0x1F NOT PUSH1 0x1F DUP3 ADD AND DUP3 ADD DUP1 PUSH1 0x40 MSTORE POP DUP2 ADD SWAP1 PUSH2 0x2B5 SWAP2 SWAP1 PUSH2 0x3B0 JUMP JUMPDEST PUSH1 0x1 JUMPDEST ISZERO PUSH2 0x2DA JUMPI DUP1 PUSH1 0x4 PUSH1 0x14 PUSH2 0x100 EXP DUP2 SLOAD DUP2 PUSH1 0xFF MUL NOT AND SWAP1 DUP4 PUSH1 0xFF AND MUL OR SWAP1 SSTORE POP POP JUMPDEST JUMPDEST POP JUMP JUMPDEST PUSH0 DUP1 REVERT JUMPDEST PUSH0 PUSH20 0xFFFFFFFFFFFFFFFFFFFFFFFFFFFFFFFFFFFFFFFF DUP3 AND SWAP1 POP SWAP2 SWAP1 POP JUMP JUMPDEST PUSH0 PUSH2 0x30B DUP3 PUSH2 0x2E2 JUMP JUMPDEST SWAP1 POP SWAP2 SWAP1 POP JUMP JUMPDEST PUSH2 0x31B DUP2 PUSH2 0x301 JUMP JUMPDEST DUP2 EQ PUSH2 0x325 JUMPI PUSH0 DUP1 REVERT JUMPDEST POP JUMP JUMPDEST PUSH0 DUP2 MLOAD SWAP1 POP PUSH2 0x336 DUP2 PUSH2 0x312 JUMP JUMPDEST SWAP3 SWAP2 POP POP JUMP JUMPDEST PUSH0 DUP1 PUSH1 0x40 DUP4 DUP6 SUB SLT ISZERO PUSH2 0x352 JUMPI PUSH2 0x351 PUSH2 0x2DE JUMP JUMPDEST JUMPDEST PUSH0 PUSH2 0x35F DUP6 DUP3 DUP7 ADD PUSH2 0x328 JUMP JUMPDEST SWAP3 POP POP PUSH1 0x20 PUSH2 0x370 DUP6 DUP3 DUP7 ADD PUSH2 0x328 JUMP JUMPDEST SWAP2 POP POP SWAP3 POP SWAP3 SWAP1 POP JUMP JUMPDEST PUSH0 PUSH1 0xFF DUP3 AND SWAP1 POP SWAP2 SWAP1 POP JUMP JUMPDEST PUSH2 0x38F DUP2 PUSH2 0x37A JUMP JUMPDEST DUP2 EQ PUSH2 0x399 JUMPI PUSH0 DUP1 REVERT JUMPDEST POP JUMP JUMPDEST PUSH0 DUP2 MLOAD SWAP1 POP PUSH2 0x3AA DUP2 PUSH2 0x386 JUMP JUMPDEST SWAP3 SWAP2 POP POP JUMP JUMPDEST PUSH0 PUSH1 0x20 DUP3 DUP5 SUB SLT ISZERO PUSH2 0x3C5 JUMPI PUSH2 0x3C4 PUSH2 0x2DE JUMP JUMPDEST JUMPDEST PUSH0 PUSH2 0x3D2 DUP5 DUP3 DUP6 ADD PUSH2 0x39C JUMP JUMPDEST SWAP2 POP POP SWAP3 SWAP2 POP POP JUMP JUMPDEST PUSH2 0x3603 DUP1 PUSH2 0x3E8 PUSH0 CODECOPY PUSH0 RETURN INVALID PUSH1 0x80 PUSH1 0x40 MSTORE CALLVALUE DUP1 ISZERO PUSH2 0xF JUMPI PUSH0 DUP1 REVERT JUMPDEST POP PUSH1 0x4 CALLDATASIZE LT PUSH2 0x1C2 JUMPI PUSH0 CALLDATALOAD PUSH1 0xE0 SHR DUP1 PUSH4 0x715018A6 GT PUSH2 0xF7 JUMPI DUP1 PUSH4 0xD294F093 GT PUSH2 0x95 JUMPI DUP1 PUSH4 0xE53442F0 GT PUSH2 0x6F JUMPI DUP1 PUSH4 0xE53442F0 EQ PUSH2 0x4B2 JUMPI DUP1 PUSH4 0xE91A7CA6 EQ PUSH2 0x4E2 JUMPI DUP1 PUSH4 0xF2FDE38B EQ PUSH2 0x4FE JUMPI DUP1 PUSH4 0xFB5B82D0 EQ PUSH2 0x51A JUMPI PUSH2 0x1C2 JUMP JUMPDEST DUP1 PUSH4 0xD294F093 EQ PUSH2 0x470 JUMPI DUP1 PUSH4 0xDCC9606F EQ PUSH2 0x47A JUMPI DUP1 PUSH4 0xDD81B5AE EQ PUSH2 0x496 JUMPI PUSH2 0x1C2 JUMP JUMPDEST DUP1 PUSH4 0x8E991592 GT PUSH2 0xD1 JUMPI DUP1 PUSH4 0x8E991592 EQ PUSH2 0x3E0 JUMPI DUP1 PUSH4 0x8F32D59B EQ PUSH2 0x3FE JUMPI DUP1 PUSH4 0xCC18CB87 EQ PUSH2 0x41C JUMPI DUP1 PUSH4 0xD212A69A EQ PUSH2 0x452 JUMPI PUSH2 0x1C2 JUMP JUMPDEST DUP1 PUSH4 0x715018A6 EQ PUSH2 0x39A JUMPI DUP1 PUSH4 0x7C0B8DE2 EQ PUSH2 0x3A4 JUMPI DUP1 PUSH4 0x8DA5CB5B EQ PUSH2 0x3C2 JUMPI PUSH2 0x1C2 JUMP JUMPDEST DUP1 PUSH4 0x3BD11F57 GT PUSH2 0x164 JUMPI DUP1 PUSH4 0x4E36245D GT PUSH2 0x13E JUMPI DUP1 PUSH4 0x4E36245D EQ PUSH2 0x312 JUMPI DUP1 PUSH4 0x673A7E28 EQ PUSH2 0x32E JUMPI DUP1 PUSH4 0x678660FB EQ PUSH2 0x34C JUMPI DUP1 PUSH4 0x6CC62992 EQ PUSH2 0x36A JUMPI PUSH2 0x1C2 JUMP JUMPDEST DUP1 PUSH4 0x3BD11F57 EQ PUSH2 0x2A6 JUMPI DUP1 PUSH4 0x41796A17 EQ PUSH2 0x2C4 JUMPI DUP1 PUSH4 0x491D0A56 EQ PUSH2 0x2F4 JUMPI PUSH2 0x1C2 JUMP JUMPDEST DUP1 PUSH4 0x150B7A02 GT PUSH2 0x1A0 JUMPI DUP1 PUSH4 0x150B7A02 EQ PUSH2 0x21E JUMPI DUP1 PUSH4 0x235B6EA1 EQ PUSH2 0x24E JUMPI DUP1 PUSH4 0x313CE567 EQ PUSH2 0x26C JUMPI DUP1 PUSH4 0x36171E0E EQ PUSH2 0x28A JUMPI PUSH2 0x1C2 JUMP JUMPDEST DUP1 PUSH4 0x4BB60CE EQ PUSH2 0x1C6 JUMPI DUP1 PUSH4 0x6FDDE03 EQ PUSH2 0x1E4 JUMPI DUP1 PUSH4 0xA861F2A EQ PUSH2 0x202 JUMPI JUMPDEST PUSH0 DUP1 REVERT JUMPDEST PUSH2 0x1CE PUSH2 0x536 JUMP JUMPDEST PUSH1 0x40 MLOAD PUSH2 0x1DB SWAP2 SWAP1 PUSH2 0x2ADF JUMP JUMPDEST PUSH1 0x40 MLOAD DUP1 SWAP2 SUB SWAP1 RETURN JUMPDEST PUSH2 0x1EC PUSH2 0x55B JUMP JUMPDEST PUSH1 0x40 MLOAD PUSH2 0x1F9 SWAP2 SWAP1 PUSH2 0x2B68 JUMP JUMPDEST PUSH1 0x40 MLOAD DUP1 SWAP2 SUB SWAP1 RETURN JUMPDEST PUSH2 0x21C PUSH1 0x4 DUP1 CALLDATASIZE SUB DUP2 ADD SWAP1 PUSH2 0x217 SWAP2 SWAP1 PUSH2 0x2BCC JUMP JUMPDEST PUSH2 0x7AE JUMP JUMPDEST STOP JUMPDEST PUSH2 0x238 PUSH1 0x4 DUP1 CALLDATASIZE SUB DUP2 ADD SWAP1 PUSH2 0x233 SWAP2 SWAP1 PUSH2 0x2C82 JUMP JUMPDEST PUSH2 0xB42 JUMP JUMPDEST PUSH1 0x40 MLOAD PUSH2 0x245 SWAP2 SWAP1 PUSH2 0x2D40 JUMP JUMPDEST PUSH1 0x40 MLOAD DUP1 SWAP2 SUB SWAP1 RETURN JUMPDEST PUSH2 0x256 PUSH2 0xB56 JUMP JUMPDEST PUSH1 0x40 MLOAD PUSH2 0x263 SWAP2 SWAP1 PUSH2 0x2D68 JUMP JUMPDEST PUSH1 0x40 MLOAD DUP1 SWAP2 SUB SWAP1 RETURN JUMPDEST PUSH2 0x274 PUSH2 0xB5C JUMP JUMPDEST PUSH1 0x40 MLOAD PUSH2 0x281 SWAP2 SWAP1 PUSH2 0x2D9C JUMP JUMPDEST PUSH1 0x40 MLOAD DUP1 SWAP2 SUB SWAP1 RETURN JUMPDEST PUSH2 0x2A4 PUSH1 0x4 DUP1 CALLDATASIZE SUB DUP2 ADD SWAP1 PUSH2 0x29F SWAP2 SWAP1 PUSH2 0x2DB5 JUMP JUMPDEST PUSH2 0xB6F JUMP JUMPDEST STOP JUMPDEST PUSH2 0x2AE PUSH2 0xC0B JUMP JUMPDEST PUSH1 0x40 MLOAD PUSH2 0x2BB SWAP2 SWAP1 PUSH2 0x2D68 JUMP JUMPDEST PUSH1 0x40 MLOAD DUP1 SWAP2 SUB SWAP1 RETURN JUMPDEST PUSH2 0x2DE PUSH1 0x4 DUP1 CALLDATASIZE SUB DUP2 ADD SWAP1 PUSH2 0x2D9 SWAP2 SWAP1 PUSH2 0x2BCC JUMP JUMPDEST PUSH2 0xC11 JUMP JUMPDEST PUSH1 0x40 MLOAD PUSH2 0x2EB SWAP2 SWAP1 PUSH2 0x2E91 JUMP JUMPDEST PUSH1 0x40 MLOAD DUP1 SWAP2 SUB SWAP1 RETURN JUMPDEST PUSH2 0x2FC PUSH2 0xC2A JUMP JUMPDEST PUSH1 0x40 MLOAD PUSH2 0x309 SWAP2 SWAP1 PUSH2 0x2ADF JUMP JUMPDEST PUSH1 0x40 MLOAD DUP1 SWAP2 SUB SWAP1 RETURN JUMPDEST PUSH2 0x32C PUSH1 0x4 DUP1 CALLDATASIZE SUB DUP2 ADD SWAP1 PUSH2 0x327 SWAP2 SWAP1 PUSH2 0x2BCC JUMP JUMPDEST PUSH2 0xC4F JUMP JUMPDEST STOP JUMPDEST PUSH2 0x336 PUSH2 0xDD1 JUMP JUMPDEST PUSH1 0x40 MLOAD PUSH2 0x343 SWAP2 SWAP1 PUSH2 0x2D68 JUMP JUMPDEST PUSH1 0x40 MLOAD DUP1 SWAP2 SUB SWAP1 RETURN JUMPDEST PUSH2 0x354 PUSH2 0xF99 JUMP JUMPDEST PUSH1 0x40 MLOAD PUSH2 0x361 SWAP2 SWAP1 PUSH2 0x2D68 JUMP JUMPDEST PUSH1 0x40 MLOAD DUP1 SWAP2 SUB SWAP1 RETURN JUMPDEST PUSH2 0x384 PUSH1 0x4 DUP1 CALLDATASIZE SUB DUP2 ADD SWAP1 PUSH2 0x37F SWAP2 SWAP1 PUSH2 0x2ED4 JUMP JUMPDEST PUSH2 0xF9F JUMP JUMPDEST PUSH1 0x40 MLOAD PUSH2 0x391 SWAP2 SWAP1 PUSH2 0x2D68 JUMP JUMPDEST PUSH1 0x40 MLOAD DUP1 SWAP2 SUB SWAP1 RETURN JUMPDEST PUSH2 0x3A2 PUSH2 0xFB8 JUMP JUMPDEST STOP JUMPDEST PUSH2 0x3AC PUSH2 0x106B JUMP JUMPDEST PUSH1 0x40 MLOAD PUSH2 0x3B9 SWAP2 SWAP1 PUSH2 0x2ADF JUMP JUMPDEST PUSH1 0x40 MLOAD DUP1 SWAP2 SUB SWAP1 RETURN JUMPDEST PUSH2 0x3CA PUSH2 0x1090 JUMP JUMPDEST PUSH1 0x40 MLOAD PUSH2 0x3D7 SWAP2 SWAP1 PUSH2 0x2ADF JUMP JUMPDEST PUSH1 0x40 MLOAD DUP1 SWAP2 SUB SWAP1 RETURN JUMPDEST PUSH2 0x3E8 PUSH2 0x10B7 JUMP JUMPDEST PUSH1 0x40 MLOAD PUSH2 0x3F5 SWAP2 SWAP1 PUSH2 0x2ADF JUMP JUMPDEST PUSH1 0x40 MLOAD DUP1 SWAP2 SUB SWAP1 RETURN JUMPDEST PUSH2 0x406 PUSH2 0x10DC JUMP JUMPDEST PUSH1 0x40 MLOAD PUSH2 0x413 SWAP2 SWAP1 PUSH2 0x2F0E JUMP JUMPDEST PUSH1 0x40 MLOAD DUP1 SWAP2 SUB SWAP1 RETURN JUMPDEST PUSH2 0x436 PUSH1 0x4 DUP1 CALLDATASIZE SUB DUP2 ADD SWAP1 PUSH2 0x431 SWAP2 SWAP1 PUSH2 0x2BCC JUMP JUMPDEST PUSH2 0x1131 JUMP JUMPDEST PUSH1 0x40 MLOAD PUSH2 0x449 SWAP8 SWAP7 SWAP6 SWAP5 SWAP4 SWAP3 SWAP2 SWAP1 PUSH2 0x2F27 JUMP JUMPDEST PUSH1 0x40 MLOAD DUP1 SWAP2 SUB SWAP1 RETURN JUMPDEST PUSH2 0x45A PUSH2 0x11A9 JUMP JUMPDEST PUSH1 0x40 MLOAD PUSH2 0x467 SWAP2 SWAP1 PUSH2 0x2D68 JUMP JUMPDEST PUSH1 0x40 MLOAD DUP1 SWAP2 SUB SWAP1 RETURN JUMPDEST PUSH2 0x478 PUSH2 0x11AF JUMP JUMPDEST STOP JUMPDEST PUSH2 0x494 PUSH1 0x4 DUP1 CALLDATASIZE SUB DUP2 ADD SWAP1 PUSH2 0x48F SWAP2 SWAP1 PUSH2 0x2BCC JUMP JUMPDEST PUSH2 0x1487 JUMP JUMPDEST STOP JUMPDEST PUSH2 0x4B0 PUSH1 0x4 DUP1 CALLDATASIZE SUB DUP2 ADD SWAP1 PUSH2 0x4AB SWAP2 SWAP1 PUSH2 0x2BCC JUMP JUMPDEST PUSH2 0x162D JUMP JUMPDEST STOP JUMPDEST PUSH2 0x4CC PUSH1 0x4 DUP1 CALLDATASIZE SUB DUP2 ADD SWAP1 PUSH2 0x4C7 SWAP2 SWAP1 PUSH2 0x2F94 JUMP JUMPDEST PUSH2 0x1730 JUMP JUMPDEST PUSH1 0x40 MLOAD PUSH2 0x4D9 SWAP2 SWAP1 PUSH2 0x2E91 JUMP JUMPDEST PUSH1 0x40 MLOAD DUP1 SWAP2 SUB SWAP1 RETURN JUMPDEST PUSH2 0x4FC PUSH1 0x4 DUP1 CALLDATASIZE SUB DUP2 ADD SWAP1 PUSH2 0x4F7 SWAP2 SWAP1 PUSH2 0x2BCC JUMP JUMPDEST PUSH2 0x1918 JUMP JUMPDEST STOP JUMPDEST PUSH2 0x518 PUSH1 0x4 DUP1 CALLDATASIZE SUB DUP2 ADD SWAP1 PUSH2 0x513 SWAP2 SWAP1 PUSH2 0x2DB5 JUMP JUMPDEST PUSH2 0x1ADC JUMP JUMPDEST STOP JUMPDEST PUSH2 0x534 PUSH1 0x4 DUP1 CALLDATASIZE SUB DUP2 ADD SWAP1 PUSH2 0x52F SWAP2 SWAP1 PUSH2 0x2DB5 JUMP JUMPDEST PUSH2 0x1AF8 JUMP JUMPDEST STOP JUMPDEST PUSH1 0x2 PUSH0 SWAP1 SLOAD SWAP1 PUSH2 0x100 EXP SWAP1 DIV PUSH20 0xFFFFFFFFFFFFFFFFFFFFFFFFFFFFFFFFFFFFFFFF AND DUP2 JUMP JUMPDEST PUSH1 0x60 PUSH0 PUSH20 0xFFFFFFFFFFFFFFFFFFFFFFFFFFFFFFFFFFFFFFFF AND PUSH1 0x1 PUSH0 SWAP1 SLOAD SWAP1 PUSH2 0x100 EXP SWAP1 DIV PUSH20 0xFFFFFFFFFFFFFFFFFFFFFFFFFFFFFFFFFFFFFFFF AND PUSH20 0xFFFFFFFFFFFFFFFFFFFFFFFFFFFFFFFFFFFFFFFF AND EQ DUP1 ISZERO PUSH2 0x605 JUMPI POP PUSH0 PUSH20 0xFFFFFFFFFFFFFFFFFFFFFFFFFFFFFFFFFFFFFFFF AND PUSH1 0x2 PUSH0 SWAP1 SLOAD SWAP1 PUSH2 0x100 EXP SWAP1 DIV PUSH20 0xFFFFFFFFFFFFFFFFFFFFFFFFFFFFFFFFFFFFFFFF AND PUSH20 0xFFFFFFFFFFFFFFFFFFFFFFFFFFFFFFFFFFFFFFFF AND EQ JUMPDEST ISZERO PUSH2 0x647 JUMPI PUSH1 0x40 MLOAD DUP1 PUSH1 0x40 ADD PUSH1 0x40 MSTORE DUP1 PUSH1 0x6 DUP2 MSTORE PUSH1 0x20 ADD PUSH32 0x4C65676163790000000000000000000000000000000000000000000000000000 DUP2 MSTORE POP SWAP1 POP PUSH2 0x7AB JUMP JUMPDEST PUSH1 0x4 PUSH0 SWAP1 SLOAD SWAP1 PUSH2 0x100 EXP SWAP1 DIV PUSH20 0xFFFFFFFFFFFFFFFFFFFFFFFFFFFFFFFFFFFFFFFF AND PUSH20 0xFFFFFFFFFFFFFFFFFFFFFFFFFFFFFFFFFFFFFFFF AND PUSH4 0x6FDDE03 PUSH1 0x40 MLOAD DUP2 PUSH4 0xFFFFFFFF AND PUSH1 0xE0 SHL DUP2 MSTORE PUSH1 0x4 ADD PUSH0 PUSH1 0x40 MLOAD DUP1 DUP4 SUB DUP2 DUP7 GAS STATICCALL ISZERO DUP1 ISZERO PUSH2 0x6B0 JUMPI RETURNDATASIZE PUSH0 DUP1 RETURNDATACOPY RETURNDATASIZE PUSH0 REVERT JUMPDEST POP POP POP POP PUSH1 0x40 MLOAD RETURNDATASIZE PUSH0 DUP3 RETURNDATACOPY RETURNDATASIZE PUSH1 0x1F NOT PUSH1 0x1F DUP3 ADD AND DUP3 ADD DUP1 PUSH1 0x40 MSTORE POP DUP2 ADD SWAP1 PUSH2 0x6D8 SWAP2 SWAP1 PUSH2 0x30EC JUMP JUMPDEST PUSH1 0x40 MLOAD PUSH1 0x20 ADD PUSH2 0x6E8 SWAP2 SWAP1 PUSH2 0x3193 JUMP JUMPDEST PUSH1 0x40 MLOAD PUSH1 0x20 DUP2 DUP4 SUB SUB DUP2 MSTORE SWAP1 PUSH1 0x40 MSTORE PUSH1 0x3 PUSH0 SWAP1 SLOAD SWAP1 PUSH2 0x100 EXP SWAP1 DIV PUSH20 0xFFFFFFFFFFFFFFFFFFFFFFFFFFFFFFFFFFFFFFFF AND PUSH20 0xFFFFFFFFFFFFFFFFFFFFFFFFFFFFFFFFFFFFFFFF AND PUSH4 0x6FDDE03 PUSH1 0x40 MLOAD DUP2 PUSH4 0xFFFFFFFF AND PUSH1 0xE0 SHL DUP2 MSTORE PUSH1 0x4 ADD PUSH0 PUSH1 0x40 MLOAD DUP1 DUP4 SUB DUP2 DUP7 GAS STATICCALL ISZERO DUP1 ISZERO PUSH2 0x760 JUMPI RETURNDATASIZE PUSH0 DUP1 RETURNDATACOPY RETURNDATASIZE PUSH0 REVERT JUMPDEST POP POP POP POP PUSH1 0x40 MLOAD RETURNDATASIZE PUSH0 DUP3 RETURNDATACOPY RETURNDATASIZE PUSH1 0x1F NOT PUSH1 0x1F DUP3 ADD AND DUP3 ADD DUP1 PUSH1 0x40 MSTORE POP DUP2 ADD SWAP1 PUSH2 0x788 SWAP2 SWAP1 PUSH2 0x30EC JUMP JUMPDEST PUSH1 0x40 MLOAD PUSH1 0x20 ADD PUSH2 0x799 SWAP3 SWAP2 SWAP1 PUSH2 0x31B8 JUMP JUMPDEST PUSH1 0x40 MLOAD PUSH1 0x20 DUP2 DUP4 SUB SUB DUP2 MSTORE SWAP1 PUSH1 0x40 MSTORE SWAP1 POP JUMPDEST SWAP1 JUMP JUMPDEST PUSH0 CALLER SWAP1 POP PUSH0 PUSH1 0x9 PUSH0 DUP4 PUSH20 0xFFFFFFFFFFFFFFFFFFFFFFFFFFFFFFFFFFFFFFFF AND PUSH20 0xFFFFFFFFFFFFFFFFFFFFFFFFFFFFFFFFFFFFFFFF AND DUP2 MSTORE PUSH1 0x20 ADD SWAP1 DUP2 MSTORE PUSH1 0x20 ADD PUSH0 KECCAK256 DUP1 SLOAD DUP1 PUSH1 0x20 MUL PUSH1 0x20 ADD PUSH1 0x40 MLOAD SWAP1 DUP2 ADD PUSH1 0x40 MSTORE DUP1 SWAP3 SWAP2 SWAP1 DUP2 DUP2 MSTORE PUSH1 0x20 ADD DUP3 DUP1 SLOAD DUP1 ISZERO PUSH2 0x838 JUMPI PUSH1 0x20 MUL DUP3 ADD SWAP2 SWAP1 PUSH0 MSTORE PUSH1 0x20 PUSH0 KECCAK256 SWAP1 JUMPDEST DUP2 SLOAD DUP2 MSTORE PUSH1 0x20 ADD SWAP1 PUSH1 0x1 ADD SWAP1 DUP1 DUP4 GT PUSH2 0x824 JUMPI JUMPDEST POP POP POP POP POP SWAP1 POP DUP1 MLOAD DUP4 LT PUSH2 0x879 JUMPI PUSH1 0x40 MLOAD PUSH32 0xA0FC0D0300000000000000000000000000000000000000000000000000000000 DUP2 MSTORE PUSH1 0x4 ADD PUSH1 0x40 MLOAD DUP1 SWAP2 SUB SWAP1 REVERT JUMPDEST PUSH0 DUP2 DUP5 DUP2 MLOAD DUP2 LT PUSH2 0x88D JUMPI PUSH2 0x88C PUSH2 0x31DB JUMP JUMPDEST JUMPDEST PUSH1 0x20 MUL PUSH1 0x20 ADD ADD MLOAD SWAP1 POP PUSH0 PUSH1 0xA DUP3 DUP2 SLOAD DUP2 LT PUSH2 0x8AC JUMPI PUSH2 0x8AB PUSH2 0x31DB JUMP JUMPDEST JUMPDEST SWAP1 PUSH0 MSTORE PUSH1 0x20 PUSH0 KECCAK256 SWAP1 PUSH1 0x7 MUL ADD PUSH1 0x40 MLOAD DUP1 PUSH1 0xE0 ADD PUSH1 0x40 MSTORE SWAP1 DUP2 PUSH0 DUP3 ADD PUSH0 SWAP1 SLOAD SWAP1 PUSH2 0x100 EXP SWAP1 DIV PUSH20 0xFFFFFFFFFFFFFFFFFFFFFFFFFFFFFFFFFFFFFFFF AND PUSH20 0xFFFFFFFFFFFFFFFFFFFFFFFFFFFFFFFFFFFFFFFF AND PUSH20 0xFFFFFFFFFFFFFFFFFFFFFFFFFFFFFFFFFFFFFFFF AND DUP2 MSTORE PUSH1 0x20 ADD PUSH1 0x1 DUP3 ADD SLOAD DUP2 MSTORE PUSH1 0x20 ADD PUSH1 0x2 DUP3 ADD SLOAD DUP2 MSTORE PUSH1 0x20 ADD PUSH1 0x3 DUP3 ADD SLOAD DUP2 MSTORE PUSH1 0x20 ADD PUSH1 0x4 DUP3 ADD SLOAD DUP2 MSTORE PUSH1 0x20 ADD PUSH1 0x5 DUP3 ADD PUSH0 SWAP1 SLOAD SWAP1 PUSH2 0x100 EXP SWAP1 DIV PUSH1 0xFF AND ISZERO ISZERO ISZERO ISZERO DUP2 MSTORE PUSH1 0x20 ADD PUSH1 0x6 DUP3 ADD SLOAD DUP2 MSTORE POP POP SWAP1 POP PUSH0 PUSH2 0x975 DUP3 PUSH1 0x60 ADD MLOAD PUSH1 0x12 PUSH2 0x1B4B JUMP JUMPDEST SWAP1 POP PUSH0 DUP3 PUSH1 0x80 ADD MLOAD SWAP1 POP PUSH0 DUP2 DUP4 PUSH2 0x98C SWAP2 SWAP1 PUSH2 0x3235 JUMP JUMPDEST SWAP1 POP PUSH0 PUSH2 0x999 DUP3 DUP6 PUSH2 0x1B7A JUMP JUMPDEST SWAP1 POP PUSH0 PUSH2 0x9A6 DUP4 DUP6 PUSH2 0x1B7A JUMP JUMPDEST SWAP1 POP PUSH0 PUSH2 0x9B3 DUP7 DUP5 PUSH2 0x1B7A JUMP JUMPDEST SWAP1 POP PUSH2 0x9C1 DUP2 PUSH1 0x7 SLOAD PUSH2 0x1B7A JUMP JUMPDEST SWAP1 POP PUSH0 PUSH2 0x9CE DUP7 DUP5 PUSH2 0x1B7A JUMP JUMPDEST SWAP1 POP PUSH0 PUSH2 0x9DC DUP4 PUSH1 0x12 PUSH2 0x1B8D JUMP JUMPDEST SWAP1 POP PUSH0 PUSH2 0x9F8 DUP4 PUSH1 0x4 PUSH1 0x14 SWAP1 SLOAD SWAP1 PUSH2 0x100 EXP SWAP1 DIV PUSH1 0xFF AND PUSH2 0x1B8D JUMP JUMPDEST SWAP1 POP PUSH1 0xC PUSH0 SWAP1 SLOAD SWAP1 PUSH2 0x100 EXP SWAP1 DIV PUSH20 0xFFFFFFFFFFFFFFFFFFFFFFFFFFFFFFFFFFFFFFFF AND PUSH20 0xFFFFFFFFFFFFFFFFFFFFFFFFFFFFFFFFFFFFFFFF AND PUSH4 0xC1D2D00D DUP4 DUP16 PUSH1 0x40 MLOAD DUP4 PUSH4 0xFFFFFFFF AND PUSH1 0xE0 SHL DUP2 MSTORE PUSH1 0x4 ADD PUSH2 0xA56 SWAP3 SWAP2 SWAP1 PUSH2 0x3268 JUMP JUMPDEST PUSH0 PUSH1 0x40 MLOAD DUP1 DUP4 SUB DUP2 PUSH0 DUP8 DUP1 EXTCODESIZE ISZERO DUP1 ISZERO PUSH2 0xA6D JUMPI PUSH0 DUP1 REVERT JUMPDEST POP GAS CALL ISZERO DUP1 ISZERO PUSH2 0xA7F JUMPI RETURNDATASIZE PUSH0 DUP1 RETURNDATACOPY RETURNDATASIZE PUSH0 REVERT JUMPDEST POP POP POP POP PUSH1 0xC PUSH0 SWAP1 SLOAD SWAP1 PUSH2 0x100 EXP SWAP1 DIV PUSH20 0xFFFFFFFFFFFFFFFFFFFFFFFFFFFFFFFFFFFFFFFF AND PUSH20 0xFFFFFFFFFFFFFFFFFFFFFFFFFFFFFFFFFFFFFFFF AND PUSH4 0x8CDA7BB4 DUP3 DUP16 PUSH1 0x40 MLOAD DUP4 PUSH4 0xFFFFFFFF AND PUSH1 0xE0 SHL DUP2 MSTORE PUSH1 0x4 ADD PUSH2 0xADF SWAP3 SWAP2 SWAP1 PUSH2 0x3268 JUMP JUMPDEST PUSH0 PUSH1 0x40 MLOAD DUP1 DUP4 SUB DUP2 PUSH0 DUP8 DUP1 EXTCODESIZE ISZERO DUP1 ISZERO PUSH2 0xAF6 JUMPI PUSH0 DUP1 REVERT JUMPDEST POP GAS CALL ISZERO DUP1 ISZERO PUSH2 0xB08 JUMPI RETURNDATASIZE PUSH0 DUP1 RETURNDATACOPY RETURNDATASIZE PUSH0 REVERT JUMPDEST POP POP POP POP PUSH2 0xB16 DUP11 DUP13 PUSH2 0x1BBC JUMP JUMPDEST DUP10 PUSH1 0x20 ADD MLOAD PUSH1 0x11 PUSH0 DUP3 DUP3 SLOAD PUSH2 0xB2B SWAP2 SWAP1 PUSH2 0x328F JUMP JUMPDEST SWAP3 POP POP DUP2 SWAP1 SSTORE POP POP POP POP POP POP POP POP POP POP POP POP POP POP POP JUMP JUMPDEST PUSH0 PUSH4 0x150B7A02 PUSH1 0xE0 SHL SWAP1 POP SWAP6 SWAP5 POP POP POP POP POP JUMP JUMPDEST PUSH1 0x7 SLOAD DUP2 JUMP JUMPDEST PUSH1 0x4 PUSH1 0x14 SWAP1 SLOAD SWAP1 PUSH2 0x100 EXP SWAP1 DIV PUSH1 0xFF AND DUP2 JUMP JUMPDEST PUSH2 0xB77 PUSH2 0x10DC JUMP JUMPDEST PUSH2 0xB7F JUMPI PUSH0 DUP1 REVERT JUMPDEST DUP1 PUSH1 0x6 PUSH0 PUSH2 0x100 EXP DUP2 SLOAD DUP2 PUSH20 0xFFFFFFFFFFFFFFFFFFFFFFFFFFFFFFFFFFFFFFFF MUL NOT AND SWAP1 DUP4 PUSH20 0xFFFFFFFFFFFFFFFFFFFFFFFFFFFFFFFFFFFFFFFF AND MUL OR SWAP1 SSTORE POP DUP1 PUSH1 0xC PUSH0 PUSH2 0x100 EXP DUP2 SLOAD DUP2 PUSH20 0xFFFFFFFFFFFFFFFFFFFFFFFFFFFFFFFFFFFFFFFF MUL NOT AND SWAP1 DUP4 PUSH20 0xFFFFFFFFFFFFFFFFFFFFFFFFFFFFFFFFFFFFFFFF AND MUL OR SWAP1 SSTORE POP PUSH2 0xC07 PUSH2 0xDD1 JUMP JUMPDEST POP POP JUMP JUMPDEST PUSH1 0xE SLOAD DUP2 JUMP JUMPDEST PUSH2 0xC19 PUSH2 0x2A0A JUMP JUMPDEST PUSH2 0xC23 CALLER DUP4 PUSH2 0x1730 JUMP JUMPDEST SWAP1 POP SWAP2 SWAP1 POP JUMP JUMPDEST PUSH1 0x6 PUSH0 SWAP1 SLOAD SWAP1 PUSH2 0x100 EXP SWAP1 DIV PUSH20 0xFFFFFFFFFFFFFFFFFFFFFFFFFFFFFFFFFFFFFFFF AND DUP2 JUMP JUMPDEST PUSH0 DUP1 PUSH0 PUSH1 0x9 PUSH0 CALLER PUSH20 0xFFFFFFFFFFFFFFFFFFFFFFFFFFFFFFFFFFFFFFFF AND PUSH20 0xFFFFFFFFFFFFFFFFFFFFFFFFFFFFFFFFFFFFFFFF AND DUP2 MSTORE PUSH1 0x20 ADD SWAP1 DUP2 MSTORE PUSH1 0x20 ADD PUSH0 KECCAK256 DUP1 SLOAD DUP1 PUSH1 0x20 MUL PUSH1 0x20 ADD PUSH1 0x40 MLOAD SWAP1 DUP2 ADD PUSH1 0x40 MSTORE DUP1 SWAP3 SWAP2 SWAP1 DUP2 DUP2 MSTORE PUSH1 0x20 ADD DUP3 DUP1 SLOAD DUP1 ISZERO PUSH2 0xCD7 JUMPI PUSH1 0x20 MUL DUP3 ADD SWAP2 SWAP1 PUSH0 MSTORE PUSH1 0x20 PUSH0 KECCAK256 SWAP1 JUMPDEST DUP2 SLOAD DUP2 MSTORE PUSH1 0x20 ADD SWAP1 PUSH1 0x1 ADD SWAP1 DUP1 DUP4 GT PUSH2 0xCC3 JUMPI JUMPDEST POP POP POP POP POP SWAP1 POP PUSH0 PUSH1 0x7 SLOAD SWAP1 POP PUSH0 PUSH2 0xCFE DUP7 PUSH1 0x4 PUSH1 0x14 SWAP1 SLOAD SWAP1 PUSH2 0x100 EXP SWAP1 DIV PUSH1 0xFF AND PUSH2 0x1B4B JUMP JUMPDEST SWAP1 POP PUSH0 PUSH2 0xD0A DUP3 PUSH2 0x1D1A JUMP JUMPDEST DUP3 PUSH2 0xD15 SWAP2 SWAP1 PUSH2 0x328F JUMP JUMPDEST SWAP1 POP PUSH0 DUP1 PUSH0 DUP7 MLOAD SWAP1 POP JUMPDEST PUSH0 DUP2 GT DUP1 ISZERO PUSH2 0xD2D JUMPI POP PUSH0 DUP5 GT JUMPDEST ISZERO PUSH2 0xD8B JUMPI PUSH2 0xD3C PUSH1 0x1 PUSH2 0x1F21 JUMP JUMPDEST DUP1 SWAP4 POP DUP2 SWAP5 POP POP POP PUSH2 0xD76 DUP8 PUSH1 0x1 DUP4 PUSH2 0xD55 SWAP2 SWAP1 PUSH2 0x328F JUMP JUMPDEST DUP2 MLOAD DUP2 LT PUSH2 0xD66 JUMPI PUSH2 0xD65 PUSH2 0x31DB JUMP JUMPDEST JUMPDEST PUSH1 0x20 MUL PUSH1 0x20 ADD ADD MLOAD DUP4 DUP7 DUP10 PUSH2 0x2077 JUMP JUMPDEST SWAP4 POP DUP1 DUP1 PUSH2 0xD83 SWAP1 PUSH2 0x32C2 JUMP JUMPDEST SWAP2 POP POP PUSH2 0xD1F JUMP JUMPDEST POP PUSH0 DUP4 GT ISZERO PUSH2 0xDC6 JUMPI PUSH1 0x40 MLOAD PUSH32 0xBB55FD2700000000000000000000000000000000000000000000000000000000 DUP2 MSTORE PUSH1 0x4 ADD PUSH1 0x40 MLOAD DUP1 SWAP2 SUB SWAP1 REVERT JUMPDEST POP POP POP POP POP POP POP POP POP JUMP JUMPDEST PUSH0 DUP1 PUSH1 0x3 PUSH0 SWAP1 SLOAD SWAP1 PUSH2 0x100 EXP SWAP1 DIV PUSH20 0xFFFFFFFFFFFFFFFFFFFFFFFFFFFFFFFFFFFFFFFF AND PUSH20 0xFFFFFFFFFFFFFFFFFFFFFFFFFFFFFFFFFFFFFFFF AND PUSH4 0x70A08231 PUSH1 0x6 PUSH0 SWAP1 SLOAD SWAP1 PUSH2 0x100 EXP SWAP1 DIV PUSH20 0xFFFFFFFFFFFFFFFFFFFFFFFFFFFFFFFFFFFFFFFF AND PUSH1 0x40 MLOAD DUP3 PUSH4 0xFFFFFFFF AND PUSH1 0xE0 SHL DUP2 MSTORE PUSH1 0x4 ADD PUSH2 0xE4E SWAP2 SWAP1 PUSH2 0x2ADF JUMP JUMPDEST PUSH1 0x20 PUSH1 0x40 MLOAD DUP1 DUP4 SUB DUP2 DUP7 GAS STATICCALL ISZERO DUP1 ISZERO PUSH2 0xE69 JUMPI RETURNDATASIZE PUSH0 DUP1 RETURNDATACOPY RETURNDATASIZE PUSH0 REVERT JUMPDEST POP POP POP POP PUSH1 0x40 MLOAD RETURNDATASIZE PUSH1 0x1F NOT PUSH1 0x1F DUP3 ADD AND DUP3 ADD DUP1 PUSH1 0x40 MSTORE POP DUP2 ADD SWAP1 PUSH2 0xE8D SWAP2 SWAP1 PUSH2 0x32FD JUMP JUMPDEST SWAP1 POP PUSH0 PUSH1 0x4 PUSH0 SWAP1 SLOAD SWAP1 PUSH2 0x100 EXP SWAP1 DIV PUSH20 0xFFFFFFFFFFFFFFFFFFFFFFFFFFFFFFFFFFFFFFFF AND PUSH20 0xFFFFFFFFFFFFFFFFFFFFFFFFFFFFFFFFFFFFFFFF AND PUSH4 0x70A08231 PUSH1 0x6 PUSH0 SWAP1 SLOAD SWAP1 PUSH2 0x100 EXP SWAP1 DIV PUSH20 0xFFFFFFFFFFFFFFFFFFFFFFFFFFFFFFFFFFFFFFFF AND PUSH1 0x40 MLOAD DUP3 PUSH4 0xFFFFFFFF AND PUSH1 0xE0 SHL DUP2 MSTORE PUSH1 0x4 ADD PUSH2 0xF0B SWAP2 SWAP1 PUSH2 0x2ADF JUMP JUMPDEST PUSH1 0x20 PUSH1 0x40 MLOAD DUP1 DUP4 SUB DUP2 DUP7 GAS STATICCALL ISZERO DUP1 ISZERO PUSH2 0xF26 JUMPI RETURNDATASIZE PUSH0 DUP1 RETURNDATACOPY RETURNDATASIZE PUSH0 REVERT JUMPDEST POP POP POP POP PUSH1 0x40 MLOAD RETURNDATASIZE PUSH1 0x1F NOT PUSH1 0x1F DUP3 ADD AND DUP3 ADD DUP1 PUSH1 0x40 MSTORE POP DUP2 ADD SWAP1 PUSH2 0xF4A SWAP2 SWAP1 PUSH2 0x32FD JUMP JUMPDEST SWAP1 POP PUSH0 PUSH2 0xF66 DUP4 PUSH1 0x4 PUSH1 0x14 SWAP1 SLOAD SWAP1 PUSH2 0x100 EXP SWAP1 DIV PUSH1 0xFF AND PUSH2 0x1B4B JUMP JUMPDEST SWAP1 POP PUSH2 0xF73 DUP3 PUSH1 0x12 PUSH2 0x1B4B JUMP JUMPDEST SWAP2 POP PUSH0 DUP3 GT ISZERO PUSH2 0xF8E JUMPI PUSH2 0xF87 DUP2 DUP4 PUSH2 0x1B7A JUMP JUMPDEST PUSH1 0x7 DUP2 SWAP1 SSTORE POP JUMPDEST PUSH1 0x7 SLOAD SWAP4 POP POP POP POP SWAP1 JUMP JUMPDEST PUSH1 0xD SLOAD DUP2 JUMP JUMPDEST PUSH0 DUP2 PUSH2 0xFAD JUMPI PUSH1 0xF SLOAD PUSH2 0xFB1 JUMP JUMPDEST PUSH1 0x10 SLOAD JUMPDEST SWAP1 POP SWAP2 SWAP1 POP JUMP JUMPDEST PUSH2 0xFC0 PUSH2 0x10DC JUMP JUMPDEST PUSH2 0xFC8 JUMPI PUSH0 DUP1 REVERT JUMPDEST PUSH0 DUP1 SLOAD SWAP1 PUSH2 0x100 EXP SWAP1 DIV PUSH20 0xFFFFFFFFFFFFFFFFFFFFFFFFFFFFFFFFFFFFFFFF AND PUSH20 0xFFFFFFFFFFFFFFFFFFFFFFFFFFFFFFFFFFFFFFFF AND PUSH32 0xF8DF31144D9C2F0F6B59D69B8B98ABD5459D07F2742C4DF920B25AAE33C64820 PUSH1 0x40 MLOAD PUSH1 0x40 MLOAD DUP1 SWAP2 SUB SWAP1 LOG2 PUSH0 DUP1 PUSH0 PUSH2 0x100 EXP DUP2 SLOAD DUP2 PUSH20 0xFFFFFFFFFFFFFFFFFFFFFFFFFFFFFFFFFFFFFFFF MUL NOT AND SWAP1 DUP4 PUSH20 0xFFFFFFFFFFFFFFFFFFFFFFFFFFFFFFFFFFFFFFFF AND MUL OR SWAP1 SSTORE POP JUMP JUMPDEST PUSH1 0x1 PUSH0 SWAP1 SLOAD SWAP1 PUSH2 0x100 EXP SWAP1 DIV PUSH20 0xFFFFFFFFFFFFFFFFFFFFFFFFFFFFFFFFFFFFFFFF AND DUP2 JUMP JUMPDEST PUSH0 DUP1 PUSH0 SWAP1 SLOAD SWAP1 PUSH2 0x100 EXP SWAP1 DIV PUSH20 0xFFFFFFFFFFFFFFFFFFFFFFFFFFFFFFFFFFFFFFFF AND SWAP1 POP SWAP1 JUMP JUMPDEST PUSH1 0x5 PUSH0 SWAP1 SLOAD SWAP1 PUSH2 0x100 EXP SWAP1 DIV PUSH20 0xFFFFFFFFFFFFFFFFFFFFFFFFFFFFFFFFFFFFFFFF AND DUP2 JUMP JUMPDEST PUSH0 DUP1 PUSH0 SWAP1 SLOAD SWAP1 PUSH2 0x100 EXP SWAP1 DIV PUSH20 0xFFFFFFFFFFFFFFFFFFFFFFFFFFFFFFFFFFFFFFFF AND PUSH20 0xFFFFFFFFFFFFFFFFFFFFFFFFFFFFFFFFFFFFFFFF AND CALLER PUSH20 0xFFFFFFFFFFFFFFFFFFFFFFFFFFFFFFFFFFFFFFFF AND EQ SWAP1 POP SWAP1 JUMP JUMPDEST PUSH1 0xA DUP2 DUP2 SLOAD DUP2 LT PUSH2 0x1140 JUMPI PUSH0 DUP1 REVERT JUMPDEST SWAP1 PUSH0 MSTORE PUSH1 0x20 PUSH0 KECCAK256 SWAP1 PUSH1 0x7 MUL ADD PUSH0 SWAP2 POP SWAP1 POP DUP1 PUSH0 ADD PUSH0 SWAP1 SLOAD SWAP1 PUSH2 0x100 EXP SWAP1 DIV PUSH20 0xFFFFFFFFFFFFFFFFFFFFFFFFFFFFFFFFFFFFFFFF AND SWAP1 DUP1 PUSH1 0x1 ADD SLOAD SWAP1 DUP1 PUSH1 0x2 ADD SLOAD SWAP1 DUP1 PUSH1 0x3 ADD SLOAD SWAP1 DUP1 PUSH1 0x4 ADD SLOAD SWAP1 DUP1 PUSH1 0x5 ADD PUSH0 SWAP1 SLOAD SWAP1 PUSH2 0x100 EXP SWAP1 DIV PUSH1 0xFF AND SWAP1 DUP1 PUSH1 0x6 ADD SLOAD SWAP1 POP DUP8 JUMP JUMPDEST PUSH1 0xB SLOAD DUP2 JUMP JUMPDEST PUSH0 CALLER SWAP1 POP PUSH0 PUSH1 0x9 PUSH0 DUP4 PUSH20 0xFFFFFFFFFFFFFFFFFFFFFFFFFFFFFFFFFFFFFFFF AND PUSH20 0xFFFFFFFFFFFFFFFFFFFFFFFFFFFFFFFFFFFFFFFF AND DUP2 MSTORE PUSH1 0x20 ADD SWAP1 DUP2 MSTORE PUSH1 0x20 ADD PUSH0 KECCAK256 DUP1 SLOAD DUP1 PUSH1 0x20 MUL PUSH1 0x20 ADD PUSH1 0x40 MLOAD SWAP1 DUP2 ADD PUSH1 0x40 MSTORE DUP1 SWAP3 SWAP2 SWAP1 DUP2 DUP2 MSTORE PUSH1 0x20 ADD DUP3 DUP1 SLOAD DUP1 ISZERO PUSH2 0x1239 JUMPI PUSH1 0x20 MUL DUP3 ADD SWAP2 SWAP1 PUSH0 MSTORE PUSH1 0x20 PUSH0 KECCAK256 SWAP1 JUMPDEST DUP2 SLOAD DUP2 MSTORE PUSH1 0x20 ADD SWAP1 PUSH1 0x1 ADD SWAP1 DUP1 DUP4 GT PUSH2 0x1225 JUMPI JUMPDEST POP POP POP POP POP SWAP1 POP PUSH0 DUP1 PUSH0 PUSH2 0x12E9 PUSH1 0xC PUSH0 SWAP1 SLOAD SWAP1 PUSH2 0x100 EXP SWAP1 DIV PUSH20 0xFFFFFFFFFFFFFFFFFFFFFFFFFFFFFFFFFFFFFFFF AND PUSH20 0xFFFFFFFFFFFFFFFFFFFFFFFFFFFFFFFFFFFFFFFF AND PUSH4 0x1F1B29E4 PUSH1 0x40 MLOAD DUP2 PUSH4 0xFFFFFFFF AND PUSH1 0xE0 SHL DUP2 MSTORE PUSH1 0x4 ADD PUSH1 0x20 PUSH1 0x40 MLOAD DUP1 DUP4 SUB DUP2 DUP7 GAS STATICCALL ISZERO DUP1 ISZERO PUSH2 0x12B0 JUMPI RETURNDATASIZE PUSH0 DUP1 RETURNDATACOPY RETURNDATASIZE PUSH0 REVERT JUMPDEST POP POP POP POP PUSH1 0x40 MLOAD RETURNDATASIZE PUSH1 0x1F NOT PUSH1 0x1F DUP3 ADD AND DUP3 ADD DUP1 PUSH1 0x40 MSTORE POP DUP2 ADD SWAP1 PUSH2 0x12D4 SWAP2 SWAP1 PUSH2 0x32FD JUMP JUMPDEST PUSH1 0x4 PUSH1 0x14 SWAP1 SLOAD SWAP1 PUSH2 0x100 EXP SWAP1 DIV PUSH1 0xFF AND PUSH2 0x1B4B JUMP JUMPDEST SWAP1 POP PUSH0 DUP1 JUMPDEST DUP6 MLOAD DUP2 LT ISZERO PUSH2 0x13C5 JUMPI DUP6 DUP2 DUP2 MLOAD DUP2 LT PUSH2 0x130A JUMPI PUSH2 0x1309 PUSH2 0x31DB JUMP JUMPDEST JUMPDEST PUSH1 0x20 MUL PUSH1 0x20 ADD ADD MLOAD SWAP5 POP PUSH1 0xA DUP6 DUP2 SLOAD DUP2 LT PUSH2 0x1328 JUMPI PUSH2 0x1327 PUSH2 0x31DB JUMP JUMPDEST JUMPDEST SWAP1 PUSH0 MSTORE PUSH1 0x20 PUSH0 KECCAK256 SWAP1 PUSH1 0x7 MUL ADD SWAP4 POP DUP4 PUSH1 0x5 ADD PUSH0 SWAP1 SLOAD SWAP1 PUSH2 0x100 EXP SWAP1 DIV PUSH1 0xFF AND PUSH2 0x13B8 JUMPI PUSH0 PUSH2 0x135C DUP6 PUSH1 0x1 ADD SLOAD PUSH1 0x11 SLOAD PUSH2 0x1B7A JUMP JUMPDEST SWAP1 POP PUSH0 PUSH2 0x136D DUP7 PUSH1 0x4 ADD SLOAD DUP7 PUSH2 0x1B7A JUMP JUMPDEST SWAP1 POP PUSH1 0x1 DUP7 PUSH1 0x5 ADD PUSH0 PUSH2 0x100 EXP DUP2 SLOAD DUP2 PUSH1 0xFF MUL NOT AND SWAP1 DUP4 ISZERO ISZERO MUL OR SWAP1 SSTORE POP PUSH2 0x13A8 DUP2 DUP4 PUSH2 0x139A SWAP2 SWAP1 PUSH2 0x3235 JUMP JUMPDEST PUSH8 0x1BC16D674EC80000 PUSH2 0x1B7A JUMP JUMPDEST DUP5 PUSH2 0x13B3 SWAP2 SWAP1 PUSH2 0x3235 JUMP JUMPDEST SWAP4 POP POP POP JUMPDEST DUP1 DUP1 PUSH1 0x1 ADD SWAP2 POP POP PUSH2 0x12EE JUMP JUMPDEST POP PUSH0 DUP2 GT PUSH2 0x13D8 JUMPI POP POP POP POP POP POP PUSH2 0x1485 JUMP JUMPDEST PUSH0 PUSH2 0x13F2 DUP3 PUSH1 0x4 PUSH1 0x14 SWAP1 SLOAD SWAP1 PUSH2 0x100 EXP SWAP1 DIV PUSH1 0xFF AND PUSH2 0x1B8D JUMP JUMPDEST SWAP1 POP PUSH1 0xC PUSH0 SWAP1 SLOAD SWAP1 PUSH2 0x100 EXP SWAP1 DIV PUSH20 0xFFFFFFFFFFFFFFFFFFFFFFFFFFFFFFFFFFFFFFFF AND PUSH20 0xFFFFFFFFFFFFFFFFFFFFFFFFFFFFFFFFFFFFFFFF AND PUSH4 0x8CDA7BB4 DUP3 DUP10 PUSH1 0x40 MLOAD DUP4 PUSH4 0xFFFFFFFF AND PUSH1 0xE0 SHL DUP2 MSTORE PUSH1 0x4 ADD PUSH2 0x1450 SWAP3 SWAP2 SWAP1 PUSH2 0x3268 JUMP JUMPDEST PUSH0 PUSH1 0x40 MLOAD DUP1 DUP4 SUB DUP2 PUSH0 DUP8 DUP1 EXTCODESIZE ISZERO DUP1 ISZERO PUSH2 0x1467 JUMPI PUSH0 DUP1 REVERT JUMPDEST POP GAS CALL ISZERO DUP1 ISZERO PUSH2 0x1479 JUMPI RETURNDATASIZE PUSH0 DUP1 RETURNDATACOPY RETURNDATASIZE PUSH0 REVERT JUMPDEST POP POP POP POP POP POP POP POP POP POP POP JUMPDEST JUMP JUMPDEST PUSH0 PUSH1 0x9 PUSH0 CALLER PUSH20 0xFFFFFFFFFFFFFFFFFFFFFFFFFFFFFFFFFFFFFFFF AND PUSH20 0xFFFFFFFFFFFFFFFFFFFFFFFFFFFFFFFFFFFFFFFF AND DUP2 MSTORE PUSH1 0x20 ADD SWAP1 DUP2 MSTORE PUSH1 0x20 ADD PUSH0 KECCAK256 DUP1 SLOAD DUP1 PUSH1 0x20 MUL PUSH1 0x20 ADD PUSH1 0x40 MLOAD SWAP1 DUP2 ADD PUSH1 0x40 MSTORE DUP1 SWAP3 SWAP2 SWAP1 DUP2 DUP2 MSTORE PUSH1 0x20 ADD DUP3 DUP1 SLOAD DUP1 ISZERO PUSH2 0x150D JUMPI PUSH1 0x20 MUL DUP3 ADD SWAP2 SWAP1 PUSH0 MSTORE PUSH1 0x20 PUSH0 KECCAK256 SWAP1 JUMPDEST DUP2 SLOAD DUP2 MSTORE PUSH1 0x20 ADD SWAP1 PUSH1 0x1 ADD SWAP1 DUP1 DUP4 GT PUSH2 0x14F9 JUMPI JUMPDEST POP POP POP POP POP SWAP1 POP PUSH0 PUSH1 0x7 SLOAD SWAP1 POP PUSH0 PUSH2 0x1534 DUP5 PUSH1 0x4 PUSH1 0x14 SWAP1 SLOAD SWAP1 PUSH2 0x100 EXP SWAP1 DIV PUSH1 0xFF AND PUSH2 0x1B4B JUMP JUMPDEST SWAP1 POP PUSH0 PUSH2 0x1541 DUP3 DUP5 PUSH2 0x2157 JUMP JUMPDEST SWAP1 POP PUSH2 0x154C DUP2 PUSH2 0x1D1A JUMP JUMPDEST DUP2 PUSH2 0x1557 SWAP2 SWAP1 PUSH2 0x328F JUMP JUMPDEST SWAP1 POP PUSH0 PUSH2 0x1564 DUP3 DUP6 PUSH2 0x1B7A JUMP JUMPDEST SWAP1 POP PUSH0 PUSH2 0x1572 DUP3 PUSH1 0x12 PUSH2 0x1B8D JUMP JUMPDEST SWAP1 POP PUSH0 DUP1 PUSH0 DUP9 MLOAD SWAP1 POP JUMPDEST PUSH0 DUP2 GT DUP1 ISZERO PUSH2 0x158A JUMPI POP PUSH0 DUP5 GT JUMPDEST ISZERO PUSH2 0x15E7 JUMPI PUSH2 0x1598 PUSH0 PUSH2 0x1F21 JUMP JUMPDEST DUP1 SWAP4 POP DUP2 SWAP5 POP POP POP PUSH2 0x15D2 DUP10 PUSH1 0x1 DUP4 PUSH2 0x15B1 SWAP2 SWAP1 PUSH2 0x328F JUMP JUMPDEST DUP2 MLOAD DUP2 LT PUSH2 0x15C2 JUMPI PUSH2 0x15C1 PUSH2 0x31DB JUMP JUMPDEST JUMPDEST PUSH1 0x20 MUL PUSH1 0x20 ADD ADD MLOAD DUP4 DUP7 DUP12 PUSH2 0x216A JUMP JUMPDEST SWAP4 POP DUP1 DUP1 PUSH2 0x15DF SWAP1 PUSH2 0x32C2 JUMP JUMPDEST SWAP2 POP POP PUSH2 0x157C JUMP JUMPDEST POP PUSH0 DUP4 GT ISZERO PUSH2 0x1622 JUMPI PUSH1 0x40 MLOAD PUSH32 0xBB55FD2700000000000000000000000000000000000000000000000000000000 DUP2 MSTORE PUSH1 0x4 ADD PUSH1 0x40 MLOAD DUP1 SWAP2 SUB SWAP1 REVERT JUMPDEST POP POP POP POP POP POP POP POP POP JUMP JUMPDEST PUSH1 0x3 PUSH0 SWAP1 SLOAD SWAP1 PUSH2 0x100 EXP SWAP1 DIV PUSH20 0xFFFFFFFFFFFFFFFFFFFFFFFFFFFFFFFFFFFFFFFF AND PUSH20 0xFFFFFFFFFFFFFFFFFFFFFFFFFFFFFFFFFFFFFFFF AND PUSH4 0x23B872DD CALLER PUSH1 0x6 PUSH0 SWAP1 SLOAD SWAP1 PUSH2 0x100 EXP SWAP1 DIV PUSH20 0xFFFFFFFFFFFFFFFFFFFFFFFFFFFFFFFFFFFFFFFF AND DUP5 PUSH1 0x40 MLOAD DUP5 PUSH4 0xFFFFFFFF AND PUSH1 0xE0 SHL DUP2 MSTORE PUSH1 0x4 ADD PUSH2 0x16AC SWAP4 SWAP3 SWAP2 SWAP1 PUSH2 0x3328 JUMP JUMPDEST PUSH1 0x20 PUSH1 0x40 MLOAD DUP1 DUP4 SUB DUP2 PUSH0 DUP8 GAS CALL ISZERO DUP1 ISZERO PUSH2 0x16C8 JUMPI RETURNDATASIZE PUSH0 DUP1 RETURNDATACOPY RETURNDATASIZE PUSH0 REVERT JUMPDEST POP POP POP POP PUSH1 0x40 MLOAD RETURNDATASIZE PUSH1 0x1F NOT PUSH1 0x1F DUP3 ADD AND DUP3 ADD DUP1 PUSH1 0x40 MSTORE POP DUP2 ADD SWAP1 PUSH2 0x16EC SWAP2 SWAP1 PUSH2 0x3371 JUMP JUMPDEST PUSH2 0x1722 JUMPI PUSH1 0x40 MLOAD PUSH32 0x79CACFF100000000000000000000000000000000000000000000000000000000 DUP2 MSTORE PUSH1 0x4 ADD PUSH1 0x40 MLOAD DUP1 SWAP2 SUB SWAP1 REVERT JUMPDEST PUSH2 0x172D DUP2 PUSH1 0x1 PUSH2 0x2258 JUMP JUMPDEST POP JUMP JUMPDEST PUSH2 0x1738 PUSH2 0x2A0A JUMP JUMPDEST PUSH0 PUSH1 0x9 PUSH0 DUP6 PUSH20 0xFFFFFFFFFFFFFFFFFFFFFFFFFFFFFFFFFFFFFFFF AND PUSH20 0xFFFFFFFFFFFFFFFFFFFFFFFFFFFFFFFFFFFFFFFF AND DUP2 MSTORE PUSH1 0x20 ADD SWAP1 DUP2 MSTORE PUSH1 0x20 ADD PUSH0 KECCAK256 DUP1 SLOAD DUP1 PUSH1 0x20 MUL PUSH1 0x20 ADD PUSH1 0x40 MLOAD SWAP1 DUP2 ADD PUSH1 0x40 MSTORE DUP1 SWAP3 SWAP2 SWAP1 DUP2 DUP2 MSTORE PUSH1 0x20 ADD DUP3 DUP1 SLOAD DUP1 ISZERO PUSH2 0x17BE JUMPI PUSH1 0x20 MUL DUP3 ADD SWAP2 SWAP1 PUSH0 MSTORE PUSH1 0x20 PUSH0 KECCAK256 SWAP1 JUMPDEST DUP2 SLOAD DUP2 MSTORE PUSH1 0x20 ADD SWAP1 PUSH1 0x1 ADD SWAP1 DUP1 DUP4 GT PUSH2 0x17AA JUMPI JUMPDEST POP POP POP POP POP SWAP1 POP PUSH0 DUP2 DUP5 DUP2 MLOAD DUP2 LT PUSH2 0x17D9 JUMPI PUSH2 0x17D8 PUSH2 0x31DB JUMP JUMPDEST JUMPDEST PUSH1 0x20 MUL PUSH1 0x20 ADD ADD MLOAD SWAP1 POP PUSH0 PUSH1 0xA DUP3 DUP2 SLOAD DUP2 LT PUSH2 0x17F8 JUMPI PUSH2 0x17F7 PUSH2 0x31DB JUMP JUMPDEST JUMPDEST SWAP1 PUSH0 MSTORE PUSH1 0x20 PUSH0 KECCAK256 SWAP1 PUSH1 0x7 MUL ADD PUSH1 0x40 MLOAD DUP1 PUSH1 0xE0 ADD PUSH1 0x40 MSTORE SWAP1 DUP2 PUSH0 DUP3 ADD PUSH0 SWAP1 SLOAD SWAP1 PUSH2 0x100 EXP SWAP1 DIV PUSH20 0xFFFFFFFFFFFFFFFFFFFFFFFFFFFFFFFFFFFFFFFF AND PUSH20 0xFFFFFFFFFFFFFFFFFFFFFFFFFFFFFFFFFFFFFFFF AND PUSH20 0xFFFFFFFFFFFFFFFFFFFFFFFFFFFFFFFFFFFFFFFF AND DUP2 MSTORE PUSH1 0x20 ADD PUSH1 0x1 DUP3 ADD SLOAD DUP2 MSTORE PUSH1 0x20 ADD PUSH1 0x2 DUP3 ADD SLOAD DUP2 MSTORE PUSH1 0x20 ADD PUSH1 0x3 DUP3 ADD SLOAD DUP2 MSTORE PUSH1 0x20 ADD PUSH1 0x4 DUP3 ADD SLOAD DUP2 MSTORE PUSH1 0x20 ADD PUSH1 0x5 DUP3 ADD PUSH0 SWAP1 SLOAD SWAP1 PUSH2 0x100 EXP SWAP1 DIV PUSH1 0xFF AND ISZERO ISZERO ISZERO ISZERO DUP2 MSTORE PUSH1 0x20 ADD PUSH1 0x6 DUP3 ADD SLOAD DUP2 MSTORE POP POP SWAP1 POP PUSH1 0x40 MLOAD DUP1 PUSH1 0xC0 ADD PUSH1 0x40 MSTORE DUP1 DUP3 PUSH0 ADD MLOAD PUSH20 0xFFFFFFFFFFFFFFFFFFFFFFFFFFFFFFFFFFFFFFFF AND DUP2 MSTORE PUSH1 0x20 ADD DUP3 PUSH1 0x20 ADD MLOAD DUP2 MSTORE PUSH1 0x20 ADD DUP3 PUSH1 0x40 ADD MLOAD DUP2 MSTORE PUSH1 0x20 ADD DUP3 PUSH1 0x60 ADD MLOAD DUP2 MSTORE PUSH1 0x20 ADD DUP3 PUSH1 0x80 ADD MLOAD DUP2 MSTORE PUSH1 0x20 ADD DUP3 PUSH1 0xA0 ADD MLOAD ISZERO ISZERO DUP2 MSTORE POP SWAP4 POP POP POP POP SWAP3 SWAP2 POP POP JUMP JUMPDEST PUSH0 DUP1 PUSH0 PUSH8 0xFFFFFFFFFFFFFFFF DUP2 GT ISZERO PUSH2 0x1934 JUMPI PUSH2 0x1933 PUSH2 0x2FD6 JUMP JUMPDEST JUMPDEST PUSH1 0x40 MLOAD SWAP1 DUP1 DUP3 MSTORE DUP1 PUSH1 0x1F ADD PUSH1 0x1F NOT AND PUSH1 0x20 ADD DUP3 ADD PUSH1 0x40 MSTORE DUP1 ISZERO PUSH2 0x1966 JUMPI DUP2 PUSH1 0x20 ADD PUSH1 0x1 DUP3 MUL DUP1 CALLDATASIZE DUP4 CALLDATACOPY DUP1 DUP3 ADD SWAP2 POP POP SWAP1 POP JUMPDEST POP SWAP1 POP PUSH0 JUMPDEST DUP4 DUP2 LT ISZERO PUSH2 0x1ACB JUMPI PUSH1 0x4 PUSH0 SWAP1 SLOAD SWAP1 PUSH2 0x100 EXP SWAP1 DIV PUSH20 0xFFFFFFFFFFFFFFFFFFFFFFFFFFFFFFFFFFFFFFFF AND PUSH20 0xFFFFFFFFFFFFFFFFFFFFFFFFFFFFFFFFFFFFFFFF AND PUSH4 0x2F745C59 CALLER DUP4 PUSH1 0x40 MLOAD DUP4 PUSH4 0xFFFFFFFF AND PUSH1 0xE0 SHL DUP2 MSTORE PUSH1 0x4 ADD PUSH2 0x19CF SWAP3 SWAP2 SWAP1 PUSH2 0x339C JUMP JUMPDEST PUSH1 0x20 PUSH1 0x40 MLOAD DUP1 DUP4 SUB DUP2 DUP7 GAS STATICCALL ISZERO DUP1 ISZERO PUSH2 0x19EA JUMPI RETURNDATASIZE PUSH0 DUP1 RETURNDATACOPY RETURNDATASIZE PUSH0 REVERT JUMPDEST POP POP POP POP PUSH1 0x40 MLOAD RETURNDATASIZE PUSH1 0x1F NOT PUSH1 0x1F DUP3 ADD AND DUP3 ADD DUP1 PUSH1 0x40 MSTORE POP DUP2 ADD SWAP1 PUSH2 0x1A0E SWAP2 SWAP1 PUSH2 0x32FD JUMP JUMPDEST SWAP3 POP PUSH1 0x4 PUSH0 SWAP1 SLOAD SWAP1 PUSH2 0x100 EXP SWAP1 DIV PUSH20 0xFFFFFFFFFFFFFFFFFFFFFFFFFFFFFFFFFFFFFFFF AND PUSH20 0xFFFFFFFFFFFFFFFFFFFFFFFFFFFFFFFFFFFFFFFF AND PUSH4 0xB88D4FDE CALLER PUSH1 0x6 PUSH0 SWAP1 SLOAD SWAP1 PUSH2 0x100 EXP SWAP1 DIV PUSH20 0xFFFFFFFFFFFFFFFFFFFFFFFFFFFFFFFFFFFFFFFF AND DUP7 DUP7 PUSH1 0x40 MLOAD DUP6 PUSH4 0xFFFFFFFF AND PUSH1 0xE0 SHL DUP2 MSTORE PUSH1 0x4 ADD PUSH2 0x1A91 SWAP5 SWAP4 SWAP3 SWAP2 SWAP1 PUSH2 0x3415 JUMP JUMPDEST PUSH0 PUSH1 0x40 MLOAD DUP1 DUP4 SUB DUP2 PUSH0 DUP8 DUP1 EXTCODESIZE ISZERO DUP1 ISZERO PUSH2 0x1AA8 JUMPI PUSH0 DUP1 REVERT JUMPDEST POP GAS CALL ISZERO DUP1 ISZERO PUSH2 0x1ABA JUMPI RETURNDATASIZE PUSH0 DUP1 RETURNDATACOPY RETURNDATASIZE PUSH0 REVERT JUMPDEST POP POP POP POP DUP1 DUP1 PUSH1 0x1 ADD SWAP2 POP POP PUSH2 0x196B JUMP JUMPDEST POP PUSH2 0x1AD7 DUP4 PUSH1 0x1 PUSH2 0x2258 JUMP JUMPDEST POP POP POP JUMP JUMPDEST PUSH2 0x1AE4 PUSH2 0x10DC JUMP JUMPDEST PUSH2 0x1AEC JUMPI PUSH0 DUP1 REVERT JUMPDEST PUSH2 0x1AF5 DUP2 PUSH2 0x2465 JUMP JUMPDEST POP JUMP JUMPDEST PUSH2 0x1B00 PUSH2 0x10DC JUMP JUMPDEST PUSH2 0x1B08 JUMPI PUSH0 DUP1 REVERT JUMPDEST DUP1 PUSH1 0x5 PUSH0 PUSH2 0x100 EXP DUP2 SLOAD DUP2 PUSH20 0xFFFFFFFFFFFFFFFFFFFFFFFFFFFFFFFFFFFFFFFF MUL NOT AND SWAP1 DUP4 PUSH20 0xFFFFFFFFFFFFFFFFFFFFFFFFFFFFFFFFFFFFFFFF AND MUL OR SWAP1 SSTORE POP POP JUMP JUMPDEST PUSH0 PUSH1 0x1 DUP3 PUSH1 0xFF AND EQ PUSH2 0x1B70 JUMPI PUSH2 0x1B60 DUP3 PUSH2 0x2557 JUMP JUMPDEST DUP4 PUSH2 0x1B6B SWAP2 SWAP1 PUSH2 0x345F JUMP JUMPDEST PUSH2 0x1B72 JUMP JUMPDEST DUP3 JUMPDEST SWAP1 POP SWAP3 SWAP2 POP POP JUMP JUMPDEST PUSH0 PUSH2 0x1B85 DUP4 DUP4 PUSH2 0x25A7 JUMP JUMPDEST SWAP1 POP SWAP3 SWAP2 POP POP JUMP JUMPDEST PUSH0 PUSH1 0x1 DUP3 PUSH1 0xFF AND EQ PUSH2 0x1BB2 JUMPI PUSH2 0x1BA2 DUP3 PUSH2 0x2557 JUMP JUMPDEST DUP4 PUSH2 0x1BAD SWAP2 SWAP1 PUSH2 0x34CD JUMP JUMPDEST PUSH2 0x1BB4 JUMP JUMPDEST DUP3 JUMPDEST SWAP1 POP SWAP3 SWAP2 POP POP JUMP JUMPDEST PUSH0 DUP3 PUSH1 0xC0 ADD MLOAD SWAP1 POP PUSH0 DUP1 PUSH1 0x9 PUSH0 CALLER PUSH20 0xFFFFFFFFFFFFFFFFFFFFFFFFFFFFFFFFFFFFFFFF AND PUSH20 0xFFFFFFFFFFFFFFFFFFFFFFFFFFFFFFFFFFFFFFFF AND DUP2 MSTORE PUSH1 0x20 ADD SWAP1 DUP2 MSTORE PUSH1 0x20 ADD PUSH0 KECCAK256 SWAP1 POP PUSH2 0x1C0F DUP2 DUP5 PUSH2 0x25C3 JUMP JUMPDEST ISZERO PUSH2 0x1C5B JUMPI PUSH1 0xA DUP2 DUP5 DUP2 SLOAD DUP2 LT PUSH2 0x1C29 JUMPI PUSH2 0x1C28 PUSH2 0x31DB JUMP JUMPDEST JUMPDEST SWAP1 PUSH0 MSTORE PUSH1 0x20 PUSH0 KECCAK256 ADD SLOAD DUP2 SLOAD DUP2 LT PUSH2 0x1C43 JUMPI PUSH2 0x1C42 PUSH2 0x31DB JUMP JUMPDEST JUMPDEST SWAP1 PUSH0 MSTORE PUSH1 0x20 PUSH0 KECCAK256 SWAP1 PUSH1 0x7 MUL ADD SWAP2 POP DUP3 DUP3 PUSH1 0x6 ADD DUP2 SWAP1 SSTORE POP JUMPDEST PUSH2 0x1C66 PUSH1 0xA DUP6 PUSH2 0x264F JUMP JUMPDEST ISZERO PUSH2 0x1D13 JUMPI PUSH1 0xA DUP5 DUP2 SLOAD DUP2 LT PUSH2 0x1C7F JUMPI PUSH2 0x1C7E PUSH2 0x31DB JUMP JUMPDEST JUMPDEST SWAP1 PUSH0 MSTORE PUSH1 0x20 PUSH0 KECCAK256 SWAP1 PUSH1 0x7 MUL ADD SWAP2 POP DUP2 PUSH1 0x6 ADD SLOAD SWAP3 POP DUP4 PUSH1 0x9 PUSH0 DUP5 PUSH0 ADD PUSH0 SWAP1 SLOAD SWAP1 PUSH2 0x100 EXP SWAP1 DIV PUSH20 0xFFFFFFFFFFFFFFFFFFFFFFFFFFFFFFFFFFFFFFFF AND PUSH20 0xFFFFFFFFFFFFFFFFFFFFFFFFFFFFFFFFFFFFFFFF AND PUSH20 0xFFFFFFFFFFFFFFFFFFFFFFFFFFFFFFFFFFFFFFFF AND DUP2 MSTORE PUSH1 0x20 ADD SWAP1 DUP2 MSTORE PUSH1 0x20 ADD PUSH0 KECCAK256 DUP5 DUP2 SLOAD DUP2 LT PUSH2 0x1D06 JUMPI PUSH2 0x1D05 PUSH2 0x31DB JUMP JUMPDEST JUMPDEST SWAP1 PUSH0 MSTORE PUSH1 0x20 PUSH0 KECCAK256 ADD DUP2 SWAP1 SSTORE POP JUMPDEST POP POP POP POP POP JUMP JUMPDEST PUSH0 DUP1 PUSH2 0x1D2D DUP4 PUSH7 0x1C6BF52634000 PUSH2 0x2157 JUMP JUMPDEST SWAP1 POP PUSH0 PUSH2 0x1D42 DUP3 PUSH8 0x4563918244F40000 PUSH2 0x1B7A JUMP JUMPDEST SWAP1 POP PUSH0 DUP2 DUP4 PUSH2 0x1D51 SWAP2 SWAP1 PUSH2 0x328F JUMP JUMPDEST SWAP1 POP PUSH0 PUSH2 0x1D6D DUP4 PUSH1 0x4 PUSH1 0x14 SWAP1 SLOAD SWAP1 PUSH2 0x100 EXP SWAP1 DIV PUSH1 0xFF AND PUSH2 0x1B8D JUMP JUMPDEST SWAP1 POP PUSH0 PUSH2 0x1D89 DUP4 PUSH1 0x4 PUSH1 0x14 SWAP1 SLOAD SWAP1 PUSH2 0x100 EXP SWAP1 DIV PUSH1 0xFF AND PUSH2 0x1B8D JUMP JUMPDEST SWAP1 POP PUSH0 PUSH1 0x3 PUSH0 SWAP1 SLOAD SWAP1 PUSH2 0x100 EXP SWAP1 DIV PUSH20 0xFFFFFFFFFFFFFFFFFFFFFFFFFFFFFFFFFFFFFFFF AND PUSH20 0xFFFFFFFFFFFFFFFFFFFFFFFFFFFFFFFFFFFFFFFF AND PUSH4 0xA9059CBB PUSH1 0x5 PUSH0 SWAP1 SLOAD SWAP1 PUSH2 0x100 EXP SWAP1 DIV PUSH20 0xFFFFFFFFFFFFFFFFFFFFFFFFFFFFFFFFFFFFFFFF AND DUP6 PUSH1 0x40 MLOAD DUP4 PUSH4 0xFFFFFFFF AND PUSH1 0xE0 SHL DUP2 MSTORE PUSH1 0x4 ADD PUSH2 0x1E09 SWAP3 SWAP2 SWAP1 PUSH2 0x339C JUMP JUMPDEST PUSH1 0x20 PUSH1 0x40 MLOAD DUP1 DUP4 SUB DUP2 PUSH0 DUP8 GAS CALL ISZERO DUP1 ISZERO PUSH2 0x1E25 JUMPI RETURNDATASIZE PUSH0 DUP1 RETURNDATACOPY RETURNDATASIZE PUSH0 REVERT JUMPDEST POP POP POP POP PUSH1 0x40 MLOAD RETURNDATASIZE PUSH1 0x1F NOT PUSH1 0x1F DUP3 ADD AND DUP3 ADD DUP1 PUSH1 0x40 MSTORE POP DUP2 ADD SWAP1 PUSH2 0x1E49 SWAP2 SWAP1 PUSH2 0x3371 JUMP JUMPDEST SWAP1 POP DUP1 PUSH2 0x1E54 JUMPI PUSH0 DUP1 REVERT JUMPDEST PUSH1 0x3 PUSH0 SWAP1 SLOAD SWAP1 PUSH2 0x100 EXP SWAP1 DIV PUSH20 0xFFFFFFFFFFFFFFFFFFFFFFFFFFFFFFFFFFFFFFFF AND PUSH20 0xFFFFFFFFFFFFFFFFFFFFFFFFFFFFFFFFFFFFFFFF AND PUSH4 0xA9059CBB ADDRESS DUP5 PUSH1 0x40 MLOAD DUP4 PUSH4 0xFFFFFFFF AND PUSH1 0xE0 SHL DUP2 MSTORE PUSH1 0x4 ADD PUSH2 0x1EB0 SWAP3 SWAP2 SWAP1 PUSH2 0x339C JUMP JUMPDEST PUSH1 0x20 PUSH1 0x40 MLOAD DUP1 DUP4 SUB DUP2 PUSH0 DUP8 GAS CALL ISZERO DUP1 ISZERO PUSH2 0x1ECC JUMPI RETURNDATASIZE PUSH0 DUP1 RETURNDATACOPY RETURNDATASIZE PUSH0 REVERT JUMPDEST POP POP POP POP PUSH1 0x40 MLOAD RETURNDATASIZE PUSH1 0x1F NOT PUSH1 0x1F DUP3 ADD AND DUP3 ADD DUP1 PUSH1 0x40 MSTORE POP DUP2 ADD SWAP1 PUSH2 0x1EF0 SWAP2 SWAP1 PUSH2 0x3371 JUMP JUMPDEST SWAP1 POP DUP1 PUSH2 0x1EFB JUMPI PUSH0 DUP1 REVERT JUMPDEST DUP4 PUSH1 0xB PUSH0 DUP3 DUP3 SLOAD PUSH2 0x1F0C SWAP2 SWAP1 PUSH2 0x3235 JUMP JUMPDEST SWAP3 POP POP DUP2 SWAP1 SSTORE POP DUP6 SWAP7 POP POP POP POP POP POP POP SWAP2 SWAP1 POP JUMP JUMPDEST PUSH0 DUP1 PUSH2 0x1F2B PUSH2 0x2A52 JUMP JUMPDEST PUSH0 PUSH1 0xA DUP1 SLOAD SWAP1 POP SWAP1 POP JUMPDEST PUSH0 DUP2 GT DUP1 ISZERO PUSH2 0x1F42 JUMPI POP DUP4 ISZERO JUMPDEST ISZERO PUSH2 0x2070 JUMPI PUSH1 0x1 DUP2 PUSH2 0x1F54 SWAP2 SWAP1 PUSH2 0x328F JUMP JUMPDEST SWAP3 POP PUSH1 0xA DUP4 DUP2 SLOAD DUP2 LT PUSH2 0x1F6A JUMPI PUSH2 0x1F69 PUSH2 0x31DB JUMP JUMPDEST JUMPDEST SWAP1 PUSH0 MSTORE PUSH1 0x20 PUSH0 KECCAK256 SWAP1 PUSH1 0x7 MUL ADD PUSH1 0x40 MLOAD DUP1 PUSH1 0xE0 ADD PUSH1 0x40 MSTORE SWAP1 DUP2 PUSH0 DUP3 ADD PUSH0 SWAP1 SLOAD SWAP1 PUSH2 0x100 EXP SWAP1 DIV PUSH20 0xFFFFFFFFFFFFFFFFFFFFFFFFFFFFFFFFFFFFFFFF AND PUSH20 0xFFFFFFFFFFFFFFFFFFFFFFFFFFFFFFFFFFFFFFFF AND PUSH20 0xFFFFFFFFFFFFFFFFFFFFFFFFFFFFFFFFFFFFFFFF AND DUP2 MSTORE PUSH1 0x20 ADD PUSH1 0x1 DUP3 ADD SLOAD DUP2 MSTORE PUSH1 0x20 ADD PUSH1 0x2 DUP3 ADD SLOAD DUP2 MSTORE PUSH1 0x20 ADD PUSH1 0x3 DUP3 ADD SLOAD DUP2 MSTORE PUSH1 0x20 ADD PUSH1 0x4 DUP3 ADD SLOAD DUP2 MSTORE PUSH1 0x20 ADD PUSH1 0x5 DUP3 ADD PUSH0 SWAP1 SLOAD SWAP1 PUSH2 0x100 EXP SWAP1 DIV PUSH1 0xFF AND ISZERO ISZERO ISZERO ISZERO DUP2 MSTORE PUSH1 0x20 ADD PUSH1 0x6 DUP3 ADD SLOAD DUP2 MSTORE POP POP SWAP2 POP DUP5 ISZERO DUP1 ISZERO PUSH2 0x2034 JUMPI POP PUSH0 DUP3 PUSH1 0x80 ADD MLOAD GT JUMPDEST ISZERO PUSH2 0x2042 JUMPI PUSH1 0x1 SWAP4 POP PUSH2 0x205D JUMP JUMPDEST DUP5 DUP1 ISZERO PUSH2 0x2052 JUMPI POP PUSH0 DUP3 PUSH1 0x60 ADD MLOAD GT JUMPDEST ISZERO PUSH2 0x205C JUMPI PUSH1 0x1 SWAP4 POP JUMPDEST JUMPDEST DUP1 DUP1 PUSH2 0x2068 SWAP1 PUSH2 0x32C2 JUMP JUMPDEST SWAP2 POP POP PUSH2 0x1F35 JUMP JUMPDEST POP POP SWAP2 POP SWAP2 JUMP JUMPDEST PUSH0 DUP1 PUSH1 0xA DUP7 DUP2 SLOAD DUP2 LT PUSH2 0x208D JUMPI PUSH2 0x208C PUSH2 0x31DB JUMP JUMPDEST JUMPDEST SWAP1 PUSH0 MSTORE PUSH1 0x20 PUSH0 KECCAK256 SWAP1 PUSH1 0x7 MUL ADD SWAP1 POP PUSH0 PUSH1 0xA DUP7 DUP2 SLOAD DUP2 LT PUSH2 0x20B0 JUMPI PUSH2 0x20AF PUSH2 0x31DB JUMP JUMPDEST JUMPDEST SWAP1 PUSH0 MSTORE PUSH1 0x20 PUSH0 KECCAK256 SWAP1 PUSH1 0x7 MUL ADD SWAP1 POP PUSH0 DUP3 PUSH1 0x4 ADD SLOAD SWAP1 POP PUSH0 DUP7 DUP3 GT ISZERO PUSH2 0x20D5 JUMPI DUP7 PUSH2 0x20D7 JUMP JUMPDEST DUP2 JUMPDEST SWAP1 POP DUP1 DUP5 PUSH1 0x4 ADD PUSH0 DUP3 DUP3 SLOAD PUSH2 0x20EC SWAP2 SWAP1 PUSH2 0x328F JUMP JUMPDEST SWAP3 POP POP DUP2 SWAP1 SSTORE POP DUP1 DUP8 PUSH2 0x20FF SWAP2 SWAP1 PUSH2 0x328F JUMP JUMPDEST SWAP7 POP DUP1 DUP4 PUSH1 0x4 ADD PUSH0 DUP3 DUP3 SLOAD PUSH2 0x2114 SWAP2 SWAP1 PUSH2 0x3235 JUMP JUMPDEST SWAP3 POP POP DUP2 SWAP1 SSTORE POP PUSH2 0x212F PUSH2 0x2128 DUP3 DUP9 PUSH2 0x1B7A JUMP JUMPDEST PUSH1 0x12 PUSH2 0x1B8D JUMP JUMPDEST DUP5 PUSH1 0x3 ADD PUSH0 DUP3 DUP3 SLOAD PUSH2 0x2141 SWAP2 SWAP1 PUSH2 0x3235 JUMP JUMPDEST SWAP3 POP POP DUP2 SWAP1 SSTORE POP DUP7 SWAP5 POP POP POP POP POP SWAP5 SWAP4 POP POP POP POP JUMP JUMPDEST PUSH0 PUSH2 0x2162 DUP4 DUP4 PUSH2 0x2800 JUMP JUMPDEST SWAP1 POP SWAP3 SWAP2 POP POP JUMP JUMPDEST PUSH0 DUP1 PUSH0 PUSH1 0xA DUP8 DUP2 SLOAD DUP2 LT PUSH2 0x2181 JUMPI PUSH2 0x2180 PUSH2 0x31DB JUMP JUMPDEST JUMPDEST SWAP1 PUSH0 MSTORE PUSH1 0x20 PUSH0 KECCAK256 SWAP1 PUSH1 0x7 MUL ADD SWAP1 POP PUSH0 PUSH1 0xA DUP8 DUP2 SLOAD DUP2 LT PUSH2 0x21A4 JUMPI PUSH2 0x21A3 PUSH2 0x31DB JUMP JUMPDEST JUMPDEST SWAP1 PUSH0 MSTORE PUSH1 0x20 PUSH0 KECCAK256 SWAP1 PUSH1 0x7 MUL ADD SWAP1 POP DUP6 DUP3 PUSH1 0x3 ADD SLOAD GT PUSH2 0x21C9 JUMPI DUP2 PUSH1 0x3 ADD SLOAD SWAP3 POP PUSH2 0x21CD JUMP JUMPDEST DUP6 SWAP3 POP JUMPDEST DUP3 DUP3 PUSH1 0x3 ADD PUSH0 DUP3 DUP3 SLOAD PUSH2 0x21E0 SWAP2 SWAP1 PUSH2 0x328F JUMP JUMPDEST SWAP3 POP POP DUP2 SWAP1 SSTORE POP DUP3 DUP7 PUSH2 0x21F3 SWAP2 SWAP1 PUSH2 0x328F JUMP JUMPDEST SWAP6 POP PUSH2 0x2217 PUSH2 0x2202 DUP5 DUP8 PUSH2 0x2157 JUMP JUMPDEST PUSH1 0x4 PUSH1 0x14 SWAP1 SLOAD SWAP1 PUSH2 0x100 EXP SWAP1 DIV PUSH1 0xFF AND PUSH2 0x1B4B JUMP JUMPDEST DUP3 PUSH1 0x4 ADD PUSH0 DUP3 DUP3 SLOAD PUSH2 0x2229 SWAP2 SWAP1 PUSH2 0x3235 JUMP JUMPDEST SWAP3 POP POP DUP2 SWAP1 SSTORE POP DUP3 DUP2 PUSH1 0x3 ADD PUSH0 DUP3 DUP3 SLOAD PUSH2 0x2243 SWAP2 SWAP1 PUSH2 0x3235 JUMP JUMPDEST SWAP3 POP POP DUP2 SWAP1 SSTORE POP DUP6 SWAP4 POP POP POP POP SWAP5 SWAP4 POP POP POP POP JUMP JUMPDEST PUSH0 PUSH1 0x9 PUSH0 CALLER PUSH20 0xFFFFFFFFFFFFFFFFFFFFFFFFFFFFFFFFFFFFFFFF AND PUSH20 0xFFFFFFFFFFFFFFFFFFFFFFFFFFFFFFFFFFFFFFFF AND DUP2 MSTORE PUSH1 0x20 ADD SWAP1 DUP2 MSTORE PUSH1 0x20 ADD PUSH0 KECCAK256 SWAP1 POP PUSH0 DUP2 DUP1 SLOAD SWAP1 POP SWAP1 POP PUSH0 DUP1 DUP5 ISZERO PUSH2 0x22B0 JUMPI DUP6 SWAP2 POP PUSH2 0x22CC JUMP JUMPDEST PUSH2 0x22C9 DUP7 PUSH1 0x4 PUSH1 0x14 SWAP1 SLOAD SWAP1 PUSH2 0x100 EXP SWAP1 DIV PUSH1 0xFF AND PUSH2 0x1B4B JUMP JUMPDEST SWAP1 POP JUMPDEST PUSH0 TIMESTAMP SWAP1 POP DUP1 PUSH1 0x11 PUSH0 DUP3 DUP3 SLOAD PUSH2 0x22E1 SWAP2 SWAP1 PUSH2 0x3235 JUMP JUMPDEST SWAP3 POP POP DUP2 SWAP1 SSTORE POP PUSH0 PUSH1 0x40 MLOAD DUP1 PUSH1 0xE0 ADD PUSH1 0x40 MSTORE DUP1 CALLER PUSH20 0xFFFFFFFFFFFFFFFFFFFFFFFFFFFFFFFFFFFFFFFF AND DUP2 MSTORE PUSH1 0x20 ADD DUP4 DUP2 MSTORE PUSH1 0x20 ADD PUSH1 0x7 SLOAD DUP2 MSTORE PUSH1 0x20 ADD DUP6 DUP2 MSTORE PUSH1 0x20 ADD DUP5 DUP2 MSTORE PUSH1 0x20 ADD PUSH0 ISZERO ISZERO DUP2 MSTORE PUSH1 0x20 ADD DUP8 DUP1 SLOAD SWAP1 POP DUP2 MSTORE POP SWAP1 POP DUP7 ISZERO PUSH2 0x235E JUMPI PUSH1 0xF PUSH0 DUP2 SLOAD DUP1 SWAP3 SWAP2 SWAP1 PUSH2 0x2354 SWAP1 PUSH2 0x34FD JUMP JUMPDEST SWAP2 SWAP1 POP SSTORE POP PUSH2 0x2376 JUMP JUMPDEST PUSH1 0x10 PUSH0 DUP2 SLOAD DUP1 SWAP3 SWAP2 SWAP1 PUSH2 0x2370 SWAP1 PUSH2 0x34FD JUMP JUMPDEST SWAP2 SWAP1 POP SSTORE POP JUMPDEST PUSH1 0xA DUP2 SWAP1 DUP1 PUSH1 0x1 DUP2 SLOAD ADD DUP1 DUP3 SSTORE DUP1 SWAP2 POP POP PUSH1 0x1 SWAP1 SUB SWAP1 PUSH0 MSTORE PUSH1 0x20 PUSH0 KECCAK256 SWAP1 PUSH1 0x7 MUL ADD PUSH0 SWAP1 SWAP2 SWAP1 SWAP2 SWAP1 SWAP2 POP PUSH0 DUP3 ADD MLOAD DUP2 PUSH0 ADD PUSH0 PUSH2 0x100 EXP DUP2 SLOAD DUP2 PUSH20 0xFFFFFFFFFFFFFFFFFFFFFFFFFFFFFFFFFFFFFFFF MUL NOT AND SWAP1 DUP4 PUSH20 0xFFFFFFFFFFFFFFFFFFFFFFFFFFFFFFFFFFFFFFFF AND MUL OR SWAP1 SSTORE POP PUSH1 0x20 DUP3 ADD MLOAD DUP2 PUSH1 0x1 ADD SSTORE PUSH1 0x40 DUP3 ADD MLOAD DUP2 PUSH1 0x2 ADD SSTORE PUSH1 0x60 DUP3 ADD MLOAD DUP2 PUSH1 0x3 ADD SSTORE PUSH1 0x80 DUP3 ADD MLOAD DUP2 PUSH1 0x4 ADD SSTORE PUSH1 0xA0 DUP3 ADD MLOAD DUP2 PUSH1 0x5 ADD PUSH0 PUSH2 0x100 EXP DUP2 SLOAD DUP2 PUSH1 0xFF MUL NOT AND SWAP1 DUP4 ISZERO ISZERO MUL OR SWAP1 SSTORE POP PUSH1 0xC0 DUP3 ADD MLOAD DUP2 PUSH1 0x6 ADD SSTORE POP POP DUP6 DUP6 SWAP1 DUP1 PUSH1 0x1 DUP2 SLOAD ADD DUP1 DUP3 SSTORE DUP1 SWAP2 POP POP PUSH1 0x1 SWAP1 SUB SWAP1 PUSH0 MSTORE PUSH1 0x20 PUSH0 KECCAK256 ADD PUSH0 SWAP1 SWAP2 SWAP1 SWAP2 SWAP1 SWAP2 POP SSTORE POP POP POP POP POP POP POP POP JUMP JUMPDEST PUSH0 PUSH20 0xFFFFFFFFFFFFFFFFFFFFFFFFFFFFFFFFFFFFFFFF AND DUP2 PUSH20 0xFFFFFFFFFFFFFFFFFFFFFFFFFFFFFFFFFFFFFFFF AND SUB PUSH2 0x249C JUMPI PUSH0 DUP1 REVERT JUMPDEST DUP1 PUSH20 0xFFFFFFFFFFFFFFFFFFFFFFFFFFFFFFFFFFFFFFFF AND PUSH0 DUP1 SLOAD SWAP1 PUSH2 0x100 EXP SWAP1 DIV PUSH20 0xFFFFFFFFFFFFFFFFFFFFFFFFFFFFFFFFFFFFFFFF AND PUSH20 0xFFFFFFFFFFFFFFFFFFFFFFFFFFFFFFFFFFFFFFFF AND PUSH32 0x8BE0079C531659141344CD1FD0A4F28419497F9722A3DAAFE3B4186F6B6457E0 PUSH1 0x40 MLOAD PUSH1 0x40 MLOAD DUP1 SWAP2 SUB SWAP1 LOG3 DUP1 PUSH0 DUP1 PUSH2 0x100 EXP DUP2 SLOAD DUP2 PUSH20 0xFFFFFFFFFFFFFFFFFFFFFFFFFFFFFFFFFFFFFFFF MUL NOT AND SWAP1 DUP4 PUSH20 0xFFFFFFFFFFFFFFFFFFFFFFFFFFFFFFFFFFFFFFFF AND MUL OR SWAP1 SSTORE POP POP JUMP JUMPDEST PUSH0 PUSH1 0x8 PUSH0 DUP4 PUSH1 0xFF AND PUSH1 0xFF AND DUP2 MSTORE PUSH1 0x20 ADD SWAP1 DUP2 MSTORE PUSH1 0x20 ADD PUSH0 KECCAK256 SLOAD SWAP1 POP PUSH0 DUP2 SUB PUSH2 0x25A2 JUMPI DUP2 PUSH1 0x12 SUB PUSH1 0xFF AND PUSH1 0xA EXP SWAP1 POP DUP1 PUSH1 0x8 PUSH0 DUP5 PUSH1 0xFF AND PUSH1 0xFF AND DUP2 MSTORE PUSH1 0x20 ADD SWAP1 DUP2 MSTORE PUSH1 0x20 ADD PUSH0 KECCAK256 DUP2 SWAP1 SSTORE POP JUMPDEST SWAP2 SWAP1 POP JUMP JUMPDEST PUSH0 PUSH2 0x25BB DUP4 PUSH8 0xDE0B6B3A7640000 DUP5 PUSH2 0x2813 JUMP JUMPDEST SWAP1 POP SWAP3 SWAP2 POP POP JUMP JUMPDEST PUSH0 DUP1 PUSH1 0x1 DUP5 DUP1 SLOAD SWAP1 POP PUSH2 0x25D6 SWAP2 SWAP1 PUSH2 0x328F JUMP JUMPDEST SWAP1 POP PUSH0 DUP2 DUP5 EQ SWAP1 POP DUP1 PUSH2 0x261F JUMPI DUP5 DUP3 DUP2 SLOAD DUP2 LT PUSH2 0x25F6 JUMPI PUSH2 0x25F5 PUSH2 0x31DB JUMP JUMPDEST JUMPDEST SWAP1 PUSH0 MSTORE PUSH1 0x20 PUSH0 KECCAK256 ADD SLOAD DUP6 DUP6 DUP2 SLOAD DUP2 LT PUSH2 0x2612 JUMPI PUSH2 0x2611 PUSH2 0x31DB JUMP JUMPDEST JUMPDEST SWAP1 PUSH0 MSTORE PUSH1 0x20 PUSH0 KECCAK256 ADD DUP2 SWAP1 SSTORE POP JUMPDEST DUP5 DUP1 SLOAD DUP1 PUSH2 0x2630 JUMPI PUSH2 0x262F PUSH2 0x3544 JUMP JUMPDEST JUMPDEST PUSH1 0x1 SWAP1 SUB DUP2 DUP2 SWAP1 PUSH0 MSTORE PUSH1 0x20 PUSH0 KECCAK256 ADD PUSH0 SWAP1 SSTORE SWAP1 SSTORE DUP1 ISZERO SWAP3 POP POP POP SWAP3 SWAP2 POP POP JUMP JUMPDEST PUSH0 DUP1 PUSH1 0x1 DUP5 DUP1 SLOAD SWAP1 POP PUSH2 0x2662 SWAP2 SWAP1 PUSH2 0x328F JUMP JUMPDEST SWAP1 POP PUSH0 DUP2 DUP5 EQ SWAP1 POP DUP1 PUSH2 0x2771 JUMPI DUP5 DUP3 DUP2 SLOAD DUP2 LT PUSH2 0x2682 JUMPI PUSH2 0x2681 PUSH2 0x31DB JUMP JUMPDEST JUMPDEST SWAP1 PUSH0 MSTORE PUSH1 0x20 PUSH0 KECCAK256 SWAP1 PUSH1 0x7 MUL ADD DUP6 DUP6 DUP2 SLOAD DUP2 LT PUSH2 0x26A1 JUMPI PUSH2 0x26A0 PUSH2 0x31DB JUMP JUMPDEST JUMPDEST SWAP1 PUSH0 MSTORE PUSH1 0x20 PUSH0 KECCAK256 SWAP1 PUSH1 0x7 MUL ADD PUSH0 DUP3 ADD PUSH0 SWAP1 SLOAD SWAP1 PUSH2 0x100 EXP SWAP1 DIV PUSH20 0xFFFFFFFFFFFFFFFFFFFFFFFFFFFFFFFFFFFFFFFF AND DUP2 PUSH0 ADD PUSH0 PUSH2 0x100 EXP DUP2 SLOAD DUP2 PUSH20 0xFFFFFFFFFFFFFFFFFFFFFFFFFFFFFFFFFFFFFFFF MUL NOT AND SWAP1 DUP4 PUSH20 0xFFFFFFFFFFFFFFFFFFFFFFFFFFFFFFFFFFFFFFFF AND MUL OR SWAP1 SSTORE POP PUSH1 0x1 DUP3 ADD SLOAD DUP2 PUSH1 0x1 ADD SSTORE PUSH1 0x2 DUP3 ADD SLOAD DUP2 PUSH1 0x2 ADD SSTORE PUSH1 0x3 DUP3 ADD SLOAD DUP2 PUSH1 0x3 ADD SSTORE PUSH1 0x4 DUP3 ADD SLOAD DUP2 PUSH1 0x4 ADD SSTORE PUSH1 0x5 DUP3 ADD PUSH0 SWAP1 SLOAD SWAP1 PUSH2 0x100 EXP SWAP1 DIV PUSH1 0xFF AND DUP2 PUSH1 0x5 ADD PUSH0 PUSH2 0x100 EXP DUP2 SLOAD DUP2 PUSH1 0xFF MUL NOT AND SWAP1 DUP4 ISZERO ISZERO MUL OR SWAP1 SSTORE POP PUSH1 0x6 DUP3 ADD SLOAD DUP2 PUSH1 0x6 ADD SSTORE SWAP1 POP POP JUMPDEST DUP5 DUP1 SLOAD DUP1 PUSH2 0x2782 JUMPI PUSH2 0x2781 PUSH2 0x3544 JUMP JUMPDEST JUMPDEST PUSH1 0x1 SWAP1 SUB DUP2 DUP2 SWAP1 PUSH0 MSTORE PUSH1 0x20 PUSH0 KECCAK256 SWAP1 PUSH1 0x7 MUL ADD PUSH0 DUP1 DUP3 ADD PUSH0 PUSH2 0x100 EXP DUP2 SLOAD SWAP1 PUSH20 0xFFFFFFFFFFFFFFFFFFFFFFFFFFFFFFFFFFFFFFFF MUL NOT AND SWAP1 SSTORE PUSH1 0x1 DUP3 ADD PUSH0 SWAP1 SSTORE PUSH1 0x2 DUP3 ADD PUSH0 SWAP1 SSTORE PUSH1 0x3 DUP3 ADD PUSH0 SWAP1 SSTORE PUSH1 0x4 DUP3 ADD PUSH0 SWAP1 SSTORE PUSH1 0x5 DUP3 ADD PUSH0 PUSH2 0x100 EXP DUP2 SLOAD SWAP1 PUSH1 0xFF MUL NOT AND SWAP1 SSTORE PUSH1 0x6 DUP3 ADD PUSH0 SWAP1 SSTORE POP POP SWAP1 SSTORE DUP1 ISZERO SWAP3 POP POP POP SWAP3 SWAP2 POP POP JUMP JUMPDEST PUSH0 PUSH2 0x280B DUP4 DUP4 PUSH2 0x2925 JUMP JUMPDEST SWAP1 POP SWAP3 SWAP2 POP POP JUMP JUMPDEST PUSH0 DUP1 PUSH0 DUP1 NOT DUP6 DUP8 MULMOD DUP6 DUP8 MUL SWAP3 POP DUP3 DUP2 LT DUP4 DUP3 SUB SUB SWAP2 POP POP PUSH0 DUP2 SUB PUSH2 0x284B JUMPI DUP4 DUP3 DUP2 PUSH2 0x2841 JUMPI PUSH2 0x2840 PUSH2 0x34A0 JUMP JUMPDEST JUMPDEST DIV SWAP3 POP POP POP PUSH2 0x291E JUMP JUMPDEST DUP4 DUP2 LT PUSH2 0x2893 JUMPI DUP6 DUP6 DUP6 PUSH1 0x40 MLOAD PUSH32 0x6C59DA1200000000000000000000000000000000000000000000000000000000 DUP2 MSTORE PUSH1 0x4 ADD PUSH2 0x288A SWAP4 SWAP3 SWAP2 SWAP1 PUSH2 0x3571 JUMP JUMPDEST PUSH1 0x40 MLOAD DUP1 SWAP2 SUB SWAP1 REVERT JUMPDEST PUSH0 DUP5 DUP7 DUP9 MULMOD SWAP1 POP DUP3 DUP2 GT DUP3 SUB SWAP2 POP DUP1 DUP4 SUB SWAP3 POP PUSH0 PUSH1 0x1 DUP7 NOT ADD DUP7 AND SWAP1 POP PUSH0 DUP2 DUP8 DIV SWAP7 POP DUP2 DUP6 DIV SWAP5 POP PUSH1 0x1 DUP3 DUP4 PUSH0 SUB DIV ADD SWAP1 POP DUP1 DUP5 MUL DUP6 OR SWAP5 POP PUSH0 PUSH1 0x2 DUP9 PUSH1 0x3 MUL XOR SWAP1 POP DUP1 DUP9 MUL PUSH1 0x2 SUB DUP2 MUL SWAP1 POP DUP1 DUP9 MUL PUSH1 0x2 SUB DUP2 MUL SWAP1 POP DUP1 DUP9 MUL PUSH1 0x2 SUB DUP2 MUL SWAP1 POP DUP1 DUP9 MUL PUSH1 0x2 SUB DUP2 MUL SWAP1 POP DUP1 DUP9 MUL PUSH1 0x2 SUB DUP2 MUL SWAP1 POP DUP1 DUP9 MUL PUSH1 0x2 SUB DUP2 MUL SWAP1 POP DUP1 DUP7 MUL SWAP7 POP POP POP POP POP POP POP JUMPDEST SWAP4 SWAP3 POP POP POP JUMP JUMPDEST PUSH0 DUP1 PUSH0 DUP1 NOT DUP5 DUP7 MULMOD DUP5 DUP7 MUL SWAP3 POP DUP3 DUP2 LT DUP4 DUP3 SUB SUB SWAP2 POP POP PUSH0 DUP2 SUB PUSH2 0x2965 JUMPI PUSH8 0xDE0B6B3A7640000 DUP3 DUP2 PUSH2 0x295B JUMPI PUSH2 0x295A PUSH2 0x34A0 JUMP JUMPDEST JUMPDEST DIV SWAP3 POP POP POP PUSH2 0x2A04 JUMP JUMPDEST PUSH8 0xDE0B6B3A7640000 DUP2 LT PUSH2 0x29B3 JUMPI DUP5 DUP5 PUSH1 0x40 MLOAD PUSH32 0xD3C0DF5E00000000000000000000000000000000000000000000000000000000 DUP2 MSTORE PUSH1 0x4 ADD PUSH2 0x29AA SWAP3 SWAP2 SWAP1 PUSH2 0x35A6 JUMP JUMPDEST PUSH1 0x40 MLOAD DUP1 SWAP2 SUB SWAP1 REVERT JUMPDEST PUSH0 PUSH8 0xDE0B6B3A7640000 DUP6 DUP8 MULMOD SWAP1 POP PUSH32 0xACCB18165BD6FE31AE1CF318DC5B51EEE0E1BA569B88CD74C1773B91FAC10669 PUSH1 0x1 PUSH3 0x40000 DUP1 PUSH0 SUB DIV ADD DUP5 DUP4 GT DUP5 SUB MUL PUSH3 0x40000 DUP4 DUP7 SUB DIV OR MUL SWAP4 POP POP POP POP JUMPDEST SWAP3 SWAP2 POP POP JUMP JUMPDEST PUSH1 0x40 MLOAD DUP1 PUSH1 0xC0 ADD PUSH1 0x40 MSTORE DUP1 PUSH0 PUSH20 0xFFFFFFFFFFFFFFFFFFFFFFFFFFFFFFFFFFFFFFFF AND DUP2 MSTORE PUSH1 0x20 ADD PUSH0 DUP2 MSTORE PUSH1 0x20 ADD PUSH0 DUP2 MSTORE PUSH1 0x20 ADD PUSH0 DUP2 MSTORE PUSH1 0x20 ADD PUSH0 DUP2 MSTORE PUSH1 0x20 ADD PUSH0 ISZERO ISZERO DUP2 MSTORE POP SWAP1 JUMP JUMPDEST PUSH1 0x40 MLOAD DUP1 PUSH1 0xE0 ADD PUSH1 0x40 MSTORE DUP1 PUSH0 PUSH20 0xFFFFFFFFFFFFFFFFFFFFFFFFFFFFFFFFFFFFFFFF AND DUP2 MSTORE PUSH1 0x20 ADD PUSH0 DUP2 MSTORE PUSH1 0x20 ADD PUSH0 DUP2 MSTORE PUSH1 0x20 ADD PUSH0 DUP2 MSTORE PUSH1 0x20 ADD PUSH0 DUP2 MSTORE PUSH1 0x20 ADD PUSH0 ISZERO ISZERO DUP2 MSTORE PUSH1 0x20 ADD PUSH0 DUP2 MSTORE POP SWAP1 JUMP JUMPDEST PUSH0 PUSH20 0xFFFFFFFFFFFFFFFFFFFFFFFFFFFFFFFFFFFFFFFF DUP3 AND SWAP1 POP SWAP2 SWAP1 POP JUMP JUMPDEST PUSH0 PUSH2 0x2AC9 DUP3 PUSH2 0x2AA0 JUMP JUMPDEST SWAP1 POP SWAP2 SWAP1 POP JUMP JUMPDEST PUSH2 0x2AD9 DUP2 PUSH2 0x2ABF JUMP JUMPDEST DUP3 MSTORE POP POP JUMP JUMPDEST PUSH0 PUSH1 0x20 DUP3 ADD SWAP1 POP PUSH2 0x2AF2 PUSH0 DUP4 ADD DUP5 PUSH2 0x2AD0 JUMP JUMPDEST SWAP3 SWAP2 POP POP JUMP JUMPDEST PUSH0 DUP2 MLOAD SWAP1 POP SWAP2 SWAP1 POP JUMP JUMPDEST PUSH0 DUP3 DUP3 MSTORE PUSH1 0x20 DUP3 ADD SWAP1 POP SWAP3 SWAP2 POP POP JUMP JUMPDEST DUP3 DUP2 DUP4 MCOPY PUSH0 DUP4 DUP4 ADD MSTORE POP POP POP JUMP JUMPDEST PUSH0 PUSH1 0x1F NOT PUSH1 0x1F DUP4 ADD AND SWAP1 POP SWAP2 SWAP1 POP JUMP JUMPDEST PUSH0 PUSH2 0x2B3A DUP3 PUSH2 0x2AF8 JUMP JUMPDEST PUSH2 0x2B44 DUP2 DUP6 PUSH2 0x2B02 JUMP JUMPDEST SWAP4 POP PUSH2 0x2B54 DUP2 DUP6 PUSH1 0x20 DUP7 ADD PUSH2 0x2B12 JUMP JUMPDEST PUSH2 0x2B5D DUP2 PUSH2 0x2B20 JUMP JUMPDEST DUP5 ADD SWAP2 POP POP SWAP3 SWAP2 POP POP JUMP JUMPDEST PUSH0 PUSH1 0x20 DUP3 ADD SWAP1 POP DUP2 DUP2 SUB PUSH0 DUP4 ADD MSTORE PUSH2 0x2B80 DUP2 DUP5 PUSH2 0x2B30 JUMP JUMPDEST SWAP1 POP SWAP3 SWAP2 POP POP JUMP JUMPDEST PUSH0 PUSH1 0x40 MLOAD SWAP1 POP SWAP1 JUMP JUMPDEST PUSH0 DUP1 REVERT JUMPDEST PUSH0 DUP1 REVERT JUMPDEST PUSH0 DUP2 SWAP1 POP SWAP2 SWAP1 POP JUMP JUMPDEST PUSH2 0x2BAB DUP2 PUSH2 0x2B99 JUMP JUMPDEST DUP2 EQ PUSH2 0x2BB5 JUMPI PUSH0 DUP1 REVERT JUMPDEST POP JUMP JUMPDEST PUSH0 DUP2 CALLDATALOAD SWAP1 POP PUSH2 0x2BC6 DUP2 PUSH2 0x2BA2 JUMP JUMPDEST SWAP3 SWAP2 POP POP JUMP JUMPDEST PUSH0 PUSH1 0x20 DUP3 DUP5 SUB SLT ISZERO PUSH2 0x2BE1 JUMPI PUSH2 0x2BE0 PUSH2 0x2B91 JUMP JUMPDEST JUMPDEST PUSH0 PUSH2 0x2BEE DUP5 DUP3 DUP6 ADD PUSH2 0x2BB8 JUMP JUMPDEST SWAP2 POP POP SWAP3 SWAP2 POP POP JUMP JUMPDEST PUSH2 0x2C00 DUP2 PUSH2 0x2ABF JUMP JUMPDEST DUP2 EQ PUSH2 0x2C0A JUMPI PUSH0 DUP1 REVERT JUMPDEST POP JUMP JUMPDEST PUSH0 DUP2 CALLDATALOAD SWAP1 POP PUSH2 0x2C1B DUP2 PUSH2 0x2BF7 JUMP JUMPDEST SWAP3 SWAP2 POP POP JUMP JUMPDEST PUSH0 DUP1 REVERT JUMPDEST PUSH0 DUP1 REVERT JUMPDEST PUSH0 DUP1 REVERT JUMPDEST PUSH0 DUP1 DUP4 PUSH1 0x1F DUP5 ADD SLT PUSH2 0x2C42 JUMPI PUSH2 0x2C41 PUSH2 0x2C21 JUMP JUMPDEST JUMPDEST DUP3 CALLDATALOAD SWAP1 POP PUSH8 0xFFFFFFFFFFFFFFFF DUP2 GT ISZERO PUSH2 0x2C5F JUMPI PUSH2 0x2C5E PUSH2 0x2C25 JUMP JUMPDEST JUMPDEST PUSH1 0x20 DUP4 ADD SWAP2 POP DUP4 PUSH1 0x1 DUP3 MUL DUP4 ADD GT ISZERO PUSH2 0x2C7B JUMPI PUSH2 0x2C7A PUSH2 0x2C29 JUMP JUMPDEST JUMPDEST SWAP3 POP SWAP3 SWAP1 POP JUMP JUMPDEST PUSH0 DUP1 PUSH0 DUP1 PUSH0 PUSH1 0x80 DUP7 DUP9 SUB SLT ISZERO PUSH2 0x2C9B JUMPI PUSH2 0x2C9A PUSH2 0x2B91 JUMP JUMPDEST JUMPDEST PUSH0 PUSH2 0x2CA8 DUP9 DUP3 DUP10 ADD PUSH2 0x2C0D JUMP JUMPDEST SWAP6 POP POP PUSH1 0x20 PUSH2 0x2CB9 DUP9 DUP3 DUP10 ADD PUSH2 0x2C0D JUMP JUMPDEST SWAP5 POP POP PUSH1 0x40 PUSH2 0x2CCA DUP9 DUP3 DUP10 ADD PUSH2 0x2BB8 JUMP JUMPDEST SWAP4 POP POP PUSH1 0x60 DUP7 ADD CALLDATALOAD PUSH8 0xFFFFFFFFFFFFFFFF DUP2 GT ISZERO PUSH2 0x2CEB JUMPI PUSH2 0x2CEA PUSH2 0x2B95 JUMP JUMPDEST JUMPDEST PUSH2 0x2CF7 DUP9 DUP3 DUP10 ADD PUSH2 0x2C2D JUMP JUMPDEST SWAP3 POP SWAP3 POP POP SWAP3 SWAP6 POP SWAP3 SWAP6 SWAP1 SWAP4 POP JUMP JUMPDEST PUSH0 PUSH32 0xFFFFFFFF00000000000000000000000000000000000000000000000000000000 DUP3 AND SWAP1 POP SWAP2 SWAP1 POP JUMP JUMPDEST PUSH2 0x2D3A DUP2 PUSH2 0x2D06 JUMP JUMPDEST DUP3 MSTORE POP POP JUMP JUMPDEST PUSH0 PUSH1 0x20 DUP3 ADD SWAP1 POP PUSH2 0x2D53 PUSH0 DUP4 ADD DUP5 PUSH2 0x2D31 JUMP JUMPDEST SWAP3 SWAP2 POP POP JUMP JUMPDEST PUSH2 0x2D62 DUP2 PUSH2 0x2B99 JUMP JUMPDEST DUP3 MSTORE POP POP JUMP JUMPDEST PUSH0 PUSH1 0x20 DUP3 ADD SWAP1 POP PUSH2 0x2D7B PUSH0 DUP4 ADD DUP5 PUSH2 0x2D59 JUMP JUMPDEST SWAP3 SWAP2 POP POP JUMP JUMPDEST PUSH0 PUSH1 0xFF DUP3 AND SWAP1 POP SWAP2 SWAP1 POP JUMP JUMPDEST PUSH2 0x2D96 DUP2 PUSH2 0x2D81 JUMP JUMPDEST DUP3 MSTORE POP POP JUMP JUMPDEST PUSH0 PUSH1 0x20 DUP3 ADD SWAP1 POP PUSH2 0x2DAF PUSH0 DUP4 ADD DUP5 PUSH2 0x2D8D JUMP JUMPDEST SWAP3 SWAP2 POP POP JUMP JUMPDEST PUSH0 PUSH1 0x20 DUP3 DUP5 SUB SLT ISZERO PUSH2 0x2DCA JUMPI PUSH2 0x2DC9 PUSH2 0x2B91 JUMP JUMPDEST JUMPDEST PUSH0 PUSH2 0x2DD7 DUP5 DUP3 DUP6 ADD PUSH2 0x2C0D JUMP JUMPDEST SWAP2 POP POP SWAP3 SWAP2 POP POP JUMP JUMPDEST PUSH2 0x2DE9 DUP2 PUSH2 0x2ABF JUMP JUMPDEST DUP3 MSTORE POP POP JUMP JUMPDEST PUSH2 0x2DF8 DUP2 PUSH2 0x2B99 JUMP JUMPDEST DUP3 MSTORE POP POP JUMP JUMPDEST PUSH0 DUP2 ISZERO ISZERO SWAP1 POP SWAP2 SWAP1 POP JUMP JUMPDEST PUSH2 0x2E12 DUP2 PUSH2 0x2DFE JUMP JUMPDEST DUP3 MSTORE POP POP JUMP JUMPDEST PUSH1 0xC0 DUP3 ADD PUSH0 DUP3 ADD MLOAD PUSH2 0x2E2C PUSH0 DUP6 ADD DUP3 PUSH2 0x2DE0 JUMP JUMPDEST POP PUSH1 0x20 DUP3 ADD MLOAD PUSH2 0x2E3F PUSH1 0x20 DUP6 ADD DUP3 PUSH2 0x2DEF JUMP JUMPDEST POP PUSH1 0x40 DUP3 ADD MLOAD PUSH2 0x2E52 PUSH1 0x40 DUP6 ADD DUP3 PUSH2 0x2DEF JUMP JUMPDEST POP PUSH1 0x60 DUP3 ADD MLOAD PUSH2 0x2E65 PUSH1 0x60 DUP6 ADD DUP3 PUSH2 0x2DEF JUMP JUMPDEST POP PUSH1 0x80 DUP3 ADD MLOAD PUSH2 0x2E78 PUSH1 0x80 DUP6 ADD DUP3 PUSH2 0x2DEF JUMP JUMPDEST POP PUSH1 0xA0 DUP3 ADD MLOAD PUSH2 0x2E8B PUSH1 0xA0 DUP6 ADD DUP3 PUSH2 0x2E09 JUMP JUMPDEST POP POP POP POP JUMP JUMPDEST PUSH0 PUSH1 0xC0 DUP3 ADD SWAP1 POP PUSH2 0x2EA4 PUSH0 DUP4 ADD DUP5 PUSH2 0x2E18 JUMP JUMPDEST SWAP3 SWAP2 POP POP JUMP JUMPDEST PUSH2 0x2EB3 DUP2 PUSH2 0x2DFE JUMP JUMPDEST DUP2 EQ PUSH2 0x2EBD JUMPI PUSH0 DUP1 REVERT JUMPDEST POP JUMP JUMPDEST PUSH0 DUP2 CALLDATALOAD SWAP1 POP PUSH2 0x2ECE DUP2 PUSH2 0x2EAA JUMP JUMPDEST SWAP3 SWAP2 POP POP JUMP JUMPDEST PUSH0 PUSH1 0x20 DUP3 DUP5 SUB SLT ISZERO PUSH2 0x2EE9 JUMPI PUSH2 0x2EE8 PUSH2 0x2B91 JUMP JUMPDEST JUMPDEST PUSH0 PUSH2 0x2EF6 DUP5 DUP3 DUP6 ADD PUSH2 0x2EC0 JUMP JUMPDEST SWAP2 POP POP SWAP3 SWAP2 POP POP JUMP JUMPDEST PUSH2 0x2F08 DUP2 PUSH2 0x2DFE JUMP JUMPDEST DUP3 MSTORE POP POP JUMP JUMPDEST PUSH0 PUSH1 0x20 DUP3 ADD SWAP1 POP PUSH2 0x2F21 PUSH0 DUP4 ADD DUP5 PUSH2 0x2EFF JUMP JUMPDEST SWAP3 SWAP2 POP POP JUMP JUMPDEST PUSH0 PUSH1 0xE0 DUP3 ADD SWAP1 POP PUSH2 0x2F3A PUSH0 DUP4 ADD DUP11 PUSH2 0x2AD0 JUMP JUMPDEST PUSH2 0x2F47 PUSH1 0x20 DUP4 ADD DUP10 PUSH2 0x2D59 JUMP JUMPDEST PUSH2 0x2F54 PUSH1 0x40 DUP4 ADD DUP9 PUSH2 0x2D59 JUMP JUMPDEST PUSH2 0x2F61 PUSH1 0x60 DUP4 ADD DUP8 PUSH2 0x2D59 JUMP JUMPDEST PUSH2 0x2F6E PUSH1 0x80 DUP4 ADD DUP7 PUSH2 0x2D59 JUMP JUMPDEST PUSH2 0x2F7B PUSH1 0xA0 DUP4 ADD DUP6 PUSH2 0x2EFF JUMP JUMPDEST PUSH2 0x2F88 PUSH1 0xC0 DUP4 ADD DUP5 PUSH2 0x2D59 JUMP JUMPDEST SWAP9 SWAP8 POP POP POP POP POP POP POP POP JUMP JUMPDEST PUSH0 DUP1 PUSH1 0x40 DUP4 DUP6 SUB SLT ISZERO PUSH2 0x2FAA JUMPI PUSH2 0x2FA9 PUSH2 0x2B91 JUMP JUMPDEST JUMPDEST PUSH0 PUSH2 0x2FB7 DUP6 DUP3 DUP7 ADD PUSH2 0x2C0D JUMP JUMPDEST SWAP3 POP POP PUSH1 0x20 PUSH2 0x2FC8 DUP6 DUP3 DUP7 ADD PUSH2 0x2BB8 JUMP JUMPDEST SWAP2 POP POP SWAP3 POP SWAP3 SWAP1 POP JUMP JUMPDEST PUSH0 DUP1 REVERT JUMPDEST PUSH32 0x4E487B7100000000000000000000000000000000000000000000000000000000 PUSH0 MSTORE PUSH1 0x41 PUSH1 0x4 MSTORE PUSH1 0x24 PUSH0 REVERT JUMPDEST PUSH2 0x300C DUP3 PUSH2 0x2B20 JUMP JUMPDEST DUP2 ADD DUP2 DUP2 LT PUSH8 0xFFFFFFFFFFFFFFFF DUP3 GT OR ISZERO PUSH2 0x302B JUMPI PUSH2 0x302A PUSH2 0x2FD6 JUMP JUMPDEST JUMPDEST DUP1 PUSH1 0x40 MSTORE POP POP POP JUMP JUMPDEST PUSH0 PUSH2 0x303D PUSH2 0x2B88 JUMP JUMPDEST SWAP1 POP PUSH2 0x3049 DUP3 DUP3 PUSH2 0x3003 JUMP JUMPDEST SWAP2 SWAP1 POP JUMP JUMPDEST PUSH0 PUSH8 0xFFFFFFFFFFFFFFFF DUP3 GT ISZERO PUSH2 0x3068 JUMPI PUSH2 0x3067 PUSH2 0x2FD6 JUMP JUMPDEST JUMPDEST PUSH2 0x3071 DUP3 PUSH2 0x2B20 JUMP JUMPDEST SWAP1 POP PUSH1 0x20 DUP2 ADD SWAP1 POP SWAP2 SWAP1 POP JUMP JUMPDEST PUSH0 PUSH2 0x3090 PUSH2 0x308B DUP5 PUSH2 0x304E JUMP JUMPDEST PUSH2 0x3034 JUMP JUMPDEST SWAP1 POP DUP3 DUP2 MSTORE PUSH1 0x20 DUP2 ADD DUP5 DUP5 DUP5 ADD GT ISZERO PUSH2 0x30AC JUMPI PUSH2 0x30AB PUSH2 0x2FD2 JUMP JUMPDEST JUMPDEST PUSH2 0x30B7 DUP5 DUP3 DUP6 PUSH2 0x2B12 JUMP JUMPDEST POP SWAP4 SWAP3 POP POP POP JUMP JUMPDEST PUSH0 DUP3 PUSH1 0x1F DUP4 ADD SLT PUSH2 0x30D3 JUMPI PUSH2 0x30D2 PUSH2 0x2C21 JUMP JUMPDEST JUMPDEST DUP2 MLOAD PUSH2 0x30E3 DUP5 DUP3 PUSH1 0x20 DUP7 ADD PUSH2 0x307E JUMP JUMPDEST SWAP2 POP POP SWAP3 SWAP2 POP POP JUMP JUMPDEST PUSH0 PUSH1 0x20 DUP3 DUP5 SUB SLT ISZERO PUSH2 0x3101 JUMPI PUSH2 0x3100 PUSH2 0x2B91 JUMP JUMPDEST JUMPDEST PUSH0 DUP3 ADD MLOAD PUSH8 0xFFFFFFFFFFFFFFFF DUP2 GT ISZERO PUSH2 0x311E JUMPI PUSH2 0x311D PUSH2 0x2B95 JUMP JUMPDEST JUMPDEST PUSH2 0x312A DUP5 DUP3 DUP6 ADD PUSH2 0x30BF JUMP JUMPDEST SWAP2 POP POP SWAP3 SWAP2 POP POP JUMP JUMPDEST PUSH0 DUP2 SWAP1 POP SWAP3 SWAP2 POP POP JUMP JUMPDEST PUSH0 PUSH2 0x3147 DUP3 PUSH2 0x2AF8 JUMP JUMPDEST PUSH2 0x3151 DUP2 DUP6 PUSH2 0x3133 JUMP JUMPDEST SWAP4 POP PUSH2 0x3161 DUP2 DUP6 PUSH1 0x20 DUP7 ADD PUSH2 0x2B12 JUMP JUMPDEST DUP1 DUP5 ADD SWAP2 POP POP SWAP3 SWAP2 POP POP JUMP JUMPDEST PUSH32 0x202D200000000000000000000000000000000000000000000000000000000000 DUP2 MSTORE POP JUMP JUMPDEST PUSH0 PUSH2 0x319E DUP3 DUP5 PUSH2 0x313D JUMP JUMPDEST SWAP2 POP PUSH2 0x31A9 DUP3 PUSH2 0x316D JUMP JUMPDEST PUSH1 0x3 DUP3 ADD SWAP2 POP DUP2 SWAP1 POP SWAP3 SWAP2 POP POP JUMP JUMPDEST PUSH0 PUSH2 0x31C3 DUP3 DUP6 PUSH2 0x313D JUMP JUMPDEST SWAP2 POP PUSH2 0x31CF DUP3 DUP5 PUSH2 0x313D JUMP JUMPDEST SWAP2 POP DUP2 SWAP1 POP SWAP4 SWAP3 POP POP POP JUMP JUMPDEST PUSH32 0x4E487B7100000000000000000000000000000000000000000000000000000000 PUSH0 MSTORE PUSH1 0x32 PUSH1 0x4 MSTORE PUSH1 0x24 PUSH0 REVERT JUMPDEST PUSH32 0x4E487B7100000000000000000000000000000000000000000000000000000000 PUSH0 MSTORE PUSH1 0x11 PUSH1 0x4 MSTORE PUSH1 0x24 PUSH0 REVERT JUMPDEST PUSH0 PUSH2 0x323F DUP3 PUSH2 0x2B99 JUMP JUMPDEST SWAP2 POP PUSH2 0x324A DUP4 PUSH2 0x2B99 JUMP JUMPDEST SWAP3 POP DUP3 DUP3 ADD SWAP1 POP DUP1 DUP3 GT ISZERO PUSH2 0x3262 JUMPI PUSH2 0x3261 PUSH2 0x3208 JUMP JUMPDEST JUMPDEST SWAP3 SWAP2 POP POP JUMP JUMPDEST PUSH0 PUSH1 0x40 DUP3 ADD SWAP1 POP PUSH2 0x327B PUSH0 DUP4 ADD DUP6 PUSH2 0x2D59 JUMP JUMPDEST PUSH2 0x3288 PUSH1 0x20 DUP4 ADD DUP5 PUSH2 0x2AD0 JUMP JUMPDEST SWAP4 SWAP3 POP POP POP JUMP JUMPDEST PUSH0 PUSH2 0x3299 DUP3 PUSH2 0x2B99 JUMP JUMPDEST SWAP2 POP PUSH2 0x32A4 DUP4 PUSH2 0x2B99 JUMP JUMPDEST SWAP3 POP DUP3 DUP3 SUB SWAP1 POP DUP2 DUP2 GT ISZERO PUSH2 0x32BC JUMPI PUSH2 0x32BB PUSH2 0x3208 JUMP JUMPDEST JUMPDEST SWAP3 SWAP2 POP POP JUMP JUMPDEST PUSH0 PUSH2 0x32CC DUP3 PUSH2 0x2B99 JUMP JUMPDEST SWAP2 POP PUSH0 DUP3 SUB PUSH2 0x32DE JUMPI PUSH2 0x32DD PUSH2 0x3208 JUMP JUMPDEST JUMPDEST PUSH1 0x1 DUP3 SUB SWAP1 POP SWAP2 SWAP1 POP JUMP JUMPDEST PUSH0 DUP2 MLOAD SWAP1 POP PUSH2 0x32F7 DUP2 PUSH2 0x2BA2 JUMP JUMPDEST SWAP3 SWAP2 POP POP JUMP JUMPDEST PUSH0 PUSH1 0x20 DUP3 DUP5 SUB SLT ISZERO PUSH2 0x3312 JUMPI PUSH2 0x3311 PUSH2 0x2B91 JUMP JUMPDEST JUMPDEST PUSH0 PUSH2 0x331F DUP5 DUP3 DUP6 ADD PUSH2 0x32E9 JUMP JUMPDEST SWAP2 POP POP SWAP3 SWAP2 POP POP JUMP JUMPDEST PUSH0 PUSH1 0x60 DUP3 ADD SWAP1 POP PUSH2 0x333B PUSH0 DUP4 ADD DUP7 PUSH2 0x2AD0 JUMP JUMPDEST PUSH2 0x3348 PUSH1 0x20 DUP4 ADD DUP6 PUSH2 0x2AD0 JUMP JUMPDEST PUSH2 0x3355 PUSH1 0x40 DUP4 ADD DUP5 PUSH2 0x2D59 JUMP JUMPDEST SWAP5 SWAP4 POP POP POP POP JUMP JUMPDEST PUSH0 DUP2 MLOAD SWAP1 POP PUSH2 0x336B DUP2 PUSH2 0x2EAA JUMP JUMPDEST SWAP3 SWAP2 POP POP JUMP JUMPDEST PUSH0 PUSH1 0x20 DUP3 DUP5 SUB SLT ISZERO PUSH2 0x3386 JUMPI PUSH2 0x3385 PUSH2 0x2B91 JUMP JUMPDEST JUMPDEST PUSH0 PUSH2 0x3393 DUP5 DUP3 DUP6 ADD PUSH2 0x335D JUMP JUMPDEST SWAP2 POP POP SWAP3 SWAP2 POP POP JUMP JUMPDEST PUSH0 PUSH1 0x40 DUP3 ADD SWAP1 POP PUSH2 0x33AF PUSH0 DUP4 ADD DUP6 PUSH2 0x2AD0 JUMP JUMPDEST PUSH2 0x33BC PUSH1 0x20 DUP4 ADD DUP5 PUSH2 0x2D59 JUMP JUMPDEST SWAP4 SWAP3 POP POP POP JUMP JUMPDEST PUSH0 DUP2 MLOAD SWAP1 POP SWAP2 SWAP1 POP JUMP JUMPDEST PUSH0 DUP3 DUP3 MSTORE PUSH1 0x20 DUP3 ADD SWAP1 POP SWAP3 SWAP2 POP POP JUMP JUMPDEST PUSH0 PUSH2 0x33E7 DUP3 PUSH2 0x33C3 JUMP JUMPDEST PUSH2 0x33F1 DUP2 DUP6 PUSH2 0x33CD JUMP JUMPDEST SWAP4 POP PUSH2 0x3401 DUP2 DUP6 PUSH1 0x20 DUP7 ADD PUSH2 0x2B12 JUMP JUMPDEST PUSH2 0x340A DUP2 PUSH2 0x2B20 JUMP JUMPDEST DUP5 ADD SWAP2 POP POP SWAP3 SWAP2 POP POP JUMP JUMPDEST PUSH0 PUSH1 0x80 DUP3 ADD SWAP1 POP PUSH2 0x3428 PUSH0 DUP4 ADD DUP8 PUSH2 0x2AD0 JUMP JUMPDEST PUSH2 0x3435 PUSH1 0x20 DUP4 ADD DUP7 PUSH2 0x2AD0 JUMP JUMPDEST PUSH2 0x3442 PUSH1 0x40 DUP4 ADD DUP6 PUSH2 0x2D59 JUMP JUMPDEST DUP2 DUP2 SUB PUSH1 0x60 DUP4 ADD MSTORE PUSH2 0x3454 DUP2 DUP5 PUSH2 0x33DD JUMP JUMPDEST SWAP1 POP SWAP6 SWAP5 POP POP POP POP POP JUMP JUMPDEST PUSH0 PUSH2 0x3469 DUP3 PUSH2 0x2B99 JUMP JUMPDEST SWAP2 POP PUSH2 0x3474 DUP4 PUSH2 0x2B99 JUMP JUMPDEST SWAP3 POP DUP3 DUP3 MUL PUSH2 0x3482 DUP2 PUSH2 0x2B99 JUMP JUMPDEST SWAP2 POP DUP3 DUP3 DIV DUP5 EQ DUP4 ISZERO OR PUSH2 0x3499 JUMPI PUSH2 0x3498 PUSH2 0x3208 JUMP JUMPDEST JUMPDEST POP SWAP3 SWAP2 POP POP JUMP JUMPDEST PUSH32 0x4E487B7100000000000000000000000000000000000000000000000000000000 PUSH0 MSTORE PUSH1 0x12 PUSH1 0x4 MSTORE PUSH1 0x24 PUSH0 REVERT JUMPDEST PUSH0 PUSH2 0x34D7 DUP3 PUSH2 0x2B99 JUMP JUMPDEST SWAP2 POP PUSH2 0x34E2 DUP4 PUSH2 0x2B99 JUMP JUMPDEST SWAP3 POP DUP3 PUSH2 0x34F2 JUMPI PUSH2 0x34F1 PUSH2 0x34A0 JUMP JUMPDEST JUMPDEST DUP3 DUP3 DIV SWAP1 POP SWAP3 SWAP2 POP POP JUMP JUMPDEST PUSH0 PUSH2 0x3507 DUP3 PUSH2 0x2B99 JUMP JUMPDEST SWAP2 POP PUSH32 0xFFFFFFFFFFFFFFFFFFFFFFFFFFFFFFFFFFFFFFFFFFFFFFFFFFFFFFFFFFFFFFFF DUP3 SUB PUSH2 0x3539 JUMPI PUSH2 0x3538 PUSH2 0x3208 JUMP JUMPDEST JUMPDEST PUSH1 0x1 DUP3 ADD SWAP1 POP SWAP2 SWAP1 POP JUMP JUMPDEST PUSH32 0x4E487B7100000000000000000000000000000000000000000000000000000000 PUSH0 MSTORE PUSH1 0x31 PUSH1 0x4 MSTORE PUSH1 0x24 PUSH0 REVERT JUMPDEST PUSH0 PUSH1 0x60 DUP3 ADD SWAP1 POP PUSH2 0x3584 PUSH0 DUP4 ADD DUP7 PUSH2 0x2D59 JUMP JUMPDEST PUSH2 0x3591 PUSH1 0x20 DUP4 ADD DUP6 PUSH2 0x2D59 JUMP JUMPDEST PUSH2 0x359E PUSH1 0x40 DUP4 ADD DUP5 PUSH2 0x2D59 JUMP JUMPDEST SWAP5 SWAP4 POP POP POP POP JUMP JUMPDEST PUSH0 PUSH1 0x40 DUP3 ADD SWAP1 POP PUSH2 0x35B9 PUSH0 DUP4 ADD DUP6 PUSH2 0x2D59 JUMP JUMPDEST PUSH2 0x35C6 PUSH1 0x20 DUP4 ADD DUP5 PUSH2 0x2D59 JUMP JUMPDEST SWAP4 SWAP3 POP POP POP JUMP INVALID LOG2 PUSH5 0x6970667358 0x22 SLT KECCAK256 SGT 0xBF 0xEA 0xB1 0xD0 ADDRESS RETURN 0x1F DUP9 MOD DELEGATECALL 0xE2 0xA5 0xB1 0xBD 0xC2 PUSH18 0x9ACE60380683878FA70C6092510BC364736F PUSH13 0x63430008190033000000000000 "
		},
		"gasEstimates": {
			"creation": {
				"codeDepositCost": "2765400",
				"executionCost": "infinite",
				"totalCost": "infinite"
			},
			"external": {
				"FFT()": "2555",
				"NFT()": "2576",
				"_collector()": "2553",
				"_fees()": "2536",
				"_liquidity()": "2598",
				"_liquids(uint256)": "infinite",
				"_price()": "2493",
				"claimFees()": "infinite",
				"decimals()": "2607",
				"depositFFT(uint256)": "infinite",
				"depositNFT(uint256)": "infinite",
				"fftLiquidity()": "2471",
				"getLiquidityCount(bool)": "2838",
				"isOwner()": "2557",
				"name()": "infinite",
				"nftLiquidity()": "2514",
				"onERC721Received(address,address,uint256,bytes)": "infinite",
				"owner()": "2605",
				"queryLiquid(uint256)": "infinite",
				"queryLiquidbyDepositor(address,uint256)": "infinite",
				"renounceOwnership()": "29950",
				"setCollector(address)": "27028",
				"setLiquidity(address)": "infinite",
				"swapFFT(uint256)": "infinite",
				"swapNFT(uint256)": "infinite",
				"transferOwnership(address)": "30746",
				"updatePrice()": "infinite",
				"withdrawLiquidity(uint256)": "infinite"
			},
			"internal": {
				"_createLiquid(uint256,bool)": "infinite",
				"_deductFee(uint256)": "infinite",
				"_findSuitableLiquid(bool)": "infinite",
				"_removeLiquidity(struct HotswapBase.Liquid memory,uint256)": "infinite",
				"_swapFFTLiquid(uint256,uint256,uint256,uint256)": "infinite",
				"_swapNFTLiquid(uint256,uint256,uint256,uint256)": "infinite"
			}
		},
		"methodIdentifiers": {
			"FFT()": "04bb60ce",
			"NFT()": "7c0b8de2",
			"_collector()": "8e991592",
			"_fees()": "d212a69a",
			"_liquidity()": "491d0a56",
			"_liquids(uint256)": "cc18cb87",
			"_price()": "235b6ea1",
			"claimFees()": "d294f093",
			"decimals()": "313ce567",
			"depositFFT(uint256)": "dd81b5ae",
			"depositNFT(uint256)": "e91a7ca6",
			"fftLiquidity()": "3bd11f57",
			"getLiquidityCount(bool)": "6cc62992",
			"isOwner()": "8f32d59b",
			"name()": "06fdde03",
			"nftLiquidity()": "678660fb",
			"onERC721Received(address,address,uint256,bytes)": "150b7a02",
			"owner()": "8da5cb5b",
			"queryLiquid(uint256)": "41796a17",
			"queryLiquidbyDepositor(address,uint256)": "e53442f0",
			"renounceOwnership()": "715018a6",
			"setCollector(address)": "fb5b82d0",
			"setLiquidity(address)": "36171e0e",
			"swapFFT(uint256)": "4e36245d",
			"swapNFT(uint256)": "dcc9606f",
			"transferOwnership(address)": "f2fde38b",
			"updatePrice()": "673a7e28",
			"withdrawLiquidity(uint256)": "0a861f2a"
		}
	},
	"abi": [
		{
			"inputs": [
				{
					"internalType": "address",
					"name": "nft",
					"type": "address"
				},
				{
					"internalType": "address",
					"name": "fft",
					"type": "address"
				}
			],
			"stateMutability": "nonpayable",
			"type": "constructor"
		},
		{
			"inputs": [],
			"name": "DepositFailed",
			"type": "error"
		},
		{
			"inputs": [],
			"name": "InsufficientLiquidity",
			"type": "error"
		},
		{
			"inputs": [],
			"name": "InvalidWithdrawalRequest",
			"type": "error"
		},
		{
			"inputs": [
				{
					"internalType": "uint256",
					"name": "x",
					"type": "uint256"
				},
				{
					"internalType": "uint256",
					"name": "y",
					"type": "uint256"
				}
			],
			"name": "MulDiv18Overflow",
			"type": "error"
		},
		{
			"inputs": [
				{
					"internalType": "uint256",
					"name": "x",
					"type": "uint256"
				},
				{
					"internalType": "uint256",
					"name": "y",
					"type": "uint256"
				},
				{
					"internalType": "uint256",
					"name": "denominator",
					"type": "uint256"
				}
			],
			"name": "MulDivOverflow",
			"type": "error"
		},
		{
			"anonymous": false,
			"inputs": [
				{
					"indexed": false,
					"internalType": "uint256",
					"name": "amount",
					"type": "uint256"
				},
				{
					"indexed": false,
					"internalType": "address",
					"name": "targetAddr",
					"type": "address"
				}
			],
			"name": "NativeTransferred",
			"type": "event"
		},
		{
			"anonymous": false,
			"inputs": [
				{
					"indexed": true,
					"internalType": "address",
					"name": "previousOwner",
					"type": "address"
				}
			],
			"name": "OwnershipRenounced",
			"type": "event"
		},
		{
			"anonymous": false,
			"inputs": [
				{
					"indexed": true,
					"internalType": "address",
					"name": "previousOwner",
					"type": "address"
				},
				{
					"indexed": true,
					"internalType": "address",
					"name": "newOwner",
					"type": "address"
				}
			],
			"name": "OwnershipTransferred",
			"type": "event"
		},
		{
			"inputs": [],
			"name": "FFT",
			"outputs": [
				{
					"internalType": "address",
					"name": "",
					"type": "address"
				}
			],
			"stateMutability": "view",
			"type": "function"
		},
		{
			"inputs": [],
			"name": "NFT",
			"outputs": [
				{
					"internalType": "address",
					"name": "",
					"type": "address"
				}
			],
			"stateMutability": "view",
			"type": "function"
		},
		{
			"inputs": [],
			"name": "_collector",
			"outputs": [
				{
					"internalType": "address",
					"name": "",
					"type": "address"
				}
			],
			"stateMutability": "view",
			"type": "function"
		},
		{
			"inputs": [],
			"name": "_fees",
			"outputs": [
				{
					"internalType": "uint256",
					"name": "",
					"type": "uint256"
				}
			],
			"stateMutability": "view",
			"type": "function"
		},
		{
			"inputs": [],
			"name": "_liquidity",
			"outputs": [
				{
					"internalType": "address",
					"name": "",
					"type": "address"
				}
			],
			"stateMutability": "view",
			"type": "function"
		},
		{
			"inputs": [
				{
					"internalType": "uint256",
					"name": "",
					"type": "uint256"
				}
			],
			"name": "_liquids",
			"outputs": [
				{
					"internalType": "address",
					"name": "depositor",
					"type": "address"
				},
				{
					"internalType": "uint256",
					"name": "depositedAt",
					"type": "uint256"
				},
				{
					"internalType": "uint256",
					"name": "price",
					"type": "uint256"
				},
				{
					"internalType": "uint256",
					"name": "nftAlloc",
					"type": "uint256"
				},
				{
					"internalType": "uint256",
					"name": "fftAlloc",
					"type": "uint256"
				},
				{
					"internalType": "bool",
					"name": "claimed",
					"type": "bool"
				},
				{
					"internalType": "uint256",
					"name": "userIndex",
					"type": "uint256"
				}
			],
			"stateMutability": "view",
			"type": "function"
		},
		{
			"inputs": [],
			"name": "_price",
			"outputs": [
				{
					"internalType": "uint256",
					"name": "",
					"type": "uint256"
				}
			],
			"stateMutability": "view",
			"type": "function"
		},
		{
			"inputs": [],
			"name": "claimFees",
			"outputs": [],
			"stateMutability": "nonpayable",
			"type": "function"
		},
		{
			"inputs": [],
			"name": "decimals",
			"outputs": [
				{
					"internalType": "uint8",
					"name": "",
					"type": "uint8"
				}
			],
			"stateMutability": "view",
			"type": "function"
		},
		{
			"inputs": [
				{
					"internalType": "uint256",
					"name": "amount",
					"type": "uint256"
				}
			],
			"name": "depositFFT",
			"outputs": [],
			"stateMutability": "nonpayable",
			"type": "function"
		},
		{
			"inputs": [
				{
					"internalType": "uint256",
					"name": "amount",
					"type": "uint256"
				}
			],
			"name": "depositNFT",
			"outputs": [],
			"stateMutability": "nonpayable",
			"type": "function"
		},
		{
			"inputs": [],
			"name": "fftLiquidity",
			"outputs": [
				{
					"internalType": "uint256",
					"name": "",
					"type": "uint256"
				}
			],
			"stateMutability": "view",
			"type": "function"
		},
		{
			"inputs": [
				{
					"internalType": "bool",
					"name": "isFFT",
					"type": "bool"
				}
			],
			"name": "getLiquidityCount",
			"outputs": [
				{
					"internalType": "uint256",
					"name": "",
					"type": "uint256"
				}
			],
			"stateMutability": "view",
			"type": "function"
		},
		{
			"inputs": [],
			"name": "isOwner",
			"outputs": [
				{
					"internalType": "bool",
					"name": "",
					"type": "bool"
				}
			],
			"stateMutability": "view",
			"type": "function"
		},
		{
			"inputs": [],
			"name": "name",
			"outputs": [
				{
					"internalType": "string",
					"name": "",
					"type": "string"
				}
			],
			"stateMutability": "view",
			"type": "function"
		},
		{
			"inputs": [],
			"name": "nftLiquidity",
			"outputs": [
				{
					"internalType": "uint256",
					"name": "",
					"type": "uint256"
				}
			],
			"stateMutability": "view",
			"type": "function"
		},
		{
			"inputs": [
				{
					"internalType": "address",
					"name": "operator",
					"type": "address"
				},
				{
					"internalType": "address",
					"name": "from",
					"type": "address"
				},
				{
					"internalType": "uint256",
					"name": "tokenId",
					"type": "uint256"
				},
				{
					"internalType": "bytes",
					"name": "data",
					"type": "bytes"
				}
			],
			"name": "onERC721Received",
			"outputs": [
				{
					"internalType": "bytes4",
					"name": "",
					"type": "bytes4"
				}
			],
			"stateMutability": "nonpayable",
			"type": "function"
		},
		{
			"inputs": [],
			"name": "owner",
			"outputs": [
				{
					"internalType": "address",
					"name": "",
					"type": "address"
				}
			],
			"stateMutability": "view",
			"type": "function"
		},
		{
			"inputs": [
				{
					"internalType": "uint256",
					"name": "index",
					"type": "uint256"
				}
			],
			"name": "queryLiquid",
			"outputs": [
				{
					"components": [
						{
							"internalType": "address",
							"name": "depositor",
							"type": "address"
						},
						{
							"internalType": "uint256",
							"name": "depositedAt",
							"type": "uint256"
						},
						{
							"internalType": "uint256",
							"name": "price",
							"type": "uint256"
						},
						{
							"internalType": "uint256",
							"name": "nftAlloc",
							"type": "uint256"
						},
						{
							"internalType": "uint256",
							"name": "fftAlloc",
							"type": "uint256"
						},
						{
							"internalType": "bool",
							"name": "claimed",
							"type": "bool"
						}
					],
					"internalType": "struct HotswapBase.LiquidData",
					"name": "",
					"type": "tuple"
				}
			],
			"stateMutability": "view",
			"type": "function"
		},
		{
			"inputs": [
				{
					"internalType": "address",
					"name": "depositor",
					"type": "address"
				},
				{
					"internalType": "uint256",
					"name": "index",
					"type": "uint256"
				}
			],
			"name": "queryLiquidbyDepositor",
			"outputs": [
				{
					"components": [
						{
							"internalType": "address",
							"name": "depositor",
							"type": "address"
						},
						{
							"internalType": "uint256",
							"name": "depositedAt",
							"type": "uint256"
						},
						{
							"internalType": "uint256",
							"name": "price",
							"type": "uint256"
						},
						{
							"internalType": "uint256",
							"name": "nftAlloc",
							"type": "uint256"
						},
						{
							"internalType": "uint256",
							"name": "fftAlloc",
							"type": "uint256"
						},
						{
							"internalType": "bool",
							"name": "claimed",
							"type": "bool"
						}
					],
					"internalType": "struct HotswapBase.LiquidData",
					"name": "",
					"type": "tuple"
				}
			],
			"stateMutability": "view",
			"type": "function"
		},
		{
			"inputs": [],
			"name": "renounceOwnership",
			"outputs": [],
			"stateMutability": "nonpayable",
			"type": "function"
		},
		{
			"inputs": [
				{
					"internalType": "address",
					"name": "addr",
					"type": "address"
				}
			],
			"name": "setCollector",
			"outputs": [],
			"stateMutability": "nonpayable",
			"type": "function"
		},
		{
			"inputs": [
				{
					"internalType": "address",
					"name": "addr",
					"type": "address"
				}
			],
			"name": "setLiquidity",
			"outputs": [],
			"stateMutability": "nonpayable",
			"type": "function"
		},
		{
			"inputs": [
				{
					"internalType": "uint256",
					"name": "amount",
					"type": "uint256"
				}
			],
			"name": "swapFFT",
			"outputs": [],
			"stateMutability": "nonpayable",
			"type": "function"
		},
		{
			"inputs": [
				{
					"internalType": "uint256",
					"name": "amount",
					"type": "uint256"
				}
			],
			"name": "swapNFT",
			"outputs": [],
			"stateMutability": "nonpayable",
			"type": "function"
		},
		{
			"inputs": [
				{
					"internalType": "address",
					"name": "newOwner",
					"type": "address"
				}
			],
			"name": "transferOwnership",
			"outputs": [],
			"stateMutability": "nonpayable",
			"type": "function"
		},
		{
			"inputs": [],
			"name": "updatePrice",
			"outputs": [
				{
					"internalType": "uint256",
					"name": "",
					"type": "uint256"
				}
			],
			"stateMutability": "nonpayable",
			"type": "function"
		},
		{
			"inputs": [
				{
					"internalType": "uint256",
					"name": "index",
					"type": "uint256"
				}
			],
			"name": "withdrawLiquidity",
			"outputs": [],
			"stateMutability": "nonpayable",
			"type": "function"
		}
	]
}